{
  "contractName": "BRE",
  "abi": [
    {
      "inputs": [
        {
          "internalType": "uint256",
          "name": "_maxSupply",
          "type": "uint256"
        },
        {
          "internalType": "uint256",
          "name": "_initialSupply",
          "type": "uint256"
        }
      ],
      "stateMutability": "nonpayable",
      "type": "constructor"
    },
    {
      "anonymous": false,
      "inputs": [
        {
          "indexed": true,
          "internalType": "address",
          "name": "owner",
          "type": "address"
        },
        {
          "indexed": true,
          "internalType": "address",
          "name": "spender",
          "type": "address"
        },
        {
          "indexed": false,
          "internalType": "uint256",
          "name": "value",
          "type": "uint256"
        }
      ],
      "name": "Approval",
      "type": "event"
    },
    {
      "anonymous": false,
      "inputs": [
        {
          "indexed": true,
          "internalType": "address",
          "name": "previousOwner",
          "type": "address"
        },
        {
          "indexed": true,
          "internalType": "address",
          "name": "newOwner",
          "type": "address"
        }
      ],
      "name": "OwnershipTransferred",
      "type": "event"
    },
    {
      "anonymous": false,
      "inputs": [
        {
          "indexed": true,
          "internalType": "address",
          "name": "from",
          "type": "address"
        },
        {
          "indexed": true,
          "internalType": "address",
          "name": "to",
          "type": "address"
        },
        {
          "indexed": false,
          "internalType": "uint256",
          "name": "value",
          "type": "uint256"
        }
      ],
      "name": "Transfer",
      "type": "event"
    },
    {
      "inputs": [],
      "name": "MAX_SUPPLY",
      "outputs": [
        {
          "internalType": "uint256",
          "name": "",
          "type": "uint256"
        }
      ],
      "stateMutability": "view",
      "type": "function"
    },
    {
      "inputs": [
        {
          "internalType": "address",
          "name": "",
          "type": "address"
        }
      ],
      "name": "_isExcludedFromMaxWallet",
      "outputs": [
        {
          "internalType": "bool",
          "name": "",
          "type": "bool"
        }
      ],
      "stateMutability": "view",
      "type": "function"
    },
    {
      "inputs": [
        {
          "internalType": "address",
          "name": "owner",
          "type": "address"
        },
        {
          "internalType": "address",
          "name": "spender",
          "type": "address"
        }
      ],
      "name": "allowance",
      "outputs": [
        {
          "internalType": "uint256",
          "name": "",
          "type": "uint256"
        }
      ],
      "stateMutability": "view",
      "type": "function"
    },
    {
      "inputs": [
        {
          "internalType": "address",
          "name": "spender",
          "type": "address"
        },
        {
          "internalType": "uint256",
          "name": "amount",
          "type": "uint256"
        }
      ],
      "name": "approve",
      "outputs": [
        {
          "internalType": "bool",
          "name": "",
          "type": "bool"
        }
      ],
      "stateMutability": "nonpayable",
      "type": "function"
    },
    {
      "inputs": [
        {
          "internalType": "address",
          "name": "account",
          "type": "address"
        }
      ],
      "name": "balanceOf",
      "outputs": [
        {
          "internalType": "uint256",
          "name": "",
          "type": "uint256"
        }
      ],
      "stateMutability": "view",
      "type": "function"
    },
    {
      "inputs": [
        {
          "internalType": "uint256",
          "name": "amount",
          "type": "uint256"
        }
      ],
      "name": "burn",
      "outputs": [],
      "stateMutability": "nonpayable",
      "type": "function"
    },
    {
      "inputs": [
        {
          "internalType": "address",
          "name": "account",
          "type": "address"
        },
        {
          "internalType": "uint256",
          "name": "amount",
          "type": "uint256"
        }
      ],
      "name": "burnFrom",
      "outputs": [],
      "stateMutability": "nonpayable",
      "type": "function"
    },
    {
      "inputs": [],
      "name": "decimals",
      "outputs": [
        {
          "internalType": "uint8",
          "name": "",
          "type": "uint8"
        }
      ],
      "stateMutability": "view",
      "type": "function"
    },
    {
      "inputs": [
        {
          "internalType": "address",
          "name": "spender",
          "type": "address"
        },
        {
          "internalType": "uint256",
          "name": "subtractedValue",
          "type": "uint256"
        }
      ],
      "name": "decreaseAllowance",
      "outputs": [
        {
          "internalType": "bool",
          "name": "",
          "type": "bool"
        }
      ],
      "stateMutability": "nonpayable",
      "type": "function"
    },
    {
      "inputs": [
        {
          "internalType": "address",
          "name": "spender",
          "type": "address"
        },
        {
          "internalType": "uint256",
          "name": "addedValue",
          "type": "uint256"
        }
      ],
      "name": "increaseAllowance",
      "outputs": [
        {
          "internalType": "bool",
          "name": "",
          "type": "bool"
        }
      ],
      "stateMutability": "nonpayable",
      "type": "function"
    },
    {
      "inputs": [],
      "name": "maxWalletToken",
      "outputs": [
        {
          "internalType": "uint256",
          "name": "",
          "type": "uint256"
        }
      ],
      "stateMutability": "view",
      "type": "function"
    },
    {
      "inputs": [],
      "name": "name",
      "outputs": [
        {
          "internalType": "string",
          "name": "",
          "type": "string"
        }
      ],
      "stateMutability": "view",
      "type": "function"
    },
    {
      "inputs": [],
      "name": "owner",
      "outputs": [
        {
          "internalType": "address",
          "name": "",
          "type": "address"
        }
      ],
      "stateMutability": "view",
      "type": "function"
    },
    {
      "inputs": [],
      "name": "renounceOwnership",
      "outputs": [],
      "stateMutability": "nonpayable",
      "type": "function"
    },
    {
      "inputs": [],
      "name": "symbol",
      "outputs": [
        {
          "internalType": "string",
          "name": "",
          "type": "string"
        }
      ],
      "stateMutability": "view",
      "type": "function"
    },
    {
      "inputs": [],
      "name": "totalBurned",
      "outputs": [
        {
          "internalType": "uint256",
          "name": "",
          "type": "uint256"
        }
      ],
      "stateMutability": "view",
      "type": "function"
    },
    {
      "inputs": [],
      "name": "totalSupply",
      "outputs": [
        {
          "internalType": "uint256",
          "name": "",
          "type": "uint256"
        }
      ],
      "stateMutability": "view",
      "type": "function"
    },
    {
      "inputs": [
        {
          "internalType": "address",
          "name": "newOwner",
          "type": "address"
        }
      ],
      "name": "transferOwnership",
      "outputs": [],
      "stateMutability": "nonpayable",
      "type": "function"
    },
    {
      "inputs": [
        {
          "internalType": "address",
          "name": "recipient",
          "type": "address"
        },
        {
          "internalType": "uint256",
          "name": "amount",
          "type": "uint256"
        }
      ],
      "name": "transfer",
      "outputs": [
        {
          "internalType": "bool",
          "name": "",
          "type": "bool"
        }
      ],
      "stateMutability": "nonpayable",
      "type": "function"
    },
    {
      "inputs": [
        {
          "internalType": "address",
          "name": "sender",
          "type": "address"
        },
        {
          "internalType": "address",
          "name": "recipient",
          "type": "address"
        },
        {
          "internalType": "uint256",
          "name": "amount",
          "type": "uint256"
        }
      ],
      "name": "transferFrom",
      "outputs": [
        {
          "internalType": "bool",
          "name": "",
          "type": "bool"
        }
      ],
      "stateMutability": "nonpayable",
      "type": "function"
    },
    {
      "inputs": [
        {
          "internalType": "address",
          "name": "account",
          "type": "address"
        }
      ],
      "name": "excludeFromMaxWallet",
      "outputs": [],
      "stateMutability": "nonpayable",
      "type": "function"
    },
    {
      "inputs": [
        {
          "internalType": "address",
          "name": "account",
          "type": "address"
        }
      ],
      "name": "includeInMaxWallet",
      "outputs": [],
      "stateMutability": "nonpayable",
      "type": "function"
    },
    {
      "inputs": [
        {
          "internalType": "uint8",
          "name": "percent",
          "type": "uint8"
        }
      ],
      "name": "setMaxWalletPercent",
      "outputs": [],
      "stateMutability": "nonpayable",
      "type": "function"
    }
  ],
  "bytecode": "0x60a060405260006006553480156200001657600080fd5b50604051620014af380380620014af8339810160408190526200003991620002fd565b6040518060400160405280600d81526020016c427265657a7946696e616e636560981b8152506040518060400160405280600381526020016242524560e81b81525081600390816200008c9190620003c6565b5060046200009b8282620003c6565b505050620000b8620000b2620001ba60201b60201c565b620001be565b81811115620001345760405162461bcd60e51b815260206004820152603860248201527f4252453a20546865205f696e697469616c537570706c792073686f756c64206e60448201527f6f742065786365656420746865205f6d6178537570706c79000000000000000060648201526084015b60405180910390fd5b60808290526200016c60646200015884600562000210602090811b6200075d17901c565b6200022760201b620007691790919060201c565b600755336000908152600860205260408082208054600160ff19918216811790925530845291909220805490911690911790558015620001b257620001b2338262000235565b5050620004fb565b3390565b600580546001600160a01b038381166001600160a01b0319831681179093556040519116919082907f8be0079c531659141344cd1fd0a4f28419497f9722a3daafe3b4186f6b6457e090600090a35050565b60006200021e8284620004a8565b90505b92915050565b60006200021e8284620004c2565b6001600160a01b0382166200028d5760405162461bcd60e51b815260206004820152601f60248201527f45524332303a206d696e7420746f20746865207a65726f20616464726573730060448201526064016200012b565b8060026000828254620002a19190620004e5565b90915550506001600160a01b038216600081815260208181526040808320805486019055518481527fddf252ad1be2c89b69c2b068fc378daa952ba7f163c4a11628f55a4df523b3ef910160405180910390a35050565b505050565b600080604083850312156200031157600080fd5b505080516020909101519092909150565b634e487b7160e01b600052604160045260246000fd5b600181811c908216806200034d57607f821691505b6020821081036200036e57634e487b7160e01b600052602260045260246000fd5b50919050565b601f821115620002f857600081815260208120601f850160051c810160208610156200039d5750805b601f850160051c820191505b81811015620003be57828155600101620003a9565b505050505050565b81516001600160401b03811115620003e257620003e262000322565b620003fa81620003f3845462000338565b8462000374565b602080601f831160018114620004325760008415620004195750858301515b600019600386901b1c1916600185901b178555620003be565b600085815260208120601f198616915b82811015620004635788860151825594840194600190910190840162000442565b5085821015620004825787850151600019600388901b60f8161c191681555b5050505050600190811b01905550565b634e487b7160e01b600052601160045260246000fd5b808202811582820484141762000221576200022162000492565b600082620004e057634e487b7160e01b600052601260045260246000fd5b500490565b8082018082111562000221576200022162000492565b608051610f916200051e600039600081816101cc015261057b0152610f916000f3fe608060405234801561001057600080fd5b506004361061014d5760003560e01c8063715018a6116100c3578063a9059cbb1161007c578063a9059cbb146102c9578063d1d7d7ef146102dc578063d89135cd146102ff578063dd62ed3e14610308578063e6c75f711461031b578063f2fde38b1461032457600080fd5b8063715018a61461026557806379cc67901461026d5780638da5cb5b14610280578063935ee8a41461029b57806395d89b41146102ae578063a457c2d7146102b657600080fd5b806332cb6b0c1161011557806332cb6b0c146101c757806339509351146101ee5780633f33e9091461020157806342966c68146102165780635b700d911461022957806370a082311461023c57600080fd5b806306fdde0314610152578063095ea7b31461017057806318160ddd1461019357806323b872dd146101a5578063313ce567146101b8575b600080fd5b61015a610337565b6040516101679190610cdb565b60405180910390f35b61018361017e366004610d45565b6103c9565b6040519015158152602001610167565b6002545b604051908152602001610167565b6101836101b3366004610d6f565b6103e3565b60405160128152602001610167565b6101977f000000000000000000000000000000000000000000000000000000000000000081565b6101836101fc366004610d45565b61046c565b61021461020f366004610dab565b61048e565b005b610214610224366004610dc6565b6104dd565b610214610237366004610dab565b6104ea565b61019761024a366004610dab565b6001600160a01b031660009081526020819052604090205490565b61021461053c565b61021461027b366004610d45565b610550565b6005546040516001600160a01b039091168152602001610167565b6102146102a9366004610ddf565b610569565b61015a6105af565b6101836102c4366004610d45565b6105be565b6101836102d7366004610d45565b610644565b6101836102ea366004610dab565b60086020526000908152604090205460ff1681565b61019760065481565b610197610316366004610e02565b6106bc565b61019760075481565b610214610332366004610dab565b6106e7565b60606003805461034690610e35565b80601f016020809104026020016040519081016040528092919081815260200182805461037290610e35565b80156103bf5780601f10610394576101008083540402835291602001916103bf565b820191906000526020600020905b8154815290600101906020018083116103a257829003601f168201915b5050505050905090565b6000336103d7818585610775565b60019150505b92915050565b6001600160a01b03821660009081526008602052604081205460ff168061043457506007546104318361042b866001600160a01b031660009081526020819052604090205490565b9061089a565b11155b6104595760405162461bcd60e51b815260040161045090610e6f565b60405180910390fd5b6104648484846108a6565b949350505050565b6000336103d781858561047f83836106bc565b6104899190610ece565b610775565b6104966108bf565b6001600160a01b0381166104bc5760405162461bcd60e51b815260040161045090610ee1565b6001600160a01b03166000908152600860205260409020805460ff19169055565b6104e73382610919565b50565b6104f26108bf565b6001600160a01b0381166105185760405162461bcd60e51b815260040161045090610ee1565b6001600160a01b03166000908152600860205260409020805460ff19166001179055565b6105446108bf565b61054e6000610937565b565b61055b823383610989565b6105658282610919565b5050565b6105716108bf565b6105a960646105a37f000000000000000000000000000000000000000000000000000000000000000060ff851661075d565b90610769565b60075550565b60606004805461034690610e35565b600033816105cc82866106bc565b90508381101561062c5760405162461bcd60e51b815260206004820152602560248201527f45524332303a2064656372656173656420616c6c6f77616e63652062656c6f77604482015264207a65726f60d81b6064820152608401610450565b6106398286868403610775565b506001949350505050565b6001600160a01b03821660009081526008602052604081205460ff168061068f575060075461068c8361042b866001600160a01b031660009081526020819052604090205490565b11155b6106ab5760405162461bcd60e51b815260040161045090610e6f565b6106b58383610a03565b9392505050565b6001600160a01b03918216600090815260016020908152604080832093909416825291909152205490565b6106ef6108bf565b6001600160a01b0381166107545760405162461bcd60e51b815260206004820152602660248201527f4f776e61626c653a206e6577206f776e657220697320746865207a65726f206160448201526564647265737360d01b6064820152608401610450565b6104e781610937565b60006106b58284610f22565b60006106b58284610f39565b6001600160a01b0383166107d75760405162461bcd60e51b8152602060048201526024808201527f45524332303a20617070726f76652066726f6d20746865207a65726f206164646044820152637265737360e01b6064820152608401610450565b6001600160a01b0382166108385760405162461bcd60e51b815260206004820152602260248201527f45524332303a20617070726f766520746f20746865207a65726f206164647265604482015261737360f01b6064820152608401610450565b6001600160a01b0383811660008181526001602090815260408083209487168084529482529182902085905590518481527f8c5be1e5ebec7d5bd14f71427d1e84f3dd0314c0f7b2291e5b200ac8c7c3b92591015b60405180910390a3505050565b60006106b58284610ece565b6000336108b4858285610989565b610639858585610a0d565b6005546001600160a01b0316331461054e5760405162461bcd60e51b815260206004820181905260248201527f4f776e61626c653a2063616c6c6572206973206e6f7420746865206f776e65726044820152606401610450565b6109238282610bb1565b600654610930908261089a565b6006555050565b600580546001600160a01b038381166001600160a01b0319831681179093556040519116919082907f8be0079c531659141344cd1fd0a4f28419497f9722a3daafe3b4186f6b6457e090600090a35050565b600061099584846106bc565b905060001981146109fd57818110156109f05760405162461bcd60e51b815260206004820152601d60248201527f45524332303a20696e73756666696369656e7420616c6c6f77616e63650000006044820152606401610450565b6109fd8484848403610775565b50505050565b6000336103d78185855b6001600160a01b038316610a715760405162461bcd60e51b815260206004820152602560248201527f45524332303a207472616e736665722066726f6d20746865207a65726f206164604482015264647265737360d81b6064820152608401610450565b6001600160a01b038216610ad35760405162461bcd60e51b815260206004820152602360248201527f45524332303a207472616e7366657220746f20746865207a65726f206164647260448201526265737360e81b6064820152608401610450565b6001600160a01b03831660009081526020819052604090205481811015610b4b5760405162461bcd60e51b815260206004820152602660248201527f45524332303a207472616e7366657220616d6f756e7420657863656564732062604482015265616c616e636560d01b6064820152608401610450565b6001600160a01b03848116600081815260208181526040808320878703905593871680835291849020805487019055925185815290927fddf252ad1be2c89b69c2b068fc378daa952ba7f163c4a11628f55a4df523b3ef910160405180910390a36109fd565b6001600160a01b038216610c115760405162461bcd60e51b815260206004820152602160248201527f45524332303a206275726e2066726f6d20746865207a65726f206164647265736044820152607360f81b6064820152608401610450565b6001600160a01b03821660009081526020819052604090205481811015610c855760405162461bcd60e51b815260206004820152602260248201527f45524332303a206275726e20616d6f756e7420657863656564732062616c616e604482015261636560f01b6064820152608401610450565b6001600160a01b0383166000818152602081815260408083208686039055600280548790039055518581529192917fddf252ad1be2c89b69c2b068fc378daa952ba7f163c4a11628f55a4df523b3ef910161088d565b600060208083528351808285015260005b81811015610d0857858101830151858201604001528201610cec565b506000604082860101526040601f19601f8301168501019250505092915050565b80356001600160a01b0381168114610d4057600080fd5b919050565b60008060408385031215610d5857600080fd5b610d6183610d29565b946020939093013593505050565b600080600060608486031215610d8457600080fd5b610d8d84610d29565b9250610d9b60208501610d29565b9150604084013590509250925092565b600060208284031215610dbd57600080fd5b6106b582610d29565b600060208284031215610dd857600080fd5b5035919050565b600060208284031215610df157600080fd5b813560ff811681146106b557600080fd5b60008060408385031215610e1557600080fd5b610e1e83610d29565b9150610e2c60208401610d29565b90509250929050565b600181811c90821680610e4957607f821691505b602082108103610e6957634e487b7160e01b600052602260045260246000fd5b50919050565b60208082526029908201527f4252453a2045786365656473206d6178696d756d2077616c6c657420746f6b65604082015268371030b6b7bab73a1760b91b606082015260800190565b634e487b7160e01b600052601160045260246000fd5b808201808211156103dd576103dd610eb8565b60208082526021908201527f4252453a205a65726f2061646472657373206973206e6f7420616c6c6f7765646040820152601760f91b606082015260800190565b80820281158282048414176103dd576103dd610eb8565b600082610f5657634e487b7160e01b600052601260045260246000fd5b50049056fea26469706673582212202b8ceb82c69a1e16aadfe69590cb6f8dfda2504fc236b81431de40f50261883a64736f6c63430008110033",
  "immutableReferences": {
    "1197": [
      {
        "length": 32,
        "start": 460
      },
      {
        "length": 32,
        "start": 1403
      }
    ]
  },
  "source": "// SPDX-License-Identifier: MIT\npragma solidity >=0.6.12;\n\nimport \"@openzeppelin/contracts/utils/math/SafeMath.sol\";\nimport \"@openzeppelin/contracts/token/ERC20/IERC20.sol\";\nimport \"@openzeppelin/contracts/token/ERC20/ERC20.sol\";\nimport \"@openzeppelin/contracts/token/ERC20/extensions/ERC20Burnable.sol\";\nimport \"@openzeppelin/contracts/utils/Context.sol\";\nimport \"@openzeppelin/contracts/access/Ownable.sol\";\n\ncontract BRE is ERC20Burnable, Ownable {\n    using SafeMath for uint256;\n\n    uint256 public immutable MAX_SUPPLY;\n\n    uint256 public totalBurned = 0;\n\n    // Wallet holding limit mechanism\n    uint256 public maxWalletToken;\n    mapping(address => bool) public _isExcludedFromMaxWallet;\n\n    constructor(\n        uint256 _maxSupply,\n        uint256 _initialSupply\n    ) ERC20(\"BreezyFinance\", \"BRE\") {\n        require(_initialSupply <= _maxSupply, \"BRE: The _initialSupply should not exceed the _maxSupply\");\n        MAX_SUPPLY = _maxSupply;\n\n        maxWalletToken = _maxSupply.mul(5).div(100);  // 5% of max supply\n\n        // Exclude owner and this contract from max wallet limit\n        _isExcludedFromMaxWallet[msg.sender] = true;\n        _isExcludedFromMaxWallet[address(this)] = true;\n\n        if (_initialSupply > 0) {\n            _mint(_msgSender(), _initialSupply);\n        }\n    }\n\n    function _burn(address account, uint256 amount) internal override {\n        super._burn(account, amount);\n        totalBurned = totalBurned.add(amount);\n    }\n\n    function transfer(address recipient, uint256 amount) public override returns (bool) {\n        require(\n            _isExcludedFromMaxWallet[recipient] || balanceOf(recipient).add(amount) <= maxWalletToken,\n            \"BRE: Exceeds maximum wallet token amount.\"\n        );\n        return super.transfer(recipient, amount);\n    }\n\n    function transferFrom(address sender, address recipient, uint256 amount) public override returns (bool) {\n        require(\n            _isExcludedFromMaxWallet[recipient] || balanceOf(recipient).add(amount) <= maxWalletToken,\n            \"BRE: Exceeds maximum wallet token amount.\"\n        );\n        return super.transferFrom(sender, recipient, amount);\n    }\n\n    function excludeFromMaxWallet(address account) public onlyOwner {\n        require(account != address(0), \"BRE: Zero address is not allowed.\");\n        _isExcludedFromMaxWallet[account] = true;\n    }\n\n    function includeInMaxWallet(address account) public onlyOwner {\n        require(account != address(0), \"BRE: Zero address is not allowed.\");\n        _isExcludedFromMaxWallet[account] = false;\n    }\n\n    function setMaxWalletPercent(uint8 percent) public onlyOwner {\n        maxWalletToken = MAX_SUPPLY.mul(percent).div(100);\n    }\n}\n",
  "sourcePath": "/Applications/projects/breezy-contracts/contracts/BRE.sol",
  "compiler": {
    "name": "solc",
    "version": "0.8.17+commit.8df45f5f.Emscripten.clang"
  },
  "schemaVersion": "3.4.13",
  "updatedAt": "2023-08-05T09:19:54.751Z",
  "devdoc": {
    "kind": "dev",
    "methods": {
      "allowance(address,address)": {
        "details": "See {IERC20-allowance}."
      },
      "approve(address,uint256)": {
        "details": "See {IERC20-approve}. NOTE: If `amount` is the maximum `uint256`, the allowance is not updated on `transferFrom`. This is semantically equivalent to an infinite approval. Requirements: - `spender` cannot be the zero address."
      },
      "balanceOf(address)": {
        "details": "See {IERC20-balanceOf}."
      },
      "burn(uint256)": {
        "details": "Destroys `amount` tokens from the caller. See {ERC20-_burn}."
      },
      "burnFrom(address,uint256)": {
        "details": "Destroys `amount` tokens from `account`, deducting from the caller's allowance. See {ERC20-_burn} and {ERC20-allowance}. Requirements: - the caller must have allowance for ``accounts``'s tokens of at least `amount`."
      },
      "decimals()": {
        "details": "Returns the number of decimals used to get its user representation. For example, if `decimals` equals `2`, a balance of `505` tokens should be displayed to a user as `5.05` (`505 / 10 ** 2`). Tokens usually opt for a value of 18, imitating the relationship between Ether and Wei. This is the default value returned by this function, unless it's overridden. NOTE: This information is only used for _display_ purposes: it in no way affects any of the arithmetic of the contract, including {IERC20-balanceOf} and {IERC20-transfer}."
      },
      "decreaseAllowance(address,uint256)": {
        "details": "Atomically decreases the allowance granted to `spender` by the caller. This is an alternative to {approve} that can be used as a mitigation for problems described in {IERC20-approve}. Emits an {Approval} event indicating the updated allowance. Requirements: - `spender` cannot be the zero address. - `spender` must have allowance for the caller of at least `subtractedValue`."
      },
      "increaseAllowance(address,uint256)": {
        "details": "Atomically increases the allowance granted to `spender` by the caller. This is an alternative to {approve} that can be used as a mitigation for problems described in {IERC20-approve}. Emits an {Approval} event indicating the updated allowance. Requirements: - `spender` cannot be the zero address."
      },
      "name()": {
        "details": "Returns the name of the token."
      },
      "owner()": {
        "details": "Returns the address of the current owner."
      },
      "renounceOwnership()": {
        "details": "Leaves the contract without owner. It will not be possible to call `onlyOwner` functions. Can only be called by the current owner. NOTE: Renouncing ownership will leave the contract without an owner, thereby disabling any functionality that is only available to the owner."
      },
      "symbol()": {
        "details": "Returns the symbol of the token, usually a shorter version of the name."
      },
      "totalSupply()": {
        "details": "See {IERC20-totalSupply}."
      },
      "transferOwnership(address)": {
        "details": "Transfers ownership of the contract to a new account (`newOwner`). Can only be called by the current owner."
      }
    },
    "version": 1
  },
  "userdoc": {
    "kind": "user",
    "methods": {},
    "version": 1
  }
}