{
  "contractName": "BRE",
  "abi": [
    {
      "inputs": [
        {
          "internalType": "uint256",
          "name": "_maxSupply",
          "type": "uint256"
        },
        {
          "internalType": "uint256",
          "name": "_initialSupply",
          "type": "uint256"
        }
      ],
      "stateMutability": "nonpayable",
      "type": "constructor"
    },
    {
      "anonymous": false,
      "inputs": [
        {
          "indexed": true,
          "internalType": "address",
          "name": "owner",
          "type": "address"
        },
        {
          "indexed": true,
          "internalType": "address",
          "name": "spender",
          "type": "address"
        },
        {
          "indexed": false,
          "internalType": "uint256",
          "name": "value",
          "type": "uint256"
        }
      ],
      "name": "Approval",
      "type": "event"
    },
    {
      "anonymous": false,
      "inputs": [
        {
          "indexed": true,
          "internalType": "address",
          "name": "previousOwner",
          "type": "address"
        },
        {
          "indexed": true,
          "internalType": "address",
          "name": "newOwner",
          "type": "address"
        }
      ],
      "name": "OwnershipTransferred",
      "type": "event"
    },
    {
      "anonymous": false,
      "inputs": [
        {
          "indexed": true,
          "internalType": "address",
          "name": "from",
          "type": "address"
        },
        {
          "indexed": true,
          "internalType": "address",
          "name": "to",
          "type": "address"
        },
        {
          "indexed": false,
          "internalType": "uint256",
          "name": "value",
          "type": "uint256"
        }
      ],
      "name": "Transfer",
      "type": "event"
    },
    {
      "inputs": [],
      "name": "MAX_SUPPLY",
      "outputs": [
        {
          "internalType": "uint256",
          "name": "",
          "type": "uint256"
        }
      ],
      "stateMutability": "view",
      "type": "function"
    },
    {
      "inputs": [
        {
          "internalType": "address",
          "name": "",
          "type": "address"
        }
      ],
      "name": "_isExcludedFromMaxWallet",
      "outputs": [
        {
          "internalType": "bool",
          "name": "",
          "type": "bool"
        }
      ],
      "stateMutability": "view",
      "type": "function"
    },
    {
      "inputs": [
        {
          "internalType": "address",
          "name": "owner",
          "type": "address"
        },
        {
          "internalType": "address",
          "name": "spender",
          "type": "address"
        }
      ],
      "name": "allowance",
      "outputs": [
        {
          "internalType": "uint256",
          "name": "",
          "type": "uint256"
        }
      ],
      "stateMutability": "view",
      "type": "function"
    },
    {
      "inputs": [
        {
          "internalType": "address",
          "name": "spender",
          "type": "address"
        },
        {
          "internalType": "uint256",
          "name": "amount",
          "type": "uint256"
        }
      ],
      "name": "approve",
      "outputs": [
        {
          "internalType": "bool",
          "name": "",
          "type": "bool"
        }
      ],
      "stateMutability": "nonpayable",
      "type": "function"
    },
    {
      "inputs": [
        {
          "internalType": "address",
          "name": "account",
          "type": "address"
        }
      ],
      "name": "balanceOf",
      "outputs": [
        {
          "internalType": "uint256",
          "name": "",
          "type": "uint256"
        }
      ],
      "stateMutability": "view",
      "type": "function"
    },
    {
      "inputs": [
        {
          "internalType": "uint256",
          "name": "amount",
          "type": "uint256"
        }
      ],
      "name": "burn",
      "outputs": [],
      "stateMutability": "nonpayable",
      "type": "function"
    },
    {
      "inputs": [
        {
          "internalType": "address",
          "name": "account",
          "type": "address"
        },
        {
          "internalType": "uint256",
          "name": "amount",
          "type": "uint256"
        }
      ],
      "name": "burnFrom",
      "outputs": [],
      "stateMutability": "nonpayable",
      "type": "function"
    },
    {
      "inputs": [],
      "name": "decimals",
      "outputs": [
        {
          "internalType": "uint8",
          "name": "",
          "type": "uint8"
        }
      ],
      "stateMutability": "view",
      "type": "function"
    },
    {
      "inputs": [
        {
          "internalType": "address",
          "name": "spender",
          "type": "address"
        },
        {
          "internalType": "uint256",
          "name": "subtractedValue",
          "type": "uint256"
        }
      ],
      "name": "decreaseAllowance",
      "outputs": [
        {
          "internalType": "bool",
          "name": "",
          "type": "bool"
        }
      ],
      "stateMutability": "nonpayable",
      "type": "function"
    },
    {
      "inputs": [
        {
          "internalType": "address",
          "name": "spender",
          "type": "address"
        },
        {
          "internalType": "uint256",
          "name": "addedValue",
          "type": "uint256"
        }
      ],
      "name": "increaseAllowance",
      "outputs": [
        {
          "internalType": "bool",
          "name": "",
          "type": "bool"
        }
      ],
      "stateMutability": "nonpayable",
      "type": "function"
    },
    {
      "inputs": [],
      "name": "maxWalletToken",
      "outputs": [
        {
          "internalType": "uint256",
          "name": "",
          "type": "uint256"
        }
      ],
      "stateMutability": "view",
      "type": "function"
    },
    {
      "inputs": [],
      "name": "name",
      "outputs": [
        {
          "internalType": "string",
          "name": "",
          "type": "string"
        }
      ],
      "stateMutability": "view",
      "type": "function"
    },
    {
      "inputs": [],
      "name": "owner",
      "outputs": [
        {
          "internalType": "address",
          "name": "",
          "type": "address"
        }
      ],
      "stateMutability": "view",
      "type": "function"
    },
    {
      "inputs": [],
      "name": "renounceOwnership",
      "outputs": [],
      "stateMutability": "nonpayable",
      "type": "function"
    },
    {
      "inputs": [],
      "name": "symbol",
      "outputs": [
        {
          "internalType": "string",
          "name": "",
          "type": "string"
        }
      ],
      "stateMutability": "view",
      "type": "function"
    },
    {
      "inputs": [],
      "name": "totalBurned",
      "outputs": [
        {
          "internalType": "uint256",
          "name": "",
          "type": "uint256"
        }
      ],
      "stateMutability": "view",
      "type": "function"
    },
    {
      "inputs": [],
      "name": "totalSupply",
      "outputs": [
        {
          "internalType": "uint256",
          "name": "",
          "type": "uint256"
        }
      ],
      "stateMutability": "view",
      "type": "function"
    },
    {
      "inputs": [
        {
          "internalType": "address",
          "name": "newOwner",
          "type": "address"
        }
      ],
      "name": "transferOwnership",
      "outputs": [],
      "stateMutability": "nonpayable",
      "type": "function"
    },
    {
      "inputs": [],
      "name": "transfersEnabled",
      "outputs": [
        {
          "internalType": "bool",
          "name": "",
          "type": "bool"
        }
      ],
      "stateMutability": "view",
      "type": "function"
    },
    {
      "inputs": [
        {
          "internalType": "address",
          "name": "recipient",
          "type": "address"
        },
        {
          "internalType": "uint256",
          "name": "amount",
          "type": "uint256"
        }
      ],
      "name": "transfer",
      "outputs": [
        {
          "internalType": "bool",
          "name": "",
          "type": "bool"
        }
      ],
      "stateMutability": "nonpayable",
      "type": "function"
    },
    {
      "inputs": [
        {
          "internalType": "address",
          "name": "sender",
          "type": "address"
        },
        {
          "internalType": "address",
          "name": "recipient",
          "type": "address"
        },
        {
          "internalType": "uint256",
          "name": "amount",
          "type": "uint256"
        }
      ],
      "name": "transferFrom",
      "outputs": [
        {
          "internalType": "bool",
          "name": "",
          "type": "bool"
        }
      ],
      "stateMutability": "nonpayable",
      "type": "function"
    },
    {
      "inputs": [
        {
          "internalType": "address",
          "name": "account",
          "type": "address"
        }
      ],
      "name": "excludeFromMaxWallet",
      "outputs": [],
      "stateMutability": "nonpayable",
      "type": "function"
    },
    {
      "inputs": [
        {
          "internalType": "address",
          "name": "account",
          "type": "address"
        }
      ],
      "name": "includeInMaxWallet",
      "outputs": [],
      "stateMutability": "nonpayable",
      "type": "function"
    },
    {
      "inputs": [
        {
          "internalType": "uint8",
          "name": "percent",
          "type": "uint8"
        }
      ],
      "name": "setMaxWalletPercent",
      "outputs": [],
      "stateMutability": "nonpayable",
      "type": "function"
    },
    {
      "inputs": [],
      "name": "enableTransfers",
      "outputs": [],
      "stateMutability": "nonpayable",
      "type": "function"
    },
    {
      "inputs": [],
      "name": "disableTransfers",
      "outputs": [],
      "stateMutability": "nonpayable",
      "type": "function"
    }
  ],
  "bytecode": "0x60a060405260006006556007805460ff191690553480156200002057600080fd5b506040516200162e3803806200162e833981016040819052620000439162000307565b6040518060400160405280600d81526020016c427265657a7946696e616e636560981b8152506040518060400160405280600381526020016242524560e81b8152508160039081620000969190620003d0565b506004620000a58282620003d0565b505050620000c2620000bc620001c460201b60201c565b620001c8565b818111156200013e5760405162461bcd60e51b815260206004820152603860248201527f4252453a20546865205f696e697469616c537570706c792073686f756c64206e60448201527f6f742065786365656420746865205f6d6178537570706c79000000000000000060648201526084015b60405180910390fd5b6080829052620001766064620001628460056200021a602090811b620008d217901c565b6200023160201b620008de1790919060201c565b600855336000908152600960205260408082208054600160ff19918216811790925530845291909220805490911690911790558015620001bc57620001bc33826200023f565b505062000505565b3390565b600580546001600160a01b038381166001600160a01b0319831681179093556040519116919082907f8be0079c531659141344cd1fd0a4f28419497f9722a3daafe3b4186f6b6457e090600090a35050565b6000620002288284620004b2565b90505b92915050565b6000620002288284620004cc565b6001600160a01b038216620002975760405162461bcd60e51b815260206004820152601f60248201527f45524332303a206d696e7420746f20746865207a65726f206164647265737300604482015260640162000135565b8060026000828254620002ab9190620004ef565b90915550506001600160a01b038216600081815260208181526040808320805486019055518481527fddf252ad1be2c89b69c2b068fc378daa952ba7f163c4a11628f55a4df523b3ef910160405180910390a35050565b505050565b600080604083850312156200031b57600080fd5b505080516020909101519092909150565b634e487b7160e01b600052604160045260246000fd5b600181811c908216806200035757607f821691505b6020821081036200037857634e487b7160e01b600052602260045260246000fd5b50919050565b601f8211156200030257600081815260208120601f850160051c81016020861015620003a75750805b601f850160051c820191505b81811015620003c857828155600101620003b3565b505050505050565b81516001600160401b03811115620003ec57620003ec6200032c565b6200040481620003fd845462000342565b846200037e565b602080601f8311600181146200043c5760008415620004235750858301515b600019600386901b1c1916600185901b178555620003c8565b600085815260208120601f198616915b828110156200046d578886015182559484019460019091019084016200044c565b50858210156200048c5787850151600019600388901b60f8161c191681555b5050505050600190811b01905550565b634e487b7160e01b600052601160045260246000fd5b80820281158282048414176200022b576200022b6200049c565b600082620004ea57634e487b7160e01b600052601260045260246000fd5b500490565b808201808211156200022b576200022b6200049c565b608051611106620005286000396000818161020d015261065101526111066000f3fe608060405234801561001057600080fd5b506004361061018e5760003560e01c806379cc6790116100de578063af35c6c711610097578063d89135cd11610071578063d89135cd1461035d578063dd62ed3e14610366578063e6c75f7114610379578063f2fde38b1461038257600080fd5b8063af35c6c714610325578063bef97c871461032d578063d1d7d7ef1461033a57600080fd5b806379cc6790146102b65780638da5cb5b146102c9578063935ee8a4146102e457806395d89b41146102f7578063a457c2d7146102ff578063a9059cbb1461031257600080fd5b8063395093511161014b57806342966c681161012557806342966c681461025f5780635b700d911461027257806370a0823114610285578063715018a6146102ae57600080fd5b8063395093511461022f5780633a67a0f6146102425780633f33e9091461024c57600080fd5b806306fdde0314610193578063095ea7b3146101b157806318160ddd146101d457806323b872dd146101e6578063313ce567146101f957806332cb6b0c14610208575b600080fd5b61019b610395565b6040516101a89190610e50565b60405180910390f35b6101c46101bf366004610eba565b610427565b60405190151581526020016101a8565b6002545b6040519081526020016101a8565b6101c46101f4366004610ee4565b610441565b604051601281526020016101a8565b6101d87f000000000000000000000000000000000000000000000000000000000000000081565b6101c461023d366004610eba565b6104ca565b61024a6104ec565b005b61024a61025a366004610f20565b610500565b61024a61026d366004610f3b565b61054f565b61024a610280366004610f20565b61055c565b6101d8610293366004610f20565b6001600160a01b031660009081526020819052604090205490565b61024a6105ae565b61024a6102c4366004610eba565b6105c2565b6005546040516001600160a01b0390911681526020016101a8565b61024a6102f2366004610f54565b6105db565b61019b610685565b6101c461030d366004610eba565b610694565b6101c4610320366004610eba565b61071a565b61024a61081a565b6007546101c49060ff1681565b6101c4610348366004610f20565b60096020526000908152604090205460ff1681565b6101d860065481565b6101d8610374366004610f77565b610831565b6101d860085481565b61024a610390366004610f20565b61085c565b6060600380546103a490610faa565b80601f01602080910402602001604051908101604052809291908181526020018280546103d090610faa565b801561041d5780601f106103f25761010080835404028352916020019161041d565b820191906000526020600020905b81548152906001019060200180831161040057829003601f168201915b5050505050905090565b6000336104358185856108ea565b60019150505b92915050565b6001600160a01b03821660009081526009602052604081205460ff1680610492575060085461048f83610489866001600160a01b031660009081526020819052604090205490565b90610a0f565b11155b6104b75760405162461bcd60e51b81526004016104ae90610fe4565b60405180910390fd5b6104c2848484610a1b565b949350505050565b6000336104358185856104dd8383610831565b6104e79190611043565b6108ea565b6104f4610a34565b6007805460ff19169055565b610508610a34565b6001600160a01b03811661052e5760405162461bcd60e51b81526004016104ae90611056565b6001600160a01b03166000908152600960205260409020805460ff19169055565b6105593382610a8e565b50565b610564610a34565b6001600160a01b03811661058a5760405162461bcd60e51b81526004016104ae90611056565b6001600160a01b03166000908152600960205260409020805460ff19166001179055565b6105b6610a34565b6105c06000610aac565b565b6105cd823383610afe565b6105d78282610a8e565b5050565b6105e3610a34565b60058160ff1610156106475760405162461bcd60e51b815260206004820152602760248201527f4252453a2043616e6e6f7420736574206d617857616c6c6574546f6b656e2062604482015266656c6f7720352560c81b60648201526084016104ae565b61067f60646106797f000000000000000000000000000000000000000000000000000000000000000060ff85166108d2565b906108de565b60085550565b6060600480546103a490610faa565b600033816106a28286610831565b9050838110156107025760405162461bcd60e51b815260206004820152602560248201527f45524332303a2064656372656173656420616c6c6f77616e63652062656c6f77604482015264207a65726f60d81b60648201526084016104ae565b61070f82868684036108ea565b506001949350505050565b60075460009060ff168061073857506005546001600160a01b031633145b6107a25760405162461bcd60e51b815260206004820152603560248201527f4252453a205472616e7366657273206172652064697361626c65642c206f6e6c6044820152743c9037bbb732b91031b0b7103a3930b739b332b91760591b60648201526084016104ae565b6001600160a01b03831660009081526009602052604090205460ff16806107ed57506008546107ea83610489866001600160a01b031660009081526020819052604090205490565b11155b6108095760405162461bcd60e51b81526004016104ae90610fe4565b6108138383610b78565b9392505050565b610822610a34565b6007805460ff19166001179055565b6001600160a01b03918216600090815260016020908152604080832093909416825291909152205490565b610864610a34565b6001600160a01b0381166108c95760405162461bcd60e51b815260206004820152602660248201527f4f776e61626c653a206e6577206f776e657220697320746865207a65726f206160448201526564647265737360d01b60648201526084016104ae565b61055981610aac565b60006108138284611097565b600061081382846110ae565b6001600160a01b03831661094c5760405162461bcd60e51b8152602060048201526024808201527f45524332303a20617070726f76652066726f6d20746865207a65726f206164646044820152637265737360e01b60648201526084016104ae565b6001600160a01b0382166109ad5760405162461bcd60e51b815260206004820152602260248201527f45524332303a20617070726f766520746f20746865207a65726f206164647265604482015261737360f01b60648201526084016104ae565b6001600160a01b0383811660008181526001602090815260408083209487168084529482529182902085905590518481527f8c5be1e5ebec7d5bd14f71427d1e84f3dd0314c0f7b2291e5b200ac8c7c3b92591015b60405180910390a3505050565b60006108138284611043565b600033610a29858285610afe565b61070f858585610b82565b6005546001600160a01b031633146105c05760405162461bcd60e51b815260206004820181905260248201527f4f776e61626c653a2063616c6c6572206973206e6f7420746865206f776e657260448201526064016104ae565b610a988282610d26565b600654610aa59082610a0f565b6006555050565b600580546001600160a01b038381166001600160a01b0319831681179093556040519116919082907f8be0079c531659141344cd1fd0a4f28419497f9722a3daafe3b4186f6b6457e090600090a35050565b6000610b0a8484610831565b90506000198114610b725781811015610b655760405162461bcd60e51b815260206004820152601d60248201527f45524332303a20696e73756666696369656e7420616c6c6f77616e636500000060448201526064016104ae565b610b7284848484036108ea565b50505050565b6000336104358185855b6001600160a01b038316610be65760405162461bcd60e51b815260206004820152602560248201527f45524332303a207472616e736665722066726f6d20746865207a65726f206164604482015264647265737360d81b60648201526084016104ae565b6001600160a01b038216610c485760405162461bcd60e51b815260206004820152602360248201527f45524332303a207472616e7366657220746f20746865207a65726f206164647260448201526265737360e81b60648201526084016104ae565b6001600160a01b03831660009081526020819052604090205481811015610cc05760405162461bcd60e51b815260206004820152602660248201527f45524332303a207472616e7366657220616d6f756e7420657863656564732062604482015265616c616e636560d01b60648201526084016104ae565b6001600160a01b03848116600081815260208181526040808320878703905593871680835291849020805487019055925185815290927fddf252ad1be2c89b69c2b068fc378daa952ba7f163c4a11628f55a4df523b3ef910160405180910390a3610b72565b6001600160a01b038216610d865760405162461bcd60e51b815260206004820152602160248201527f45524332303a206275726e2066726f6d20746865207a65726f206164647265736044820152607360f81b60648201526084016104ae565b6001600160a01b03821660009081526020819052604090205481811015610dfa5760405162461bcd60e51b815260206004820152602260248201527f45524332303a206275726e20616d6f756e7420657863656564732062616c616e604482015261636560f01b60648201526084016104ae565b6001600160a01b0383166000818152602081815260408083208686039055600280548790039055518581529192917fddf252ad1be2c89b69c2b068fc378daa952ba7f163c4a11628f55a4df523b3ef9101610a02565b600060208083528351808285015260005b81811015610e7d57858101830151858201604001528201610e61565b506000604082860101526040601f19601f8301168501019250505092915050565b80356001600160a01b0381168114610eb557600080fd5b919050565b60008060408385031215610ecd57600080fd5b610ed683610e9e565b946020939093013593505050565b600080600060608486031215610ef957600080fd5b610f0284610e9e565b9250610f1060208501610e9e565b9150604084013590509250925092565b600060208284031215610f3257600080fd5b61081382610e9e565b600060208284031215610f4d57600080fd5b5035919050565b600060208284031215610f6657600080fd5b813560ff8116811461081357600080fd5b60008060408385031215610f8a57600080fd5b610f9383610e9e565b9150610fa160208401610e9e565b90509250929050565b600181811c90821680610fbe57607f821691505b602082108103610fde57634e487b7160e01b600052602260045260246000fd5b50919050565b60208082526029908201527f4252453a2045786365656473206d6178696d756d2077616c6c657420746f6b65604082015268371030b6b7bab73a1760b91b606082015260800190565b634e487b7160e01b600052601160045260246000fd5b8082018082111561043b5761043b61102d565b60208082526021908201527f4252453a205a65726f2061646472657373206973206e6f7420616c6c6f7765646040820152601760f91b606082015260800190565b808202811582820484141761043b5761043b61102d565b6000826110cb57634e487b7160e01b600052601260045260246000fd5b50049056fea2646970667358221220396b4744ff34bd318ed09e542a244274822201edec469a6ac48190985f19359264736f6c63430008110033",
  "immutableReferences": {
    "4116": [
      {
        "length": 32,
        "start": 525
      },
      {
        "length": 32,
        "start": 1617
      }
    ]
  },
  "source": "// SPDX-License-Identifier: MIT\npragma solidity >=0.6.12;\n\nimport \"@openzeppelin/contracts/utils/math/SafeMath.sol\";\nimport \"@openzeppelin/contracts/token/ERC20/IERC20.sol\";\nimport \"@openzeppelin/contracts/token/ERC20/ERC20.sol\";\nimport \"@openzeppelin/contracts/token/ERC20/extensions/ERC20Burnable.sol\";\nimport \"@openzeppelin/contracts/utils/Context.sol\";\nimport \"@openzeppelin/contracts/access/Ownable.sol\";\n\n/*\n * For more details, visit the following links:\n * Website: https://breezy.finance\n * Twitter: https://twitter.com/BreezyFinance\n * Telegram: https://t.me/BreezyFinanceChannel\n * GitHub: https://github.com/breezyfinance\n */\n\ncontract BRE is ERC20Burnable, Ownable {\n    using SafeMath for uint256;\n\n    uint256 public immutable MAX_SUPPLY;\n\n    uint256 public totalBurned = 0;\n\n    bool public transfersEnabled = false; // State variable to control transfers support init liquidity\n\n    // Wallet holding limit mechanism\n    uint256 public maxWalletToken;\n    mapping(address => bool) public _isExcludedFromMaxWallet;\n\n    constructor(\n        uint256 _maxSupply,\n        uint256 _initialSupply\n    ) ERC20(\"BreezyFinance\", \"BRE\") {\n        require(_initialSupply <= _maxSupply, \"BRE: The _initialSupply should not exceed the _maxSupply\");\n        MAX_SUPPLY = _maxSupply;\n\n        maxWalletToken = _maxSupply.mul(5).div(100);  // 5% of max supply\n\n        // Exclude owner and this contract from max wallet limit\n        _isExcludedFromMaxWallet[msg.sender] = true;\n        _isExcludedFromMaxWallet[address(this)] = true;\n\n        if (_initialSupply > 0) {\n            _mint(_msgSender(), _initialSupply);\n        }\n    }\n\n    function _burn(address account, uint256 amount) internal override {\n        super._burn(account, amount);\n        totalBurned = totalBurned.add(amount);\n    }\n\n    function transfer(address recipient, uint256 amount) public override returns (bool) {\n        require(transfersEnabled || msg.sender == owner(), \"BRE: Transfers are disabled, only owner can transfer.\");\n        require(\n            _isExcludedFromMaxWallet[recipient] || balanceOf(recipient).add(amount) <= maxWalletToken,\n            \"BRE: Exceeds maximum wallet token amount.\"\n        );\n        return super.transfer(recipient, amount);\n    }\n\n    function transferFrom(address sender, address recipient, uint256 amount) public override returns (bool) {\n        require(\n            _isExcludedFromMaxWallet[recipient] || balanceOf(recipient).add(amount) <= maxWalletToken,\n            \"BRE: Exceeds maximum wallet token amount.\"\n        );\n        return super.transferFrom(sender, recipient, amount);\n    }\n\n    function excludeFromMaxWallet(address account) public onlyOwner {\n        require(account != address(0), \"BRE: Zero address is not allowed.\");\n        _isExcludedFromMaxWallet[account] = true;\n    }\n\n    function includeInMaxWallet(address account) public onlyOwner {\n        require(account != address(0), \"BRE: Zero address is not allowed.\");\n        _isExcludedFromMaxWallet[account] = false;\n    }\n\n    function setMaxWalletPercent(uint8 percent) public onlyOwner {\n        require(percent >= 5, \"BRE: Cannot set maxWalletToken below 5%\");\n        maxWalletToken = MAX_SUPPLY.mul(percent).div(100);\n    }\n\n    function enableTransfers() public onlyOwner {\n        transfersEnabled = true;\n    }\n\n    function disableTransfers() public onlyOwner {\n        transfersEnabled = false;\n    }\n\n}\n",
  "sourcePath": "/Applications/projects/contracts/contracts/BRE.sol",
  "compiler": {
    "name": "solc",
    "version": "0.8.17+commit.8df45f5f.Emscripten.clang"
  },
  "schemaVersion": "3.4.11",
  "updatedAt": "2023-10-14T03:24:15.294Z",
  "networkType": "ethereum",
  "devdoc": {
    "kind": "dev",
    "methods": {
      "allowance(address,address)": {
        "details": "See {IERC20-allowance}."
      },
      "approve(address,uint256)": {
        "details": "See {IERC20-approve}. NOTE: If `amount` is the maximum `uint256`, the allowance is not updated on `transferFrom`. This is semantically equivalent to an infinite approval. Requirements: - `spender` cannot be the zero address."
      },
      "balanceOf(address)": {
        "details": "See {IERC20-balanceOf}."
      },
      "burn(uint256)": {
        "details": "Destroys `amount` tokens from the caller. See {ERC20-_burn}."
      },
      "burnFrom(address,uint256)": {
        "details": "Destroys `amount` tokens from `account`, deducting from the caller's allowance. See {ERC20-_burn} and {ERC20-allowance}. Requirements: - the caller must have allowance for ``accounts``'s tokens of at least `amount`."
      },
      "decimals()": {
        "details": "Returns the number of decimals used to get its user representation. For example, if `decimals` equals `2`, a balance of `505` tokens should be displayed to a user as `5.05` (`505 / 10 ** 2`). Tokens usually opt for a value of 18, imitating the relationship between Ether and Wei. This is the default value returned by this function, unless it's overridden. NOTE: This information is only used for _display_ purposes: it in no way affects any of the arithmetic of the contract, including {IERC20-balanceOf} and {IERC20-transfer}."
      },
      "decreaseAllowance(address,uint256)": {
        "details": "Atomically decreases the allowance granted to `spender` by the caller. This is an alternative to {approve} that can be used as a mitigation for problems described in {IERC20-approve}. Emits an {Approval} event indicating the updated allowance. Requirements: - `spender` cannot be the zero address. - `spender` must have allowance for the caller of at least `subtractedValue`."
      },
      "increaseAllowance(address,uint256)": {
        "details": "Atomically increases the allowance granted to `spender` by the caller. This is an alternative to {approve} that can be used as a mitigation for problems described in {IERC20-approve}. Emits an {Approval} event indicating the updated allowance. Requirements: - `spender` cannot be the zero address."
      },
      "name()": {
        "details": "Returns the name of the token."
      },
      "owner()": {
        "details": "Returns the address of the current owner."
      },
      "renounceOwnership()": {
        "details": "Leaves the contract without owner. It will not be possible to call `onlyOwner` functions. Can only be called by the current owner. NOTE: Renouncing ownership will leave the contract without an owner, thereby disabling any functionality that is only available to the owner."
      },
      "symbol()": {
        "details": "Returns the symbol of the token, usually a shorter version of the name."
      },
      "totalSupply()": {
        "details": "See {IERC20-totalSupply}."
      },
      "transferOwnership(address)": {
        "details": "Transfers ownership of the contract to a new account (`newOwner`). Can only be called by the current owner."
      }
    },
    "version": 1
  },
  "userdoc": {
    "kind": "user",
    "methods": {},
    "version": 1
  }
}