{
  "contractName": "BreezySwapper",
  "abi": [
    {
      "inputs": [],
      "stateMutability": "nonpayable",
      "type": "constructor"
    },
    {
      "anonymous": false,
      "inputs": [
        {
          "indexed": true,
          "internalType": "address",
          "name": "previousOwner",
          "type": "address"
        },
        {
          "indexed": true,
          "internalType": "address",
          "name": "newOwner",
          "type": "address"
        }
      ],
      "name": "OwnershipTransferred",
      "type": "event"
    },
    {
      "inputs": [],
      "name": "owner",
      "outputs": [
        {
          "internalType": "address",
          "name": "",
          "type": "address"
        }
      ],
      "stateMutability": "view",
      "type": "function"
    },
    {
      "inputs": [],
      "name": "renounceOwnership",
      "outputs": [],
      "stateMutability": "nonpayable",
      "type": "function"
    },
    {
      "inputs": [
        {
          "internalType": "address",
          "name": "newOwner",
          "type": "address"
        }
      ],
      "name": "transferOwnership",
      "outputs": [],
      "stateMutability": "nonpayable",
      "type": "function"
    },
    {
      "inputs": [
        {
          "internalType": "uint256",
          "name": "token1InputAmount",
          "type": "uint256"
        },
        {
          "internalType": "contract IBreezySwapV1BREWETH",
          "name": "token1Pair",
          "type": "address"
        },
        {
          "internalType": "contract IBreezySwapV1BREWETH",
          "name": "token2Pair",
          "type": "address"
        }
      ],
      "name": "getTokenOutput",
      "outputs": [
        {
          "internalType": "uint256",
          "name": "",
          "type": "uint256"
        }
      ],
      "stateMutability": "view",
      "type": "function"
    },
    {
      "inputs": [
        {
          "internalType": "contract IERC20",
          "name": "token",
          "type": "address"
        },
        {
          "internalType": "contract IBreezySwapV1BREWETH",
          "name": "pair",
          "type": "address"
        }
      ],
      "name": "approveWithPair",
      "outputs": [],
      "stateMutability": "nonpayable",
      "type": "function"
    },
    {
      "inputs": [
        {
          "internalType": "uint256",
          "name": "token1InputAmount",
          "type": "uint256"
        },
        {
          "internalType": "uint256",
          "name": "minToken2Output",
          "type": "uint256"
        },
        {
          "internalType": "address",
          "name": "token1PairAddress",
          "type": "address"
        },
        {
          "internalType": "address",
          "name": "token2PairAddress",
          "type": "address"
        },
        {
          "internalType": "uint256",
          "name": "deadline",
          "type": "uint256"
        }
      ],
      "name": "swapTokenToTokenWithTokenInput",
      "outputs": [],
      "stateMutability": "nonpayable",
      "type": "function"
    }
  ],
  "bytecode": "0x608060405234801561001057600080fd5b5061001a3361001f565b61006f565b600080546001600160a01b038381166001600160a01b0319831681178455604051919092169283917f8be0079c531659141344cd1fd0a4f28419497f9722a3daafe3b4186f6b6457e09190a35050565b6109308061007e6000396000f3fe608060405234801561001057600080fd5b50600436106100625760003560e01c80635e69bc4614610067578063715018a61461007c5780638da5cb5b14610084578063a4cb8bd3146100a4578063d778a043146100b7578063f2fde38b146100d8575b600080fd5b61007a6100753660046107b1565b6100eb565b005b61007a61016c565b6000546040516001600160a01b0390911681526020015b60405180910390f35b61007a6100b23660046107ea565b610180565b6100ca6100c536600461083c565b610592565b60405190815260200161009b565b61007a6100e636600461087e565b610679565b6100f36106f2565b60405163095ea7b360e01b81526001600160a01b038281166004830152600019602483015283169063095ea7b3906044016020604051808303816000875af1158015610143573d6000803e3d6000fd5b505050506040513d601f19601f8201168201806040525081019061016791906108a2565b505050565b6101746106f2565b61017e600061074c565b565b816001600160a01b0316836001600160a01b0316036101d25760405162461bcd60e51b815260206004820152600960248201526829a0a6a2afa820a4a960b91b60448201526064015b60405180910390fd5b600083905060008390506000826001600160a01b031663fc0c546a6040518163ffffffff1660e01b8152600401602060405180830381865afa15801561021c573d6000803e3d6000fd5b505050506040513d601f19601f8201168201806040525081019061024091906108c4565b90506000826001600160a01b031663fc0c546a6040518163ffffffff1660e01b8152600401602060405180830381865afa158015610282573d6000803e3d6000fd5b505050506040513d601f19601f820116820180604052508101906102a691906108c4565b60405163635f95ff60e01b8152600481018b90529091506000906001600160a01b0386169063635f95ff90602401602060405180830381865afa1580156102f1573d6000803e3d6000fd5b505050506040513d601f19601f8201168201806040525081019061031591906108e1565b6040516311fbded360e01b8152600481018290529091506000906001600160a01b038616906311fbded390602401602060405180830381865afa158015610360573d6000803e3d6000fd5b505050506040513d601f19601f8201168201806040525081019061038491906108e1565b9050898110156103cb5760405162461bcd60e51b815260206004820152601260248201527143414e5f4e4f545f4d414b455f545241444560701b60448201526064016101c9565b6040516323b872dd60e01b8152336004820152306024820152604481018c90526001600160a01b038516906323b872dd906064016020604051808303816000875af115801561041e573d6000803e3d6000fd5b505050506040513d601f19601f8201168201806040525081019061044291906108a2565b506040516303bf04c160e01b8152600481018c905260248101839052604481018890526001600160a01b038716906303bf04c190606401600060405180830381600087803b15801561049357600080fd5b505af11580156104a7573d6000803e3d6000fd5b505060405163e50a38d760e01b81526004810185905260248101849052604481018a90526001600160a01b038816925063e50a38d79150606401600060405180830381600087803b1580156104fb57600080fd5b505af115801561050f573d6000803e3d6000fd5b505060405163a9059cbb60e01b8152336004820152602481018490526001600160a01b038616925063a9059cbb91506044016020604051808303816000875af1158015610560573d6000803e3d6000fd5b505050506040513d601f19601f8201168201806040525081019061058491906108a2565b505050505050505050505050565b60405163635f95ff60e01b81526004810184905260009081906001600160a01b0385169063635f95ff90602401602060405180830381865afa1580156105dc573d6000803e3d6000fd5b505050506040513d601f19601f8201168201806040525081019061060091906108e1565b6040516311fbded360e01b8152600481018290529091506000906001600160a01b038516906311fbded390602401602060405180830381865afa15801561064b573d6000803e3d6000fd5b505050506040513d601f19601f8201168201806040525081019061066f91906108e1565b9695505050505050565b6106816106f2565b6001600160a01b0381166106e65760405162461bcd60e51b815260206004820152602660248201527f4f776e61626c653a206e6577206f776e657220697320746865207a65726f206160448201526564647265737360d01b60648201526084016101c9565b6106ef8161074c565b50565b6000546001600160a01b0316331461017e5760405162461bcd60e51b815260206004820181905260248201527f4f776e61626c653a2063616c6c6572206973206e6f7420746865206f776e657260448201526064016101c9565b600080546001600160a01b038381166001600160a01b0319831681178455604051919092169283917f8be0079c531659141344cd1fd0a4f28419497f9722a3daafe3b4186f6b6457e09190a35050565b6001600160a01b03811681146106ef57600080fd5b600080604083850312156107c457600080fd5b82356107cf8161079c565b915060208301356107df8161079c565b809150509250929050565b600080600080600060a0868803121561080257600080fd5b8535945060208601359350604086013561081b8161079c565b9250606086013561082b8161079c565b949793965091946080013592915050565b60008060006060848603121561085157600080fd5b8335925060208401356108638161079c565b915060408401356108738161079c565b809150509250925092565b60006020828403121561089057600080fd5b813561089b8161079c565b9392505050565b6000602082840312156108b457600080fd5b8151801515811461089b57600080fd5b6000602082840312156108d657600080fd5b815161089b8161079c565b6000602082840312156108f357600080fd5b505191905056fea2646970667358221220d28e338ae597d2113e3b9a1f6bc85aa1ff61a2f608457c626c36168c8b4bc61a64736f6c63430008110033",
  "immutableReferences": {},
  "source": "// SPDX-License-Identifier: MIT\n\npragma solidity >=0.6.12;\n\nimport '@openzeppelin/contracts/access/Ownable.sol';\nimport '@openzeppelin/contracts/token/ERC20/IERC20.sol';\n\nimport './interfaces/IBreezySwapV1BREWETH.sol';\n\ncontract BreezySwapper is Ownable {\n    constructor() public {}\n\n    function getTokenOutput(uint256 token1InputAmount, IBreezySwapV1BREWETH token1Pair, IBreezySwapV1BREWETH token2Pair) public view returns (uint256) {\n        //get token1 to base\n        uint256 baseAmount = token1Pair.getBaseOutput(token1InputAmount);\n        //get base to token2\n        uint256 token2OutputAmount = token2Pair.getTokenOutput(baseAmount);\n        return token2OutputAmount;\n    }\n\n    function approveWithPair(IERC20 token, IBreezySwapV1BREWETH pair) public onlyOwner {\n        token.approve(address(pair), 115792089237316195423570985008687907853269984665640564039457584007913129639935);\n    }\n\n    function swapTokenToTokenWithTokenInput(\n        uint256 token1InputAmount, \n        uint256 minToken2Output, \n        address token1PairAddress, \n        address token2PairAddress, \n        uint256 deadline\n    ) public {\n        require(token1PairAddress != token2PairAddress, 'SAME_PAIR');\n\n        IBreezySwapV1BREWETH token1Pair = IBreezySwapV1BREWETH(token1PairAddress);\n        IBreezySwapV1BREWETH token2Pair = IBreezySwapV1BREWETH(token2PairAddress);\n\n        IERC20 token1 = IERC20(token1Pair.token());\n        IERC20 token2 = IERC20(token2Pair.token());\n\n        // Get token1 to base\n        uint256 baseAmount = token1Pair.getBaseOutput(token1InputAmount);\n\n        // Get base to token2\n        uint256 token2OutputAmount = token2Pair.getTokenOutput(baseAmount);\n        require(token2OutputAmount >= minToken2Output, 'CAN_NOT_MAKE_TRADE');\n\n        // Make trade token1 to base\n        token1.transferFrom(msg.sender, address(this), token1InputAmount);\n        token1Pair.swapTokenToBaseWithTokenInput(token1InputAmount, baseAmount, deadline);\n\n        // Make trade base to token2\n        token2Pair.swapBaseToTokenWithBaseInput(baseAmount, token2OutputAmount, deadline);\n        token2.transfer(msg.sender, token2OutputAmount);\n    }\n}\n",
  "sourcePath": "/Applications/projects/breezy-contracts/contracts/BreezySwap/BreezySwapper.sol",
  "compiler": {
    "name": "solc",
    "version": "0.8.17+commit.8df45f5f.Emscripten.clang"
  },
  "schemaVersion": "3.4.13",
  "updatedAt": "2023-08-22T15:27:09.421Z",
  "devdoc": {
    "kind": "dev",
    "methods": {
      "owner()": {
        "details": "Returns the address of the current owner."
      },
      "renounceOwnership()": {
        "details": "Leaves the contract without owner. It will not be possible to call `onlyOwner` functions. Can only be called by the current owner. NOTE: Renouncing ownership will leave the contract without an owner, thereby disabling any functionality that is only available to the owner."
      },
      "transferOwnership(address)": {
        "details": "Transfers ownership of the contract to a new account (`newOwner`). Can only be called by the current owner."
      }
    },
    "version": 1
  },
  "userdoc": {
    "kind": "user",
    "methods": {},
    "version": 1
  }
}