{
  "contractName": "BreezyFarm",
  "abi": [
    {
      "inputs": [
        {
          "internalType": "contract IBreezyMining",
          "name": "_miningMachine",
          "type": "address"
        },
        {
          "internalType": "contract IERC20",
          "name": "_want",
          "type": "address"
        },
        {
          "internalType": "uint256",
          "name": "_pidOfMining",
          "type": "uint256"
        }
      ],
      "stateMutability": "nonpayable",
      "type": "constructor"
    },
    {
      "anonymous": false,
      "inputs": [
        {
          "indexed": true,
          "internalType": "address",
          "name": "previousOwner",
          "type": "address"
        },
        {
          "indexed": true,
          "internalType": "address",
          "name": "newOwner",
          "type": "address"
        }
      ],
      "name": "OwnershipTransferred",
      "type": "event"
    },
    {
      "anonymous": false,
      "inputs": [
        {
          "indexed": false,
          "internalType": "address",
          "name": "_user",
          "type": "address"
        },
        {
          "indexed": false,
          "internalType": "uint256",
          "name": "_amount",
          "type": "uint256"
        }
      ],
      "name": "onDeposit",
      "type": "event"
    },
    {
      "anonymous": false,
      "inputs": [
        {
          "indexed": false,
          "internalType": "address",
          "name": "_user",
          "type": "address"
        },
        {
          "indexed": false,
          "internalType": "uint256",
          "name": "_amount",
          "type": "uint256"
        }
      ],
      "name": "onEmergencyWithdraw",
      "type": "event"
    },
    {
      "anonymous": false,
      "inputs": [
        {
          "indexed": false,
          "internalType": "address",
          "name": "_user",
          "type": "address"
        },
        {
          "indexed": false,
          "internalType": "uint256",
          "name": "_amount",
          "type": "uint256"
        }
      ],
      "name": "onWithdraw",
      "type": "event"
    },
    {
      "inputs": [],
      "name": "miningMachine",
      "outputs": [
        {
          "internalType": "contract IBreezyMining",
          "name": "",
          "type": "address"
        }
      ],
      "stateMutability": "view",
      "type": "function",
      "constant": true
    },
    {
      "inputs": [],
      "name": "owner",
      "outputs": [
        {
          "internalType": "address",
          "name": "",
          "type": "address"
        }
      ],
      "stateMutability": "view",
      "type": "function",
      "constant": true
    },
    {
      "inputs": [],
      "name": "pidOfMining",
      "outputs": [
        {
          "internalType": "uint256",
          "name": "",
          "type": "uint256"
        }
      ],
      "stateMutability": "view",
      "type": "function",
      "constant": true
    },
    {
      "inputs": [],
      "name": "renounceOwnership",
      "outputs": [],
      "stateMutability": "nonpayable",
      "type": "function"
    },
    {
      "inputs": [
        {
          "internalType": "address",
          "name": "",
          "type": "address"
        }
      ],
      "name": "shareOf",
      "outputs": [
        {
          "internalType": "uint256",
          "name": "",
          "type": "uint256"
        }
      ],
      "stateMutability": "view",
      "type": "function",
      "constant": true
    },
    {
      "inputs": [],
      "name": "totalShare",
      "outputs": [
        {
          "internalType": "uint256",
          "name": "",
          "type": "uint256"
        }
      ],
      "stateMutability": "view",
      "type": "function",
      "constant": true
    },
    {
      "inputs": [
        {
          "internalType": "address",
          "name": "newOwner",
          "type": "address"
        }
      ],
      "name": "transferOwnership",
      "outputs": [],
      "stateMutability": "nonpayable",
      "type": "function"
    },
    {
      "inputs": [],
      "name": "want",
      "outputs": [
        {
          "internalType": "contract IERC20",
          "name": "",
          "type": "address"
        }
      ],
      "stateMutability": "view",
      "type": "function",
      "constant": true
    },
    {
      "inputs": [
        {
          "internalType": "address",
          "name": "_miningMachine",
          "type": "address"
        }
      ],
      "name": "setMiningMachine",
      "outputs": [],
      "stateMutability": "nonpayable",
      "type": "function"
    },
    {
      "inputs": [
        {
          "internalType": "address",
          "name": "_want",
          "type": "address"
        }
      ],
      "name": "changeWantAddress",
      "outputs": [],
      "stateMutability": "nonpayable",
      "type": "function"
    },
    {
      "inputs": [
        {
          "internalType": "uint256",
          "name": "_pidOfMining",
          "type": "uint256"
        }
      ],
      "name": "setPidOfMining",
      "outputs": [],
      "stateMutability": "nonpayable",
      "type": "function"
    },
    {
      "inputs": [
        {
          "internalType": "uint256",
          "name": "_wantAmt",
          "type": "uint256"
        }
      ],
      "name": "deposit",
      "outputs": [],
      "stateMutability": "nonpayable",
      "type": "function"
    },
    {
      "inputs": [
        {
          "internalType": "uint256",
          "name": "_wantAmt",
          "type": "uint256"
        }
      ],
      "name": "withdraw",
      "outputs": [],
      "stateMutability": "nonpayable",
      "type": "function"
    },
    {
      "inputs": [],
      "name": "emergencyWithdraw",
      "outputs": [],
      "stateMutability": "nonpayable",
      "type": "function"
    },
    {
      "inputs": [
        {
          "internalType": "address",
          "name": "_user",
          "type": "address"
        }
      ],
      "name": "harvest",
      "outputs": [
        {
          "internalType": "uint256",
          "name": "_pendingHoldBRE",
          "type": "uint256"
        }
      ],
      "stateMutability": "nonpayable",
      "type": "function"
    },
    {
      "inputs": [
        {
          "internalType": "address",
          "name": "_user",
          "type": "address"
        }
      ],
      "name": "getData",
      "outputs": [
        {
          "internalType": "uint256",
          "name": "miningSpeed_",
          "type": "uint256"
        },
        {
          "internalType": "uint256",
          "name": "userWantBal_",
          "type": "uint256"
        },
        {
          "internalType": "uint256",
          "name": "totalMintPerDay_",
          "type": "uint256"
        },
        {
          "internalType": "uint256",
          "name": "userETHBal_",
          "type": "uint256"
        },
        {
          "internalType": "uint256",
          "name": "userBREPending_",
          "type": "uint256"
        },
        {
          "internalType": "uint256",
          "name": "userWantShare_",
          "type": "uint256"
        },
        {
          "internalType": "uint256",
          "name": "tvl_",
          "type": "uint256"
        }
      ],
      "stateMutability": "view",
      "type": "function",
      "constant": true
    }
  ],
  "bytecode": "0x6080604052600060055534801561001557600080fd5b50604051610f96380380610f96833981016040819052610034916100e3565b600160005561004233610079565b600280546001600160a01b039384166001600160a01b03199182161790915560038054949093169316929092179055600455610126565b600180546001600160a01b038381166001600160a01b0319831681179093556040519116919082907f8be0079c531659141344cd1fd0a4f28419497f9722a3daafe3b4186f6b6457e090600090a35050565b6001600160a01b03811681146100e057600080fd5b50565b6000806000606084860312156100f857600080fd5b8351610103816100cb565b6020850151909350610114816100cb565b80925050604084015190509250925092565b610e61806101356000396000f3fe608060405234801561001057600080fd5b50600436106101005760003560e01c80638da5cb5b11610097578063bce645db11610066578063bce645db14610241578063db2e21bc14610254578063f2fde38b1461025c578063f47a396f1461026f57600080fd5b80638da5cb5b146101f75780639b15713714610208578063b3f1333b1461021b578063b6b55f251461022e57600080fd5b806321e5e2c4116100d357806321e5e2c4146101745780632e1a7d4d1461019457806338266b22146101a7578063715018a6146101ef57600080fd5b8063026c4207146101055780630e5c011e146101215780631f1fcd51146101345780631ffd3dae1461015f575b600080fd5b61010e60055481565b6040519081526020015b60405180910390f35b61010e61012f366004610d44565b610278565b600254610147906001600160a01b031681565b6040516001600160a01b039091168152602001610118565b61017261016d366004610d44565b6102f7565b005b61010e610182366004610d44565b60066020526000908152604090205481565b6101726101a2366004610d6d565b610321565b6101ba6101b5366004610d44565b61057e565b604080519788526020880196909652948601939093526060850191909152608084015260a083015260c082015260e001610118565b610172610785565b6001546001600160a01b0316610147565b610172610216366004610d6d565b610799565b610172610229366004610d44565b6107a6565b61017261023c366004610d6d565b6107d0565b600354610147906001600160a01b031681565b610172610a0e565b61017261026a366004610d44565b610baa565b61010e60045481565b60035460048054604051630c7e663b60e11b8152918201526001600160a01b03838116602483015260009216906318fccc76906044016020604051808303816000875af11580156102cd573d6000803e3d6000fd5b505050506040513d601f19601f820116820180604052508101906102f19190610d86565b92915050565b6102ff610c20565b600380546001600160a01b0319166001600160a01b0392909216919091179055565b610329610c7a565b6000811161036e5760405162461bcd60e51b815260206004820152600d60248201526c1253959053125117d253941555609a1b60448201526064015b60405180910390fd5b61037733610278565b503360009081526006602052604090205480821115610394578091505b336000908152600660205260409020546103ae9083610cd3565b336000908152600660205260409020556005546103cb9083610cd3565b6005556002546040516370a0823160e01b81523060048201526000916001600160a01b0316906370a0823190602401602060405180830381865afa158015610417573d6000803e3d6000fd5b505050506040513d601f19601f8201168201806040525081019061043b9190610d86565b905082811015610449578092505b60025460405163a9059cbb60e01b8152336004820152602481018590526001600160a01b039091169063a9059cbb906044016020604051808303816000875af115801561049a573d6000803e3d6000fd5b505050506040513d601f19601f820116820180604052508101906104be9190610d9f565b5060035460048054604051638fb4e1cd60e01b8152918201523360248201526001600160a01b0390911690638fb4e1cd906044016020604051808303816000875af1158015610511573d6000803e3d6000fd5b505050506040513d601f19601f820116820180604052508101906105359190610d9f565b5060408051338152602081018590527fccad973dcd043c7d680389db4378bd6b9775db7124092e9e0422c9e46d7985dc910160405180910390a1505061057b6001600055565b50565b6002546040516370a0823160e01b81526001600160a01b03838116600483015260009283928392839283928392839216906370a0823190602401602060405180830381865afa1580156105d5573d6000803e3d6000fd5b505050506040513d601f19601f820116820180604052508101906105f99190610d86565b60035460048054604051635e86cd9560e01b8152918201529197506001600160a01b031690635e86cd9590602401602060405180830381865afa158015610644573d6000803e3d6000fd5b505050506040513d601f19601f820116820180604052508101906106689190610d86565b600354600480546040516324aa7cc560e11b8152918201529196506001600160a01b031690634954f98a90602401602060405180830381865afa1580156106b3573d6000803e3d6000fd5b505050506040513d601f19601f820116820180604052508101906106d79190610d86565b60035460048054604051631069f3b560e01b8152918201526001600160a01b038b811660248301819052939a5092319650911690631069f3b590604401606060405180830381865afa158015610731573d6000803e3d6000fd5b505050506040513d601f19601f820116820180604052508101906107559190610dc1565b50506001600160a01b03909816600090815260066020526040902054600554979996989597949690949350915050565b61078d610c20565b6107976000610ce6565b565b6107a1610c20565b600455565b6107ae610c20565b600280546001600160a01b0319166001600160a01b0392909216919091179055565b6107d8610c7a565b600081116108185760405162461bcd60e51b815260206004820152600d60248201526c1253959053125117d253941555609a1b6044820152606401610365565b6002546040516370a0823160e01b81523360048201526000916001600160a01b0316906370a0823190602401602060405180830381865afa158015610861573d6000803e3d6000fd5b505050506040513d601f19601f820116820180604052508101906108859190610d86565b905080821115610893578091505b61089c33610278565b506002546040516323b872dd60e01b8152336004820152306024820152604481018490526001600160a01b03909116906323b872dd906064016020604051808303816000875af11580156108f4573d6000803e3d6000fd5b505050506040513d601f19601f820116820180604052508101906109189190610d9f565b50336000908152600660205260409020546109339083610d38565b336000908152600660205260409020556005546109509083610d38565b60055560035460048054604051638fb4e1cd60e01b8152918201523360248201526001600160a01b0390911690638fb4e1cd906044016020604051808303816000875af11580156109a5573d6000803e3d6000fd5b505050506040513d601f19601f820116820180604052508101906109c99190610d9f565b5060408051338152602081018490527f2bf9518c65eff7d1f3ee4106bf0dc41267ccde0924dbfa4ab476ed5c0f45da98910160405180910390a15061057b6001600055565b3360009081526006602052604090205480610a5c5760405162461bcd60e51b815260206004820152600e60248201526d1253959053125117d05353d5539560921b6044820152606401610365565b33600090815260066020526040812055600554610a799082610cd3565b6005556002546040516370a0823160e01b81523060048201526000916001600160a01b0316906370a0823190602401602060405180830381865afa158015610ac5573d6000803e3d6000fd5b505050506040513d601f19601f82011682018060405250810190610ae99190610d86565b905081811015610af7578091505b60025460405163a9059cbb60e01b8152336004820152602481018490526001600160a01b039091169063a9059cbb906044016020604051808303816000875af1158015610b48573d6000803e3d6000fd5b505050506040513d601f19601f82011682018060405250810190610b6c9190610d9f565b5060408051338152602081018490527fc33863412a9dc216cbf16bc22dd0bd897cf3b59fe264e4e89db58f9b9c23d01b910160405180910390a15050565b610bb2610c20565b6001600160a01b038116610c175760405162461bcd60e51b815260206004820152602660248201527f4f776e61626c653a206e6577206f776e657220697320746865207a65726f206160448201526564647265737360d01b6064820152608401610365565b61057b81610ce6565b6001546001600160a01b031633146107975760405162461bcd60e51b815260206004820181905260248201527f4f776e61626c653a2063616c6c6572206973206e6f7420746865206f776e65726044820152606401610365565b600260005403610ccc5760405162461bcd60e51b815260206004820152601f60248201527f5265656e7472616e637947756172643a207265656e7472616e742063616c6c006044820152606401610365565b6002600055565b6000610cdf8284610e05565b9392505050565b600180546001600160a01b038381166001600160a01b0319831681179093556040519116919082907f8be0079c531659141344cd1fd0a4f28419497f9722a3daafe3b4186f6b6457e090600090a35050565b6000610cdf8284610e18565b600060208284031215610d5657600080fd5b81356001600160a01b0381168114610cdf57600080fd5b600060208284031215610d7f57600080fd5b5035919050565b600060208284031215610d9857600080fd5b5051919050565b600060208284031215610db157600080fd5b81518015158114610cdf57600080fd5b600080600060608486031215610dd657600080fd5b8351925060208401519150604084015190509250925092565b634e487b7160e01b600052601160045260246000fd5b818103818111156102f1576102f1610def565b808201808211156102f1576102f1610def56fea2646970667358221220872b718db27f93151a1793ed2ae54e591c7cefcd0439dcf041ab82c9da202e0a64736f6c63430008110033",
  "immutableReferences": {},
  "source": "// SPDX-License-Identifier: MIT\r\npragma solidity >=0.6.12;\r\n\r\nimport \"@openzeppelin/contracts/utils/math/SafeMath.sol\";\r\nimport \"@openzeppelin/contracts/access/Ownable.sol\";\r\nimport \"@openzeppelin/contracts/token/ERC20/IERC20.sol\";\r\nimport \"@openzeppelin/contracts/security/ReentrancyGuard.sol\";\r\n\r\nimport './interfaces/IBreezyMining.sol';\r\n\r\ncontract BreezyFarm is ReentrancyGuard, Ownable {\r\n\r\n    using SafeMath for uint256;\r\n    \r\n    IERC20 public want; // LP\r\n\r\n    IBreezyMining public miningMachine;\r\n\r\n    uint256 public pidOfMining;\r\n    uint256 public totalShare = 0;\r\n    mapping(address => uint256) public shareOf;\r\n\r\n    event onDeposit(address _user, uint256 _amount);\r\n    event onWithdraw(address _user, uint256 _amount);\r\n    event onEmergencyWithdraw(address _user, uint256 _amount);\r\n\r\n    constructor(\r\n        IBreezyMining _miningMachine,\r\n        IERC20 _want,\r\n        uint256 _pidOfMining\r\n        ) {\r\n        want = _want;\r\n        miningMachine = _miningMachine;\r\n        pidOfMining = _pidOfMining;\r\n    }\r\n\r\n    function setMiningMachine(address _miningMachine) public onlyOwner \r\n    {\r\n        miningMachine = IBreezyMining(_miningMachine);\r\n    }\r\n\r\n    function changeWantAddress(address _want) public onlyOwner\r\n    {\r\n        want = IERC20(_want); \r\n    }\r\n\r\n    function setPidOfMining(uint256 _pidOfMining) public onlyOwner \r\n    {\r\n        pidOfMining = _pidOfMining;\r\n    }\r\n\r\n    function deposit(uint256 _wantAmt) external nonReentrant \r\n    {\r\n        require(_wantAmt > 0, 'INVALID_INPUT');\r\n\r\n        uint256 userBalance = want.balanceOf(msg.sender);\r\n        if(_wantAmt > userBalance) {\r\n            _wantAmt = userBalance;\r\n        }\r\n\r\n        harvest(msg.sender);\r\n    \twant.transferFrom(msg.sender, address(this), _wantAmt);\r\n        shareOf[msg.sender] = shareOf[msg.sender].add(_wantAmt);\r\n        totalShare = totalShare.add(_wantAmt);\r\n        miningMachine.updateUser(pidOfMining, msg.sender);\r\n        emit onDeposit(msg.sender, _wantAmt);\r\n    }\r\n\r\n    function withdraw(uint256 _wantAmt) external nonReentrant \r\n    {\r\n        require(_wantAmt > 0, 'INVALID_INPUT');   \r\n        harvest(msg.sender);\r\n\r\n        uint256 _share = shareOf[msg.sender];\r\n        if(_wantAmt > _share) {\r\n            _wantAmt = _share;\r\n        }\r\n\r\n        shareOf[msg.sender] = shareOf[msg.sender].sub(_wantAmt);\r\n        totalShare = totalShare.sub(_wantAmt);\r\n        uint256 _wantBal = want.balanceOf(address(this)); \r\n        if (_wantBal < _wantAmt) {\r\n            _wantAmt = _wantBal;\r\n        }\r\n        want.transfer(msg.sender, _wantAmt);\r\n        \r\n        miningMachine.updateUser(pidOfMining, msg.sender);\r\n    \t// \r\n        emit onWithdraw(msg.sender, _wantAmt);\r\n    }\r\n\r\n    // Withdraw without caring about rewards. EMERGENCY ONLY.\r\n    function emergencyWithdraw() public \r\n    {\r\n        uint256 _share = shareOf[msg.sender];\r\n        require(_share > 0, 'INVALID_AMOUNT');\r\n\r\n        shareOf[msg.sender] = 0;\r\n        totalShare = totalShare.sub(_share);\r\n        uint256 _wantBal = want.balanceOf(address(this));\r\n        if (_wantBal < _share) {\r\n            _share = _wantBal;\r\n        }\r\n\r\n        want.transfer(msg.sender, _share);\r\n\r\n        emit onEmergencyWithdraw(msg.sender, _share);\r\n    }\r\n\r\n    function harvest(address _user) public returns(uint256 _pendingHoldBRE) { \r\n        return miningMachine.harvest(pidOfMining, _user);\r\n    }\r\n\r\n    function getData(\r\n        address _user\r\n    ) \r\n    public \r\n    view\r\n    returns(\r\n        uint256 miningSpeed_,\r\n        uint256 userWantBal_, \r\n        uint256 totalMintPerDay_, \r\n        uint256 userETHBal_, \r\n        uint256 userBREPending_, \r\n        uint256 userWantShare_,\r\n        uint256 tvl_\r\n    ) {\r\n        userWantBal_ = want.balanceOf(_user);\r\n        totalMintPerDay_ = miningMachine.getTotalMintPerDayOf(pidOfMining);\r\n\r\n        miningSpeed_ = miningMachine.getMiningSpeedOf(pidOfMining);\r\n        userETHBal_ = address(_user).balance;\r\n        (userBREPending_, , ) = miningMachine.getUserInfo(pidOfMining, _user);\r\n        userWantShare_ = shareOf[_user];\r\n        tvl_ = totalShare;\r\n    } \r\n}",
  "sourcePath": "C:\\Users\\David\\Documents\\NetBeansProjects\\breezy-contracts\\contracts\\BreezyFarm.sol",
  "compiler": {
    "name": "solc",
    "version": "0.8.17+commit.8df45f5f.Emscripten.clang"
  },
  "schemaVersion": "3.4.11",
  "updatedAt": "2023-09-13T09:51:24.586Z",
  "networkType": "ethereum",
  "devdoc": {
    "kind": "dev",
    "methods": {
      "owner()": {
        "details": "Returns the address of the current owner."
      },
      "renounceOwnership()": {
        "details": "Leaves the contract without owner. It will not be possible to call `onlyOwner` functions. Can only be called by the current owner. NOTE: Renouncing ownership will leave the contract without an owner, thereby disabling any functionality that is only available to the owner."
      },
      "transferOwnership(address)": {
        "details": "Transfers ownership of the contract to a new account (`newOwner`). Can only be called by the current owner."
      }
    },
    "version": 1
  },
  "userdoc": {
    "kind": "user",
    "methods": {},
    "version": 1
  }
}