{
  "contractName": "BreezyMining",
  "abi": [
    {
      "inputs": [
        {
          "internalType": "contract IERC20withMint",
          "name": "_holdbre",
          "type": "address"
        },
        {
          "internalType": "uint256",
          "name": "_startBlock",
          "type": "uint256"
        }
      ],
      "stateMutability": "nonpayable",
      "type": "constructor"
    },
    {
      "anonymous": false,
      "inputs": [
        {
          "indexed": true,
          "internalType": "address",
          "name": "previousOwner",
          "type": "address"
        },
        {
          "indexed": true,
          "internalType": "address",
          "name": "newOwner",
          "type": "address"
        }
      ],
      "name": "OwnershipTransferred",
      "type": "event"
    },
    {
      "anonymous": false,
      "inputs": [
        {
          "indexed": false,
          "internalType": "uint256",
          "name": "_pid",
          "type": "uint256"
        },
        {
          "indexed": false,
          "internalType": "address",
          "name": "_user",
          "type": "address"
        },
        {
          "indexed": false,
          "internalType": "uint256",
          "name": "_amt",
          "type": "uint256"
        }
      ],
      "name": "onHarvest",
      "type": "event"
    },
    {
      "inputs": [],
      "name": "holdBRE",
      "outputs": [
        {
          "internalType": "contract IERC20withMint",
          "name": "",
          "type": "address"
        }
      ],
      "stateMutability": "view",
      "type": "function"
    },
    {
      "inputs": [],
      "name": "holdbrePerBlock",
      "outputs": [
        {
          "internalType": "uint256",
          "name": "",
          "type": "uint256"
        }
      ],
      "stateMutability": "view",
      "type": "function"
    },
    {
      "inputs": [],
      "name": "owner",
      "outputs": [
        {
          "internalType": "address",
          "name": "",
          "type": "address"
        }
      ],
      "stateMutability": "view",
      "type": "function"
    },
    {
      "inputs": [
        {
          "internalType": "uint256",
          "name": "",
          "type": "uint256"
        }
      ],
      "name": "poolInfo",
      "outputs": [
        {
          "internalType": "address",
          "name": "want",
          "type": "address"
        },
        {
          "internalType": "contract IBreezyFarm",
          "name": "breezyFarm",
          "type": "address"
        },
        {
          "internalType": "uint256",
          "name": "allocPoint",
          "type": "uint256"
        },
        {
          "internalType": "uint256",
          "name": "lastRewardBlock",
          "type": "uint256"
        },
        {
          "internalType": "uint256",
          "name": "accHoldBREPerShare",
          "type": "uint256"
        }
      ],
      "stateMutability": "view",
      "type": "function"
    },
    {
      "inputs": [],
      "name": "renounceOwnership",
      "outputs": [],
      "stateMutability": "nonpayable",
      "type": "function"
    },
    {
      "inputs": [
        {
          "internalType": "uint256",
          "name": "",
          "type": "uint256"
        },
        {
          "internalType": "address",
          "name": "",
          "type": "address"
        }
      ],
      "name": "rewardDebtOf",
      "outputs": [
        {
          "internalType": "uint256",
          "name": "",
          "type": "uint256"
        }
      ],
      "stateMutability": "view",
      "type": "function"
    },
    {
      "inputs": [],
      "name": "startBlock",
      "outputs": [
        {
          "internalType": "uint256",
          "name": "",
          "type": "uint256"
        }
      ],
      "stateMutability": "view",
      "type": "function"
    },
    {
      "inputs": [],
      "name": "totalAllocPoint",
      "outputs": [
        {
          "internalType": "uint256",
          "name": "",
          "type": "uint256"
        }
      ],
      "stateMutability": "view",
      "type": "function"
    },
    {
      "inputs": [],
      "name": "totalBlockPerDay",
      "outputs": [
        {
          "internalType": "uint256",
          "name": "",
          "type": "uint256"
        }
      ],
      "stateMutability": "view",
      "type": "function"
    },
    {
      "inputs": [
        {
          "internalType": "address",
          "name": "newOwner",
          "type": "address"
        }
      ],
      "name": "transferOwnership",
      "outputs": [],
      "stateMutability": "nonpayable",
      "type": "function"
    },
    {
      "inputs": [
        {
          "internalType": "uint256",
          "name": "_holdbrePerBlock",
          "type": "uint256"
        }
      ],
      "name": "setHoldBREPerBlock",
      "outputs": [],
      "stateMutability": "nonpayable",
      "type": "function"
    },
    {
      "inputs": [
        {
          "internalType": "uint256",
          "name": "_totalBlockPerDay",
          "type": "uint256"
        }
      ],
      "name": "setTotalBlockPerDay",
      "outputs": [],
      "stateMutability": "nonpayable",
      "type": "function"
    },
    {
      "inputs": [
        {
          "internalType": "uint256",
          "name": "_totalAllocPoint",
          "type": "uint256"
        }
      ],
      "name": "setTotalAllocPoint",
      "outputs": [],
      "stateMutability": "nonpayable",
      "type": "function"
    },
    {
      "inputs": [
        {
          "internalType": "address",
          "name": "_holdBRE",
          "type": "address"
        }
      ],
      "name": "setBreezyTokenContract",
      "outputs": [],
      "stateMutability": "nonpayable",
      "type": "function"
    },
    {
      "inputs": [
        {
          "internalType": "uint256",
          "name": "_allocPoint",
          "type": "uint256"
        },
        {
          "internalType": "contract IBreezyFarm",
          "name": "_holdbreFarm",
          "type": "address"
        }
      ],
      "name": "addPool",
      "outputs": [],
      "stateMutability": "nonpayable",
      "type": "function"
    },
    {
      "inputs": [
        {
          "internalType": "uint256",
          "name": "_pid",
          "type": "uint256"
        },
        {
          "internalType": "uint256",
          "name": "allocPoint",
          "type": "uint256"
        }
      ],
      "name": "setPoolPoint",
      "outputs": [],
      "stateMutability": "nonpayable",
      "type": "function"
    },
    {
      "inputs": [
        {
          "internalType": "uint256",
          "name": "_pid",
          "type": "uint256"
        }
      ],
      "name": "updatePool",
      "outputs": [],
      "stateMutability": "nonpayable",
      "type": "function"
    },
    {
      "inputs": [
        {
          "internalType": "uint256",
          "name": "_pid",
          "type": "uint256"
        },
        {
          "internalType": "address",
          "name": "_user",
          "type": "address"
        }
      ],
      "name": "harvest",
      "outputs": [
        {
          "internalType": "uint256",
          "name": "_pendingHoldBRE",
          "type": "uint256"
        }
      ],
      "stateMutability": "nonpayable",
      "type": "function"
    },
    {
      "inputs": [
        {
          "internalType": "uint256",
          "name": "_pid",
          "type": "uint256"
        },
        {
          "internalType": "address",
          "name": "_user",
          "type": "address"
        }
      ],
      "name": "updateUser",
      "outputs": [
        {
          "internalType": "bool",
          "name": "",
          "type": "bool"
        }
      ],
      "stateMutability": "nonpayable",
      "type": "function"
    },
    {
      "inputs": [],
      "name": "poolLength",
      "outputs": [
        {
          "internalType": "uint256",
          "name": "",
          "type": "uint256"
        }
      ],
      "stateMutability": "view",
      "type": "function"
    },
    {
      "inputs": [
        {
          "internalType": "uint256",
          "name": "_from",
          "type": "uint256"
        },
        {
          "internalType": "uint256",
          "name": "_to",
          "type": "uint256"
        }
      ],
      "name": "getBlockFrom",
      "outputs": [
        {
          "internalType": "uint256",
          "name": "",
          "type": "uint256"
        }
      ],
      "stateMutability": "pure",
      "type": "function"
    },
    {
      "inputs": [
        {
          "internalType": "uint256",
          "name": "_pid",
          "type": "uint256"
        }
      ],
      "name": "getMiningSpeedOf",
      "outputs": [
        {
          "internalType": "uint256",
          "name": "",
          "type": "uint256"
        }
      ],
      "stateMutability": "view",
      "type": "function"
    },
    {
      "inputs": [
        {
          "internalType": "uint256",
          "name": "_pid",
          "type": "uint256"
        }
      ],
      "name": "getTotalMintPerDayOf",
      "outputs": [
        {
          "internalType": "uint256",
          "name": "",
          "type": "uint256"
        }
      ],
      "stateMutability": "view",
      "type": "function"
    },
    {
      "inputs": [],
      "name": "getHoldBREAddr",
      "outputs": [
        {
          "internalType": "address",
          "name": "",
          "type": "address"
        }
      ],
      "stateMutability": "view",
      "type": "function"
    },
    {
      "inputs": [
        {
          "internalType": "uint256",
          "name": "_pid",
          "type": "uint256"
        },
        {
          "internalType": "address",
          "name": "_user",
          "type": "address"
        }
      ],
      "name": "getUserInfo",
      "outputs": [
        {
          "internalType": "uint256",
          "name": "_pendingHoldBRE",
          "type": "uint256"
        },
        {
          "internalType": "uint256",
          "name": "_rewardDebt",
          "type": "uint256"
        },
        {
          "internalType": "uint256",
          "name": "_userShare",
          "type": "uint256"
        }
      ],
      "stateMutability": "view",
      "type": "function"
    }
  ],
  "bytecode": "0x6080604052611680600255671bc16d674ec800006003556103e860045534801561002857600080fd5b506040516111e83803806111e8833981016040819052610047916100c9565b61005033610079565b600180546001600160a01b0319166001600160a01b039390931692909217909155600555610103565b600080546001600160a01b038381166001600160a01b0319831681178455604051919092169283917f8be0079c531659141344cd1fd0a4f28419497f9722a3daafe3b4186f6b6457e09190a35050565b600080604083850312156100dc57600080fd5b82516001600160a01b03811681146100f357600080fd5b6020939093015192949293505050565b6110d6806101126000396000f3fe608060405234801561001057600080fd5b50600436106101735760003560e01c80634bef085f116100de5780638da5cb5b11610097578063b423198611610071578063b423198614610356578063ca8e6c031461035f578063d239abe914610372578063f2fde38b1461039d57600080fd5b80638da5cb5b1461030f5780638fb4e1cd14610320578063aa6dfe6f1461034357600080fd5b80634bef085f146102a857806351eb05a6146102bb5780635b04e65c146102ce5780635e86cd95146102e1578063715018a6146102f45780637728a408146102fc57600080fd5b806318fccc761161013057806318fccc761461023e57806333ba8882146102515780633e1abe111461026657806348cd4cb1146102795780634954f98a146102825780634a6a10c71461029557600080fd5b8063078377e914610178578063081e3eda146101945780630ced69c91461019c5780631069f3b5146101c15780631526fe27146101ef57806317caf6f114610235575b600080fd5b61018160025481565b6040519081526020015b60405180910390f35b600654610181565b6001546001600160a01b03165b6040516001600160a01b03909116815260200161018b565b6101d46101cf366004610f2e565b6103b0565b6040805193845260208401929092529082015260600161018b565b6102026101fd366004610f5e565b6105ed565b604080516001600160a01b039687168152959094166020860152928401919091526060830152608082015260a00161018b565b61018160045481565b61018161024c366004610f2e565b61063a565b61026461025f366004610f2e565b6107ca565b005b610181610274366004610f77565b610974565b61018160055481565b610181610290366004610f5e565b610989565b6102646102a3366004610f5e565b6109c9565b6001546101a9906001600160a01b031681565b6102646102c9366004610f5e565b6109d6565b6102646102dc366004610f99565b610b70565b6101816102ef366004610f5e565b610b9a565b610264610be1565b61026461030a366004610f77565b610bf5565b6000546001600160a01b03166101a9565b61033361032e366004610f2e565b610c33565b604051901515815260200161018b565b610264610351366004610f5e565b610dac565b61018160035481565b61026461036d366004610f5e565b610db9565b610181610380366004610f2e565b600760209081526000928352604080842090915290825290205481565b6102646103ab366004610f99565b610dc6565b600080600080600686815481106103c9576103c9610fbd565b600091825260208083206040805160a081018252600590940290910180546001600160a01b0390811685526001820154168484018190526002820154858401526003820154606086015260049182015460808601819052835163026c420760e01b815293519597509594909363026c42079380840193919291908290030181865afa15801561045c573d6000803e3d6000fd5b505050506040513d601f19601f820116820180604052508101906104809190610fd3565b602084015160405163087978b160e21b81526001600160a01b038a811660048301529293509116906321e5e2c490602401602060405180830381865afa1580156104ce573d6000803e3d6000fd5b505050506040513d601f19601f820116820180604052508101906104f29190610fd3565b935082606001514311801561050657508015155b1561057257600061051b846060015143610974565b9050600061054e600454610548876040015161054260035487610e3f90919063ffffffff16565b90610e3f565b90610e4b565b905061056d610566846105488464e8d4a51000610e3f565b8590610e57565b935050505b61058564e8d4a510006105488685610e3f565b60008981526007602090815260408083206001600160a01b038c1684529091529020549095508511156105e35760008881526007602090815260408083206001600160a01b038b1684529091529020546105e0908690610e63565b95505b5050509250925092565b600681815481106105fd57600080fd5b6000918252602090912060059091020180546001820154600283015460038401546004909401546001600160a01b03938416955091909216929085565b6000610645836109d6565b600061065184846103b0565b506001546040516370a0823160e01b81523060048201529294509092506000916001600160a01b03909116906370a0823190602401602060405180830381865afa1580156106a3573d6000803e3d6000fd5b505050506040513d601f19601f820116820180604052508101906106c79190610fd3565b60008681526007602090815260408083206001600160a01b038916845290915290208390559050808311156106fa578092505b82156107c25760015460405163a9059cbb60e01b81526001600160a01b038681166004830152602482018690529091169063a9059cbb906044016020604051808303816000875af1158015610753573d6000803e3d6000fd5b505050506040513d601f19601f820116820180604052508101906107779190610fec565b50604080518681526001600160a01b03861660208201529081018490527f09bcd72690ede63737f3567a74f2dec10d7c94baa134623fbf2a4ceee0f64ab89060600160405180910390a15b505092915050565b6107d2610e6f565b6000816001600160a01b0316631f1fcd516040518163ffffffff1660e01b8152600401602060405180830381865afa158015610812573d6000803e3d6000fd5b505050506040513d601f19601f82011682018060405250810190610836919061100e565b90506000600554431161084b5760055461084d565b435b6040805160a0810182526001600160a01b0394851681529484166020860190815290850195865260608501918252600060808601818152600680546001810182559252955160059091027ff652222313e28459528d920b65115c16c04f3efc82aaedc97be59f3f377c0d3f810180549287166001600160a01b031993841617905591517ff652222313e28459528d920b65115c16c04f3efc82aaedc97be59f3f377c0d40830180549190961691161790935593517ff652222313e28459528d920b65115c16c04f3efc82aaedc97be59f3f377c0d418301555091517ff652222313e28459528d920b65115c16c04f3efc82aaedc97be59f3f377c0d42830155517ff652222313e28459528d920b65115c16c04f3efc82aaedc97be59f3f377c0d4390910155565b60006109808284610e63565b90505b92915050565b60006109836004546105486064600686815481106109a9576109a9610fbd565b906000526020600020906005020160020154610e3f90919063ffffffff16565b6109d1610e6f565b600255565b6000600682815481106109eb576109eb610fbd565b9060005260206000209060050201905080600301544311610a0a575050565b60018101546040805163026c420760e01b815290516000926001600160a01b03169163026c42079160048083019260209291908290030181865afa158015610a56573d6000803e3d6000fd5b505050506040513d601f19601f82011682018060405250810190610a7a9190610fd3565b90506000610a8c836003015443610974565b90506000610ab3600454610548866002015461054260035487610e3f90919063ffffffff16565b905082600003610acd574384600301819055505050505050565b6001546040516340c10f1960e01b8152306004820152602481018390526001600160a01b03909116906340c10f1990604401600060405180830381600087803b158015610b1957600080fd5b505af1158015610b2d573d6000803e3d6000fd5b50505050610b5b610b508461054864e8d4a5100085610e3f90919063ffffffff16565b600486015490610e57565b60048501555050436003909201919091555050565b610b78610e6f565b600180546001600160a01b0319166001600160a01b0392909216919091179055565b600061098360045461054860068581548110610bb857610bb8610fbd565b906000526020600020906005020160020154610542600354600254610e3f90919063ffffffff16565b610be9610e6f565b610bf36000610ec9565b565b610bfd610e6f565b610c06826109d6565b8060068381548110610c1a57610c1a610fbd565b9060005260206000209060050201600201819055505050565b60008060068481548110610c4957610c49610fbd565b60009182526020918290206040805160a081018252600590930290910180546001600160a01b0390811684526001820154169383018490526002810154918301919091526003810154606083015260040154608082015291503314610cea5760405162461bcd60e51b815260206004820152601260248201527124a72b20a624a22fa822a926a4a9a9a4a7a760711b60448201526064015b60405180910390fd5b602081015160405163087978b160e21b81526001600160a01b03858116600483015260009216906321e5e2c490602401602060405180830381865afa158015610d37573d6000803e3d6000fd5b505050506040513d601f19601f82011682018060405250810190610d5b9190610fd3565b9050610d7d64e8d4a51000610548846080015184610e3f90919063ffffffff16565b60008681526007602090815260408083206001600160a01b038916845290915290205550600191505092915050565b610db4610e6f565b600355565b610dc1610e6f565b600455565b610dce610e6f565b6001600160a01b038116610e335760405162461bcd60e51b815260206004820152602660248201527f4f776e61626c653a206e6577206f776e657220697320746865207a65726f206160448201526564647265737360d01b6064820152608401610ce1565b610e3c81610ec9565b50565b60006109808284611041565b60006109808284611058565b6000610980828461107a565b6000610980828461108d565b6000546001600160a01b03163314610bf35760405162461bcd60e51b815260206004820181905260248201527f4f776e61626c653a2063616c6c6572206973206e6f7420746865206f776e65726044820152606401610ce1565b600080546001600160a01b038381166001600160a01b0319831681178455604051919092169283917f8be0079c531659141344cd1fd0a4f28419497f9722a3daafe3b4186f6b6457e09190a35050565b6001600160a01b0381168114610e3c57600080fd5b60008060408385031215610f4157600080fd5b823591506020830135610f5381610f19565b809150509250929050565b600060208284031215610f7057600080fd5b5035919050565b60008060408385031215610f8a57600080fd5b50508035926020909101359150565b600060208284031215610fab57600080fd5b8135610fb681610f19565b9392505050565b634e487b7160e01b600052603260045260246000fd5b600060208284031215610fe557600080fd5b5051919050565b600060208284031215610ffe57600080fd5b81518015158114610fb657600080fd5b60006020828403121561102057600080fd5b8151610fb681610f19565b634e487b7160e01b600052601160045260246000fd5b80820281158282048414176109835761098361102b565b60008261107557634e487b7160e01b600052601260045260246000fd5b500490565b808201808211156109835761098361102b565b818103818111156109835761098361102b56fea2646970667358221220b2b44dbc43ce11cc80fa60ac3ef88a3a102480689fe3d7190d9c6a50827d88e364736f6c63430008110033",
  "immutableReferences": {},
  "source": "// SPDX-License-Identifier: MIT\n\npragma solidity >=0.6.12;\n\nimport \"@openzeppelin/contracts/utils/math/SafeMath.sol\";\nimport \"@openzeppelin/contracts/access/Ownable.sol\";\n\nimport './interfaces/IBreezyFarm.sol';\nimport './interfaces/IERC20withMint.sol';\n\ncontract BreezyMining is Ownable{\n\n    using SafeMath for uint256;\n\n    IERC20withMint public holdBRE;\n\n    uint256 public totalBlockPerDay = 5760;// just use for dislay at UI\n    // holdBRE each block.\n    uint256 public holdbrePerBlock = 2*1e18; //2 BRE/block\n    // The total point for all pools\n    uint256 public totalAllocPoint = 1000;\n    // The block when mining start\n    uint256 public startBlock;\n\n    PoolInfo[] public poolInfo;\n\n    mapping(uint256 => mapping(address => uint256)) public rewardDebtOf;\n    \n    struct PoolInfo {\n    \taddress want;                           // LP token Addess\n        IBreezyFarm breezyFarm;                 // Address of Breezy Farm Contract.\n        uint256 allocPoint;                \n        uint256 lastRewardBlock;                // Last block number when the pool get reward.\n        uint256 accHoldBREPerShare;             // Breezy Per Share of the pool.\n    }\n\n    event onHarvest(uint256 _pid, address _user, uint256 _amt);\n\n    constructor(\n        IERC20withMint _holdbre,\n        uint256 _startBlock\n    ) {\n        holdBRE = _holdbre;\n        startBlock = _startBlock;\n    }\n\n    function setHoldBREPerBlock(uint256 _holdbrePerBlock) public onlyOwner \n    {\n        holdbrePerBlock = _holdbrePerBlock;\n    }\n\n    function setTotalBlockPerDay(uint256 _totalBlockPerDay) public onlyOwner \n    {\n        totalBlockPerDay = _totalBlockPerDay;\n    }\n\n    function setTotalAllocPoint(uint256 _totalAllocPoint) public onlyOwner\n    {\n        totalAllocPoint = _totalAllocPoint;\n    }\n\n    function setBreezyTokenContract(address _holdBRE) public onlyOwner \n    {\n        holdBRE = IERC20withMint(_holdBRE);\n    }\n\n    // Add a new pool. Can only be called by the owner.\n    function addPool(uint256 _allocPoint, IBreezyFarm _holdbreFarm) public onlyOwner { \n    \taddress want = address(_holdbreFarm.want());\n        uint256 lastRewardBlock = block.number > startBlock ? block.number : startBlock;\n        poolInfo.push(PoolInfo({\n            want: want,\n            breezyFarm: _holdbreFarm,\n            allocPoint: _allocPoint,\n            lastRewardBlock: lastRewardBlock,\n            accHoldBREPerShare: 0\n        }));\n    }\n\n    //Update the given pool's allocation point. Can only be called by the owner.\n    function setPoolPoint(uint256 _pid, uint256 allocPoint) public onlyOwner \n    {\n    \tupdatePool(_pid);\n        poolInfo[_pid].allocPoint = allocPoint;\n    }\n\n    // Update reward variables of the given pool to be up-to-date.\n    function updatePool(uint256 _pid) public {\n\n        PoolInfo storage pool = poolInfo[_pid];\n\n        if (block.number <= pool.lastRewardBlock) {\n            return;\n        }\n        uint256 _totalShare = pool.breezyFarm.totalShare();\n        \n        uint256 _multiplier = getBlockFrom(pool.lastRewardBlock, block.number);\n\n        uint256 _reward = _multiplier.mul(holdbrePerBlock).mul(pool.allocPoint).div(totalAllocPoint);\n\n        if (_totalShare == 0) {\n\n            pool.lastRewardBlock = block.number;\n\n            return;\n        }\n\n        holdBRE.mint(address(this), _reward);\n\n        pool.accHoldBREPerShare = pool.accHoldBREPerShare.add(_reward.mul(1e12).div(_totalShare));\n\n        pool.lastRewardBlock = block.number;\n    }\n\n    function harvest(uint256 _pid, address _user) external returns(uint256 _pendingHoldBRE) \n    {\t\n    \tupdatePool(_pid);\n    \n    \tuint256 _rewardDebt;\n    \t(_pendingHoldBRE, _rewardDebt, ) = getUserInfo(_pid, _user);\n\n    \tuint256 _holdbreBal = holdBRE.balanceOf(address(this));\n\n    \trewardDebtOf[_pid][_user] = _rewardDebt;\n\n        if (_pendingHoldBRE > _holdbreBal) {\n            _pendingHoldBRE = _holdbreBal;\n    \t}\n        if (_pendingHoldBRE > 0) {\n            holdBRE.transfer(_user, _pendingHoldBRE);\n            emit onHarvest(_pid, _user, _pendingHoldBRE);\n        }\n    }\n\n    function updateUser(uint256 _pid, address _user) public returns(bool)\n    {\n        PoolInfo memory pool = poolInfo[_pid];\n        require(address(pool.breezyFarm) == msg.sender, 'INVALID_PERMISSION');\n\n        uint256 _userShare  = pool.breezyFarm.shareOf(_user);\n        rewardDebtOf[_pid][_user] = _userShare.mul(pool.accHoldBREPerShare).div(1e12);\n\n        return true;\n    }\n\n\n    function poolLength() external view returns (uint256) {\n        return poolInfo.length;\n    }\n\n    function getBlockFrom(uint256 _from, uint256 _to) public pure returns (uint256) {\n        return _to.sub(_from);\n    }\n\n    function getMiningSpeedOf(uint256 _pid) public view returns(uint256) {\n        return poolInfo[_pid].allocPoint.mul(100).div(totalAllocPoint);\n    }\n\n    function getTotalMintPerDayOf(uint256 _pid) public view returns(uint256) {\n        return totalBlockPerDay.mul(holdbrePerBlock).mul(poolInfo[_pid].allocPoint).div(totalAllocPoint);\n    }\n\n    function getHoldBREAddr() public view returns(address) {\n        return address(holdBRE);\n    }\n\n    // View function to get User's Info in a pool.\n    function getUserInfo(uint256 _pid, address _user) public view returns (uint256 _pendingHoldBRE, uint256 _rewardDebt, uint256 _userShare) { \n\n        PoolInfo memory pool = poolInfo[_pid];\n\n        uint256 accHoldBREPerShare = pool.accHoldBREPerShare;\n\n        // uint256 lpSupply = pool.lpToken.balanceOf(address(this));\n        uint256 _totalShare = pool.breezyFarm.totalShare();\n        _userShare  = pool.breezyFarm.shareOf(_user);\n\n        if (block.number > pool.lastRewardBlock && _totalShare != 0) {\n            uint256 _multiplier = getBlockFrom(pool.lastRewardBlock, block.number);\n            uint256 _reward = _multiplier.mul(holdbrePerBlock).mul(pool.allocPoint).div(totalAllocPoint);\n            accHoldBREPerShare = accHoldBREPerShare.add(_reward.mul(1e12).div(_totalShare));\n        }\n        _rewardDebt  = _userShare.mul(accHoldBREPerShare).div(1e12);\n\n        if (_rewardDebt > rewardDebtOf[_pid][_user]) {\n            _pendingHoldBRE = _rewardDebt.sub(rewardDebtOf[_pid][_user]);\n        }\n    }\n}",
  "sourcePath": "/Applications/projects/breezy-contracts/contracts/BreezyMining.sol",
  "compiler": {
    "name": "solc",
    "version": "0.8.17+commit.8df45f5f.Emscripten.clang"
  },
  "schemaVersion": "3.4.13",
  "updatedAt": "2023-10-09T13:51:17.437Z",
  "devdoc": {
    "kind": "dev",
    "methods": {
      "owner()": {
        "details": "Returns the address of the current owner."
      },
      "renounceOwnership()": {
        "details": "Leaves the contract without owner. It will not be possible to call `onlyOwner` functions. Can only be called by the current owner. NOTE: Renouncing ownership will leave the contract without an owner, thereby disabling any functionality that is only available to the owner."
      },
      "transferOwnership(address)": {
        "details": "Transfers ownership of the contract to a new account (`newOwner`). Can only be called by the current owner."
      }
    },
    "version": 1
  },
  "userdoc": {
    "kind": "user",
    "methods": {},
    "version": 1
  }
}