{
  "contractName": "BreezyAirdropAndDevFund",
  "abi": [
    {
      "inputs": [],
      "stateMutability": "nonpayable",
      "type": "constructor"
    },
    {
      "anonymous": false,
      "inputs": [
        {
          "indexed": true,
          "internalType": "address",
          "name": "previousOwner",
          "type": "address"
        },
        {
          "indexed": true,
          "internalType": "address",
          "name": "newOwner",
          "type": "address"
        }
      ],
      "name": "OwnershipTransferred",
      "type": "event"
    },
    {
      "inputs": [],
      "name": "fundStartTime",
      "outputs": [
        {
          "internalType": "uint256",
          "name": "",
          "type": "uint256"
        }
      ],
      "stateMutability": "view",
      "type": "function",
      "constant": true
    },
    {
      "inputs": [],
      "name": "owner",
      "outputs": [
        {
          "internalType": "address",
          "name": "",
          "type": "address"
        }
      ],
      "stateMutability": "view",
      "type": "function",
      "constant": true
    },
    {
      "inputs": [],
      "name": "renounceOwnership",
      "outputs": [],
      "stateMutability": "nonpayable",
      "type": "function"
    },
    {
      "inputs": [
        {
          "internalType": "address",
          "name": "newOwner",
          "type": "address"
        }
      ],
      "name": "transferOwnership",
      "outputs": [],
      "stateMutability": "nonpayable",
      "type": "function"
    },
    {
      "inputs": [
        {
          "internalType": "contract IERC20",
          "name": "token",
          "type": "address"
        }
      ],
      "name": "releaseAirdropAndDevFund",
      "outputs": [],
      "stateMutability": "nonpayable",
      "type": "function"
    }
  ],
  "bytecode": "0x608060405234801561001057600080fd5b5061001a33610023565b42600155610073565b600080546001600160a01b038381166001600160a01b0319831681178455604051919092169283917f8be0079c531659141344cd1fd0a4f28419497f9722a3daafe3b4186f6b6457e09190a35050565b61044f806100826000396000f3fe608060405234801561001057600080fd5b50600436106100575760003560e01c8063715018a61461005c5780638b8ea0f4146100665780638da5cb5b14610082578063afc796cf1461009d578063f2fde38b146100b0575b600080fd5b6100646100c3565b005b61006f60015481565b6040519081526020015b60405180910390f35b6000546040516001600160a01b039091168152602001610079565b6100646100ab366004610399565b6100d7565b6100646100be366004610399565b61024c565b6100cb6102c5565b6100d5600061031f565b565b6100df6102c5565b6001546100ee9061012c61036f565b4210156101505760405162461bcd60e51b815260206004820152602560248201527f54776f206d6f6e7468206c6f636b20706572696f64206973206e6f74206f76656044820152641c881e595d60da1b60648201526084015b60405180910390fd5b806001600160a01b031663a9059cbb6101716000546001600160a01b031690565b6040516370a0823160e01b81523060048201526001600160a01b038516906370a0823190602401602060405180830381865afa1580156101b5573d6000803e3d6000fd5b505050506040513d601f19601f820116820180604052508101906101d991906103bd565b6040516001600160e01b031960e085901b1681526001600160a01b03909216600483015260248201526044016020604051808303816000875af1158015610224573d6000803e3d6000fd5b505050506040513d601f19601f8201168201806040525081019061024891906103d6565b5050565b6102546102c5565b6001600160a01b0381166102b95760405162461bcd60e51b815260206004820152602660248201527f4f776e61626c653a206e6577206f776e657220697320746865207a65726f206160448201526564647265737360d01b6064820152608401610147565b6102c28161031f565b50565b6000546001600160a01b031633146100d55760405162461bcd60e51b815260206004820181905260248201527f4f776e61626c653a2063616c6c6572206973206e6f7420746865206f776e65726044820152606401610147565b600080546001600160a01b038381166001600160a01b0319831681178455604051919092169283917f8be0079c531659141344cd1fd0a4f28419497f9722a3daafe3b4186f6b6457e09190a35050565b600061037b82846103f8565b90505b92915050565b6001600160a01b03811681146102c257600080fd5b6000602082840312156103ab57600080fd5b81356103b681610384565b9392505050565b6000602082840312156103cf57600080fd5b5051919050565b6000602082840312156103e857600080fd5b815180151581146103b657600080fd5b8082018082111561037e57634e487b7160e01b600052601160045260246000fdfea26469706673582212204468b6861596383ad9d80bb82b78c1480830796c24e39e77be7b312b72fa727564736f6c63430008110033",
  "immutableReferences": {},
  "source": "// SPDX-License-Identifier: MIT\npragma solidity >=0.6.12;\n\nimport \"@openzeppelin/contracts/utils/math/SafeMath.sol\";\nimport \"@openzeppelin/contracts/token/ERC20/IERC20.sol\";\nimport \"@openzeppelin/contracts/access/Ownable.sol\";\n\n/*\n * For more details, visit the following links:\n * Website: https://breezy.finance\n * Twitter: https://twitter.com/BreezyFinance\n * Telegram: https://t.me/BreezyFinanceChannel\n * GitHub: https://github.com/breezyfinance\n */\n\ncontract BreezyAirdropAndDevFund is Ownable {\n\n    using SafeMath for uint256;\n\n    uint256 public fundStartTime; // time when the contract is deployed\n\n    modifier onlyAfterTwoMonths {\n        require(block.timestamp >= fundStartTime.add(5 minutes), \"Two month lock period is not over yet\");\n        _;\n    }\n\n    constructor() public {\n        fundStartTime = block.timestamp;\n    }\n\n    function releaseAirdropAndDevFund(IERC20 token) public onlyOwner onlyAfterTwoMonths {\n        token.transfer(owner(), token.balanceOf(address(this)));\n    }\n\n}\n",
  "sourcePath": "/Applications/projects/breezy-contracts/contracts/BreezyAirdropAndDevFund.sol",
  "compiler": {
    "name": "solc",
    "version": "0.8.17+commit.8df45f5f.Emscripten.clang"
  },
  "schemaVersion": "3.4.13",
  "updatedAt": "2023-08-07T15:36:38.354Z",
  "networkType": "ethereum",
  "devdoc": {
    "kind": "dev",
    "methods": {
      "owner()": {
        "details": "Returns the address of the current owner."
      },
      "renounceOwnership()": {
        "details": "Leaves the contract without owner. It will not be possible to call `onlyOwner` functions. Can only be called by the current owner. NOTE: Renouncing ownership will leave the contract without an owner, thereby disabling any functionality that is only available to the owner."
      },
      "transferOwnership(address)": {
        "details": "Transfers ownership of the contract to a new account (`newOwner`). Can only be called by the current owner."
      }
    },
    "version": 1
  },
  "userdoc": {
    "kind": "user",
    "methods": {},
    "version": 1
  }
}