{
  "contractName": "BreezySwapV1BREWETH",
  "abi": [
    {
      "inputs": [
        {
          "internalType": "contract IERC20",
          "name": "_base",
          "type": "address"
        },
        {
          "internalType": "contract IERC20",
          "name": "_token",
          "type": "address"
        },
        {
          "internalType": "address",
          "name": "_feeMachineContract",
          "type": "address"
        },
        {
          "internalType": "contract IBreezyWhitelist",
          "name": "_whitelistContract",
          "type": "address"
        },
        {
          "internalType": "string",
          "name": "name",
          "type": "string"
        },
        {
          "internalType": "string",
          "name": "symbol",
          "type": "string"
        }
      ],
      "stateMutability": "nonpayable",
      "type": "constructor"
    },
    {
      "anonymous": false,
      "inputs": [
        {
          "indexed": true,
          "internalType": "address",
          "name": "owner",
          "type": "address"
        },
        {
          "indexed": true,
          "internalType": "address",
          "name": "spender",
          "type": "address"
        },
        {
          "indexed": false,
          "internalType": "uint256",
          "name": "value",
          "type": "uint256"
        }
      ],
      "name": "Approval",
      "type": "event"
    },
    {
      "anonymous": false,
      "inputs": [
        {
          "indexed": true,
          "internalType": "address",
          "name": "previousOwner",
          "type": "address"
        },
        {
          "indexed": true,
          "internalType": "address",
          "name": "newOwner",
          "type": "address"
        }
      ],
      "name": "OwnershipTransferred",
      "type": "event"
    },
    {
      "anonymous": false,
      "inputs": [
        {
          "indexed": false,
          "internalType": "address",
          "name": "account",
          "type": "address"
        }
      ],
      "name": "Paused",
      "type": "event"
    },
    {
      "anonymous": false,
      "inputs": [
        {
          "indexed": true,
          "internalType": "address",
          "name": "from",
          "type": "address"
        },
        {
          "indexed": true,
          "internalType": "address",
          "name": "to",
          "type": "address"
        },
        {
          "indexed": false,
          "internalType": "uint256",
          "name": "value",
          "type": "uint256"
        }
      ],
      "name": "Transfer",
      "type": "event"
    },
    {
      "anonymous": false,
      "inputs": [
        {
          "indexed": false,
          "internalType": "address",
          "name": "account",
          "type": "address"
        }
      ],
      "name": "Unpaused",
      "type": "event"
    },
    {
      "anonymous": false,
      "inputs": [
        {
          "indexed": false,
          "internalType": "address",
          "name": "sender",
          "type": "address"
        },
        {
          "indexed": false,
          "internalType": "uint256",
          "name": "mintLP",
          "type": "uint256"
        },
        {
          "indexed": false,
          "internalType": "uint256",
          "name": "baseInputAmount",
          "type": "uint256"
        },
        {
          "indexed": false,
          "internalType": "uint256",
          "name": "tokenInputAmount",
          "type": "uint256"
        },
        {
          "indexed": false,
          "internalType": "uint256",
          "name": "poolBaseBalance",
          "type": "uint256"
        },
        {
          "indexed": false,
          "internalType": "uint256",
          "name": "poolTokenBalance",
          "type": "uint256"
        }
      ],
      "name": "onAddLP",
      "type": "event"
    },
    {
      "anonymous": false,
      "inputs": [
        {
          "indexed": false,
          "internalType": "address",
          "name": "sender",
          "type": "address"
        },
        {
          "indexed": false,
          "internalType": "uint256",
          "name": "amountLP",
          "type": "uint256"
        },
        {
          "indexed": false,
          "internalType": "uint256",
          "name": "baseOutputAmout",
          "type": "uint256"
        },
        {
          "indexed": false,
          "internalType": "uint256",
          "name": "tokenOutputAmount",
          "type": "uint256"
        },
        {
          "indexed": false,
          "internalType": "uint256",
          "name": "poolBaseBalance",
          "type": "uint256"
        },
        {
          "indexed": false,
          "internalType": "uint256",
          "name": "poolTokenBalance",
          "type": "uint256"
        }
      ],
      "name": "onRemoveLP",
      "type": "event"
    },
    {
      "anonymous": false,
      "inputs": [
        {
          "indexed": false,
          "internalType": "address",
          "name": "sender",
          "type": "address"
        },
        {
          "indexed": false,
          "internalType": "uint256",
          "name": "minTokenOutput",
          "type": "uint256"
        },
        {
          "indexed": false,
          "internalType": "uint256",
          "name": "baseInputAmount",
          "type": "uint256"
        },
        {
          "indexed": false,
          "internalType": "uint256",
          "name": "tokenOutputAmount",
          "type": "uint256"
        },
        {
          "indexed": false,
          "internalType": "uint256",
          "name": "poolBaseBalance",
          "type": "uint256"
        },
        {
          "indexed": false,
          "internalType": "uint256",
          "name": "poolTokenBalance",
          "type": "uint256"
        }
      ],
      "name": "onSwapBaseToTokenWithBaseInput",
      "type": "event"
    },
    {
      "anonymous": false,
      "inputs": [
        {
          "indexed": false,
          "internalType": "address",
          "name": "sender",
          "type": "address"
        },
        {
          "indexed": false,
          "internalType": "uint256",
          "name": "maxBaseInput",
          "type": "uint256"
        },
        {
          "indexed": false,
          "internalType": "uint256",
          "name": "baseInputAmount",
          "type": "uint256"
        },
        {
          "indexed": false,
          "internalType": "uint256",
          "name": "tokenOutputAmount",
          "type": "uint256"
        },
        {
          "indexed": false,
          "internalType": "uint256",
          "name": "poolBaseBalance",
          "type": "uint256"
        },
        {
          "indexed": false,
          "internalType": "uint256",
          "name": "poolTokenBalance",
          "type": "uint256"
        }
      ],
      "name": "onSwapBaseToTokenWithTokenOutput",
      "type": "event"
    },
    {
      "anonymous": false,
      "inputs": [
        {
          "indexed": false,
          "internalType": "address",
          "name": "sender",
          "type": "address"
        },
        {
          "indexed": false,
          "internalType": "uint256",
          "name": "maxTokenInput",
          "type": "uint256"
        },
        {
          "indexed": false,
          "internalType": "uint256",
          "name": "tokenInputAmount",
          "type": "uint256"
        },
        {
          "indexed": false,
          "internalType": "uint256",
          "name": "baseOutputAmount",
          "type": "uint256"
        },
        {
          "indexed": false,
          "internalType": "uint256",
          "name": "poolBaseBalance",
          "type": "uint256"
        },
        {
          "indexed": false,
          "internalType": "uint256",
          "name": "poolTokenBalance",
          "type": "uint256"
        }
      ],
      "name": "onSwapTokenToBaseWithBaseOutput",
      "type": "event"
    },
    {
      "anonymous": false,
      "inputs": [
        {
          "indexed": false,
          "internalType": "address",
          "name": "sender",
          "type": "address"
        },
        {
          "indexed": false,
          "internalType": "uint256",
          "name": "minBaseOutput",
          "type": "uint256"
        },
        {
          "indexed": false,
          "internalType": "uint256",
          "name": "tokenInputAmount",
          "type": "uint256"
        },
        {
          "indexed": false,
          "internalType": "uint256",
          "name": "baseOutputAmount",
          "type": "uint256"
        },
        {
          "indexed": false,
          "internalType": "uint256",
          "name": "poolBaseBalance",
          "type": "uint256"
        },
        {
          "indexed": false,
          "internalType": "uint256",
          "name": "poolTokenBalance",
          "type": "uint256"
        }
      ],
      "name": "onSwapTokenToBaseWithTokenInput",
      "type": "event"
    },
    {
      "inputs": [],
      "name": "PLATFORM_FEE",
      "outputs": [
        {
          "internalType": "uint256",
          "name": "",
          "type": "uint256"
        }
      ],
      "stateMutability": "view",
      "type": "function",
      "constant": true
    },
    {
      "inputs": [],
      "name": "TRADE_FEE",
      "outputs": [
        {
          "internalType": "uint256",
          "name": "",
          "type": "uint256"
        }
      ],
      "stateMutability": "view",
      "type": "function",
      "constant": true
    },
    {
      "inputs": [
        {
          "internalType": "address",
          "name": "owner",
          "type": "address"
        },
        {
          "internalType": "address",
          "name": "spender",
          "type": "address"
        }
      ],
      "name": "allowance",
      "outputs": [
        {
          "internalType": "uint256",
          "name": "",
          "type": "uint256"
        }
      ],
      "stateMutability": "view",
      "type": "function",
      "constant": true
    },
    {
      "inputs": [
        {
          "internalType": "address",
          "name": "spender",
          "type": "address"
        },
        {
          "internalType": "uint256",
          "name": "amount",
          "type": "uint256"
        }
      ],
      "name": "approve",
      "outputs": [
        {
          "internalType": "bool",
          "name": "",
          "type": "bool"
        }
      ],
      "stateMutability": "nonpayable",
      "type": "function"
    },
    {
      "inputs": [
        {
          "internalType": "address",
          "name": "account",
          "type": "address"
        }
      ],
      "name": "balanceOf",
      "outputs": [
        {
          "internalType": "uint256",
          "name": "",
          "type": "uint256"
        }
      ],
      "stateMutability": "view",
      "type": "function",
      "constant": true
    },
    {
      "inputs": [],
      "name": "base",
      "outputs": [
        {
          "internalType": "contract IERC20",
          "name": "",
          "type": "address"
        }
      ],
      "stateMutability": "view",
      "type": "function",
      "constant": true
    },
    {
      "inputs": [
        {
          "internalType": "uint256",
          "name": "amount",
          "type": "uint256"
        }
      ],
      "name": "burn",
      "outputs": [],
      "stateMutability": "nonpayable",
      "type": "function"
    },
    {
      "inputs": [
        {
          "internalType": "address",
          "name": "account",
          "type": "address"
        },
        {
          "internalType": "uint256",
          "name": "amount",
          "type": "uint256"
        }
      ],
      "name": "burnFrom",
      "outputs": [],
      "stateMutability": "nonpayable",
      "type": "function"
    },
    {
      "inputs": [],
      "name": "decimals",
      "outputs": [
        {
          "internalType": "uint8",
          "name": "",
          "type": "uint8"
        }
      ],
      "stateMutability": "view",
      "type": "function",
      "constant": true
    },
    {
      "inputs": [
        {
          "internalType": "address",
          "name": "spender",
          "type": "address"
        },
        {
          "internalType": "uint256",
          "name": "subtractedValue",
          "type": "uint256"
        }
      ],
      "name": "decreaseAllowance",
      "outputs": [
        {
          "internalType": "bool",
          "name": "",
          "type": "bool"
        }
      ],
      "stateMutability": "nonpayable",
      "type": "function"
    },
    {
      "inputs": [],
      "name": "feeMachineContract",
      "outputs": [
        {
          "internalType": "address",
          "name": "",
          "type": "address"
        }
      ],
      "stateMutability": "view",
      "type": "function",
      "constant": true
    },
    {
      "inputs": [
        {
          "internalType": "address",
          "name": "spender",
          "type": "address"
        },
        {
          "internalType": "uint256",
          "name": "addedValue",
          "type": "uint256"
        }
      ],
      "name": "increaseAllowance",
      "outputs": [
        {
          "internalType": "bool",
          "name": "",
          "type": "bool"
        }
      ],
      "stateMutability": "nonpayable",
      "type": "function"
    },
    {
      "inputs": [],
      "name": "name",
      "outputs": [
        {
          "internalType": "string",
          "name": "",
          "type": "string"
        }
      ],
      "stateMutability": "view",
      "type": "function",
      "constant": true
    },
    {
      "inputs": [],
      "name": "owner",
      "outputs": [
        {
          "internalType": "address",
          "name": "",
          "type": "address"
        }
      ],
      "stateMutability": "view",
      "type": "function",
      "constant": true
    },
    {
      "inputs": [],
      "name": "paused",
      "outputs": [
        {
          "internalType": "bool",
          "name": "",
          "type": "bool"
        }
      ],
      "stateMutability": "view",
      "type": "function",
      "constant": true
    },
    {
      "inputs": [],
      "name": "platformFundAddress",
      "outputs": [
        {
          "internalType": "address",
          "name": "",
          "type": "address"
        }
      ],
      "stateMutability": "view",
      "type": "function",
      "constant": true
    },
    {
      "inputs": [],
      "name": "renounceOwnership",
      "outputs": [],
      "stateMutability": "nonpayable",
      "type": "function"
    },
    {
      "inputs": [],
      "name": "symbol",
      "outputs": [
        {
          "internalType": "string",
          "name": "",
          "type": "string"
        }
      ],
      "stateMutability": "view",
      "type": "function",
      "constant": true
    },
    {
      "inputs": [],
      "name": "token",
      "outputs": [
        {
          "internalType": "contract IERC20",
          "name": "",
          "type": "address"
        }
      ],
      "stateMutability": "view",
      "type": "function",
      "constant": true
    },
    {
      "inputs": [],
      "name": "totalSupply",
      "outputs": [
        {
          "internalType": "uint256",
          "name": "",
          "type": "uint256"
        }
      ],
      "stateMutability": "view",
      "type": "function",
      "constant": true
    },
    {
      "inputs": [
        {
          "internalType": "address",
          "name": "to",
          "type": "address"
        },
        {
          "internalType": "uint256",
          "name": "amount",
          "type": "uint256"
        }
      ],
      "name": "transfer",
      "outputs": [
        {
          "internalType": "bool",
          "name": "",
          "type": "bool"
        }
      ],
      "stateMutability": "nonpayable",
      "type": "function"
    },
    {
      "inputs": [
        {
          "internalType": "address",
          "name": "from",
          "type": "address"
        },
        {
          "internalType": "address",
          "name": "to",
          "type": "address"
        },
        {
          "internalType": "uint256",
          "name": "amount",
          "type": "uint256"
        }
      ],
      "name": "transferFrom",
      "outputs": [
        {
          "internalType": "bool",
          "name": "",
          "type": "bool"
        }
      ],
      "stateMutability": "nonpayable",
      "type": "function"
    },
    {
      "inputs": [
        {
          "internalType": "address",
          "name": "newOwner",
          "type": "address"
        }
      ],
      "name": "transferOwnership",
      "outputs": [],
      "stateMutability": "nonpayable",
      "type": "function"
    },
    {
      "inputs": [],
      "name": "whitelistContract",
      "outputs": [
        {
          "internalType": "contract IBreezyWhitelist",
          "name": "",
          "type": "address"
        }
      ],
      "stateMutability": "view",
      "type": "function",
      "constant": true
    },
    {
      "inputs": [
        {
          "internalType": "address",
          "name": "_whitelistContract",
          "type": "address"
        }
      ],
      "name": "setWhitelistContract",
      "outputs": [],
      "stateMutability": "nonpayable",
      "type": "function"
    },
    {
      "inputs": [
        {
          "internalType": "address",
          "name": "_feeMachineContract",
          "type": "address"
        }
      ],
      "name": "setFeeMachineContract",
      "outputs": [],
      "stateMutability": "nonpayable",
      "type": "function"
    },
    {
      "inputs": [
        {
          "internalType": "uint256",
          "name": "_tradeFee",
          "type": "uint256"
        }
      ],
      "name": "setTradeFee",
      "outputs": [],
      "stateMutability": "nonpayable",
      "type": "function"
    },
    {
      "inputs": [
        {
          "internalType": "uint256",
          "name": "_platformFee",
          "type": "uint256"
        }
      ],
      "name": "setPlatformFee",
      "outputs": [],
      "stateMutability": "nonpayable",
      "type": "function"
    },
    {
      "inputs": [
        {
          "internalType": "address",
          "name": "newAddress",
          "type": "address"
        }
      ],
      "name": "setPlatformFundAdress",
      "outputs": [],
      "stateMutability": "nonpayable",
      "type": "function"
    },
    {
      "inputs": [],
      "name": "getK",
      "outputs": [
        {
          "internalType": "uint256",
          "name": "",
          "type": "uint256"
        }
      ],
      "stateMutability": "view",
      "type": "function",
      "constant": true
    },
    {
      "inputs": [
        {
          "internalType": "uint256",
          "name": "baseInputAmount",
          "type": "uint256"
        }
      ],
      "name": "getTokenOutput",
      "outputs": [
        {
          "internalType": "uint256",
          "name": "",
          "type": "uint256"
        }
      ],
      "stateMutability": "view",
      "type": "function",
      "constant": true
    },
    {
      "inputs": [
        {
          "internalType": "uint256",
          "name": "tokenInputAmount",
          "type": "uint256"
        }
      ],
      "name": "getBaseOutput",
      "outputs": [
        {
          "internalType": "uint256",
          "name": "",
          "type": "uint256"
        }
      ],
      "stateMutability": "view",
      "type": "function",
      "constant": true
    },
    {
      "inputs": [
        {
          "internalType": "uint256",
          "name": "baseInputAmount",
          "type": "uint256"
        }
      ],
      "name": "getDataFromBaseInputToAddLp",
      "outputs": [
        {
          "internalType": "uint256",
          "name": "",
          "type": "uint256"
        },
        {
          "internalType": "uint256",
          "name": "",
          "type": "uint256"
        }
      ],
      "stateMutability": "view",
      "type": "function",
      "constant": true
    },
    {
      "inputs": [
        {
          "internalType": "uint256",
          "name": "tokenInputAmount",
          "type": "uint256"
        }
      ],
      "name": "getDataFromTokenInputToAddLp",
      "outputs": [
        {
          "internalType": "uint256",
          "name": "",
          "type": "uint256"
        },
        {
          "internalType": "uint256",
          "name": "",
          "type": "uint256"
        }
      ],
      "stateMutability": "view",
      "type": "function",
      "constant": true
    },
    {
      "inputs": [
        {
          "internalType": "uint256",
          "name": "amountLP",
          "type": "uint256"
        }
      ],
      "name": "getDataToRemoveLP",
      "outputs": [
        {
          "internalType": "uint256",
          "name": "",
          "type": "uint256"
        },
        {
          "internalType": "uint256",
          "name": "",
          "type": "uint256"
        }
      ],
      "stateMutability": "view",
      "type": "function",
      "constant": true
    },
    {
      "inputs": [
        {
          "internalType": "uint256",
          "name": "baseInputAmount",
          "type": "uint256"
        },
        {
          "internalType": "uint256",
          "name": "baseReserve",
          "type": "uint256"
        },
        {
          "internalType": "uint256",
          "name": "tokenReserve",
          "type": "uint256"
        }
      ],
      "name": "getTokenOutputAmountFromBaseInput",
      "outputs": [
        {
          "internalType": "uint256",
          "name": "",
          "type": "uint256"
        }
      ],
      "stateMutability": "pure",
      "type": "function",
      "constant": true
    },
    {
      "inputs": [
        {
          "internalType": "uint256",
          "name": "tokenOutputAmount",
          "type": "uint256"
        },
        {
          "internalType": "uint256",
          "name": "baseReserve",
          "type": "uint256"
        },
        {
          "internalType": "uint256",
          "name": "tokenReserve",
          "type": "uint256"
        }
      ],
      "name": "getBaseInputAmountFromTokenOutput",
      "outputs": [
        {
          "internalType": "uint256",
          "name": "",
          "type": "uint256"
        }
      ],
      "stateMutability": "pure",
      "type": "function",
      "constant": true
    },
    {
      "inputs": [
        {
          "internalType": "uint256",
          "name": "tokenInputAmount",
          "type": "uint256"
        },
        {
          "internalType": "uint256",
          "name": "baseReserve",
          "type": "uint256"
        },
        {
          "internalType": "uint256",
          "name": "tokenReserve",
          "type": "uint256"
        }
      ],
      "name": "getBaseOutputAmountFromTokenInput",
      "outputs": [
        {
          "internalType": "uint256",
          "name": "",
          "type": "uint256"
        }
      ],
      "stateMutability": "pure",
      "type": "function",
      "constant": true
    },
    {
      "inputs": [
        {
          "internalType": "uint256",
          "name": "baseOutputAmount",
          "type": "uint256"
        },
        {
          "internalType": "uint256",
          "name": "baseReserve",
          "type": "uint256"
        },
        {
          "internalType": "uint256",
          "name": "tokenReserve",
          "type": "uint256"
        }
      ],
      "name": "getTokenInputAmountFromBaseOutput",
      "outputs": [
        {
          "internalType": "uint256",
          "name": "",
          "type": "uint256"
        }
      ],
      "stateMutability": "pure",
      "type": "function",
      "constant": true
    },
    {
      "inputs": [
        {
          "internalType": "uint256",
          "name": "baseInputAmount",
          "type": "uint256"
        },
        {
          "internalType": "uint256",
          "name": "minTokenOutput",
          "type": "uint256"
        },
        {
          "internalType": "uint256",
          "name": "deadline",
          "type": "uint256"
        }
      ],
      "name": "swapBaseToTokenWithBaseInput",
      "outputs": [],
      "stateMutability": "nonpayable",
      "type": "function"
    },
    {
      "inputs": [
        {
          "internalType": "uint256",
          "name": "maxBaseInput",
          "type": "uint256"
        },
        {
          "internalType": "uint256",
          "name": "tokenOutputAmount",
          "type": "uint256"
        },
        {
          "internalType": "uint256",
          "name": "deadline",
          "type": "uint256"
        }
      ],
      "name": "swapBaseToTokenWithTokenOutput",
      "outputs": [],
      "stateMutability": "nonpayable",
      "type": "function"
    },
    {
      "inputs": [
        {
          "internalType": "uint256",
          "name": "tokenInputAmount",
          "type": "uint256"
        },
        {
          "internalType": "uint256",
          "name": "minBaseOutput",
          "type": "uint256"
        },
        {
          "internalType": "uint256",
          "name": "deadline",
          "type": "uint256"
        }
      ],
      "name": "swapTokenToBaseWithTokenInput",
      "outputs": [],
      "stateMutability": "nonpayable",
      "type": "function"
    },
    {
      "inputs": [
        {
          "internalType": "uint256",
          "name": "maxTokenInput",
          "type": "uint256"
        },
        {
          "internalType": "uint256",
          "name": "baseOutputAmount",
          "type": "uint256"
        },
        {
          "internalType": "uint256",
          "name": "deadline",
          "type": "uint256"
        }
      ],
      "name": "swapTokenToBaseWithBaseOutput",
      "outputs": [],
      "stateMutability": "nonpayable",
      "type": "function"
    },
    {
      "inputs": [
        {
          "internalType": "uint256",
          "name": "minLP",
          "type": "uint256"
        },
        {
          "internalType": "uint256",
          "name": "baseInputAmount",
          "type": "uint256"
        },
        {
          "internalType": "uint256",
          "name": "maxTokenInputAmount",
          "type": "uint256"
        },
        {
          "internalType": "uint256",
          "name": "deadline",
          "type": "uint256"
        }
      ],
      "name": "addLP",
      "outputs": [
        {
          "internalType": "uint256",
          "name": "",
          "type": "uint256"
        }
      ],
      "stateMutability": "nonpayable",
      "type": "function"
    },
    {
      "inputs": [
        {
          "internalType": "uint256",
          "name": "amountLP",
          "type": "uint256"
        },
        {
          "internalType": "uint256",
          "name": "minBaseOutput",
          "type": "uint256"
        },
        {
          "internalType": "uint256",
          "name": "minTokenOutput",
          "type": "uint256"
        },
        {
          "internalType": "uint256",
          "name": "deadline",
          "type": "uint256"
        }
      ],
      "name": "removeLP",
      "outputs": [
        {
          "internalType": "uint256",
          "name": "",
          "type": "uint256"
        },
        {
          "internalType": "uint256",
          "name": "",
          "type": "uint256"
        }
      ],
      "stateMutability": "nonpayable",
      "type": "function"
    },
    {
      "inputs": [],
      "name": "getTotalReserve",
      "outputs": [
        {
          "internalType": "uint256",
          "name": "",
          "type": "uint256"
        },
        {
          "internalType": "uint256",
          "name": "",
          "type": "uint256"
        }
      ],
      "stateMutability": "view",
      "type": "function",
      "constant": true
    },
    {
      "inputs": [],
      "name": "pause",
      "outputs": [],
      "stateMutability": "nonpayable",
      "type": "function"
    },
    {
      "inputs": [],
      "name": "unpause",
      "outputs": [],
      "stateMutability": "nonpayable",
      "type": "function"
    }
  ],
  "bytecode": "0x60806040526002600b556000600c553480156200001b57600080fd5b50604051620042f7380380620042f78339810160408190526200003e9162000221565b818160036200004e83826200036f565b5060046200005d82826200036f565b5050506200007a62000074620000ed60201b60201c565b620000f1565b50506005805460ff60a01b191690556001600655600780546001600160a01b03199081166001600160a01b039687161790915560088054821694861694909417909355600a805484169185169190911790556009805483169190931617909155600d80543392169190911790556200043b565b3390565b600580546001600160a01b038381166001600160a01b0319831681179093556040519116919082907f8be0079c531659141344cd1fd0a4f28419497f9722a3daafe3b4186f6b6457e090600090a35050565b6001600160a01b03811681146200015957600080fd5b50565b634e487b7160e01b600052604160045260246000fd5b600082601f8301126200018457600080fd5b81516001600160401b0380821115620001a157620001a16200015c565b604051601f8301601f19908116603f01168101908282118183101715620001cc57620001cc6200015c565b81604052838152602092508683858801011115620001e957600080fd5b600091505b838210156200020d5785820183015181830184015290820190620001ee565b600093810190920192909252949350505050565b60008060008060008060c087890312156200023b57600080fd5b8651620002488162000143565b60208801519096506200025b8162000143565b60408801519095506200026e8162000143565b6060880151909450620002818162000143565b60808801519093506001600160401b03808211156200029f57600080fd5b620002ad8a838b0162000172565b935060a0890151915080821115620002c457600080fd5b50620002d389828a0162000172565b9150509295509295509295565b600181811c90821680620002f557607f821691505b6020821081036200031657634e487b7160e01b600052602260045260246000fd5b50919050565b601f8211156200036a57600081815260208120601f850160051c81016020861015620003455750805b601f850160051c820191505b81811015620003665782815560010162000351565b5050505b505050565b81516001600160401b038111156200038b576200038b6200015c565b620003a3816200039c8454620002e0565b846200031c565b602080601f831160018114620003db5760008415620003c25750858301515b600019600386901b1c1916600185901b17855562000366565b600085815260208120601f198616915b828110156200040c57888601518255948401946001909101908401620003eb565b50858210156200042b5787850151600019600388901b60f8161c191681555b5050505050600190811b01905550565b613eac806200044b6000396000f3fe608060405234801561001057600080fd5b50600436106102a05760003560e01c806373dd25a311610167578063b7c3ba45116100ce578063e50a38d711610087578063e50a38d7146105df578063ec022918146105f2578063ed385625146105fa578063ee39e7a01461060d578063f2fde38b14610615578063fc0c546a1461062857600080fd5b8063b7c3ba4514610577578063c6e842fc1461058a578063d0e9de6c1461059d578063d1322962146105b0578063dbcfbf2f146105b9578063dd62ed3e146105cc57600080fd5b80638fe6041d116101205780638fe6041d1461051057806395d89b411461052357806397bb21c61461052b5780639fa5e63e1461053e578063a457c2d714610551578063a9059cbb1461056457600080fd5b806373dd25a3146104ab57806376125deb146104be57806379cc6790146104d15780638456cb59146104e457806384900b04146104ec5780638da5cb5b146104ff57600080fd5b8063395093511161020b57806360b1765c116101c457806360b1765c14610419578063635f95ff1461042c5780636662d1771461043f57806370a0823114610467578063711f614214610490578063715018a6146104a357600080fd5b8063395093511461039b5780633f4ba83a146103ae57806342966c68146103b657806342eba2ce146103c95780635001f3b5146103f45780635c975abb1461040757600080fd5b806312f261401161025d57806312f261401461034257806318160ddd1461035557806323b872dd1461035d5780632916bc1014610370578063313ce5671461038357806334fbc9a11461039257600080fd5b806303bf04c1146102a557806306fdde03146102ba578063095ea7b3146102d857806310603023146102fb57806311fbded31461030e57806312e8e2c31461032f575b600080fd5b6102b86102b336600461396b565b61063b565b005b6102c2610b65565b6040516102cf9190613997565b60405180910390f35b6102eb6102e6366004613a01565b610bf7565b60405190151581526020016102cf565b6102b8610309366004613a2b565b610c11565b61032161031c366004613a2b565b610c1e565b6040519081526020016102cf565b6102b861033d366004613a2b565b610c70565b6102b8610350366004613a44565b610c7d565b600254610321565b6102eb61036b366004613a5f565b610cef565b61032161037e36600461396b565b610d13565b604051601281526020016102cf565b610321600c5481565b6102eb6103a9366004613a01565b610d72565b6102b8610d94565b6102b86103c4366004613a2b565b610da6565b6009546103dc906001600160a01b031681565b6040516001600160a01b0390911681526020016102cf565b6007546103dc906001600160a01b031681565b600554600160a01b900460ff166102eb565b610321610427366004613a9b565b610db3565b61032161043a366004613a2b565b61159a565b61045261044d366004613a2b565b6115e1565b604080519283526020830191909152016102cf565b610321610475366004613a44565b6001600160a01b031660009081526020819052604090205490565b61045261049e366004613a2b565b611675565b6102b861172a565b6102b86104b936600461396b565b61173c565b6104526104cc366004613a9b565b611c35565b6102b86104df366004613a01565b61234c565b6102b8612365565b600a546103dc906001600160a01b031681565b6005546001600160a01b03166103dc565b6102b861051e366004613a44565b612375565b6102c261239f565b61032161053936600461396b565b6123ae565b600d546103dc906001600160a01b031681565b6102eb61055f366004613a01565b612407565b6102eb610572366004613a01565b612482565b61032161058536600461396b565b612490565b610452610598366004613a2b565b6124e9565b6102b86105ab36600461396b565b61256c565b610321600b5481565b6103216105c736600461396b565b612a4f565b6103216105da366004613acd565b612aae565b6102b86105ed36600461396b565b612ad9565b610452612fd4565b6102b8610608366004613a44565b6130c2565b610321613134565b6102b8610623366004613a44565b613151565b6008546103dc906001600160a01b031681565b3332146106d857600a54604051636c9b2a3f60e11b81523360048201526001600160a01b039091169063d936547e90602401602060405180830381865afa15801561068a573d6000803e3d6000fd5b505050506040513d601f19601f820116820180604052508101906106ae9190613b00565b15156001146106d85760405162461bcd60e51b81526004016106cf90613b22565b60405180910390fd5b6106e06131c7565b6106e8613214565b428110156107085760405162461bcd60e51b81526004016106cf90613b4d565b600082116107525760405162461bcd60e51b81526020600482015260176024820152761253959053125117d3525397d09054d157d3d555141555604a1b60448201526064016106cf565b600083116107725760405162461bcd60e51b81526004016106cf90613b77565b6008546040516370a0823160e01b81523360048201526001600160a01b03909116906370a0823190602401602060405180830381865afa1580156107ba573d6000803e3d6000fd5b505050506040513d601f19601f820116820180604052508101906107de9190613ba4565b83111561082d5760405162461bcd60e51b815260206004820152601f60248201527f544f4b454e5f494e5055545f4849474845525f555345525f42414c414e43450060448201526064016106cf565b600080610838612fd4565b909250905081841061089d5760405162461bcd60e51b815260206004820152602860248201527f4d494e5f424153455f4f55545055545f4849474845525f504f4f4c5f424153456044820152675f42414c414e434560c01b60648201526084016106cf565b60006108c06103e86108ba600b548961326d90919063ffffffff16565b90613280565b905060006108ce878361328c565b905060006108dd828686612a4f565b9050868110156108ff5760405162461bcd60e51b81526004016106cf90613bbd565b84811061091e5760405162461bcd60e51b81526004016106cf90613be9565b6007546040516370a0823160e01b81523060048201526001600160a01b03909116906370a0823190602401602060405180830381865afa158015610966573d6000803e3d6000fd5b505050506040513d601f19601f8201168201806040525081019061098a9190613ba4565b81106109a85760405162461bcd60e51b81526004016106cf90613c2d565b6008546040516323b872dd60e01b81526001600160a01b03909116906323b872dd906109dc90339030908d90600401613c75565b6020604051808303816000875af11580156109fb573d6000803e3d6000fd5b505050506040513d601f19601f82011682018060405250810190610a1f9190613b00565b5060075460405163a9059cbb60e01b81526001600160a01b039091169063a9059cbb90610a529033908590600401613c99565b6020604051808303816000875af1158015610a71573d6000803e3d6000fd5b505050506040513d601f19601f82011682018060405250810190610a959190613b00565b5060085460095460405163a9059cbb60e01b81526001600160a01b039283169263a9059cbb92610acc929116908790600401613c99565b6020604051808303816000875af1158015610aeb573d6000803e3d6000fd5b505050506040513d601f19601f82011682018060405250810190610b0f9190613b00565b507fb1b8c525a87e01fd3cda717635c4b24d56deba9f9d95c4f650c022bcd0bf8f5033888a848989604051610b4996959493929190613cb2565b60405180910390a15050505050610b606001600655565b505050565b606060038054610b7490613ce5565b80601f0160208091040260200160405190810160405280929190818152602001828054610ba090613ce5565b8015610bed5780601f10610bc257610100808354040283529160200191610bed565b820191906000526020600020905b815481529060010190602001808311610bd057829003601f168201915b5050505050905090565b600033610c05818585613298565b60019150505b92915050565b610c196133bc565b600b55565b60008080610c2a612fd4565b600b549193509150600090610c48906103e8906108ba90889061326d565b90506000610c56868361328c565b90506000610c65828686610d13565b979650505050505050565b610c786133bc565b600c55565b610c856133bc565b6001600160a01b038116610ccd5760405162461bcd60e51b815260206004820152600f60248201526e494e56414c49445f4144445245535360881b60448201526064016106cf565b600a80546001600160a01b0319166001600160a01b0392909216919091179055565b600033610cfd858285613416565b610d08858585613490565b506001949350505050565b60008083118015610d245750600082115b610d405760405162461bcd60e51b81526004016106cf90613d1f565b6000610d4c838561326d565b90506000610d5a8587613634565b90506000610c65610d6b8484613280565b869061328c565b600033610c05818585610d858383612aae565b610d8f9190613d5c565b613298565b610d9c6133bc565b610da4613640565b565b610db03382613695565b50565b6000333214610e4957600a54604051636c9b2a3f60e11b81523360048201526001600160a01b039091169063d936547e90602401602060405180830381865afa158015610e04573d6000803e3d6000fd5b505050506040513d601f19601f82011682018060405250810190610e289190613b00565b1515600114610e495760405162461bcd60e51b81526004016106cf90613b22565b610e51613214565b42821015610e715760405162461bcd60e51b81526004016106cf90613b4d565b60008511610eb25760405162461bcd60e51b815260206004820152600e60248201526d0494e56414c49445f4d494e5f4c560941b60448201526064016106cf565b60008411610ed25760405162461bcd60e51b81526004016106cf90613d6f565b60008311610f1c5760405162461bcd60e51b81526020600482015260176024820152761253959053125117d3505617d513d2d15397d253941555604a1b60448201526064016106cf565b6000610f2760025490565b90508060000361114f576007546040516323b872dd60e01b81526001600160a01b03909116906323b872dd90610f6590339030908a90600401613c75565b6020604051808303816000875af1158015610f84573d6000803e3d6000fd5b505050506040513d601f19601f82011682018060405250810190610fa89190613b00565b506008546040516323b872dd60e01b81526001600160a01b03909116906323b872dd90610fdd90339030908990600401613c75565b6020604051808303816000875af1158015610ffc573d6000803e3d6000fd5b505050506040513d601f19601f820116820180604052508101906110209190613b00565b508461102c33826137c7565b6007546040516370a0823160e01b81523060048201527f28e12afd967cc11b786f1b1547f5e0da96ccc91ebb09bdd406248111a634e7e591339184918a918a916001600160a01b0316906370a0823190602401602060405180830381865afa15801561109c573d6000803e3d6000fd5b505050506040513d601f19601f820116820180604052508101906110c09190613ba4565b6008546040516370a0823160e01b81523060048201526001600160a01b03909116906370a0823190602401602060405180830381865afa158015611108573d6000803e3d6000fd5b505050506040513d601f19601f8201168201806040525081019061112c9190613ba4565b60405161113e96959493929190613cb2565b60405180910390a191506115889050565b60008061115a612fd4565b909250905060006111838261117d856108ba611176828e613634565b879061326d565b9061328c565b905060006111a26103e86108ba600c548c61326d90919063ffffffff16565b905060006111c16103e86108ba600c548661326d90919063ffffffff16565b905060006111dd866108ba6111d68e8761328c565b8a9061326d565b9050600084116111ff5760405162461bcd60e51b81526004016106cf90613b77565b8984111561121f5760405162461bcd60e51b81526004016106cf90613b77565b8b8110156112615760405162461bcd60e51b815260206004820152600f60248201526e0494e56414c49445f4d494e545f4c5608c1b60448201526064016106cf565b600760009054906101000a90046001600160a01b03166001600160a01b03166323b872dd33308e6040518463ffffffff1660e01b81526004016112a693929190613c75565b6020604051808303816000875af11580156112c5573d6000803e3d6000fd5b505050506040513d601f19601f820116820180604052508101906112e99190613b00565b506008546040516323b872dd60e01b81526001600160a01b03909116906323b872dd9061131e90339030908990600401613c75565b6020604051808303816000875af115801561133d573d6000803e3d6000fd5b505050506040513d601f19601f820116820180604052508101906113619190613b00565b50600754600d5460405163a9059cbb60e01b81526001600160a01b039283169263a9059cbb92611398929116908790600401613c99565b6020604051808303816000875af11580156113b7573d6000803e3d6000fd5b505050506040513d601f19601f820116820180604052508101906113db9190613b00565b50600854600d5460405163a9059cbb60e01b81526001600160a01b039283169263a9059cbb92611412929116908690600401613c99565b6020604051808303816000875af1158015611431573d6000803e3d6000fd5b505050506040513d601f19601f820116820180604052508101906114559190613b00565b5061146033826137c7565b6007546040516370a0823160e01b81523060048201527f28e12afd967cc11b786f1b1547f5e0da96ccc91ebb09bdd406248111a634e7e591339184918f9189916001600160a01b0316906370a0823190602401602060405180830381865afa1580156114d0573d6000803e3d6000fd5b505050506040513d601f19601f820116820180604052508101906114f49190613ba4565b6008546040516370a0823160e01b81523060048201526001600160a01b03909116906370a0823190602401602060405180830381865afa15801561153c573d6000803e3d6000fd5b505050506040513d601f19601f820116820180604052508101906115609190613ba4565b60405161157296959493929190613cb2565b60405180910390a1965061158895505050505050565b6115926001600655565b949350505050565b600080806115a6612fd4565b600b5491935091506000906115c4906103e8906108ba90889061326d565b905060006115d2868361328c565b90506000610c65828686612a4f565b60008060006115ef60025490565b90506000808260000361160657508490508061166a565b600080611611612fd4565b909250905061162b8261117d836108ba611176828e613634565b9250600061164a6103e86108ba600c548761326d90919063ffffffff16565b9050611664836108ba61165d878561328c565b899061326d565b94505050505b909590945092505050565b600080600061168360025490565b905080841115611691578093505b60008061169c612fd4565b909250905060006116b1846108ba898661326d565b905060006116c3856108ba8a8661326d565b905060006116e26103e86108ba600c548661326d90919063ffffffff16565b905060006117016103e86108ba600c548661326d90919063ffffffff16565b905061170d848361328c565b9350611719838261328c565b939a93995092975050505050505050565b6117326133bc565b610da46000613886565b3332146117d057600a54604051636c9b2a3f60e11b81523360048201526001600160a01b039091169063d936547e90602401602060405180830381865afa15801561178b573d6000803e3d6000fd5b505050506040513d601f19601f820116820180604052508101906117af9190613b00565b15156001146117d05760405162461bcd60e51b81526004016106cf90613b22565b6117d86131c7565b6117e0613214565b428110156118005760405162461bcd60e51b81526004016106cf90613b4d565b6000831161184a5760405162461bcd60e51b81526020600482015260176024820152761253959053125117d3505617d513d2d15397d253941555604a1b60448201526064016106cf565b600082116118905760405162461bcd60e51b81526020600482015260136024820152721253959053125117d09054d157d3d555141555606a1b60448201526064016106cf565b6007546040516370a0823160e01b81523060048201526001600160a01b03909116906370a0823190602401602060405180830381865afa1580156118d8573d6000803e3d6000fd5b505050506040513d601f19601f820116820180604052508101906118fc9190613ba4565b821061191a5760405162461bcd60e51b81526004016106cf90613c2d565b600080611925612fd4565b90925090508184106119495760405162461bcd60e51b81526004016106cf90613be9565b60006119568584846123ae565b905060006119756103e86108ba600b548561326d90919063ffffffff16565b90506119818282613634565b9150868211156119a35760405162461bcd60e51b81526004016106cf90613bbd565b600082116119c35760405162461bcd60e51b81526004016106cf90613b77565b6008546040516370a0823160e01b81523360048201526001600160a01b03909116906370a0823190602401602060405180830381865afa158015611a0b573d6000803e3d6000fd5b505050506040513d601f19601f82011682018060405250810190611a2f9190613ba4565b821115611a7e5760405162461bcd60e51b815260206004820152601f60248201527f544f4b454e5f494e5055545f4849474845525f555345525f42414c414e43450060448201526064016106cf565b6008546040516323b872dd60e01b81526001600160a01b03909116906323b872dd90611ab290339030908790600401613c75565b6020604051808303816000875af1158015611ad1573d6000803e3d6000fd5b505050506040513d601f19601f82011682018060405250810190611af59190613b00565b5060075460405163a9059cbb60e01b81526001600160a01b039091169063a9059cbb90611b289033908a90600401613c99565b6020604051808303816000875af1158015611b47573d6000803e3d6000fd5b505050506040513d601f19601f82011682018060405250810190611b6b9190613b00565b5060085460095460405163a9059cbb60e01b81526001600160a01b039283169263a9059cbb92611ba2929116908590600401613c99565b6020604051808303816000875af1158015611bc1573d6000803e3d6000fd5b505050506040513d601f19601f82011682018060405250810190611be59190613b00565b507ff116a588cdba1b14c04ffd8bca7fee39286e7c8d9da59d77c036430e4b415dbc338884898888604051611c1f96959493929190613cb2565b60405180910390a150505050610b606001600655565b600080333214611ccc57600a54604051636c9b2a3f60e11b81523360048201526001600160a01b039091169063d936547e90602401602060405180830381865afa158015611c87573d6000803e3d6000fd5b505050506040513d601f19601f82011682018060405250810190611cab9190613b00565b1515600114611ccc5760405162461bcd60e51b81526004016106cf90613b22565b611cd4613214565b42831015611cf45760405162461bcd60e51b81526004016106cf90613b4d565b60008611611d385760405162461bcd60e51b81526020600482015260116024820152700494e56414c49445f414d4f554e545f4c5607c1b60448201526064016106cf565b60008511611d825760405162461bcd60e51b81526020600482015260176024820152761253959053125117d3525397d09054d157d3d555141555604a1b60448201526064016106cf565b60008411611dcd5760405162461bcd60e51b81526020600482015260186024820152771253959053125117d3525397d513d2d15397d3d55514155560421b60448201526064016106cf565b6000611dd860025490565b3360009081526020819052604090205490915080881115611df7578097505b81881115611e475760405162461bcd60e51b815260206004820152601e60248201527f494e56414c49445f414d4f554e545f4c505f544f54414c5f535550504c59000060448201526064016106cf565b600080611e52612fd4565b90925090506000611e67856108ba8d8661326d565b90506000611e79866108ba8e8661326d565b90506000611e986103e86108ba600c548661326d90919063ffffffff16565b90506000611eb76103e86108ba600c548661326d90919063ffffffff16565b9050611ec3848361328c565b9350611ecf838261328c565b92508c841015611f175760405162461bcd60e51b81526020600482015260136024820152721253959053125117d09054d157d3d555141555606a1b60448201526064016106cf565b8b831015611f5e5760405162461bcd60e51b81526020600482015260146024820152731253959053125117d513d2d15397d3d55514155560621b60448201526064016106cf565b85841115611fae5760405162461bcd60e51b815260206004820152601f60248201527f424153455f4f55545055545f4849474845525f424153455f42414c414e43450060448201526064016106cf565b848311156120085760405162461bcd60e51b815260206004820152602160248201527f544f4b454e5f4f55545055545f4849474845525f544f4b454e5f42414c414e436044820152604560f81b60648201526084016106cf565b612012338f613695565b60075460405163a9059cbb60e01b81526001600160a01b039091169063a9059cbb906120449033908890600401613c99565b6020604051808303816000875af1158015612063573d6000803e3d6000fd5b505050506040513d601f19601f820116820180604052508101906120879190613b00565b5060085460405163a9059cbb60e01b81526001600160a01b039091169063a9059cbb906120ba9033908790600401613c99565b6020604051808303816000875af11580156120d9573d6000803e3d6000fd5b505050506040513d601f19601f820116820180604052508101906120fd9190613b00565b50600754600d5460405163a9059cbb60e01b81526001600160a01b039283169263a9059cbb92612134929116908690600401613c99565b6020604051808303816000875af1158015612153573d6000803e3d6000fd5b505050506040513d601f19601f820116820180604052508101906121779190613b00565b50600854600d5460405163a9059cbb60e01b81526001600160a01b039283169263a9059cbb926121ae929116908590600401613c99565b6020604051808303816000875af11580156121cd573d6000803e3d6000fd5b505050506040513d601f19601f820116820180604052508101906121f19190613b00565b507f555901717744791e9e27303c0df147d5a5eea5b7098591b2c5f2138ed6a605de338f8686600760009054906101000a90046001600160a01b03166001600160a01b03166370a08231306040518263ffffffff1660e01b815260040161226791906001600160a01b0391909116815260200190565b602060405180830381865afa158015612284573d6000803e3d6000fd5b505050506040513d601f19601f820116820180604052508101906122a89190613ba4565b6008546040516370a0823160e01b81523060048201526001600160a01b03909116906370a0823190602401602060405180830381865afa1580156122f0573d6000803e3d6000fd5b505050506040513d601f19601f820116820180604052508101906123149190613ba4565b60405161232696959493929190613cb2565b60405180910390a150919750955050505050506123436001600655565b94509492505050565b612357823383613416565b6123618282613695565b5050565b61236d6133bc565b610da46138d8565b61237d6133bc565b600d80546001600160a01b0319166001600160a01b0392909216919091179055565b606060048054610b7490613ce5565b600080831180156123bf5750600082115b6123db5760405162461bcd60e51b81526004016106cf90613d1f565b60006123e7838561326d565b905060006123f5858761328c565b90506000610c658561117d8585613280565b600033816124158286612aae565b9050838110156124755760405162461bcd60e51b815260206004820152602560248201527f45524332303a2064656372656173656420616c6c6f77616e63652062656c6f77604482015264207a65726f60d81b60648201526084016106cf565b610d088286868403613298565b600033610c05818585613490565b600080831180156124a15750600082115b6124bd5760405162461bcd60e51b81526004016106cf90613d1f565b60006124c9838561326d565b905060006124d7848761328c565b90506000610c658661117d8585613280565b60008060006124f760025490565b90506000808260000361250e57508490508061166a565b600080612519612fd4565b909250905061253a8161117d846108ba612533828e613634565b869061326d565b925060006125596103e86108ba600c548c61326d90919063ffffffff16565b9050611664836108ba61165d8c8561328c565b33321461260057600a54604051636c9b2a3f60e11b81523360048201526001600160a01b039091169063d936547e90602401602060405180830381865afa1580156125bb573d6000803e3d6000fd5b505050506040513d601f19601f820116820180604052508101906125df9190613b00565b15156001146126005760405162461bcd60e51b81526004016106cf90613b22565b6126086131c7565b612610613214565b428110156126305760405162461bcd60e51b81526004016106cf90613b4d565b600083116126795760405162461bcd60e51b81526020600482015260166024820152751253959053125117d3505617d09054d157d25394155560521b60448201526064016106cf565b600082116126c05760405162461bcd60e51b81526020600482015260146024820152731253959053125117d513d2d15397d3d55514155560621b60448201526064016106cf565b6008546040516370a0823160e01b81523060048201526001600160a01b03909116906370a0823190602401602060405180830381865afa158015612708573d6000803e3d6000fd5b505050506040513d601f19601f8201168201806040525081019061272c9190613ba4565b821061274a5760405162461bcd60e51b81526004016106cf90613d9b565b600080612755612fd4565b90925090508084106127795760405162461bcd60e51b81526004016106cf90613de4565b6000612786858484612490565b905060006127a56103e86108ba600b548561326d90919063ffffffff16565b90506127b18282613634565b9150868211156127d35760405162461bcd60e51b81526004016106cf90613bbd565b600082116127f35760405162461bcd60e51b81526004016106cf90613d6f565b6007546040516370a0823160e01b81523360048201526001600160a01b03909116906370a0823190602401602060405180830381865afa15801561283b573d6000803e3d6000fd5b505050506040513d601f19601f8201168201806040525081019061285f9190613ba4565b8211156128ae5760405162461bcd60e51b815260206004820152601e60248201527f424153455f494e5055545f4849474845525f555345525f42414c414e4345000060448201526064016106cf565b6007546040516323b872dd60e01b81526001600160a01b03909116906323b872dd906128e290339030908790600401613c75565b6020604051808303816000875af1158015612901573d6000803e3d6000fd5b505050506040513d601f19601f820116820180604052508101906129259190613b00565b5060085460405163a9059cbb60e01b81526001600160a01b039091169063a9059cbb906129589033908a90600401613c99565b6020604051808303816000875af1158015612977573d6000803e3d6000fd5b505050506040513d601f19601f8201168201806040525081019061299b9190613b00565b5060075460095460405163a9059cbb60e01b81526001600160a01b039283169263a9059cbb926129d2929116908590600401613c99565b6020604051808303816000875af11580156129f1573d6000803e3d6000fd5b505050506040513d601f19601f82011682018060405250810190612a159190613b00565b507f6e9d5a0202c67970b52b10deb68f1641a9408d90db857bc984d008c1be70383a338884898888604051611c1f96959493929190613cb2565b60008083118015612a605750600082115b612a7c5760405162461bcd60e51b81526004016106cf90613d1f565b6000612a88838561326d565b90506000612a968487613634565b90506000610c65612aa78484613280565b879061328c565b6001600160a01b03918216600090815260016020908152604080832093909416825291909152205490565b333214612b6d57600a54604051636c9b2a3f60e11b81523360048201526001600160a01b039091169063d936547e90602401602060405180830381865afa158015612b28573d6000803e3d6000fd5b505050506040513d601f19601f82011682018060405250810190612b4c9190613b00565b1515600114612b6d5760405162461bcd60e51b81526004016106cf90613b22565b612b756131c7565b612b7d613214565b42811015612b9d5760405162461bcd60e51b81526004016106cf90613b4d565b60008311612bbd5760405162461bcd60e51b81526004016106cf90613d6f565b60008211612c085760405162461bcd60e51b81526020600482015260186024820152771253959053125117d3525397d513d2d15397d3d55514155560421b60448201526064016106cf565b6007546040516370a0823160e01b81523360048201526001600160a01b03909116906370a0823190602401602060405180830381865afa158015612c50573d6000803e3d6000fd5b505050506040513d601f19601f82011682018060405250810190612c749190613ba4565b831115612cc35760405162461bcd60e51b815260206004820152601e60248201527f424153455f494e5055545f4849474845525f555345525f42414c414e4345000060448201526064016106cf565b600080612cce612fd4565b9092509050808410612d2e5760405162461bcd60e51b815260206004820152602360248201527f4d494e5f544f4b454e5f4849474845525f504f4f4c5f544f4b454e5f42414c416044820152624e434560e81b60648201526084016106cf565b6000612d4b6103e86108ba600b548961326d90919063ffffffff16565b90506000612d59878361328c565b90506000612d68828686610d13565b905086811015612d8a5760405162461bcd60e51b81526004016106cf90613bbd565b838110612da95760405162461bcd60e51b81526004016106cf90613de4565b6008546040516370a0823160e01b81523060048201526001600160a01b03909116906370a0823190602401602060405180830381865afa158015612df1573d6000803e3d6000fd5b505050506040513d601f19601f82011682018060405250810190612e159190613ba4565b8110612e335760405162461bcd60e51b81526004016106cf90613d9b565b6007546040516323b872dd60e01b81526001600160a01b03909116906323b872dd90612e6790339030908d90600401613c75565b6020604051808303816000875af1158015612e86573d6000803e3d6000fd5b505050506040513d601f19601f82011682018060405250810190612eaa9190613b00565b5060085460405163a9059cbb60e01b81526001600160a01b039091169063a9059cbb90612edd9033908590600401613c99565b6020604051808303816000875af1158015612efc573d6000803e3d6000fd5b505050506040513d601f19601f82011682018060405250810190612f209190613b00565b5060075460095460405163a9059cbb60e01b81526001600160a01b039283169263a9059cbb92612f57929116908790600401613c99565b6020604051808303816000875af1158015612f76573d6000803e3d6000fd5b505050506040513d601f19601f82011682018060405250810190612f9a9190613b00565b507fd294be030e23d0862312f418541ec01d571908715169f1cb1109bba3212b8c2d33888a848989604051610b4996959493929190613cb2565b6007546040516370a0823160e01b8152306004820152600091829182916001600160a01b0316906370a0823190602401602060405180830381865afa158015613021573d6000803e3d6000fd5b505050506040513d601f19601f820116820180604052508101906130459190613ba4565b6008546040516370a0823160e01b81523060048201529192506000916001600160a01b03909116906370a0823190602401602060405180830381865afa158015613093573d6000803e3d6000fd5b505050506040513d601f19601f820116820180604052508101906130b79190613ba4565b919491935090915050565b6130ca6133bc565b6001600160a01b0381166131125760405162461bcd60e51b815260206004820152600f60248201526e494e56414c49445f4144445245535360881b60448201526064016106cf565b600980546001600160a01b0319166001600160a01b0392909216919091179055565b60008080613140612fd4565b90925090506000611592828461326d565b6131596133bc565b6001600160a01b0381166131be5760405162461bcd60e51b815260206004820152602660248201527f4f776e61626c653a206e6577206f776e657220697320746865207a65726f206160448201526564647265737360d01b60648201526084016106cf565b610db081613886565b600554600160a01b900460ff1615610da45760405162461bcd60e51b815260206004820152601060248201526f14185d5cd8589b194e881c185d5cd95960821b60448201526064016106cf565b6002600654036132665760405162461bcd60e51b815260206004820152601f60248201527f5265656e7472616e637947756172643a207265656e7472616e742063616c6c0060448201526064016106cf565b6002600655565b60006132798284613e2a565b9392505050565b60006132798284613e41565b60006132798284613e63565b6001600160a01b0383166132fa5760405162461bcd60e51b8152602060048201526024808201527f45524332303a20617070726f76652066726f6d20746865207a65726f206164646044820152637265737360e01b60648201526084016106cf565b6001600160a01b03821661335b5760405162461bcd60e51b815260206004820152602260248201527f45524332303a20617070726f766520746f20746865207a65726f206164647265604482015261737360f01b60648201526084016106cf565b6001600160a01b0383811660008181526001602090815260408083209487168084529482529182902085905590518481527f8c5be1e5ebec7d5bd14f71427d1e84f3dd0314c0f7b2291e5b200ac8c7c3b925910160405180910390a3505050565b6005546001600160a01b03163314610da45760405162461bcd60e51b815260206004820181905260248201527f4f776e61626c653a2063616c6c6572206973206e6f7420746865206f776e657260448201526064016106cf565b60006134228484612aae565b9050600019811461348a578181101561347d5760405162461bcd60e51b815260206004820152601d60248201527f45524332303a20696e73756666696369656e7420616c6c6f77616e636500000060448201526064016106cf565b61348a8484848403613298565b50505050565b6001600160a01b0383166134f45760405162461bcd60e51b815260206004820152602560248201527f45524332303a207472616e736665722066726f6d20746865207a65726f206164604482015264647265737360d81b60648201526084016106cf565b6001600160a01b0382166135565760405162461bcd60e51b815260206004820152602360248201527f45524332303a207472616e7366657220746f20746865207a65726f206164647260448201526265737360e81b60648201526084016106cf565b6001600160a01b038316600090815260208190526040902054818110156135ce5760405162461bcd60e51b815260206004820152602660248201527f45524332303a207472616e7366657220616d6f756e7420657863656564732062604482015265616c616e636560d01b60648201526084016106cf565b6001600160a01b03848116600081815260208181526040808320878703905593871680835291849020805487019055925185815290927fddf252ad1be2c89b69c2b068fc378daa952ba7f163c4a11628f55a4df523b3ef910160405180910390a361348a565b60006132798284613d5c565b61364861391b565b6005805460ff60a01b191690557f5db9ee0a495bf2e6ff9c91a7834c1ba4fdd244a5e8aa4e537bd38aeae4b073aa335b6040516001600160a01b03909116815260200160405180910390a1565b6001600160a01b0382166136f55760405162461bcd60e51b815260206004820152602160248201527f45524332303a206275726e2066726f6d20746865207a65726f206164647265736044820152607360f81b60648201526084016106cf565b6001600160a01b038216600090815260208190526040902054818110156137695760405162461bcd60e51b815260206004820152602260248201527f45524332303a206275726e20616d6f756e7420657863656564732062616c616e604482015261636560f01b60648201526084016106cf565b6001600160a01b0383166000818152602081815260408083208686039055600280548790039055518581529192917fddf252ad1be2c89b69c2b068fc378daa952ba7f163c4a11628f55a4df523b3ef910160405180910390a3505050565b6001600160a01b03821661381d5760405162461bcd60e51b815260206004820152601f60248201527f45524332303a206d696e7420746f20746865207a65726f20616464726573730060448201526064016106cf565b806002600082825461382f9190613d5c565b90915550506001600160a01b038216600081815260208181526040808320805486019055518481527fddf252ad1be2c89b69c2b068fc378daa952ba7f163c4a11628f55a4df523b3ef910160405180910390a35050565b600580546001600160a01b038381166001600160a01b0319831681179093556040519116919082907f8be0079c531659141344cd1fd0a4f28419497f9722a3daafe3b4186f6b6457e090600090a35050565b6138e06131c7565b6005805460ff60a01b1916600160a01b1790557f62e78cea01bee320cd4e420270b5ea74000d11b0c9f74754ebdbfc544b05a2586136783390565b600554600160a01b900460ff16610da45760405162461bcd60e51b815260206004820152601460248201527314185d5cd8589b194e881b9bdd081c185d5cd95960621b60448201526064016106cf565b60008060006060848603121561398057600080fd5b505081359360208301359350604090920135919050565b600060208083528351808285015260005b818110156139c4578581018301518582016040015282016139a8565b506000604082860101526040601f19601f8301168501019250505092915050565b80356001600160a01b03811681146139fc57600080fd5b919050565b60008060408385031215613a1457600080fd5b613a1d836139e5565b946020939093013593505050565b600060208284031215613a3d57600080fd5b5035919050565b600060208284031215613a5657600080fd5b613279826139e5565b600080600060608486031215613a7457600080fd5b613a7d846139e5565b9250613a8b602085016139e5565b9150604084013590509250925092565b60008060008060808587031215613ab157600080fd5b5050823594602084013594506040840135936060013592509050565b60008060408385031215613ae057600080fd5b613ae9836139e5565b9150613af7602084016139e5565b90509250929050565b600060208284031215613b1257600080fd5b8151801515811461327957600080fd5b6020808252601190820152701253959053125117d5d2125511531254d5607a1b604082015260600190565b60208082526010908201526f494e56414c49445f444541444c494e4560801b604082015260600190565b6020808252601390820152721253959053125117d513d2d15397d253941555606a1b604082015260600190565b600060208284031215613bb657600080fd5b5051919050565b60208082526012908201527143414e5f4e4f545f4d414b455f545241444560701b604082015260600190565b60208082526024908201527f424153455f4f55545055545f4849474845525f504f4f4c5f424153455f42414c604082015263414e434560e01b606082015260800190565b60208082526028908201527f424153455f4f55545055545f4849474845525f43555252454e545f54524144456040820152675f42414c414e434560c01b606082015260800190565b6001600160a01b039384168152919092166020820152604081019190915260600190565b6001600160a01b03929092168252602082015260400190565b6001600160a01b03969096168652602086019490945260408501929092526060840152608083015260a082015260c00190565b600181811c90821680613cf957607f821691505b602082108103613d1957634e487b7160e01b600052602260045260246000fd5b50919050565b6020808252600d908201526c494e56414c49445f56414c554560981b604082015260600190565b634e487b7160e01b600052601160045260246000fd5b80820180821115610c0b57610c0b613d46565b6020808252601290820152711253959053125117d09054d157d25394155560721b604082015260600190565b60208082526029908201527f544f4b454e5f4f55545055545f4849474845525f43555252454e545f54524144604082015268455f42414c414e434560b81b606082015260800190565b60208082526026908201527f544f4b454e5f4f55545055545f4849474845525f504f4f4c5f544f4b454e5f42604082015265414c414e434560d01b606082015260800190565b8082028115828204841417610c0b57610c0b613d46565b600082613e5e57634e487b7160e01b600052601260045260246000fd5b500490565b81810381811115610c0b57610c0b613d4656fea26469706673582212207c63162c12e21c55ae97cc083b1d904ad7708bbfa4a31cee2f81bdb14bafc0b564736f6c63430008110033",
  "immutableReferences": {},
  "source": "// SPDX-License-Identifier: MIT\npragma solidity >=0.6.12;\n\nimport \"@openzeppelin/contracts/utils/math/SafeMath.sol\";\nimport \"@openzeppelin/contracts/token/ERC20/IERC20.sol\";\nimport \"@openzeppelin/contracts/token/ERC20/ERC20.sol\";\nimport \"@openzeppelin/contracts/token/ERC20/extensions/ERC20Burnable.sol\";\nimport \"@openzeppelin/contracts/utils/Context.sol\";\nimport \"@openzeppelin/contracts/access/Ownable.sol\";\nimport \"@openzeppelin/contracts/security/Pausable.sol\";\nimport \"@openzeppelin/contracts/security/ReentrancyGuard.sol\";\n\nimport './interfaces/IBreezyWhitelist.sol';\n\n\ncontract BreezySwapV1BREWETH is ERC20Burnable, Ownable, Pausable, ReentrancyGuard {\n    \n    using SafeMath for uint256;\n\n    IERC20 public base; // Stable coin base token (WETH)\n    IERC20 public token; // Token to trade in this pair\n\n    // Fee Machine Contract.\n    address public feeMachineContract; \n\n    IBreezyWhitelist public whitelistContract; \n\n    uint256 public TRADE_FEE = 2; //0.2% 2/1000\n\n    uint256 public PLATFORM_FEE = 0; //2.5% 25/1000\n\n    address public platformFundAddress;\n\n    modifier onlyWhitelist()\n    {\n        if (msg.sender != tx.origin) {\n            require(whitelistContract.whitelisted(msg.sender) == true, 'INVALID_WHITELIST');\n        }\n        _;\n    }\n\n\n    // Events\n\n    event onSwapBaseToTokenWithBaseInput(address sender, uint256 minTokenOutput, uint256 baseInputAmount, uint256 tokenOutputAmount, uint256 poolBaseBalance, uint256 poolTokenBalance);\n    event onSwapBaseToTokenWithTokenOutput(address sender, uint256 maxBaseInput, uint256 baseInputAmount, uint256 tokenOutputAmount, uint256 poolBaseBalance, uint256 poolTokenBalance);\n    \n    event onSwapTokenToBaseWithTokenInput(address sender, uint256 minBaseOutput, uint256 tokenInputAmount, uint256 baseOutputAmount, uint256 poolBaseBalance, uint256 poolTokenBalance);\n    event onSwapTokenToBaseWithBaseOutput(address sender, uint256 maxTokenInput, uint256 tokenInputAmount, uint256 baseOutputAmount, uint256 poolBaseBalance, uint256 poolTokenBalance);\n\n    event onAddLP(address sender, uint256 mintLP, uint256 baseInputAmount, uint256 tokenInputAmount, uint256 poolBaseBalance, uint256 poolTokenBalance);\n    event onRemoveLP(address sender, uint256 amountLP, uint256 baseOutputAmout, uint256 tokenOutputAmount, uint256 poolBaseBalance, uint256 poolTokenBalance);\n\n    constructor(\n        IERC20 _base,\n        IERC20 _token,\n        address _feeMachineContract,\n        IBreezyWhitelist _whitelistContract,\n        string memory name, \n        string memory symbol\n        ) ERC20(name, symbol) {\n        base = _base;\n        token = _token;\n        whitelistContract = _whitelistContract;\n        feeMachineContract = _feeMachineContract;\n        platformFundAddress = _msgSender();\n    }\n    \n    function setWhitelistContract(address _whitelistContract) public onlyOwner {\n        require(_whitelistContract != address(0), \"INVALID_ADDRESS\");\n\n        whitelistContract = IBreezyWhitelist(_whitelistContract);\n    }\n\n    function setFeeMachineContract(address _feeMachineContract) public onlyOwner {\n        require(_feeMachineContract != address(0), \"INVALID_ADDRESS\");\n\n        feeMachineContract = _feeMachineContract;\n    }\n\n    function setTradeFee(uint256 _tradeFee) public onlyOwner {\n        TRADE_FEE = _tradeFee;\n    }\n\n    function setPlatformFee(uint256 _platformFee) public onlyOwner {\n        PLATFORM_FEE = _platformFee;\n    }\n\n    function setPlatformFundAdress(address newAddress) public onlyOwner {\n        platformFundAddress = newAddress;\n    }\n\n    function getK() public view returns(uint256) {\n        uint256 baseReserve = 0;\n        uint256 tokenReserve = 0;\n        (baseReserve, tokenReserve) = getTotalReserve();\n        uint256 k = tokenReserve.mul(baseReserve);\n        return k;\n    }\n\n    function getTokenOutput(uint256 baseInputAmount) public view returns (uint256) {\n        uint256 baseReserve = 0;\n        uint256 tokenReserve = 0;\n        (baseReserve, tokenReserve) = getTotalReserve();\n\n        uint256 tradeFee = baseInputAmount.mul(TRADE_FEE).div(1000);\n        uint256 baseInputAmountAfterFee = baseInputAmount.sub(tradeFee); // cut the TRADE_FEE from base input\n\n        uint256 tokenOutputAmount = getTokenOutputAmountFromBaseInput(baseInputAmountAfterFee, baseReserve, tokenReserve);\n        return tokenOutputAmount;\n    }\n\n    function getBaseOutput(uint256 tokenInputAmount) public view returns (uint256) {\n        uint256 baseReserve = 0;\n        uint256 tokenReserve = 0;\n        (baseReserve, tokenReserve) = getTotalReserve();\n\n        uint256 tradeFee = tokenInputAmount.mul(TRADE_FEE).div(1000);\n        uint256 tokenInputAmountAfterFee = tokenInputAmount.sub(tradeFee); // cut the TRADE_FEE from token input\n\n        uint256 baseOutputAmount = getBaseOutputAmountFromTokenInput(tokenInputAmountAfterFee, baseReserve, tokenReserve);\n        return baseOutputAmount;\n    }\n\n    function getDataFromBaseInputToAddLp(uint256 baseInputAmount) public view returns (uint256, uint256) {\n        uint256 totalSupply = totalSupply();\n        uint256 mintLP = 0;\n        uint256 tokenInputAmount = 0;\n        if(totalSupply == 0) {\n            mintLP = baseInputAmount;\n            tokenInputAmount = baseInputAmount;\n        }\n        else { \n            // tokenReserve/baseReserve = (tokenReserve+tokenInputAmount)/(baseReserve+baseInputAmount)\n            // => tokenReserve+tokenInputAmount = tokenReserve*(baseReserve+baseInputAmount)/baseReserve\n            // => tokenInputAmount = tokenReserve*(baseReserve+baseInputAmount)/baseReserve - tokenReserve;\n            uint256 baseReserve = 0;\n            uint256 tokenReserve = 0;\n            (baseReserve, tokenReserve) = getTotalReserve();\n            tokenInputAmount = tokenReserve.mul(baseReserve.add(baseInputAmount)).div(baseReserve).sub(tokenReserve);\n\n            uint256 platformFeeOnBase = baseInputAmount.mul(PLATFORM_FEE).div(1000);\n\n            // mintLP/totalLP =  baseInputAmount/baseReserve\n            // mintLP = totalLP*baseInputAmount/baseReserve\n            mintLP = totalSupply.mul(baseInputAmount.sub(platformFeeOnBase)).div(baseReserve);\n        }\n        return (mintLP, tokenInputAmount);\n    }\n\n    function getDataFromTokenInputToAddLp(uint256 tokenInputAmount) public view returns (uint256, uint256) {\n        uint256 totalSupply = totalSupply();\n        uint256 mintLP;\n        uint256 baseInputAmount;\n        if(totalSupply == 0) {\n            mintLP = tokenInputAmount;\n            baseInputAmount = tokenInputAmount;\n        }\n        else { \n            // tokenReserve/baseReserve = (tokenReserve+tokenInputAmount)/(baseReserve+baseInputAmount)\n            // => (baseReserve+baseInputAmount) = (tokenReserve+tokenInputAmount) * baseReserve / tokenReserve\n            //  => baseInputAmount = (tokenReserve+tokenInputAmount) * baseReserve / tokenReserve - baseReserve\n            uint256 baseReserve = 0;\n            uint256 tokenReserve = 0;\n            (baseReserve, tokenReserve) = getTotalReserve();\n\n            baseInputAmount = baseReserve.mul(tokenReserve.add(tokenInputAmount)).div(tokenReserve).sub(baseReserve);\n\n            uint256 platformFeeOnBase = baseInputAmount.mul(PLATFORM_FEE).div(1000);\n\n            // mintLP/totalLP =  baseInputAmount/baseReserve\n            // mintLP = totalLP*baseInputAmount/baseReserve\n            mintLP = totalSupply.mul(baseInputAmount.sub(platformFeeOnBase)).div(baseReserve);\n        }\n        return (mintLP, baseInputAmount);\n    }\n\n    function getDataToRemoveLP(uint256 amountLP) public view returns (uint256, uint256){\n        \n        uint256 totalSupply = totalSupply();\n\n        if (amountLP > totalSupply) {\n            amountLP = totalSupply;\n        } \n        uint256 baseReserve = 0;\n        uint256 tokenReserve = 0;\n        (baseReserve, tokenReserve) = getTotalReserve();\n        \n        // amountLP/totalSupply = baseOutputAmount/baseReserve\n        // => baseOutputAmount = amountLP*baseReserve/totalSupply\n        uint256 baseOutputAmount = amountLP.mul(baseReserve).div(totalSupply);\n        uint256 tokenOutputAmount = amountLP.mul(tokenReserve).div(totalSupply);\n        \n        uint256 platformFeeOnBase = baseOutputAmount.mul(PLATFORM_FEE).div(1000);\n        uint256 platformFeeOnToken = tokenOutputAmount.mul(PLATFORM_FEE).div(1000);\n        \n        baseOutputAmount = baseOutputAmount.sub(platformFeeOnBase);\n        tokenOutputAmount = tokenOutputAmount.sub(platformFeeOnToken);\n        \n        return (baseOutputAmount, tokenOutputAmount);\n    }\n    \n    // token*base=(token-tokenOutputAmount)*(base+baseInputAmount)\n    //token-tokenOutputAmount = token*base/(base+baseInputAmount)\n    // => tokenOutputAmount=token - token*base/(base+baseInputAmount)\n    function getTokenOutputAmountFromBaseInput(uint256 baseInputAmount, uint256 baseReserve, uint256 tokenReserve) public pure returns (uint256) {\n      require(baseReserve > 0 && tokenReserve > 0, \"INVALID_VALUE\");\n      uint256 numerator = tokenReserve.mul(baseReserve);\n      uint256 denominator = baseReserve.add(baseInputAmount);\n      uint256 tokenOutputAmount = tokenReserve.sub(numerator.div(denominator));\n      return tokenOutputAmount;\n    }\n    \n    // token*base=(token-tokenOutputAmount)*(base+baseInputAmount)\n    // base+baseInputAmount = token*base/(token-tokenOutputAmount)\n    //baseInputAmount = token*base/(token-tokenOutputAmount) - base;\n    function getBaseInputAmountFromTokenOutput(uint256 tokenOutputAmount, uint256 baseReserve, uint256 tokenReserve) public pure  returns (uint256) {\n      require(baseReserve > 0 && tokenReserve > 0, \"INVALID_VALUE\");\n      uint256 numerator = tokenReserve.mul(baseReserve);\n      uint256 denominator = tokenReserve.sub(tokenOutputAmount);\n      uint256 baseInputAmount = numerator.div(denominator).sub(baseReserve);\n      return baseInputAmount;\n    }\n    \n    // token*base=(token+tokenInputAmount)*(base-baseOutputAmount)\n    // => base - baseOutputAmount=token*base/(token+tokenInputAmount)\n    // => baseOutputAmount = base - token*base/(token+tokenInputAmount)\n    function getBaseOutputAmountFromTokenInput(uint256 tokenInputAmount, uint256 baseReserve, uint256 tokenReserve) public pure returns (uint256) {\n      require(baseReserve > 0 && tokenReserve > 0, \"INVALID_VALUE\");\n      uint256 numerator = tokenReserve.mul(baseReserve);\n      uint256 denominator = tokenReserve.add(tokenInputAmount);\n      uint256 baseOutputAmount = baseReserve.sub(numerator.div(denominator));\n      return baseOutputAmount;\n    }\n\n    // token*base=(token+tokenInputAmount)*(base-baseOutputAmount)\n    // => token+tokenInputAmount = token*base/(base-baseOutputAmount)\n    // => tokenInputAmount = token*base/(base-baseOutputAmount) - token\n    function getTokenInputAmountFromBaseOutput(uint256 baseOutputAmount, uint256 baseReserve, uint256 tokenReserve) public pure returns (uint256) {\n      require(baseReserve > 0 && tokenReserve > 0, \"INVALID_VALUE\");\n      uint256 numerator = tokenReserve.mul(baseReserve);\n      uint256 denominator = baseReserve.sub(baseOutputAmount);\n      uint256 tokenInputAmount = numerator.div(denominator).sub(tokenReserve);\n      return tokenInputAmount;\n    }\n\n    function swapBaseToTokenWithBaseInput(uint256 baseInputAmount, uint256 minTokenOutput, uint256 deadline) public onlyWhitelist whenNotPaused nonReentrant {\n        require(deadline >= block.timestamp, 'INVALID_DEADLINE');\n        require(baseInputAmount > 0, 'INVALID_BASE_INPUT');\n        require(minTokenOutput > 0, 'INVALID_MIN_TOKEN_OUTPUT');\n        require(baseInputAmount <= base.balanceOf(msg.sender), 'BASE_INPUT_HIGHER_USER_BALANCE');\n        \n        uint256 baseReserve = 0;\n        uint256 tokenReserve = 0;\n        (baseReserve, tokenReserve) = getTotalReserve();\n        require(minTokenOutput < tokenReserve, \"MIN_TOKEN_HIGHER_POOL_TOKEN_BALANCE\");\n\n        uint256 tradeFee = baseInputAmount.mul(TRADE_FEE).div(1000);\n        uint256 baseInputAmountAfterFee = baseInputAmount.sub(tradeFee); // cut the TRADE_FEE from base input\n        \n        uint256 tokenOutputAmount = getTokenOutputAmountFromBaseInput(baseInputAmountAfterFee, baseReserve, tokenReserve);\n\n        require(tokenOutputAmount >= minTokenOutput, 'CAN_NOT_MAKE_TRADE');\n        require(tokenOutputAmount < tokenReserve, 'TOKEN_OUTPUT_HIGHER_POOL_TOKEN_BALANCE');\n        require(tokenOutputAmount < token.balanceOf(address(this)), 'TOKEN_OUTPUT_HIGHER_CURRENT_TRADE_BALANCE'); // output is higher than the trade contract balance\n        \n        //make trade\n        base.transferFrom(msg.sender, address(this), baseInputAmount);\n        token.transfer(msg.sender, tokenOutputAmount);\n\n        //transfer fee\n        base.transfer(feeMachineContract, tradeFee);\n\n        emit onSwapBaseToTokenWithBaseInput(msg.sender, minTokenOutput, baseInputAmount, tokenOutputAmount, baseReserve, tokenReserve);\n    }\n\n    function swapBaseToTokenWithTokenOutput(uint256 maxBaseInput, uint256 tokenOutputAmount, uint256 deadline) public onlyWhitelist whenNotPaused nonReentrant{\n        require(deadline >= block.timestamp, 'INVALID_DEADLINE');\n        require(maxBaseInput > 0, 'INVALID_MAX_BASE_INPUT');\n        require(tokenOutputAmount > 0, 'INVALID_TOKEN_OUTPUT');\n        require(tokenOutputAmount < token.balanceOf(address(this)), 'TOKEN_OUTPUT_HIGHER_CURRENT_TRADE_BALANCE'); // output is higher than the trade contract balance\n        \n        uint256 baseReserve = 0;\n        uint256 tokenReserve = 0;\n        (baseReserve, tokenReserve) = getTotalReserve();\n        require(tokenOutputAmount < tokenReserve, \"TOKEN_OUTPUT_HIGHER_POOL_TOKEN_BALANCE\");\n\n        uint256 baseInputAmount = getBaseInputAmountFromTokenOutput(tokenOutputAmount, baseReserve, tokenReserve);\n        \n        uint256 tradeFee = baseInputAmount.mul(TRADE_FEE).div(1000);\n        baseInputAmount = baseInputAmount.add(tradeFee); // add the TRADE_FEE to base input\n\n        require(baseInputAmount <= maxBaseInput, 'CAN_NOT_MAKE_TRADE');\n        require(baseInputAmount > 0, 'INVALID_BASE_INPUT');\n        require(baseInputAmount <= base.balanceOf(msg.sender), 'BASE_INPUT_HIGHER_USER_BALANCE');\n        \n        //make trade\n        base.transferFrom(msg.sender, address(this), baseInputAmount);\n        token.transfer(msg.sender, tokenOutputAmount);\n\n        //transfer fee\n        base.transfer(feeMachineContract, tradeFee);\n\n        emit onSwapBaseToTokenWithTokenOutput(msg.sender, maxBaseInput, baseInputAmount, tokenOutputAmount, baseReserve, tokenReserve);\n    }\n\n    function swapTokenToBaseWithTokenInput(uint256 tokenInputAmount, uint256 minBaseOutput, uint256 deadline) public onlyWhitelist whenNotPaused nonReentrant {\n        require(deadline >= block.timestamp, 'INVALID_DEADLINE');\n        require(minBaseOutput > 0, 'INVALID_MIN_BASE_OUTPUT');\n        require(tokenInputAmount > 0, 'INVALID_TOKEN_INPUT');\n        require(tokenInputAmount <= token.balanceOf(msg.sender), 'TOKEN_INPUT_HIGHER_USER_BALANCE');\n\n        uint256 baseReserve = 0;\n        uint256 tokenReserve = 0;\n        (baseReserve, tokenReserve) = getTotalReserve();\n        require(minBaseOutput < baseReserve, 'MIN_BASE_OUTPUT_HIGHER_POOL_BASE_BALANCE');\n\n        uint256 tradeFee = tokenInputAmount.mul(TRADE_FEE).div(1000);\n        uint256 tokenInputAmountAfterFee = tokenInputAmount.sub(tradeFee); // cut the TRADE_FEE from token input\n        \n        uint256 baseOutputAmount = getBaseOutputAmountFromTokenInput(tokenInputAmountAfterFee, baseReserve, tokenReserve);\n\n        require(baseOutputAmount >= minBaseOutput, 'CAN_NOT_MAKE_TRADE');\n        require(baseOutputAmount < baseReserve, 'BASE_OUTPUT_HIGHER_POOL_BASE_BALANCE');\n        require(baseOutputAmount < base.balanceOf(address(this)), 'BASE_OUTPUT_HIGHER_CURRENT_TRADE_BALANCE'); // output is higher than the trade contract balance\n\n        //make trade\n        token.transferFrom(msg.sender, address(this), tokenInputAmount);\n        base.transfer(msg.sender, baseOutputAmount);\n\n        //transfer fee\n        token.transfer(feeMachineContract, tradeFee);\n\n        emit onSwapTokenToBaseWithTokenInput(msg.sender, minBaseOutput, tokenInputAmount, baseOutputAmount, baseReserve, tokenReserve);\n    }\n\n    function swapTokenToBaseWithBaseOutput(uint256 maxTokenInput, uint256 baseOutputAmount, uint256 deadline) public onlyWhitelist whenNotPaused nonReentrant {\n        require(deadline >= block.timestamp, 'INVALID_DEADLINE');\n        require(maxTokenInput > 0, 'INVALID_MAX_TOKEN_INPUT');\n        require(baseOutputAmount > 0, 'INVALID_BASE_OUTPUT');\n        require(baseOutputAmount < base.balanceOf(address(this)), 'BASE_OUTPUT_HIGHER_CURRENT_TRADE_BALANCE'); // output is higher than the trade contract balance\n\n        uint256 baseReserve = 0;\n        uint256 tokenReserve = 0;\n        (baseReserve, tokenReserve) = getTotalReserve();\n        require(baseOutputAmount < baseReserve, 'BASE_OUTPUT_HIGHER_POOL_BASE_BALANCE');\n\n        uint256 tokenInputAmount = getTokenInputAmountFromBaseOutput(baseOutputAmount, baseReserve, tokenReserve);\n        \n        uint256 tradeFee = tokenInputAmount.mul(TRADE_FEE).div(1000);\n        tokenInputAmount = tokenInputAmount.add(tradeFee); // add the TRADE_FEE to token input\n\n        require(tokenInputAmount <= maxTokenInput, 'CAN_NOT_MAKE_TRADE');\n        require(tokenInputAmount > 0, 'INVALID_TOKEN_INPUT');\n        require(tokenInputAmount <= token.balanceOf(msg.sender), 'TOKEN_INPUT_HIGHER_USER_BALANCE');\n\n        //make trade\n        token.transferFrom(msg.sender, address(this), tokenInputAmount);\n        base.transfer(msg.sender, baseOutputAmount);\n\n        //transfer fee\n        token.transfer(feeMachineContract, tradeFee);\n\n        emit onSwapTokenToBaseWithBaseOutput(msg.sender, maxTokenInput, tokenInputAmount, baseOutputAmount, baseReserve, tokenReserve);\n    }\n\n    function addLP(uint256 minLP, uint256 baseInputAmount, uint256 maxTokenInputAmount, uint256 deadline) public onlyWhitelist nonReentrant returns (uint256) {\n        require(deadline >= block.timestamp, 'INVALID_DEADLINE');\n        require(minLP > 0, 'INVALID_MIN_LP');\n        require(baseInputAmount > 0, 'INVALID_BASE_INPUT');\n        require(maxTokenInputAmount > 0, 'INVALID_MAX_TOKEN_INPUT');\n        \n        uint256 totalSupply = totalSupply();\n        if(totalSupply == 0) {\n            base.transferFrom(msg.sender, address(this), baseInputAmount);\n            token.transferFrom(msg.sender, address(this), maxTokenInputAmount);\n            \n            uint256 initLP = baseInputAmount;\n            _mint(msg.sender, initLP);\n            emit onAddLP(msg.sender, initLP, baseInputAmount, maxTokenInputAmount, base.balanceOf(address(this)), token.balanceOf(address(this)));\n            return initLP;\n        }\n        else { \n            // tokenReserve/baseReserve = (tokenReserve+tokenInputAmount)/(baseReserve+baseInputAmount)\n            // => tokenReserve+tokenInputAmount = tokenReserve*(baseReserve+baseInputAmount)/baseReserve\n            // => tokenInputAmount = tokenReserve*(baseReserve+baseInputAmount)/baseReserve - tokenReserve;\n            uint256 baseReserve = 0;\n            uint256 tokenReserve = 0;\n            (baseReserve, tokenReserve) = getTotalReserve();\n            uint256 tokenInputAmount = tokenReserve.mul(baseReserve.add(baseInputAmount)).div(baseReserve).sub(tokenReserve);\n\n            uint256 platformFeeOnBase = baseInputAmount.mul(PLATFORM_FEE).div(1000);\n            uint256 platformFeeOnToken = tokenInputAmount.mul(PLATFORM_FEE).div(1000);\n\n            // mintLP/totalLP =  baseInputAmount/baseReserve\n            // mintLP = totalLP*baseInputAmount/baseReserve\n            uint256 mintLP = totalSupply.mul(baseInputAmount.sub(platformFeeOnBase)).div(baseReserve);\n            \n            require(tokenInputAmount > 0, 'INVALID_TOKEN_INPUT');\n            require(tokenInputAmount <= maxTokenInputAmount, 'INVALID_TOKEN_INPUT');\n            require(mintLP >= minLP, \"INVALID_MINT_LP\");\n\n            base.transferFrom(msg.sender, address(this), baseInputAmount);\n            token.transferFrom(msg.sender, address(this), tokenInputAmount);\n\n            \n            base.transfer(platformFundAddress, platformFeeOnBase);\n            token.transfer(platformFundAddress, platformFeeOnToken);\n\n            _mint(msg.sender, mintLP);\n            emit onAddLP(msg.sender, mintLP, baseInputAmount, tokenInputAmount, base.balanceOf(address(this)), token.balanceOf(address(this)));\n            return mintLP;\n        }\n    }\n\n    function removeLP(uint256 amountLP, uint256 minBaseOutput, uint256 minTokenOutput, uint256 deadline) public onlyWhitelist nonReentrant returns (uint256, uint256) {\n        require(deadline >= block.timestamp, 'INVALID_DEADLINE');\n        require(amountLP > 0, 'INVALID_AMOUNT_LP');\n        require(minBaseOutput > 0, 'INVALID_MIN_BASE_OUTPUT');\n        require(minTokenOutput > 0, 'INVALID_MIN_TOKEN_OUTPUT');\n        \n        uint256 totalSupply = totalSupply();\n        \n        uint256 userLPbalance = balanceOf(msg.sender);\n        if(amountLP > userLPbalance) {\n            amountLP = userLPbalance;\n        }\n\n        require(amountLP <= totalSupply, 'INVALID_AMOUNT_LP_TOTAL_SUPPLY');\n         \n        uint256 baseReserve = 0;\n        uint256 tokenReserve = 0;\n        (baseReserve, tokenReserve) = getTotalReserve();\n        \n        // amountLP/totalSupply = baseOutputAmount/baseReserve\n        // => baseOutputAmount = amountLP*baseReserve/totalSupply\n        uint256 baseOutputAmount = amountLP.mul(baseReserve).div(totalSupply);\n        uint256 tokenOutputAmount = amountLP.mul(tokenReserve).div(totalSupply);\n\n        uint256 platformFeeOnBase = baseOutputAmount.mul(PLATFORM_FEE).div(1000);\n        uint256 platformFeeOnToken = tokenOutputAmount.mul(PLATFORM_FEE).div(1000);\n        \n        baseOutputAmount = baseOutputAmount.sub(platformFeeOnBase);\n        tokenOutputAmount = tokenOutputAmount.sub(platformFeeOnToken);\n\n        require(baseOutputAmount >= minBaseOutput, \"INVALID_BASE_OUTPUT\");\n        require(tokenOutputAmount >= minTokenOutput, \"INVALID_TOKEN_OUTPUT\");\n        require(baseOutputAmount <= baseReserve, \"BASE_OUTPUT_HIGHER_BASE_BALANCE\");\n        require(tokenOutputAmount <= tokenReserve, \"TOKEN_OUTPUT_HIGHER_TOKEN_BALANCE\");\n\n        _burn(msg.sender, amountLP);\n        base.transfer(msg.sender, baseOutputAmount);\n        token.transfer(msg.sender, tokenOutputAmount);\n\n        base.transfer(platformFundAddress, platformFeeOnBase);\n        token.transfer(platformFundAddress, platformFeeOnToken);\n\n        emit onRemoveLP(msg.sender, amountLP, baseOutputAmount, tokenOutputAmount, base.balanceOf(address(this)), token.balanceOf(address(this)));\n        return (baseOutputAmount, tokenOutputAmount);\n    }\n\n    function getTotalReserve() public view returns (uint256, uint256) { \n        uint256 baseReserve = base.balanceOf(address(this));\n        uint256 tokenReserve = token.balanceOf(address(this));\n\n        return (baseReserve, tokenReserve);\n    }\n\n    function pause() public onlyOwner {\n        _pause();\n    }\n    \n    function unpause() public onlyOwner {\n        _unpause();\n    }\n}",
  "sourcePath": "/Applications/projects/breezy-contracts/contracts/BreezySwap/BreezySwapV1BREWETH.sol",
  "compiler": {
    "name": "solc",
    "version": "0.8.17+commit.8df45f5f.Emscripten.clang"
  },
  "schemaVersion": "3.4.13",
  "updatedAt": "2023-08-16T05:06:49.551Z",
  "networkType": "ethereum",
  "devdoc": {
    "kind": "dev",
    "methods": {
      "allowance(address,address)": {
        "details": "See {IERC20-allowance}."
      },
      "approve(address,uint256)": {
        "details": "See {IERC20-approve}. NOTE: If `amount` is the maximum `uint256`, the allowance is not updated on `transferFrom`. This is semantically equivalent to an infinite approval. Requirements: - `spender` cannot be the zero address."
      },
      "balanceOf(address)": {
        "details": "See {IERC20-balanceOf}."
      },
      "burn(uint256)": {
        "details": "Destroys `amount` tokens from the caller. See {ERC20-_burn}."
      },
      "burnFrom(address,uint256)": {
        "details": "Destroys `amount` tokens from `account`, deducting from the caller's allowance. See {ERC20-_burn} and {ERC20-allowance}. Requirements: - the caller must have allowance for ``accounts``'s tokens of at least `amount`."
      },
      "decimals()": {
        "details": "Returns the number of decimals used to get its user representation. For example, if `decimals` equals `2`, a balance of `505` tokens should be displayed to a user as `5.05` (`505 / 10 ** 2`). Tokens usually opt for a value of 18, imitating the relationship between Ether and Wei. This is the default value returned by this function, unless it's overridden. NOTE: This information is only used for _display_ purposes: it in no way affects any of the arithmetic of the contract, including {IERC20-balanceOf} and {IERC20-transfer}."
      },
      "decreaseAllowance(address,uint256)": {
        "details": "Atomically decreases the allowance granted to `spender` by the caller. This is an alternative to {approve} that can be used as a mitigation for problems described in {IERC20-approve}. Emits an {Approval} event indicating the updated allowance. Requirements: - `spender` cannot be the zero address. - `spender` must have allowance for the caller of at least `subtractedValue`."
      },
      "increaseAllowance(address,uint256)": {
        "details": "Atomically increases the allowance granted to `spender` by the caller. This is an alternative to {approve} that can be used as a mitigation for problems described in {IERC20-approve}. Emits an {Approval} event indicating the updated allowance. Requirements: - `spender` cannot be the zero address."
      },
      "name()": {
        "details": "Returns the name of the token."
      },
      "owner()": {
        "details": "Returns the address of the current owner."
      },
      "paused()": {
        "details": "Returns true if the contract is paused, and false otherwise."
      },
      "renounceOwnership()": {
        "details": "Leaves the contract without owner. It will not be possible to call `onlyOwner` functions. Can only be called by the current owner. NOTE: Renouncing ownership will leave the contract without an owner, thereby disabling any functionality that is only available to the owner."
      },
      "symbol()": {
        "details": "Returns the symbol of the token, usually a shorter version of the name."
      },
      "totalSupply()": {
        "details": "See {IERC20-totalSupply}."
      },
      "transfer(address,uint256)": {
        "details": "See {IERC20-transfer}. Requirements: - `to` cannot be the zero address. - the caller must have a balance of at least `amount`."
      },
      "transferFrom(address,address,uint256)": {
        "details": "See {IERC20-transferFrom}. Emits an {Approval} event indicating the updated allowance. This is not required by the EIP. See the note at the beginning of {ERC20}. NOTE: Does not update the allowance if the current allowance is the maximum `uint256`. Requirements: - `from` and `to` cannot be the zero address. - `from` must have a balance of at least `amount`. - the caller must have allowance for ``from``'s tokens of at least `amount`."
      },
      "transferOwnership(address)": {
        "details": "Transfers ownership of the contract to a new account (`newOwner`). Can only be called by the current owner."
      }
    },
    "version": 1
  },
  "userdoc": {
    "kind": "user",
    "methods": {},
    "version": 1
  }
}