{
  "contractName": "BreezyAirdropAndDevFund",
  "abi": [
    {
      "inputs": [],
      "stateMutability": "nonpayable",
      "type": "constructor"
    },
    {
      "anonymous": false,
      "inputs": [
        {
          "indexed": true,
          "internalType": "address",
          "name": "previousOwner",
          "type": "address"
        },
        {
          "indexed": true,
          "internalType": "address",
          "name": "newOwner",
          "type": "address"
        }
      ],
      "name": "OwnershipTransferred",
      "type": "event"
    },
    {
      "inputs": [],
      "name": "fundStartTime",
      "outputs": [
        {
          "internalType": "uint256",
          "name": "",
          "type": "uint256"
        }
      ],
      "stateMutability": "view",
      "type": "function"
    },
    {
      "inputs": [],
      "name": "owner",
      "outputs": [
        {
          "internalType": "address",
          "name": "",
          "type": "address"
        }
      ],
      "stateMutability": "view",
      "type": "function"
    },
    {
      "inputs": [],
      "name": "renounceOwnership",
      "outputs": [],
      "stateMutability": "nonpayable",
      "type": "function"
    },
    {
      "inputs": [
        {
          "internalType": "address",
          "name": "newOwner",
          "type": "address"
        }
      ],
      "name": "transferOwnership",
      "outputs": [],
      "stateMutability": "nonpayable",
      "type": "function"
    },
    {
      "inputs": [
        {
          "internalType": "contract IERC20",
          "name": "token",
          "type": "address"
        }
      ],
      "name": "releaseAirdropAndDevFund",
      "outputs": [],
      "stateMutability": "nonpayable",
      "type": "function"
    }
  ],
  "bytecode": "0x608060405234801561001057600080fd5b5061001a33610023565b42600155610073565b600080546001600160a01b038381166001600160a01b0319831681178455604051919092169283917f8be0079c531659141344cd1fd0a4f28419497f9722a3daafe3b4186f6b6457e09190a35050565b610450806100826000396000f3fe608060405234801561001057600080fd5b50600436106100575760003560e01c8063715018a61461005c5780638b8ea0f4146100665780638da5cb5b14610082578063afc796cf1461009d578063f2fde38b146100b0575b600080fd5b6100646100c3565b005b61006f60015481565b6040519081526020015b60405180910390f35b6000546040516001600160a01b039091168152602001610079565b6100646100ab36600461039a565b6100d7565b6100646100be36600461039a565b61024d565b6100cb6102c6565b6100d56000610320565b565b6100df6102c6565b6001546100ef90624f1a00610370565b4210156101515760405162461bcd60e51b815260206004820152602560248201527f54776f206d6f6e7468206c6f636b20706572696f64206973206e6f74206f76656044820152641c881e595d60da1b60648201526084015b60405180910390fd5b806001600160a01b031663a9059cbb6101726000546001600160a01b031690565b6040516370a0823160e01b81523060048201526001600160a01b038516906370a0823190602401602060405180830381865afa1580156101b6573d6000803e3d6000fd5b505050506040513d601f19601f820116820180604052508101906101da91906103be565b6040516001600160e01b031960e085901b1681526001600160a01b03909216600483015260248201526044016020604051808303816000875af1158015610225573d6000803e3d6000fd5b505050506040513d601f19601f8201168201806040525081019061024991906103d7565b5050565b6102556102c6565b6001600160a01b0381166102ba5760405162461bcd60e51b815260206004820152602660248201527f4f776e61626c653a206e6577206f776e657220697320746865207a65726f206160448201526564647265737360d01b6064820152608401610148565b6102c381610320565b50565b6000546001600160a01b031633146100d55760405162461bcd60e51b815260206004820181905260248201527f4f776e61626c653a2063616c6c6572206973206e6f7420746865206f776e65726044820152606401610148565b600080546001600160a01b038381166001600160a01b0319831681178455604051919092169283917f8be0079c531659141344cd1fd0a4f28419497f9722a3daafe3b4186f6b6457e09190a35050565b600061037c82846103f9565b90505b92915050565b6001600160a01b03811681146102c357600080fd5b6000602082840312156103ac57600080fd5b81356103b781610385565b9392505050565b6000602082840312156103d057600080fd5b5051919050565b6000602082840312156103e957600080fd5b815180151581146103b757600080fd5b8082018082111561037f57634e487b7160e01b600052601160045260246000fdfea26469706673582212206e2d7e8dc5ba9edd9c6bb658c1b97f0ae7b4d23042344c7b1a5e4da6d0e4cc8d64736f6c63430008110033",
  "immutableReferences": {},
  "source": "// SPDX-License-Identifier: MIT\npragma solidity >=0.6.12;\n\nimport \"@openzeppelin/contracts/utils/math/SafeMath.sol\";\nimport \"@openzeppelin/contracts/token/ERC20/IERC20.sol\";\nimport \"@openzeppelin/contracts/access/Ownable.sol\";\n\ncontract BreezyAirdropAndDevFund is Ownable {\n\n    using SafeMath for uint256;\n\n    uint256 public fundStartTime; // time when the contract is deployed\n\n    modifier onlyAfterTwoMonths {\n        require(block.timestamp >= fundStartTime.add(60 days), \"Two month lock period is not over yet\");\n        _;\n    }\n\n    constructor() public {\n        fundStartTime = block.timestamp;\n    }\n\n    function releaseAirdropAndDevFund(IERC20 token) public onlyOwner onlyAfterTwoMonths {\n        token.transfer(owner(), token.balanceOf(address(this)));\n    }\n\n}\n",
  "sourcePath": "/Applications/projects/breezy-contracts/contracts/BreezyAirdropAndDevFund.sol",
  "compiler": {
    "name": "solc",
    "version": "0.8.17+commit.8df45f5f.Emscripten.clang"
  },
  "schemaVersion": "3.4.13",
  "updatedAt": "2023-08-05T09:19:54.755Z",
  "devdoc": {
    "kind": "dev",
    "methods": {
      "owner()": {
        "details": "Returns the address of the current owner."
      },
      "renounceOwnership()": {
        "details": "Leaves the contract without owner. It will not be possible to call `onlyOwner` functions. Can only be called by the current owner. NOTE: Renouncing ownership will leave the contract without an owner, thereby disabling any functionality that is only available to the owner."
      },
      "transferOwnership(address)": {
        "details": "Transfers ownership of the contract to a new account (`newOwner`). Can only be called by the current owner."
      }
    },
    "version": 1
  },
  "userdoc": {
    "kind": "user",
    "methods": {},
    "version": 1
  }
}