{
  "contractName": "BreezySwapV1BREWETH",
  "abi": [
    {
      "inputs": [
        {
          "internalType": "contract IERC20Metadata",
          "name": "_base",
          "type": "address"
        },
        {
          "internalType": "contract IERC20Metadata",
          "name": "_token",
          "type": "address"
        },
        {
          "internalType": "address",
          "name": "_feeMachineContract",
          "type": "address"
        },
        {
          "internalType": "contract IBreezyWhitelist",
          "name": "_whitelistContract",
          "type": "address"
        },
        {
          "internalType": "string",
          "name": "name",
          "type": "string"
        },
        {
          "internalType": "string",
          "name": "symbol",
          "type": "string"
        }
      ],
      "stateMutability": "nonpayable",
      "type": "constructor"
    },
    {
      "anonymous": false,
      "inputs": [
        {
          "indexed": true,
          "internalType": "address",
          "name": "owner",
          "type": "address"
        },
        {
          "indexed": true,
          "internalType": "address",
          "name": "spender",
          "type": "address"
        },
        {
          "indexed": false,
          "internalType": "uint256",
          "name": "value",
          "type": "uint256"
        }
      ],
      "name": "Approval",
      "type": "event"
    },
    {
      "anonymous": false,
      "inputs": [
        {
          "indexed": true,
          "internalType": "address",
          "name": "previousOwner",
          "type": "address"
        },
        {
          "indexed": true,
          "internalType": "address",
          "name": "newOwner",
          "type": "address"
        }
      ],
      "name": "OwnershipTransferred",
      "type": "event"
    },
    {
      "anonymous": false,
      "inputs": [
        {
          "indexed": false,
          "internalType": "address",
          "name": "account",
          "type": "address"
        }
      ],
      "name": "Paused",
      "type": "event"
    },
    {
      "anonymous": false,
      "inputs": [
        {
          "indexed": true,
          "internalType": "address",
          "name": "from",
          "type": "address"
        },
        {
          "indexed": true,
          "internalType": "address",
          "name": "to",
          "type": "address"
        },
        {
          "indexed": false,
          "internalType": "uint256",
          "name": "value",
          "type": "uint256"
        }
      ],
      "name": "Transfer",
      "type": "event"
    },
    {
      "anonymous": false,
      "inputs": [
        {
          "indexed": false,
          "internalType": "address",
          "name": "account",
          "type": "address"
        }
      ],
      "name": "Unpaused",
      "type": "event"
    },
    {
      "anonymous": false,
      "inputs": [
        {
          "indexed": false,
          "internalType": "address",
          "name": "sender",
          "type": "address"
        },
        {
          "indexed": false,
          "internalType": "uint256",
          "name": "mintLP",
          "type": "uint256"
        },
        {
          "indexed": false,
          "internalType": "uint256",
          "name": "baseInputAmount",
          "type": "uint256"
        },
        {
          "indexed": false,
          "internalType": "uint256",
          "name": "tokenInputAmount",
          "type": "uint256"
        },
        {
          "indexed": false,
          "internalType": "uint256",
          "name": "poolBaseBalance",
          "type": "uint256"
        },
        {
          "indexed": false,
          "internalType": "uint256",
          "name": "poolTokenBalance",
          "type": "uint256"
        }
      ],
      "name": "onAddLP",
      "type": "event"
    },
    {
      "anonymous": false,
      "inputs": [
        {
          "indexed": false,
          "internalType": "address",
          "name": "sender",
          "type": "address"
        },
        {
          "indexed": false,
          "internalType": "uint256",
          "name": "amountLP",
          "type": "uint256"
        },
        {
          "indexed": false,
          "internalType": "uint256",
          "name": "baseOutputAmout",
          "type": "uint256"
        },
        {
          "indexed": false,
          "internalType": "uint256",
          "name": "tokenOutputAmount",
          "type": "uint256"
        },
        {
          "indexed": false,
          "internalType": "uint256",
          "name": "poolBaseBalance",
          "type": "uint256"
        },
        {
          "indexed": false,
          "internalType": "uint256",
          "name": "poolTokenBalance",
          "type": "uint256"
        }
      ],
      "name": "onRemoveLP",
      "type": "event"
    },
    {
      "anonymous": false,
      "inputs": [
        {
          "indexed": false,
          "internalType": "address",
          "name": "sender",
          "type": "address"
        },
        {
          "indexed": false,
          "internalType": "uint256",
          "name": "minTokenOutput",
          "type": "uint256"
        },
        {
          "indexed": false,
          "internalType": "uint256",
          "name": "baseInputAmount",
          "type": "uint256"
        },
        {
          "indexed": false,
          "internalType": "uint256",
          "name": "tokenOutputAmount",
          "type": "uint256"
        },
        {
          "indexed": false,
          "internalType": "uint256",
          "name": "poolBaseBalance",
          "type": "uint256"
        },
        {
          "indexed": false,
          "internalType": "uint256",
          "name": "poolTokenBalance",
          "type": "uint256"
        }
      ],
      "name": "onSwapBaseToTokenWithBaseInput",
      "type": "event"
    },
    {
      "anonymous": false,
      "inputs": [
        {
          "indexed": false,
          "internalType": "address",
          "name": "sender",
          "type": "address"
        },
        {
          "indexed": false,
          "internalType": "uint256",
          "name": "maxBaseInput",
          "type": "uint256"
        },
        {
          "indexed": false,
          "internalType": "uint256",
          "name": "baseInputAmount",
          "type": "uint256"
        },
        {
          "indexed": false,
          "internalType": "uint256",
          "name": "tokenOutputAmount",
          "type": "uint256"
        },
        {
          "indexed": false,
          "internalType": "uint256",
          "name": "poolBaseBalance",
          "type": "uint256"
        },
        {
          "indexed": false,
          "internalType": "uint256",
          "name": "poolTokenBalance",
          "type": "uint256"
        }
      ],
      "name": "onSwapBaseToTokenWithTokenOutput",
      "type": "event"
    },
    {
      "anonymous": false,
      "inputs": [
        {
          "indexed": false,
          "internalType": "address",
          "name": "sender",
          "type": "address"
        },
        {
          "indexed": false,
          "internalType": "uint256",
          "name": "maxTokenInput",
          "type": "uint256"
        },
        {
          "indexed": false,
          "internalType": "uint256",
          "name": "tokenInputAmount",
          "type": "uint256"
        },
        {
          "indexed": false,
          "internalType": "uint256",
          "name": "baseOutputAmount",
          "type": "uint256"
        },
        {
          "indexed": false,
          "internalType": "uint256",
          "name": "poolBaseBalance",
          "type": "uint256"
        },
        {
          "indexed": false,
          "internalType": "uint256",
          "name": "poolTokenBalance",
          "type": "uint256"
        }
      ],
      "name": "onSwapTokenToBaseWithBaseOutput",
      "type": "event"
    },
    {
      "anonymous": false,
      "inputs": [
        {
          "indexed": false,
          "internalType": "address",
          "name": "sender",
          "type": "address"
        },
        {
          "indexed": false,
          "internalType": "uint256",
          "name": "minBaseOutput",
          "type": "uint256"
        },
        {
          "indexed": false,
          "internalType": "uint256",
          "name": "tokenInputAmount",
          "type": "uint256"
        },
        {
          "indexed": false,
          "internalType": "uint256",
          "name": "baseOutputAmount",
          "type": "uint256"
        },
        {
          "indexed": false,
          "internalType": "uint256",
          "name": "poolBaseBalance",
          "type": "uint256"
        },
        {
          "indexed": false,
          "internalType": "uint256",
          "name": "poolTokenBalance",
          "type": "uint256"
        }
      ],
      "name": "onSwapTokenToBaseWithTokenInput",
      "type": "event"
    },
    {
      "inputs": [],
      "name": "TRADE_FEE",
      "outputs": [
        {
          "internalType": "uint256",
          "name": "",
          "type": "uint256"
        }
      ],
      "stateMutability": "view",
      "type": "function"
    },
    {
      "inputs": [
        {
          "internalType": "address",
          "name": "owner",
          "type": "address"
        },
        {
          "internalType": "address",
          "name": "spender",
          "type": "address"
        }
      ],
      "name": "allowance",
      "outputs": [
        {
          "internalType": "uint256",
          "name": "",
          "type": "uint256"
        }
      ],
      "stateMutability": "view",
      "type": "function"
    },
    {
      "inputs": [
        {
          "internalType": "address",
          "name": "spender",
          "type": "address"
        },
        {
          "internalType": "uint256",
          "name": "amount",
          "type": "uint256"
        }
      ],
      "name": "approve",
      "outputs": [
        {
          "internalType": "bool",
          "name": "",
          "type": "bool"
        }
      ],
      "stateMutability": "nonpayable",
      "type": "function"
    },
    {
      "inputs": [
        {
          "internalType": "address",
          "name": "account",
          "type": "address"
        }
      ],
      "name": "balanceOf",
      "outputs": [
        {
          "internalType": "uint256",
          "name": "",
          "type": "uint256"
        }
      ],
      "stateMutability": "view",
      "type": "function"
    },
    {
      "inputs": [],
      "name": "base",
      "outputs": [
        {
          "internalType": "contract IERC20Metadata",
          "name": "",
          "type": "address"
        }
      ],
      "stateMutability": "view",
      "type": "function"
    },
    {
      "inputs": [],
      "name": "baseDecimals",
      "outputs": [
        {
          "internalType": "uint8",
          "name": "",
          "type": "uint8"
        }
      ],
      "stateMutability": "view",
      "type": "function"
    },
    {
      "inputs": [
        {
          "internalType": "uint256",
          "name": "amount",
          "type": "uint256"
        }
      ],
      "name": "burn",
      "outputs": [],
      "stateMutability": "nonpayable",
      "type": "function"
    },
    {
      "inputs": [
        {
          "internalType": "address",
          "name": "account",
          "type": "address"
        },
        {
          "internalType": "uint256",
          "name": "amount",
          "type": "uint256"
        }
      ],
      "name": "burnFrom",
      "outputs": [],
      "stateMutability": "nonpayable",
      "type": "function"
    },
    {
      "inputs": [],
      "name": "decimals",
      "outputs": [
        {
          "internalType": "uint8",
          "name": "",
          "type": "uint8"
        }
      ],
      "stateMutability": "view",
      "type": "function"
    },
    {
      "inputs": [
        {
          "internalType": "address",
          "name": "spender",
          "type": "address"
        },
        {
          "internalType": "uint256",
          "name": "subtractedValue",
          "type": "uint256"
        }
      ],
      "name": "decreaseAllowance",
      "outputs": [
        {
          "internalType": "bool",
          "name": "",
          "type": "bool"
        }
      ],
      "stateMutability": "nonpayable",
      "type": "function"
    },
    {
      "inputs": [],
      "name": "feeMachineContract",
      "outputs": [
        {
          "internalType": "address",
          "name": "",
          "type": "address"
        }
      ],
      "stateMutability": "view",
      "type": "function"
    },
    {
      "inputs": [
        {
          "internalType": "address",
          "name": "spender",
          "type": "address"
        },
        {
          "internalType": "uint256",
          "name": "addedValue",
          "type": "uint256"
        }
      ],
      "name": "increaseAllowance",
      "outputs": [
        {
          "internalType": "bool",
          "name": "",
          "type": "bool"
        }
      ],
      "stateMutability": "nonpayable",
      "type": "function"
    },
    {
      "inputs": [],
      "name": "name",
      "outputs": [
        {
          "internalType": "string",
          "name": "",
          "type": "string"
        }
      ],
      "stateMutability": "view",
      "type": "function"
    },
    {
      "inputs": [],
      "name": "owner",
      "outputs": [
        {
          "internalType": "address",
          "name": "",
          "type": "address"
        }
      ],
      "stateMutability": "view",
      "type": "function"
    },
    {
      "inputs": [],
      "name": "paused",
      "outputs": [
        {
          "internalType": "bool",
          "name": "",
          "type": "bool"
        }
      ],
      "stateMutability": "view",
      "type": "function"
    },
    {
      "inputs": [],
      "name": "platformFundAddress",
      "outputs": [
        {
          "internalType": "address",
          "name": "",
          "type": "address"
        }
      ],
      "stateMutability": "view",
      "type": "function"
    },
    {
      "inputs": [],
      "name": "renounceOwnership",
      "outputs": [],
      "stateMutability": "nonpayable",
      "type": "function"
    },
    {
      "inputs": [],
      "name": "symbol",
      "outputs": [
        {
          "internalType": "string",
          "name": "",
          "type": "string"
        }
      ],
      "stateMutability": "view",
      "type": "function"
    },
    {
      "inputs": [],
      "name": "token",
      "outputs": [
        {
          "internalType": "contract IERC20Metadata",
          "name": "",
          "type": "address"
        }
      ],
      "stateMutability": "view",
      "type": "function"
    },
    {
      "inputs": [],
      "name": "tokenDecimals",
      "outputs": [
        {
          "internalType": "uint8",
          "name": "",
          "type": "uint8"
        }
      ],
      "stateMutability": "view",
      "type": "function"
    },
    {
      "inputs": [],
      "name": "totalSupply",
      "outputs": [
        {
          "internalType": "uint256",
          "name": "",
          "type": "uint256"
        }
      ],
      "stateMutability": "view",
      "type": "function"
    },
    {
      "inputs": [
        {
          "internalType": "address",
          "name": "to",
          "type": "address"
        },
        {
          "internalType": "uint256",
          "name": "amount",
          "type": "uint256"
        }
      ],
      "name": "transfer",
      "outputs": [
        {
          "internalType": "bool",
          "name": "",
          "type": "bool"
        }
      ],
      "stateMutability": "nonpayable",
      "type": "function"
    },
    {
      "inputs": [
        {
          "internalType": "address",
          "name": "from",
          "type": "address"
        },
        {
          "internalType": "address",
          "name": "to",
          "type": "address"
        },
        {
          "internalType": "uint256",
          "name": "amount",
          "type": "uint256"
        }
      ],
      "name": "transferFrom",
      "outputs": [
        {
          "internalType": "bool",
          "name": "",
          "type": "bool"
        }
      ],
      "stateMutability": "nonpayable",
      "type": "function"
    },
    {
      "inputs": [
        {
          "internalType": "address",
          "name": "newOwner",
          "type": "address"
        }
      ],
      "name": "transferOwnership",
      "outputs": [],
      "stateMutability": "nonpayable",
      "type": "function"
    },
    {
      "inputs": [],
      "name": "whitelistContract",
      "outputs": [
        {
          "internalType": "contract IBreezyWhitelist",
          "name": "",
          "type": "address"
        }
      ],
      "stateMutability": "view",
      "type": "function"
    },
    {
      "inputs": [
        {
          "internalType": "address",
          "name": "_whitelistContract",
          "type": "address"
        }
      ],
      "name": "setWhitelistContract",
      "outputs": [],
      "stateMutability": "nonpayable",
      "type": "function"
    },
    {
      "inputs": [
        {
          "internalType": "address",
          "name": "_feeMachineContract",
          "type": "address"
        }
      ],
      "name": "setFeeMachineContract",
      "outputs": [],
      "stateMutability": "nonpayable",
      "type": "function"
    },
    {
      "inputs": [
        {
          "internalType": "uint256",
          "name": "_tradeFee",
          "type": "uint256"
        }
      ],
      "name": "setTradeFee",
      "outputs": [],
      "stateMutability": "nonpayable",
      "type": "function"
    },
    {
      "inputs": [
        {
          "internalType": "address",
          "name": "newAddress",
          "type": "address"
        }
      ],
      "name": "setPlatformFundAdress",
      "outputs": [],
      "stateMutability": "nonpayable",
      "type": "function"
    },
    {
      "inputs": [],
      "name": "getK",
      "outputs": [
        {
          "internalType": "uint256",
          "name": "",
          "type": "uint256"
        }
      ],
      "stateMutability": "view",
      "type": "function"
    },
    {
      "inputs": [
        {
          "internalType": "uint256",
          "name": "baseInputAmount",
          "type": "uint256"
        }
      ],
      "name": "getTokenOutput",
      "outputs": [
        {
          "internalType": "uint256",
          "name": "",
          "type": "uint256"
        }
      ],
      "stateMutability": "view",
      "type": "function"
    },
    {
      "inputs": [
        {
          "internalType": "uint256",
          "name": "tokenInputAmount",
          "type": "uint256"
        }
      ],
      "name": "getBaseOutput",
      "outputs": [
        {
          "internalType": "uint256",
          "name": "",
          "type": "uint256"
        }
      ],
      "stateMutability": "view",
      "type": "function"
    },
    {
      "inputs": [
        {
          "internalType": "uint256",
          "name": "baseInputAmount",
          "type": "uint256"
        }
      ],
      "name": "getDataFromBaseInputToAddLp",
      "outputs": [
        {
          "internalType": "uint256",
          "name": "",
          "type": "uint256"
        },
        {
          "internalType": "uint256",
          "name": "",
          "type": "uint256"
        }
      ],
      "stateMutability": "view",
      "type": "function"
    },
    {
      "inputs": [
        {
          "internalType": "uint256",
          "name": "tokenInputAmount",
          "type": "uint256"
        }
      ],
      "name": "getDataFromTokenInputToAddLp",
      "outputs": [
        {
          "internalType": "uint256",
          "name": "",
          "type": "uint256"
        },
        {
          "internalType": "uint256",
          "name": "",
          "type": "uint256"
        }
      ],
      "stateMutability": "view",
      "type": "function"
    },
    {
      "inputs": [
        {
          "internalType": "uint256",
          "name": "amountLP",
          "type": "uint256"
        }
      ],
      "name": "getDataToRemoveLP",
      "outputs": [
        {
          "internalType": "uint256",
          "name": "",
          "type": "uint256"
        },
        {
          "internalType": "uint256",
          "name": "",
          "type": "uint256"
        }
      ],
      "stateMutability": "view",
      "type": "function"
    },
    {
      "inputs": [
        {
          "internalType": "uint256",
          "name": "baseInputAmount",
          "type": "uint256"
        },
        {
          "internalType": "uint256",
          "name": "baseReserve",
          "type": "uint256"
        },
        {
          "internalType": "uint256",
          "name": "tokenReserve",
          "type": "uint256"
        }
      ],
      "name": "getTokenOutputAmountFromBaseInput",
      "outputs": [
        {
          "internalType": "uint256",
          "name": "",
          "type": "uint256"
        }
      ],
      "stateMutability": "pure",
      "type": "function"
    },
    {
      "inputs": [
        {
          "internalType": "uint256",
          "name": "tokenOutputAmount",
          "type": "uint256"
        },
        {
          "internalType": "uint256",
          "name": "baseReserve",
          "type": "uint256"
        },
        {
          "internalType": "uint256",
          "name": "tokenReserve",
          "type": "uint256"
        }
      ],
      "name": "getBaseInputAmountFromTokenOutput",
      "outputs": [
        {
          "internalType": "uint256",
          "name": "",
          "type": "uint256"
        }
      ],
      "stateMutability": "pure",
      "type": "function"
    },
    {
      "inputs": [
        {
          "internalType": "uint256",
          "name": "tokenInputAmount",
          "type": "uint256"
        },
        {
          "internalType": "uint256",
          "name": "baseReserve",
          "type": "uint256"
        },
        {
          "internalType": "uint256",
          "name": "tokenReserve",
          "type": "uint256"
        }
      ],
      "name": "getBaseOutputAmountFromTokenInput",
      "outputs": [
        {
          "internalType": "uint256",
          "name": "",
          "type": "uint256"
        }
      ],
      "stateMutability": "pure",
      "type": "function"
    },
    {
      "inputs": [
        {
          "internalType": "uint256",
          "name": "baseOutputAmount",
          "type": "uint256"
        },
        {
          "internalType": "uint256",
          "name": "baseReserve",
          "type": "uint256"
        },
        {
          "internalType": "uint256",
          "name": "tokenReserve",
          "type": "uint256"
        }
      ],
      "name": "getTokenInputAmountFromBaseOutput",
      "outputs": [
        {
          "internalType": "uint256",
          "name": "",
          "type": "uint256"
        }
      ],
      "stateMutability": "pure",
      "type": "function"
    },
    {
      "inputs": [
        {
          "internalType": "uint256",
          "name": "baseInputAmount",
          "type": "uint256"
        },
        {
          "internalType": "uint256",
          "name": "minTokenOutput",
          "type": "uint256"
        },
        {
          "internalType": "uint256",
          "name": "deadline",
          "type": "uint256"
        }
      ],
      "name": "swapBaseToTokenWithBaseInput",
      "outputs": [],
      "stateMutability": "nonpayable",
      "type": "function"
    },
    {
      "inputs": [
        {
          "internalType": "uint256",
          "name": "maxBaseInput",
          "type": "uint256"
        },
        {
          "internalType": "uint256",
          "name": "tokenOutputAmount",
          "type": "uint256"
        },
        {
          "internalType": "uint256",
          "name": "deadline",
          "type": "uint256"
        }
      ],
      "name": "swapBaseToTokenWithTokenOutput",
      "outputs": [],
      "stateMutability": "nonpayable",
      "type": "function"
    },
    {
      "inputs": [
        {
          "internalType": "uint256",
          "name": "tokenInputAmount",
          "type": "uint256"
        },
        {
          "internalType": "uint256",
          "name": "minBaseOutput",
          "type": "uint256"
        },
        {
          "internalType": "uint256",
          "name": "deadline",
          "type": "uint256"
        }
      ],
      "name": "swapTokenToBaseWithTokenInput",
      "outputs": [],
      "stateMutability": "nonpayable",
      "type": "function"
    },
    {
      "inputs": [
        {
          "internalType": "uint256",
          "name": "maxTokenInput",
          "type": "uint256"
        },
        {
          "internalType": "uint256",
          "name": "baseOutputAmount",
          "type": "uint256"
        },
        {
          "internalType": "uint256",
          "name": "deadline",
          "type": "uint256"
        }
      ],
      "name": "swapTokenToBaseWithBaseOutput",
      "outputs": [],
      "stateMutability": "nonpayable",
      "type": "function"
    },
    {
      "inputs": [
        {
          "internalType": "uint256",
          "name": "minLP",
          "type": "uint256"
        },
        {
          "internalType": "uint256",
          "name": "baseInputAmount",
          "type": "uint256"
        },
        {
          "internalType": "uint256",
          "name": "maxTokenInputAmount",
          "type": "uint256"
        },
        {
          "internalType": "uint256",
          "name": "deadline",
          "type": "uint256"
        }
      ],
      "name": "addLP",
      "outputs": [
        {
          "internalType": "uint256",
          "name": "",
          "type": "uint256"
        }
      ],
      "stateMutability": "nonpayable",
      "type": "function"
    },
    {
      "inputs": [
        {
          "internalType": "uint256",
          "name": "amountLP",
          "type": "uint256"
        },
        {
          "internalType": "uint256",
          "name": "minBaseOutput",
          "type": "uint256"
        },
        {
          "internalType": "uint256",
          "name": "minTokenOutput",
          "type": "uint256"
        },
        {
          "internalType": "uint256",
          "name": "deadline",
          "type": "uint256"
        }
      ],
      "name": "removeLP",
      "outputs": [
        {
          "internalType": "uint256",
          "name": "",
          "type": "uint256"
        },
        {
          "internalType": "uint256",
          "name": "",
          "type": "uint256"
        }
      ],
      "stateMutability": "nonpayable",
      "type": "function"
    },
    {
      "inputs": [],
      "name": "getTotalReserve",
      "outputs": [
        {
          "internalType": "uint256",
          "name": "",
          "type": "uint256"
        },
        {
          "internalType": "uint256",
          "name": "",
          "type": "uint256"
        }
      ],
      "stateMutability": "view",
      "type": "function"
    },
    {
      "inputs": [],
      "name": "pause",
      "outputs": [],
      "stateMutability": "nonpayable",
      "type": "function"
    },
    {
      "inputs": [],
      "name": "unpause",
      "outputs": [],
      "stateMutability": "nonpayable",
      "type": "function"
    }
  ],
  "bytecode": "0x60806040526002600b553480156200001657600080fd5b5060405162004c4038038062004c4083398101604081905262000039916200032c565b818160036200004983826200047a565b5060046200005882826200047a565b505050620000756200006f620001f860201b60201c565b620001fc565b6005805460ff60a01b191690556001600655600780546001600160a01b038881166001600160a01b0319928316811790935560088054898316908416179055600a805487831690841617905560098054918816918316919091179055600c8054909116331790556040805163313ce56760e01b8152905163313ce567916004808201926020929091908290030181865afa15801562000118573d6000803e3d6000fd5b505050506040513d601f19601f820116820180604052508101906200013e919062000546565b600860146101000a81548160ff021916908360ff160217905550600860009054906101000a90046001600160a01b03166001600160a01b031663313ce5676040518163ffffffff1660e01b8152600401602060405180830381865afa158015620001ac573d6000803e3d6000fd5b505050506040513d601f19601f82011682018060405250810190620001d2919062000546565b600860156101000a81548160ff021916908360ff16021790555050505050505062000572565b3390565b600580546001600160a01b038381166001600160a01b0319831681179093556040519116919082907f8be0079c531659141344cd1fd0a4f28419497f9722a3daafe3b4186f6b6457e090600090a35050565b6001600160a01b03811681146200026457600080fd5b50565b634e487b7160e01b600052604160045260246000fd5b600082601f8301126200028f57600080fd5b81516001600160401b0380821115620002ac57620002ac62000267565b604051601f8301601f19908116603f01168101908282118183101715620002d757620002d762000267565b81604052838152602092508683858801011115620002f457600080fd5b600091505b83821015620003185785820183015181830184015290820190620002f9565b600093810190920192909252949350505050565b60008060008060008060c087890312156200034657600080fd5b865162000353816200024e565b602088015190965062000366816200024e565b604088015190955062000379816200024e565b60608801519094506200038c816200024e565b60808801519093506001600160401b0380821115620003aa57600080fd5b620003b88a838b016200027d565b935060a0890151915080821115620003cf57600080fd5b50620003de89828a016200027d565b9150509295509295509295565b600181811c908216806200040057607f821691505b6020821081036200042157634e487b7160e01b600052602260045260246000fd5b50919050565b601f8211156200047557600081815260208120601f850160051c81016020861015620004505750805b601f850160051c820191505b8181101562000471578281556001016200045c565b5050505b505050565b81516001600160401b0381111562000496576200049662000267565b620004ae81620004a78454620003eb565b8462000427565b602080601f831160018114620004e65760008415620004cd5750858301515b600019600386901b1c1916600185901b17855562000471565b600085815260208120601f198616915b828110156200051757888601518255948401946001909101908401620004f6565b5085821015620005365787850151600019600388901b60f8161c191681555b5050505050600190811b01905550565b6000602082840312156200055957600080fd5b815160ff811681146200056b57600080fd5b9392505050565b6146be80620005826000396000f3fe608060405234801561001057600080fd5b50600436106102a05760003560e01c806373dd25a311610167578063b7c3ba45116100ce578063e50a38d711610087578063e50a38d7146105f1578063ec02291814610604578063ed3856251461060c578063ee39e7a01461061f578063f2fde38b14610627578063fc0c546a1461063a57600080fd5b8063b7c3ba4514610589578063c6e842fc1461059c578063d0e9de6c146105af578063d1322962146105c2578063dbcfbf2f146105cb578063dd62ed3e146105de57600080fd5b80638fe6041d116101205780638fe6041d1461052257806395d89b411461053557806397bb21c61461053d5780639fa5e63e14610550578063a457c2d714610563578063a9059cbb1461057657600080fd5b806373dd25a3146104bd57806376125deb146104d057806379cc6790146104e35780638456cb59146104f657806384900b04146104fe5780638da5cb5b1461051157600080fd5b80633b97e8561161020b57806360b1765c116101c457806360b1765c1461042b578063635f95ff1461043e5780636662d1771461045157806370a0823114610479578063711f6142146104a2578063715018a6146104b557600080fd5b80633b97e856146103ac5780633f4ba83a146103c057806342966c68146103c857806342eba2ce146103db5780635001f3b5146104065780635c975abb1461041957600080fd5b806318160ddd1161025d57806318160ddd1461034257806323b872dd1461034a5780632916bc101461035d578063313ce5671461037057806333f7617814610385578063395093511461039957600080fd5b806303bf04c1146102a557806306fdde03146102ba578063095ea7b3146102d857806310603023146102fb57806311fbded31461030e57806312f261401461032f575b600080fd5b6102b86102b3366004614074565b61064d565b005b6102c2610dd3565b6040516102cf91906140a0565b60405180910390f35b6102eb6102e636600461410a565b610e65565b60405190151581526020016102cf565b6102b8610309366004614134565b610e7f565b61032161031c366004614134565b610e8c565b6040519081526020016102cf565b6102b861033d36600461414d565b610f87565b600254610321565b6102eb610358366004614168565b610ff9565b61032161036b366004614074565b61101d565b60125b60405160ff90911681526020016102cf565b60085461037390600160a01b900460ff1681565b6102eb6103a736600461410a565b61107c565b60085461037390600160a81b900460ff1681565b6102b861109e565b6102b86103d6366004614134565b6110b0565b6009546103ee906001600160a01b031681565b6040516001600160a01b0390911681526020016102cf565b6007546103ee906001600160a01b031681565b600554600160a01b900460ff166102eb565b6103216104393660046141a4565b6110bd565b61032161044c366004614134565b611866565b61046461045f366004614134565b61192c565b604080519283526020830191909152016102cf565b61032161048736600461414d565b6001600160a01b031660009081526020819052604090205490565b6104646104b0366004614134565b611a36565b6102b8611b0a565b6102b86104cb366004614074565b611b1c565b6104646104de3660046141a4565b61215c565b6102b86104f136600461410a565b6127e9565b6102b8612802565b600a546103ee906001600160a01b031681565b6005546001600160a01b03166103ee565b6102b861053036600461414d565b612812565b6102c261283c565b61032161054b366004614074565b61284b565b600c546103ee906001600160a01b031681565b6102eb61057136600461410a565b6128a4565b6102eb61058436600461410a565b61291f565b610321610597366004614074565b61292d565b6104646105aa366004614134565b612986565b6102b86105bd366004614074565b612a68565b610321600b5481565b6103216105d9366004614074565b61302e565b6103216105ec3660046141d6565b61308d565b6102b86105ff366004614074565b6130b8565b6104646136dd565b6102b861061a36600461414d565b6137cb565b61032161383d565b6102b861063536600461414d565b61385a565b6008546103ee906001600160a01b031681565b3332146106ea57600a54604051636c9b2a3f60e11b81523360048201526001600160a01b039091169063d936547e90602401602060405180830381865afa15801561069c573d6000803e3d6000fd5b505050506040513d601f19601f820116820180604052508101906106c09190614209565b15156001146106ea5760405162461bcd60e51b81526004016106e19061422b565b60405180910390fd5b6106f26138d0565b6106fa61391d565b4281101561071a5760405162461bcd60e51b81526004016106e190614256565b600082116107645760405162461bcd60e51b81526020600482015260176024820152761253959053125117d3525397d09054d157d3d555141555604a1b60448201526064016106e1565b600083116107845760405162461bcd60e51b81526004016106e190614280565b6008546040516370a0823160e01b81523360048201526001600160a01b03909116906370a0823190602401602060405180830381865afa1580156107cc573d6000803e3d6000fd5b505050506040513d601f19601f820116820180604052508101906107f091906142ad565b83111561083f5760405162461bcd60e51b815260206004820152601f60248201527f544f4b454e5f494e5055545f4849474845525f555345525f42414c414e43450060448201526064016106e1565b6008546108709061085b90600160a81b900460ff1660126142dc565b6108699060ff16600a6143d9565b8490613976565b6008549093506108a49061088f90600160a01b900460ff1660126142dc565b61089d9060ff16600a6143d9565b8390613976565b91506000806108b16136dd565b60085491935091506108d29061088f90600160a01b900460ff1660126142dc565b600854909250610906906108f190600160a81b900460ff1660126142dc565b6108ff9060ff16600a6143d9565b8290613976565b90508184106109685760405162461bcd60e51b815260206004820152602860248201527f4d494e5f424153455f4f55545055545f4849474845525f504f4f4c5f424153456044820152675f42414c414e434560c01b60648201526084016106e1565b600061098b6103e8610985600b548961397690919063ffffffff16565b90613989565b905060006109998783613995565b905060006109a882868661302e565b9050868110156109ca5760405162461bcd60e51b81526004016106e1906143e5565b8481106109e95760405162461bcd60e51b81526004016106e190614411565b600854610a8690610a0590600160a01b900460ff1660126142dc565b610a139060ff16600a6143d9565b6007546040516370a0823160e01b81523060048201526001600160a01b03909116906370a08231906024015b602060405180830381865afa158015610a5c573d6000803e3d6000fd5b505050506040513d601f19601f82011682018060405250810190610a8091906142ad565b90613976565b8110610aa45760405162461bcd60e51b81526004016106e190614455565b6008546001600160a01b038116906323b872dd9033903090610aea90610ad590600160a81b900460ff1660126142dc565b610ae39060ff16600a6143d9565b8d90613989565b6040518463ffffffff1660e01b8152600401610b089392919061449d565b6020604051808303816000875af1158015610b27573d6000803e3d6000fd5b505050506040513d601f19601f82011682018060405250810190610b4b9190614209565b506007546008546001600160a01b039091169063a9059cbb903390610b9490610b7f90600160a01b900460ff1660126142dc565b610b8d9060ff16600a6143d9565b8590613989565b6040518363ffffffff1660e01b8152600401610bb19291906144c1565b6020604051808303816000875af1158015610bd0573d6000803e3d6000fd5b505050506040513d601f19601f82011682018060405250810190610bf49190614209565b506008546009546001600160a01b038083169263a9059cbb9290911690610c4090610c2b9060ff600160a81b9091041660126142dc565b610c399060ff16600a6143d9565b8790613989565b6040518363ffffffff1660e01b8152600401610c5d9291906144c1565b6020604051808303816000875af1158015610c7c573d6000803e3d6000fd5b505050506040513d601f19601f82011682018060405250810190610ca09190614209565b506008547fb1b8c525a87e01fd3cda717635c4b24d56deba9f9d95c4f650c022bcd0bf8f50903390610cf690610ce190600160a01b900460ff1660126142dc565b610cef9060ff16600a6143d9565b8a90613989565b600854610d2790610d1290600160a81b900460ff1660126142dc565b610d209060ff16600a6143d9565b8c90613989565b600854610d5890610d4390600160a01b900460ff1660126142dc565b610d519060ff16600a6143d9565b8690613989565b600854610d8990610d7490600160a01b900460ff1660126142dc565b610d829060ff16600a6143d9565b8b90613989565b600854610da590610d7490600160a81b900460ff1660126142dc565b604051610db7969594939291906144da565b60405180910390a15050505050610dce6001600655565b505050565b606060038054610de29061450d565b80601f0160208091040260200160405190810160405280929190818152602001828054610e0e9061450d565b8015610e5b5780601f10610e3057610100808354040283529160200191610e5b565b820191906000526020600020905b815481529060010190602001808311610e3e57829003601f168201915b5050505050905090565b600033610e738185856139a1565b60019150505b92915050565b610e87613ac5565b600b55565b60008080610e986136dd565b6008549193509150610ece90610eb990600160a01b900460ff1660126142dc565b610ec79060ff16600a6143d9565b8590613976565b600854909450610eed9061088f90600160a01b900460ff1660126142dc565b600854909250610f0c906108f190600160a81b900460ff1660126142dc565b90506000610f2b6103e8610985600b548861397690919063ffffffff16565b90506000610f398683613995565b90506000610f4882868661101d565b600854909150610f7c90610f6790600160a81b900460ff1660126142dc565b610f759060ff16600a6143d9565b8290613989565b979650505050505050565b610f8f613ac5565b6001600160a01b038116610fd75760405162461bcd60e51b815260206004820152600f60248201526e494e56414c49445f4144445245535360881b60448201526064016106e1565b600a80546001600160a01b0319166001600160a01b0392909216919091179055565b600033611007858285613b1f565b611012858585613b99565b506001949350505050565b6000808311801561102e5750600082115b61104a5760405162461bcd60e51b81526004016106e190614547565b60006110568385613976565b905060006110648587613d3d565b90506000610f7c6110758484613989565b8690613995565b600033610e7381858561108f838361308d565b611099919061456e565b6139a1565b6110a6613ac5565b6110ae613d49565b565b6110ba3382613d9e565b50565b600033321461115357600a54604051636c9b2a3f60e11b81523360048201526001600160a01b039091169063d936547e90602401602060405180830381865afa15801561110e573d6000803e3d6000fd5b505050506040513d601f19601f820116820180604052508101906111329190614209565b15156001146111535760405162461bcd60e51b81526004016106e19061422b565b61115b61391d565b4282101561117b5760405162461bcd60e51b81526004016106e190614256565b600085116111bc5760405162461bcd60e51b815260206004820152600e60248201526d0494e56414c49445f4d494e5f4c560941b60448201526064016106e1565b600084116111dc5760405162461bcd60e51b81526004016106e190614581565b600083116112265760405162461bcd60e51b81526020600482015260176024820152761253959053125117d3505617d513d2d15397d253941555604a1b60448201526064016106e1565b60085461124290610eb990600160a01b900460ff1660126142dc565b6008549094506112619061085b90600160a81b900460ff1660126142dc565b9250600061126e60025490565b9050806000036114e5576007546008546001600160a01b03909116906323b872dd90339030906112ad90610ce190600160a01b900460ff1660126142dc565b6040518463ffffffff1660e01b81526004016112cb9392919061449d565b6020604051808303816000875af11580156112ea573d6000803e3d6000fd5b505050506040513d601f19601f8201168201806040525081019061130e9190614209565b506008546001600160a01b038116906323b872dd90339030906113559061134090600160a81b900460ff1660126142dc565b61134e9060ff16600a6143d9565b8990613989565b6040518463ffffffff1660e01b81526004016113739392919061449d565b6020604051808303816000875af1158015611392573d6000803e3d6000fd5b505050506040513d601f19601f820116820180604052508101906113b69190614209565b50846113c23382613ed0565b6007546040516370a0823160e01b81523060048201527f28e12afd967cc11b786f1b1547f5e0da96ccc91ebb09bdd406248111a634e7e591339184918a918a916001600160a01b0316906370a0823190602401602060405180830381865afa158015611432573d6000803e3d6000fd5b505050506040513d601f19601f8201168201806040525081019061145691906142ad565b6008546040516370a0823160e01b81523060048201526001600160a01b03909116906370a0823190602401602060405180830381865afa15801561149e573d6000803e3d6000fd5b505050506040513d601f19601f820116820180604052508101906114c291906142ad565b6040516114d4969594939291906144da565b60405180910390a191506118549050565b6000806114f06136dd565b90925090506000611519826115138561098561150c828e613d3d565b8790613976565b90613995565b9050600061152b84610985878c613976565b90506000821161154d5760405162461bcd60e51b81526004016106e190614280565b8782111561156d5760405162461bcd60e51b81526004016106e190614280565b898110156115af5760405162461bcd60e51b815260206004820152600f60248201526e0494e56414c49445f4d494e545f4c5608c1b60448201526064016106e1565b6007546008546001600160a01b03909116906323b872dd90339030906115f9906115e490600160a01b900460ff1660126142dc565b6115f29060ff16600a6143d9565b8e90613989565b6040518463ffffffff1660e01b81526004016116179392919061449d565b6020604051808303816000875af1158015611636573d6000803e3d6000fd5b505050506040513d601f19601f8201168201806040525081019061165a9190614209565b506008546001600160a01b038116906323b872dd903390309061168c90610c2b90600160a81b900460ff1660126142dc565b6040518463ffffffff1660e01b81526004016116aa9392919061449d565b6020604051808303816000875af11580156116c9573d6000803e3d6000fd5b505050506040513d601f19601f820116820180604052508101906116ed9190614209565b506116f83382613ed0565b7f28e12afd967cc11b786f1b1547f5e0da96ccc91ebb09bdd406248111a634e7e5338261173a600860149054906101000a900460ff166012610ad591906142dc565b60085461175690610c2b90600160a81b900460ff1660126142dc565b6007546040516370a0823160e01b81523060048201526001600160a01b03909116906370a0823190602401602060405180830381865afa15801561179e573d6000803e3d6000fd5b505050506040513d601f19601f820116820180604052508101906117c291906142ad565b6008546040516370a0823160e01b81523060048201526001600160a01b03909116906370a0823190602401602060405180830381865afa15801561180a573d6000803e3d6000fd5b505050506040513d601f19601f8201168201806040525081019061182e91906142ad565b604051611840969594939291906144da565b60405180910390a194506118549350505050565b61185e6001600655565b949350505050565b600080806118726136dd565b600854919350915061189390610eb990600160a81b900460ff1660126142dc565b6008549094506118b29061088f90600160a01b900460ff1660126142dc565b6008549092506118d1906108f190600160a81b900460ff1660126142dc565b905060006118f06103e8610985600b548861397690919063ffffffff16565b905060006118fe8683613995565b9050600061190d82868661302e565b600854909150610f7c90610f6790600160a01b900460ff1660126142dc565b600080600061193a60025490565b905060008061196c600860159054906101000a900460ff16601261195e91906142dc565b61150c9060ff16600a6143d9565b9550826000036119805750849050806119f7565b60008061198b6136dd565b60085491935091506119ac9061088f90600160a01b900460ff1660126142dc565b6008549092506119cb906108f190600160a81b900460ff1660126142dc565b90506119e2826115138361098561150c828e613d3d565b92506119f2826109858786613976565b935050505b6008548290611a2a90611a1590600160a01b900460ff1660126142dc565b611a239060ff16600a6143d9565b8390613989565b94509450505050915091565b6000806000611a4460025490565b905080841115611a52578093505b600080611a5d6136dd565b6008549193509150611a7e9061088f90600160a01b900460ff1660126142dc565b600854909250611a9d906108f190600160a81b900460ff1660126142dc565b90506000611aaf846109858986613976565b90506000611ac1856109858a86613976565b600854909150611ae090611a1590600160a01b900460ff1660126142dc565b600854611afc90611a1590600160a81b900460ff1660126142dc565b965096505050505050915091565b611b12613ac5565b6110ae6000613f8f565b333214611bb057600a54604051636c9b2a3f60e11b81523360048201526001600160a01b039091169063d936547e90602401602060405180830381865afa158015611b6b573d6000803e3d6000fd5b505050506040513d601f19601f82011682018060405250810190611b8f9190614209565b1515600114611bb05760405162461bcd60e51b81526004016106e19061422b565b611bb86138d0565b611bc061391d565b42811015611be05760405162461bcd60e51b81526004016106e190614256565b60008311611c2a5760405162461bcd60e51b81526020600482015260176024820152761253959053125117d3505617d513d2d15397d253941555604a1b60448201526064016106e1565b60008211611c705760405162461bcd60e51b81526020600482015260136024820152721253959053125117d09054d157d3d555141555606a1b60448201526064016106e1565b6007546040516370a0823160e01b81523060048201526001600160a01b03909116906370a0823190602401602060405180830381865afa158015611cb8573d6000803e3d6000fd5b505050506040513d601f19601f82011682018060405250810190611cdc91906142ad565b8210611cfa5760405162461bcd60e51b81526004016106e190614455565b600854611d169061085b90600160a81b900460ff1660126142dc565b600854909350611d359061088f90600160a01b900460ff1660126142dc565b9150600080611d426136dd565b6008549193509150611d639061088f90600160a01b900460ff1660126142dc565b600854909250611d82906108f190600160a81b900460ff1660126142dc565b9050818410611da35760405162461bcd60e51b81526004016106e190614411565b6000611db085848461284b565b90506000611dcf6103e8610985600b548561397690919063ffffffff16565b9050611ddb8282613d3d565b915086821115611dfd5760405162461bcd60e51b81526004016106e1906143e5565b60008211611e1d5760405162461bcd60e51b81526004016106e190614280565b600854611e7790611e3990600160a81b900460ff1660126142dc565b611e479060ff16600a6143d9565b6008546040516370a0823160e01b81523360048201526001600160a01b03909116906370a0823190602401610a3f565b821115611ec65760405162461bcd60e51b815260206004820152601f60248201527f544f4b454e5f494e5055545f4849474845525f555345525f42414c414e43450060448201526064016106e1565b6008546001600160a01b038116906323b872dd9033903090611ef790610c2b90600160a81b900460ff1660126142dc565b6040518463ffffffff1660e01b8152600401611f159392919061449d565b6020604051808303816000875af1158015611f34573d6000803e3d6000fd5b505050506040513d601f19601f82011682018060405250810190611f589190614209565b506007546008546001600160a01b039091169063a9059cbb903390611f8c90610ce190600160a01b900460ff1660126142dc565b6040518363ffffffff1660e01b8152600401611fa99291906144c1565b6020604051808303816000875af1158015611fc8573d6000803e3d6000fd5b505050506040513d601f19601f82011682018060405250810190611fec9190614209565b506008546009546001600160a01b038083169263a9059cbb929091169061202390610b7f9060ff600160a81b9091041660126142dc565b6040518363ffffffff1660e01b81526004016120409291906144c1565b6020604051808303816000875af115801561205f573d6000803e3d6000fd5b505050506040513d601f19601f820116820180604052508101906120839190614209565b506008547ff116a588cdba1b14c04ffd8bca7fee39286e7c8d9da59d77c036430e4b415dbc9033906120c490610ce190600160a81b900460ff1660126142dc565b6008546120e090610d4390600160a81b900460ff1660126142dc565b6008546120fc90610d7490600160a01b900460ff1660126142dc565b60085461211890610ce190600160a01b900460ff1660126142dc565b60085461213490610ce190600160a81b900460ff1660126142dc565b604051612146969594939291906144da565b60405180910390a150505050610dce6001600655565b6000803332146121f357600a54604051636c9b2a3f60e11b81523360048201526001600160a01b039091169063d936547e90602401602060405180830381865afa1580156121ae573d6000803e3d6000fd5b505050506040513d601f19601f820116820180604052508101906121d29190614209565b15156001146121f35760405162461bcd60e51b81526004016106e19061422b565b6121fb61391d565b4283101561221b5760405162461bcd60e51b81526004016106e190614256565b6000861161225f5760405162461bcd60e51b81526020600482015260116024820152700494e56414c49445f414d4f554e545f4c5607c1b60448201526064016106e1565b600085116122a95760405162461bcd60e51b81526020600482015260176024820152761253959053125117d3525397d09054d157d3d555141555604a1b60448201526064016106e1565b600084116122f45760405162461bcd60e51b81526020600482015260186024820152771253959053125117d3525397d513d2d15397d3d55514155560421b60448201526064016106e1565b60006122ff60025490565b336000908152602081905260409020549091508088111561231e578097505b8188111561236e5760405162461bcd60e51b815260206004820152601e60248201527f494e56414c49445f414d4f554e545f4c505f544f54414c5f535550504c59000060448201526064016106e1565b6000806123796136dd565b600854919350915061239a9061088f90600160a01b900460ff1660126142dc565b6008549092506123b9906108f190600160a81b900460ff1660126142dc565b905060006123cb856109858d86613976565b905060006123dd866109858e86613976565b90508a8210156124255760405162461bcd60e51b81526020600482015260136024820152721253959053125117d09054d157d3d555141555606a1b60448201526064016106e1565b8981101561246c5760405162461bcd60e51b81526020600482015260146024820152731253959053125117d513d2d15397d3d55514155560621b60448201526064016106e1565b838211156124bc5760405162461bcd60e51b815260206004820152601f60248201527f424153455f4f55545055545f4849474845525f424153455f42414c414e43450060448201526064016106e1565b828111156125165760405162461bcd60e51b815260206004820152602160248201527f544f4b454e5f4f55545055545f4849474845525f544f4b454e5f42414c414e436044820152604560f81b60648201526084016106e1565b612520338d613d9e565b6007546008546001600160a01b039091169063a9059cbb90339061255390610d4390600160a01b900460ff1660126142dc565b6040518363ffffffff1660e01b81526004016125709291906144c1565b6020604051808303816000875af115801561258f573d6000803e3d6000fd5b505050506040513d601f19601f820116820180604052508101906125b39190614209565b506008546001600160a01b0381169063a9059cbb9033906125e390610b7f90600160a81b900460ff1660126142dc565b6040518363ffffffff1660e01b81526004016126009291906144c1565b6020604051808303816000875af115801561261f573d6000803e3d6000fd5b505050506040513d601f19601f820116820180604052508101906126439190614209565b507f555901717744791e9e27303c0df147d5a5eea5b7098591b2c5f2138ed6a605de338d612686600860149054906101000a900460ff166012610d4391906142dc565b6008546126a290610d4390600160a81b900460ff1660126142dc565b6007546040516370a0823160e01b81523060048201526001600160a01b03909116906370a0823190602401602060405180830381865afa1580156126ea573d6000803e3d6000fd5b505050506040513d601f19601f8201168201806040525081019061270e91906142ad565b6008546040516370a0823160e01b81523060048201526001600160a01b03909116906370a0823190602401602060405180830381865afa158015612756573d6000803e3d6000fd5b505050506040513d601f19601f8201168201806040525081019061277a91906142ad565b60405161278c969594939291906144da565b60405180910390a16008546127b090611a1590600160a01b900460ff1660126142dc565b6008546127cc90611a1590600160a81b900460ff1660126142dc565b975097505050505050506127e06001600655565b94509492505050565b6127f4823383613b1f565b6127fe8282613d9e565b5050565b61280a613ac5565b6110ae613fe1565b61281a613ac5565b600c80546001600160a01b0319166001600160a01b0392909216919091179055565b606060048054610de29061450d565b6000808311801561285c5750600082115b6128785760405162461bcd60e51b81526004016106e190614547565b60006128848385613976565b905060006128928587613995565b90506000610f7c856115138585613989565b600033816128b2828661308d565b9050838110156129125760405162461bcd60e51b815260206004820152602560248201527f45524332303a2064656372656173656420616c6c6f77616e63652062656c6f77604482015264207a65726f60d81b60648201526084016106e1565b61101282868684036139a1565b600033610e73818585613b99565b6000808311801561293e5750600082115b61295a5760405162461bcd60e51b81526004016106e190614547565b60006129668385613976565b905060006129748487613995565b90506000610f7c866115138585613989565b600080600061299460025490565b90506000806129b8600860149054906101000a900460ff16601261195e91906142dc565b9550826000036129cc575084905080612a4a565b6000806129d76136dd565b60085491935091506129f89061088f90600160a01b900460ff1660126142dc565b600854909250612a17906108f190600160a81b900460ff1660126142dc565b9050612a358161151384610985612a2e828e613d3d565b8690613976565b9250612a4582610985878b613976565b935050505b6008548290611a2a90611a1590600160a81b900460ff1660126142dc565b333214612afc57600a54604051636c9b2a3f60e11b81523360048201526001600160a01b039091169063d936547e90602401602060405180830381865afa158015612ab7573d6000803e3d6000fd5b505050506040513d601f19601f82011682018060405250810190612adb9190614209565b1515600114612afc5760405162461bcd60e51b81526004016106e19061422b565b612b046138d0565b612b0c61391d565b42811015612b2c5760405162461bcd60e51b81526004016106e190614256565b60008311612b755760405162461bcd60e51b81526020600482015260166024820152751253959053125117d3505617d09054d157d25394155560521b60448201526064016106e1565b60008211612bbc5760405162461bcd60e51b81526020600482015260146024820152731253959053125117d513d2d15397d3d55514155560621b60448201526064016106e1565b6008546040516370a0823160e01b81523060048201526001600160a01b03909116906370a0823190602401602060405180830381865afa158015612c04573d6000803e3d6000fd5b505050506040513d601f19601f82011682018060405250810190612c2891906142ad565b8210612c465760405162461bcd60e51b81526004016106e1906145ad565b600854612c629061085b90600160a01b900460ff1660126142dc565b600854909350612c819061088f90600160a81b900460ff1660126142dc565b9150600080612c8e6136dd565b6008549193509150612caf9061088f90600160a01b900460ff1660126142dc565b600854909250612cce906108f190600160a81b900460ff1660126142dc565b9050808410612cef5760405162461bcd60e51b81526004016106e1906145f6565b6000612cfc85848461292d565b90506000612d1b6103e8610985600b548561397690919063ffffffff16565b9050612d278282613d3d565b915086821115612d495760405162461bcd60e51b81526004016106e1906143e5565b60008211612d695760405162461bcd60e51b81526004016106e190614581565b600854612dc390612d8590600160a01b900460ff1660126142dc565b612d939060ff16600a6143d9565b6007546040516370a0823160e01b81523360048201526001600160a01b03909116906370a0823190602401610a3f565b821115612e125760405162461bcd60e51b815260206004820152601e60248201527f424153455f494e5055545f4849474845525f555345525f42414c414e4345000060448201526064016106e1565b6007546008546001600160a01b03909116906323b872dd9033903090612e4790610c2b90600160a01b900460ff1660126142dc565b6040518463ffffffff1660e01b8152600401612e659392919061449d565b6020604051808303816000875af1158015612e84573d6000803e3d6000fd5b505050506040513d601f19601f82011682018060405250810190612ea89190614209565b506008546001600160a01b0381169063a9059cbb903390612ed890610ce190600160a81b900460ff1660126142dc565b6040518363ffffffff1660e01b8152600401612ef59291906144c1565b6020604051808303816000875af1158015612f14573d6000803e3d6000fd5b505050506040513d601f19601f82011682018060405250810190612f389190614209565b506007546009546008546001600160a01b039283169263a9059cbb921690612f6f90610b7f90600160a01b900460ff1660126142dc565b6040518363ffffffff1660e01b8152600401612f8c9291906144c1565b6020604051808303816000875af1158015612fab573d6000803e3d6000fd5b505050506040513d601f19601f82011682018060405250810190612fcf9190614209565b507f6e9d5a0202c67970b52b10deb68f1641a9408d90db857bc984d008c1be70383a3388613012600860149054906101000a900460ff166012610d4391906142dc565b6008546120fc90610d7490600160a81b900460ff1660126142dc565b6000808311801561303f5750600082115b61305b5760405162461bcd60e51b81526004016106e190614547565b60006130678385613976565b905060006130758487613d3d565b90506000610f7c6130868484613989565b8790613995565b6001600160a01b03918216600090815260016020908152604080832093909416825291909152205490565b33321461314c57600a54604051636c9b2a3f60e11b81523360048201526001600160a01b039091169063d936547e90602401602060405180830381865afa158015613107573d6000803e3d6000fd5b505050506040513d601f19601f8201168201806040525081019061312b9190614209565b151560011461314c5760405162461bcd60e51b81526004016106e19061422b565b6131546138d0565b61315c61391d565b4281101561317c5760405162461bcd60e51b81526004016106e190614256565b6000831161319c5760405162461bcd60e51b81526004016106e190614581565b600082116131e75760405162461bcd60e51b81526020600482015260186024820152771253959053125117d3525397d513d2d15397d3d55514155560421b60448201526064016106e1565b6007546040516370a0823160e01b81523360048201526001600160a01b03909116906370a0823190602401602060405180830381865afa15801561322f573d6000803e3d6000fd5b505050506040513d601f19601f8201168201806040525081019061325391906142ad565b8311156132a25760405162461bcd60e51b815260206004820152601e60248201527f424153455f494e5055545f4849474845525f555345525f42414c414e4345000060448201526064016106e1565b6008546132be9061085b90600160a01b900460ff1660126142dc565b6008549093506132dd9061088f90600160a81b900460ff1660126142dc565b91506000806132ea6136dd565b600854919350915061330b9061088f90600160a01b900460ff1660126142dc565b60085490925061332a906108f190600160a81b900460ff1660126142dc565b90508084106133875760405162461bcd60e51b815260206004820152602360248201527f4d494e5f544f4b454e5f4849474845525f504f4f4c5f544f4b454e5f42414c416044820152624e434560e81b60648201526084016106e1565b60006133a46103e8610985600b548961397690919063ffffffff16565b905060006133b28783613995565b905060006133c182868661101d565b9050868110156133e35760405162461bcd60e51b81526004016106e1906143e5565b8381106134025760405162461bcd60e51b81526004016106e1906145f6565b6008546040516370a0823160e01b81523060048201526001600160a01b03909116906370a0823190602401602060405180830381865afa15801561344a573d6000803e3d6000fd5b505050506040513d601f19601f8201168201806040525081019061346e91906142ad565b60085461348a90611a1590600160a81b900460ff1660126142dc565b106134a75760405162461bcd60e51b81526004016106e1906145ad565b6007546008546001600160a01b03909116906323b872dd90339030906134dc90610ad590600160a01b900460ff1660126142dc565b6040518463ffffffff1660e01b81526004016134fa9392919061449d565b6020604051808303816000875af1158015613519573d6000803e3d6000fd5b505050506040513d601f19601f8201168201806040525081019061353d9190614209565b506008546001600160a01b0381169063a9059cbb90339061356d90610b7f90600160a81b900460ff1660126142dc565b6040518363ffffffff1660e01b815260040161358a9291906144c1565b6020604051808303816000875af11580156135a9573d6000803e3d6000fd5b505050506040513d601f19601f820116820180604052508101906135cd9190614209565b506007546009546008546001600160a01b039283169263a9059cbb92169061360490610c2b90600160a01b900460ff1660126142dc565b6040518363ffffffff1660e01b81526004016136219291906144c1565b6020604051808303816000875af1158015613640573d6000803e3d6000fd5b505050506040513d601f19601f820116820180604052508101906136649190614209565b506008547fd294be030e23d0862312f418541ec01d571908715169f1cb1109bba3212b8c2d9033906136a590610ce190600160a81b900460ff1660126142dc565b6008546136c190610d1290600160a01b900460ff1660126142dc565b600854610d5890610d4390600160a81b900460ff1660126142dc565b6007546040516370a0823160e01b8152306004820152600091829182916001600160a01b0316906370a0823190602401602060405180830381865afa15801561372a573d6000803e3d6000fd5b505050506040513d601f19601f8201168201806040525081019061374e91906142ad565b6008546040516370a0823160e01b81523060048201529192506000916001600160a01b03909116906370a0823190602401602060405180830381865afa15801561379c573d6000803e3d6000fd5b505050506040513d601f19601f820116820180604052508101906137c091906142ad565b919491935090915050565b6137d3613ac5565b6001600160a01b03811661381b5760405162461bcd60e51b815260206004820152600f60248201526e494e56414c49445f4144445245535360881b60448201526064016106e1565b600980546001600160a01b0319166001600160a01b0392909216919091179055565b600080806138496136dd565b9092509050600061185e8284613976565b613862613ac5565b6001600160a01b0381166138c75760405162461bcd60e51b815260206004820152602660248201527f4f776e61626c653a206e6577206f776e657220697320746865207a65726f206160448201526564647265737360d01b60648201526084016106e1565b6110ba81613f8f565b600554600160a01b900460ff16156110ae5760405162461bcd60e51b815260206004820152601060248201526f14185d5cd8589b194e881c185d5cd95960821b60448201526064016106e1565b60026006540361396f5760405162461bcd60e51b815260206004820152601f60248201527f5265656e7472616e637947756172643a207265656e7472616e742063616c6c0060448201526064016106e1565b6002600655565b6000613982828461463c565b9392505050565b60006139828284614653565b60006139828284614675565b6001600160a01b038316613a035760405162461bcd60e51b8152602060048201526024808201527f45524332303a20617070726f76652066726f6d20746865207a65726f206164646044820152637265737360e01b60648201526084016106e1565b6001600160a01b038216613a645760405162461bcd60e51b815260206004820152602260248201527f45524332303a20617070726f766520746f20746865207a65726f206164647265604482015261737360f01b60648201526084016106e1565b6001600160a01b0383811660008181526001602090815260408083209487168084529482529182902085905590518481527f8c5be1e5ebec7d5bd14f71427d1e84f3dd0314c0f7b2291e5b200ac8c7c3b925910160405180910390a3505050565b6005546001600160a01b031633146110ae5760405162461bcd60e51b815260206004820181905260248201527f4f776e61626c653a2063616c6c6572206973206e6f7420746865206f776e657260448201526064016106e1565b6000613b2b848461308d565b90506000198114613b935781811015613b865760405162461bcd60e51b815260206004820152601d60248201527f45524332303a20696e73756666696369656e7420616c6c6f77616e636500000060448201526064016106e1565b613b9384848484036139a1565b50505050565b6001600160a01b038316613bfd5760405162461bcd60e51b815260206004820152602560248201527f45524332303a207472616e736665722066726f6d20746865207a65726f206164604482015264647265737360d81b60648201526084016106e1565b6001600160a01b038216613c5f5760405162461bcd60e51b815260206004820152602360248201527f45524332303a207472616e7366657220746f20746865207a65726f206164647260448201526265737360e81b60648201526084016106e1565b6001600160a01b03831660009081526020819052604090205481811015613cd75760405162461bcd60e51b815260206004820152602660248201527f45524332303a207472616e7366657220616d6f756e7420657863656564732062604482015265616c616e636560d01b60648201526084016106e1565b6001600160a01b03848116600081815260208181526040808320878703905593871680835291849020805487019055925185815290927fddf252ad1be2c89b69c2b068fc378daa952ba7f163c4a11628f55a4df523b3ef910160405180910390a3613b93565b6000613982828461456e565b613d51614024565b6005805460ff60a01b191690557f5db9ee0a495bf2e6ff9c91a7834c1ba4fdd244a5e8aa4e537bd38aeae4b073aa335b6040516001600160a01b03909116815260200160405180910390a1565b6001600160a01b038216613dfe5760405162461bcd60e51b815260206004820152602160248201527f45524332303a206275726e2066726f6d20746865207a65726f206164647265736044820152607360f81b60648201526084016106e1565b6001600160a01b03821660009081526020819052604090205481811015613e725760405162461bcd60e51b815260206004820152602260248201527f45524332303a206275726e20616d6f756e7420657863656564732062616c616e604482015261636560f01b60648201526084016106e1565b6001600160a01b0383166000818152602081815260408083208686039055600280548790039055518581529192917fddf252ad1be2c89b69c2b068fc378daa952ba7f163c4a11628f55a4df523b3ef910160405180910390a3505050565b6001600160a01b038216613f265760405162461bcd60e51b815260206004820152601f60248201527f45524332303a206d696e7420746f20746865207a65726f20616464726573730060448201526064016106e1565b8060026000828254613f38919061456e565b90915550506001600160a01b038216600081815260208181526040808320805486019055518481527fddf252ad1be2c89b69c2b068fc378daa952ba7f163c4a11628f55a4df523b3ef910160405180910390a35050565b600580546001600160a01b038381166001600160a01b0319831681179093556040519116919082907f8be0079c531659141344cd1fd0a4f28419497f9722a3daafe3b4186f6b6457e090600090a35050565b613fe96138d0565b6005805460ff60a01b1916600160a01b1790557f62e78cea01bee320cd4e420270b5ea74000d11b0c9f74754ebdbfc544b05a258613d813390565b600554600160a01b900460ff166110ae5760405162461bcd60e51b815260206004820152601460248201527314185d5cd8589b194e881b9bdd081c185d5cd95960621b60448201526064016106e1565b60008060006060848603121561408957600080fd5b505081359360208301359350604090920135919050565b600060208083528351808285015260005b818110156140cd578581018301518582016040015282016140b1565b506000604082860101526040601f19601f8301168501019250505092915050565b80356001600160a01b038116811461410557600080fd5b919050565b6000806040838503121561411d57600080fd5b614126836140ee565b946020939093013593505050565b60006020828403121561414657600080fd5b5035919050565b60006020828403121561415f57600080fd5b613982826140ee565b60008060006060848603121561417d57600080fd5b614186846140ee565b9250614194602085016140ee565b9150604084013590509250925092565b600080600080608085870312156141ba57600080fd5b5050823594602084013594506040840135936060013592509050565b600080604083850312156141e957600080fd5b6141f2836140ee565b9150614200602084016140ee565b90509250929050565b60006020828403121561421b57600080fd5b8151801515811461398257600080fd5b6020808252601190820152701253959053125117d5d2125511531254d5607a1b604082015260600190565b60208082526010908201526f494e56414c49445f444541444c494e4560801b604082015260600190565b6020808252601390820152721253959053125117d513d2d15397d253941555606a1b604082015260600190565b6000602082840312156142bf57600080fd5b5051919050565b634e487b7160e01b600052601160045260246000fd5b60ff8281168282160390811115610e7957610e796142c6565b600181815b80851115614330578160001904821115614316576143166142c6565b8085161561432357918102915b93841c93908002906142fa565b509250929050565b60008261434757506001610e79565b8161435457506000610e79565b816001811461436a576002811461437457614390565b6001915050610e79565b60ff841115614385576143856142c6565b50506001821b610e79565b5060208310610133831016604e8410600b84101617156143b3575081810a610e79565b6143bd83836142f5565b80600019048211156143d1576143d16142c6565b029392505050565b60006139828383614338565b60208082526012908201527143414e5f4e4f545f4d414b455f545241444560701b604082015260600190565b60208082526024908201527f424153455f4f55545055545f4849474845525f504f4f4c5f424153455f42414c604082015263414e434560e01b606082015260800190565b60208082526028908201527f424153455f4f55545055545f4849474845525f43555252454e545f54524144456040820152675f42414c414e434560c01b606082015260800190565b6001600160a01b039384168152919092166020820152604081019190915260600190565b6001600160a01b03929092168252602082015260400190565b6001600160a01b03969096168652602086019490945260408501929092526060840152608083015260a082015260c00190565b600181811c9082168061452157607f821691505b60208210810361454157634e487b7160e01b600052602260045260246000fd5b50919050565b6020808252600d908201526c494e56414c49445f56414c554560981b604082015260600190565b80820180821115610e7957610e796142c6565b6020808252601290820152711253959053125117d09054d157d25394155560721b604082015260600190565b60208082526029908201527f544f4b454e5f4f55545055545f4849474845525f43555252454e545f54524144604082015268455f42414c414e434560b81b606082015260800190565b60208082526026908201527f544f4b454e5f4f55545055545f4849474845525f504f4f4c5f544f4b454e5f42604082015265414c414e434560d01b606082015260800190565b8082028115828204841417610e7957610e796142c6565b60008261467057634e487b7160e01b600052601260045260246000fd5b500490565b81810381811115610e7957610e796142c656fea264697066735822122057c38a1d9d6ca587cfe7d883a7c9443ec6cd144a89f4b4b5c99588adf8f902ec64736f6c63430008110033",
  "immutableReferences": {},
  "source": "// SPDX-License-Identifier: MIT\npragma solidity >=0.6.12;\n\nimport \"@openzeppelin/contracts/utils/math/SafeMath.sol\";\nimport \"@openzeppelin/contracts/token/ERC20/extensions/IERC20Metadata.sol\";\nimport \"@openzeppelin/contracts/token/ERC20/ERC20.sol\";\nimport \"@openzeppelin/contracts/token/ERC20/extensions/ERC20Burnable.sol\";\nimport \"@openzeppelin/contracts/utils/Context.sol\";\nimport \"@openzeppelin/contracts/access/Ownable.sol\";\nimport \"@openzeppelin/contracts/security/Pausable.sol\";\nimport \"@openzeppelin/contracts/security/ReentrancyGuard.sol\";\n\nimport './interfaces/IBreezyWhitelist.sol';\n\n\ncontract BreezySwapV1BREWETH is ERC20Burnable, Ownable, Pausable, ReentrancyGuard {\n    \n    using SafeMath for uint256;\n\n    IERC20Metadata public base; // Stable coin base token (WETH)\n    IERC20Metadata public token; // Token to trade in this pair\n\n    // Declare state variables for decimals\n    uint8 public baseDecimals;\n    uint8 public tokenDecimals;\n\n    // Fee Machine Contract.\n    address public feeMachineContract; \n\n    IBreezyWhitelist public whitelistContract; \n\n    uint256 public TRADE_FEE = 2; //0.2% 2/1000\n\n    address public platformFundAddress;\n\n    modifier onlyWhitelist()\n    {\n        if (msg.sender != tx.origin) {\n            require(whitelistContract.whitelisted(msg.sender) == true, 'INVALID_WHITELIST');\n        }\n        _;\n    }\n\n\n    // Events\n\n    event onSwapBaseToTokenWithBaseInput(address sender, uint256 minTokenOutput, uint256 baseInputAmount, uint256 tokenOutputAmount, uint256 poolBaseBalance, uint256 poolTokenBalance);\n    event onSwapBaseToTokenWithTokenOutput(address sender, uint256 maxBaseInput, uint256 baseInputAmount, uint256 tokenOutputAmount, uint256 poolBaseBalance, uint256 poolTokenBalance);\n    \n    event onSwapTokenToBaseWithTokenInput(address sender, uint256 minBaseOutput, uint256 tokenInputAmount, uint256 baseOutputAmount, uint256 poolBaseBalance, uint256 poolTokenBalance);\n    event onSwapTokenToBaseWithBaseOutput(address sender, uint256 maxTokenInput, uint256 tokenInputAmount, uint256 baseOutputAmount, uint256 poolBaseBalance, uint256 poolTokenBalance);\n\n    event onAddLP(address sender, uint256 mintLP, uint256 baseInputAmount, uint256 tokenInputAmount, uint256 poolBaseBalance, uint256 poolTokenBalance);\n    event onRemoveLP(address sender, uint256 amountLP, uint256 baseOutputAmout, uint256 tokenOutputAmount, uint256 poolBaseBalance, uint256 poolTokenBalance);\n\n    constructor(\n        IERC20Metadata _base,\n        IERC20Metadata _token,\n        address _feeMachineContract,\n        IBreezyWhitelist _whitelistContract,\n        string memory name, \n        string memory symbol\n        ) ERC20(name, symbol) {\n        base = _base;\n        token = _token;\n        whitelistContract = _whitelistContract;\n        feeMachineContract = _feeMachineContract;\n        platformFundAddress = _msgSender();\n        baseDecimals = base.decimals();\n        tokenDecimals = token.decimals();\n    }\n    \n    function setWhitelistContract(address _whitelistContract) public onlyOwner {\n        require(_whitelistContract != address(0), \"INVALID_ADDRESS\");\n\n        whitelistContract = IBreezyWhitelist(_whitelistContract);\n    }\n\n    function setFeeMachineContract(address _feeMachineContract) public onlyOwner {\n        require(_feeMachineContract != address(0), \"INVALID_ADDRESS\");\n\n        feeMachineContract = _feeMachineContract;\n    }\n\n    function setTradeFee(uint256 _tradeFee) public onlyOwner {\n        TRADE_FEE = _tradeFee;\n    }\n\n    function setPlatformFundAdress(address newAddress) public onlyOwner {\n        platformFundAddress = newAddress;\n    }\n\n    function getK() public view returns(uint256) {\n        uint256 baseReserve = 0;\n        uint256 tokenReserve = 0;\n        (baseReserve, tokenReserve) = getTotalReserve();\n        uint256 k = tokenReserve.mul(baseReserve);\n        return k;\n    }\n\n    function getTokenOutput(uint256 baseInputAmount) public view returns (uint256) {\n        uint256 baseReserve = 0;\n        uint256 tokenReserve = 0;\n        (baseReserve, tokenReserve) = getTotalReserve();\n\n        // Scale baseInputAmount to 18 decimals\n        baseInputAmount = baseInputAmount.mul(10**uint256(18 - baseDecimals));\n\n        // Scale baseReserve to 18 decimals\n        baseReserve = baseReserve.mul(10**uint256(18 - baseDecimals));\n\n        // Scale tokenReserve to 18 decimals\n        tokenReserve = tokenReserve.mul(10**uint256(18 - tokenDecimals));\n\n        uint256 tradeFee = baseInputAmount.mul(TRADE_FEE).div(1000);\n        uint256 baseInputAmountAfterFee = baseInputAmount.sub(tradeFee); // cut the TRADE_FEE from base input\n\n        uint256 tokenOutputAmount = getTokenOutputAmountFromBaseInput(baseInputAmountAfterFee, baseReserve, tokenReserve);\n        return tokenOutputAmount.div(10**uint256(18 - tokenDecimals));\n    }\n\n    function getBaseOutput(uint256 tokenInputAmount) public view returns (uint256) {\n        uint256 baseReserve = 0;\n        uint256 tokenReserve = 0;\n        (baseReserve, tokenReserve) = getTotalReserve();\n\n        // Scale tokenInputAmount to 18 decimals\n        tokenInputAmount = tokenInputAmount.mul(10**uint256(18 - tokenDecimals));\n\n        // Scale baseReserve to 18 decimals\n        baseReserve = baseReserve.mul(10**uint256(18 - baseDecimals));\n\n        // Scale tokenReserve to 18 decimals\n        tokenReserve = tokenReserve.mul(10**uint256(18 - tokenDecimals));\n\n        uint256 tradeFee = tokenInputAmount.mul(TRADE_FEE).div(1000);\n        uint256 tokenInputAmountAfterFee = tokenInputAmount.sub(tradeFee); // cut the TRADE_FEE from token input\n\n        uint256 baseOutputAmount = getBaseOutputAmountFromTokenInput(tokenInputAmountAfterFee, baseReserve, tokenReserve);\n        return baseOutputAmount.div(10**uint256(18 - baseDecimals));\n    }\n\n    function getDataFromBaseInputToAddLp(uint256 baseInputAmount) public view returns (uint256, uint256) {\n        uint256 totalSupply = totalSupply();\n        uint256 mintLP = 0;\n        uint256 tokenInputAmount = 0;\n\n        // Scale baseInputAmount to 18 decimals\n        baseInputAmount = baseInputAmount.mul(10**uint256(18 - baseDecimals));\n\n        if(totalSupply == 0) {\n            mintLP = baseInputAmount;\n            tokenInputAmount = baseInputAmount;\n        }\n        else { \n            // tokenReserve/baseReserve = (tokenReserve+tokenInputAmount)/(baseReserve+baseInputAmount)\n            // => tokenReserve+tokenInputAmount = tokenReserve*(baseReserve+baseInputAmount)/baseReserve\n            // => tokenInputAmount = tokenReserve*(baseReserve+baseInputAmount)/baseReserve - tokenReserve;\n            uint256 baseReserve = 0;\n            uint256 tokenReserve = 0;\n            (baseReserve, tokenReserve) = getTotalReserve();\n\n            // Scale baseReserve to 18 decimals\n            baseReserve = baseReserve.mul(10**uint256(18 - baseDecimals));\n\n            // Scale tokenReserve to 18 decimals\n            tokenReserve = tokenReserve.mul(10**uint256(18 - tokenDecimals));\n\n            tokenInputAmount = tokenReserve.mul(baseReserve.add(baseInputAmount)).div(baseReserve).sub(tokenReserve);\n\n            // mintLP/totalLP =  baseInputAmount/baseReserve\n            // mintLP = totalLP*baseInputAmount/baseReserve\n            mintLP = totalSupply.mul(baseInputAmount).div(baseReserve);\n        }\n        return (mintLP, tokenInputAmount.div(10**uint256(18 - tokenDecimals)));\n    }\n\n    function getDataFromTokenInputToAddLp(uint256 tokenInputAmount) public view returns (uint256, uint256) {\n        uint256 totalSupply = totalSupply();\n        uint256 mintLP;\n        uint256 baseInputAmount;\n\n        // Scale tokenInputAmount to 18 decimals\n        tokenInputAmount = tokenInputAmount.mul(10**uint256(18 - tokenDecimals));\n\n        if(totalSupply == 0) {\n            mintLP = tokenInputAmount;\n            baseInputAmount = tokenInputAmount;\n        }\n        else { \n            // tokenReserve/baseReserve = (tokenReserve+tokenInputAmount)/(baseReserve+baseInputAmount)\n            // => (baseReserve+baseInputAmount) = (tokenReserve+tokenInputAmount) * baseReserve / tokenReserve\n            //  => baseInputAmount = (tokenReserve+tokenInputAmount) * baseReserve / tokenReserve - baseReserve\n            uint256 baseReserve = 0;\n            uint256 tokenReserve = 0;\n            (baseReserve, tokenReserve) = getTotalReserve();\n\n            // Scale baseReserve to 18 decimals\n            baseReserve = baseReserve.mul(10**uint256(18 - baseDecimals));\n\n            // Scale tokenReserve to 18 decimals\n            tokenReserve = tokenReserve.mul(10**uint256(18 - tokenDecimals));\n\n            baseInputAmount = baseReserve.mul(tokenReserve.add(tokenInputAmount)).div(tokenReserve).sub(baseReserve);\n\n            // mintLP/totalLP =  baseInputAmount/baseReserve\n            // mintLP = totalLP*baseInputAmount/baseReserve\n            mintLP = totalSupply.mul(baseInputAmount).div(baseReserve);\n        }\n        return (mintLP, baseInputAmount.div(10**uint256(18 - baseDecimals)));\n    }\n\n    function getDataToRemoveLP(uint256 amountLP) public view returns (uint256, uint256){\n        \n        uint256 totalSupply = totalSupply();\n\n        if (amountLP > totalSupply) {\n            amountLP = totalSupply;\n        } \n        uint256 baseReserve = 0;\n        uint256 tokenReserve = 0;\n        (baseReserve, tokenReserve) = getTotalReserve();\n\n        // Scale baseReserve to 18 decimals\n        baseReserve = baseReserve.mul(10**uint256(18 - baseDecimals));\n\n        // Scale tokenReserve to 18 decimals\n        tokenReserve = tokenReserve.mul(10**uint256(18 - tokenDecimals));\n        \n        // amountLP/totalSupply = baseOutputAmount/baseReserve\n        // => baseOutputAmount = amountLP*baseReserve/totalSupply\n        uint256 baseOutputAmount = amountLP.mul(baseReserve).div(totalSupply);\n        uint256 tokenOutputAmount = amountLP.mul(tokenReserve).div(totalSupply);\n        \n        return (baseOutputAmount.div(10**uint256(18 - baseDecimals)), tokenOutputAmount.div(10**uint256(18 - tokenDecimals)));\n    }\n    \n    // token*base=(token-tokenOutputAmount)*(base+baseInputAmount)\n    //token-tokenOutputAmount = token*base/(base+baseInputAmount)\n    // => tokenOutputAmount=token - token*base/(base+baseInputAmount)\n    function getTokenOutputAmountFromBaseInput(uint256 baseInputAmount, uint256 baseReserve, uint256 tokenReserve) public pure returns (uint256) {\n      require(baseReserve > 0 && tokenReserve > 0, \"INVALID_VALUE\");\n      uint256 numerator = tokenReserve.mul(baseReserve);\n      uint256 denominator = baseReserve.add(baseInputAmount);\n      uint256 tokenOutputAmount = tokenReserve.sub(numerator.div(denominator));\n      return tokenOutputAmount;\n    }\n    \n    // token*base=(token-tokenOutputAmount)*(base+baseInputAmount)\n    // base+baseInputAmount = token*base/(token-tokenOutputAmount)\n    //baseInputAmount = token*base/(token-tokenOutputAmount) - base;\n    function getBaseInputAmountFromTokenOutput(uint256 tokenOutputAmount, uint256 baseReserve, uint256 tokenReserve) public pure  returns (uint256) {\n      require(baseReserve > 0 && tokenReserve > 0, \"INVALID_VALUE\");\n      uint256 numerator = tokenReserve.mul(baseReserve);\n      uint256 denominator = tokenReserve.sub(tokenOutputAmount);\n      uint256 baseInputAmount = numerator.div(denominator).sub(baseReserve);\n      return baseInputAmount;\n    }\n    \n    // token*base=(token+tokenInputAmount)*(base-baseOutputAmount)\n    // => base - baseOutputAmount=token*base/(token+tokenInputAmount)\n    // => baseOutputAmount = base - token*base/(token+tokenInputAmount)\n    function getBaseOutputAmountFromTokenInput(uint256 tokenInputAmount, uint256 baseReserve, uint256 tokenReserve) public pure returns (uint256) {\n      require(baseReserve > 0 && tokenReserve > 0, \"INVALID_VALUE\");\n      uint256 numerator = tokenReserve.mul(baseReserve);\n      uint256 denominator = tokenReserve.add(tokenInputAmount);\n      uint256 baseOutputAmount = baseReserve.sub(numerator.div(denominator));\n      return baseOutputAmount;\n    }\n\n    // token*base=(token+tokenInputAmount)*(base-baseOutputAmount)\n    // => token+tokenInputAmount = token*base/(base-baseOutputAmount)\n    // => tokenInputAmount = token*base/(base-baseOutputAmount) - token\n    function getTokenInputAmountFromBaseOutput(uint256 baseOutputAmount, uint256 baseReserve, uint256 tokenReserve) public pure returns (uint256) {\n      require(baseReserve > 0 && tokenReserve > 0, \"INVALID_VALUE\");\n      uint256 numerator = tokenReserve.mul(baseReserve);\n      uint256 denominator = baseReserve.sub(baseOutputAmount);\n      uint256 tokenInputAmount = numerator.div(denominator).sub(tokenReserve);\n      return tokenInputAmount;\n    }\n\n    function swapBaseToTokenWithBaseInput(uint256 baseInputAmount, uint256 minTokenOutput, uint256 deadline) public onlyWhitelist whenNotPaused nonReentrant {\n        require(deadline >= block.timestamp, 'INVALID_DEADLINE');\n        require(baseInputAmount > 0, 'INVALID_BASE_INPUT');\n        require(minTokenOutput > 0, 'INVALID_MIN_TOKEN_OUTPUT');\n        require(baseInputAmount <= base.balanceOf(msg.sender), 'BASE_INPUT_HIGHER_USER_BALANCE');\n\n        // Scale baseInputAmount to 18 decimals\n        baseInputAmount = baseInputAmount.mul(10**uint256(18 - baseDecimals));\n\n        // Scale minTokenOutput to 18 decimals\n        minTokenOutput = minTokenOutput.mul(10**uint256(18 - tokenDecimals));\n        \n        uint256 baseReserve = 0;\n        uint256 tokenReserve = 0;\n        (baseReserve, tokenReserve) = getTotalReserve();\n\n        // Scale baseReserve to 18 decimals\n        baseReserve = baseReserve.mul(10**uint256(18 - baseDecimals));\n\n        // Scale tokenReserve to 18 decimals\n        tokenReserve = tokenReserve.mul(10**uint256(18 - tokenDecimals));\n\n        require(minTokenOutput < tokenReserve, \"MIN_TOKEN_HIGHER_POOL_TOKEN_BALANCE\");\n\n        uint256 tradeFee = baseInputAmount.mul(TRADE_FEE).div(1000);\n        uint256 baseInputAmountAfterFee = baseInputAmount.sub(tradeFee); // cut the TRADE_FEE from base input\n        \n        uint256 tokenOutputAmount = getTokenOutputAmountFromBaseInput(baseInputAmountAfterFee, baseReserve, tokenReserve);\n\n        require(tokenOutputAmount >= minTokenOutput, 'CAN_NOT_MAKE_TRADE');\n        require(tokenOutputAmount < tokenReserve, 'TOKEN_OUTPUT_HIGHER_POOL_TOKEN_BALANCE');\n        require(tokenOutputAmount.div(10**uint256(18 - tokenDecimals)) < token.balanceOf(address(this)), 'TOKEN_OUTPUT_HIGHER_CURRENT_TRADE_BALANCE');\n        \n        //make trade\n        base.transferFrom(msg.sender, address(this), baseInputAmount.div(10**uint256(18 - baseDecimals)));\n        token.transfer(msg.sender, tokenOutputAmount.div(10**uint256(18 - tokenDecimals)));\n\n        //transfer fee\n        base.transfer(feeMachineContract, tradeFee.div(10**uint256(18 - baseDecimals)));\n\n        emit onSwapBaseToTokenWithBaseInput(\n            msg.sender,\n            minTokenOutput.div(10**uint256(18 - tokenDecimals)),\n            baseInputAmount.div(10**uint256(18 - baseDecimals)),\n            tokenOutputAmount.div(10**uint256(18 - tokenDecimals)),\n            baseReserve.div(10**uint256(18 - baseDecimals)),\n            tokenReserve.div(10**uint256(18 - tokenDecimals))\n        );\n\n    }\n\n    function swapBaseToTokenWithTokenOutput(uint256 maxBaseInput, uint256 tokenOutputAmount, uint256 deadline) public onlyWhitelist whenNotPaused nonReentrant{\n        require(deadline >= block.timestamp, 'INVALID_DEADLINE');\n        require(maxBaseInput > 0, 'INVALID_MAX_BASE_INPUT');\n        require(tokenOutputAmount > 0, 'INVALID_TOKEN_OUTPUT');\n        require(tokenOutputAmount < token.balanceOf(address(this)), 'TOKEN_OUTPUT_HIGHER_CURRENT_TRADE_BALANCE');\n\n        // Scale maxBaseInput to 18 decimals\n        maxBaseInput = maxBaseInput.mul(10**uint256(18 - baseDecimals));\n\n        // Scale tokenOutputAmount to 18 decimals\n        tokenOutputAmount = tokenOutputAmount.mul(10**uint256(18 - tokenDecimals));\n        \n        uint256 baseReserve = 0;\n        uint256 tokenReserve = 0;\n        (baseReserve, tokenReserve) = getTotalReserve();\n\n        // Scale baseReserve to 18 decimals\n        baseReserve = baseReserve.mul(10**uint256(18 - baseDecimals));\n\n        // Scale tokenReserve to 18 decimals\n        tokenReserve = tokenReserve.mul(10**uint256(18 - tokenDecimals));\n\n        require(tokenOutputAmount < tokenReserve, \"TOKEN_OUTPUT_HIGHER_POOL_TOKEN_BALANCE\");\n\n        uint256 baseInputAmount = getBaseInputAmountFromTokenOutput(tokenOutputAmount, baseReserve, tokenReserve);\n        \n        uint256 tradeFee = baseInputAmount.mul(TRADE_FEE).div(1000);\n        baseInputAmount = baseInputAmount.add(tradeFee); // add the TRADE_FEE to base input\n\n        require(baseInputAmount <= maxBaseInput, 'CAN_NOT_MAKE_TRADE');\n        require(baseInputAmount > 0, 'INVALID_BASE_INPUT');\n        require(baseInputAmount <= base.balanceOf(msg.sender).mul(10**uint256(18 - baseDecimals)), 'BASE_INPUT_HIGHER_USER_BALANCE');\n        \n        // Make trade\n        base.transferFrom(msg.sender, address(this), baseInputAmount.div(10**uint256(18 - baseDecimals)));\n        token.transfer(msg.sender, tokenOutputAmount.div(10**uint256(18 - tokenDecimals)));\n\n        // Transfer fee\n        base.transfer(feeMachineContract, tradeFee.div(10**uint256(18 - baseDecimals)));\n\n        emit onSwapBaseToTokenWithTokenOutput(\n            msg.sender,\n            maxBaseInput,\n            baseInputAmount.div(10**uint256(18 - baseDecimals)),\n            tokenOutputAmount.div(10**uint256(18 - tokenDecimals)),\n            baseReserve.div(10**uint256(18 - baseDecimals)),\n            tokenReserve.div(10**uint256(18 - tokenDecimals))\n        );\n    }\n\n    function swapTokenToBaseWithTokenInput(uint256 tokenInputAmount, uint256 minBaseOutput, uint256 deadline) public onlyWhitelist whenNotPaused nonReentrant {\n        require(deadline >= block.timestamp, 'INVALID_DEADLINE');\n        require(minBaseOutput > 0, 'INVALID_MIN_BASE_OUTPUT');\n        require(tokenInputAmount > 0, 'INVALID_TOKEN_INPUT');\n        require(tokenInputAmount <= token.balanceOf(msg.sender), 'TOKEN_INPUT_HIGHER_USER_BALANCE');\n\n        // Scale tokenInputAmount to 18 decimals\n        tokenInputAmount = tokenInputAmount.mul(10**uint256(18 - tokenDecimals));\n\n        // Scale minBaseOutput to 18 decimals\n        minBaseOutput = minBaseOutput.mul(10**uint256(18 - baseDecimals));\n\n        uint256 baseReserve = 0;\n        uint256 tokenReserve = 0;\n        (baseReserve, tokenReserve) = getTotalReserve();\n\n        // Scale baseReserve to 18 decimals\n        baseReserve = baseReserve.mul(10**uint256(18 - baseDecimals));\n\n        // Scale tokenReserve to 18 decimals\n        tokenReserve = tokenReserve.mul(10**uint256(18 - tokenDecimals));\n\n        require(minBaseOutput < baseReserve, 'MIN_BASE_OUTPUT_HIGHER_POOL_BASE_BALANCE');\n\n        uint256 tradeFee = tokenInputAmount.mul(TRADE_FEE).div(1000);\n        uint256 tokenInputAmountAfterFee = tokenInputAmount.sub(tradeFee); // cut the TRADE_FEE from token input\n        \n        uint256 baseOutputAmount = getBaseOutputAmountFromTokenInput(tokenInputAmountAfterFee, baseReserve, tokenReserve);\n\n        require(baseOutputAmount >= minBaseOutput, 'CAN_NOT_MAKE_TRADE');\n        require(baseOutputAmount < baseReserve, 'BASE_OUTPUT_HIGHER_POOL_BASE_BALANCE');\n        require(baseOutputAmount < base.balanceOf(address(this)).mul(10**uint256(18 - baseDecimals)), 'BASE_OUTPUT_HIGHER_CURRENT_TRADE_BALANCE');\n\n        // Make trade\n        token.transferFrom(msg.sender, address(this), tokenInputAmount.div(10**uint256(18 - tokenDecimals)));\n        base.transfer(msg.sender, baseOutputAmount.div(10**uint256(18 - baseDecimals)));\n\n        // Transfer fee\n        token.transfer(feeMachineContract, tradeFee.div(10**uint256(18 - tokenDecimals)));\n\n        emit onSwapTokenToBaseWithTokenInput(\n            msg.sender,\n            minBaseOutput.div(10**uint256(18 - baseDecimals)),\n            tokenInputAmount.div(10**uint256(18 - tokenDecimals)),\n            baseOutputAmount.div(10**uint256(18 - baseDecimals)),\n            baseReserve.div(10**uint256(18 - baseDecimals)),\n            tokenReserve.div(10**uint256(18 - tokenDecimals))\n        );\n    }\n\n    function swapTokenToBaseWithBaseOutput(uint256 maxTokenInput, uint256 baseOutputAmount, uint256 deadline) public onlyWhitelist whenNotPaused nonReentrant {\n        require(deadline >= block.timestamp, 'INVALID_DEADLINE');\n        require(maxTokenInput > 0, 'INVALID_MAX_TOKEN_INPUT');\n        require(baseOutputAmount > 0, 'INVALID_BASE_OUTPUT');\n        require(baseOutputAmount < base.balanceOf(address(this)), 'BASE_OUTPUT_HIGHER_CURRENT_TRADE_BALANCE');\n        \n        // Scale maxTokenInput to 18 decimals\n        maxTokenInput = maxTokenInput.mul(10**uint256(18 - tokenDecimals));\n\n        // Scale baseOutputAmount to 18 decimals\n        baseOutputAmount = baseOutputAmount.mul(10**uint256(18 - baseDecimals));\n\n        uint256 baseReserve = 0;\n        uint256 tokenReserve = 0;\n        (baseReserve, tokenReserve) = getTotalReserve();\n\n        // Scale baseReserve to 18 decimals\n        baseReserve = baseReserve.mul(10**uint256(18 - baseDecimals));\n\n        // Scale tokenReserve to 18 decimals\n        tokenReserve = tokenReserve.mul(10**uint256(18 - tokenDecimals));\n\n        require(baseOutputAmount < baseReserve, 'BASE_OUTPUT_HIGHER_POOL_BASE_BALANCE');\n\n        uint256 tokenInputAmount = getTokenInputAmountFromBaseOutput(baseOutputAmount, baseReserve, tokenReserve);\n        \n        uint256 tradeFee = tokenInputAmount.mul(TRADE_FEE).div(1000);\n        tokenInputAmount = tokenInputAmount.add(tradeFee); // add the TRADE_FEE to token input\n\n        require(tokenInputAmount <= maxTokenInput, 'CAN_NOT_MAKE_TRADE');\n        require(tokenInputAmount > 0, 'INVALID_TOKEN_INPUT');\n        require(tokenInputAmount <= token.balanceOf(msg.sender).mul(10**uint256(18 - tokenDecimals)), 'TOKEN_INPUT_HIGHER_USER_BALANCE');\n\n        // Make trade\n        token.transferFrom(msg.sender, address(this), tokenInputAmount.div(10**uint256(18 - tokenDecimals)));\n        base.transfer(msg.sender, baseOutputAmount.div(10**uint256(18 - baseDecimals)));\n\n        // Transfer fee\n        token.transfer(feeMachineContract, tradeFee.div(10**uint256(18 - tokenDecimals)));\n\n        emit onSwapTokenToBaseWithBaseOutput(\n            msg.sender,\n            maxTokenInput.div(10**uint256(18 - tokenDecimals)),\n            tokenInputAmount.div(10**uint256(18 - tokenDecimals)),\n            baseOutputAmount.div(10**uint256(18 - baseDecimals)),\n            baseReserve.div(10**uint256(18 - baseDecimals)),\n            tokenReserve.div(10**uint256(18 - tokenDecimals))\n        );\n    }\n\n    function addLP(uint256 minLP, uint256 baseInputAmount, uint256 maxTokenInputAmount, uint256 deadline) public onlyWhitelist nonReentrant returns (uint256) {\n        require(deadline >= block.timestamp, 'INVALID_DEADLINE');\n        require(minLP > 0, 'INVALID_MIN_LP');\n        require(baseInputAmount > 0, 'INVALID_BASE_INPUT');\n        require(maxTokenInputAmount > 0, 'INVALID_MAX_TOKEN_INPUT');\n\n        // Scale baseInputAmount to 18 decimals\n        baseInputAmount = baseInputAmount.mul(10**uint256(18 - baseDecimals));\n\n        // Scale maxTokenInputAmount to 18 decimals\n        maxTokenInputAmount = maxTokenInputAmount.mul(10**uint256(18 - tokenDecimals));\n        \n        uint256 totalSupply = totalSupply();\n        if(totalSupply == 0) {\n            // Scale back to respective decimals for transfer\n            base.transferFrom(msg.sender, address(this), baseInputAmount.div(10**uint256(18 - baseDecimals)));\n            token.transferFrom(msg.sender, address(this), maxTokenInputAmount.div(10**uint256(18 - tokenDecimals)));\n            \n            uint256 initLP = baseInputAmount;\n            _mint(msg.sender, initLP);\n            emit onAddLP(msg.sender, initLP, baseInputAmount, maxTokenInputAmount, base.balanceOf(address(this)), token.balanceOf(address(this)));\n            return initLP;\n        }\n        else { \n            // tokenReserve/baseReserve = (tokenReserve+tokenInputAmount)/(baseReserve+baseInputAmount)\n            // => tokenReserve+tokenInputAmount = tokenReserve*(baseReserve+baseInputAmount)/baseReserve\n            // => tokenInputAmount = tokenReserve*(baseReserve+baseInputAmount)/baseReserve - tokenReserve;\n            uint256 baseReserve = 0;\n            uint256 tokenReserve = 0;\n            (baseReserve, tokenReserve) = getTotalReserve();\n            uint256 tokenInputAmount = tokenReserve.mul(baseReserve.add(baseInputAmount)).div(baseReserve).sub(tokenReserve);\n\n            // mintLP/totalLP =  baseInputAmount/baseReserve\n            // mintLP = totalLP*baseInputAmount/baseReserve\n            uint256 mintLP = totalSupply.mul(baseInputAmount).div(baseReserve);\n            \n            require(tokenInputAmount > 0, 'INVALID_TOKEN_INPUT');\n            require(tokenInputAmount <= maxTokenInputAmount, 'INVALID_TOKEN_INPUT');\n            require(mintLP >= minLP, \"INVALID_MINT_LP\");\n\n            base.transferFrom(msg.sender, address(this), baseInputAmount.div(10**uint256(18 - baseDecimals)));\n            token.transferFrom(msg.sender, address(this), tokenInputAmount.div(10**uint256(18 - tokenDecimals)));\n\n            _mint(msg.sender, mintLP);\n            emit onAddLP(msg.sender, mintLP, baseInputAmount.div(10**uint256(18 - baseDecimals)), tokenInputAmount.div(10**uint256(18 - tokenDecimals)), base.balanceOf(address(this)), token.balanceOf(address(this)));\n            return mintLP;\n        }\n    }\n\n    function removeLP(uint256 amountLP, uint256 minBaseOutput, uint256 minTokenOutput, uint256 deadline) public onlyWhitelist nonReentrant returns (uint256, uint256) {\n        require(deadline >= block.timestamp, 'INVALID_DEADLINE');\n        require(amountLP > 0, 'INVALID_AMOUNT_LP');\n        require(minBaseOutput > 0, 'INVALID_MIN_BASE_OUTPUT');\n        require(minTokenOutput > 0, 'INVALID_MIN_TOKEN_OUTPUT');\n        \n        uint256 totalSupply = totalSupply();\n        \n        uint256 userLPbalance = balanceOf(msg.sender);\n        if(amountLP > userLPbalance) {\n            amountLP = userLPbalance;\n        }\n\n        require(amountLP <= totalSupply, 'INVALID_AMOUNT_LP_TOTAL_SUPPLY');\n         \n        uint256 baseReserve = 0;\n        uint256 tokenReserve = 0;\n        (baseReserve, tokenReserve) = getTotalReserve();\n\n        // Scale baseReserve to 18 decimals\n        baseReserve = baseReserve.mul(10**uint256(18 - baseDecimals));\n\n        // Scale tokenReserve to 18 decimals\n        tokenReserve = tokenReserve.mul(10**uint256(18 - tokenDecimals));\n        \n        // amountLP/totalSupply = baseOutputAmount/baseReserve\n        // => baseOutputAmount = amountLP*baseReserve/totalSupply\n        uint256 baseOutputAmount = amountLP.mul(baseReserve).div(totalSupply);\n        uint256 tokenOutputAmount = amountLP.mul(tokenReserve).div(totalSupply);\n\n        require(baseOutputAmount >= minBaseOutput, \"INVALID_BASE_OUTPUT\");\n        require(tokenOutputAmount >= minTokenOutput, \"INVALID_TOKEN_OUTPUT\");\n        require(baseOutputAmount <= baseReserve, \"BASE_OUTPUT_HIGHER_BASE_BALANCE\");\n        require(tokenOutputAmount <= tokenReserve, \"TOKEN_OUTPUT_HIGHER_TOKEN_BALANCE\");\n\n        _burn(msg.sender, amountLP);\n        // Scale back to respective decimals for transfer\n        base.transfer(msg.sender, baseOutputAmount.div(10**uint256(18 - baseDecimals)));\n        token.transfer(msg.sender, tokenOutputAmount.div(10**uint256(18 - tokenDecimals)));\n\n        emit onRemoveLP(msg.sender, amountLP, baseOutputAmount.div(10**uint256(18 - baseDecimals)), tokenOutputAmount.div(10**uint256(18 - tokenDecimals)), base.balanceOf(address(this)), token.balanceOf(address(this)));\n\n        return (baseOutputAmount.div(10**uint256(18 - baseDecimals)), tokenOutputAmount.div(10**uint256(18 - tokenDecimals)));\n    }\n\n    function getTotalReserve() public view returns (uint256, uint256) { \n        uint256 baseReserve = base.balanceOf(address(this));\n        uint256 tokenReserve = token.balanceOf(address(this));\n\n        return (baseReserve, tokenReserve);\n    }\n\n    function pause() public onlyOwner {\n        _pause();\n    }\n    \n    function unpause() public onlyOwner {\n        _unpause();\n    }\n}",
  "sourcePath": "/Applications/projects/breezy-contracts/contracts/BreezySwap/BreezySwapV1BREWETH.sol",
  "compiler": {
    "name": "solc",
    "version": "0.8.17+commit.8df45f5f.Emscripten.clang"
  },
  "schemaVersion": "3.4.13",
  "updatedAt": "2023-08-17T14:52:43.793Z",
  "devdoc": {
    "kind": "dev",
    "methods": {
      "allowance(address,address)": {
        "details": "See {IERC20-allowance}."
      },
      "approve(address,uint256)": {
        "details": "See {IERC20-approve}. NOTE: If `amount` is the maximum `uint256`, the allowance is not updated on `transferFrom`. This is semantically equivalent to an infinite approval. Requirements: - `spender` cannot be the zero address."
      },
      "balanceOf(address)": {
        "details": "See {IERC20-balanceOf}."
      },
      "burn(uint256)": {
        "details": "Destroys `amount` tokens from the caller. See {ERC20-_burn}."
      },
      "burnFrom(address,uint256)": {
        "details": "Destroys `amount` tokens from `account`, deducting from the caller's allowance. See {ERC20-_burn} and {ERC20-allowance}. Requirements: - the caller must have allowance for ``accounts``'s tokens of at least `amount`."
      },
      "decimals()": {
        "details": "Returns the number of decimals used to get its user representation. For example, if `decimals` equals `2`, a balance of `505` tokens should be displayed to a user as `5.05` (`505 / 10 ** 2`). Tokens usually opt for a value of 18, imitating the relationship between Ether and Wei. This is the default value returned by this function, unless it's overridden. NOTE: This information is only used for _display_ purposes: it in no way affects any of the arithmetic of the contract, including {IERC20-balanceOf} and {IERC20-transfer}."
      },
      "decreaseAllowance(address,uint256)": {
        "details": "Atomically decreases the allowance granted to `spender` by the caller. This is an alternative to {approve} that can be used as a mitigation for problems described in {IERC20-approve}. Emits an {Approval} event indicating the updated allowance. Requirements: - `spender` cannot be the zero address. - `spender` must have allowance for the caller of at least `subtractedValue`."
      },
      "increaseAllowance(address,uint256)": {
        "details": "Atomically increases the allowance granted to `spender` by the caller. This is an alternative to {approve} that can be used as a mitigation for problems described in {IERC20-approve}. Emits an {Approval} event indicating the updated allowance. Requirements: - `spender` cannot be the zero address."
      },
      "name()": {
        "details": "Returns the name of the token."
      },
      "owner()": {
        "details": "Returns the address of the current owner."
      },
      "paused()": {
        "details": "Returns true if the contract is paused, and false otherwise."
      },
      "renounceOwnership()": {
        "details": "Leaves the contract without owner. It will not be possible to call `onlyOwner` functions. Can only be called by the current owner. NOTE: Renouncing ownership will leave the contract without an owner, thereby disabling any functionality that is only available to the owner."
      },
      "symbol()": {
        "details": "Returns the symbol of the token, usually a shorter version of the name."
      },
      "totalSupply()": {
        "details": "See {IERC20-totalSupply}."
      },
      "transfer(address,uint256)": {
        "details": "See {IERC20-transfer}. Requirements: - `to` cannot be the zero address. - the caller must have a balance of at least `amount`."
      },
      "transferFrom(address,address,uint256)": {
        "details": "See {IERC20-transferFrom}. Emits an {Approval} event indicating the updated allowance. This is not required by the EIP. See the note at the beginning of {ERC20}. NOTE: Does not update the allowance if the current allowance is the maximum `uint256`. Requirements: - `from` and `to` cannot be the zero address. - `from` must have a balance of at least `amount`. - the caller must have allowance for ``from``'s tokens of at least `amount`."
      },
      "transferOwnership(address)": {
        "details": "Transfers ownership of the contract to a new account (`newOwner`). Can only be called by the current owner."
      }
    },
    "version": 1
  },
  "userdoc": {
    "kind": "user",
    "methods": {},
    "version": 1
  }
}