{
  "contractName": "BreezyNFTLPLock",
  "abi": [
    {
      "inputs": [],
      "stateMutability": "nonpayable",
      "type": "constructor"
    },
    {
      "anonymous": false,
      "inputs": [
        {
          "indexed": true,
          "internalType": "address",
          "name": "previousOwner",
          "type": "address"
        },
        {
          "indexed": true,
          "internalType": "address",
          "name": "newOwner",
          "type": "address"
        }
      ],
      "name": "OwnershipTransferred",
      "type": "event"
    },
    {
      "inputs": [],
      "name": "fundStartTime",
      "outputs": [
        {
          "internalType": "uint256",
          "name": "",
          "type": "uint256"
        }
      ],
      "stateMutability": "view",
      "type": "function"
    },
    {
      "inputs": [],
      "name": "owner",
      "outputs": [
        {
          "internalType": "address",
          "name": "",
          "type": "address"
        }
      ],
      "stateMutability": "view",
      "type": "function"
    },
    {
      "inputs": [],
      "name": "renounceOwnership",
      "outputs": [],
      "stateMutability": "nonpayable",
      "type": "function"
    },
    {
      "inputs": [
        {
          "internalType": "address",
          "name": "newOwner",
          "type": "address"
        }
      ],
      "name": "transferOwnership",
      "outputs": [],
      "stateMutability": "nonpayable",
      "type": "function"
    },
    {
      "inputs": [
        {
          "internalType": "address",
          "name": "operator",
          "type": "address"
        },
        {
          "internalType": "address",
          "name": "from",
          "type": "address"
        },
        {
          "internalType": "uint256",
          "name": "tokenId",
          "type": "uint256"
        },
        {
          "internalType": "bytes",
          "name": "data",
          "type": "bytes"
        }
      ],
      "name": "onERC721Received",
      "outputs": [
        {
          "internalType": "bytes4",
          "name": "",
          "type": "bytes4"
        }
      ],
      "stateMutability": "nonpayable",
      "type": "function"
    },
    {
      "inputs": [
        {
          "internalType": "contract IERC721",
          "name": "nft",
          "type": "address"
        },
        {
          "internalType": "uint256",
          "name": "tokenId",
          "type": "uint256"
        }
      ],
      "name": "releaseNFT",
      "outputs": [],
      "stateMutability": "nonpayable",
      "type": "function"
    }
  ],
  "bytecode": "0x608060405234801561001057600080fd5b5061001a33610023565b42600155610073565b600080546001600160a01b038381166001600160a01b0319831681178455604051919092169283917f8be0079c531659141344cd1fd0a4f28419497f9722a3daafe3b4186f6b6457e09190a35050565b610592806100826000396000f3fe608060405234801561001057600080fd5b50600436106100625760003560e01c8063150b7a0214610067578063715018a6146100a45780638b8ea0f4146100ae5780638da5cb5b146100c5578063c6f84afa146100e0578063f2fde38b146100f3575b600080fd5b61008661007536600461042f565b630a85bd0160e11b95945050505050565b6040516001600160e01b031990911681526020015b60405180910390f35b6100ac610106565b005b6100b760015481565b60405190815260200161009b565b6000546040516001600160a01b03909116815260200161009b565b6100ac6100ee3660046104ce565b61011a565b6100ac6101013660046104fa565b6102e2565b61010e61035b565b61011860006103b5565b565b61012261035b565b6001546101329062278d00610405565b4210156101945760405162461bcd60e51b815260206004820152602560248201527f4f6e65206d6f6e7468206c6f636b20706572696f64206973206e6f74206f76656044820152641c881e595d60da1b60648201526084015b60405180910390fd5b6040516331a9108f60e11b81526004810182905230906001600160a01b03841690636352211e90602401602060405180830381865afa1580156101db573d6000803e3d6000fd5b505050506040513d601f19601f820116820180604052508101906101ff919061051e565b6001600160a01b0316146102555760405162461bcd60e51b815260206004820152601e60248201527f436f6e747261637420646f6573206e6f74206f776e2074686973204e46540000604482015260640161018b565b816001600160a01b03166342842e0e306102776000546001600160a01b031690565b6040516001600160e01b031960e085901b1681526001600160a01b0392831660048201529116602482015260448101849052606401600060405180830381600087803b1580156102c657600080fd5b505af11580156102da573d6000803e3d6000fd5b505050505050565b6102ea61035b565b6001600160a01b03811661034f5760405162461bcd60e51b815260206004820152602660248201527f4f776e61626c653a206e6577206f776e657220697320746865207a65726f206160448201526564647265737360d01b606482015260840161018b565b610358816103b5565b50565b6000546001600160a01b031633146101185760405162461bcd60e51b815260206004820181905260248201527f4f776e61626c653a2063616c6c6572206973206e6f7420746865206f776e6572604482015260640161018b565b600080546001600160a01b038381166001600160a01b0319831681178455604051919092169283917f8be0079c531659141344cd1fd0a4f28419497f9722a3daafe3b4186f6b6457e09190a35050565b6000610411828461053b565b90505b92915050565b6001600160a01b038116811461035857600080fd5b60008060008060006080868803121561044757600080fd5b85356104528161041a565b945060208601356104628161041a565b935060408601359250606086013567ffffffffffffffff8082111561048657600080fd5b818801915088601f83011261049a57600080fd5b8135818111156104a957600080fd5b8960208285010111156104bb57600080fd5b9699959850939650602001949392505050565b600080604083850312156104e157600080fd5b82356104ec8161041a565b946020939093013593505050565b60006020828403121561050c57600080fd5b81356105178161041a565b9392505050565b60006020828403121561053057600080fd5b81516105178161041a565b8082018082111561041457634e487b7160e01b600052601160045260246000fdfea26469706673582212205cf77eeeb8a13c7d9e074e8bfe8e3868c8732106855cb6b9d70635475a30382064736f6c63430008110033",
  "immutableReferences": {},
  "source": "// SPDX-License-Identifier: MIT\npragma solidity >=0.6.12;\n\nimport \"@openzeppelin/contracts/access/Ownable.sol\";\nimport \"@openzeppelin/contracts/token/ERC721/IERC721.sol\";\nimport \"@openzeppelin/contracts/token/ERC721/IERC721Receiver.sol\";\nimport \"@openzeppelin/contracts/utils/math/SafeMath.sol\";\n\n/*\n * For more details, visit the following links:\n * Website: https://breezy.finance\n * Twitter: https://twitter.com/BreezyFinance\n * Telegram: https://t.me/BreezyFinanceChannel\n * GitHub: https://github.com/breezyfinance\n */\n\ncontract BreezyNFTLPLock is Ownable, IERC721Receiver {\n    \n    using SafeMath for uint256;\n\n    uint256 public fundStartTime; // time when the contract is deployed\n\n    modifier onlyAfterOneMonth {\n        require(block.timestamp >= fundStartTime.add(30 days), \"One month lock period is not over yet\");\n        _;\n    }\n\n    constructor() {\n        fundStartTime = block.timestamp;\n    }\n\n    // ERC721Receiver implementation\n    function onERC721Received(address operator, address from, uint256 tokenId, bytes calldata data) external override returns (bytes4) {\n        return this.onERC721Received.selector;\n    }\n\n    // Release the NFT\n    function releaseNFT(IERC721 nft, uint256 tokenId) external onlyOwner onlyAfterOneMonth {\n        require(nft.ownerOf(tokenId) == address(this), \"Contract does not own this NFT\");\n\n        // Transfer the NFT back to the owner\n        nft.safeTransferFrom(address(this), owner(), tokenId);\n    }\n}",
  "sourcePath": "/Applications/projects/breezy-contracts/contracts/BreezyNFTLPLock.sol",
  "compiler": {
    "name": "solc",
    "version": "0.8.17+commit.8df45f5f.Emscripten.clang"
  },
  "schemaVersion": "3.4.13",
  "updatedAt": "2023-08-22T15:27:09.384Z",
  "devdoc": {
    "kind": "dev",
    "methods": {
      "onERC721Received(address,address,uint256,bytes)": {
        "details": "Whenever an {IERC721} `tokenId` token is transferred to this contract via {IERC721-safeTransferFrom} by `operator` from `from`, this function is called. It must return its Solidity selector to confirm the token transfer. If any other value is returned or the interface is not implemented by the recipient, the transfer will be reverted. The selector can be obtained in Solidity with `IERC721Receiver.onERC721Received.selector`."
      },
      "owner()": {
        "details": "Returns the address of the current owner."
      },
      "renounceOwnership()": {
        "details": "Leaves the contract without owner. It will not be possible to call `onlyOwner` functions. Can only be called by the current owner. NOTE: Renouncing ownership will leave the contract without an owner, thereby disabling any functionality that is only available to the owner."
      },
      "transferOwnership(address)": {
        "details": "Transfers ownership of the contract to a new account (`newOwner`). Can only be called by the current owner."
      }
    },
    "version": 1
  },
  "userdoc": {
    "kind": "user",
    "methods": {},
    "version": 1
  }
}