{
  "contractName": "BreezyFarmingFund",
  "abi": [
    {
      "inputs": [],
      "stateMutability": "nonpayable",
      "type": "constructor"
    },
    {
      "anonymous": false,
      "inputs": [
        {
          "indexed": true,
          "internalType": "address",
          "name": "previousOwner",
          "type": "address"
        },
        {
          "indexed": true,
          "internalType": "address",
          "name": "newOwner",
          "type": "address"
        }
      ],
      "name": "OwnershipTransferred",
      "type": "event"
    },
    {
      "inputs": [],
      "name": "fundStartTime",
      "outputs": [
        {
          "internalType": "uint256",
          "name": "",
          "type": "uint256"
        }
      ],
      "stateMutability": "view",
      "type": "function"
    },
    {
      "inputs": [],
      "name": "owner",
      "outputs": [
        {
          "internalType": "address",
          "name": "",
          "type": "address"
        }
      ],
      "stateMutability": "view",
      "type": "function"
    },
    {
      "inputs": [],
      "name": "renounceOwnership",
      "outputs": [],
      "stateMutability": "nonpayable",
      "type": "function"
    },
    {
      "inputs": [
        {
          "internalType": "address",
          "name": "newOwner",
          "type": "address"
        }
      ],
      "name": "transferOwnership",
      "outputs": [],
      "stateMutability": "nonpayable",
      "type": "function"
    },
    {
      "inputs": [
        {
          "internalType": "contract IERC20",
          "name": "token",
          "type": "address"
        }
      ],
      "name": "releaseFarmingFund",
      "outputs": [],
      "stateMutability": "nonpayable",
      "type": "function"
    }
  ],
  "bytecode": "0x608060405234801561001057600080fd5b5061001a33610023565b42600155610073565b600080546001600160a01b038381166001600160a01b0319831681178455604051919092169283917f8be0079c531659141344cd1fd0a4f28419497f9722a3daafe3b4186f6b6457e09190a35050565b610450806100826000396000f3fe608060405234801561001057600080fd5b50600436106100575760003560e01c806333a8ddb41461005c578063715018a6146100715780638b8ea0f4146100795780638da5cb5b14610095578063f2fde38b146100b0575b600080fd5b61006f61006a36600461039a565b6100c3565b005b61006f610239565b61008260015481565b6040519081526020015b60405180910390f35b6000546040516001600160a01b03909116815260200161008c565b61006f6100be36600461039a565b61024d565b6100cb6102c6565b6001546100db9062278d00610320565b42101561013d5760405162461bcd60e51b815260206004820152602560248201527f4f6e65206d6f6e7468206c6f636b20706572696f64206973206e6f74206f76656044820152641c881e595d60da1b60648201526084015b60405180910390fd5b806001600160a01b031663a9059cbb61015e6000546001600160a01b031690565b6040516370a0823160e01b81523060048201526001600160a01b038516906370a0823190602401602060405180830381865afa1580156101a2573d6000803e3d6000fd5b505050506040513d601f19601f820116820180604052508101906101c691906103be565b6040516001600160e01b031960e085901b1681526001600160a01b03909216600483015260248201526044016020604051808303816000875af1158015610211573d6000803e3d6000fd5b505050506040513d601f19601f8201168201806040525081019061023591906103d7565b5050565b6102416102c6565b61024b6000610335565b565b6102556102c6565b6001600160a01b0381166102ba5760405162461bcd60e51b815260206004820152602660248201527f4f776e61626c653a206e6577206f776e657220697320746865207a65726f206160448201526564647265737360d01b6064820152608401610134565b6102c381610335565b50565b6000546001600160a01b0316331461024b5760405162461bcd60e51b815260206004820181905260248201527f4f776e61626c653a2063616c6c6572206973206e6f7420746865206f776e65726044820152606401610134565b600061032c82846103f9565b90505b92915050565b600080546001600160a01b038381166001600160a01b0319831681178455604051919092169283917f8be0079c531659141344cd1fd0a4f28419497f9722a3daafe3b4186f6b6457e09190a35050565b6001600160a01b03811681146102c357600080fd5b6000602082840312156103ac57600080fd5b81356103b781610385565b9392505050565b6000602082840312156103d057600080fd5b5051919050565b6000602082840312156103e957600080fd5b815180151581146103b757600080fd5b8082018082111561032f57634e487b7160e01b600052601160045260246000fdfea2646970667358221220750da9906b1dc73263d14d29a519edb34b466a26d4f3dd8bb5318380b943838364736f6c63430008110033",
  "immutableReferences": {},
  "source": "// SPDX-License-Identifier: MIT\npragma solidity >=0.6.12;\n\nimport \"@openzeppelin/contracts/utils/math/SafeMath.sol\";\nimport \"@openzeppelin/contracts/token/ERC20/IERC20.sol\";\nimport \"@openzeppelin/contracts/access/Ownable.sol\";\n\n/*\n * For more details, visit the following links:\n * Website: https://breezy.finance\n * Twitter: https://twitter.com/BreezyFinance\n * Telegram: https://t.me/BreezyFinanceChannel\n * GitHub: https://github.com/breezyfinance\n */\n\ncontract BreezyFarmingFund is Ownable {\n\n    using SafeMath for uint256;\n\n    uint256 public fundStartTime; // time when the contract is deployed\n\n    modifier onlyAfterOneMonth {\n        require(block.timestamp >= fundStartTime.add(30 days), \"One month lock period is not over yet\");\n        _;\n    }\n\n    constructor() public {\n        fundStartTime = block.timestamp;\n    }\n\n    function releaseFarmingFund(IERC20 token) public onlyOwner onlyAfterOneMonth {\n        token.transfer(owner(), token.balanceOf(address(this)));\n    }\n\n}\n",
  "sourcePath": "/Applications/projects/breezy-contracts/contracts/BreezyFarmingFund.sol",
  "compiler": {
    "name": "solc",
    "version": "0.8.17+commit.8df45f5f.Emscripten.clang"
  },
  "schemaVersion": "3.4.13",
  "updatedAt": "2023-10-09T13:59:09.898Z",
  "networkType": "ethereum",
  "devdoc": {
    "kind": "dev",
    "methods": {
      "owner()": {
        "details": "Returns the address of the current owner."
      },
      "renounceOwnership()": {
        "details": "Leaves the contract without owner. It will not be possible to call `onlyOwner` functions. Can only be called by the current owner. NOTE: Renouncing ownership will leave the contract without an owner, thereby disabling any functionality that is only available to the owner."
      },
      "transferOwnership(address)": {
        "details": "Transfers ownership of the contract to a new account (`newOwner`). Can only be called by the current owner."
      }
    },
    "version": 1
  },
  "userdoc": {
    "kind": "user",
    "methods": {},
    "version": 1
  }
}