{
  "contractName": "BreezySwapV1BREWETH",
  "abi": [
    {
      "inputs": [
        {
          "internalType": "contract IERC20Metadata",
          "name": "_base",
          "type": "address"
        },
        {
          "internalType": "contract IERC20Metadata",
          "name": "_token",
          "type": "address"
        },
        {
          "internalType": "address",
          "name": "_feeMachineContract",
          "type": "address"
        },
        {
          "internalType": "contract IBreezyWhitelist",
          "name": "_whitelistContract",
          "type": "address"
        },
        {
          "internalType": "string",
          "name": "name",
          "type": "string"
        },
        {
          "internalType": "string",
          "name": "symbol",
          "type": "string"
        }
      ],
      "stateMutability": "nonpayable",
      "type": "constructor"
    },
    {
      "anonymous": false,
      "inputs": [
        {
          "indexed": true,
          "internalType": "address",
          "name": "owner",
          "type": "address"
        },
        {
          "indexed": true,
          "internalType": "address",
          "name": "spender",
          "type": "address"
        },
        {
          "indexed": false,
          "internalType": "uint256",
          "name": "value",
          "type": "uint256"
        }
      ],
      "name": "Approval",
      "type": "event"
    },
    {
      "anonymous": false,
      "inputs": [
        {
          "indexed": true,
          "internalType": "address",
          "name": "previousOwner",
          "type": "address"
        },
        {
          "indexed": true,
          "internalType": "address",
          "name": "newOwner",
          "type": "address"
        }
      ],
      "name": "OwnershipTransferred",
      "type": "event"
    },
    {
      "anonymous": false,
      "inputs": [
        {
          "indexed": false,
          "internalType": "address",
          "name": "account",
          "type": "address"
        }
      ],
      "name": "Paused",
      "type": "event"
    },
    {
      "anonymous": false,
      "inputs": [
        {
          "indexed": true,
          "internalType": "address",
          "name": "from",
          "type": "address"
        },
        {
          "indexed": true,
          "internalType": "address",
          "name": "to",
          "type": "address"
        },
        {
          "indexed": false,
          "internalType": "uint256",
          "name": "value",
          "type": "uint256"
        }
      ],
      "name": "Transfer",
      "type": "event"
    },
    {
      "anonymous": false,
      "inputs": [
        {
          "indexed": false,
          "internalType": "address",
          "name": "account",
          "type": "address"
        }
      ],
      "name": "Unpaused",
      "type": "event"
    },
    {
      "anonymous": false,
      "inputs": [
        {
          "indexed": false,
          "internalType": "address",
          "name": "sender",
          "type": "address"
        },
        {
          "indexed": false,
          "internalType": "uint256",
          "name": "mintLP",
          "type": "uint256"
        },
        {
          "indexed": false,
          "internalType": "uint256",
          "name": "baseInputAmount",
          "type": "uint256"
        },
        {
          "indexed": false,
          "internalType": "uint256",
          "name": "tokenInputAmount",
          "type": "uint256"
        },
        {
          "indexed": false,
          "internalType": "uint256",
          "name": "poolBaseBalance",
          "type": "uint256"
        },
        {
          "indexed": false,
          "internalType": "uint256",
          "name": "poolTokenBalance",
          "type": "uint256"
        }
      ],
      "name": "onAddLP",
      "type": "event"
    },
    {
      "anonymous": false,
      "inputs": [
        {
          "indexed": false,
          "internalType": "address",
          "name": "sender",
          "type": "address"
        },
        {
          "indexed": false,
          "internalType": "uint256",
          "name": "amountLP",
          "type": "uint256"
        },
        {
          "indexed": false,
          "internalType": "uint256",
          "name": "baseOutputAmout",
          "type": "uint256"
        },
        {
          "indexed": false,
          "internalType": "uint256",
          "name": "tokenOutputAmount",
          "type": "uint256"
        },
        {
          "indexed": false,
          "internalType": "uint256",
          "name": "poolBaseBalance",
          "type": "uint256"
        },
        {
          "indexed": false,
          "internalType": "uint256",
          "name": "poolTokenBalance",
          "type": "uint256"
        }
      ],
      "name": "onRemoveLP",
      "type": "event"
    },
    {
      "anonymous": false,
      "inputs": [
        {
          "indexed": false,
          "internalType": "address",
          "name": "sender",
          "type": "address"
        },
        {
          "indexed": false,
          "internalType": "uint256",
          "name": "minTokenOutput",
          "type": "uint256"
        },
        {
          "indexed": false,
          "internalType": "uint256",
          "name": "baseInputAmount",
          "type": "uint256"
        },
        {
          "indexed": false,
          "internalType": "uint256",
          "name": "tokenOutputAmount",
          "type": "uint256"
        },
        {
          "indexed": false,
          "internalType": "uint256",
          "name": "poolBaseBalance",
          "type": "uint256"
        },
        {
          "indexed": false,
          "internalType": "uint256",
          "name": "poolTokenBalance",
          "type": "uint256"
        }
      ],
      "name": "onSwapBaseToTokenWithBaseInput",
      "type": "event"
    },
    {
      "anonymous": false,
      "inputs": [
        {
          "indexed": false,
          "internalType": "address",
          "name": "sender",
          "type": "address"
        },
        {
          "indexed": false,
          "internalType": "uint256",
          "name": "maxBaseInput",
          "type": "uint256"
        },
        {
          "indexed": false,
          "internalType": "uint256",
          "name": "baseInputAmount",
          "type": "uint256"
        },
        {
          "indexed": false,
          "internalType": "uint256",
          "name": "tokenOutputAmount",
          "type": "uint256"
        },
        {
          "indexed": false,
          "internalType": "uint256",
          "name": "poolBaseBalance",
          "type": "uint256"
        },
        {
          "indexed": false,
          "internalType": "uint256",
          "name": "poolTokenBalance",
          "type": "uint256"
        }
      ],
      "name": "onSwapBaseToTokenWithTokenOutput",
      "type": "event"
    },
    {
      "anonymous": false,
      "inputs": [
        {
          "indexed": false,
          "internalType": "address",
          "name": "sender",
          "type": "address"
        },
        {
          "indexed": false,
          "internalType": "uint256",
          "name": "maxTokenInput",
          "type": "uint256"
        },
        {
          "indexed": false,
          "internalType": "uint256",
          "name": "tokenInputAmount",
          "type": "uint256"
        },
        {
          "indexed": false,
          "internalType": "uint256",
          "name": "baseOutputAmount",
          "type": "uint256"
        },
        {
          "indexed": false,
          "internalType": "uint256",
          "name": "poolBaseBalance",
          "type": "uint256"
        },
        {
          "indexed": false,
          "internalType": "uint256",
          "name": "poolTokenBalance",
          "type": "uint256"
        }
      ],
      "name": "onSwapTokenToBaseWithBaseOutput",
      "type": "event"
    },
    {
      "anonymous": false,
      "inputs": [
        {
          "indexed": false,
          "internalType": "address",
          "name": "sender",
          "type": "address"
        },
        {
          "indexed": false,
          "internalType": "uint256",
          "name": "minBaseOutput",
          "type": "uint256"
        },
        {
          "indexed": false,
          "internalType": "uint256",
          "name": "tokenInputAmount",
          "type": "uint256"
        },
        {
          "indexed": false,
          "internalType": "uint256",
          "name": "baseOutputAmount",
          "type": "uint256"
        },
        {
          "indexed": false,
          "internalType": "uint256",
          "name": "poolBaseBalance",
          "type": "uint256"
        },
        {
          "indexed": false,
          "internalType": "uint256",
          "name": "poolTokenBalance",
          "type": "uint256"
        }
      ],
      "name": "onSwapTokenToBaseWithTokenInput",
      "type": "event"
    },
    {
      "inputs": [],
      "name": "TRADE_FEE",
      "outputs": [
        {
          "internalType": "uint256",
          "name": "",
          "type": "uint256"
        }
      ],
      "stateMutability": "view",
      "type": "function"
    },
    {
      "inputs": [
        {
          "internalType": "address",
          "name": "owner",
          "type": "address"
        },
        {
          "internalType": "address",
          "name": "spender",
          "type": "address"
        }
      ],
      "name": "allowance",
      "outputs": [
        {
          "internalType": "uint256",
          "name": "",
          "type": "uint256"
        }
      ],
      "stateMutability": "view",
      "type": "function"
    },
    {
      "inputs": [
        {
          "internalType": "address",
          "name": "spender",
          "type": "address"
        },
        {
          "internalType": "uint256",
          "name": "amount",
          "type": "uint256"
        }
      ],
      "name": "approve",
      "outputs": [
        {
          "internalType": "bool",
          "name": "",
          "type": "bool"
        }
      ],
      "stateMutability": "nonpayable",
      "type": "function"
    },
    {
      "inputs": [
        {
          "internalType": "address",
          "name": "account",
          "type": "address"
        }
      ],
      "name": "balanceOf",
      "outputs": [
        {
          "internalType": "uint256",
          "name": "",
          "type": "uint256"
        }
      ],
      "stateMutability": "view",
      "type": "function"
    },
    {
      "inputs": [],
      "name": "base",
      "outputs": [
        {
          "internalType": "contract IERC20Metadata",
          "name": "",
          "type": "address"
        }
      ],
      "stateMutability": "view",
      "type": "function"
    },
    {
      "inputs": [],
      "name": "baseDecimals",
      "outputs": [
        {
          "internalType": "uint8",
          "name": "",
          "type": "uint8"
        }
      ],
      "stateMutability": "view",
      "type": "function"
    },
    {
      "inputs": [
        {
          "internalType": "uint256",
          "name": "amount",
          "type": "uint256"
        }
      ],
      "name": "burn",
      "outputs": [],
      "stateMutability": "nonpayable",
      "type": "function"
    },
    {
      "inputs": [
        {
          "internalType": "address",
          "name": "account",
          "type": "address"
        },
        {
          "internalType": "uint256",
          "name": "amount",
          "type": "uint256"
        }
      ],
      "name": "burnFrom",
      "outputs": [],
      "stateMutability": "nonpayable",
      "type": "function"
    },
    {
      "inputs": [],
      "name": "decimals",
      "outputs": [
        {
          "internalType": "uint8",
          "name": "",
          "type": "uint8"
        }
      ],
      "stateMutability": "view",
      "type": "function"
    },
    {
      "inputs": [
        {
          "internalType": "address",
          "name": "spender",
          "type": "address"
        },
        {
          "internalType": "uint256",
          "name": "subtractedValue",
          "type": "uint256"
        }
      ],
      "name": "decreaseAllowance",
      "outputs": [
        {
          "internalType": "bool",
          "name": "",
          "type": "bool"
        }
      ],
      "stateMutability": "nonpayable",
      "type": "function"
    },
    {
      "inputs": [],
      "name": "feeMachineContract",
      "outputs": [
        {
          "internalType": "address",
          "name": "",
          "type": "address"
        }
      ],
      "stateMutability": "view",
      "type": "function"
    },
    {
      "inputs": [
        {
          "internalType": "address",
          "name": "spender",
          "type": "address"
        },
        {
          "internalType": "uint256",
          "name": "addedValue",
          "type": "uint256"
        }
      ],
      "name": "increaseAllowance",
      "outputs": [
        {
          "internalType": "bool",
          "name": "",
          "type": "bool"
        }
      ],
      "stateMutability": "nonpayable",
      "type": "function"
    },
    {
      "inputs": [],
      "name": "name",
      "outputs": [
        {
          "internalType": "string",
          "name": "",
          "type": "string"
        }
      ],
      "stateMutability": "view",
      "type": "function"
    },
    {
      "inputs": [],
      "name": "owner",
      "outputs": [
        {
          "internalType": "address",
          "name": "",
          "type": "address"
        }
      ],
      "stateMutability": "view",
      "type": "function"
    },
    {
      "inputs": [],
      "name": "paused",
      "outputs": [
        {
          "internalType": "bool",
          "name": "",
          "type": "bool"
        }
      ],
      "stateMutability": "view",
      "type": "function"
    },
    {
      "inputs": [],
      "name": "renounceOwnership",
      "outputs": [],
      "stateMutability": "nonpayable",
      "type": "function"
    },
    {
      "inputs": [],
      "name": "symbol",
      "outputs": [
        {
          "internalType": "string",
          "name": "",
          "type": "string"
        }
      ],
      "stateMutability": "view",
      "type": "function"
    },
    {
      "inputs": [],
      "name": "token",
      "outputs": [
        {
          "internalType": "contract IERC20Metadata",
          "name": "",
          "type": "address"
        }
      ],
      "stateMutability": "view",
      "type": "function"
    },
    {
      "inputs": [],
      "name": "tokenDecimals",
      "outputs": [
        {
          "internalType": "uint8",
          "name": "",
          "type": "uint8"
        }
      ],
      "stateMutability": "view",
      "type": "function"
    },
    {
      "inputs": [],
      "name": "totalSupply",
      "outputs": [
        {
          "internalType": "uint256",
          "name": "",
          "type": "uint256"
        }
      ],
      "stateMutability": "view",
      "type": "function"
    },
    {
      "inputs": [
        {
          "internalType": "address",
          "name": "to",
          "type": "address"
        },
        {
          "internalType": "uint256",
          "name": "amount",
          "type": "uint256"
        }
      ],
      "name": "transfer",
      "outputs": [
        {
          "internalType": "bool",
          "name": "",
          "type": "bool"
        }
      ],
      "stateMutability": "nonpayable",
      "type": "function"
    },
    {
      "inputs": [
        {
          "internalType": "address",
          "name": "from",
          "type": "address"
        },
        {
          "internalType": "address",
          "name": "to",
          "type": "address"
        },
        {
          "internalType": "uint256",
          "name": "amount",
          "type": "uint256"
        }
      ],
      "name": "transferFrom",
      "outputs": [
        {
          "internalType": "bool",
          "name": "",
          "type": "bool"
        }
      ],
      "stateMutability": "nonpayable",
      "type": "function"
    },
    {
      "inputs": [
        {
          "internalType": "address",
          "name": "newOwner",
          "type": "address"
        }
      ],
      "name": "transferOwnership",
      "outputs": [],
      "stateMutability": "nonpayable",
      "type": "function"
    },
    {
      "inputs": [],
      "name": "whitelistContract",
      "outputs": [
        {
          "internalType": "contract IBreezyWhitelist",
          "name": "",
          "type": "address"
        }
      ],
      "stateMutability": "view",
      "type": "function"
    },
    {
      "inputs": [
        {
          "internalType": "address",
          "name": "_whitelistContract",
          "type": "address"
        }
      ],
      "name": "setWhitelistContract",
      "outputs": [],
      "stateMutability": "nonpayable",
      "type": "function"
    },
    {
      "inputs": [
        {
          "internalType": "address",
          "name": "_feeMachineContract",
          "type": "address"
        }
      ],
      "name": "setFeeMachineContract",
      "outputs": [],
      "stateMutability": "nonpayable",
      "type": "function"
    },
    {
      "inputs": [
        {
          "internalType": "uint256",
          "name": "_tradeFee",
          "type": "uint256"
        }
      ],
      "name": "setTradeFee",
      "outputs": [],
      "stateMutability": "nonpayable",
      "type": "function"
    },
    {
      "inputs": [],
      "name": "getK",
      "outputs": [
        {
          "internalType": "uint256",
          "name": "",
          "type": "uint256"
        }
      ],
      "stateMutability": "view",
      "type": "function"
    },
    {
      "inputs": [
        {
          "internalType": "uint256",
          "name": "baseInputAmount",
          "type": "uint256"
        }
      ],
      "name": "getTokenOutput",
      "outputs": [
        {
          "internalType": "uint256",
          "name": "",
          "type": "uint256"
        }
      ],
      "stateMutability": "view",
      "type": "function"
    },
    {
      "inputs": [
        {
          "internalType": "uint256",
          "name": "tokenInputAmount",
          "type": "uint256"
        }
      ],
      "name": "getBaseOutput",
      "outputs": [
        {
          "internalType": "uint256",
          "name": "",
          "type": "uint256"
        }
      ],
      "stateMutability": "view",
      "type": "function"
    },
    {
      "inputs": [
        {
          "internalType": "uint256",
          "name": "baseInputAmount",
          "type": "uint256"
        }
      ],
      "name": "getDataFromBaseInputToAddLp",
      "outputs": [
        {
          "internalType": "uint256",
          "name": "",
          "type": "uint256"
        },
        {
          "internalType": "uint256",
          "name": "",
          "type": "uint256"
        }
      ],
      "stateMutability": "view",
      "type": "function"
    },
    {
      "inputs": [
        {
          "internalType": "uint256",
          "name": "tokenInputAmount",
          "type": "uint256"
        }
      ],
      "name": "getDataFromTokenInputToAddLp",
      "outputs": [
        {
          "internalType": "uint256",
          "name": "",
          "type": "uint256"
        },
        {
          "internalType": "uint256",
          "name": "",
          "type": "uint256"
        }
      ],
      "stateMutability": "view",
      "type": "function"
    },
    {
      "inputs": [
        {
          "internalType": "uint256",
          "name": "amountLP",
          "type": "uint256"
        }
      ],
      "name": "getDataToRemoveLP",
      "outputs": [
        {
          "internalType": "uint256",
          "name": "",
          "type": "uint256"
        },
        {
          "internalType": "uint256",
          "name": "",
          "type": "uint256"
        }
      ],
      "stateMutability": "view",
      "type": "function"
    },
    {
      "inputs": [
        {
          "internalType": "uint256",
          "name": "baseInputAmount",
          "type": "uint256"
        },
        {
          "internalType": "uint256",
          "name": "baseReserve",
          "type": "uint256"
        },
        {
          "internalType": "uint256",
          "name": "tokenReserve",
          "type": "uint256"
        }
      ],
      "name": "getTokenOutputAmountFromBaseInput",
      "outputs": [
        {
          "internalType": "uint256",
          "name": "",
          "type": "uint256"
        }
      ],
      "stateMutability": "pure",
      "type": "function"
    },
    {
      "inputs": [
        {
          "internalType": "uint256",
          "name": "tokenOutputAmount",
          "type": "uint256"
        },
        {
          "internalType": "uint256",
          "name": "baseReserve",
          "type": "uint256"
        },
        {
          "internalType": "uint256",
          "name": "tokenReserve",
          "type": "uint256"
        }
      ],
      "name": "getBaseInputAmountFromTokenOutput",
      "outputs": [
        {
          "internalType": "uint256",
          "name": "",
          "type": "uint256"
        }
      ],
      "stateMutability": "pure",
      "type": "function"
    },
    {
      "inputs": [
        {
          "internalType": "uint256",
          "name": "tokenInputAmount",
          "type": "uint256"
        },
        {
          "internalType": "uint256",
          "name": "baseReserve",
          "type": "uint256"
        },
        {
          "internalType": "uint256",
          "name": "tokenReserve",
          "type": "uint256"
        }
      ],
      "name": "getBaseOutputAmountFromTokenInput",
      "outputs": [
        {
          "internalType": "uint256",
          "name": "",
          "type": "uint256"
        }
      ],
      "stateMutability": "pure",
      "type": "function"
    },
    {
      "inputs": [
        {
          "internalType": "uint256",
          "name": "baseOutputAmount",
          "type": "uint256"
        },
        {
          "internalType": "uint256",
          "name": "baseReserve",
          "type": "uint256"
        },
        {
          "internalType": "uint256",
          "name": "tokenReserve",
          "type": "uint256"
        }
      ],
      "name": "getTokenInputAmountFromBaseOutput",
      "outputs": [
        {
          "internalType": "uint256",
          "name": "",
          "type": "uint256"
        }
      ],
      "stateMutability": "pure",
      "type": "function"
    },
    {
      "inputs": [
        {
          "internalType": "uint256",
          "name": "baseInputAmount",
          "type": "uint256"
        },
        {
          "internalType": "uint256",
          "name": "minTokenOutput",
          "type": "uint256"
        },
        {
          "internalType": "uint256",
          "name": "deadline",
          "type": "uint256"
        }
      ],
      "name": "swapBaseToTokenWithBaseInput",
      "outputs": [],
      "stateMutability": "nonpayable",
      "type": "function"
    },
    {
      "inputs": [
        {
          "internalType": "uint256",
          "name": "maxBaseInput",
          "type": "uint256"
        },
        {
          "internalType": "uint256",
          "name": "tokenOutputAmount",
          "type": "uint256"
        },
        {
          "internalType": "uint256",
          "name": "deadline",
          "type": "uint256"
        }
      ],
      "name": "swapBaseToTokenWithTokenOutput",
      "outputs": [],
      "stateMutability": "nonpayable",
      "type": "function"
    },
    {
      "inputs": [
        {
          "internalType": "uint256",
          "name": "tokenInputAmount",
          "type": "uint256"
        },
        {
          "internalType": "uint256",
          "name": "minBaseOutput",
          "type": "uint256"
        },
        {
          "internalType": "uint256",
          "name": "deadline",
          "type": "uint256"
        }
      ],
      "name": "swapTokenToBaseWithTokenInput",
      "outputs": [],
      "stateMutability": "nonpayable",
      "type": "function"
    },
    {
      "inputs": [
        {
          "internalType": "uint256",
          "name": "maxTokenInput",
          "type": "uint256"
        },
        {
          "internalType": "uint256",
          "name": "baseOutputAmount",
          "type": "uint256"
        },
        {
          "internalType": "uint256",
          "name": "deadline",
          "type": "uint256"
        }
      ],
      "name": "swapTokenToBaseWithBaseOutput",
      "outputs": [],
      "stateMutability": "nonpayable",
      "type": "function"
    },
    {
      "inputs": [
        {
          "internalType": "uint256",
          "name": "minLP",
          "type": "uint256"
        },
        {
          "internalType": "uint256",
          "name": "baseInputAmount",
          "type": "uint256"
        },
        {
          "internalType": "uint256",
          "name": "maxTokenInputAmount",
          "type": "uint256"
        },
        {
          "internalType": "uint256",
          "name": "deadline",
          "type": "uint256"
        }
      ],
      "name": "addLP",
      "outputs": [
        {
          "internalType": "uint256",
          "name": "",
          "type": "uint256"
        }
      ],
      "stateMutability": "nonpayable",
      "type": "function"
    },
    {
      "inputs": [
        {
          "internalType": "uint256",
          "name": "amountLP",
          "type": "uint256"
        },
        {
          "internalType": "uint256",
          "name": "minBaseOutput",
          "type": "uint256"
        },
        {
          "internalType": "uint256",
          "name": "minTokenOutput",
          "type": "uint256"
        },
        {
          "internalType": "uint256",
          "name": "deadline",
          "type": "uint256"
        }
      ],
      "name": "removeLP",
      "outputs": [
        {
          "internalType": "uint256",
          "name": "",
          "type": "uint256"
        },
        {
          "internalType": "uint256",
          "name": "",
          "type": "uint256"
        }
      ],
      "stateMutability": "nonpayable",
      "type": "function"
    },
    {
      "inputs": [],
      "name": "getTotalReserve",
      "outputs": [
        {
          "internalType": "uint256",
          "name": "",
          "type": "uint256"
        },
        {
          "internalType": "uint256",
          "name": "",
          "type": "uint256"
        }
      ],
      "stateMutability": "view",
      "type": "function"
    },
    {
      "inputs": [],
      "name": "pause",
      "outputs": [],
      "stateMutability": "nonpayable",
      "type": "function"
    },
    {
      "inputs": [],
      "name": "unpause",
      "outputs": [],
      "stateMutability": "nonpayable",
      "type": "function"
    }
  ],
  "bytecode": "0x60806040526002600b553480156200001657600080fd5b5060405162004cbf38038062004cbf83398101604081905262000039916200031f565b818160036200004983826200046d565b5060046200005882826200046d565b505050620000756200006f620001eb60201b60201c565b620001ef565b6005805460ff60a01b191690556001600655600780546001600160a01b038089166001600160a01b0319928316811790935560088054898316908416179055600a805487831690841617905560098054918816919092161790556040805163313ce56760e01b8152905163313ce567916004808201926020929091908290030181865afa1580156200010b573d6000803e3d6000fd5b505050506040513d601f19601f8201168201806040525081019062000131919062000539565b600860146101000a81548160ff021916908360ff160217905550600860009054906101000a90046001600160a01b03166001600160a01b031663313ce5676040518163ffffffff1660e01b8152600401602060405180830381865afa1580156200019f573d6000803e3d6000fd5b505050506040513d601f19601f82011682018060405250810190620001c5919062000539565b600860156101000a81548160ff021916908360ff16021790555050505050505062000565565b3390565b600580546001600160a01b038381166001600160a01b0319831681179093556040519116919082907f8be0079c531659141344cd1fd0a4f28419497f9722a3daafe3b4186f6b6457e090600090a35050565b6001600160a01b03811681146200025757600080fd5b50565b634e487b7160e01b600052604160045260246000fd5b600082601f8301126200028257600080fd5b81516001600160401b03808211156200029f576200029f6200025a565b604051601f8301601f19908116603f01168101908282118183101715620002ca57620002ca6200025a565b81604052838152602092508683858801011115620002e757600080fd5b600091505b838210156200030b5785820183015181830184015290820190620002ec565b600093810190920192909252949350505050565b60008060008060008060c087890312156200033957600080fd5b8651620003468162000241565b6020880151909650620003598162000241565b60408801519095506200036c8162000241565b60608801519094506200037f8162000241565b60808801519093506001600160401b03808211156200039d57600080fd5b620003ab8a838b0162000270565b935060a0890151915080821115620003c257600080fd5b50620003d189828a0162000270565b9150509295509295509295565b600181811c90821680620003f357607f821691505b6020821081036200041457634e487b7160e01b600052602260045260246000fd5b50919050565b601f8211156200046857600081815260208120601f850160051c81016020861015620004435750805b601f850160051c820191505b8181101562000464578281556001016200044f565b5050505b505050565b81516001600160401b038111156200048957620004896200025a565b620004a1816200049a8454620003de565b846200041a565b602080601f831160018114620004d95760008415620004c05750858301515b600019600386901b1c1916600185901b17855562000464565b600085815260208120601f198616915b828110156200050a57888601518255948401946001909101908401620004e9565b5085821015620005295787850151600019600388901b60f8161c191681555b5050505050600190811b01905550565b6000602082840312156200054c57600080fd5b815160ff811681146200055e57600080fd5b9392505050565b61474a80620005756000396000f3fe608060405234801561001057600080fd5b506004361061028a5760003560e01c8063715018a61161015c578063b7c3ba45116100ce578063e50a38d711610087578063e50a38d7146105b5578063ec022918146105c8578063ed385625146105d0578063ee39e7a0146105e3578063f2fde38b146105eb578063fc0c546a146105fe57600080fd5b8063b7c3ba451461054d578063c6e842fc14610560578063d0e9de6c14610573578063d132296214610586578063dbcfbf2f1461058f578063dd62ed3e146105a257600080fd5b806384900b041161012057806384900b04146104e85780638da5cb5b146104fb57806395d89b411461050c57806397bb21c614610514578063a457c2d714610527578063a9059cbb1461053a57600080fd5b8063715018a61461049f57806373dd25a3146104a757806376125deb146104ba57806379cc6790146104cd5780638456cb59146104e057600080fd5b806339509351116102005780635c975abb116101b95780635c975abb1461040357806360b1765c14610415578063635f95ff146104285780636662d1771461043b57806370a0823114610463578063711f61421461048c57600080fd5b806339509351146103835780633b97e856146103965780633f4ba83a146103aa57806342966c68146103b257806342eba2ce146103c55780635001f3b5146103f057600080fd5b806312f261401161025257806312f261401461031957806318160ddd1461032c57806323b872dd146103345780632916bc1014610347578063313ce5671461035a57806333f761781461036f57600080fd5b806303bf04c11461028f57806306fdde03146102a4578063095ea7b3146102c257806310603023146102e557806311fbded3146102f8575b600080fd5b6102a261029d366004614100565b610611565b005b6102ac610d58565b6040516102b9919061412c565b60405180910390f35b6102d56102d0366004614196565b610dea565b60405190151581526020016102b9565b6102a26102f33660046141c0565b610e04565b61030b6103063660046141c0565b610e11565b6040519081526020016102b9565b6102a26103273660046141d9565b610ef7565b60025461030b565b6102d56103423660046141f4565b610f69565b61030b610355366004614100565b610f8d565b60125b60405160ff90911681526020016102b9565b60085461035d90600160a01b900460ff1681565b6102d5610391366004614196565b610fec565b60085461035d90600160a81b900460ff1681565b6102a261100e565b6102a26103c03660046141c0565b611020565b6009546103d8906001600160a01b031681565b6040516001600160a01b0390911681526020016102b9565b6007546103d8906001600160a01b031681565b600554600160a01b900460ff166102d5565b61030b610423366004614230565b61102d565b61030b6104363660046141c0565b611926565b61044e6104493660046141c0565b6119ec565b604080519283526020830191909152016102b9565b61030b6104713660046141d9565b6001600160a01b031660009081526020819052604090205490565b61044e61049a3660046141c0565b611af6565b6102a2611bca565b6102a26104b5366004614100565b611bdc565b61044e6104c8366004614230565b61221c565b6102a26104db366004614196565b6128e6565b6102a26128ff565b600a546103d8906001600160a01b031681565b6005546001600160a01b03166103d8565b6102ac61290f565b61030b610522366004614100565b61291e565b6102d5610535366004614196565b612977565b6102d5610548366004614196565b6129f2565b61030b61055b366004614100565b612a00565b61044e61056e3660046141c0565b612a59565b6102a2610581366004614100565b612b34565b61030b600b5481565b61030b61059d366004614100565b6130fa565b61030b6105b0366004614262565b613159565b6102a26105c3366004614100565b613184565b61044e613769565b6102a26105de3660046141d9565b613857565b61030b6138c9565b6102a26105f93660046141d9565b6138e6565b6008546103d8906001600160a01b031681565b3332146106ae57600a54604051636c9b2a3f60e11b81523360048201526001600160a01b039091169063d936547e90602401602060405180830381865afa158015610660573d6000803e3d6000fd5b505050506040513d601f19601f820116820180604052508101906106849190614295565b15156001146106ae5760405162461bcd60e51b81526004016106a5906142b7565b60405180910390fd5b6106b661395c565b6106be6139a9565b428110156106de5760405162461bcd60e51b81526004016106a5906142e2565b600082116107285760405162461bcd60e51b81526020600482015260176024820152761253959053125117d3525397d09054d157d3d555141555604a1b60448201526064016106a5565b600083116107485760405162461bcd60e51b81526004016106a59061430c565b6008546040516370a0823160e01b81523360048201526000916001600160a01b0316906370a0823190602401602060405180830381865afa158015610791573d6000803e3d6000fd5b505050506040513d601f19601f820116820180604052508101906107b59190614339565b9050808411156107c3578093505b6008546107f4906107df90600160a81b900460ff166012614368565b6107ed9060ff16600a614465565b8590613a02565b6008549094506108289061081390600160a01b900460ff166012614368565b6108219060ff16600a614465565b8490613a02565b9250600080610835613769565b600854919350915061086b9061085690600160a01b900460ff166012614368565b6108649060ff16600a614465565b8390613a02565b60085490925061089f9061088a90600160a81b900460ff166012614368565b6108989060ff16600a614465565b8290613a02565b90508185106109015760405162461bcd60e51b815260206004820152602860248201527f4d494e5f424153455f4f55545055545f4849474845525f504f4f4c5f424153456044820152675f42414c414e434560c01b60648201526084016106a5565b60006109246103e861091e600b548a613a0290919063ffffffff16565b90613a15565b905060006109328883613a21565b905060006109418286866130fa565b9050878110156109635760405162461bcd60e51b81526004016106a590614471565b8481106109825760405162461bcd60e51b81526004016106a59061449d565b600854610a1f9061099e90600160a01b900460ff166012614368565b6109ac9060ff16600a614465565b6007546040516370a0823160e01b81523060048201526001600160a01b03909116906370a08231906024015b602060405180830381865afa1580156109f5573d6000803e3d6000fd5b505050506040513d601f19601f82011682018060405250810190610a199190614339565b90613a02565b8110610a3d5760405162461bcd60e51b81526004016106a5906144e1565b6008546001600160a01b038116906323b872dd9033903090610a8390610a6e90600160a81b900460ff166012614368565b610a7c9060ff16600a614465565b8e90613a15565b6040518463ffffffff1660e01b8152600401610aa193929190614529565b6020604051808303816000875af1158015610ac0573d6000803e3d6000fd5b505050506040513d601f19601f82011682018060405250810190610ae49190614295565b506007546008546001600160a01b039091169063a9059cbb903390610b2d90610b1890600160a01b900460ff166012614368565b610b269060ff16600a614465565b8590613a15565b6040518363ffffffff1660e01b8152600401610b4a92919061454d565b6020604051808303816000875af1158015610b69573d6000803e3d6000fd5b505050506040513d601f19601f82011682018060405250810190610b8d9190614295565b506008546009546001600160a01b038083169263a9059cbb9290911690610bd990610bc49060ff600160a81b909104166012614368565b610bd29060ff16600a614465565b8790613a15565b6040518363ffffffff1660e01b8152600401610bf692919061454d565b6020604051808303816000875af1158015610c15573d6000803e3d6000fd5b505050506040513d601f19601f82011682018060405250810190610c399190614295565b506008547fb1b8c525a87e01fd3cda717635c4b24d56deba9f9d95c4f650c022bcd0bf8f50903390610c8f90610c7a90600160a01b900460ff166012614368565b610c889060ff16600a614465565b8b90613a15565b600854610cc090610cab90600160a81b900460ff166012614368565b610cb99060ff16600a614465565b8d90613a15565b600854610cf190610cdc90600160a01b900460ff166012614368565b610cea9060ff16600a614465565b8690613a15565b600854610d0d90610c7a90600160a01b900460ff166012614368565b600854610d2990610c7a90600160a81b900460ff166012614368565b604051610d3b96959493929190614566565b60405180910390a1505050505050610d536001600655565b505050565b606060038054610d6790614599565b80601f0160208091040260200160405190810160405280929190818152602001828054610d9390614599565b8015610de05780601f10610db557610100808354040283529160200191610de0565b820191906000526020600020905b815481529060010190602001808311610dc357829003601f168201915b5050505050905090565b600033610df8818585613a2d565b60019150505b92915050565b610e0c613b51565b600b55565b60008080610e1d613769565b6008549193509150610e3e906107df90600160a01b900460ff166012614368565b600854909450610e5d9061085690600160a01b900460ff166012614368565b600854909250610e7c9061088a90600160a81b900460ff166012614368565b90506000610e9b6103e861091e600b5488613a0290919063ffffffff16565b90506000610ea98683613a21565b90506000610eb8828686610f8d565b600854909150610eec90610ed790600160a81b900460ff166012614368565b610ee59060ff16600a614465565b8290613a15565b979650505050505050565b610eff613b51565b6001600160a01b038116610f475760405162461bcd60e51b815260206004820152600f60248201526e494e56414c49445f4144445245535360881b60448201526064016106a5565b600a80546001600160a01b0319166001600160a01b0392909216919091179055565b600033610f77858285613bab565b610f82858585613c25565b506001949350505050565b60008083118015610f9e5750600082115b610fba5760405162461bcd60e51b81526004016106a5906145d3565b6000610fc68385613a02565b90506000610fd48587613dc9565b90506000610eec610fe58484613a15565b8690613a21565b600033610df8818585610fff8383613159565b61100991906145fa565b613a2d565b611016613b51565b61101e613dd5565b565b61102a3382613e2a565b50565b60003332146110c357600a54604051636c9b2a3f60e11b81523360048201526001600160a01b039091169063d936547e90602401602060405180830381865afa15801561107e573d6000803e3d6000fd5b505050506040513d601f19601f820116820180604052508101906110a29190614295565b15156001146110c35760405162461bcd60e51b81526004016106a5906142b7565b6110cb6139a9565b428210156110eb5760405162461bcd60e51b81526004016106a5906142e2565b6000851161112c5760405162461bcd60e51b815260206004820152600e60248201526d0494e56414c49445f4d494e5f4c560941b60448201526064016106a5565b6000841161114c5760405162461bcd60e51b81526004016106a59061460d565b600083116111965760405162461bcd60e51b81526020600482015260176024820152761253959053125117d3505617d513d2d15397d253941555604a1b60448201526064016106a5565b6007546040516370a0823160e01b81523360048201526000916001600160a01b0316906370a0823190602401602060405180830381865afa1580156111df573d6000803e3d6000fd5b505050506040513d601f19601f820116820180604052508101906112039190614339565b905080851115611211578094505b6008546112429061122d90600160a01b900460ff166012614368565b61123b9060ff16600a614465565b8690613a02565b600854909550611261906107df90600160a81b900460ff166012614368565b9350600061126e60025490565b90508060000361151c576007546008546001600160a01b03909116906323b872dd90339030906112ad90610c7a90600160a01b900460ff166012614368565b6040518463ffffffff1660e01b81526004016112cb93929190614529565b6020604051808303816000875af11580156112ea573d6000803e3d6000fd5b505050506040513d601f19601f8201168201806040525081019061130e9190614295565b506008546001600160a01b038116906323b872dd90339030906113559061134090600160a81b900460ff166012614368565b61134e9060ff16600a614465565b8a90613a15565b6040518463ffffffff1660e01b815260040161137393929190614529565b6020604051808303816000875af1158015611392573d6000803e3d6000fd5b505050506040513d601f19601f820116820180604052508101906113b69190614295565b50856113c23382613f5c565b7f28e12afd967cc11b786f1b1547f5e0da96ccc91ebb09bdd406248111a634e7e53382611404600860149054906101000a900460ff166012610c7a9190614368565b60085461142090610c7a90600160a81b900460ff166012614368565b6007546040516370a0823160e01b81523060048201526001600160a01b03909116906370a0823190602401602060405180830381865afa158015611468573d6000803e3d6000fd5b505050506040513d601f19601f8201168201806040525081019061148c9190614339565b6008546040516370a0823160e01b81523060048201526001600160a01b03909116906370a0823190602401602060405180830381865afa1580156114d4573d6000803e3d6000fd5b505050506040513d601f19601f820116820180604052508101906114f89190614339565b60405161150a96959493929190614566565b60405180910390a19250611914915050565b600080611527613769565b60085491935091506115489061085690600160a01b900460ff166012614368565b6008549092506115679061088a90600160a81b900460ff166012614368565b9050600061158d826115878561091e611580828f613dc9565b8790613a02565b90613a21565b9050600061159f8461091e878d613a02565b9050600082116115c15760405162461bcd60e51b81526004016106a59061430c565b6008546115dd9061134090600160a81b900460ff166012614368565b60085461160e906115f990600160a81b900460ff166012614368565b6116079060ff16600a614465565b8490613a15565b111561162c5760405162461bcd60e51b81526004016106a59061430c565b8a81101561166e5760405162461bcd60e51b815260206004820152600f60248201526e0494e56414c49445f4d494e545f4c5608c1b60448201526064016106a5565b6007546008546001600160a01b03909116906323b872dd90339030906116b8906116a390600160a01b900460ff166012614368565b6116b19060ff16600a614465565b8f90613a15565b6040518463ffffffff1660e01b81526004016116d693929190614529565b6020604051808303816000875af11580156116f5573d6000803e3d6000fd5b505050506040513d601f19601f820116820180604052508101906117199190614295565b506008546001600160a01b038116906323b872dd903390309061174b90610bc490600160a81b900460ff166012614368565b6040518463ffffffff1660e01b815260040161176993929190614529565b6020604051808303816000875af1158015611788573d6000803e3d6000fd5b505050506040513d601f19601f820116820180604052508101906117ac9190614295565b506117b73382613f5c565b7f28e12afd967cc11b786f1b1547f5e0da96ccc91ebb09bdd406248111a634e7e533826117f9600860149054906101000a900460ff166012610a6e9190614368565b60085461181590610bc490600160a81b900460ff166012614368565b6007546040516370a0823160e01b81523060048201526001600160a01b03909116906370a0823190602401602060405180830381865afa15801561185d573d6000803e3d6000fd5b505050506040513d601f19601f820116820180604052508101906118819190614339565b6008546040516370a0823160e01b81523060048201526001600160a01b03909116906370a0823190602401602060405180830381865afa1580156118c9573d6000803e3d6000fd5b505050506040513d601f19601f820116820180604052508101906118ed9190614339565b6040516118ff96959493929190614566565b60405180910390a19550611914945050505050565b61191e6001600655565b949350505050565b60008080611932613769565b6008549193509150611953906107df90600160a81b900460ff166012614368565b6008549094506119729061085690600160a01b900460ff166012614368565b6008549092506119919061088a90600160a81b900460ff166012614368565b905060006119b06103e861091e600b5488613a0290919063ffffffff16565b905060006119be8683613a21565b905060006119cd8286866130fa565b600854909150610eec90610ed790600160a01b900460ff166012614368565b60008060006119fa60025490565b9050600080611a2c600860159054906101000a900460ff166012611a1e9190614368565b6115809060ff16600a614465565b955082600003611a40575084905080611ab7565b600080611a4b613769565b6008549193509150611a6c9061085690600160a01b900460ff166012614368565b600854909250611a8b9061088a90600160a81b900460ff166012614368565b9050611aa2826115878361091e611580828e613dc9565b9250611ab28261091e8786613a02565b935050505b6008548290611aea90611ad590600160a01b900460ff166012614368565b611ae39060ff16600a614465565b8390613a15565b94509450505050915091565b6000806000611b0460025490565b905080841115611b12578093505b600080611b1d613769565b6008549193509150611b3e9061085690600160a01b900460ff166012614368565b600854909250611b5d9061088a90600160a81b900460ff166012614368565b90506000611b6f8461091e8986613a02565b90506000611b818561091e8a86613a02565b600854909150611ba090611ad590600160a01b900460ff166012614368565b600854611bbc90611ad590600160a81b900460ff166012614368565b965096505050505050915091565b611bd2613b51565b61101e600061401b565b333214611c7057600a54604051636c9b2a3f60e11b81523360048201526001600160a01b039091169063d936547e90602401602060405180830381865afa158015611c2b573d6000803e3d6000fd5b505050506040513d601f19601f82011682018060405250810190611c4f9190614295565b1515600114611c705760405162461bcd60e51b81526004016106a5906142b7565b611c7861395c565b611c806139a9565b42811015611ca05760405162461bcd60e51b81526004016106a5906142e2565b60008311611cea5760405162461bcd60e51b81526020600482015260176024820152761253959053125117d3505617d513d2d15397d253941555604a1b60448201526064016106a5565b60008211611d305760405162461bcd60e51b81526020600482015260136024820152721253959053125117d09054d157d3d555141555606a1b60448201526064016106a5565b6007546040516370a0823160e01b81523060048201526001600160a01b03909116906370a0823190602401602060405180830381865afa158015611d78573d6000803e3d6000fd5b505050506040513d601f19601f82011682018060405250810190611d9c9190614339565b8210611dba5760405162461bcd60e51b81526004016106a5906144e1565b600854611dd69061081390600160a81b900460ff166012614368565b600854909350611df59061085690600160a01b900460ff166012614368565b9150600080611e02613769565b6008549193509150611e239061085690600160a01b900460ff166012614368565b600854909250611e429061088a90600160a81b900460ff166012614368565b9050818410611e635760405162461bcd60e51b81526004016106a59061449d565b6000611e7085848461291e565b90506000611e8f6103e861091e600b5485613a0290919063ffffffff16565b9050611e9b8282613dc9565b915086821115611ebd5760405162461bcd60e51b81526004016106a590614471565b60008211611edd5760405162461bcd60e51b81526004016106a59061430c565b600854611f3790611ef990600160a81b900460ff166012614368565b611f079060ff16600a614465565b6008546040516370a0823160e01b81523360048201526001600160a01b03909116906370a08231906024016109d8565b821115611f865760405162461bcd60e51b815260206004820152601f60248201527f544f4b454e5f494e5055545f4849474845525f555345525f42414c414e43450060448201526064016106a5565b6008546001600160a01b038116906323b872dd9033903090611fb790610bc490600160a81b900460ff166012614368565b6040518463ffffffff1660e01b8152600401611fd593929190614529565b6020604051808303816000875af1158015611ff4573d6000803e3d6000fd5b505050506040513d601f19601f820116820180604052508101906120189190614295565b506007546008546001600160a01b039091169063a9059cbb90339061204c9061134090600160a01b900460ff166012614368565b6040518363ffffffff1660e01b815260040161206992919061454d565b6020604051808303816000875af1158015612088573d6000803e3d6000fd5b505050506040513d601f19601f820116820180604052508101906120ac9190614295565b506008546009546001600160a01b038083169263a9059cbb92909116906120e390610b189060ff600160a81b909104166012614368565b6040518363ffffffff1660e01b815260040161210092919061454d565b6020604051808303816000875af115801561211f573d6000803e3d6000fd5b505050506040513d601f19601f820116820180604052508101906121439190614295565b506008547ff116a588cdba1b14c04ffd8bca7fee39286e7c8d9da59d77c036430e4b415dbc9033906121849061134090600160a81b900460ff166012614368565b6008546121a090610cdc90600160a81b900460ff166012614368565b6008546121bc90610c7a90600160a01b900460ff166012614368565b6008546121d89061134090600160a01b900460ff166012614368565b6008546121f49061134090600160a81b900460ff166012614368565b60405161220696959493929190614566565b60405180910390a150505050610d536001600655565b6000803332146122b357600a54604051636c9b2a3f60e11b81523360048201526001600160a01b039091169063d936547e90602401602060405180830381865afa15801561226e573d6000803e3d6000fd5b505050506040513d601f19601f820116820180604052508101906122929190614295565b15156001146122b35760405162461bcd60e51b81526004016106a5906142b7565b6122bb6139a9565b428310156122db5760405162461bcd60e51b81526004016106a5906142e2565b6000861161231f5760405162461bcd60e51b81526020600482015260116024820152700494e56414c49445f414d4f554e545f4c5607c1b60448201526064016106a5565b600085116123695760405162461bcd60e51b81526020600482015260176024820152761253959053125117d3525397d09054d157d3d555141555604a1b60448201526064016106a5565b600084116123b45760405162461bcd60e51b81526020600482015260186024820152771253959053125117d3525397d513d2d15397d3d55514155560421b60448201526064016106a5565b6008546123d09061122d90600160a01b900460ff166012614368565b6008549095506123ef906107df90600160a81b900460ff166012614368565b935060006123fc60025490565b336000908152602081905260409020549091508088111561241b578097505b8188111561246b5760405162461bcd60e51b815260206004820152601e60248201527f494e56414c49445f414d4f554e545f4c505f544f54414c5f535550504c59000060448201526064016106a5565b600080612476613769565b60085491935091506124979061085690600160a01b900460ff166012614368565b6008549092506124b69061088a90600160a81b900460ff166012614368565b905060006124c88561091e8d86613a02565b905060006124da8661091e8e86613a02565b90508a8210156125225760405162461bcd60e51b81526020600482015260136024820152721253959053125117d09054d157d3d555141555606a1b60448201526064016106a5565b898110156125695760405162461bcd60e51b81526020600482015260146024820152731253959053125117d513d2d15397d3d55514155560621b60448201526064016106a5565b838211156125b95760405162461bcd60e51b815260206004820152601f60248201527f424153455f4f55545055545f4849474845525f424153455f42414c414e43450060448201526064016106a5565b828111156126135760405162461bcd60e51b815260206004820152602160248201527f544f4b454e5f4f55545055545f4849474845525f544f4b454e5f42414c414e436044820152604560f81b60648201526084016106a5565b61261d338d613e2a565b6007546008546001600160a01b039091169063a9059cbb90339061265090610cdc90600160a01b900460ff166012614368565b6040518363ffffffff1660e01b815260040161266d92919061454d565b6020604051808303816000875af115801561268c573d6000803e3d6000fd5b505050506040513d601f19601f820116820180604052508101906126b09190614295565b506008546001600160a01b0381169063a9059cbb9033906126e090610b1890600160a81b900460ff166012614368565b6040518363ffffffff1660e01b81526004016126fd92919061454d565b6020604051808303816000875af115801561271c573d6000803e3d6000fd5b505050506040513d601f19601f820116820180604052508101906127409190614295565b507f555901717744791e9e27303c0df147d5a5eea5b7098591b2c5f2138ed6a605de338d612783600860149054906101000a900460ff166012610cdc9190614368565b60085461279f90610cdc90600160a81b900460ff166012614368565b6007546040516370a0823160e01b81523060048201526001600160a01b03909116906370a0823190602401602060405180830381865afa1580156127e7573d6000803e3d6000fd5b505050506040513d601f19601f8201168201806040525081019061280b9190614339565b6008546040516370a0823160e01b81523060048201526001600160a01b03909116906370a0823190602401602060405180830381865afa158015612853573d6000803e3d6000fd5b505050506040513d601f19601f820116820180604052508101906128779190614339565b60405161288996959493929190614566565b60405180910390a16008546128ad90611ad590600160a01b900460ff166012614368565b6008546128c990611ad590600160a81b900460ff166012614368565b975097505050505050506128dd6001600655565b94509492505050565b6128f1823383613bab565b6128fb8282613e2a565b5050565b612907613b51565b61101e61406d565b606060048054610d6790614599565b6000808311801561292f5750600082115b61294b5760405162461bcd60e51b81526004016106a5906145d3565b60006129578385613a02565b905060006129658587613a21565b90506000610eec856115878585613a15565b600033816129858286613159565b9050838110156129e55760405162461bcd60e51b815260206004820152602560248201527f45524332303a2064656372656173656420616c6c6f77616e63652062656c6f77604482015264207a65726f60d81b60648201526084016106a5565b610f828286868403613a2d565b600033610df8818585613c25565b60008083118015612a115750600082115b612a2d5760405162461bcd60e51b81526004016106a5906145d3565b6000612a398385613a02565b90506000612a478487613a21565b90506000610eec866115878585613a15565b6000806000612a6760025490565b9050600080612a8b600860149054906101000a900460ff166012611a1e9190614368565b955082600003612a9f575084905080612b16565b600080612aaa613769565b6008549193509150612acb9061085690600160a01b900460ff166012614368565b600854909250612aea9061088a90600160a81b900460ff166012614368565b9050612b01816115878461091e61123b828e613dc9565b9250612b118261091e878b613a02565b935050505b6008548290611aea90611ad590600160a81b900460ff166012614368565b333214612bc857600a54604051636c9b2a3f60e11b81523360048201526001600160a01b039091169063d936547e90602401602060405180830381865afa158015612b83573d6000803e3d6000fd5b505050506040513d601f19601f82011682018060405250810190612ba79190614295565b1515600114612bc85760405162461bcd60e51b81526004016106a5906142b7565b612bd061395c565b612bd86139a9565b42811015612bf85760405162461bcd60e51b81526004016106a5906142e2565b60008311612c415760405162461bcd60e51b81526020600482015260166024820152751253959053125117d3505617d09054d157d25394155560521b60448201526064016106a5565b60008211612c885760405162461bcd60e51b81526020600482015260146024820152731253959053125117d513d2d15397d3d55514155560621b60448201526064016106a5565b6008546040516370a0823160e01b81523060048201526001600160a01b03909116906370a0823190602401602060405180830381865afa158015612cd0573d6000803e3d6000fd5b505050506040513d601f19601f82011682018060405250810190612cf49190614339565b8210612d125760405162461bcd60e51b81526004016106a590614639565b600854612d2e9061081390600160a01b900460ff166012614368565b600854909350612d4d9061085690600160a81b900460ff166012614368565b9150600080612d5a613769565b6008549193509150612d7b9061085690600160a01b900460ff166012614368565b600854909250612d9a9061088a90600160a81b900460ff166012614368565b9050808410612dbb5760405162461bcd60e51b81526004016106a590614682565b6000612dc8858484612a00565b90506000612de76103e861091e600b5485613a0290919063ffffffff16565b9050612df38282613dc9565b915086821115612e155760405162461bcd60e51b81526004016106a590614471565b60008211612e355760405162461bcd60e51b81526004016106a59061460d565b600854612e8f90612e5190600160a01b900460ff166012614368565b612e5f9060ff16600a614465565b6007546040516370a0823160e01b81523360048201526001600160a01b03909116906370a08231906024016109d8565b821115612ede5760405162461bcd60e51b815260206004820152601e60248201527f424153455f494e5055545f4849474845525f555345525f42414c414e4345000060448201526064016106a5565b6007546008546001600160a01b03909116906323b872dd9033903090612f1390610bc490600160a01b900460ff166012614368565b6040518463ffffffff1660e01b8152600401612f3193929190614529565b6020604051808303816000875af1158015612f50573d6000803e3d6000fd5b505050506040513d601f19601f82011682018060405250810190612f749190614295565b506008546001600160a01b0381169063a9059cbb903390612fa49061134090600160a81b900460ff166012614368565b6040518363ffffffff1660e01b8152600401612fc192919061454d565b6020604051808303816000875af1158015612fe0573d6000803e3d6000fd5b505050506040513d601f19601f820116820180604052508101906130049190614295565b506007546009546008546001600160a01b039283169263a9059cbb92169061303b90610b1890600160a01b900460ff166012614368565b6040518363ffffffff1660e01b815260040161305892919061454d565b6020604051808303816000875af1158015613077573d6000803e3d6000fd5b505050506040513d601f19601f8201168201806040525081019061309b9190614295565b507f6e9d5a0202c67970b52b10deb68f1641a9408d90db857bc984d008c1be70383a33886130de600860149054906101000a900460ff166012610cdc9190614368565b6008546121bc90610c7a90600160a81b900460ff166012614368565b6000808311801561310b5750600082115b6131275760405162461bcd60e51b81526004016106a5906145d3565b60006131338385613a02565b905060006131418487613dc9565b90506000610eec6131528484613a15565b8790613a21565b6001600160a01b03918216600090815260016020908152604080832093909416825291909152205490565b33321461321857600a54604051636c9b2a3f60e11b81523360048201526001600160a01b039091169063d936547e90602401602060405180830381865afa1580156131d3573d6000803e3d6000fd5b505050506040513d601f19601f820116820180604052508101906131f79190614295565b15156001146132185760405162461bcd60e51b81526004016106a5906142b7565b61322061395c565b6132286139a9565b428110156132485760405162461bcd60e51b81526004016106a5906142e2565b600083116132685760405162461bcd60e51b81526004016106a59061460d565b600082116132b35760405162461bcd60e51b81526020600482015260186024820152771253959053125117d3525397d513d2d15397d3d55514155560421b60448201526064016106a5565b6007546040516370a0823160e01b81523360048201526000916001600160a01b0316906370a0823190602401602060405180830381865afa1580156132fc573d6000803e3d6000fd5b505050506040513d601f19601f820116820180604052508101906133209190614339565b90508084111561332e578093505b60085461334a906107df90600160a01b900460ff166012614368565b6008549094506133699061081390600160a81b900460ff166012614368565b9250600080613376613769565b60085491935091506133979061085690600160a01b900460ff166012614368565b6008549092506133b69061088a90600160a81b900460ff166012614368565b90508085106134135760405162461bcd60e51b815260206004820152602360248201527f4d494e5f544f4b454e5f4849474845525f504f4f4c5f544f4b454e5f42414c416044820152624e434560e81b60648201526084016106a5565b60006134306103e861091e600b548a613a0290919063ffffffff16565b9050600061343e8883613a21565b9050600061344d828686610f8d565b90508781101561346f5760405162461bcd60e51b81526004016106a590614471565b83811061348e5760405162461bcd60e51b81526004016106a590614682565b6008546040516370a0823160e01b81523060048201526001600160a01b03909116906370a0823190602401602060405180830381865afa1580156134d6573d6000803e3d6000fd5b505050506040513d601f19601f820116820180604052508101906134fa9190614339565b60085461351690611ad590600160a81b900460ff166012614368565b106135335760405162461bcd60e51b81526004016106a590614639565b6007546008546001600160a01b03909116906323b872dd903390309061356890610a6e90600160a01b900460ff166012614368565b6040518463ffffffff1660e01b815260040161358693929190614529565b6020604051808303816000875af11580156135a5573d6000803e3d6000fd5b505050506040513d601f19601f820116820180604052508101906135c99190614295565b506008546001600160a01b0381169063a9059cbb9033906135f990610b1890600160a81b900460ff166012614368565b6040518363ffffffff1660e01b815260040161361692919061454d565b6020604051808303816000875af1158015613635573d6000803e3d6000fd5b505050506040513d601f19601f820116820180604052508101906136599190614295565b506007546009546008546001600160a01b039283169263a9059cbb92169061369090610bc490600160a01b900460ff166012614368565b6040518363ffffffff1660e01b81526004016136ad92919061454d565b6020604051808303816000875af11580156136cc573d6000803e3d6000fd5b505050506040513d601f19601f820116820180604052508101906136f09190614295565b506008547fd294be030e23d0862312f418541ec01d571908715169f1cb1109bba3212b8c2d90339061373190610c7a90600160a81b900460ff166012614368565b60085461374d90610cab90600160a01b900460ff166012614368565b600854610cf190610cdc90600160a81b900460ff166012614368565b6007546040516370a0823160e01b8152306004820152600091829182916001600160a01b0316906370a0823190602401602060405180830381865afa1580156137b6573d6000803e3d6000fd5b505050506040513d601f19601f820116820180604052508101906137da9190614339565b6008546040516370a0823160e01b81523060048201529192506000916001600160a01b03909116906370a0823190602401602060405180830381865afa158015613828573d6000803e3d6000fd5b505050506040513d601f19601f8201168201806040525081019061384c9190614339565b919491935090915050565b61385f613b51565b6001600160a01b0381166138a75760405162461bcd60e51b815260206004820152600f60248201526e494e56414c49445f4144445245535360881b60448201526064016106a5565b600980546001600160a01b0319166001600160a01b0392909216919091179055565b600080806138d5613769565b9092509050600061191e8284613a02565b6138ee613b51565b6001600160a01b0381166139535760405162461bcd60e51b815260206004820152602660248201527f4f776e61626c653a206e6577206f776e657220697320746865207a65726f206160448201526564647265737360d01b60648201526084016106a5565b61102a8161401b565b600554600160a01b900460ff161561101e5760405162461bcd60e51b815260206004820152601060248201526f14185d5cd8589b194e881c185d5cd95960821b60448201526064016106a5565b6002600654036139fb5760405162461bcd60e51b815260206004820152601f60248201527f5265656e7472616e637947756172643a207265656e7472616e742063616c6c0060448201526064016106a5565b6002600655565b6000613a0e82846146c8565b9392505050565b6000613a0e82846146df565b6000613a0e8284614701565b6001600160a01b038316613a8f5760405162461bcd60e51b8152602060048201526024808201527f45524332303a20617070726f76652066726f6d20746865207a65726f206164646044820152637265737360e01b60648201526084016106a5565b6001600160a01b038216613af05760405162461bcd60e51b815260206004820152602260248201527f45524332303a20617070726f766520746f20746865207a65726f206164647265604482015261737360f01b60648201526084016106a5565b6001600160a01b0383811660008181526001602090815260408083209487168084529482529182902085905590518481527f8c5be1e5ebec7d5bd14f71427d1e84f3dd0314c0f7b2291e5b200ac8c7c3b925910160405180910390a3505050565b6005546001600160a01b0316331461101e5760405162461bcd60e51b815260206004820181905260248201527f4f776e61626c653a2063616c6c6572206973206e6f7420746865206f776e657260448201526064016106a5565b6000613bb78484613159565b90506000198114613c1f5781811015613c125760405162461bcd60e51b815260206004820152601d60248201527f45524332303a20696e73756666696369656e7420616c6c6f77616e636500000060448201526064016106a5565b613c1f8484848403613a2d565b50505050565b6001600160a01b038316613c895760405162461bcd60e51b815260206004820152602560248201527f45524332303a207472616e736665722066726f6d20746865207a65726f206164604482015264647265737360d81b60648201526084016106a5565b6001600160a01b038216613ceb5760405162461bcd60e51b815260206004820152602360248201527f45524332303a207472616e7366657220746f20746865207a65726f206164647260448201526265737360e81b60648201526084016106a5565b6001600160a01b03831660009081526020819052604090205481811015613d635760405162461bcd60e51b815260206004820152602660248201527f45524332303a207472616e7366657220616d6f756e7420657863656564732062604482015265616c616e636560d01b60648201526084016106a5565b6001600160a01b03848116600081815260208181526040808320878703905593871680835291849020805487019055925185815290927fddf252ad1be2c89b69c2b068fc378daa952ba7f163c4a11628f55a4df523b3ef910160405180910390a3613c1f565b6000613a0e82846145fa565b613ddd6140b0565b6005805460ff60a01b191690557f5db9ee0a495bf2e6ff9c91a7834c1ba4fdd244a5e8aa4e537bd38aeae4b073aa335b6040516001600160a01b03909116815260200160405180910390a1565b6001600160a01b038216613e8a5760405162461bcd60e51b815260206004820152602160248201527f45524332303a206275726e2066726f6d20746865207a65726f206164647265736044820152607360f81b60648201526084016106a5565b6001600160a01b03821660009081526020819052604090205481811015613efe5760405162461bcd60e51b815260206004820152602260248201527f45524332303a206275726e20616d6f756e7420657863656564732062616c616e604482015261636560f01b60648201526084016106a5565b6001600160a01b0383166000818152602081815260408083208686039055600280548790039055518581529192917fddf252ad1be2c89b69c2b068fc378daa952ba7f163c4a11628f55a4df523b3ef910160405180910390a3505050565b6001600160a01b038216613fb25760405162461bcd60e51b815260206004820152601f60248201527f45524332303a206d696e7420746f20746865207a65726f20616464726573730060448201526064016106a5565b8060026000828254613fc491906145fa565b90915550506001600160a01b038216600081815260208181526040808320805486019055518481527fddf252ad1be2c89b69c2b068fc378daa952ba7f163c4a11628f55a4df523b3ef910160405180910390a35050565b600580546001600160a01b038381166001600160a01b0319831681179093556040519116919082907f8be0079c531659141344cd1fd0a4f28419497f9722a3daafe3b4186f6b6457e090600090a35050565b61407561395c565b6005805460ff60a01b1916600160a01b1790557f62e78cea01bee320cd4e420270b5ea74000d11b0c9f74754ebdbfc544b05a258613e0d3390565b600554600160a01b900460ff1661101e5760405162461bcd60e51b815260206004820152601460248201527314185d5cd8589b194e881b9bdd081c185d5cd95960621b60448201526064016106a5565b60008060006060848603121561411557600080fd5b505081359360208301359350604090920135919050565b600060208083528351808285015260005b818110156141595785810183015185820160400152820161413d565b506000604082860101526040601f19601f8301168501019250505092915050565b80356001600160a01b038116811461419157600080fd5b919050565b600080604083850312156141a957600080fd5b6141b28361417a565b946020939093013593505050565b6000602082840312156141d257600080fd5b5035919050565b6000602082840312156141eb57600080fd5b613a0e8261417a565b60008060006060848603121561420957600080fd5b6142128461417a565b92506142206020850161417a565b9150604084013590509250925092565b6000806000806080858703121561424657600080fd5b5050823594602084013594506040840135936060013592509050565b6000806040838503121561427557600080fd5b61427e8361417a565b915061428c6020840161417a565b90509250929050565b6000602082840312156142a757600080fd5b81518015158114613a0e57600080fd5b6020808252601190820152701253959053125117d5d2125511531254d5607a1b604082015260600190565b60208082526010908201526f494e56414c49445f444541444c494e4560801b604082015260600190565b6020808252601390820152721253959053125117d513d2d15397d253941555606a1b604082015260600190565b60006020828403121561434b57600080fd5b5051919050565b634e487b7160e01b600052601160045260246000fd5b60ff8281168282160390811115610dfe57610dfe614352565b600181815b808511156143bc5781600019048211156143a2576143a2614352565b808516156143af57918102915b93841c9390800290614386565b509250929050565b6000826143d357506001610dfe565b816143e057506000610dfe565b81600181146143f657600281146144005761441c565b6001915050610dfe565b60ff84111561441157614411614352565b50506001821b610dfe565b5060208310610133831016604e8410600b841016171561443f575081810a610dfe565b6144498383614381565b806000190482111561445d5761445d614352565b029392505050565b6000613a0e83836143c4565b60208082526012908201527143414e5f4e4f545f4d414b455f545241444560701b604082015260600190565b60208082526024908201527f424153455f4f55545055545f4849474845525f504f4f4c5f424153455f42414c604082015263414e434560e01b606082015260800190565b60208082526028908201527f424153455f4f55545055545f4849474845525f43555252454e545f54524144456040820152675f42414c414e434560c01b606082015260800190565b6001600160a01b039384168152919092166020820152604081019190915260600190565b6001600160a01b03929092168252602082015260400190565b6001600160a01b03969096168652602086019490945260408501929092526060840152608083015260a082015260c00190565b600181811c908216806145ad57607f821691505b6020821081036145cd57634e487b7160e01b600052602260045260246000fd5b50919050565b6020808252600d908201526c494e56414c49445f56414c554560981b604082015260600190565b80820180821115610dfe57610dfe614352565b6020808252601290820152711253959053125117d09054d157d25394155560721b604082015260600190565b60208082526029908201527f544f4b454e5f4f55545055545f4849474845525f43555252454e545f54524144604082015268455f42414c414e434560b81b606082015260800190565b60208082526026908201527f544f4b454e5f4f55545055545f4849474845525f504f4f4c5f544f4b454e5f42604082015265414c414e434560d01b606082015260800190565b8082028115828204841417610dfe57610dfe614352565b6000826146fc57634e487b7160e01b600052601260045260246000fd5b500490565b81810381811115610dfe57610dfe61435256fea2646970667358221220d3300983c894b4a9c61234b422e044ae70e6cc8aec2700086821445b9825f9c464736f6c63430008110033",
  "immutableReferences": {},
  "source": "// SPDX-License-Identifier: MIT\r\npragma solidity >=0.6.12;\r\n\r\nimport \"@openzeppelin/contracts/utils/math/SafeMath.sol\";\r\nimport \"@openzeppelin/contracts/token/ERC20/extensions/IERC20Metadata.sol\";\r\nimport \"@openzeppelin/contracts/token/ERC20/ERC20.sol\";\r\nimport \"@openzeppelin/contracts/token/ERC20/extensions/ERC20Burnable.sol\";\r\nimport \"@openzeppelin/contracts/utils/Context.sol\";\r\nimport \"@openzeppelin/contracts/access/Ownable.sol\";\r\nimport \"@openzeppelin/contracts/security/Pausable.sol\";\r\nimport \"@openzeppelin/contracts/security/ReentrancyGuard.sol\";\r\n\r\nimport './interfaces/IBreezyWhitelist.sol';\r\n\r\n\r\ncontract BreezySwapV1BREWETH is ERC20Burnable, Ownable, Pausable, ReentrancyGuard {\r\n    \r\n    using SafeMath for uint256;\r\n\r\n    IERC20Metadata public base; // Stable coin base token (WETH)\r\n    IERC20Metadata public token; // Token to trade in this pair\r\n\r\n    // Declare state variables for decimals\r\n    uint8 public baseDecimals;\r\n    uint8 public tokenDecimals;\r\n\r\n    // Fee Machine Contract.\r\n    address public feeMachineContract; \r\n\r\n    IBreezyWhitelist public whitelistContract; \r\n\r\n    uint256 public TRADE_FEE = 2; //0.2% 2/1000\r\n\r\n    modifier onlyWhitelist()\r\n    {\r\n        if (msg.sender != tx.origin) {\r\n            require(whitelistContract.whitelisted(msg.sender) == true, 'INVALID_WHITELIST');\r\n        }\r\n        _;\r\n    }\r\n\r\n\r\n    // Events\r\n\r\n    event onSwapBaseToTokenWithBaseInput(address sender, uint256 minTokenOutput, uint256 baseInputAmount, uint256 tokenOutputAmount, uint256 poolBaseBalance, uint256 poolTokenBalance);\r\n    event onSwapBaseToTokenWithTokenOutput(address sender, uint256 maxBaseInput, uint256 baseInputAmount, uint256 tokenOutputAmount, uint256 poolBaseBalance, uint256 poolTokenBalance);\r\n    \r\n    event onSwapTokenToBaseWithTokenInput(address sender, uint256 minBaseOutput, uint256 tokenInputAmount, uint256 baseOutputAmount, uint256 poolBaseBalance, uint256 poolTokenBalance);\r\n    event onSwapTokenToBaseWithBaseOutput(address sender, uint256 maxTokenInput, uint256 tokenInputAmount, uint256 baseOutputAmount, uint256 poolBaseBalance, uint256 poolTokenBalance);\r\n\r\n    event onAddLP(address sender, uint256 mintLP, uint256 baseInputAmount, uint256 tokenInputAmount, uint256 poolBaseBalance, uint256 poolTokenBalance);\r\n    event onRemoveLP(address sender, uint256 amountLP, uint256 baseOutputAmout, uint256 tokenOutputAmount, uint256 poolBaseBalance, uint256 poolTokenBalance);\r\n\r\n    constructor(\r\n        IERC20Metadata _base,\r\n        IERC20Metadata _token,\r\n        address _feeMachineContract,\r\n        IBreezyWhitelist _whitelistContract,\r\n        string memory name, \r\n        string memory symbol\r\n        ) ERC20(name, symbol) {\r\n        base = _base;\r\n        token = _token;\r\n        whitelistContract = _whitelistContract;\r\n        feeMachineContract = _feeMachineContract;\r\n        baseDecimals = base.decimals();\r\n        tokenDecimals = token.decimals();\r\n    }\r\n    \r\n    function setWhitelistContract(address _whitelistContract) public onlyOwner {\r\n        require(_whitelistContract != address(0), \"INVALID_ADDRESS\");\r\n\r\n        whitelistContract = IBreezyWhitelist(_whitelistContract);\r\n    }\r\n\r\n    function setFeeMachineContract(address _feeMachineContract) public onlyOwner {\r\n        require(_feeMachineContract != address(0), \"INVALID_ADDRESS\");\r\n\r\n        feeMachineContract = _feeMachineContract;\r\n    }\r\n\r\n    function setTradeFee(uint256 _tradeFee) public onlyOwner {\r\n        TRADE_FEE = _tradeFee;\r\n    }\r\n\r\n    function getK() public view returns(uint256) {\r\n        uint256 baseReserve = 0;\r\n        uint256 tokenReserve = 0;\r\n        (baseReserve, tokenReserve) = getTotalReserve();\r\n        uint256 k = tokenReserve.mul(baseReserve);\r\n        return k;\r\n    }\r\n\r\n    function getTokenOutput(uint256 baseInputAmount) public view returns (uint256) {\r\n        uint256 baseReserve = 0;\r\n        uint256 tokenReserve = 0;\r\n        (baseReserve, tokenReserve) = getTotalReserve();\r\n\r\n        // Scale baseInputAmount to 18 decimals\r\n        baseInputAmount = baseInputAmount.mul(10**uint256(18 - baseDecimals));\r\n\r\n        // Scale baseReserve to 18 decimals\r\n        baseReserve = baseReserve.mul(10**uint256(18 - baseDecimals));\r\n\r\n        // Scale tokenReserve to 18 decimals\r\n        tokenReserve = tokenReserve.mul(10**uint256(18 - tokenDecimals));\r\n\r\n        uint256 tradeFee = baseInputAmount.mul(TRADE_FEE).div(1000);\r\n        uint256 baseInputAmountAfterFee = baseInputAmount.sub(tradeFee); // cut the TRADE_FEE from base input\r\n\r\n        uint256 tokenOutputAmount = getTokenOutputAmountFromBaseInput(baseInputAmountAfterFee, baseReserve, tokenReserve);\r\n        return tokenOutputAmount.div(10**uint256(18 - tokenDecimals));\r\n    }\r\n\r\n    function getBaseOutput(uint256 tokenInputAmount) public view returns (uint256) {\r\n        uint256 baseReserve = 0;\r\n        uint256 tokenReserve = 0;\r\n        (baseReserve, tokenReserve) = getTotalReserve();\r\n\r\n        // Scale tokenInputAmount to 18 decimals\r\n        tokenInputAmount = tokenInputAmount.mul(10**uint256(18 - tokenDecimals));\r\n\r\n        // Scale baseReserve to 18 decimals\r\n        baseReserve = baseReserve.mul(10**uint256(18 - baseDecimals));\r\n\r\n        // Scale tokenReserve to 18 decimals\r\n        tokenReserve = tokenReserve.mul(10**uint256(18 - tokenDecimals));\r\n\r\n        uint256 tradeFee = tokenInputAmount.mul(TRADE_FEE).div(1000);\r\n        uint256 tokenInputAmountAfterFee = tokenInputAmount.sub(tradeFee); // cut the TRADE_FEE from token input\r\n\r\n        uint256 baseOutputAmount = getBaseOutputAmountFromTokenInput(tokenInputAmountAfterFee, baseReserve, tokenReserve);\r\n        return baseOutputAmount.div(10**uint256(18 - baseDecimals));\r\n    }\r\n\r\n    function getDataFromBaseInputToAddLp(uint256 baseInputAmount) public view returns (uint256, uint256) {\r\n        uint256 totalSupply = totalSupply();\r\n        uint256 mintLP = 0;\r\n        uint256 tokenInputAmount = 0;\r\n\r\n        // Scale baseInputAmount to 18 decimals\r\n        baseInputAmount = baseInputAmount.mul(10**uint256(18 - baseDecimals));\r\n\r\n        if(totalSupply == 0) {\r\n            mintLP = baseInputAmount;\r\n            tokenInputAmount = baseInputAmount;\r\n        }\r\n        else { \r\n            // tokenReserve/baseReserve = (tokenReserve+tokenInputAmount)/(baseReserve+baseInputAmount)\r\n            // => tokenReserve+tokenInputAmount = tokenReserve*(baseReserve+baseInputAmount)/baseReserve\r\n            // => tokenInputAmount = tokenReserve*(baseReserve+baseInputAmount)/baseReserve - tokenReserve;\r\n            uint256 baseReserve = 0;\r\n            uint256 tokenReserve = 0;\r\n            (baseReserve, tokenReserve) = getTotalReserve();\r\n\r\n            // Scale baseReserve to 18 decimals\r\n            baseReserve = baseReserve.mul(10**uint256(18 - baseDecimals));\r\n\r\n            // Scale tokenReserve to 18 decimals\r\n            tokenReserve = tokenReserve.mul(10**uint256(18 - tokenDecimals));\r\n\r\n            tokenInputAmount = tokenReserve.mul(baseReserve.add(baseInputAmount)).div(baseReserve).sub(tokenReserve);\r\n\r\n            // mintLP/totalLP =  baseInputAmount/baseReserve\r\n            // mintLP = totalLP*baseInputAmount/baseReserve\r\n            mintLP = totalSupply.mul(baseInputAmount).div(baseReserve);\r\n        }\r\n        return (mintLP, tokenInputAmount.div(10**uint256(18 - tokenDecimals)));\r\n    }\r\n\r\n    function getDataFromTokenInputToAddLp(uint256 tokenInputAmount) public view returns (uint256, uint256) {\r\n        uint256 totalSupply = totalSupply();\r\n        uint256 mintLP;\r\n        uint256 baseInputAmount;\r\n\r\n        // Scale tokenInputAmount to 18 decimals\r\n        tokenInputAmount = tokenInputAmount.mul(10**uint256(18 - tokenDecimals));\r\n\r\n        if(totalSupply == 0) {\r\n            mintLP = tokenInputAmount;\r\n            baseInputAmount = tokenInputAmount;\r\n        }\r\n        else { \r\n            // tokenReserve/baseReserve = (tokenReserve+tokenInputAmount)/(baseReserve+baseInputAmount)\r\n            // => (baseReserve+baseInputAmount) = (tokenReserve+tokenInputAmount) * baseReserve / tokenReserve\r\n            //  => baseInputAmount = (tokenReserve+tokenInputAmount) * baseReserve / tokenReserve - baseReserve\r\n            uint256 baseReserve = 0;\r\n            uint256 tokenReserve = 0;\r\n            (baseReserve, tokenReserve) = getTotalReserve();\r\n\r\n            // Scale baseReserve to 18 decimals\r\n            baseReserve = baseReserve.mul(10**uint256(18 - baseDecimals));\r\n\r\n            // Scale tokenReserve to 18 decimals\r\n            tokenReserve = tokenReserve.mul(10**uint256(18 - tokenDecimals));\r\n\r\n            baseInputAmount = baseReserve.mul(tokenReserve.add(tokenInputAmount)).div(tokenReserve).sub(baseReserve);\r\n\r\n            // mintLP/totalLP =  baseInputAmount/baseReserve\r\n            // mintLP = totalLP*baseInputAmount/baseReserve\r\n            mintLP = totalSupply.mul(baseInputAmount).div(baseReserve);\r\n        }\r\n        return (mintLP, baseInputAmount.div(10**uint256(18 - baseDecimals)));\r\n    }\r\n\r\n    function getDataToRemoveLP(uint256 amountLP) public view returns (uint256, uint256){\r\n        \r\n        uint256 totalSupply = totalSupply();\r\n\r\n        if (amountLP > totalSupply) {\r\n            amountLP = totalSupply;\r\n        } \r\n        uint256 baseReserve = 0;\r\n        uint256 tokenReserve = 0;\r\n        (baseReserve, tokenReserve) = getTotalReserve();\r\n\r\n        // Scale baseReserve to 18 decimals\r\n        baseReserve = baseReserve.mul(10**uint256(18 - baseDecimals));\r\n\r\n        // Scale tokenReserve to 18 decimals\r\n        tokenReserve = tokenReserve.mul(10**uint256(18 - tokenDecimals));\r\n        \r\n        // amountLP/totalSupply = baseOutputAmount/baseReserve\r\n        // => baseOutputAmount = amountLP*baseReserve/totalSupply\r\n        uint256 baseOutputAmount = amountLP.mul(baseReserve).div(totalSupply);\r\n        uint256 tokenOutputAmount = amountLP.mul(tokenReserve).div(totalSupply);\r\n        \r\n        return (baseOutputAmount.div(10**uint256(18 - baseDecimals)), tokenOutputAmount.div(10**uint256(18 - tokenDecimals)));\r\n    }\r\n    \r\n    // token*base=(token-tokenOutputAmount)*(base+baseInputAmount)\r\n    //token-tokenOutputAmount = token*base/(base+baseInputAmount)\r\n    // => tokenOutputAmount=token - token*base/(base+baseInputAmount)\r\n    function getTokenOutputAmountFromBaseInput(uint256 baseInputAmount, uint256 baseReserve, uint256 tokenReserve) public pure returns (uint256) {\r\n      require(baseReserve > 0 && tokenReserve > 0, \"INVALID_VALUE\");\r\n      uint256 numerator = tokenReserve.mul(baseReserve);\r\n      uint256 denominator = baseReserve.add(baseInputAmount);\r\n      uint256 tokenOutputAmount = tokenReserve.sub(numerator.div(denominator));\r\n      return tokenOutputAmount;\r\n    }\r\n    \r\n    // token*base=(token-tokenOutputAmount)*(base+baseInputAmount)\r\n    // base+baseInputAmount = token*base/(token-tokenOutputAmount)\r\n    //baseInputAmount = token*base/(token-tokenOutputAmount) - base;\r\n    function getBaseInputAmountFromTokenOutput(uint256 tokenOutputAmount, uint256 baseReserve, uint256 tokenReserve) public pure  returns (uint256) {\r\n      require(baseReserve > 0 && tokenReserve > 0, \"INVALID_VALUE\");\r\n      uint256 numerator = tokenReserve.mul(baseReserve);\r\n      uint256 denominator = tokenReserve.sub(tokenOutputAmount);\r\n      uint256 baseInputAmount = numerator.div(denominator).sub(baseReserve);\r\n      return baseInputAmount;\r\n    }\r\n    \r\n    // token*base=(token+tokenInputAmount)*(base-baseOutputAmount)\r\n    // => base - baseOutputAmount=token*base/(token+tokenInputAmount)\r\n    // => baseOutputAmount = base - token*base/(token+tokenInputAmount)\r\n    function getBaseOutputAmountFromTokenInput(uint256 tokenInputAmount, uint256 baseReserve, uint256 tokenReserve) public pure returns (uint256) {\r\n      require(baseReserve > 0 && tokenReserve > 0, \"INVALID_VALUE\");\r\n      uint256 numerator = tokenReserve.mul(baseReserve);\r\n      uint256 denominator = tokenReserve.add(tokenInputAmount);\r\n      uint256 baseOutputAmount = baseReserve.sub(numerator.div(denominator));\r\n      return baseOutputAmount;\r\n    }\r\n\r\n    // token*base=(token+tokenInputAmount)*(base-baseOutputAmount)\r\n    // => token+tokenInputAmount = token*base/(base-baseOutputAmount)\r\n    // => tokenInputAmount = token*base/(base-baseOutputAmount) - token\r\n    function getTokenInputAmountFromBaseOutput(uint256 baseOutputAmount, uint256 baseReserve, uint256 tokenReserve) public pure returns (uint256) {\r\n      require(baseReserve > 0 && tokenReserve > 0, \"INVALID_VALUE\");\r\n      uint256 numerator = tokenReserve.mul(baseReserve);\r\n      uint256 denominator = baseReserve.sub(baseOutputAmount);\r\n      uint256 tokenInputAmount = numerator.div(denominator).sub(tokenReserve);\r\n      return tokenInputAmount;\r\n    }\r\n\r\n    function swapBaseToTokenWithBaseInput(uint256 baseInputAmount, uint256 minTokenOutput, uint256 deadline) public onlyWhitelist whenNotPaused nonReentrant {\r\n        require(deadline >= block.timestamp, 'INVALID_DEADLINE');\r\n        require(baseInputAmount > 0, 'INVALID_BASE_INPUT');\r\n        require(minTokenOutput > 0, 'INVALID_MIN_TOKEN_OUTPUT');\r\n        \r\n        uint256 userBaseBalance = base.balanceOf(msg.sender);\r\n        if(baseInputAmount > userBaseBalance) {\r\n            baseInputAmount = userBaseBalance;\r\n        }\r\n\r\n        // Scale baseInputAmount to 18 decimals\r\n        baseInputAmount = baseInputAmount.mul(10**uint256(18 - baseDecimals));\r\n\r\n        // Scale minTokenOutput to 18 decimals\r\n        minTokenOutput = minTokenOutput.mul(10**uint256(18 - tokenDecimals));\r\n        \r\n        uint256 baseReserve = 0;\r\n        uint256 tokenReserve = 0;\r\n        (baseReserve, tokenReserve) = getTotalReserve();\r\n\r\n        // Scale baseReserve to 18 decimals\r\n        baseReserve = baseReserve.mul(10**uint256(18 - baseDecimals));\r\n\r\n        // Scale tokenReserve to 18 decimals\r\n        tokenReserve = tokenReserve.mul(10**uint256(18 - tokenDecimals));\r\n\r\n        require(minTokenOutput < tokenReserve, \"MIN_TOKEN_HIGHER_POOL_TOKEN_BALANCE\");\r\n\r\n        uint256 tradeFee = baseInputAmount.mul(TRADE_FEE).div(1000);\r\n        uint256 baseInputAmountAfterFee = baseInputAmount.sub(tradeFee); // cut the TRADE_FEE from base input\r\n        \r\n        uint256 tokenOutputAmount = getTokenOutputAmountFromBaseInput(baseInputAmountAfterFee, baseReserve, tokenReserve);\r\n\r\n        require(tokenOutputAmount >= minTokenOutput, 'CAN_NOT_MAKE_TRADE');\r\n        require(tokenOutputAmount < tokenReserve, 'TOKEN_OUTPUT_HIGHER_POOL_TOKEN_BALANCE');\r\n        require(tokenOutputAmount.div(10**uint256(18 - tokenDecimals)) < token.balanceOf(address(this)), 'TOKEN_OUTPUT_HIGHER_CURRENT_TRADE_BALANCE');\r\n        \r\n        //make trade\r\n        base.transferFrom(msg.sender, address(this), baseInputAmount.div(10**uint256(18 - baseDecimals)));\r\n        token.transfer(msg.sender, tokenOutputAmount.div(10**uint256(18 - tokenDecimals)));\r\n\r\n        //transfer fee\r\n        base.transfer(feeMachineContract, tradeFee.div(10**uint256(18 - baseDecimals)));\r\n\r\n        emit onSwapBaseToTokenWithBaseInput(\r\n            msg.sender,\r\n            minTokenOutput.div(10**uint256(18 - tokenDecimals)),\r\n            baseInputAmount.div(10**uint256(18 - baseDecimals)),\r\n            tokenOutputAmount.div(10**uint256(18 - tokenDecimals)),\r\n            baseReserve.div(10**uint256(18 - baseDecimals)),\r\n            tokenReserve.div(10**uint256(18 - tokenDecimals))\r\n        );\r\n\r\n    }\r\n\r\n    function swapBaseToTokenWithTokenOutput(uint256 maxBaseInput, uint256 tokenOutputAmount, uint256 deadline) public onlyWhitelist whenNotPaused nonReentrant{\r\n        require(deadline >= block.timestamp, 'INVALID_DEADLINE');\r\n        require(maxBaseInput > 0, 'INVALID_MAX_BASE_INPUT');\r\n        require(tokenOutputAmount > 0, 'INVALID_TOKEN_OUTPUT');\r\n        require(tokenOutputAmount < token.balanceOf(address(this)), 'TOKEN_OUTPUT_HIGHER_CURRENT_TRADE_BALANCE');\r\n\r\n        // Scale maxBaseInput to 18 decimals\r\n        maxBaseInput = maxBaseInput.mul(10**uint256(18 - baseDecimals));\r\n\r\n        // Scale tokenOutputAmount to 18 decimals\r\n        tokenOutputAmount = tokenOutputAmount.mul(10**uint256(18 - tokenDecimals));\r\n        \r\n        uint256 baseReserve = 0;\r\n        uint256 tokenReserve = 0;\r\n        (baseReserve, tokenReserve) = getTotalReserve();\r\n\r\n        // Scale baseReserve to 18 decimals\r\n        baseReserve = baseReserve.mul(10**uint256(18 - baseDecimals));\r\n\r\n        // Scale tokenReserve to 18 decimals\r\n        tokenReserve = tokenReserve.mul(10**uint256(18 - tokenDecimals));\r\n\r\n        require(tokenOutputAmount < tokenReserve, \"TOKEN_OUTPUT_HIGHER_POOL_TOKEN_BALANCE\");\r\n\r\n        uint256 baseInputAmount = getBaseInputAmountFromTokenOutput(tokenOutputAmount, baseReserve, tokenReserve);\r\n        \r\n        uint256 tradeFee = baseInputAmount.mul(TRADE_FEE).div(1000);\r\n        baseInputAmount = baseInputAmount.add(tradeFee); // add the TRADE_FEE to base input\r\n\r\n        require(baseInputAmount <= maxBaseInput, 'CAN_NOT_MAKE_TRADE');\r\n        require(baseInputAmount > 0, 'INVALID_BASE_INPUT');\r\n        require(baseInputAmount <= base.balanceOf(msg.sender).mul(10**uint256(18 - baseDecimals)), 'BASE_INPUT_HIGHER_USER_BALANCE');\r\n        \r\n        // Make trade\r\n        base.transferFrom(msg.sender, address(this), baseInputAmount.div(10**uint256(18 - baseDecimals)));\r\n        token.transfer(msg.sender, tokenOutputAmount.div(10**uint256(18 - tokenDecimals)));\r\n\r\n        // Transfer fee\r\n        base.transfer(feeMachineContract, tradeFee.div(10**uint256(18 - baseDecimals)));\r\n\r\n        emit onSwapBaseToTokenWithTokenOutput(\r\n            msg.sender,\r\n            maxBaseInput,\r\n            baseInputAmount.div(10**uint256(18 - baseDecimals)),\r\n            tokenOutputAmount.div(10**uint256(18 - tokenDecimals)),\r\n            baseReserve.div(10**uint256(18 - baseDecimals)),\r\n            tokenReserve.div(10**uint256(18 - tokenDecimals))\r\n        );\r\n    }\r\n\r\n    function swapTokenToBaseWithTokenInput(uint256 tokenInputAmount, uint256 minBaseOutput, uint256 deadline) public onlyWhitelist whenNotPaused nonReentrant {\r\n        require(deadline >= block.timestamp, 'INVALID_DEADLINE');\r\n        require(minBaseOutput > 0, 'INVALID_MIN_BASE_OUTPUT');\r\n        require(tokenInputAmount > 0, 'INVALID_TOKEN_INPUT');\r\n\r\n        uint256 userTokenBalance = token.balanceOf(msg.sender);\r\n        if(tokenInputAmount > userTokenBalance) {\r\n            tokenInputAmount = userTokenBalance;\r\n        }\r\n\r\n        // Scale tokenInputAmount to 18 decimals\r\n        tokenInputAmount = tokenInputAmount.mul(10**uint256(18 - tokenDecimals));\r\n\r\n        // Scale minBaseOutput to 18 decimals\r\n        minBaseOutput = minBaseOutput.mul(10**uint256(18 - baseDecimals));\r\n\r\n        uint256 baseReserve = 0;\r\n        uint256 tokenReserve = 0;\r\n        (baseReserve, tokenReserve) = getTotalReserve();\r\n\r\n        // Scale baseReserve to 18 decimals\r\n        baseReserve = baseReserve.mul(10**uint256(18 - baseDecimals));\r\n\r\n        // Scale tokenReserve to 18 decimals\r\n        tokenReserve = tokenReserve.mul(10**uint256(18 - tokenDecimals));\r\n\r\n        require(minBaseOutput < baseReserve, 'MIN_BASE_OUTPUT_HIGHER_POOL_BASE_BALANCE');\r\n\r\n        uint256 tradeFee = tokenInputAmount.mul(TRADE_FEE).div(1000);\r\n        uint256 tokenInputAmountAfterFee = tokenInputAmount.sub(tradeFee); // cut the TRADE_FEE from token input\r\n        \r\n        uint256 baseOutputAmount = getBaseOutputAmountFromTokenInput(tokenInputAmountAfterFee, baseReserve, tokenReserve);\r\n\r\n        require(baseOutputAmount >= minBaseOutput, 'CAN_NOT_MAKE_TRADE');\r\n        require(baseOutputAmount < baseReserve, 'BASE_OUTPUT_HIGHER_POOL_BASE_BALANCE');\r\n        require(baseOutputAmount < base.balanceOf(address(this)).mul(10**uint256(18 - baseDecimals)), 'BASE_OUTPUT_HIGHER_CURRENT_TRADE_BALANCE');\r\n\r\n        // Make trade\r\n        token.transferFrom(msg.sender, address(this), tokenInputAmount.div(10**uint256(18 - tokenDecimals)));\r\n        base.transfer(msg.sender, baseOutputAmount.div(10**uint256(18 - baseDecimals)));\r\n\r\n        // Transfer fee\r\n        token.transfer(feeMachineContract, tradeFee.div(10**uint256(18 - tokenDecimals)));\r\n\r\n        emit onSwapTokenToBaseWithTokenInput(\r\n            msg.sender,\r\n            minBaseOutput.div(10**uint256(18 - baseDecimals)),\r\n            tokenInputAmount.div(10**uint256(18 - tokenDecimals)),\r\n            baseOutputAmount.div(10**uint256(18 - baseDecimals)),\r\n            baseReserve.div(10**uint256(18 - baseDecimals)),\r\n            tokenReserve.div(10**uint256(18 - tokenDecimals))\r\n        );\r\n    }\r\n\r\n    function swapTokenToBaseWithBaseOutput(uint256 maxTokenInput, uint256 baseOutputAmount, uint256 deadline) public onlyWhitelist whenNotPaused nonReentrant {\r\n        require(deadline >= block.timestamp, 'INVALID_DEADLINE');\r\n        require(maxTokenInput > 0, 'INVALID_MAX_TOKEN_INPUT');\r\n        require(baseOutputAmount > 0, 'INVALID_BASE_OUTPUT');\r\n        require(baseOutputAmount < base.balanceOf(address(this)), 'BASE_OUTPUT_HIGHER_CURRENT_TRADE_BALANCE');\r\n        \r\n        // Scale maxTokenInput to 18 decimals\r\n        maxTokenInput = maxTokenInput.mul(10**uint256(18 - tokenDecimals));\r\n\r\n        // Scale baseOutputAmount to 18 decimals\r\n        baseOutputAmount = baseOutputAmount.mul(10**uint256(18 - baseDecimals));\r\n\r\n        uint256 baseReserve = 0;\r\n        uint256 tokenReserve = 0;\r\n        (baseReserve, tokenReserve) = getTotalReserve();\r\n\r\n        // Scale baseReserve to 18 decimals\r\n        baseReserve = baseReserve.mul(10**uint256(18 - baseDecimals));\r\n\r\n        // Scale tokenReserve to 18 decimals\r\n        tokenReserve = tokenReserve.mul(10**uint256(18 - tokenDecimals));\r\n\r\n        require(baseOutputAmount < baseReserve, 'BASE_OUTPUT_HIGHER_POOL_BASE_BALANCE');\r\n\r\n        uint256 tokenInputAmount = getTokenInputAmountFromBaseOutput(baseOutputAmount, baseReserve, tokenReserve);\r\n        \r\n        uint256 tradeFee = tokenInputAmount.mul(TRADE_FEE).div(1000);\r\n        tokenInputAmount = tokenInputAmount.add(tradeFee); // add the TRADE_FEE to token input\r\n\r\n        require(tokenInputAmount <= maxTokenInput, 'CAN_NOT_MAKE_TRADE');\r\n        require(tokenInputAmount > 0, 'INVALID_TOKEN_INPUT');\r\n        require(tokenInputAmount <= token.balanceOf(msg.sender).mul(10**uint256(18 - tokenDecimals)), 'TOKEN_INPUT_HIGHER_USER_BALANCE');\r\n\r\n        // Make trade\r\n        token.transferFrom(msg.sender, address(this), tokenInputAmount.div(10**uint256(18 - tokenDecimals)));\r\n        base.transfer(msg.sender, baseOutputAmount.div(10**uint256(18 - baseDecimals)));\r\n\r\n        // Transfer fee\r\n        token.transfer(feeMachineContract, tradeFee.div(10**uint256(18 - tokenDecimals)));\r\n\r\n        emit onSwapTokenToBaseWithBaseOutput(\r\n            msg.sender,\r\n            maxTokenInput.div(10**uint256(18 - tokenDecimals)),\r\n            tokenInputAmount.div(10**uint256(18 - tokenDecimals)),\r\n            baseOutputAmount.div(10**uint256(18 - baseDecimals)),\r\n            baseReserve.div(10**uint256(18 - baseDecimals)),\r\n            tokenReserve.div(10**uint256(18 - tokenDecimals))\r\n        );\r\n    }\r\n\r\n    function addLP(uint256 minLP, uint256 baseInputAmount, uint256 maxTokenInputAmount, uint256 deadline) public onlyWhitelist nonReentrant returns (uint256) {\r\n        require(deadline >= block.timestamp, 'INVALID_DEADLINE');\r\n        require(minLP > 0, 'INVALID_MIN_LP');\r\n        require(baseInputAmount > 0, 'INVALID_BASE_INPUT');\r\n        require(maxTokenInputAmount > 0, 'INVALID_MAX_TOKEN_INPUT');\r\n\r\n        uint256 userBaseBalance = base.balanceOf(msg.sender);\r\n        if(baseInputAmount > userBaseBalance) {\r\n            baseInputAmount = userBaseBalance;\r\n        }\r\n\r\n        // Scale baseInputAmount to 18 decimals\r\n        baseInputAmount = baseInputAmount.mul(10**uint256(18 - baseDecimals));\r\n\r\n        // Scale maxTokenInputAmount to 18 decimals\r\n        maxTokenInputAmount = maxTokenInputAmount.mul(10**uint256(18 - tokenDecimals));\r\n        \r\n        uint256 totalSupply = totalSupply();\r\n        if(totalSupply == 0) {\r\n            // Scale back to respective decimals for transfer\r\n            base.transferFrom(msg.sender, address(this), baseInputAmount.div(10**uint256(18 - baseDecimals)));\r\n            token.transferFrom(msg.sender, address(this), maxTokenInputAmount.div(10**uint256(18 - tokenDecimals)));\r\n            \r\n            uint256 initLP = baseInputAmount;\r\n            _mint(msg.sender, initLP);\r\n            emit onAddLP(msg.sender, initLP, baseInputAmount.div(10**uint256(18 - baseDecimals)), maxTokenInputAmount.div(10**uint256(18 - tokenDecimals)), base.balanceOf(address(this)), token.balanceOf(address(this)));\r\n            return initLP;\r\n        }\r\n        else { \r\n            // tokenReserve/baseReserve = (tokenReserve+tokenInputAmount)/(baseReserve+baseInputAmount)\r\n            // => tokenReserve+tokenInputAmount = tokenReserve*(baseReserve+baseInputAmount)/baseReserve\r\n            // => tokenInputAmount = tokenReserve*(baseReserve+baseInputAmount)/baseReserve - tokenReserve;\r\n            uint256 baseReserve = 0;\r\n            uint256 tokenReserve = 0;\r\n            (baseReserve, tokenReserve) = getTotalReserve();\r\n\r\n            // Scale baseReserve to 18 decimals\r\n            baseReserve = baseReserve.mul(10**uint256(18 - baseDecimals));\r\n\r\n            // Scale tokenReserve to 18 decimals\r\n            tokenReserve = tokenReserve.mul(10**uint256(18 - tokenDecimals));\r\n\r\n            uint256 tokenInputAmount = tokenReserve.mul(baseReserve.add(baseInputAmount)).div(baseReserve).sub(tokenReserve);\r\n\r\n            // mintLP/totalLP =  baseInputAmount/baseReserve\r\n            // mintLP = totalLP*baseInputAmount/baseReserve\r\n            uint256 mintLP = totalSupply.mul(baseInputAmount).div(baseReserve);\r\n            \r\n            require(tokenInputAmount > 0, 'INVALID_TOKEN_INPUT');\r\n            require(tokenInputAmount.div(10**uint256(18 - tokenDecimals)) <= maxTokenInputAmount.div(10**uint256(18 - tokenDecimals)), 'INVALID_TOKEN_INPUT');\r\n            require(mintLP >= minLP, \"INVALID_MINT_LP\");\r\n\r\n            base.transferFrom(msg.sender, address(this), baseInputAmount.div(10**uint256(18 - baseDecimals)));\r\n            token.transferFrom(msg.sender, address(this), tokenInputAmount.div(10**uint256(18 - tokenDecimals)));\r\n\r\n            _mint(msg.sender, mintLP);\r\n            emit onAddLP(msg.sender, mintLP, baseInputAmount.div(10**uint256(18 - baseDecimals)), tokenInputAmount.div(10**uint256(18 - tokenDecimals)), base.balanceOf(address(this)), token.balanceOf(address(this)));\r\n            return mintLP;\r\n        }\r\n    }\r\n\r\n    function removeLP(uint256 amountLP, uint256 minBaseOutput, uint256 minTokenOutput, uint256 deadline) public onlyWhitelist nonReentrant returns (uint256, uint256) {\r\n        require(deadline >= block.timestamp, 'INVALID_DEADLINE');\r\n        require(amountLP > 0, 'INVALID_AMOUNT_LP');\r\n        require(minBaseOutput > 0, 'INVALID_MIN_BASE_OUTPUT');\r\n        require(minTokenOutput > 0, 'INVALID_MIN_TOKEN_OUTPUT');\r\n\r\n        // Scale minBaseOutput to 18 decimals\r\n        minBaseOutput = minBaseOutput.mul(10**uint256(18 - baseDecimals));\r\n\r\n        // Scale maxTokenInputAmount to 18 decimals\r\n        minTokenOutput = minTokenOutput.mul(10**uint256(18 - tokenDecimals));\r\n        \r\n        uint256 totalSupply = totalSupply();\r\n        \r\n        uint256 userLPbalance = balanceOf(msg.sender);\r\n        if(amountLP > userLPbalance) {\r\n            amountLP = userLPbalance;\r\n        }\r\n\r\n        require(amountLP <= totalSupply, 'INVALID_AMOUNT_LP_TOTAL_SUPPLY');\r\n         \r\n        uint256 baseReserve = 0;\r\n        uint256 tokenReserve = 0;\r\n        (baseReserve, tokenReserve) = getTotalReserve();\r\n\r\n        // Scale baseReserve to 18 decimals\r\n        baseReserve = baseReserve.mul(10**uint256(18 - baseDecimals));\r\n\r\n        // Scale tokenReserve to 18 decimals\r\n        tokenReserve = tokenReserve.mul(10**uint256(18 - tokenDecimals));\r\n        \r\n        // amountLP/totalSupply = baseOutputAmount/baseReserve\r\n        // => baseOutputAmount = amountLP*baseReserve/totalSupply\r\n        uint256 baseOutputAmount = amountLP.mul(baseReserve).div(totalSupply);\r\n        uint256 tokenOutputAmount = amountLP.mul(tokenReserve).div(totalSupply);\r\n\r\n        require(baseOutputAmount >= minBaseOutput, \"INVALID_BASE_OUTPUT\");\r\n        require(tokenOutputAmount >= minTokenOutput, \"INVALID_TOKEN_OUTPUT\");\r\n        require(baseOutputAmount <= baseReserve, \"BASE_OUTPUT_HIGHER_BASE_BALANCE\");\r\n        require(tokenOutputAmount <= tokenReserve, \"TOKEN_OUTPUT_HIGHER_TOKEN_BALANCE\");\r\n\r\n        _burn(msg.sender, amountLP);\r\n        // Scale back to respective decimals for transfer\r\n        base.transfer(msg.sender, baseOutputAmount.div(10**uint256(18 - baseDecimals)));\r\n        token.transfer(msg.sender, tokenOutputAmount.div(10**uint256(18 - tokenDecimals)));\r\n\r\n        emit onRemoveLP(msg.sender, amountLP, baseOutputAmount.div(10**uint256(18 - baseDecimals)), tokenOutputAmount.div(10**uint256(18 - tokenDecimals)), base.balanceOf(address(this)), token.balanceOf(address(this)));\r\n\r\n        return (baseOutputAmount.div(10**uint256(18 - baseDecimals)), tokenOutputAmount.div(10**uint256(18 - tokenDecimals)));\r\n    }\r\n\r\n    function getTotalReserve() public view returns (uint256, uint256) { \r\n        uint256 baseReserve = base.balanceOf(address(this));\r\n        uint256 tokenReserve = token.balanceOf(address(this));\r\n\r\n        return (baseReserve, tokenReserve);\r\n    }\r\n\r\n    function pause() public onlyOwner {\r\n        _pause();\r\n    }\r\n    \r\n    function unpause() public onlyOwner {\r\n        _unpause();\r\n    }\r\n}",
  "sourcePath": "E:\\Research\\contracts\\contracts\\BreezySwap\\BreezySwapV1BREWETH.sol",
  "compiler": {
    "name": "solc",
    "version": "0.8.17+commit.8df45f5f.Emscripten.clang"
  },
  "schemaVersion": "3.4.11",
  "updatedAt": "2023-10-13T04:47:27.616Z",
  "networkType": "ethereum",
  "devdoc": {
    "kind": "dev",
    "methods": {
      "allowance(address,address)": {
        "details": "See {IERC20-allowance}."
      },
      "approve(address,uint256)": {
        "details": "See {IERC20-approve}. NOTE: If `amount` is the maximum `uint256`, the allowance is not updated on `transferFrom`. This is semantically equivalent to an infinite approval. Requirements: - `spender` cannot be the zero address."
      },
      "balanceOf(address)": {
        "details": "See {IERC20-balanceOf}."
      },
      "burn(uint256)": {
        "details": "Destroys `amount` tokens from the caller. See {ERC20-_burn}."
      },
      "burnFrom(address,uint256)": {
        "details": "Destroys `amount` tokens from `account`, deducting from the caller's allowance. See {ERC20-_burn} and {ERC20-allowance}. Requirements: - the caller must have allowance for ``accounts``'s tokens of at least `amount`."
      },
      "decimals()": {
        "details": "Returns the number of decimals used to get its user representation. For example, if `decimals` equals `2`, a balance of `505` tokens should be displayed to a user as `5.05` (`505 / 10 ** 2`). Tokens usually opt for a value of 18, imitating the relationship between Ether and Wei. This is the default value returned by this function, unless it's overridden. NOTE: This information is only used for _display_ purposes: it in no way affects any of the arithmetic of the contract, including {IERC20-balanceOf} and {IERC20-transfer}."
      },
      "decreaseAllowance(address,uint256)": {
        "details": "Atomically decreases the allowance granted to `spender` by the caller. This is an alternative to {approve} that can be used as a mitigation for problems described in {IERC20-approve}. Emits an {Approval} event indicating the updated allowance. Requirements: - `spender` cannot be the zero address. - `spender` must have allowance for the caller of at least `subtractedValue`."
      },
      "increaseAllowance(address,uint256)": {
        "details": "Atomically increases the allowance granted to `spender` by the caller. This is an alternative to {approve} that can be used as a mitigation for problems described in {IERC20-approve}. Emits an {Approval} event indicating the updated allowance. Requirements: - `spender` cannot be the zero address."
      },
      "name()": {
        "details": "Returns the name of the token."
      },
      "owner()": {
        "details": "Returns the address of the current owner."
      },
      "paused()": {
        "details": "Returns true if the contract is paused, and false otherwise."
      },
      "renounceOwnership()": {
        "details": "Leaves the contract without owner. It will not be possible to call `onlyOwner` functions. Can only be called by the current owner. NOTE: Renouncing ownership will leave the contract without an owner, thereby disabling any functionality that is only available to the owner."
      },
      "symbol()": {
        "details": "Returns the symbol of the token, usually a shorter version of the name."
      },
      "totalSupply()": {
        "details": "See {IERC20-totalSupply}."
      },
      "transfer(address,uint256)": {
        "details": "See {IERC20-transfer}. Requirements: - `to` cannot be the zero address. - the caller must have a balance of at least `amount`."
      },
      "transferFrom(address,address,uint256)": {
        "details": "See {IERC20-transferFrom}. Emits an {Approval} event indicating the updated allowance. This is not required by the EIP. See the note at the beginning of {ERC20}. NOTE: Does not update the allowance if the current allowance is the maximum `uint256`. Requirements: - `from` and `to` cannot be the zero address. - `from` must have a balance of at least `amount`. - the caller must have allowance for ``from``'s tokens of at least `amount`."
      },
      "transferOwnership(address)": {
        "details": "Transfers ownership of the contract to a new account (`newOwner`). Can only be called by the current owner."
      }
    },
    "version": 1
  },
  "userdoc": {
    "kind": "user",
    "methods": {},
    "version": 1
  }
}