{
  "contractName": "BreezySwapV1BREWETH",
  "abi": [
    {
      "inputs": [
        {
          "internalType": "contract IERC20Metadata",
          "name": "_base",
          "type": "address"
        },
        {
          "internalType": "contract IERC20Metadata",
          "name": "_token",
          "type": "address"
        },
        {
          "internalType": "address",
          "name": "_feeMachineContract",
          "type": "address"
        },
        {
          "internalType": "contract IBreezyWhitelist",
          "name": "_whitelistContract",
          "type": "address"
        },
        {
          "internalType": "string",
          "name": "name",
          "type": "string"
        },
        {
          "internalType": "string",
          "name": "symbol",
          "type": "string"
        }
      ],
      "stateMutability": "nonpayable",
      "type": "constructor"
    },
    {
      "anonymous": false,
      "inputs": [
        {
          "indexed": true,
          "internalType": "address",
          "name": "owner",
          "type": "address"
        },
        {
          "indexed": true,
          "internalType": "address",
          "name": "spender",
          "type": "address"
        },
        {
          "indexed": false,
          "internalType": "uint256",
          "name": "value",
          "type": "uint256"
        }
      ],
      "name": "Approval",
      "type": "event"
    },
    {
      "anonymous": false,
      "inputs": [
        {
          "indexed": true,
          "internalType": "address",
          "name": "previousOwner",
          "type": "address"
        },
        {
          "indexed": true,
          "internalType": "address",
          "name": "newOwner",
          "type": "address"
        }
      ],
      "name": "OwnershipTransferred",
      "type": "event"
    },
    {
      "anonymous": false,
      "inputs": [
        {
          "indexed": false,
          "internalType": "address",
          "name": "account",
          "type": "address"
        }
      ],
      "name": "Paused",
      "type": "event"
    },
    {
      "anonymous": false,
      "inputs": [
        {
          "indexed": true,
          "internalType": "address",
          "name": "from",
          "type": "address"
        },
        {
          "indexed": true,
          "internalType": "address",
          "name": "to",
          "type": "address"
        },
        {
          "indexed": false,
          "internalType": "uint256",
          "name": "value",
          "type": "uint256"
        }
      ],
      "name": "Transfer",
      "type": "event"
    },
    {
      "anonymous": false,
      "inputs": [
        {
          "indexed": false,
          "internalType": "address",
          "name": "account",
          "type": "address"
        }
      ],
      "name": "Unpaused",
      "type": "event"
    },
    {
      "anonymous": false,
      "inputs": [
        {
          "indexed": false,
          "internalType": "address",
          "name": "sender",
          "type": "address"
        },
        {
          "indexed": false,
          "internalType": "uint256",
          "name": "mintLP",
          "type": "uint256"
        },
        {
          "indexed": false,
          "internalType": "uint256",
          "name": "baseInputAmount",
          "type": "uint256"
        },
        {
          "indexed": false,
          "internalType": "uint256",
          "name": "tokenInputAmount",
          "type": "uint256"
        },
        {
          "indexed": false,
          "internalType": "uint256",
          "name": "poolBaseBalance",
          "type": "uint256"
        },
        {
          "indexed": false,
          "internalType": "uint256",
          "name": "poolTokenBalance",
          "type": "uint256"
        }
      ],
      "name": "onAddLP",
      "type": "event"
    },
    {
      "anonymous": false,
      "inputs": [
        {
          "indexed": false,
          "internalType": "address",
          "name": "sender",
          "type": "address"
        },
        {
          "indexed": false,
          "internalType": "uint256",
          "name": "amountLP",
          "type": "uint256"
        },
        {
          "indexed": false,
          "internalType": "uint256",
          "name": "baseOutputAmout",
          "type": "uint256"
        },
        {
          "indexed": false,
          "internalType": "uint256",
          "name": "tokenOutputAmount",
          "type": "uint256"
        },
        {
          "indexed": false,
          "internalType": "uint256",
          "name": "poolBaseBalance",
          "type": "uint256"
        },
        {
          "indexed": false,
          "internalType": "uint256",
          "name": "poolTokenBalance",
          "type": "uint256"
        }
      ],
      "name": "onRemoveLP",
      "type": "event"
    },
    {
      "anonymous": false,
      "inputs": [
        {
          "indexed": false,
          "internalType": "address",
          "name": "sender",
          "type": "address"
        },
        {
          "indexed": false,
          "internalType": "uint256",
          "name": "minTokenOutput",
          "type": "uint256"
        },
        {
          "indexed": false,
          "internalType": "uint256",
          "name": "baseInputAmount",
          "type": "uint256"
        },
        {
          "indexed": false,
          "internalType": "uint256",
          "name": "tokenOutputAmount",
          "type": "uint256"
        },
        {
          "indexed": false,
          "internalType": "uint256",
          "name": "poolBaseBalance",
          "type": "uint256"
        },
        {
          "indexed": false,
          "internalType": "uint256",
          "name": "poolTokenBalance",
          "type": "uint256"
        }
      ],
      "name": "onSwapBaseToTokenWithBaseInput",
      "type": "event"
    },
    {
      "anonymous": false,
      "inputs": [
        {
          "indexed": false,
          "internalType": "address",
          "name": "sender",
          "type": "address"
        },
        {
          "indexed": false,
          "internalType": "uint256",
          "name": "maxBaseInput",
          "type": "uint256"
        },
        {
          "indexed": false,
          "internalType": "uint256",
          "name": "baseInputAmount",
          "type": "uint256"
        },
        {
          "indexed": false,
          "internalType": "uint256",
          "name": "tokenOutputAmount",
          "type": "uint256"
        },
        {
          "indexed": false,
          "internalType": "uint256",
          "name": "poolBaseBalance",
          "type": "uint256"
        },
        {
          "indexed": false,
          "internalType": "uint256",
          "name": "poolTokenBalance",
          "type": "uint256"
        }
      ],
      "name": "onSwapBaseToTokenWithTokenOutput",
      "type": "event"
    },
    {
      "anonymous": false,
      "inputs": [
        {
          "indexed": false,
          "internalType": "address",
          "name": "sender",
          "type": "address"
        },
        {
          "indexed": false,
          "internalType": "uint256",
          "name": "maxTokenInput",
          "type": "uint256"
        },
        {
          "indexed": false,
          "internalType": "uint256",
          "name": "tokenInputAmount",
          "type": "uint256"
        },
        {
          "indexed": false,
          "internalType": "uint256",
          "name": "baseOutputAmount",
          "type": "uint256"
        },
        {
          "indexed": false,
          "internalType": "uint256",
          "name": "poolBaseBalance",
          "type": "uint256"
        },
        {
          "indexed": false,
          "internalType": "uint256",
          "name": "poolTokenBalance",
          "type": "uint256"
        }
      ],
      "name": "onSwapTokenToBaseWithBaseOutput",
      "type": "event"
    },
    {
      "anonymous": false,
      "inputs": [
        {
          "indexed": false,
          "internalType": "address",
          "name": "sender",
          "type": "address"
        },
        {
          "indexed": false,
          "internalType": "uint256",
          "name": "minBaseOutput",
          "type": "uint256"
        },
        {
          "indexed": false,
          "internalType": "uint256",
          "name": "tokenInputAmount",
          "type": "uint256"
        },
        {
          "indexed": false,
          "internalType": "uint256",
          "name": "baseOutputAmount",
          "type": "uint256"
        },
        {
          "indexed": false,
          "internalType": "uint256",
          "name": "poolBaseBalance",
          "type": "uint256"
        },
        {
          "indexed": false,
          "internalType": "uint256",
          "name": "poolTokenBalance",
          "type": "uint256"
        }
      ],
      "name": "onSwapTokenToBaseWithTokenInput",
      "type": "event"
    },
    {
      "inputs": [],
      "name": "TRADE_FEE",
      "outputs": [
        {
          "internalType": "uint256",
          "name": "",
          "type": "uint256"
        }
      ],
      "stateMutability": "view",
      "type": "function",
      "constant": true
    },
    {
      "inputs": [
        {
          "internalType": "address",
          "name": "owner",
          "type": "address"
        },
        {
          "internalType": "address",
          "name": "spender",
          "type": "address"
        }
      ],
      "name": "allowance",
      "outputs": [
        {
          "internalType": "uint256",
          "name": "",
          "type": "uint256"
        }
      ],
      "stateMutability": "view",
      "type": "function",
      "constant": true
    },
    {
      "inputs": [
        {
          "internalType": "address",
          "name": "spender",
          "type": "address"
        },
        {
          "internalType": "uint256",
          "name": "amount",
          "type": "uint256"
        }
      ],
      "name": "approve",
      "outputs": [
        {
          "internalType": "bool",
          "name": "",
          "type": "bool"
        }
      ],
      "stateMutability": "nonpayable",
      "type": "function"
    },
    {
      "inputs": [
        {
          "internalType": "address",
          "name": "account",
          "type": "address"
        }
      ],
      "name": "balanceOf",
      "outputs": [
        {
          "internalType": "uint256",
          "name": "",
          "type": "uint256"
        }
      ],
      "stateMutability": "view",
      "type": "function",
      "constant": true
    },
    {
      "inputs": [],
      "name": "base",
      "outputs": [
        {
          "internalType": "contract IERC20Metadata",
          "name": "",
          "type": "address"
        }
      ],
      "stateMutability": "view",
      "type": "function",
      "constant": true
    },
    {
      "inputs": [],
      "name": "baseDecimals",
      "outputs": [
        {
          "internalType": "uint8",
          "name": "",
          "type": "uint8"
        }
      ],
      "stateMutability": "view",
      "type": "function",
      "constant": true
    },
    {
      "inputs": [
        {
          "internalType": "uint256",
          "name": "amount",
          "type": "uint256"
        }
      ],
      "name": "burn",
      "outputs": [],
      "stateMutability": "nonpayable",
      "type": "function"
    },
    {
      "inputs": [
        {
          "internalType": "address",
          "name": "account",
          "type": "address"
        },
        {
          "internalType": "uint256",
          "name": "amount",
          "type": "uint256"
        }
      ],
      "name": "burnFrom",
      "outputs": [],
      "stateMutability": "nonpayable",
      "type": "function"
    },
    {
      "inputs": [],
      "name": "decimals",
      "outputs": [
        {
          "internalType": "uint8",
          "name": "",
          "type": "uint8"
        }
      ],
      "stateMutability": "view",
      "type": "function",
      "constant": true
    },
    {
      "inputs": [
        {
          "internalType": "address",
          "name": "spender",
          "type": "address"
        },
        {
          "internalType": "uint256",
          "name": "subtractedValue",
          "type": "uint256"
        }
      ],
      "name": "decreaseAllowance",
      "outputs": [
        {
          "internalType": "bool",
          "name": "",
          "type": "bool"
        }
      ],
      "stateMutability": "nonpayable",
      "type": "function"
    },
    {
      "inputs": [],
      "name": "feeMachineContract",
      "outputs": [
        {
          "internalType": "address",
          "name": "",
          "type": "address"
        }
      ],
      "stateMutability": "view",
      "type": "function",
      "constant": true
    },
    {
      "inputs": [
        {
          "internalType": "address",
          "name": "spender",
          "type": "address"
        },
        {
          "internalType": "uint256",
          "name": "addedValue",
          "type": "uint256"
        }
      ],
      "name": "increaseAllowance",
      "outputs": [
        {
          "internalType": "bool",
          "name": "",
          "type": "bool"
        }
      ],
      "stateMutability": "nonpayable",
      "type": "function"
    },
    {
      "inputs": [],
      "name": "name",
      "outputs": [
        {
          "internalType": "string",
          "name": "",
          "type": "string"
        }
      ],
      "stateMutability": "view",
      "type": "function",
      "constant": true
    },
    {
      "inputs": [],
      "name": "owner",
      "outputs": [
        {
          "internalType": "address",
          "name": "",
          "type": "address"
        }
      ],
      "stateMutability": "view",
      "type": "function",
      "constant": true
    },
    {
      "inputs": [],
      "name": "paused",
      "outputs": [
        {
          "internalType": "bool",
          "name": "",
          "type": "bool"
        }
      ],
      "stateMutability": "view",
      "type": "function",
      "constant": true
    },
    {
      "inputs": [],
      "name": "platformFundAddress",
      "outputs": [
        {
          "internalType": "address",
          "name": "",
          "type": "address"
        }
      ],
      "stateMutability": "view",
      "type": "function",
      "constant": true
    },
    {
      "inputs": [],
      "name": "renounceOwnership",
      "outputs": [],
      "stateMutability": "nonpayable",
      "type": "function"
    },
    {
      "inputs": [],
      "name": "symbol",
      "outputs": [
        {
          "internalType": "string",
          "name": "",
          "type": "string"
        }
      ],
      "stateMutability": "view",
      "type": "function",
      "constant": true
    },
    {
      "inputs": [],
      "name": "token",
      "outputs": [
        {
          "internalType": "contract IERC20Metadata",
          "name": "",
          "type": "address"
        }
      ],
      "stateMutability": "view",
      "type": "function",
      "constant": true
    },
    {
      "inputs": [],
      "name": "tokenDecimals",
      "outputs": [
        {
          "internalType": "uint8",
          "name": "",
          "type": "uint8"
        }
      ],
      "stateMutability": "view",
      "type": "function",
      "constant": true
    },
    {
      "inputs": [],
      "name": "totalSupply",
      "outputs": [
        {
          "internalType": "uint256",
          "name": "",
          "type": "uint256"
        }
      ],
      "stateMutability": "view",
      "type": "function",
      "constant": true
    },
    {
      "inputs": [
        {
          "internalType": "address",
          "name": "to",
          "type": "address"
        },
        {
          "internalType": "uint256",
          "name": "amount",
          "type": "uint256"
        }
      ],
      "name": "transfer",
      "outputs": [
        {
          "internalType": "bool",
          "name": "",
          "type": "bool"
        }
      ],
      "stateMutability": "nonpayable",
      "type": "function"
    },
    {
      "inputs": [
        {
          "internalType": "address",
          "name": "from",
          "type": "address"
        },
        {
          "internalType": "address",
          "name": "to",
          "type": "address"
        },
        {
          "internalType": "uint256",
          "name": "amount",
          "type": "uint256"
        }
      ],
      "name": "transferFrom",
      "outputs": [
        {
          "internalType": "bool",
          "name": "",
          "type": "bool"
        }
      ],
      "stateMutability": "nonpayable",
      "type": "function"
    },
    {
      "inputs": [
        {
          "internalType": "address",
          "name": "newOwner",
          "type": "address"
        }
      ],
      "name": "transferOwnership",
      "outputs": [],
      "stateMutability": "nonpayable",
      "type": "function"
    },
    {
      "inputs": [],
      "name": "whitelistContract",
      "outputs": [
        {
          "internalType": "contract IBreezyWhitelist",
          "name": "",
          "type": "address"
        }
      ],
      "stateMutability": "view",
      "type": "function",
      "constant": true
    },
    {
      "inputs": [
        {
          "internalType": "address",
          "name": "_whitelistContract",
          "type": "address"
        }
      ],
      "name": "setWhitelistContract",
      "outputs": [],
      "stateMutability": "nonpayable",
      "type": "function"
    },
    {
      "inputs": [
        {
          "internalType": "address",
          "name": "_feeMachineContract",
          "type": "address"
        }
      ],
      "name": "setFeeMachineContract",
      "outputs": [],
      "stateMutability": "nonpayable",
      "type": "function"
    },
    {
      "inputs": [
        {
          "internalType": "uint256",
          "name": "_tradeFee",
          "type": "uint256"
        }
      ],
      "name": "setTradeFee",
      "outputs": [],
      "stateMutability": "nonpayable",
      "type": "function"
    },
    {
      "inputs": [
        {
          "internalType": "address",
          "name": "newAddress",
          "type": "address"
        }
      ],
      "name": "setPlatformFundAdress",
      "outputs": [],
      "stateMutability": "nonpayable",
      "type": "function"
    },
    {
      "inputs": [],
      "name": "getK",
      "outputs": [
        {
          "internalType": "uint256",
          "name": "",
          "type": "uint256"
        }
      ],
      "stateMutability": "view",
      "type": "function",
      "constant": true
    },
    {
      "inputs": [
        {
          "internalType": "uint256",
          "name": "baseInputAmount",
          "type": "uint256"
        }
      ],
      "name": "getTokenOutput",
      "outputs": [
        {
          "internalType": "uint256",
          "name": "",
          "type": "uint256"
        }
      ],
      "stateMutability": "view",
      "type": "function",
      "constant": true
    },
    {
      "inputs": [
        {
          "internalType": "uint256",
          "name": "tokenInputAmount",
          "type": "uint256"
        }
      ],
      "name": "getBaseOutput",
      "outputs": [
        {
          "internalType": "uint256",
          "name": "",
          "type": "uint256"
        }
      ],
      "stateMutability": "view",
      "type": "function",
      "constant": true
    },
    {
      "inputs": [
        {
          "internalType": "uint256",
          "name": "baseInputAmount",
          "type": "uint256"
        }
      ],
      "name": "getDataFromBaseInputToAddLp",
      "outputs": [
        {
          "internalType": "uint256",
          "name": "",
          "type": "uint256"
        },
        {
          "internalType": "uint256",
          "name": "",
          "type": "uint256"
        }
      ],
      "stateMutability": "view",
      "type": "function",
      "constant": true
    },
    {
      "inputs": [
        {
          "internalType": "uint256",
          "name": "tokenInputAmount",
          "type": "uint256"
        }
      ],
      "name": "getDataFromTokenInputToAddLp",
      "outputs": [
        {
          "internalType": "uint256",
          "name": "",
          "type": "uint256"
        },
        {
          "internalType": "uint256",
          "name": "",
          "type": "uint256"
        }
      ],
      "stateMutability": "view",
      "type": "function",
      "constant": true
    },
    {
      "inputs": [
        {
          "internalType": "uint256",
          "name": "amountLP",
          "type": "uint256"
        }
      ],
      "name": "getDataToRemoveLP",
      "outputs": [
        {
          "internalType": "uint256",
          "name": "",
          "type": "uint256"
        },
        {
          "internalType": "uint256",
          "name": "",
          "type": "uint256"
        }
      ],
      "stateMutability": "view",
      "type": "function",
      "constant": true
    },
    {
      "inputs": [
        {
          "internalType": "uint256",
          "name": "baseInputAmount",
          "type": "uint256"
        },
        {
          "internalType": "uint256",
          "name": "baseReserve",
          "type": "uint256"
        },
        {
          "internalType": "uint256",
          "name": "tokenReserve",
          "type": "uint256"
        }
      ],
      "name": "getTokenOutputAmountFromBaseInput",
      "outputs": [
        {
          "internalType": "uint256",
          "name": "",
          "type": "uint256"
        }
      ],
      "stateMutability": "pure",
      "type": "function",
      "constant": true
    },
    {
      "inputs": [
        {
          "internalType": "uint256",
          "name": "tokenOutputAmount",
          "type": "uint256"
        },
        {
          "internalType": "uint256",
          "name": "baseReserve",
          "type": "uint256"
        },
        {
          "internalType": "uint256",
          "name": "tokenReserve",
          "type": "uint256"
        }
      ],
      "name": "getBaseInputAmountFromTokenOutput",
      "outputs": [
        {
          "internalType": "uint256",
          "name": "",
          "type": "uint256"
        }
      ],
      "stateMutability": "pure",
      "type": "function",
      "constant": true
    },
    {
      "inputs": [
        {
          "internalType": "uint256",
          "name": "tokenInputAmount",
          "type": "uint256"
        },
        {
          "internalType": "uint256",
          "name": "baseReserve",
          "type": "uint256"
        },
        {
          "internalType": "uint256",
          "name": "tokenReserve",
          "type": "uint256"
        }
      ],
      "name": "getBaseOutputAmountFromTokenInput",
      "outputs": [
        {
          "internalType": "uint256",
          "name": "",
          "type": "uint256"
        }
      ],
      "stateMutability": "pure",
      "type": "function",
      "constant": true
    },
    {
      "inputs": [
        {
          "internalType": "uint256",
          "name": "baseOutputAmount",
          "type": "uint256"
        },
        {
          "internalType": "uint256",
          "name": "baseReserve",
          "type": "uint256"
        },
        {
          "internalType": "uint256",
          "name": "tokenReserve",
          "type": "uint256"
        }
      ],
      "name": "getTokenInputAmountFromBaseOutput",
      "outputs": [
        {
          "internalType": "uint256",
          "name": "",
          "type": "uint256"
        }
      ],
      "stateMutability": "pure",
      "type": "function",
      "constant": true
    },
    {
      "inputs": [
        {
          "internalType": "uint256",
          "name": "baseInputAmount",
          "type": "uint256"
        },
        {
          "internalType": "uint256",
          "name": "minTokenOutput",
          "type": "uint256"
        },
        {
          "internalType": "uint256",
          "name": "deadline",
          "type": "uint256"
        }
      ],
      "name": "swapBaseToTokenWithBaseInput",
      "outputs": [],
      "stateMutability": "nonpayable",
      "type": "function"
    },
    {
      "inputs": [
        {
          "internalType": "uint256",
          "name": "maxBaseInput",
          "type": "uint256"
        },
        {
          "internalType": "uint256",
          "name": "tokenOutputAmount",
          "type": "uint256"
        },
        {
          "internalType": "uint256",
          "name": "deadline",
          "type": "uint256"
        }
      ],
      "name": "swapBaseToTokenWithTokenOutput",
      "outputs": [],
      "stateMutability": "nonpayable",
      "type": "function"
    },
    {
      "inputs": [
        {
          "internalType": "uint256",
          "name": "tokenInputAmount",
          "type": "uint256"
        },
        {
          "internalType": "uint256",
          "name": "minBaseOutput",
          "type": "uint256"
        },
        {
          "internalType": "uint256",
          "name": "deadline",
          "type": "uint256"
        }
      ],
      "name": "swapTokenToBaseWithTokenInput",
      "outputs": [],
      "stateMutability": "nonpayable",
      "type": "function"
    },
    {
      "inputs": [
        {
          "internalType": "uint256",
          "name": "maxTokenInput",
          "type": "uint256"
        },
        {
          "internalType": "uint256",
          "name": "baseOutputAmount",
          "type": "uint256"
        },
        {
          "internalType": "uint256",
          "name": "deadline",
          "type": "uint256"
        }
      ],
      "name": "swapTokenToBaseWithBaseOutput",
      "outputs": [],
      "stateMutability": "nonpayable",
      "type": "function"
    },
    {
      "inputs": [
        {
          "internalType": "uint256",
          "name": "minLP",
          "type": "uint256"
        },
        {
          "internalType": "uint256",
          "name": "baseInputAmount",
          "type": "uint256"
        },
        {
          "internalType": "uint256",
          "name": "maxTokenInputAmount",
          "type": "uint256"
        },
        {
          "internalType": "uint256",
          "name": "deadline",
          "type": "uint256"
        }
      ],
      "name": "addLP",
      "outputs": [
        {
          "internalType": "uint256",
          "name": "",
          "type": "uint256"
        }
      ],
      "stateMutability": "nonpayable",
      "type": "function"
    },
    {
      "inputs": [
        {
          "internalType": "uint256",
          "name": "amountLP",
          "type": "uint256"
        },
        {
          "internalType": "uint256",
          "name": "minBaseOutput",
          "type": "uint256"
        },
        {
          "internalType": "uint256",
          "name": "minTokenOutput",
          "type": "uint256"
        },
        {
          "internalType": "uint256",
          "name": "deadline",
          "type": "uint256"
        }
      ],
      "name": "removeLP",
      "outputs": [
        {
          "internalType": "uint256",
          "name": "",
          "type": "uint256"
        },
        {
          "internalType": "uint256",
          "name": "",
          "type": "uint256"
        }
      ],
      "stateMutability": "nonpayable",
      "type": "function"
    },
    {
      "inputs": [],
      "name": "getTotalReserve",
      "outputs": [
        {
          "internalType": "uint256",
          "name": "",
          "type": "uint256"
        },
        {
          "internalType": "uint256",
          "name": "",
          "type": "uint256"
        }
      ],
      "stateMutability": "view",
      "type": "function",
      "constant": true
    },
    {
      "inputs": [],
      "name": "pause",
      "outputs": [],
      "stateMutability": "nonpayable",
      "type": "function"
    },
    {
      "inputs": [],
      "name": "unpause",
      "outputs": [],
      "stateMutability": "nonpayable",
      "type": "function"
    }
  ],
  "bytecode": "0x60806040526002600b553480156200001657600080fd5b5060405162004d3238038062004d3283398101604081905262000039916200032c565b818160036200004983826200047a565b5060046200005882826200047a565b505050620000756200006f620001f860201b60201c565b620001fc565b6005805460ff60a01b191690556001600655600780546001600160a01b038881166001600160a01b0319928316811790935560088054898316908416179055600a805487831690841617905560098054918816918316919091179055600c8054909116331790556040805163313ce56760e01b8152905163313ce567916004808201926020929091908290030181865afa15801562000118573d6000803e3d6000fd5b505050506040513d601f19601f820116820180604052508101906200013e919062000546565b600860146101000a81548160ff021916908360ff160217905550600860009054906101000a90046001600160a01b03166001600160a01b031663313ce5676040518163ffffffff1660e01b8152600401602060405180830381865afa158015620001ac573d6000803e3d6000fd5b505050506040513d601f19601f82011682018060405250810190620001d2919062000546565b600860156101000a81548160ff021916908360ff16021790555050505050505062000572565b3390565b600580546001600160a01b038381166001600160a01b0319831681179093556040519116919082907f8be0079c531659141344cd1fd0a4f28419497f9722a3daafe3b4186f6b6457e090600090a35050565b6001600160a01b03811681146200026457600080fd5b50565b634e487b7160e01b600052604160045260246000fd5b600082601f8301126200028f57600080fd5b81516001600160401b0380821115620002ac57620002ac62000267565b604051601f8301601f19908116603f01168101908282118183101715620002d757620002d762000267565b81604052838152602092508683858801011115620002f457600080fd5b600091505b83821015620003185785820183015181830184015290820190620002f9565b600093810190920192909252949350505050565b60008060008060008060c087890312156200034657600080fd5b865162000353816200024e565b602088015190965062000366816200024e565b604088015190955062000379816200024e565b60608801519094506200038c816200024e565b60808801519093506001600160401b0380821115620003aa57600080fd5b620003b88a838b016200027d565b935060a0890151915080821115620003cf57600080fd5b50620003de89828a016200027d565b9150509295509295509295565b600181811c908216806200040057607f821691505b6020821081036200042157634e487b7160e01b600052602260045260246000fd5b50919050565b601f8211156200047557600081815260208120601f850160051c81016020861015620004505750805b601f850160051c820191505b8181101562000471578281556001016200045c565b5050505b505050565b81516001600160401b0381111562000496576200049662000267565b620004ae81620004a78454620003eb565b8462000427565b602080601f831160018114620004e65760008415620004cd5750858301515b600019600386901b1c1916600185901b17855562000471565b600085815260208120601f198616915b828110156200051757888601518255948401946001909101908401620004f6565b5085821015620005365787850151600019600388901b60f8161c191681555b5050505050600190811b01905550565b6000602082840312156200055957600080fd5b815160ff811681146200056b57600080fd5b9392505050565b6147b080620005826000396000f3fe608060405234801561001057600080fd5b50600436106102a05760003560e01c806373dd25a311610167578063b7c3ba45116100ce578063e50a38d711610087578063e50a38d7146105f1578063ec02291814610604578063ed3856251461060c578063ee39e7a01461061f578063f2fde38b14610627578063fc0c546a1461063a57600080fd5b8063b7c3ba4514610589578063c6e842fc1461059c578063d0e9de6c146105af578063d1322962146105c2578063dbcfbf2f146105cb578063dd62ed3e146105de57600080fd5b80638fe6041d116101205780638fe6041d1461052257806395d89b411461053557806397bb21c61461053d5780639fa5e63e14610550578063a457c2d714610563578063a9059cbb1461057657600080fd5b806373dd25a3146104bd57806376125deb146104d057806379cc6790146104e35780638456cb59146104f657806384900b04146104fe5780638da5cb5b1461051157600080fd5b80633b97e8561161020b57806360b1765c116101c457806360b1765c1461042b578063635f95ff1461043e5780636662d1771461045157806370a0823114610479578063711f6142146104a2578063715018a6146104b557600080fd5b80633b97e856146103ac5780633f4ba83a146103c057806342966c68146103c857806342eba2ce146103db5780635001f3b5146104065780635c975abb1461041957600080fd5b806318160ddd1161025d57806318160ddd1461034257806323b872dd1461034a5780632916bc101461035d578063313ce5671461037057806333f7617814610385578063395093511461039957600080fd5b806303bf04c1146102a557806306fdde03146102ba578063095ea7b3146102d857806310603023146102fb57806311fbded31461030e57806312f261401461032f575b600080fd5b6102b86102b3366004614166565b61064d565b005b6102c2610d94565b6040516102cf9190614192565b60405180910390f35b6102eb6102e63660046141fc565b610e26565b60405190151581526020016102cf565b6102b8610309366004614226565b610e40565b61032161031c366004614226565b610e4d565b6040519081526020016102cf565b6102b861033d36600461423f565b610f33565b600254610321565b6102eb61035836600461425a565b610fa5565b61032161036b366004614166565b610fc9565b60125b60405160ff90911681526020016102cf565b60085461037390600160a01b900460ff1681565b6102eb6103a73660046141fc565b611028565b60085461037390600160a81b900460ff1681565b6102b861104a565b6102b86103d6366004614226565b61105c565b6009546103ee906001600160a01b031681565b6040516001600160a01b0390911681526020016102cf565b6007546103ee906001600160a01b031681565b600554600160a01b900460ff166102eb565b610321610439366004614296565b611069565b61032161044c366004614226565b611962565b61046461045f366004614226565b611a28565b604080519283526020830191909152016102cf565b61032161048736600461423f565b6001600160a01b031660009081526020819052604090205490565b6104646104b0366004614226565b611b32565b6102b8611c06565b6102b86104cb366004614166565b611c18565b6104646104de366004614296565b612258565b6102b86104f13660046141fc565b612922565b6102b861293b565b600a546103ee906001600160a01b031681565b6005546001600160a01b03166103ee565b6102b861053036600461423f565b61294b565b6102c2612975565b61032161054b366004614166565b612984565b600c546103ee906001600160a01b031681565b6102eb6105713660046141fc565b6129dd565b6102eb6105843660046141fc565b612a58565b610321610597366004614166565b612a66565b6104646105aa366004614226565b612abf565b6102b86105bd366004614166565b612b9a565b610321600b5481565b6103216105d9366004614166565b613160565b6103216105ec3660046142c8565b6131bf565b6102b86105ff366004614166565b6131ea565b6104646137cf565b6102b861061a36600461423f565b6138bd565b61032161392f565b6102b861063536600461423f565b61394c565b6008546103ee906001600160a01b031681565b3332146106ea57600a54604051636c9b2a3f60e11b81523360048201526001600160a01b039091169063d936547e90602401602060405180830381865afa15801561069c573d6000803e3d6000fd5b505050506040513d601f19601f820116820180604052508101906106c091906142fb565b15156001146106ea5760405162461bcd60e51b81526004016106e19061431d565b60405180910390fd5b6106f26139c2565b6106fa613a0f565b4281101561071a5760405162461bcd60e51b81526004016106e190614348565b600082116107645760405162461bcd60e51b81526020600482015260176024820152761253959053125117d3525397d09054d157d3d555141555604a1b60448201526064016106e1565b600083116107845760405162461bcd60e51b81526004016106e190614372565b6008546040516370a0823160e01b81523360048201526000916001600160a01b0316906370a0823190602401602060405180830381865afa1580156107cd573d6000803e3d6000fd5b505050506040513d601f19601f820116820180604052508101906107f1919061439f565b9050808411156107ff578093505b6008546108309061081b90600160a81b900460ff1660126143ce565b6108299060ff16600a6144cb565b8590613a68565b6008549094506108649061084f90600160a01b900460ff1660126143ce565b61085d9060ff16600a6144cb565b8490613a68565b92506000806108716137cf565b60085491935091506108a79061089290600160a01b900460ff1660126143ce565b6108a09060ff16600a6144cb565b8390613a68565b6008549092506108db906108c690600160a81b900460ff1660126143ce565b6108d49060ff16600a6144cb565b8290613a68565b905081851061093d5760405162461bcd60e51b815260206004820152602860248201527f4d494e5f424153455f4f55545055545f4849474845525f504f4f4c5f424153456044820152675f42414c414e434560c01b60648201526084016106e1565b60006109606103e861095a600b548a613a6890919063ffffffff16565b90613a7b565b9050600061096e8883613a87565b9050600061097d828686613160565b90508781101561099f5760405162461bcd60e51b81526004016106e1906144d7565b8481106109be5760405162461bcd60e51b81526004016106e190614503565b600854610a5b906109da90600160a01b900460ff1660126143ce565b6109e89060ff16600a6144cb565b6007546040516370a0823160e01b81523060048201526001600160a01b03909116906370a08231906024015b602060405180830381865afa158015610a31573d6000803e3d6000fd5b505050506040513d601f19601f82011682018060405250810190610a55919061439f565b90613a68565b8110610a795760405162461bcd60e51b81526004016106e190614547565b6008546001600160a01b038116906323b872dd9033903090610abf90610aaa90600160a81b900460ff1660126143ce565b610ab89060ff16600a6144cb565b8e90613a7b565b6040518463ffffffff1660e01b8152600401610add9392919061458f565b6020604051808303816000875af1158015610afc573d6000803e3d6000fd5b505050506040513d601f19601f82011682018060405250810190610b2091906142fb565b506007546008546001600160a01b039091169063a9059cbb903390610b6990610b5490600160a01b900460ff1660126143ce565b610b629060ff16600a6144cb565b8590613a7b565b6040518363ffffffff1660e01b8152600401610b869291906145b3565b6020604051808303816000875af1158015610ba5573d6000803e3d6000fd5b505050506040513d601f19601f82011682018060405250810190610bc991906142fb565b506008546009546001600160a01b038083169263a9059cbb9290911690610c1590610c009060ff600160a81b9091041660126143ce565b610c0e9060ff16600a6144cb565b8790613a7b565b6040518363ffffffff1660e01b8152600401610c329291906145b3565b6020604051808303816000875af1158015610c51573d6000803e3d6000fd5b505050506040513d601f19601f82011682018060405250810190610c7591906142fb565b506008547fb1b8c525a87e01fd3cda717635c4b24d56deba9f9d95c4f650c022bcd0bf8f50903390610ccb90610cb690600160a01b900460ff1660126143ce565b610cc49060ff16600a6144cb565b8b90613a7b565b600854610cfc90610ce790600160a81b900460ff1660126143ce565b610cf59060ff16600a6144cb565b8d90613a7b565b600854610d2d90610d1890600160a01b900460ff1660126143ce565b610d269060ff16600a6144cb565b8690613a7b565b600854610d4990610cb690600160a01b900460ff1660126143ce565b600854610d6590610cb690600160a81b900460ff1660126143ce565b604051610d77969594939291906145cc565b60405180910390a1505050505050610d8f6001600655565b505050565b606060038054610da3906145ff565b80601f0160208091040260200160405190810160405280929190818152602001828054610dcf906145ff565b8015610e1c5780601f10610df157610100808354040283529160200191610e1c565b820191906000526020600020905b815481529060010190602001808311610dff57829003601f168201915b5050505050905090565b600033610e34818585613a93565b60019150505b92915050565b610e48613bb7565b600b55565b60008080610e596137cf565b6008549193509150610e7a9061081b90600160a01b900460ff1660126143ce565b600854909450610e999061089290600160a01b900460ff1660126143ce565b600854909250610eb8906108c690600160a81b900460ff1660126143ce565b90506000610ed76103e861095a600b5488613a6890919063ffffffff16565b90506000610ee58683613a87565b90506000610ef4828686610fc9565b600854909150610f2890610f1390600160a81b900460ff1660126143ce565b610f219060ff16600a6144cb565b8290613a7b565b979650505050505050565b610f3b613bb7565b6001600160a01b038116610f835760405162461bcd60e51b815260206004820152600f60248201526e494e56414c49445f4144445245535360881b60448201526064016106e1565b600a80546001600160a01b0319166001600160a01b0392909216919091179055565b600033610fb3858285613c11565b610fbe858585613c8b565b506001949350505050565b60008083118015610fda5750600082115b610ff65760405162461bcd60e51b81526004016106e190614639565b60006110028385613a68565b905060006110108587613e2f565b90506000610f286110218484613a7b565b8690613a87565b600033610e3481858561103b83836131bf565b6110459190614660565b613a93565b611052613bb7565b61105a613e3b565b565b6110663382613e90565b50565b60003332146110ff57600a54604051636c9b2a3f60e11b81523360048201526001600160a01b039091169063d936547e90602401602060405180830381865afa1580156110ba573d6000803e3d6000fd5b505050506040513d601f19601f820116820180604052508101906110de91906142fb565b15156001146110ff5760405162461bcd60e51b81526004016106e19061431d565b611107613a0f565b428210156111275760405162461bcd60e51b81526004016106e190614348565b600085116111685760405162461bcd60e51b815260206004820152600e60248201526d0494e56414c49445f4d494e5f4c560941b60448201526064016106e1565b600084116111885760405162461bcd60e51b81526004016106e190614673565b600083116111d25760405162461bcd60e51b81526020600482015260176024820152761253959053125117d3505617d513d2d15397d253941555604a1b60448201526064016106e1565b6007546040516370a0823160e01b81523360048201526000916001600160a01b0316906370a0823190602401602060405180830381865afa15801561121b573d6000803e3d6000fd5b505050506040513d601f19601f8201168201806040525081019061123f919061439f565b90508085111561124d578094505b60085461127e9061126990600160a01b900460ff1660126143ce565b6112779060ff16600a6144cb565b8690613a68565b60085490955061129d9061081b90600160a81b900460ff1660126143ce565b935060006112aa60025490565b905080600003611558576007546008546001600160a01b03909116906323b872dd90339030906112e990610cb690600160a01b900460ff1660126143ce565b6040518463ffffffff1660e01b81526004016113079392919061458f565b6020604051808303816000875af1158015611326573d6000803e3d6000fd5b505050506040513d601f19601f8201168201806040525081019061134a91906142fb565b506008546001600160a01b038116906323b872dd90339030906113919061137c90600160a81b900460ff1660126143ce565b61138a9060ff16600a6144cb565b8a90613a7b565b6040518463ffffffff1660e01b81526004016113af9392919061458f565b6020604051808303816000875af11580156113ce573d6000803e3d6000fd5b505050506040513d601f19601f820116820180604052508101906113f291906142fb565b50856113fe3382613fc2565b7f28e12afd967cc11b786f1b1547f5e0da96ccc91ebb09bdd406248111a634e7e53382611440600860149054906101000a900460ff166012610cb691906143ce565b60085461145c90610cb690600160a81b900460ff1660126143ce565b6007546040516370a0823160e01b81523060048201526001600160a01b03909116906370a0823190602401602060405180830381865afa1580156114a4573d6000803e3d6000fd5b505050506040513d601f19601f820116820180604052508101906114c8919061439f565b6008546040516370a0823160e01b81523060048201526001600160a01b03909116906370a0823190602401602060405180830381865afa158015611510573d6000803e3d6000fd5b505050506040513d601f19601f82011682018060405250810190611534919061439f565b604051611546969594939291906145cc565b60405180910390a19250611950915050565b6000806115636137cf565b60085491935091506115849061089290600160a01b900460ff1660126143ce565b6008549092506115a3906108c690600160a81b900460ff1660126143ce565b905060006115c9826115c38561095a6115bc828f613e2f565b8790613a68565b90613a87565b905060006115db8461095a878d613a68565b9050600082116115fd5760405162461bcd60e51b81526004016106e190614372565b6008546116199061137c90600160a81b900460ff1660126143ce565b60085461164a9061163590600160a81b900460ff1660126143ce565b6116439060ff16600a6144cb565b8490613a7b565b11156116685760405162461bcd60e51b81526004016106e190614372565b8a8110156116aa5760405162461bcd60e51b815260206004820152600f60248201526e0494e56414c49445f4d494e545f4c5608c1b60448201526064016106e1565b6007546008546001600160a01b03909116906323b872dd90339030906116f4906116df90600160a01b900460ff1660126143ce565b6116ed9060ff16600a6144cb565b8f90613a7b565b6040518463ffffffff1660e01b81526004016117129392919061458f565b6020604051808303816000875af1158015611731573d6000803e3d6000fd5b505050506040513d601f19601f8201168201806040525081019061175591906142fb565b506008546001600160a01b038116906323b872dd903390309061178790610c0090600160a81b900460ff1660126143ce565b6040518463ffffffff1660e01b81526004016117a59392919061458f565b6020604051808303816000875af11580156117c4573d6000803e3d6000fd5b505050506040513d601f19601f820116820180604052508101906117e891906142fb565b506117f33382613fc2565b7f28e12afd967cc11b786f1b1547f5e0da96ccc91ebb09bdd406248111a634e7e53382611835600860149054906101000a900460ff166012610aaa91906143ce565b60085461185190610c0090600160a81b900460ff1660126143ce565b6007546040516370a0823160e01b81523060048201526001600160a01b03909116906370a0823190602401602060405180830381865afa158015611899573d6000803e3d6000fd5b505050506040513d601f19601f820116820180604052508101906118bd919061439f565b6008546040516370a0823160e01b81523060048201526001600160a01b03909116906370a0823190602401602060405180830381865afa158015611905573d6000803e3d6000fd5b505050506040513d601f19601f82011682018060405250810190611929919061439f565b60405161193b969594939291906145cc565b60405180910390a19550611950945050505050565b61195a6001600655565b949350505050565b6000808061196e6137cf565b600854919350915061198f9061081b90600160a81b900460ff1660126143ce565b6008549094506119ae9061089290600160a01b900460ff1660126143ce565b6008549092506119cd906108c690600160a81b900460ff1660126143ce565b905060006119ec6103e861095a600b5488613a6890919063ffffffff16565b905060006119fa8683613a87565b90506000611a09828686613160565b600854909150610f2890610f1390600160a01b900460ff1660126143ce565b6000806000611a3660025490565b9050600080611a68600860159054906101000a900460ff166012611a5a91906143ce565b6115bc9060ff16600a6144cb565b955082600003611a7c575084905080611af3565b600080611a876137cf565b6008549193509150611aa89061089290600160a01b900460ff1660126143ce565b600854909250611ac7906108c690600160a81b900460ff1660126143ce565b9050611ade826115c38361095a6115bc828e613e2f565b9250611aee8261095a8786613a68565b935050505b6008548290611b2690611b1190600160a01b900460ff1660126143ce565b611b1f9060ff16600a6144cb565b8390613a7b565b94509450505050915091565b6000806000611b4060025490565b905080841115611b4e578093505b600080611b596137cf565b6008549193509150611b7a9061089290600160a01b900460ff1660126143ce565b600854909250611b99906108c690600160a81b900460ff1660126143ce565b90506000611bab8461095a8986613a68565b90506000611bbd8561095a8a86613a68565b600854909150611bdc90611b1190600160a01b900460ff1660126143ce565b600854611bf890611b1190600160a81b900460ff1660126143ce565b965096505050505050915091565b611c0e613bb7565b61105a6000614081565b333214611cac57600a54604051636c9b2a3f60e11b81523360048201526001600160a01b039091169063d936547e90602401602060405180830381865afa158015611c67573d6000803e3d6000fd5b505050506040513d601f19601f82011682018060405250810190611c8b91906142fb565b1515600114611cac5760405162461bcd60e51b81526004016106e19061431d565b611cb46139c2565b611cbc613a0f565b42811015611cdc5760405162461bcd60e51b81526004016106e190614348565b60008311611d265760405162461bcd60e51b81526020600482015260176024820152761253959053125117d3505617d513d2d15397d253941555604a1b60448201526064016106e1565b60008211611d6c5760405162461bcd60e51b81526020600482015260136024820152721253959053125117d09054d157d3d555141555606a1b60448201526064016106e1565b6007546040516370a0823160e01b81523060048201526001600160a01b03909116906370a0823190602401602060405180830381865afa158015611db4573d6000803e3d6000fd5b505050506040513d601f19601f82011682018060405250810190611dd8919061439f565b8210611df65760405162461bcd60e51b81526004016106e190614547565b600854611e129061084f90600160a81b900460ff1660126143ce565b600854909350611e319061089290600160a01b900460ff1660126143ce565b9150600080611e3e6137cf565b6008549193509150611e5f9061089290600160a01b900460ff1660126143ce565b600854909250611e7e906108c690600160a81b900460ff1660126143ce565b9050818410611e9f5760405162461bcd60e51b81526004016106e190614503565b6000611eac858484612984565b90506000611ecb6103e861095a600b5485613a6890919063ffffffff16565b9050611ed78282613e2f565b915086821115611ef95760405162461bcd60e51b81526004016106e1906144d7565b60008211611f195760405162461bcd60e51b81526004016106e190614372565b600854611f7390611f3590600160a81b900460ff1660126143ce565b611f439060ff16600a6144cb565b6008546040516370a0823160e01b81523360048201526001600160a01b03909116906370a0823190602401610a14565b821115611fc25760405162461bcd60e51b815260206004820152601f60248201527f544f4b454e5f494e5055545f4849474845525f555345525f42414c414e43450060448201526064016106e1565b6008546001600160a01b038116906323b872dd9033903090611ff390610c0090600160a81b900460ff1660126143ce565b6040518463ffffffff1660e01b81526004016120119392919061458f565b6020604051808303816000875af1158015612030573d6000803e3d6000fd5b505050506040513d601f19601f8201168201806040525081019061205491906142fb565b506007546008546001600160a01b039091169063a9059cbb9033906120889061137c90600160a01b900460ff1660126143ce565b6040518363ffffffff1660e01b81526004016120a59291906145b3565b6020604051808303816000875af11580156120c4573d6000803e3d6000fd5b505050506040513d601f19601f820116820180604052508101906120e891906142fb565b506008546009546001600160a01b038083169263a9059cbb929091169061211f90610b549060ff600160a81b9091041660126143ce565b6040518363ffffffff1660e01b815260040161213c9291906145b3565b6020604051808303816000875af115801561215b573d6000803e3d6000fd5b505050506040513d601f19601f8201168201806040525081019061217f91906142fb565b506008547ff116a588cdba1b14c04ffd8bca7fee39286e7c8d9da59d77c036430e4b415dbc9033906121c09061137c90600160a81b900460ff1660126143ce565b6008546121dc90610d1890600160a81b900460ff1660126143ce565b6008546121f890610cb690600160a01b900460ff1660126143ce565b6008546122149061137c90600160a01b900460ff1660126143ce565b6008546122309061137c90600160a81b900460ff1660126143ce565b604051612242969594939291906145cc565b60405180910390a150505050610d8f6001600655565b6000803332146122ef57600a54604051636c9b2a3f60e11b81523360048201526001600160a01b039091169063d936547e90602401602060405180830381865afa1580156122aa573d6000803e3d6000fd5b505050506040513d601f19601f820116820180604052508101906122ce91906142fb565b15156001146122ef5760405162461bcd60e51b81526004016106e19061431d565b6122f7613a0f565b428310156123175760405162461bcd60e51b81526004016106e190614348565b6000861161235b5760405162461bcd60e51b81526020600482015260116024820152700494e56414c49445f414d4f554e545f4c5607c1b60448201526064016106e1565b600085116123a55760405162461bcd60e51b81526020600482015260176024820152761253959053125117d3525397d09054d157d3d555141555604a1b60448201526064016106e1565b600084116123f05760405162461bcd60e51b81526020600482015260186024820152771253959053125117d3525397d513d2d15397d3d55514155560421b60448201526064016106e1565b60085461240c9061126990600160a01b900460ff1660126143ce565b60085490955061242b9061081b90600160a81b900460ff1660126143ce565b9350600061243860025490565b3360009081526020819052604090205490915080881115612457578097505b818811156124a75760405162461bcd60e51b815260206004820152601e60248201527f494e56414c49445f414d4f554e545f4c505f544f54414c5f535550504c59000060448201526064016106e1565b6000806124b26137cf565b60085491935091506124d39061089290600160a01b900460ff1660126143ce565b6008549092506124f2906108c690600160a81b900460ff1660126143ce565b905060006125048561095a8d86613a68565b905060006125168661095a8e86613a68565b90508a82101561255e5760405162461bcd60e51b81526020600482015260136024820152721253959053125117d09054d157d3d555141555606a1b60448201526064016106e1565b898110156125a55760405162461bcd60e51b81526020600482015260146024820152731253959053125117d513d2d15397d3d55514155560621b60448201526064016106e1565b838211156125f55760405162461bcd60e51b815260206004820152601f60248201527f424153455f4f55545055545f4849474845525f424153455f42414c414e43450060448201526064016106e1565b8281111561264f5760405162461bcd60e51b815260206004820152602160248201527f544f4b454e5f4f55545055545f4849474845525f544f4b454e5f42414c414e436044820152604560f81b60648201526084016106e1565b612659338d613e90565b6007546008546001600160a01b039091169063a9059cbb90339061268c90610d1890600160a01b900460ff1660126143ce565b6040518363ffffffff1660e01b81526004016126a99291906145b3565b6020604051808303816000875af11580156126c8573d6000803e3d6000fd5b505050506040513d601f19601f820116820180604052508101906126ec91906142fb565b506008546001600160a01b0381169063a9059cbb90339061271c90610b5490600160a81b900460ff1660126143ce565b6040518363ffffffff1660e01b81526004016127399291906145b3565b6020604051808303816000875af1158015612758573d6000803e3d6000fd5b505050506040513d601f19601f8201168201806040525081019061277c91906142fb565b507f555901717744791e9e27303c0df147d5a5eea5b7098591b2c5f2138ed6a605de338d6127bf600860149054906101000a900460ff166012610d1891906143ce565b6008546127db90610d1890600160a81b900460ff1660126143ce565b6007546040516370a0823160e01b81523060048201526001600160a01b03909116906370a0823190602401602060405180830381865afa158015612823573d6000803e3d6000fd5b505050506040513d601f19601f82011682018060405250810190612847919061439f565b6008546040516370a0823160e01b81523060048201526001600160a01b03909116906370a0823190602401602060405180830381865afa15801561288f573d6000803e3d6000fd5b505050506040513d601f19601f820116820180604052508101906128b3919061439f565b6040516128c5969594939291906145cc565b60405180910390a16008546128e990611b1190600160a01b900460ff1660126143ce565b60085461290590611b1190600160a81b900460ff1660126143ce565b975097505050505050506129196001600655565b94509492505050565b61292d823383613c11565b6129378282613e90565b5050565b612943613bb7565b61105a6140d3565b612953613bb7565b600c80546001600160a01b0319166001600160a01b0392909216919091179055565b606060048054610da3906145ff565b600080831180156129955750600082115b6129b15760405162461bcd60e51b81526004016106e190614639565b60006129bd8385613a68565b905060006129cb8587613a87565b90506000610f28856115c38585613a7b565b600033816129eb82866131bf565b905083811015612a4b5760405162461bcd60e51b815260206004820152602560248201527f45524332303a2064656372656173656420616c6c6f77616e63652062656c6f77604482015264207a65726f60d81b60648201526084016106e1565b610fbe8286868403613a93565b600033610e34818585613c8b565b60008083118015612a775750600082115b612a935760405162461bcd60e51b81526004016106e190614639565b6000612a9f8385613a68565b90506000612aad8487613a87565b90506000610f28866115c38585613a7b565b6000806000612acd60025490565b9050600080612af1600860149054906101000a900460ff166012611a5a91906143ce565b955082600003612b05575084905080612b7c565b600080612b106137cf565b6008549193509150612b319061089290600160a01b900460ff1660126143ce565b600854909250612b50906108c690600160a81b900460ff1660126143ce565b9050612b67816115c38461095a611277828e613e2f565b9250612b778261095a878b613a68565b935050505b6008548290611b2690611b1190600160a81b900460ff1660126143ce565b333214612c2e57600a54604051636c9b2a3f60e11b81523360048201526001600160a01b039091169063d936547e90602401602060405180830381865afa158015612be9573d6000803e3d6000fd5b505050506040513d601f19601f82011682018060405250810190612c0d91906142fb565b1515600114612c2e5760405162461bcd60e51b81526004016106e19061431d565b612c366139c2565b612c3e613a0f565b42811015612c5e5760405162461bcd60e51b81526004016106e190614348565b60008311612ca75760405162461bcd60e51b81526020600482015260166024820152751253959053125117d3505617d09054d157d25394155560521b60448201526064016106e1565b60008211612cee5760405162461bcd60e51b81526020600482015260146024820152731253959053125117d513d2d15397d3d55514155560621b60448201526064016106e1565b6008546040516370a0823160e01b81523060048201526001600160a01b03909116906370a0823190602401602060405180830381865afa158015612d36573d6000803e3d6000fd5b505050506040513d601f19601f82011682018060405250810190612d5a919061439f565b8210612d785760405162461bcd60e51b81526004016106e19061469f565b600854612d949061084f90600160a01b900460ff1660126143ce565b600854909350612db39061089290600160a81b900460ff1660126143ce565b9150600080612dc06137cf565b6008549193509150612de19061089290600160a01b900460ff1660126143ce565b600854909250612e00906108c690600160a81b900460ff1660126143ce565b9050808410612e215760405162461bcd60e51b81526004016106e1906146e8565b6000612e2e858484612a66565b90506000612e4d6103e861095a600b5485613a6890919063ffffffff16565b9050612e598282613e2f565b915086821115612e7b5760405162461bcd60e51b81526004016106e1906144d7565b60008211612e9b5760405162461bcd60e51b81526004016106e190614673565b600854612ef590612eb790600160a01b900460ff1660126143ce565b612ec59060ff16600a6144cb565b6007546040516370a0823160e01b81523360048201526001600160a01b03909116906370a0823190602401610a14565b821115612f445760405162461bcd60e51b815260206004820152601e60248201527f424153455f494e5055545f4849474845525f555345525f42414c414e4345000060448201526064016106e1565b6007546008546001600160a01b03909116906323b872dd9033903090612f7990610c0090600160a01b900460ff1660126143ce565b6040518463ffffffff1660e01b8152600401612f979392919061458f565b6020604051808303816000875af1158015612fb6573d6000803e3d6000fd5b505050506040513d601f19601f82011682018060405250810190612fda91906142fb565b506008546001600160a01b0381169063a9059cbb90339061300a9061137c90600160a81b900460ff1660126143ce565b6040518363ffffffff1660e01b81526004016130279291906145b3565b6020604051808303816000875af1158015613046573d6000803e3d6000fd5b505050506040513d601f19601f8201168201806040525081019061306a91906142fb565b506007546009546008546001600160a01b039283169263a9059cbb9216906130a190610b5490600160a01b900460ff1660126143ce565b6040518363ffffffff1660e01b81526004016130be9291906145b3565b6020604051808303816000875af11580156130dd573d6000803e3d6000fd5b505050506040513d601f19601f8201168201806040525081019061310191906142fb565b507f6e9d5a0202c67970b52b10deb68f1641a9408d90db857bc984d008c1be70383a3388613144600860149054906101000a900460ff166012610d1891906143ce565b6008546121f890610cb690600160a81b900460ff1660126143ce565b600080831180156131715750600082115b61318d5760405162461bcd60e51b81526004016106e190614639565b60006131998385613a68565b905060006131a78487613e2f565b90506000610f286131b88484613a7b565b8790613a87565b6001600160a01b03918216600090815260016020908152604080832093909416825291909152205490565b33321461327e57600a54604051636c9b2a3f60e11b81523360048201526001600160a01b039091169063d936547e90602401602060405180830381865afa158015613239573d6000803e3d6000fd5b505050506040513d601f19601f8201168201806040525081019061325d91906142fb565b151560011461327e5760405162461bcd60e51b81526004016106e19061431d565b6132866139c2565b61328e613a0f565b428110156132ae5760405162461bcd60e51b81526004016106e190614348565b600083116132ce5760405162461bcd60e51b81526004016106e190614673565b600082116133195760405162461bcd60e51b81526020600482015260186024820152771253959053125117d3525397d513d2d15397d3d55514155560421b60448201526064016106e1565b6007546040516370a0823160e01b81523360048201526000916001600160a01b0316906370a0823190602401602060405180830381865afa158015613362573d6000803e3d6000fd5b505050506040513d601f19601f82011682018060405250810190613386919061439f565b905080841115613394578093505b6008546133b09061081b90600160a01b900460ff1660126143ce565b6008549094506133cf9061084f90600160a81b900460ff1660126143ce565b92506000806133dc6137cf565b60085491935091506133fd9061089290600160a01b900460ff1660126143ce565b60085490925061341c906108c690600160a81b900460ff1660126143ce565b90508085106134795760405162461bcd60e51b815260206004820152602360248201527f4d494e5f544f4b454e5f4849474845525f504f4f4c5f544f4b454e5f42414c416044820152624e434560e81b60648201526084016106e1565b60006134966103e861095a600b548a613a6890919063ffffffff16565b905060006134a48883613a87565b905060006134b3828686610fc9565b9050878110156134d55760405162461bcd60e51b81526004016106e1906144d7565b8381106134f45760405162461bcd60e51b81526004016106e1906146e8565b6008546040516370a0823160e01b81523060048201526001600160a01b03909116906370a0823190602401602060405180830381865afa15801561353c573d6000803e3d6000fd5b505050506040513d601f19601f82011682018060405250810190613560919061439f565b60085461357c90611b1190600160a81b900460ff1660126143ce565b106135995760405162461bcd60e51b81526004016106e19061469f565b6007546008546001600160a01b03909116906323b872dd90339030906135ce90610aaa90600160a01b900460ff1660126143ce565b6040518463ffffffff1660e01b81526004016135ec9392919061458f565b6020604051808303816000875af115801561360b573d6000803e3d6000fd5b505050506040513d601f19601f8201168201806040525081019061362f91906142fb565b506008546001600160a01b0381169063a9059cbb90339061365f90610b5490600160a81b900460ff1660126143ce565b6040518363ffffffff1660e01b815260040161367c9291906145b3565b6020604051808303816000875af115801561369b573d6000803e3d6000fd5b505050506040513d601f19601f820116820180604052508101906136bf91906142fb565b506007546009546008546001600160a01b039283169263a9059cbb9216906136f690610c0090600160a01b900460ff1660126143ce565b6040518363ffffffff1660e01b81526004016137139291906145b3565b6020604051808303816000875af1158015613732573d6000803e3d6000fd5b505050506040513d601f19601f8201168201806040525081019061375691906142fb565b506008547fd294be030e23d0862312f418541ec01d571908715169f1cb1109bba3212b8c2d90339061379790610cb690600160a81b900460ff1660126143ce565b6008546137b390610ce790600160a01b900460ff1660126143ce565b600854610d2d90610d1890600160a81b900460ff1660126143ce565b6007546040516370a0823160e01b8152306004820152600091829182916001600160a01b0316906370a0823190602401602060405180830381865afa15801561381c573d6000803e3d6000fd5b505050506040513d601f19601f82011682018060405250810190613840919061439f565b6008546040516370a0823160e01b81523060048201529192506000916001600160a01b03909116906370a0823190602401602060405180830381865afa15801561388e573d6000803e3d6000fd5b505050506040513d601f19601f820116820180604052508101906138b2919061439f565b919491935090915050565b6138c5613bb7565b6001600160a01b03811661390d5760405162461bcd60e51b815260206004820152600f60248201526e494e56414c49445f4144445245535360881b60448201526064016106e1565b600980546001600160a01b0319166001600160a01b0392909216919091179055565b6000808061393b6137cf565b9092509050600061195a8284613a68565b613954613bb7565b6001600160a01b0381166139b95760405162461bcd60e51b815260206004820152602660248201527f4f776e61626c653a206e6577206f776e657220697320746865207a65726f206160448201526564647265737360d01b60648201526084016106e1565b61106681614081565b600554600160a01b900460ff161561105a5760405162461bcd60e51b815260206004820152601060248201526f14185d5cd8589b194e881c185d5cd95960821b60448201526064016106e1565b600260065403613a615760405162461bcd60e51b815260206004820152601f60248201527f5265656e7472616e637947756172643a207265656e7472616e742063616c6c0060448201526064016106e1565b6002600655565b6000613a74828461472e565b9392505050565b6000613a748284614745565b6000613a748284614767565b6001600160a01b038316613af55760405162461bcd60e51b8152602060048201526024808201527f45524332303a20617070726f76652066726f6d20746865207a65726f206164646044820152637265737360e01b60648201526084016106e1565b6001600160a01b038216613b565760405162461bcd60e51b815260206004820152602260248201527f45524332303a20617070726f766520746f20746865207a65726f206164647265604482015261737360f01b60648201526084016106e1565b6001600160a01b0383811660008181526001602090815260408083209487168084529482529182902085905590518481527f8c5be1e5ebec7d5bd14f71427d1e84f3dd0314c0f7b2291e5b200ac8c7c3b925910160405180910390a3505050565b6005546001600160a01b0316331461105a5760405162461bcd60e51b815260206004820181905260248201527f4f776e61626c653a2063616c6c6572206973206e6f7420746865206f776e657260448201526064016106e1565b6000613c1d84846131bf565b90506000198114613c855781811015613c785760405162461bcd60e51b815260206004820152601d60248201527f45524332303a20696e73756666696369656e7420616c6c6f77616e636500000060448201526064016106e1565b613c858484848403613a93565b50505050565b6001600160a01b038316613cef5760405162461bcd60e51b815260206004820152602560248201527f45524332303a207472616e736665722066726f6d20746865207a65726f206164604482015264647265737360d81b60648201526084016106e1565b6001600160a01b038216613d515760405162461bcd60e51b815260206004820152602360248201527f45524332303a207472616e7366657220746f20746865207a65726f206164647260448201526265737360e81b60648201526084016106e1565b6001600160a01b03831660009081526020819052604090205481811015613dc95760405162461bcd60e51b815260206004820152602660248201527f45524332303a207472616e7366657220616d6f756e7420657863656564732062604482015265616c616e636560d01b60648201526084016106e1565b6001600160a01b03848116600081815260208181526040808320878703905593871680835291849020805487019055925185815290927fddf252ad1be2c89b69c2b068fc378daa952ba7f163c4a11628f55a4df523b3ef910160405180910390a3613c85565b6000613a748284614660565b613e43614116565b6005805460ff60a01b191690557f5db9ee0a495bf2e6ff9c91a7834c1ba4fdd244a5e8aa4e537bd38aeae4b073aa335b6040516001600160a01b03909116815260200160405180910390a1565b6001600160a01b038216613ef05760405162461bcd60e51b815260206004820152602160248201527f45524332303a206275726e2066726f6d20746865207a65726f206164647265736044820152607360f81b60648201526084016106e1565b6001600160a01b03821660009081526020819052604090205481811015613f645760405162461bcd60e51b815260206004820152602260248201527f45524332303a206275726e20616d6f756e7420657863656564732062616c616e604482015261636560f01b60648201526084016106e1565b6001600160a01b0383166000818152602081815260408083208686039055600280548790039055518581529192917fddf252ad1be2c89b69c2b068fc378daa952ba7f163c4a11628f55a4df523b3ef910160405180910390a3505050565b6001600160a01b0382166140185760405162461bcd60e51b815260206004820152601f60248201527f45524332303a206d696e7420746f20746865207a65726f20616464726573730060448201526064016106e1565b806002600082825461402a9190614660565b90915550506001600160a01b038216600081815260208181526040808320805486019055518481527fddf252ad1be2c89b69c2b068fc378daa952ba7f163c4a11628f55a4df523b3ef910160405180910390a35050565b600580546001600160a01b038381166001600160a01b0319831681179093556040519116919082907f8be0079c531659141344cd1fd0a4f28419497f9722a3daafe3b4186f6b6457e090600090a35050565b6140db6139c2565b6005805460ff60a01b1916600160a01b1790557f62e78cea01bee320cd4e420270b5ea74000d11b0c9f74754ebdbfc544b05a258613e733390565b600554600160a01b900460ff1661105a5760405162461bcd60e51b815260206004820152601460248201527314185d5cd8589b194e881b9bdd081c185d5cd95960621b60448201526064016106e1565b60008060006060848603121561417b57600080fd5b505081359360208301359350604090920135919050565b600060208083528351808285015260005b818110156141bf578581018301518582016040015282016141a3565b506000604082860101526040601f19601f8301168501019250505092915050565b80356001600160a01b03811681146141f757600080fd5b919050565b6000806040838503121561420f57600080fd5b614218836141e0565b946020939093013593505050565b60006020828403121561423857600080fd5b5035919050565b60006020828403121561425157600080fd5b613a74826141e0565b60008060006060848603121561426f57600080fd5b614278846141e0565b9250614286602085016141e0565b9150604084013590509250925092565b600080600080608085870312156142ac57600080fd5b5050823594602084013594506040840135936060013592509050565b600080604083850312156142db57600080fd5b6142e4836141e0565b91506142f2602084016141e0565b90509250929050565b60006020828403121561430d57600080fd5b81518015158114613a7457600080fd5b6020808252601190820152701253959053125117d5d2125511531254d5607a1b604082015260600190565b60208082526010908201526f494e56414c49445f444541444c494e4560801b604082015260600190565b6020808252601390820152721253959053125117d513d2d15397d253941555606a1b604082015260600190565b6000602082840312156143b157600080fd5b5051919050565b634e487b7160e01b600052601160045260246000fd5b60ff8281168282160390811115610e3a57610e3a6143b8565b600181815b80851115614422578160001904821115614408576144086143b8565b8085161561441557918102915b93841c93908002906143ec565b509250929050565b60008261443957506001610e3a565b8161444657506000610e3a565b816001811461445c576002811461446657614482565b6001915050610e3a565b60ff841115614477576144776143b8565b50506001821b610e3a565b5060208310610133831016604e8410600b84101617156144a5575081810a610e3a565b6144af83836143e7565b80600019048211156144c3576144c36143b8565b029392505050565b6000613a74838361442a565b60208082526012908201527143414e5f4e4f545f4d414b455f545241444560701b604082015260600190565b60208082526024908201527f424153455f4f55545055545f4849474845525f504f4f4c5f424153455f42414c604082015263414e434560e01b606082015260800190565b60208082526028908201527f424153455f4f55545055545f4849474845525f43555252454e545f54524144456040820152675f42414c414e434560c01b606082015260800190565b6001600160a01b039384168152919092166020820152604081019190915260600190565b6001600160a01b03929092168252602082015260400190565b6001600160a01b03969096168652602086019490945260408501929092526060840152608083015260a082015260c00190565b600181811c9082168061461357607f821691505b60208210810361463357634e487b7160e01b600052602260045260246000fd5b50919050565b6020808252600d908201526c494e56414c49445f56414c554560981b604082015260600190565b80820180821115610e3a57610e3a6143b8565b6020808252601290820152711253959053125117d09054d157d25394155560721b604082015260600190565b60208082526029908201527f544f4b454e5f4f55545055545f4849474845525f43555252454e545f54524144604082015268455f42414c414e434560b81b606082015260800190565b60208082526026908201527f544f4b454e5f4f55545055545f4849474845525f504f4f4c5f544f4b454e5f42604082015265414c414e434560d01b606082015260800190565b8082028115828204841417610e3a57610e3a6143b8565b60008261476257634e487b7160e01b600052601260045260246000fd5b500490565b81810381811115610e3a57610e3a6143b856fea26469706673582212203f02a649d02740d297dd5ccf9a97611567a3719dac5360c62dcc58350aecfab464736f6c63430008110033",
  "immutableReferences": {},
  "source": "// SPDX-License-Identifier: MIT\npragma solidity >=0.6.12;\n\nimport \"@openzeppelin/contracts/utils/math/SafeMath.sol\";\nimport \"@openzeppelin/contracts/token/ERC20/extensions/IERC20Metadata.sol\";\nimport \"@openzeppelin/contracts/token/ERC20/ERC20.sol\";\nimport \"@openzeppelin/contracts/token/ERC20/extensions/ERC20Burnable.sol\";\nimport \"@openzeppelin/contracts/utils/Context.sol\";\nimport \"@openzeppelin/contracts/access/Ownable.sol\";\nimport \"@openzeppelin/contracts/security/Pausable.sol\";\nimport \"@openzeppelin/contracts/security/ReentrancyGuard.sol\";\n\nimport './interfaces/IBreezyWhitelist.sol';\n\n\ncontract BreezySwapV1BREWETH is ERC20Burnable, Ownable, Pausable, ReentrancyGuard {\n    \n    using SafeMath for uint256;\n\n    IERC20Metadata public base; // Stable coin base token (WETH)\n    IERC20Metadata public token; // Token to trade in this pair\n\n    // Declare state variables for decimals\n    uint8 public baseDecimals;\n    uint8 public tokenDecimals;\n\n    // Fee Machine Contract.\n    address public feeMachineContract; \n\n    IBreezyWhitelist public whitelistContract; \n\n    uint256 public TRADE_FEE = 2; //0.2% 2/1000\n\n    address public platformFundAddress;\n\n    modifier onlyWhitelist()\n    {\n        if (msg.sender != tx.origin) {\n            require(whitelistContract.whitelisted(msg.sender) == true, 'INVALID_WHITELIST');\n        }\n        _;\n    }\n\n\n    // Events\n\n    event onSwapBaseToTokenWithBaseInput(address sender, uint256 minTokenOutput, uint256 baseInputAmount, uint256 tokenOutputAmount, uint256 poolBaseBalance, uint256 poolTokenBalance);\n    event onSwapBaseToTokenWithTokenOutput(address sender, uint256 maxBaseInput, uint256 baseInputAmount, uint256 tokenOutputAmount, uint256 poolBaseBalance, uint256 poolTokenBalance);\n    \n    event onSwapTokenToBaseWithTokenInput(address sender, uint256 minBaseOutput, uint256 tokenInputAmount, uint256 baseOutputAmount, uint256 poolBaseBalance, uint256 poolTokenBalance);\n    event onSwapTokenToBaseWithBaseOutput(address sender, uint256 maxTokenInput, uint256 tokenInputAmount, uint256 baseOutputAmount, uint256 poolBaseBalance, uint256 poolTokenBalance);\n\n    event onAddLP(address sender, uint256 mintLP, uint256 baseInputAmount, uint256 tokenInputAmount, uint256 poolBaseBalance, uint256 poolTokenBalance);\n    event onRemoveLP(address sender, uint256 amountLP, uint256 baseOutputAmout, uint256 tokenOutputAmount, uint256 poolBaseBalance, uint256 poolTokenBalance);\n\n    constructor(\n        IERC20Metadata _base,\n        IERC20Metadata _token,\n        address _feeMachineContract,\n        IBreezyWhitelist _whitelistContract,\n        string memory name, \n        string memory symbol\n        ) ERC20(name, symbol) {\n        base = _base;\n        token = _token;\n        whitelistContract = _whitelistContract;\n        feeMachineContract = _feeMachineContract;\n        platformFundAddress = _msgSender();\n        baseDecimals = base.decimals();\n        tokenDecimals = token.decimals();\n    }\n    \n    function setWhitelistContract(address _whitelistContract) public onlyOwner {\n        require(_whitelistContract != address(0), \"INVALID_ADDRESS\");\n\n        whitelistContract = IBreezyWhitelist(_whitelistContract);\n    }\n\n    function setFeeMachineContract(address _feeMachineContract) public onlyOwner {\n        require(_feeMachineContract != address(0), \"INVALID_ADDRESS\");\n\n        feeMachineContract = _feeMachineContract;\n    }\n\n    function setTradeFee(uint256 _tradeFee) public onlyOwner {\n        TRADE_FEE = _tradeFee;\n    }\n\n    function setPlatformFundAdress(address newAddress) public onlyOwner {\n        platformFundAddress = newAddress;\n    }\n\n    function getK() public view returns(uint256) {\n        uint256 baseReserve = 0;\n        uint256 tokenReserve = 0;\n        (baseReserve, tokenReserve) = getTotalReserve();\n        uint256 k = tokenReserve.mul(baseReserve);\n        return k;\n    }\n\n    function getTokenOutput(uint256 baseInputAmount) public view returns (uint256) {\n        uint256 baseReserve = 0;\n        uint256 tokenReserve = 0;\n        (baseReserve, tokenReserve) = getTotalReserve();\n\n        // Scale baseInputAmount to 18 decimals\n        baseInputAmount = baseInputAmount.mul(10**uint256(18 - baseDecimals));\n\n        // Scale baseReserve to 18 decimals\n        baseReserve = baseReserve.mul(10**uint256(18 - baseDecimals));\n\n        // Scale tokenReserve to 18 decimals\n        tokenReserve = tokenReserve.mul(10**uint256(18 - tokenDecimals));\n\n        uint256 tradeFee = baseInputAmount.mul(TRADE_FEE).div(1000);\n        uint256 baseInputAmountAfterFee = baseInputAmount.sub(tradeFee); // cut the TRADE_FEE from base input\n\n        uint256 tokenOutputAmount = getTokenOutputAmountFromBaseInput(baseInputAmountAfterFee, baseReserve, tokenReserve);\n        return tokenOutputAmount.div(10**uint256(18 - tokenDecimals));\n    }\n\n    function getBaseOutput(uint256 tokenInputAmount) public view returns (uint256) {\n        uint256 baseReserve = 0;\n        uint256 tokenReserve = 0;\n        (baseReserve, tokenReserve) = getTotalReserve();\n\n        // Scale tokenInputAmount to 18 decimals\n        tokenInputAmount = tokenInputAmount.mul(10**uint256(18 - tokenDecimals));\n\n        // Scale baseReserve to 18 decimals\n        baseReserve = baseReserve.mul(10**uint256(18 - baseDecimals));\n\n        // Scale tokenReserve to 18 decimals\n        tokenReserve = tokenReserve.mul(10**uint256(18 - tokenDecimals));\n\n        uint256 tradeFee = tokenInputAmount.mul(TRADE_FEE).div(1000);\n        uint256 tokenInputAmountAfterFee = tokenInputAmount.sub(tradeFee); // cut the TRADE_FEE from token input\n\n        uint256 baseOutputAmount = getBaseOutputAmountFromTokenInput(tokenInputAmountAfterFee, baseReserve, tokenReserve);\n        return baseOutputAmount.div(10**uint256(18 - baseDecimals));\n    }\n\n    function getDataFromBaseInputToAddLp(uint256 baseInputAmount) public view returns (uint256, uint256) {\n        uint256 totalSupply = totalSupply();\n        uint256 mintLP = 0;\n        uint256 tokenInputAmount = 0;\n\n        // Scale baseInputAmount to 18 decimals\n        baseInputAmount = baseInputAmount.mul(10**uint256(18 - baseDecimals));\n\n        if(totalSupply == 0) {\n            mintLP = baseInputAmount;\n            tokenInputAmount = baseInputAmount;\n        }\n        else { \n            // tokenReserve/baseReserve = (tokenReserve+tokenInputAmount)/(baseReserve+baseInputAmount)\n            // => tokenReserve+tokenInputAmount = tokenReserve*(baseReserve+baseInputAmount)/baseReserve\n            // => tokenInputAmount = tokenReserve*(baseReserve+baseInputAmount)/baseReserve - tokenReserve;\n            uint256 baseReserve = 0;\n            uint256 tokenReserve = 0;\n            (baseReserve, tokenReserve) = getTotalReserve();\n\n            // Scale baseReserve to 18 decimals\n            baseReserve = baseReserve.mul(10**uint256(18 - baseDecimals));\n\n            // Scale tokenReserve to 18 decimals\n            tokenReserve = tokenReserve.mul(10**uint256(18 - tokenDecimals));\n\n            tokenInputAmount = tokenReserve.mul(baseReserve.add(baseInputAmount)).div(baseReserve).sub(tokenReserve);\n\n            // mintLP/totalLP =  baseInputAmount/baseReserve\n            // mintLP = totalLP*baseInputAmount/baseReserve\n            mintLP = totalSupply.mul(baseInputAmount).div(baseReserve);\n        }\n        return (mintLP, tokenInputAmount.div(10**uint256(18 - tokenDecimals)));\n    }\n\n    function getDataFromTokenInputToAddLp(uint256 tokenInputAmount) public view returns (uint256, uint256) {\n        uint256 totalSupply = totalSupply();\n        uint256 mintLP;\n        uint256 baseInputAmount;\n\n        // Scale tokenInputAmount to 18 decimals\n        tokenInputAmount = tokenInputAmount.mul(10**uint256(18 - tokenDecimals));\n\n        if(totalSupply == 0) {\n            mintLP = tokenInputAmount;\n            baseInputAmount = tokenInputAmount;\n        }\n        else { \n            // tokenReserve/baseReserve = (tokenReserve+tokenInputAmount)/(baseReserve+baseInputAmount)\n            // => (baseReserve+baseInputAmount) = (tokenReserve+tokenInputAmount) * baseReserve / tokenReserve\n            //  => baseInputAmount = (tokenReserve+tokenInputAmount) * baseReserve / tokenReserve - baseReserve\n            uint256 baseReserve = 0;\n            uint256 tokenReserve = 0;\n            (baseReserve, tokenReserve) = getTotalReserve();\n\n            // Scale baseReserve to 18 decimals\n            baseReserve = baseReserve.mul(10**uint256(18 - baseDecimals));\n\n            // Scale tokenReserve to 18 decimals\n            tokenReserve = tokenReserve.mul(10**uint256(18 - tokenDecimals));\n\n            baseInputAmount = baseReserve.mul(tokenReserve.add(tokenInputAmount)).div(tokenReserve).sub(baseReserve);\n\n            // mintLP/totalLP =  baseInputAmount/baseReserve\n            // mintLP = totalLP*baseInputAmount/baseReserve\n            mintLP = totalSupply.mul(baseInputAmount).div(baseReserve);\n        }\n        return (mintLP, baseInputAmount.div(10**uint256(18 - baseDecimals)));\n    }\n\n    function getDataToRemoveLP(uint256 amountLP) public view returns (uint256, uint256){\n        \n        uint256 totalSupply = totalSupply();\n\n        if (amountLP > totalSupply) {\n            amountLP = totalSupply;\n        } \n        uint256 baseReserve = 0;\n        uint256 tokenReserve = 0;\n        (baseReserve, tokenReserve) = getTotalReserve();\n\n        // Scale baseReserve to 18 decimals\n        baseReserve = baseReserve.mul(10**uint256(18 - baseDecimals));\n\n        // Scale tokenReserve to 18 decimals\n        tokenReserve = tokenReserve.mul(10**uint256(18 - tokenDecimals));\n        \n        // amountLP/totalSupply = baseOutputAmount/baseReserve\n        // => baseOutputAmount = amountLP*baseReserve/totalSupply\n        uint256 baseOutputAmount = amountLP.mul(baseReserve).div(totalSupply);\n        uint256 tokenOutputAmount = amountLP.mul(tokenReserve).div(totalSupply);\n        \n        return (baseOutputAmount.div(10**uint256(18 - baseDecimals)), tokenOutputAmount.div(10**uint256(18 - tokenDecimals)));\n    }\n    \n    // token*base=(token-tokenOutputAmount)*(base+baseInputAmount)\n    //token-tokenOutputAmount = token*base/(base+baseInputAmount)\n    // => tokenOutputAmount=token - token*base/(base+baseInputAmount)\n    function getTokenOutputAmountFromBaseInput(uint256 baseInputAmount, uint256 baseReserve, uint256 tokenReserve) public pure returns (uint256) {\n      require(baseReserve > 0 && tokenReserve > 0, \"INVALID_VALUE\");\n      uint256 numerator = tokenReserve.mul(baseReserve);\n      uint256 denominator = baseReserve.add(baseInputAmount);\n      uint256 tokenOutputAmount = tokenReserve.sub(numerator.div(denominator));\n      return tokenOutputAmount;\n    }\n    \n    // token*base=(token-tokenOutputAmount)*(base+baseInputAmount)\n    // base+baseInputAmount = token*base/(token-tokenOutputAmount)\n    //baseInputAmount = token*base/(token-tokenOutputAmount) - base;\n    function getBaseInputAmountFromTokenOutput(uint256 tokenOutputAmount, uint256 baseReserve, uint256 tokenReserve) public pure  returns (uint256) {\n      require(baseReserve > 0 && tokenReserve > 0, \"INVALID_VALUE\");\n      uint256 numerator = tokenReserve.mul(baseReserve);\n      uint256 denominator = tokenReserve.sub(tokenOutputAmount);\n      uint256 baseInputAmount = numerator.div(denominator).sub(baseReserve);\n      return baseInputAmount;\n    }\n    \n    // token*base=(token+tokenInputAmount)*(base-baseOutputAmount)\n    // => base - baseOutputAmount=token*base/(token+tokenInputAmount)\n    // => baseOutputAmount = base - token*base/(token+tokenInputAmount)\n    function getBaseOutputAmountFromTokenInput(uint256 tokenInputAmount, uint256 baseReserve, uint256 tokenReserve) public pure returns (uint256) {\n      require(baseReserve > 0 && tokenReserve > 0, \"INVALID_VALUE\");\n      uint256 numerator = tokenReserve.mul(baseReserve);\n      uint256 denominator = tokenReserve.add(tokenInputAmount);\n      uint256 baseOutputAmount = baseReserve.sub(numerator.div(denominator));\n      return baseOutputAmount;\n    }\n\n    // token*base=(token+tokenInputAmount)*(base-baseOutputAmount)\n    // => token+tokenInputAmount = token*base/(base-baseOutputAmount)\n    // => tokenInputAmount = token*base/(base-baseOutputAmount) - token\n    function getTokenInputAmountFromBaseOutput(uint256 baseOutputAmount, uint256 baseReserve, uint256 tokenReserve) public pure returns (uint256) {\n      require(baseReserve > 0 && tokenReserve > 0, \"INVALID_VALUE\");\n      uint256 numerator = tokenReserve.mul(baseReserve);\n      uint256 denominator = baseReserve.sub(baseOutputAmount);\n      uint256 tokenInputAmount = numerator.div(denominator).sub(tokenReserve);\n      return tokenInputAmount;\n    }\n\n    function swapBaseToTokenWithBaseInput(uint256 baseInputAmount, uint256 minTokenOutput, uint256 deadline) public onlyWhitelist whenNotPaused nonReentrant {\n        require(deadline >= block.timestamp, 'INVALID_DEADLINE');\n        require(baseInputAmount > 0, 'INVALID_BASE_INPUT');\n        require(minTokenOutput > 0, 'INVALID_MIN_TOKEN_OUTPUT');\n        \n        uint256 userBaseBalance = base.balanceOf(msg.sender);\n        if(baseInputAmount > userBaseBalance) {\n            baseInputAmount = userBaseBalance;\n        }\n\n        // Scale baseInputAmount to 18 decimals\n        baseInputAmount = baseInputAmount.mul(10**uint256(18 - baseDecimals));\n\n        // Scale minTokenOutput to 18 decimals\n        minTokenOutput = minTokenOutput.mul(10**uint256(18 - tokenDecimals));\n        \n        uint256 baseReserve = 0;\n        uint256 tokenReserve = 0;\n        (baseReserve, tokenReserve) = getTotalReserve();\n\n        // Scale baseReserve to 18 decimals\n        baseReserve = baseReserve.mul(10**uint256(18 - baseDecimals));\n\n        // Scale tokenReserve to 18 decimals\n        tokenReserve = tokenReserve.mul(10**uint256(18 - tokenDecimals));\n\n        require(minTokenOutput < tokenReserve, \"MIN_TOKEN_HIGHER_POOL_TOKEN_BALANCE\");\n\n        uint256 tradeFee = baseInputAmount.mul(TRADE_FEE).div(1000);\n        uint256 baseInputAmountAfterFee = baseInputAmount.sub(tradeFee); // cut the TRADE_FEE from base input\n        \n        uint256 tokenOutputAmount = getTokenOutputAmountFromBaseInput(baseInputAmountAfterFee, baseReserve, tokenReserve);\n\n        require(tokenOutputAmount >= minTokenOutput, 'CAN_NOT_MAKE_TRADE');\n        require(tokenOutputAmount < tokenReserve, 'TOKEN_OUTPUT_HIGHER_POOL_TOKEN_BALANCE');\n        require(tokenOutputAmount.div(10**uint256(18 - tokenDecimals)) < token.balanceOf(address(this)), 'TOKEN_OUTPUT_HIGHER_CURRENT_TRADE_BALANCE');\n        \n        //make trade\n        base.transferFrom(msg.sender, address(this), baseInputAmount.div(10**uint256(18 - baseDecimals)));\n        token.transfer(msg.sender, tokenOutputAmount.div(10**uint256(18 - tokenDecimals)));\n\n        //transfer fee\n        base.transfer(feeMachineContract, tradeFee.div(10**uint256(18 - baseDecimals)));\n\n        emit onSwapBaseToTokenWithBaseInput(\n            msg.sender,\n            minTokenOutput.div(10**uint256(18 - tokenDecimals)),\n            baseInputAmount.div(10**uint256(18 - baseDecimals)),\n            tokenOutputAmount.div(10**uint256(18 - tokenDecimals)),\n            baseReserve.div(10**uint256(18 - baseDecimals)),\n            tokenReserve.div(10**uint256(18 - tokenDecimals))\n        );\n\n    }\n\n    function swapBaseToTokenWithTokenOutput(uint256 maxBaseInput, uint256 tokenOutputAmount, uint256 deadline) public onlyWhitelist whenNotPaused nonReentrant{\n        require(deadline >= block.timestamp, 'INVALID_DEADLINE');\n        require(maxBaseInput > 0, 'INVALID_MAX_BASE_INPUT');\n        require(tokenOutputAmount > 0, 'INVALID_TOKEN_OUTPUT');\n        require(tokenOutputAmount < token.balanceOf(address(this)), 'TOKEN_OUTPUT_HIGHER_CURRENT_TRADE_BALANCE');\n\n        // Scale maxBaseInput to 18 decimals\n        maxBaseInput = maxBaseInput.mul(10**uint256(18 - baseDecimals));\n\n        // Scale tokenOutputAmount to 18 decimals\n        tokenOutputAmount = tokenOutputAmount.mul(10**uint256(18 - tokenDecimals));\n        \n        uint256 baseReserve = 0;\n        uint256 tokenReserve = 0;\n        (baseReserve, tokenReserve) = getTotalReserve();\n\n        // Scale baseReserve to 18 decimals\n        baseReserve = baseReserve.mul(10**uint256(18 - baseDecimals));\n\n        // Scale tokenReserve to 18 decimals\n        tokenReserve = tokenReserve.mul(10**uint256(18 - tokenDecimals));\n\n        require(tokenOutputAmount < tokenReserve, \"TOKEN_OUTPUT_HIGHER_POOL_TOKEN_BALANCE\");\n\n        uint256 baseInputAmount = getBaseInputAmountFromTokenOutput(tokenOutputAmount, baseReserve, tokenReserve);\n        \n        uint256 tradeFee = baseInputAmount.mul(TRADE_FEE).div(1000);\n        baseInputAmount = baseInputAmount.add(tradeFee); // add the TRADE_FEE to base input\n\n        require(baseInputAmount <= maxBaseInput, 'CAN_NOT_MAKE_TRADE');\n        require(baseInputAmount > 0, 'INVALID_BASE_INPUT');\n        require(baseInputAmount <= base.balanceOf(msg.sender).mul(10**uint256(18 - baseDecimals)), 'BASE_INPUT_HIGHER_USER_BALANCE');\n        \n        // Make trade\n        base.transferFrom(msg.sender, address(this), baseInputAmount.div(10**uint256(18 - baseDecimals)));\n        token.transfer(msg.sender, tokenOutputAmount.div(10**uint256(18 - tokenDecimals)));\n\n        // Transfer fee\n        base.transfer(feeMachineContract, tradeFee.div(10**uint256(18 - baseDecimals)));\n\n        emit onSwapBaseToTokenWithTokenOutput(\n            msg.sender,\n            maxBaseInput,\n            baseInputAmount.div(10**uint256(18 - baseDecimals)),\n            tokenOutputAmount.div(10**uint256(18 - tokenDecimals)),\n            baseReserve.div(10**uint256(18 - baseDecimals)),\n            tokenReserve.div(10**uint256(18 - tokenDecimals))\n        );\n    }\n\n    function swapTokenToBaseWithTokenInput(uint256 tokenInputAmount, uint256 minBaseOutput, uint256 deadline) public onlyWhitelist whenNotPaused nonReentrant {\n        require(deadline >= block.timestamp, 'INVALID_DEADLINE');\n        require(minBaseOutput > 0, 'INVALID_MIN_BASE_OUTPUT');\n        require(tokenInputAmount > 0, 'INVALID_TOKEN_INPUT');\n\n        uint256 userTokenBalance = token.balanceOf(msg.sender);\n        if(tokenInputAmount > userTokenBalance) {\n            tokenInputAmount = userTokenBalance;\n        }\n\n        // Scale tokenInputAmount to 18 decimals\n        tokenInputAmount = tokenInputAmount.mul(10**uint256(18 - tokenDecimals));\n\n        // Scale minBaseOutput to 18 decimals\n        minBaseOutput = minBaseOutput.mul(10**uint256(18 - baseDecimals));\n\n        uint256 baseReserve = 0;\n        uint256 tokenReserve = 0;\n        (baseReserve, tokenReserve) = getTotalReserve();\n\n        // Scale baseReserve to 18 decimals\n        baseReserve = baseReserve.mul(10**uint256(18 - baseDecimals));\n\n        // Scale tokenReserve to 18 decimals\n        tokenReserve = tokenReserve.mul(10**uint256(18 - tokenDecimals));\n\n        require(minBaseOutput < baseReserve, 'MIN_BASE_OUTPUT_HIGHER_POOL_BASE_BALANCE');\n\n        uint256 tradeFee = tokenInputAmount.mul(TRADE_FEE).div(1000);\n        uint256 tokenInputAmountAfterFee = tokenInputAmount.sub(tradeFee); // cut the TRADE_FEE from token input\n        \n        uint256 baseOutputAmount = getBaseOutputAmountFromTokenInput(tokenInputAmountAfterFee, baseReserve, tokenReserve);\n\n        require(baseOutputAmount >= minBaseOutput, 'CAN_NOT_MAKE_TRADE');\n        require(baseOutputAmount < baseReserve, 'BASE_OUTPUT_HIGHER_POOL_BASE_BALANCE');\n        require(baseOutputAmount < base.balanceOf(address(this)).mul(10**uint256(18 - baseDecimals)), 'BASE_OUTPUT_HIGHER_CURRENT_TRADE_BALANCE');\n\n        // Make trade\n        token.transferFrom(msg.sender, address(this), tokenInputAmount.div(10**uint256(18 - tokenDecimals)));\n        base.transfer(msg.sender, baseOutputAmount.div(10**uint256(18 - baseDecimals)));\n\n        // Transfer fee\n        token.transfer(feeMachineContract, tradeFee.div(10**uint256(18 - tokenDecimals)));\n\n        emit onSwapTokenToBaseWithTokenInput(\n            msg.sender,\n            minBaseOutput.div(10**uint256(18 - baseDecimals)),\n            tokenInputAmount.div(10**uint256(18 - tokenDecimals)),\n            baseOutputAmount.div(10**uint256(18 - baseDecimals)),\n            baseReserve.div(10**uint256(18 - baseDecimals)),\n            tokenReserve.div(10**uint256(18 - tokenDecimals))\n        );\n    }\n\n    function swapTokenToBaseWithBaseOutput(uint256 maxTokenInput, uint256 baseOutputAmount, uint256 deadline) public onlyWhitelist whenNotPaused nonReentrant {\n        require(deadline >= block.timestamp, 'INVALID_DEADLINE');\n        require(maxTokenInput > 0, 'INVALID_MAX_TOKEN_INPUT');\n        require(baseOutputAmount > 0, 'INVALID_BASE_OUTPUT');\n        require(baseOutputAmount < base.balanceOf(address(this)), 'BASE_OUTPUT_HIGHER_CURRENT_TRADE_BALANCE');\n        \n        // Scale maxTokenInput to 18 decimals\n        maxTokenInput = maxTokenInput.mul(10**uint256(18 - tokenDecimals));\n\n        // Scale baseOutputAmount to 18 decimals\n        baseOutputAmount = baseOutputAmount.mul(10**uint256(18 - baseDecimals));\n\n        uint256 baseReserve = 0;\n        uint256 tokenReserve = 0;\n        (baseReserve, tokenReserve) = getTotalReserve();\n\n        // Scale baseReserve to 18 decimals\n        baseReserve = baseReserve.mul(10**uint256(18 - baseDecimals));\n\n        // Scale tokenReserve to 18 decimals\n        tokenReserve = tokenReserve.mul(10**uint256(18 - tokenDecimals));\n\n        require(baseOutputAmount < baseReserve, 'BASE_OUTPUT_HIGHER_POOL_BASE_BALANCE');\n\n        uint256 tokenInputAmount = getTokenInputAmountFromBaseOutput(baseOutputAmount, baseReserve, tokenReserve);\n        \n        uint256 tradeFee = tokenInputAmount.mul(TRADE_FEE).div(1000);\n        tokenInputAmount = tokenInputAmount.add(tradeFee); // add the TRADE_FEE to token input\n\n        require(tokenInputAmount <= maxTokenInput, 'CAN_NOT_MAKE_TRADE');\n        require(tokenInputAmount > 0, 'INVALID_TOKEN_INPUT');\n        require(tokenInputAmount <= token.balanceOf(msg.sender).mul(10**uint256(18 - tokenDecimals)), 'TOKEN_INPUT_HIGHER_USER_BALANCE');\n\n        // Make trade\n        token.transferFrom(msg.sender, address(this), tokenInputAmount.div(10**uint256(18 - tokenDecimals)));\n        base.transfer(msg.sender, baseOutputAmount.div(10**uint256(18 - baseDecimals)));\n\n        // Transfer fee\n        token.transfer(feeMachineContract, tradeFee.div(10**uint256(18 - tokenDecimals)));\n\n        emit onSwapTokenToBaseWithBaseOutput(\n            msg.sender,\n            maxTokenInput.div(10**uint256(18 - tokenDecimals)),\n            tokenInputAmount.div(10**uint256(18 - tokenDecimals)),\n            baseOutputAmount.div(10**uint256(18 - baseDecimals)),\n            baseReserve.div(10**uint256(18 - baseDecimals)),\n            tokenReserve.div(10**uint256(18 - tokenDecimals))\n        );\n    }\n\n    function addLP(uint256 minLP, uint256 baseInputAmount, uint256 maxTokenInputAmount, uint256 deadline) public onlyWhitelist nonReentrant returns (uint256) {\n        require(deadline >= block.timestamp, 'INVALID_DEADLINE');\n        require(minLP > 0, 'INVALID_MIN_LP');\n        require(baseInputAmount > 0, 'INVALID_BASE_INPUT');\n        require(maxTokenInputAmount > 0, 'INVALID_MAX_TOKEN_INPUT');\n\n        uint256 userBaseBalance = base.balanceOf(msg.sender);\n        if(baseInputAmount > userBaseBalance) {\n            baseInputAmount = userBaseBalance;\n        }\n\n        // Scale baseInputAmount to 18 decimals\n        baseInputAmount = baseInputAmount.mul(10**uint256(18 - baseDecimals));\n\n        // Scale maxTokenInputAmount to 18 decimals\n        maxTokenInputAmount = maxTokenInputAmount.mul(10**uint256(18 - tokenDecimals));\n        \n        uint256 totalSupply = totalSupply();\n        if(totalSupply == 0) {\n            // Scale back to respective decimals for transfer\n            base.transferFrom(msg.sender, address(this), baseInputAmount.div(10**uint256(18 - baseDecimals)));\n            token.transferFrom(msg.sender, address(this), maxTokenInputAmount.div(10**uint256(18 - tokenDecimals)));\n            \n            uint256 initLP = baseInputAmount;\n            _mint(msg.sender, initLP);\n            emit onAddLP(msg.sender, initLP, baseInputAmount.div(10**uint256(18 - baseDecimals)), maxTokenInputAmount.div(10**uint256(18 - tokenDecimals)), base.balanceOf(address(this)), token.balanceOf(address(this)));\n            return initLP;\n        }\n        else { \n            // tokenReserve/baseReserve = (tokenReserve+tokenInputAmount)/(baseReserve+baseInputAmount)\n            // => tokenReserve+tokenInputAmount = tokenReserve*(baseReserve+baseInputAmount)/baseReserve\n            // => tokenInputAmount = tokenReserve*(baseReserve+baseInputAmount)/baseReserve - tokenReserve;\n            uint256 baseReserve = 0;\n            uint256 tokenReserve = 0;\n            (baseReserve, tokenReserve) = getTotalReserve();\n\n            // Scale baseReserve to 18 decimals\n            baseReserve = baseReserve.mul(10**uint256(18 - baseDecimals));\n\n            // Scale tokenReserve to 18 decimals\n            tokenReserve = tokenReserve.mul(10**uint256(18 - tokenDecimals));\n\n            uint256 tokenInputAmount = tokenReserve.mul(baseReserve.add(baseInputAmount)).div(baseReserve).sub(tokenReserve);\n\n            // mintLP/totalLP =  baseInputAmount/baseReserve\n            // mintLP = totalLP*baseInputAmount/baseReserve\n            uint256 mintLP = totalSupply.mul(baseInputAmount).div(baseReserve);\n            \n            require(tokenInputAmount > 0, 'INVALID_TOKEN_INPUT');\n            require(tokenInputAmount.div(10**uint256(18 - tokenDecimals)) <= maxTokenInputAmount.div(10**uint256(18 - tokenDecimals)), 'INVALID_TOKEN_INPUT');\n            require(mintLP >= minLP, \"INVALID_MINT_LP\");\n\n            base.transferFrom(msg.sender, address(this), baseInputAmount.div(10**uint256(18 - baseDecimals)));\n            token.transferFrom(msg.sender, address(this), tokenInputAmount.div(10**uint256(18 - tokenDecimals)));\n\n            _mint(msg.sender, mintLP);\n            emit onAddLP(msg.sender, mintLP, baseInputAmount.div(10**uint256(18 - baseDecimals)), tokenInputAmount.div(10**uint256(18 - tokenDecimals)), base.balanceOf(address(this)), token.balanceOf(address(this)));\n            return mintLP;\n        }\n    }\n\n    function removeLP(uint256 amountLP, uint256 minBaseOutput, uint256 minTokenOutput, uint256 deadline) public onlyWhitelist nonReentrant returns (uint256, uint256) {\n        require(deadline >= block.timestamp, 'INVALID_DEADLINE');\n        require(amountLP > 0, 'INVALID_AMOUNT_LP');\n        require(minBaseOutput > 0, 'INVALID_MIN_BASE_OUTPUT');\n        require(minTokenOutput > 0, 'INVALID_MIN_TOKEN_OUTPUT');\n\n        // Scale minBaseOutput to 18 decimals\n        minBaseOutput = minBaseOutput.mul(10**uint256(18 - baseDecimals));\n\n        // Scale maxTokenInputAmount to 18 decimals\n        minTokenOutput = minTokenOutput.mul(10**uint256(18 - tokenDecimals));\n        \n        uint256 totalSupply = totalSupply();\n        \n        uint256 userLPbalance = balanceOf(msg.sender);\n        if(amountLP > userLPbalance) {\n            amountLP = userLPbalance;\n        }\n\n        require(amountLP <= totalSupply, 'INVALID_AMOUNT_LP_TOTAL_SUPPLY');\n         \n        uint256 baseReserve = 0;\n        uint256 tokenReserve = 0;\n        (baseReserve, tokenReserve) = getTotalReserve();\n\n        // Scale baseReserve to 18 decimals\n        baseReserve = baseReserve.mul(10**uint256(18 - baseDecimals));\n\n        // Scale tokenReserve to 18 decimals\n        tokenReserve = tokenReserve.mul(10**uint256(18 - tokenDecimals));\n        \n        // amountLP/totalSupply = baseOutputAmount/baseReserve\n        // => baseOutputAmount = amountLP*baseReserve/totalSupply\n        uint256 baseOutputAmount = amountLP.mul(baseReserve).div(totalSupply);\n        uint256 tokenOutputAmount = amountLP.mul(tokenReserve).div(totalSupply);\n\n        require(baseOutputAmount >= minBaseOutput, \"INVALID_BASE_OUTPUT\");\n        require(tokenOutputAmount >= minTokenOutput, \"INVALID_TOKEN_OUTPUT\");\n        require(baseOutputAmount <= baseReserve, \"BASE_OUTPUT_HIGHER_BASE_BALANCE\");\n        require(tokenOutputAmount <= tokenReserve, \"TOKEN_OUTPUT_HIGHER_TOKEN_BALANCE\");\n\n        _burn(msg.sender, amountLP);\n        // Scale back to respective decimals for transfer\n        base.transfer(msg.sender, baseOutputAmount.div(10**uint256(18 - baseDecimals)));\n        token.transfer(msg.sender, tokenOutputAmount.div(10**uint256(18 - tokenDecimals)));\n\n        emit onRemoveLP(msg.sender, amountLP, baseOutputAmount.div(10**uint256(18 - baseDecimals)), tokenOutputAmount.div(10**uint256(18 - tokenDecimals)), base.balanceOf(address(this)), token.balanceOf(address(this)));\n\n        return (baseOutputAmount.div(10**uint256(18 - baseDecimals)), tokenOutputAmount.div(10**uint256(18 - tokenDecimals)));\n    }\n\n    function getTotalReserve() public view returns (uint256, uint256) { \n        uint256 baseReserve = base.balanceOf(address(this));\n        uint256 tokenReserve = token.balanceOf(address(this));\n\n        return (baseReserve, tokenReserve);\n    }\n\n    function pause() public onlyOwner {\n        _pause();\n    }\n    \n    function unpause() public onlyOwner {\n        _unpause();\n    }\n}",
  "sourcePath": "/Applications/projects/breezy-contracts/contracts/BreezySwap/BreezySwapV1BREWETH.sol",
  "compiler": {
    "name": "solc",
    "version": "0.8.17+commit.8df45f5f.Emscripten.clang"
  },
  "schemaVersion": "3.4.13",
  "updatedAt": "2023-08-17T18:46:26.297Z",
  "networkType": "ethereum",
  "devdoc": {
    "kind": "dev",
    "methods": {
      "allowance(address,address)": {
        "details": "See {IERC20-allowance}."
      },
      "approve(address,uint256)": {
        "details": "See {IERC20-approve}. NOTE: If `amount` is the maximum `uint256`, the allowance is not updated on `transferFrom`. This is semantically equivalent to an infinite approval. Requirements: - `spender` cannot be the zero address."
      },
      "balanceOf(address)": {
        "details": "See {IERC20-balanceOf}."
      },
      "burn(uint256)": {
        "details": "Destroys `amount` tokens from the caller. See {ERC20-_burn}."
      },
      "burnFrom(address,uint256)": {
        "details": "Destroys `amount` tokens from `account`, deducting from the caller's allowance. See {ERC20-_burn} and {ERC20-allowance}. Requirements: - the caller must have allowance for ``accounts``'s tokens of at least `amount`."
      },
      "decimals()": {
        "details": "Returns the number of decimals used to get its user representation. For example, if `decimals` equals `2`, a balance of `505` tokens should be displayed to a user as `5.05` (`505 / 10 ** 2`). Tokens usually opt for a value of 18, imitating the relationship between Ether and Wei. This is the default value returned by this function, unless it's overridden. NOTE: This information is only used for _display_ purposes: it in no way affects any of the arithmetic of the contract, including {IERC20-balanceOf} and {IERC20-transfer}."
      },
      "decreaseAllowance(address,uint256)": {
        "details": "Atomically decreases the allowance granted to `spender` by the caller. This is an alternative to {approve} that can be used as a mitigation for problems described in {IERC20-approve}. Emits an {Approval} event indicating the updated allowance. Requirements: - `spender` cannot be the zero address. - `spender` must have allowance for the caller of at least `subtractedValue`."
      },
      "increaseAllowance(address,uint256)": {
        "details": "Atomically increases the allowance granted to `spender` by the caller. This is an alternative to {approve} that can be used as a mitigation for problems described in {IERC20-approve}. Emits an {Approval} event indicating the updated allowance. Requirements: - `spender` cannot be the zero address."
      },
      "name()": {
        "details": "Returns the name of the token."
      },
      "owner()": {
        "details": "Returns the address of the current owner."
      },
      "paused()": {
        "details": "Returns true if the contract is paused, and false otherwise."
      },
      "renounceOwnership()": {
        "details": "Leaves the contract without owner. It will not be possible to call `onlyOwner` functions. Can only be called by the current owner. NOTE: Renouncing ownership will leave the contract without an owner, thereby disabling any functionality that is only available to the owner."
      },
      "symbol()": {
        "details": "Returns the symbol of the token, usually a shorter version of the name."
      },
      "totalSupply()": {
        "details": "See {IERC20-totalSupply}."
      },
      "transfer(address,uint256)": {
        "details": "See {IERC20-transfer}. Requirements: - `to` cannot be the zero address. - the caller must have a balance of at least `amount`."
      },
      "transferFrom(address,address,uint256)": {
        "details": "See {IERC20-transferFrom}. Emits an {Approval} event indicating the updated allowance. This is not required by the EIP. See the note at the beginning of {ERC20}. NOTE: Does not update the allowance if the current allowance is the maximum `uint256`. Requirements: - `from` and `to` cannot be the zero address. - `from` must have a balance of at least `amount`. - the caller must have allowance for ``from``'s tokens of at least `amount`."
      },
      "transferOwnership(address)": {
        "details": "Transfers ownership of the contract to a new account (`newOwner`). Can only be called by the current owner."
      }
    },
    "version": 1
  },
  "userdoc": {
    "kind": "user",
    "methods": {},
    "version": 1
  }
}