{
  "contractName": "IBreezyFarm",
  "abi": [
    {
      "inputs": [
        {
          "internalType": "address",
          "name": "",
          "type": "address"
        }
      ],
      "name": "shareOf",
      "outputs": [
        {
          "internalType": "uint256",
          "name": "",
          "type": "uint256"
        }
      ],
      "stateMutability": "view",
      "type": "function"
    },
    {
      "inputs": [],
      "name": "totalShare",
      "outputs": [
        {
          "internalType": "uint256",
          "name": "",
          "type": "uint256"
        }
      ],
      "stateMutability": "view",
      "type": "function"
    },
    {
      "inputs": [],
      "name": "want",
      "outputs": [
        {
          "internalType": "contract IERC20",
          "name": "",
          "type": "address"
        }
      ],
      "stateMutability": "view",
      "type": "function"
    }
  ],
  "bytecode": "0x608060405234801561001057600080fd5b50610106806100206000396000f3fe6080604052348015600f57600080fd5b5060043610603c5760003560e01c8063026c42071460415780631f1fcd5114605c57806321e5e2c4146085575b600080fd5b604960005481565b6040519081526020015b60405180910390f35b600154606e906001600160a01b031681565b6040516001600160a01b0390911681526020016053565b6049609036600460a2565b60026020526000908152604090205481565b60006020828403121560b357600080fd5b81356001600160a01b038116811460c957600080fd5b939250505056fea2646970667358221220d6011e29558b8cdea9c45f2fe5d7341131f21d4e2b3d32617a4df7658305a58764736f6c63430008110033",
  "immutableReferences": {},
  "source": "// SPDX-License-Identifier: MIT\npragma solidity >=0.6.12;\n\nimport \"@openzeppelin/contracts/token/ERC20/IERC20.sol\";\n\ncontract IBreezyFarm {\n\n   uint256 public totalShare;\n\n   IERC20 public want;\n\n   mapping(address => uint256) public shareOf; \n}",
  "sourcePath": "/Applications/projects/breezy-contracts/contracts/interfaces/IBreezyFarm.sol",
  "compiler": {
    "name": "solc",
    "version": "0.8.17+commit.8df45f5f.Emscripten.clang"
  },
  "schemaVersion": "3.4.13",
  "updatedAt": "2023-09-16T03:07:32.075Z",
  "devdoc": {
    "kind": "dev",
    "methods": {},
    "version": 1
  },
  "userdoc": {
    "kind": "user",
    "methods": {},
    "version": 1
  }
}