{
  "contractName": "ReferralContract",
  "abi": [
    {
      "inputs": [
        {
          "internalType": "bytes32",
          "name": "_refCode",
          "type": "bytes32"
        }
      ],
      "name": "setReferralCode",
      "outputs": [],
      "stateMutability": "nonpayable",
      "type": "function"
    },
    {
      "inputs": [
        {
          "internalType": "address",
          "name": "_user",
          "type": "address"
        }
      ],
      "name": "getReferralCodeByUser",
      "outputs": [
        {
          "internalType": "bytes32",
          "name": "",
          "type": "bytes32"
        }
      ],
      "stateMutability": "view",
      "type": "function"
    },
    {
      "inputs": [
        {
          "internalType": "bytes32",
          "name": "_refCode",
          "type": "bytes32"
        }
      ],
      "name": "getUserByReferralCode",
      "outputs": [
        {
          "internalType": "address",
          "name": "",
          "type": "address"
        }
      ],
      "stateMutability": "view",
      "type": "function"
    }
  ],
  "bytecode": "0x608060405234801561001057600080fd5b5061024f806100206000396000f3fe608060405234801561001057600080fd5b50600436106100415760003560e01c80632d5aa3ad146100465780637ba972d51461005b578063e84596ea146100a1575b600080fd5b6100596100543660046101d0565b6100d8565b005b6100846100693660046101d0565b6000908152600160205260409020546001600160a01b031690565b6040516001600160a01b0390911681526020015b60405180910390f35b6100ca6100af3660046101e9565b6001600160a01b031660009081526020819052604090205490565b604051908152602001610098565b336000908152602081905260409020541561013a5760405162461bcd60e51b815260206004820152601960248201527f526566657272616c20636f646520616c7265616479207365740000000000000060448201526064015b60405180910390fd5b6000818152600160205260409020546001600160a01b03161561019f5760405162461bcd60e51b815260206004820152601c60248201527f526566657272616c20636f646520616c726561647920696e20757365000000006044820152606401610131565b33600081815260208181526040808320859055938252600190529190912080546001600160a01b0319169091179055565b6000602082840312156101e257600080fd5b5035919050565b6000602082840312156101fb57600080fd5b81356001600160a01b038116811461021257600080fd5b939250505056fea264697066735822122039eccd73ff7451de1b33de9ec01c638d1dde8f076315e623684cdb4a5b7ae9ba64736f6c63430008110033",
  "immutableReferences": {},
  "source": "// SPDX-License-Identifier: MIT\r\npragma solidity ^0.8.0;\r\n\r\ncontract ReferralContract {\r\n    \r\n    mapping(address => bytes32) private userToRefCode;\r\n    mapping(bytes32 => address) private refCodeToUser;\r\n\r\n    function setReferralCode(bytes32 _refCode) external {\r\n        require(userToRefCode[msg.sender] == 0, \"Referral code already set\");\r\n        require(refCodeToUser[_refCode] == address(0), \"Referral code already in use\");\r\n\r\n        userToRefCode[msg.sender] = _refCode;\r\n        refCodeToUser[_refCode] = msg.sender;\r\n    }\r\n\r\n    function getReferralCodeByUser(address _user) external view returns (bytes32) {\r\n        return userToRefCode[_user];\r\n    }\r\n\r\n    function getUserByReferralCode(bytes32 _refCode) public view returns(address) {\r\n        return refCodeToUser[_refCode];\r\n    }\r\n}",
  "sourcePath": "E:\\Research\\contracts\\contracts\\DeFiXBot\\ReferralContract.sol",
  "compiler": {
    "name": "solc",
    "version": "0.8.17+commit.8df45f5f.Emscripten.clang"
  },
  "schemaVersion": "3.4.11",
  "updatedAt": "2023-10-13T04:46:55.027Z",
  "devdoc": {
    "kind": "dev",
    "methods": {},
    "version": 1
  },
  "userdoc": {
    "kind": "user",
    "methods": {},
    "version": 1
  }
}