{
  "contractName": "test",
  "abi": [
    {
      "inputs": [
        {
          "internalType": "contract IERC20",
          "name": "_XBOTAddress",
          "type": "address"
        },
        {
          "internalType": "address",
          "name": "_fromAddress",
          "type": "address"
        },
        {
          "internalType": "address",
          "name": "_toAddress",
          "type": "address"
        },
        {
          "internalType": "uint256",
          "name": "_amount",
          "type": "uint256"
        }
      ],
      "name": "deposit",
      "outputs": [],
      "stateMutability": "nonpayable",
      "type": "function"
    }
  ],
  "bytecode": "0x608060405234801561001057600080fd5b5061018f806100206000396000f3fe608060405234801561001057600080fd5b506004361061002b5760003560e01c80630284c3f514610030575b600080fd5b61004361003e3660046100df565b610045565b005b6040516323b872dd60e01b81526001600160a01b0384811660048301528381166024830152604482018390528516906323b872dd906064016020604051808303816000875af115801561009c573d6000803e3d6000fd5b505050506040513d601f19601f820116820180604052508101906100c09190610130565b5050505050565b6001600160a01b03811681146100dc57600080fd5b50565b600080600080608085870312156100f557600080fd5b8435610100816100c7565b93506020850135610110816100c7565b92506040850135610120816100c7565b9396929550929360600135925050565b60006020828403121561014257600080fd5b8151801515811461015257600080fd5b939250505056fea26469706673582212201a788f326a6bcb9c9cbd6d928a3c495a791fd3ec704d2ca452c24308f65b699064736f6c63430008110033",
  "immutableReferences": {},
  "source": "// SPDX-License-Identifier: MIT\npragma solidity >=0.6.12;\nimport \"@openzeppelin/contracts/utils/math/SafeMath.sol\";\nimport \"@openzeppelin/contracts/token/ERC20/IERC20.sol\";\n\ncontract test {\n    function deposit(IERC20 _XBOTAddress, address _fromAddress, address _toAddress, uint256 _amount) public {\n        _XBOTAddress.transferFrom(_fromAddress, _toAddress, _amount);\n    }\n}",
  "sourcePath": "/Applications/projects/contracts/contracts/DeFiXBot/test.sol",
  "compiler": {
    "name": "solc",
    "version": "0.8.17+commit.8df45f5f.Emscripten.clang"
  },
  "schemaVersion": "3.4.11",
  "updatedAt": "2023-09-25T08:44:53.770Z",
  "devdoc": {
    "kind": "dev",
    "methods": {},
    "version": 1
  },
  "userdoc": {
    "kind": "user",
    "methods": {},
    "version": 1
  }
}