{
  "contractName": "XBOT",
  "abi": [
    {
      "inputs": [],
      "stateMutability": "nonpayable",
      "type": "constructor"
    },
    {
      "anonymous": false,
      "inputs": [
        {
          "indexed": true,
          "internalType": "address",
          "name": "owner",
          "type": "address"
        },
        {
          "indexed": true,
          "internalType": "address",
          "name": "spender",
          "type": "address"
        },
        {
          "indexed": false,
          "internalType": "uint256",
          "name": "value",
          "type": "uint256"
        }
      ],
      "name": "Approval",
      "type": "event"
    },
    {
      "anonymous": false,
      "inputs": [
        {
          "indexed": true,
          "internalType": "address",
          "name": "previousOwner",
          "type": "address"
        },
        {
          "indexed": true,
          "internalType": "address",
          "name": "newOwner",
          "type": "address"
        }
      ],
      "name": "OwnershipTransferred",
      "type": "event"
    },
    {
      "anonymous": false,
      "inputs": [
        {
          "indexed": true,
          "internalType": "address",
          "name": "from",
          "type": "address"
        },
        {
          "indexed": true,
          "internalType": "address",
          "name": "to",
          "type": "address"
        },
        {
          "indexed": false,
          "internalType": "uint256",
          "name": "value",
          "type": "uint256"
        }
      ],
      "name": "Transfer",
      "type": "event"
    },
    {
      "anonymous": false,
      "inputs": [
        {
          "indexed": true,
          "internalType": "address",
          "name": "customerAddress",
          "type": "address"
        },
        {
          "indexed": false,
          "internalType": "uint256",
          "name": "ethereumReinvested",
          "type": "uint256"
        },
        {
          "indexed": false,
          "internalType": "uint256",
          "name": "tokensMinted",
          "type": "uint256"
        }
      ],
      "name": "onReinvestment",
      "type": "event"
    },
    {
      "anonymous": false,
      "inputs": [
        {
          "indexed": true,
          "internalType": "address",
          "name": "customerAddress",
          "type": "address"
        },
        {
          "indexed": false,
          "internalType": "uint256",
          "name": "incomingEthereum",
          "type": "uint256"
        },
        {
          "indexed": false,
          "internalType": "uint256",
          "name": "tokensMinted",
          "type": "uint256"
        },
        {
          "indexed": true,
          "internalType": "address",
          "name": "referredBy",
          "type": "address"
        },
        {
          "indexed": false,
          "internalType": "uint256",
          "name": "timestamp",
          "type": "uint256"
        },
        {
          "indexed": false,
          "internalType": "uint256",
          "name": "price",
          "type": "uint256"
        }
      ],
      "name": "onTokenPurchase",
      "type": "event"
    },
    {
      "anonymous": false,
      "inputs": [
        {
          "indexed": true,
          "internalType": "address",
          "name": "customerAddress",
          "type": "address"
        },
        {
          "indexed": false,
          "internalType": "uint256",
          "name": "tokensBurned",
          "type": "uint256"
        },
        {
          "indexed": false,
          "internalType": "uint256",
          "name": "ethereumEarned",
          "type": "uint256"
        },
        {
          "indexed": false,
          "internalType": "uint256",
          "name": "timestamp",
          "type": "uint256"
        },
        {
          "indexed": false,
          "internalType": "uint256",
          "name": "price",
          "type": "uint256"
        }
      ],
      "name": "onTokenSell",
      "type": "event"
    },
    {
      "anonymous": false,
      "inputs": [
        {
          "indexed": true,
          "internalType": "address",
          "name": "customerAddress",
          "type": "address"
        },
        {
          "indexed": false,
          "internalType": "uint256",
          "name": "ethereumWithdrawn",
          "type": "uint256"
        }
      ],
      "name": "onWithdraw",
      "type": "event"
    },
    {
      "stateMutability": "payable",
      "type": "fallback",
      "payable": true
    },
    {
      "inputs": [
        {
          "internalType": "address",
          "name": "owner",
          "type": "address"
        },
        {
          "internalType": "address",
          "name": "spender",
          "type": "address"
        }
      ],
      "name": "allowance",
      "outputs": [
        {
          "internalType": "uint256",
          "name": "",
          "type": "uint256"
        }
      ],
      "stateMutability": "view",
      "type": "function",
      "constant": true
    },
    {
      "inputs": [
        {
          "internalType": "address",
          "name": "spender",
          "type": "address"
        },
        {
          "internalType": "uint256",
          "name": "amount",
          "type": "uint256"
        }
      ],
      "name": "approve",
      "outputs": [
        {
          "internalType": "bool",
          "name": "",
          "type": "bool"
        }
      ],
      "stateMutability": "nonpayable",
      "type": "function"
    },
    {
      "inputs": [
        {
          "internalType": "address",
          "name": "account",
          "type": "address"
        }
      ],
      "name": "balanceOf",
      "outputs": [
        {
          "internalType": "uint256",
          "name": "",
          "type": "uint256"
        }
      ],
      "stateMutability": "view",
      "type": "function",
      "constant": true
    },
    {
      "inputs": [
        {
          "internalType": "uint256",
          "name": "amount",
          "type": "uint256"
        }
      ],
      "name": "burn",
      "outputs": [],
      "stateMutability": "nonpayable",
      "type": "function"
    },
    {
      "inputs": [
        {
          "internalType": "address",
          "name": "account",
          "type": "address"
        },
        {
          "internalType": "uint256",
          "name": "amount",
          "type": "uint256"
        }
      ],
      "name": "burnFrom",
      "outputs": [],
      "stateMutability": "nonpayable",
      "type": "function"
    },
    {
      "inputs": [],
      "name": "decimals",
      "outputs": [
        {
          "internalType": "uint8",
          "name": "",
          "type": "uint8"
        }
      ],
      "stateMutability": "view",
      "type": "function",
      "constant": true
    },
    {
      "inputs": [
        {
          "internalType": "address",
          "name": "spender",
          "type": "address"
        },
        {
          "internalType": "uint256",
          "name": "subtractedValue",
          "type": "uint256"
        }
      ],
      "name": "decreaseAllowance",
      "outputs": [
        {
          "internalType": "bool",
          "name": "",
          "type": "bool"
        }
      ],
      "stateMutability": "nonpayable",
      "type": "function"
    },
    {
      "inputs": [],
      "name": "entryFee_",
      "outputs": [
        {
          "internalType": "uint8",
          "name": "",
          "type": "uint8"
        }
      ],
      "stateMutability": "view",
      "type": "function",
      "constant": true
    },
    {
      "inputs": [],
      "name": "exitFee_",
      "outputs": [
        {
          "internalType": "uint8",
          "name": "",
          "type": "uint8"
        }
      ],
      "stateMutability": "view",
      "type": "function",
      "constant": true
    },
    {
      "inputs": [
        {
          "internalType": "address",
          "name": "spender",
          "type": "address"
        },
        {
          "internalType": "uint256",
          "name": "addedValue",
          "type": "uint256"
        }
      ],
      "name": "increaseAllowance",
      "outputs": [
        {
          "internalType": "bool",
          "name": "",
          "type": "bool"
        }
      ],
      "stateMutability": "nonpayable",
      "type": "function"
    },
    {
      "inputs": [],
      "name": "magnitude",
      "outputs": [
        {
          "internalType": "uint256",
          "name": "",
          "type": "uint256"
        }
      ],
      "stateMutability": "view",
      "type": "function",
      "constant": true
    },
    {
      "inputs": [],
      "name": "name",
      "outputs": [
        {
          "internalType": "string",
          "name": "",
          "type": "string"
        }
      ],
      "stateMutability": "view",
      "type": "function",
      "constant": true
    },
    {
      "inputs": [],
      "name": "owner",
      "outputs": [
        {
          "internalType": "address",
          "name": "",
          "type": "address"
        }
      ],
      "stateMutability": "view",
      "type": "function",
      "constant": true
    },
    {
      "inputs": [
        {
          "internalType": "address",
          "name": "",
          "type": "address"
        }
      ],
      "name": "payoutsTo_",
      "outputs": [
        {
          "internalType": "int256",
          "name": "",
          "type": "int256"
        }
      ],
      "stateMutability": "view",
      "type": "function",
      "constant": true
    },
    {
      "inputs": [],
      "name": "profitPerShare_",
      "outputs": [
        {
          "internalType": "uint256",
          "name": "",
          "type": "uint256"
        }
      ],
      "stateMutability": "view",
      "type": "function",
      "constant": true
    },
    {
      "inputs": [
        {
          "internalType": "address",
          "name": "",
          "type": "address"
        }
      ],
      "name": "referralBalance_",
      "outputs": [
        {
          "internalType": "uint256",
          "name": "",
          "type": "uint256"
        }
      ],
      "stateMutability": "view",
      "type": "function",
      "constant": true
    },
    {
      "inputs": [],
      "name": "refferalFee_",
      "outputs": [
        {
          "internalType": "uint8",
          "name": "",
          "type": "uint8"
        }
      ],
      "stateMutability": "view",
      "type": "function",
      "constant": true
    },
    {
      "inputs": [],
      "name": "renounceOwnership",
      "outputs": [],
      "stateMutability": "nonpayable",
      "type": "function"
    },
    {
      "inputs": [],
      "name": "stakingRequirement",
      "outputs": [
        {
          "internalType": "uint256",
          "name": "",
          "type": "uint256"
        }
      ],
      "stateMutability": "view",
      "type": "function",
      "constant": true
    },
    {
      "inputs": [],
      "name": "symbol",
      "outputs": [
        {
          "internalType": "string",
          "name": "",
          "type": "string"
        }
      ],
      "stateMutability": "view",
      "type": "function",
      "constant": true
    },
    {
      "inputs": [],
      "name": "tokenPriceIncremental_",
      "outputs": [
        {
          "internalType": "uint256",
          "name": "",
          "type": "uint256"
        }
      ],
      "stateMutability": "view",
      "type": "function",
      "constant": true
    },
    {
      "inputs": [],
      "name": "tokenPriceInitial_",
      "outputs": [
        {
          "internalType": "uint256",
          "name": "",
          "type": "uint256"
        }
      ],
      "stateMutability": "view",
      "type": "function",
      "constant": true
    },
    {
      "inputs": [],
      "name": "totalSupply",
      "outputs": [
        {
          "internalType": "uint256",
          "name": "",
          "type": "uint256"
        }
      ],
      "stateMutability": "view",
      "type": "function",
      "constant": true
    },
    {
      "inputs": [],
      "name": "transferFee_",
      "outputs": [
        {
          "internalType": "uint8",
          "name": "",
          "type": "uint8"
        }
      ],
      "stateMutability": "view",
      "type": "function",
      "constant": true
    },
    {
      "inputs": [
        {
          "internalType": "address",
          "name": "from",
          "type": "address"
        },
        {
          "internalType": "address",
          "name": "to",
          "type": "address"
        },
        {
          "internalType": "uint256",
          "name": "amount",
          "type": "uint256"
        }
      ],
      "name": "transferFrom",
      "outputs": [
        {
          "internalType": "bool",
          "name": "",
          "type": "bool"
        }
      ],
      "stateMutability": "nonpayable",
      "type": "function"
    },
    {
      "inputs": [
        {
          "internalType": "address",
          "name": "newOwner",
          "type": "address"
        }
      ],
      "name": "transferOwnership",
      "outputs": [],
      "stateMutability": "nonpayable",
      "type": "function"
    },
    {
      "stateMutability": "payable",
      "type": "receive",
      "payable": true
    },
    {
      "inputs": [
        {
          "internalType": "address",
          "name": "_referredBy",
          "type": "address"
        }
      ],
      "name": "buy",
      "outputs": [],
      "stateMutability": "payable",
      "type": "function",
      "payable": true
    },
    {
      "inputs": [],
      "name": "reinvest",
      "outputs": [],
      "stateMutability": "nonpayable",
      "type": "function"
    },
    {
      "inputs": [],
      "name": "exit",
      "outputs": [],
      "stateMutability": "nonpayable",
      "type": "function"
    },
    {
      "inputs": [],
      "name": "withdraw",
      "outputs": [],
      "stateMutability": "nonpayable",
      "type": "function"
    },
    {
      "inputs": [
        {
          "internalType": "uint256",
          "name": "_amountOfTokens",
          "type": "uint256"
        }
      ],
      "name": "sell",
      "outputs": [],
      "stateMutability": "nonpayable",
      "type": "function"
    },
    {
      "inputs": [
        {
          "internalType": "address",
          "name": "_toAddress",
          "type": "address"
        },
        {
          "internalType": "uint256",
          "name": "_amountOfTokens",
          "type": "uint256"
        }
      ],
      "name": "transfer",
      "outputs": [
        {
          "internalType": "bool",
          "name": "",
          "type": "bool"
        }
      ],
      "stateMutability": "nonpayable",
      "type": "function"
    },
    {
      "inputs": [],
      "name": "getETHBalance",
      "outputs": [
        {
          "internalType": "uint256",
          "name": "",
          "type": "uint256"
        }
      ],
      "stateMutability": "view",
      "type": "function",
      "constant": true
    },
    {
      "inputs": [],
      "name": "myTokens",
      "outputs": [
        {
          "internalType": "uint256",
          "name": "",
          "type": "uint256"
        }
      ],
      "stateMutability": "view",
      "type": "function",
      "constant": true
    },
    {
      "inputs": [
        {
          "internalType": "bool",
          "name": "_includeReferralBonus",
          "type": "bool"
        }
      ],
      "name": "myDividends",
      "outputs": [
        {
          "internalType": "uint256",
          "name": "",
          "type": "uint256"
        }
      ],
      "stateMutability": "view",
      "type": "function",
      "constant": true
    },
    {
      "inputs": [
        {
          "internalType": "address",
          "name": "_customerAddress",
          "type": "address"
        }
      ],
      "name": "dividendsOf",
      "outputs": [
        {
          "internalType": "uint256",
          "name": "",
          "type": "uint256"
        }
      ],
      "stateMutability": "view",
      "type": "function",
      "constant": true
    },
    {
      "inputs": [],
      "name": "sellPrice",
      "outputs": [
        {
          "internalType": "uint256",
          "name": "",
          "type": "uint256"
        }
      ],
      "stateMutability": "view",
      "type": "function",
      "constant": true
    },
    {
      "inputs": [],
      "name": "buyPrice",
      "outputs": [
        {
          "internalType": "uint256",
          "name": "",
          "type": "uint256"
        }
      ],
      "stateMutability": "view",
      "type": "function",
      "constant": true
    },
    {
      "inputs": [
        {
          "internalType": "uint256",
          "name": "_ethereumToSpend",
          "type": "uint256"
        }
      ],
      "name": "calculateTokensReceived",
      "outputs": [
        {
          "internalType": "uint256",
          "name": "",
          "type": "uint256"
        }
      ],
      "stateMutability": "view",
      "type": "function",
      "constant": true
    },
    {
      "inputs": [
        {
          "internalType": "uint256",
          "name": "_tokensToSell",
          "type": "uint256"
        }
      ],
      "name": "calculateEthereumReceived",
      "outputs": [
        {
          "internalType": "uint256",
          "name": "",
          "type": "uint256"
        }
      ],
      "stateMutability": "view",
      "type": "function",
      "constant": true
    },
    {
      "inputs": [
        {
          "internalType": "uint256",
          "name": "_tokenOut",
          "type": "uint256"
        }
      ],
      "name": "calculateEthereumInput",
      "outputs": [
        {
          "internalType": "uint256",
          "name": "",
          "type": "uint256"
        }
      ],
      "stateMutability": "view",
      "type": "function",
      "constant": true
    },
    {
      "inputs": [
        {
          "internalType": "uint256",
          "name": "_tokens",
          "type": "uint256"
        }
      ],
      "name": "tokensToEthereum_",
      "outputs": [
        {
          "internalType": "uint256",
          "name": "",
          "type": "uint256"
        }
      ],
      "stateMutability": "view",
      "type": "function",
      "constant": true
    },
    {
      "inputs": [
        {
          "internalType": "uint256",
          "name": "_token",
          "type": "uint256"
        }
      ],
      "name": "getEtherumInputOfTokenOutput",
      "outputs": [
        {
          "internalType": "uint256",
          "name": "",
          "type": "uint256"
        }
      ],
      "stateMutability": "view",
      "type": "function",
      "constant": true
    },
    {
      "inputs": [
        {
          "internalType": "uint256",
          "name": "_ethereum",
          "type": "uint256"
        }
      ],
      "name": "getTokenInputOfEthereumOutput",
      "outputs": [
        {
          "internalType": "uint256",
          "name": "",
          "type": "uint256"
        }
      ],
      "stateMutability": "view",
      "type": "function",
      "constant": true
    },
    {
      "inputs": [
        {
          "internalType": "uint256",
          "name": "_amountIn",
          "type": "uint256"
        },
        {
          "internalType": "address",
          "name": "_tokenIn",
          "type": "address"
        }
      ],
      "name": "getAmountOut",
      "outputs": [
        {
          "internalType": "uint256",
          "name": "",
          "type": "uint256"
        }
      ],
      "stateMutability": "view",
      "type": "function",
      "constant": true
    },
    {
      "inputs": [
        {
          "internalType": "uint256",
          "name": "_amountOut",
          "type": "uint256"
        },
        {
          "internalType": "address",
          "name": "_tokenOut",
          "type": "address"
        }
      ],
      "name": "getAmountIn",
      "outputs": [
        {
          "internalType": "uint256",
          "name": "",
          "type": "uint256"
        }
      ],
      "stateMutability": "view",
      "type": "function",
      "constant": true
    },
    {
      "inputs": [
        {
          "internalType": "uint256",
          "name": "x",
          "type": "uint256"
        }
      ],
      "name": "sqrt",
      "outputs": [
        {
          "internalType": "uint256",
          "name": "y",
          "type": "uint256"
        }
      ],
      "stateMutability": "pure",
      "type": "function",
      "constant": true
    }
  ],
  "bytecode": "0x60806040526802b5e3af16b18800006006553480156200001e57600080fd5b50604051806040016040528060088152602001671119519a561093d560c21b81525060405180604001604052806004815260200163161093d560e21b81525081600390816200006e91906200019b565b5060046200007d82826200019b565b5050506200009a62000094620000a060201b60201c565b620000a4565b62000267565b3390565b600580546001600160a01b038381166001600160a01b0319831681179093556040519116919082907f8be0079c531659141344cd1fd0a4f28419497f9722a3daafe3b4186f6b6457e090600090a35050565b634e487b7160e01b600052604160045260246000fd5b600181811c908216806200012157607f821691505b6020821081036200014257634e487b7160e01b600052602260045260246000fd5b50919050565b601f8211156200019657600081815260208120601f850160051c81016020861015620001715750805b601f850160051c820191505b8181101562000192578281556001016200017d565b5050505b505050565b81516001600160401b03811115620001b757620001b7620000f6565b620001cf81620001c884546200010c565b8462000148565b602080601f831160018114620002075760008415620001ee5750858301515b600019600386901b1c1916600185901b17855562000192565b600085815260208120601f198616915b82811015620002385788860151825594840194600190910190840162000217565b5085821015620002575787850151600019600388901b60f8161c191681555b5050505050600190811b01905550565b61218680620002776000396000f3fe60806040526004361061028b5760003560e01c8063715018a61161015a578063bf3b397b116100c1578063e4849b321161007a578063e4849b321461077e578063e9fad8ee1461079e578063f088d547146107b3578063f140a35a146107c6578063f2fde38b146107e6578063fdb5a03e14610806576102ad565b8063bf3b397b146106b6578063c4c1b39a146106d6578063c664f7f1146106ef578063cb8cd7cb1461071c578063dd62ed3e14610731578063e1456cb414610751576102ad565b8063949e8acd11610113578063949e8acd1461061757806395d89b411461062c5780639d40608314610641578063a0cd956514610661578063a457c2d714610676578063a9059cbb14610696576102ad565b8063715018a61461056757806379cc67901461057c57806381ec9ee01461059c5780638620410b146105bc5780638da5cb5b146105d15780638e72267a146105f9576102ad565b80632b38ee56116101fe57806356d399e8116101b757806356d399e8146104c8578063677342ce146104de578063688abbf7146104fe5780636e9472981461051e57806370a0823114610531578063710b318b14610551576102ad565b80632b38ee5614610435578063313ce5671461044a578063395093511461045e5780633ccfd60b1461047e57806342966c68146104935780634b750334146104b3576102ad565b80631125f13f116102505780631125f13f1461038157806318160ddd146103a157806319123c1f146103b657806322609373146103ce5780632290d6e2146103ee57806323b872dd14610415576102ad565b806265318b146102c357806306fdde03146102f6578063095ea7b3146103185780630ea8e5ac1461034857806310d0ffdd14610361576102ad565b366102ad576102ab346102a66005546001600160a01b031690565b61081b565b005b6102ab346102a66005546001600160a01b031690565b3480156102cf57600080fd5b506102e36102de366004611dd5565b610ad4565b6040519081526020015b60405180910390f35b34801561030257600080fd5b5061030b610b1d565b6040516102ed9190611df0565b34801561032457600080fd5b50610338610333366004611e3e565b610baf565b60405190151581526020016102ed565b34801561035457600080fd5b506102e36402540be40081565b34801561036d57600080fd5b506102e361037c366004611e68565b610bc7565b34801561038d57600080fd5b506102e361039c366004611e81565b610bfe565b3480156103ad57600080fd5b506002546102e3565b3480156103c257600080fd5b506102e3600160401b81565b3480156103da57600080fd5b506102e36103e9366004611e68565b610c20565b3480156103fa57600080fd5b50610403600a81565b60405160ff90911681526020016102ed565b34801561042157600080fd5b50610338610430366004611ead565b610c64565b34801561044157600080fd5b50610403600481565b34801561045657600080fd5b506012610403565b34801561046a57600080fd5b50610338610479366004611e3e565b610c88565b34801561048a57600080fd5b506102ab610caa565b34801561049f57600080fd5b506102ab6104ae366004611e68565b610dbe565b3480156104bf57600080fd5b506102e3610dcb565b3480156104d457600080fd5b506102e360065481565b3480156104ea57600080fd5b506102e36104f9366004611e68565b610e33565b34801561050a57600080fd5b506102e3610519366004611ee9565b610e8c565b34801561052a57600080fd5b50476102e3565b34801561053d57600080fd5b506102e361054c366004611dd5565b610ed5565b34801561055d57600080fd5b506102e360095481565b34801561057357600080fd5b506102ab610ef0565b34801561058857600080fd5b506102ab610597366004611e3e565b610f04565b3480156105a857600080fd5b506102e36105b7366004611e68565b610f1d565b3480156105c857600080fd5b506102e3610f4d565b3480156105dd57600080fd5b506005546040516001600160a01b0390911681526020016102ed565b34801561060557600080fd5b506102e3610614366004611e68565b90565b34801561062357600080fd5b506102e3610fa8565b34801561063857600080fd5b5061030b610fba565b34801561064d57600080fd5b506102e361065c366004611e68565b610fc9565b34801561066d57600080fd5b50610403602181565b34801561068257600080fd5b50610338610691366004611e3e565b6110ef565b3480156106a257600080fd5b506103386106b1366004611e3e565b61116a565b3480156106c257600080fd5b506102e36106d1366004611e68565b61129d565b3480156106e257600080fd5b506102e364174876e80081565b3480156106fb57600080fd5b506102e361070a366004611dd5565b60076020526000908152604090205481565b34801561072857600080fd5b50610403600081565b34801561073d57600080fd5b506102e361074c366004611f0b565b611381565b34801561075d57600080fd5b506102e361076c366004611dd5565b60086020526000908152604090205481565b34801561078a57600080fd5b506102ab610799366004611e68565b6113ac565b3480156107aa57600080fd5b506102ab6114dd565b6102ab6107c1366004611dd5565b611502565b3480156107d257600080fd5b506102e36107e1366004611e81565b61150c565b3480156107f257600080fd5b506102ab610801366004611dd5565b611530565b34801561081257600080fd5b506102ab6115a6565b60003381610835606461082f87600a61169e565b906116aa565b90506000610849606461082f84602161169e565b9050600061085783836116b6565b9050600061086588856116b6565b90506000610872826116c2565b9050600061088484600160401b61169e565b90506000821180156108a0575060025461089e83826117c7565b115b6108e15760405162461bcd60e51b815260206004820152600d60248201526c6572726f72207265717569726560981b60448201526064015b60405180910390fd5b6001600160a01b0389161580159061090b5750866001600160a01b0316896001600160a01b031614155b8015610921575060065461091e8a610ed5565b10155b15610967576001600160a01b03891660009081526007602052604090205461094990866117c7565b6001600160a01b038a16600090815260076020526040902055610984565b61097184866117c7565b935061098184600160401b61169e565b90505b600061098f60025490565b1115610a0f576109b96109ab836109a560025490565b906117c7565b61082f86600160401b61169e565b600960008282546109ca9190611f4b565b90915550610a0c9050610a056109fe6109f76109e9866109a560025490565b61082f89600160401b61169e565b859061169e565b83906116b6565b82906116b6565b90505b610a1987836117d3565b60008183600954610a2a9190611f5e565b610a349190611f8e565b6001600160a01b038916600090815260086020526040812080549293508392909190610a61908490611fb5565b90915550506001600160a01b03808b169089167f8032875b28d82ddbd303a9e4e5529d047a14ecb6290f80012a81b7e6227ff1ab8d8642610aa0610f4d565b60408051948552602085019390935291830152606082015260800160405180910390a3509096505050505050505b92915050565b6001600160a01b038116600090815260086020526040812054600160401b90610afc84610ed5565b600954610b099190611fdd565b610b139190611f8e565b610ace9190611ff4565b606060038054610b2c90612016565b80601f0160208091040260200160405190810160405280929190818152602001828054610b5890612016565b8015610ba55780601f10610b7a57610100808354040283529160200191610ba5565b820191906000526020600020905b815481529060010190602001808311610b8857829003601f168201915b5050505050905090565b600033610bbd818585611892565b5060019392505050565b600080610bda606461082f85600a61169e565b90506000610be884836116b6565b90506000610bf5826116c2565b95945050505050565b6000306001600160a01b03831603610ace57610c1983610f1d565b9050610ace565b6000610c2b60025490565b821115610c3757600080fd5b6000610c428361129d565b90506000610c56606461082f84600461169e565b90506000610bf583836116b6565b600033610c728582856119b7565b610c7d858585611a31565b506001949350505050565b600033610bbd818585610c9b8383611381565b610ca59190611f4b565b611892565b6000610cb66001610e8c565b11610cc057600080fd5b336000610ccc81610e8c565b9050610cdc81600160401b61169e565b6001600160a01b03831660009081526008602052604081208054909190610d04908490611fb5565b90915550506001600160a01b038216600090815260076020526040902054610d2d9082906117c7565b6001600160a01b03831660008181526007602052604080822082905551929350909183156108fc0291849190818181858888f19350505050158015610d76573d6000803e3d6000fd5b50816001600160a01b03167fccad973dcd043c7d680389db4378bd6b9775db7124092e9e0422c9e46d7985dc82604051610db291815260200190565b60405180910390a25050565b610dc83382611bd5565b50565b6000610dd660025490565b600003610df657610df164174876e8006402540be4006116b6565b905090565b6000610e09670de0b6b3a764000061129d565b90506000610e1d606461082f84600461169e565b90506000610e2b83836116b6565b949350505050565b6000806002610e43846001611f4b565b610e4d9190611ff4565b90508291505b81811015610e8657905080600281610e6b8186611ff4565b610e759190611f4b565b610e7f9190611ff4565b9050610e53565b50919050565b60003382610ea257610e9d81610ad4565b610ece565b6001600160a01b038116600090815260076020526040902054610ec482610ad4565b610ece9190611f4b565b9392505050565b6001600160a01b031660009081526020819052604090205490565b610ef8611cff565b610f026000611d59565b565b610f0f8233836119b7565b610f198282611bd5565b5050565b600080610f2983610fc9565b90506000610e2b6064610f47610f4082600a6116b6565b85906116aa565b9061169e565b6000610f5860025490565b600003610f7357610df164174876e8006402540be4006117c7565b6000610f86670de0b6b3a764000061129d565b90506000610f9a606461082f84600a61169e565b90506000610e2b83836117c7565b600033610fb481610ed5565b91505090565b606060048054610b2c90612016565b600080610fe364174876e800670de0b6b3a7640000611fdd565b90506000610ff060025490565b905060006110046402540be4006002611fdd565b61101d906ec097ce7bc90715b34b9f1000000000611fdd565b828461102f6402540be4006002611fdd565b6110399190611fdd565b6110439190611fdd565b61104e60028561212e565b61105e60026402540be40061212e565b6110689190611fdd565b6110728589611f4b565b6402540be400611083886002611fdd565b61108d9190611fdd565b6110979190611fdd565b60026110a3878b611f4b565b6110ad919061212e565b6110bd60026402540be40061212e565b6110c79190611fdd565b6110d19190611f4b565b6110db919061213d565b6110e5919061213d565b610bf59190611ff4565b600033816110fd8286611381565b90508381101561115d5760405162461bcd60e51b815260206004820152602560248201527f45524332303a2064656372656173656420616c6c6f77616e63652062656c6f77604482015264207a65726f60d81b60648201526084016108d8565b610c7d8286868403611892565b600080611175610fa8565b1161117f57600080fd5b3361118981610ed5565b83111561119557600080fd5b60006111a16001610e8c565b11156111af576111af610caa565b60006111c0606461082f868461169e565b905060006111ce85836116b6565b905060006111db8361129d565b90506111e78484611bd5565b6111f18783611dab565b506009546111ff908761169e565b6001600160a01b03851660009081526008602052604081208054909190611227908490611f8e565b9091555050600954611239908361169e565b6001600160a01b03881660009081526008602052604081208054909190611261908490611fb5565b9091555061128d905061128461127660025490565b61082f84600160401b61169e565b600954906117c7565b6009555060019695505050505050565b6000806112b283670de0b6b3a7640000611f4b565b905060006112bf60025490565b6112d190670de0b6b3a7640000611f4b565b90506000610bf5670de0b6b3a764000061082f600282876112f2838261212e565b6112fc919061213d565b6113069190611ff4565b611315906402540be400611fdd565b61131f9190611ff4565b61133187670de0b6b3a76400006116b6565b6402540be40061134988670de0b6b3a76400006116aa565b611358906402540be400611fdd565b6113679064174876e800611f4b565b611371919061213d565b61137b9190611fdd565b906116b6565b6001600160a01b03918216600090815260016020908152604080832093909416825291909152205490565b60006113b6610fa8565b116113c057600080fd5b336113ca81610ed5565b8211156113d657600080fd5b60006113e18361129d565b905060006113f5606461082f84600461169e565b9050600061140383836116b6565b905061140f8486611bd5565b600061142f61142283600160401b61169e565b6009546109a5908961169e565b6001600160a01b03861660009081526008602052604081208054929350839290919061145c908490611f8e565b90915550506002541561147c576114786112846109ab60025490565b6009555b846001600160a01b03167f8d3a0130073dbd54ab6ac632c05946df540553d3b514c9f8165b4ab7f2b1805e8784426114b2610f4d565b60408051948552602085019390935291830152606082015260800160405180910390a2505050505050565b3360006114e982610ed5565b905080156114fa576114fa816113ac565b610f19610caa565b610f19348261081b565b6000306001600160a01b0383160361152757610c1983610c20565b610ece83610bc7565b611538611cff565b6001600160a01b03811661159d5760405162461bcd60e51b815260206004820152602660248201527f4f776e61626c653a206e6577206f776e657220697320746865207a65726f206160448201526564647265737360d01b60648201526084016108d8565b610dc881611d59565b60006115b26001610e8c565b116115bc57600080fd5b60006115c86000610e8c565b9050336115d982600160401b61169e565b6001600160a01b03821660009081526008602052604081208054909190611601908490611fb5565b90915550506001600160a01b03811660009081526007602052604090205461162a9083906117c7565b6001600160a01b0382166000908152600760205260408120819055909250611652838261081b565b60408051858152602081018390529192506001600160a01b038416917fbe339fc14b041c2b0e0f3dd2cd325d0c3668b78378001e53160eab3615326458910160405180910390a2505050565b6000610ece8284611fdd565b6000610ece8284611ff4565b6000610ece828461213d565b6000806116dc64174876e800670de0b6b3a7640000611fdd565b905060006116e960025490565b6402540be4006117b38461137b6116ff60025490565b876117106402540be4006002611fdd565b61171a9190611fdd565b6117249190611fdd565b60028054611732919061212e565b61174260026402540be40061212e565b61174c9190611fdd565b61175e8b670de0b6b3a7640000611fdd565b6117756402540be400670de0b6b3a7640000611fdd565b611780906002611fdd565b61178a9190611fdd565b61179560028b61212e565b61179f9190611f4b565b6117a99190611f4b565b6104f99190611f4b565b6117bd9190611ff4565b610e2b919061213d565b6000610ece8284611f4b565b6001600160a01b0382166118295760405162461bcd60e51b815260206004820152601f60248201527f45524332303a206d696e7420746f20746865207a65726f20616464726573730060448201526064016108d8565b806002600082825461183b9190611f4b565b90915550506001600160a01b038216600081815260208181526040808320805486019055518481527fddf252ad1be2c89b69c2b068fc378daa952ba7f163c4a11628f55a4df523b3ef910160405180910390a35050565b6001600160a01b0383166118f45760405162461bcd60e51b8152602060048201526024808201527f45524332303a20617070726f76652066726f6d20746865207a65726f206164646044820152637265737360e01b60648201526084016108d8565b6001600160a01b0382166119555760405162461bcd60e51b815260206004820152602260248201527f45524332303a20617070726f766520746f20746865207a65726f206164647265604482015261737360f01b60648201526084016108d8565b6001600160a01b0383811660008181526001602090815260408083209487168084529482529182902085905590518481527f8c5be1e5ebec7d5bd14f71427d1e84f3dd0314c0f7b2291e5b200ac8c7c3b92591015b60405180910390a3505050565b60006119c38484611381565b90506000198114611a2b5781811015611a1e5760405162461bcd60e51b815260206004820152601d60248201527f45524332303a20696e73756666696369656e7420616c6c6f77616e636500000060448201526064016108d8565b611a2b8484848403611892565b50505050565b6001600160a01b038316611a955760405162461bcd60e51b815260206004820152602560248201527f45524332303a207472616e736665722066726f6d20746865207a65726f206164604482015264647265737360d81b60648201526084016108d8565b6001600160a01b038216611af75760405162461bcd60e51b815260206004820152602360248201527f45524332303a207472616e7366657220746f20746865207a65726f206164647260448201526265737360e81b60648201526084016108d8565b6001600160a01b03831660009081526020819052604090205481811015611b6f5760405162461bcd60e51b815260206004820152602660248201527f45524332303a207472616e7366657220616d6f756e7420657863656564732062604482015265616c616e636560d01b60648201526084016108d8565b6001600160a01b03848116600081815260208181526040808320878703905593871680835291849020805487019055925185815290927fddf252ad1be2c89b69c2b068fc378daa952ba7f163c4a11628f55a4df523b3ef910160405180910390a3611a2b565b6001600160a01b038216611c355760405162461bcd60e51b815260206004820152602160248201527f45524332303a206275726e2066726f6d20746865207a65726f206164647265736044820152607360f81b60648201526084016108d8565b6001600160a01b03821660009081526020819052604090205481811015611ca95760405162461bcd60e51b815260206004820152602260248201527f45524332303a206275726e20616d6f756e7420657863656564732062616c616e604482015261636560f01b60648201526084016108d8565b6001600160a01b0383166000818152602081815260408083208686039055600280548790039055518581529192917fddf252ad1be2c89b69c2b068fc378daa952ba7f163c4a11628f55a4df523b3ef91016119aa565b6005546001600160a01b03163314610f025760405162461bcd60e51b815260206004820181905260248201527f4f776e61626c653a2063616c6c6572206973206e6f7420746865206f776e657260448201526064016108d8565b600580546001600160a01b038381166001600160a01b0319831681179093556040519116919082907f8be0079c531659141344cd1fd0a4f28419497f9722a3daafe3b4186f6b6457e090600090a35050565b600033610bbd818585611a31565b80356001600160a01b0381168114611dd057600080fd5b919050565b600060208284031215611de757600080fd5b610ece82611db9565b600060208083528351808285015260005b81811015611e1d57858101830151858201604001528201611e01565b506000604082860101526040601f19601f8301168501019250505092915050565b60008060408385031215611e5157600080fd5b611e5a83611db9565b946020939093013593505050565b600060208284031215611e7a57600080fd5b5035919050565b60008060408385031215611e9457600080fd5b82359150611ea460208401611db9565b90509250929050565b600080600060608486031215611ec257600080fd5b611ecb84611db9565b9250611ed960208501611db9565b9150604084013590509250925092565b600060208284031215611efb57600080fd5b81358015158114610ece57600080fd5b60008060408385031215611f1e57600080fd5b611f2783611db9565b9150611ea460208401611db9565b634e487b7160e01b600052601160045260246000fd5b80820180821115610ace57610ace611f35565b80820260008212600160ff1b84141615611f7a57611f7a611f35565b8181058314821517610ace57610ace611f35565b8181036000831280158383131683831282161715611fae57611fae611f35565b5092915050565b8082018281126000831280158216821582161715611fd557611fd5611f35565b505092915050565b8082028115828204841417610ace57610ace611f35565b60008261201157634e487b7160e01b600052601260045260246000fd5b500490565b600181811c9082168061202a57607f821691505b602082108103610e8657634e487b7160e01b600052602260045260246000fd5b600181815b8085111561208557816000190482111561206b5761206b611f35565b8085161561207857918102915b93841c939080029061204f565b509250929050565b60008261209c57506001610ace565b816120a957506000610ace565b81600181146120bf57600281146120c9576120e5565b6001915050610ace565b60ff8411156120da576120da611f35565b50506001821b610ace565b5060208310610133831016604e8410600b8410161715612108575081810a610ace565b612112838361204a565b806000190482111561212657612126611f35565b029392505050565b6000610ece60ff84168361208d565b81810381811115610ace57610ace611f3556fea2646970667358221220a3f5e4f4472af172f3cc826d9ec1c6c8a708cd214928b41c207c90b6a1247c2764736f6c63430008110033",
  "immutableReferences": {},
  "source": "// SPDX-License-Identifier: MIT\npragma solidity >=0.6.12;\n\nimport \"@openzeppelin/contracts/utils/math/SafeMath.sol\";\nimport \"@openzeppelin/contracts/token/ERC20/IERC20.sol\";\nimport \"@openzeppelin/contracts/token/ERC20/ERC20.sol\";\nimport \"@openzeppelin/contracts/token/ERC20/extensions/ERC20Burnable.sol\";\nimport \"@openzeppelin/contracts/utils/Context.sol\";\nimport \"@openzeppelin/contracts/access/Ownable.sol\";\n\ncontract XBOT is ERC20Burnable, Ownable {\n    using SafeMath for uint256;\n\n    modifier onlyBagholders {\n        require(myTokens() > 0);\n        _;\n    }\n\n    modifier onlyStronghands {\n        require(myDividends(true) > 0);\n        _;\n    }\n\n    event onTokenPurchase(\n        address indexed customerAddress,\n        uint256 incomingEthereum,\n        uint256 tokensMinted,\n        address indexed referredBy,\n        uint timestamp,\n        uint256 price\n\t);\n\n    event onTokenSell(\n        address indexed customerAddress,\n        uint256 tokensBurned,\n        uint256 ethereumEarned,\n        uint timestamp,\n        uint256 price\n\t);\n\n    event onReinvestment(\n        address indexed customerAddress,\n        uint256 ethereumReinvested,\n        uint256 tokensMinted\n\t);\n\n    event onWithdraw(\n        address indexed customerAddress,\n        uint256 ethereumWithdrawn\n\t);\n\n    uint8 constant public entryFee_ = 10;\n    uint8 constant public transferFee_ = 0;\n    uint8 constant public exitFee_ = 4;\n    uint8 constant public refferalFee_ = 33;\n    uint256 constant public tokenPriceInitial_ = 0.0000001 ether;\n    uint256 constant public tokenPriceIncremental_ = 0.00000001 ether;\n    uint256 constant public magnitude = 2 ** 64;\n    uint256 public stakingRequirement = 50e18;\n    mapping(address => uint256) public referralBalance_;\n    mapping(address => int256) public payoutsTo_;\n    uint256 public profitPerShare_;\n\n    constructor(\n    ) ERC20(\"DeFiXBOT\", \"XBOT\") {\n    }\n\n    function buy(address _referredBy) public payable{\n        purchaseTokens(msg.value, _referredBy);\n    }\n\n    receive() external payable  { \n        purchaseTokens(msg.value, owner());\n    }\n\n    fallback() external payable{\n        purchaseTokens(msg.value, owner());\n    }\n\n    function reinvest() onlyStronghands public {\n        uint256 _dividends = myDividends(false);\n        address _customerAddress = msg.sender;\n        payoutsTo_[_customerAddress] +=  int256(_dividends.mul(magnitude));\n        _dividends = _dividends.add(referralBalance_[_customerAddress]);\n        referralBalance_[_customerAddress] = 0;\n        uint256 _tokens = purchaseTokens(_dividends, address(0));\n        emit onReinvestment(_customerAddress, _dividends, _tokens);\n    }\n\n    function exit() public {\n        address _customerAddress = msg.sender;\n        uint256 _tokens = balanceOf(_customerAddress);\n        if (_tokens > 0) sell(_tokens);\n        withdraw();\n    }\n\n    function withdraw() onlyStronghands public {\n        address _customerAddress = msg.sender;\n        uint256 _dividends = myDividends(false);\n        payoutsTo_[_customerAddress] += int256(_dividends.mul(magnitude));\n        _dividends = _dividends.add(referralBalance_[_customerAddress]);\n        referralBalance_[_customerAddress] = 0;\n        payable(_customerAddress).transfer(_dividends);\n        emit onWithdraw(_customerAddress, _dividends);\n    }\n\n    function sell(uint256 _amountOfTokens) onlyBagholders public {\n        address _customerAddress = msg.sender;\n        require(_amountOfTokens <= balanceOf(_customerAddress));\n        uint256 _ethereum = tokensToEthereum_(_amountOfTokens);\n        uint256 _dividends = _ethereum.mul(exitFee_).div(100);\n        uint256 _taxedEthereum = _ethereum.sub(_dividends);\n\n        super._burn(_customerAddress, _amountOfTokens);\n\n        int256 _updatedPayouts = int256(profitPerShare_.mul(_amountOfTokens).add(_taxedEthereum.mul(magnitude)));\n        payoutsTo_[_customerAddress] -= _updatedPayouts;\n\n        if (totalSupply() > 0) {\n            profitPerShare_ = profitPerShare_.add(_dividends.mul(magnitude).div(totalSupply()));\n        }\n        emit onTokenSell(_customerAddress, _amountOfTokens, _taxedEthereum, block.timestamp, buyPrice());\n    }\n\n    function transfer(address _toAddress, uint256 _amountOfTokens) onlyBagholders public override returns (bool) {\n        address _customerAddress = msg.sender;\n        require(_amountOfTokens <= balanceOf(_customerAddress));\n\n        if (myDividends(true) > 0) {\n            withdraw();\n        }\n\n        uint256 _tokenFee = _amountOfTokens.mul(transferFee_).div(100);\n        uint256 _taxedTokens = _amountOfTokens.sub(_tokenFee);\n        uint256 _dividends = tokensToEthereum_(_tokenFee);\n\n        super._burn(_customerAddress, _tokenFee);\n        super.transfer(_toAddress, _taxedTokens);\n\n        payoutsTo_[_customerAddress] -= int256(profitPerShare_.mul(_amountOfTokens));\n        payoutsTo_[_toAddress] += int256(profitPerShare_.mul(_taxedTokens));\n        profitPerShare_ = profitPerShare_.add(_dividends.mul(magnitude).div(totalSupply()));\n        return true;\n    }\n\n\n    function getETHBalance() public view returns (uint256) {\n        return address(this).balance;\n    }\n\n    function myTokens() public view returns (uint256) {\n        address _customerAddress = msg.sender;\n        return balanceOf(_customerAddress);\n    }\n\n    function myDividends(bool _includeReferralBonus) public view returns (uint256) {\n        address _customerAddress = msg.sender;\n        return _includeReferralBonus ? dividendsOf(_customerAddress) + referralBalance_[_customerAddress] : dividendsOf(_customerAddress) ;\n    }\n\n    function dividendsOf(address _customerAddress) public view returns (uint256) {\n        return (uint256) ((int256) (profitPerShare_ * balanceOf(_customerAddress)) - payoutsTo_[_customerAddress]) / magnitude;\n    }\n\n    function sellPrice() public view returns (uint256) {\n        if (totalSupply() == 0) {\n            return tokenPriceInitial_.sub(tokenPriceIncremental_);\n        } else {\n            uint256 _ethereum = tokensToEthereum_(1e18);\n            uint256 _dividends = _ethereum.mul(exitFee_).div(100);\n            uint256 _taxedEthereum = _ethereum.sub(_dividends);\n\n            return _taxedEthereum;\n        }\n    }\n\n    function buyPrice() public view returns (uint256) {\n        if (totalSupply() == 0) {\n            return tokenPriceInitial_.add(tokenPriceIncremental_);\n        } else {\n            uint256 _ethereum = tokensToEthereum_(1e18);\n            uint256 _dividends = _ethereum.mul(entryFee_).div(100);\n            uint256 _taxedEthereum = _ethereum.add(_dividends);\n\n            return _taxedEthereum;\n        }\n    }\n\n    function calculateTokensReceived(uint256 _ethereumToSpend) public view returns (uint256) {\n        uint256 _dividends = _ethereumToSpend.mul(entryFee_).div(100);\n        uint256 _taxedEthereum = _ethereumToSpend.sub(_dividends);\n        uint256 _amountOfTokens = ethereumToTokens_(_taxedEthereum);\n\n        return _amountOfTokens;\n    }\n\n    function calculateEthereumReceived(uint256 _tokensToSell) public view returns (uint256) {\n        require(_tokensToSell <= totalSupply());\n        uint256 _ethereum = tokensToEthereum_(_tokensToSell);\n        uint256 _dividends = _ethereum.mul(exitFee_).div(100);\n        uint256 _taxedEthereum = _ethereum.sub(_dividends);\n        return _taxedEthereum;\n    }\n   \n    function calculateEthereumInput(uint256 _tokenOut) public view returns(uint256) {\n        uint256 _taxedEthereum = getEtherumInputOfTokenOutput(_tokenOut);\n        uint256 _amountEthereumInput = _taxedEthereum.div(uint256(100).sub(entryFee_)).mul(100);\n        return _amountEthereumInput;\n    }\n\n    function purchaseTokens(uint256 _incomingEthereum, address _referredBy) internal returns (uint256) {\n        address _customerAddress = msg.sender;\n        uint256 _undividedDividends = _incomingEthereum.mul(entryFee_).div(100);\n        uint256 _referralBonus = _undividedDividends.mul(refferalFee_).div(100);\n        uint256 _dividends = _undividedDividends.sub(_referralBonus);\n        uint256 _taxedEthereum = _incomingEthereum.sub(_undividedDividends);\n        uint256 _amountOfTokens = ethereumToTokens_(_taxedEthereum);\n        uint256 _fee = uint256(_dividends.mul(magnitude));\n\n        require(_amountOfTokens > 0 && _amountOfTokens.add(totalSupply()) > totalSupply(), \"error require\");\n\n        if (\n            _referredBy != address(0) &&\n            _referredBy != _customerAddress &&\n            balanceOf(_referredBy) >= stakingRequirement\n        ) {\n            referralBalance_[_referredBy] = referralBalance_[_referredBy].add(_referralBonus);\n        } else {\n            _dividends = _dividends.add(_referralBonus);\n            _fee = uint256(_dividends.mul(magnitude));\n        }\n\n        if (totalSupply() > 0) {\n            profitPerShare_ += (_dividends.mul(magnitude).div(totalSupply().add(_amountOfTokens)));\n            _fee = _fee.sub(_fee.sub(_amountOfTokens.mul(_dividends.mul(magnitude).div(totalSupply().add(_amountOfTokens)))));\n        }\n\n        _mint(_customerAddress, _amountOfTokens);\n        \n        int256 _updatedPayouts = int256(profitPerShare_) * int256(_amountOfTokens) - int256(_fee);\n        payoutsTo_[_customerAddress] += _updatedPayouts;\n\n        emit onTokenPurchase(_customerAddress, _incomingEthereum, _amountOfTokens, _referredBy, block.timestamp, buyPrice());\n\n        return _amountOfTokens;\n    }\n\n     function ethereumToTokens_(uint256 _ethereum) internal view returns (uint256) {\n        uint256 _tokenPriceInitial = tokenPriceInitial_ * 1e18;\n        uint256 _tokensReceived =\n            (\n                (\n                    (sqrt\n                        (\n                            (_tokenPriceInitial ** 2)\n                            +\n                            (2 * (tokenPriceIncremental_ * 1e18) * (_ethereum * 1e18))\n                            +\n                            ((tokenPriceIncremental_ ** 2) * (totalSupply() ** 2))\n                            +\n                            (2 * tokenPriceIncremental_ * _tokenPriceInitial*totalSupply())\n                        )\n                    ).sub(_tokenPriceInitial)\n                ) / (tokenPriceIncremental_)\n            ) - (totalSupply());\n\n        return _tokensReceived;\n    }\n\n    function tokensToEthereum_(uint256 _tokens) public view returns (uint256) {\n        uint256 tokens_ = _tokens + 1e18;\n        uint256 _tokenSupply = totalSupply() + 1e18;\n        uint256 _etherReceived =\n            (\n                (\n                    (\n                        (\n                            tokenPriceInitial_ + (tokenPriceIncremental_ * (_tokenSupply.div(1e18)))\n                        ) - tokenPriceIncremental_\n                    ) * (tokens_.sub(1e18))\n                ).sub(tokenPriceIncremental_ * ((tokens_ ** 2 - tokens_) / 1e18) / 2).div(1e18)\n            );\n        return _etherReceived;\n    }\n\n    function getEtherumInputOfTokenOutput(uint256 _token) public view returns (uint256) {\n        uint256 _tokenPriceInitial = tokenPriceInitial_ * 1e18;\n        uint256 _tokenSupply = totalSupply();\n        uint256 _ethereumInput = (\n            ((tokenPriceIncremental_ ** 2) * ((_token + _tokenSupply) ** 2))\n            +\n            (2 * _tokenPriceInitial * tokenPriceIncremental_ * (_token + _tokenSupply))\n            -\n            ((tokenPriceIncremental_ ** 2) * (_tokenSupply ** 2))\n            -\n            (2 * tokenPriceIncremental_ * _tokenPriceInitial * _tokenSupply)\n        ) / (2 * tokenPriceIncremental_ * 1e36);\n\n        return _ethereumInput;\n    }\n    \n    function getTokenInputOfEthereumOutput(uint256 _ethereum) public view returns (uint256) {\n        return _ethereum;\n    }\n\n    function getAmountOut(uint256 _amountIn, address _tokenIn) public view returns (uint256) {\n        if(_tokenIn == address(this)) {\n            return calculateEthereumReceived(_amountIn);\n        }\n        return calculateTokensReceived(_amountIn);\n    }\n\n    function getAmountIn(uint256 _amountOut, address _tokenOut) public view returns(uint256) {\n        if(_tokenOut == address(this)) {\n            return calculateEthereumInput(_amountOut);\n        }\n    }\n\n    function sqrt(uint256 x) public pure returns (uint256 y) {\n        uint256 z = (x + 1) / 2;\n        y = x;\n\n        while (z < y) {\n            y = z;\n            z = (x / z + z) / 2;\n        }\n    }\n}",
  "sourcePath": "/Applications/projects/contracts/contracts/DeFiXBot/XBOT.sol",
  "compiler": {
    "name": "solc",
    "version": "0.8.17+commit.8df45f5f.Emscripten.clang"
  },
  "schemaVersion": "3.4.11",
  "updatedAt": "2023-09-20T07:22:28.273Z",
  "networkType": "ethereum",
  "devdoc": {
    "kind": "dev",
    "methods": {
      "allowance(address,address)": {
        "details": "See {IERC20-allowance}."
      },
      "approve(address,uint256)": {
        "details": "See {IERC20-approve}. NOTE: If `amount` is the maximum `uint256`, the allowance is not updated on `transferFrom`. This is semantically equivalent to an infinite approval. Requirements: - `spender` cannot be the zero address."
      },
      "balanceOf(address)": {
        "details": "See {IERC20-balanceOf}."
      },
      "burn(uint256)": {
        "details": "Destroys `amount` tokens from the caller. See {ERC20-_burn}."
      },
      "burnFrom(address,uint256)": {
        "details": "Destroys `amount` tokens from `account`, deducting from the caller's allowance. See {ERC20-_burn} and {ERC20-allowance}. Requirements: - the caller must have allowance for ``accounts``'s tokens of at least `amount`."
      },
      "decimals()": {
        "details": "Returns the number of decimals used to get its user representation. For example, if `decimals` equals `2`, a balance of `505` tokens should be displayed to a user as `5.05` (`505 / 10 ** 2`). Tokens usually opt for a value of 18, imitating the relationship between Ether and Wei. This is the default value returned by this function, unless it's overridden. NOTE: This information is only used for _display_ purposes: it in no way affects any of the arithmetic of the contract, including {IERC20-balanceOf} and {IERC20-transfer}."
      },
      "decreaseAllowance(address,uint256)": {
        "details": "Atomically decreases the allowance granted to `spender` by the caller. This is an alternative to {approve} that can be used as a mitigation for problems described in {IERC20-approve}. Emits an {Approval} event indicating the updated allowance. Requirements: - `spender` cannot be the zero address. - `spender` must have allowance for the caller of at least `subtractedValue`."
      },
      "increaseAllowance(address,uint256)": {
        "details": "Atomically increases the allowance granted to `spender` by the caller. This is an alternative to {approve} that can be used as a mitigation for problems described in {IERC20-approve}. Emits an {Approval} event indicating the updated allowance. Requirements: - `spender` cannot be the zero address."
      },
      "name()": {
        "details": "Returns the name of the token."
      },
      "owner()": {
        "details": "Returns the address of the current owner."
      },
      "renounceOwnership()": {
        "details": "Leaves the contract without owner. It will not be possible to call `onlyOwner` functions. Can only be called by the current owner. NOTE: Renouncing ownership will leave the contract without an owner, thereby disabling any functionality that is only available to the owner."
      },
      "symbol()": {
        "details": "Returns the symbol of the token, usually a shorter version of the name."
      },
      "totalSupply()": {
        "details": "See {IERC20-totalSupply}."
      },
      "transferFrom(address,address,uint256)": {
        "details": "See {IERC20-transferFrom}. Emits an {Approval} event indicating the updated allowance. This is not required by the EIP. See the note at the beginning of {ERC20}. NOTE: Does not update the allowance if the current allowance is the maximum `uint256`. Requirements: - `from` and `to` cannot be the zero address. - `from` must have a balance of at least `amount`. - the caller must have allowance for ``from``'s tokens of at least `amount`."
      },
      "transferOwnership(address)": {
        "details": "Transfers ownership of the contract to a new account (`newOwner`). Can only be called by the current owner."
      }
    },
    "version": 1
  },
  "userdoc": {
    "kind": "user",
    "methods": {},
    "version": 1
  }
}