{
  "contractName": "XBOTTreasury",
  "abi": [
    {
      "anonymous": false,
      "inputs": [
        {
          "indexed": true,
          "internalType": "address",
          "name": "previousOwner",
          "type": "address"
        },
        {
          "indexed": true,
          "internalType": "address",
          "name": "newOwner",
          "type": "address"
        }
      ],
      "name": "OwnershipTransferred",
      "type": "event"
    },
    {
      "stateMutability": "payable",
      "type": "fallback",
      "payable": true
    },
    {
      "inputs": [],
      "name": "owner",
      "outputs": [
        {
          "internalType": "address",
          "name": "",
          "type": "address"
        }
      ],
      "stateMutability": "view",
      "type": "function",
      "constant": true
    },
    {
      "inputs": [],
      "name": "renounceOwnership",
      "outputs": [],
      "stateMutability": "nonpayable",
      "type": "function"
    },
    {
      "inputs": [
        {
          "internalType": "address",
          "name": "newOwner",
          "type": "address"
        }
      ],
      "name": "transferOwnership",
      "outputs": [],
      "stateMutability": "nonpayable",
      "type": "function"
    },
    {
      "stateMutability": "payable",
      "type": "receive",
      "payable": true
    },
    {
      "inputs": [],
      "name": "withdraw",
      "outputs": [],
      "stateMutability": "nonpayable",
      "type": "function"
    }
  ],
  "bytecode": "0x608060405234801561001057600080fd5b5061001a3361001f565b61006f565b600080546001600160a01b038381166001600160a01b0319831681178455604051919092169283917f8be0079c531659141344cd1fd0a4f28419497f9722a3daafe3b4186f6b6457e09190a35050565b6102a38061007e6000396000f3fe6080604052600436106100405760003560e01c80633ccfd60b14610049578063715018a61461005e5780638da5cb5b14610073578063f2fde38b1461009f57005b3661004757005b005b34801561005557600080fd5b506100476100bf565b34801561006a57600080fd5b50610047610104565b34801561007f57600080fd5b50600054604080516001600160a01b039092168252519081900360200190f35b3480156100ab57600080fd5b506100476100ba36600461023d565b610118565b6100c7610193565b600080546040516001600160a01b03909116914780156108fc02929091818181858888f19350505050158015610101573d6000803e3d6000fd5b50565b61010c610193565b61011660006101ed565b565b610120610193565b6001600160a01b03811661018a5760405162461bcd60e51b815260206004820152602660248201527f4f776e61626c653a206e6577206f776e657220697320746865207a65726f206160448201526564647265737360d01b60648201526084015b60405180910390fd5b610101816101ed565b6000546001600160a01b031633146101165760405162461bcd60e51b815260206004820181905260248201527f4f776e61626c653a2063616c6c6572206973206e6f7420746865206f776e65726044820152606401610181565b600080546001600160a01b038381166001600160a01b0319831681178455604051919092169283917f8be0079c531659141344cd1fd0a4f28419497f9722a3daafe3b4186f6b6457e09190a35050565b60006020828403121561024f57600080fd5b81356001600160a01b038116811461026657600080fd5b939250505056fea26469706673582212200b5bbc49c573e351d9215f20e78bdc4f4236857f915550c7ae141aa3270e649d64736f6c63430008110033",
  "immutableReferences": {},
  "source": "// SPDX-License-Identifier: MIT\npragma solidity >=0.6.12;\n\nimport \"@openzeppelin/contracts/access/Ownable.sol\";\n\ncontract XBOTTreasury is Ownable {\n    receive() external payable  {    \n    }\n\n    fallback() external payable {\n    }\n\n    function withdraw() public onlyOwner {\n        payable(owner()).transfer(address(this).balance);\n    }\n}\n",
  "sourcePath": "/Applications/projects/contracts/contracts/DeFiXBot/XBOTTreasury.sol",
  "compiler": {
    "name": "solc",
    "version": "0.8.17+commit.8df45f5f.Emscripten.clang"
  },
  "schemaVersion": "3.4.11",
  "updatedAt": "2023-10-03T04:24:41.097Z",
  "networkType": "ethereum",
  "devdoc": {
    "kind": "dev",
    "methods": {
      "owner()": {
        "details": "Returns the address of the current owner."
      },
      "renounceOwnership()": {
        "details": "Leaves the contract without owner. It will not be possible to call `onlyOwner` functions. Can only be called by the current owner. NOTE: Renouncing ownership will leave the contract without an owner, thereby disabling any functionality that is only available to the owner."
      },
      "transferOwnership(address)": {
        "details": "Transfers ownership of the contract to a new account (`newOwner`). Can only be called by the current owner."
      }
    },
    "version": 1
  },
  "userdoc": {
    "kind": "user",
    "methods": {},
    "version": 1
  }
}