{
  "contractName": "XBOT",
  "abi": [
    {
      "inputs": [],
      "stateMutability": "nonpayable",
      "type": "constructor"
    },
    {
      "anonymous": false,
      "inputs": [
        {
          "indexed": true,
          "internalType": "address",
          "name": "owner",
          "type": "address"
        },
        {
          "indexed": true,
          "internalType": "address",
          "name": "spender",
          "type": "address"
        },
        {
          "indexed": false,
          "internalType": "uint256",
          "name": "value",
          "type": "uint256"
        }
      ],
      "name": "Approval",
      "type": "event"
    },
    {
      "anonymous": false,
      "inputs": [
        {
          "indexed": true,
          "internalType": "address",
          "name": "previousOwner",
          "type": "address"
        },
        {
          "indexed": true,
          "internalType": "address",
          "name": "newOwner",
          "type": "address"
        }
      ],
      "name": "OwnershipTransferred",
      "type": "event"
    },
    {
      "anonymous": false,
      "inputs": [
        {
          "indexed": true,
          "internalType": "address",
          "name": "from",
          "type": "address"
        },
        {
          "indexed": true,
          "internalType": "address",
          "name": "to",
          "type": "address"
        },
        {
          "indexed": false,
          "internalType": "uint256",
          "name": "value",
          "type": "uint256"
        }
      ],
      "name": "Transfer",
      "type": "event"
    },
    {
      "anonymous": false,
      "inputs": [
        {
          "indexed": true,
          "internalType": "address",
          "name": "customerAddress",
          "type": "address"
        },
        {
          "indexed": false,
          "internalType": "uint256",
          "name": "ethereumReinvested",
          "type": "uint256"
        },
        {
          "indexed": false,
          "internalType": "uint256",
          "name": "tokensMinted",
          "type": "uint256"
        }
      ],
      "name": "onReinvestment",
      "type": "event"
    },
    {
      "anonymous": false,
      "inputs": [
        {
          "indexed": true,
          "internalType": "address",
          "name": "customerAddress",
          "type": "address"
        },
        {
          "indexed": false,
          "internalType": "uint256",
          "name": "incomingEthereum",
          "type": "uint256"
        },
        {
          "indexed": false,
          "internalType": "uint256",
          "name": "tokensMinted",
          "type": "uint256"
        },
        {
          "indexed": true,
          "internalType": "address",
          "name": "referredBy",
          "type": "address"
        },
        {
          "indexed": false,
          "internalType": "uint256",
          "name": "timestamp",
          "type": "uint256"
        },
        {
          "indexed": false,
          "internalType": "uint256",
          "name": "price",
          "type": "uint256"
        }
      ],
      "name": "onTokenPurchase",
      "type": "event"
    },
    {
      "anonymous": false,
      "inputs": [
        {
          "indexed": true,
          "internalType": "address",
          "name": "customerAddress",
          "type": "address"
        },
        {
          "indexed": false,
          "internalType": "uint256",
          "name": "tokensBurned",
          "type": "uint256"
        },
        {
          "indexed": false,
          "internalType": "uint256",
          "name": "ethereumEarned",
          "type": "uint256"
        },
        {
          "indexed": false,
          "internalType": "uint256",
          "name": "timestamp",
          "type": "uint256"
        },
        {
          "indexed": false,
          "internalType": "uint256",
          "name": "price",
          "type": "uint256"
        }
      ],
      "name": "onTokenSell",
      "type": "event"
    },
    {
      "anonymous": false,
      "inputs": [
        {
          "indexed": true,
          "internalType": "address",
          "name": "customerAddress",
          "type": "address"
        },
        {
          "indexed": false,
          "internalType": "uint256",
          "name": "ethereumWithdrawn",
          "type": "uint256"
        }
      ],
      "name": "onWithdraw",
      "type": "event"
    },
    {
      "stateMutability": "payable",
      "type": "fallback"
    },
    {
      "inputs": [
        {
          "internalType": "address",
          "name": "owner",
          "type": "address"
        },
        {
          "internalType": "address",
          "name": "spender",
          "type": "address"
        }
      ],
      "name": "allowance",
      "outputs": [
        {
          "internalType": "uint256",
          "name": "",
          "type": "uint256"
        }
      ],
      "stateMutability": "view",
      "type": "function"
    },
    {
      "inputs": [
        {
          "internalType": "address",
          "name": "spender",
          "type": "address"
        },
        {
          "internalType": "uint256",
          "name": "amount",
          "type": "uint256"
        }
      ],
      "name": "approve",
      "outputs": [
        {
          "internalType": "bool",
          "name": "",
          "type": "bool"
        }
      ],
      "stateMutability": "nonpayable",
      "type": "function"
    },
    {
      "inputs": [
        {
          "internalType": "address",
          "name": "account",
          "type": "address"
        }
      ],
      "name": "balanceOf",
      "outputs": [
        {
          "internalType": "uint256",
          "name": "",
          "type": "uint256"
        }
      ],
      "stateMutability": "view",
      "type": "function"
    },
    {
      "inputs": [
        {
          "internalType": "uint256",
          "name": "amount",
          "type": "uint256"
        }
      ],
      "name": "burn",
      "outputs": [],
      "stateMutability": "nonpayable",
      "type": "function"
    },
    {
      "inputs": [
        {
          "internalType": "address",
          "name": "account",
          "type": "address"
        },
        {
          "internalType": "uint256",
          "name": "amount",
          "type": "uint256"
        }
      ],
      "name": "burnFrom",
      "outputs": [],
      "stateMutability": "nonpayable",
      "type": "function"
    },
    {
      "inputs": [],
      "name": "decimals",
      "outputs": [
        {
          "internalType": "uint8",
          "name": "",
          "type": "uint8"
        }
      ],
      "stateMutability": "view",
      "type": "function"
    },
    {
      "inputs": [
        {
          "internalType": "address",
          "name": "spender",
          "type": "address"
        },
        {
          "internalType": "uint256",
          "name": "subtractedValue",
          "type": "uint256"
        }
      ],
      "name": "decreaseAllowance",
      "outputs": [
        {
          "internalType": "bool",
          "name": "",
          "type": "bool"
        }
      ],
      "stateMutability": "nonpayable",
      "type": "function"
    },
    {
      "inputs": [
        {
          "internalType": "address",
          "name": "spender",
          "type": "address"
        },
        {
          "internalType": "uint256",
          "name": "addedValue",
          "type": "uint256"
        }
      ],
      "name": "increaseAllowance",
      "outputs": [
        {
          "internalType": "bool",
          "name": "",
          "type": "bool"
        }
      ],
      "stateMutability": "nonpayable",
      "type": "function"
    },
    {
      "inputs": [],
      "name": "name",
      "outputs": [
        {
          "internalType": "string",
          "name": "",
          "type": "string"
        }
      ],
      "stateMutability": "view",
      "type": "function"
    },
    {
      "inputs": [],
      "name": "owner",
      "outputs": [
        {
          "internalType": "address",
          "name": "",
          "type": "address"
        }
      ],
      "stateMutability": "view",
      "type": "function"
    },
    {
      "inputs": [],
      "name": "renounceOwnership",
      "outputs": [],
      "stateMutability": "nonpayable",
      "type": "function"
    },
    {
      "inputs": [],
      "name": "stakingRequirement",
      "outputs": [
        {
          "internalType": "uint256",
          "name": "",
          "type": "uint256"
        }
      ],
      "stateMutability": "view",
      "type": "function"
    },
    {
      "inputs": [],
      "name": "symbol",
      "outputs": [
        {
          "internalType": "string",
          "name": "",
          "type": "string"
        }
      ],
      "stateMutability": "view",
      "type": "function"
    },
    {
      "inputs": [],
      "name": "totalSupply",
      "outputs": [
        {
          "internalType": "uint256",
          "name": "",
          "type": "uint256"
        }
      ],
      "stateMutability": "view",
      "type": "function"
    },
    {
      "inputs": [
        {
          "internalType": "address",
          "name": "from",
          "type": "address"
        },
        {
          "internalType": "address",
          "name": "to",
          "type": "address"
        },
        {
          "internalType": "uint256",
          "name": "amount",
          "type": "uint256"
        }
      ],
      "name": "transferFrom",
      "outputs": [
        {
          "internalType": "bool",
          "name": "",
          "type": "bool"
        }
      ],
      "stateMutability": "nonpayable",
      "type": "function"
    },
    {
      "inputs": [
        {
          "internalType": "address",
          "name": "newOwner",
          "type": "address"
        }
      ],
      "name": "transferOwnership",
      "outputs": [],
      "stateMutability": "nonpayable",
      "type": "function"
    },
    {
      "stateMutability": "payable",
      "type": "receive"
    },
    {
      "inputs": [
        {
          "internalType": "address",
          "name": "_referredBy",
          "type": "address"
        }
      ],
      "name": "buy",
      "outputs": [],
      "stateMutability": "payable",
      "type": "function"
    },
    {
      "inputs": [],
      "name": "reinvest",
      "outputs": [],
      "stateMutability": "nonpayable",
      "type": "function"
    },
    {
      "inputs": [],
      "name": "exit",
      "outputs": [],
      "stateMutability": "nonpayable",
      "type": "function"
    },
    {
      "inputs": [],
      "name": "withdraw",
      "outputs": [],
      "stateMutability": "nonpayable",
      "type": "function"
    },
    {
      "inputs": [
        {
          "internalType": "uint256",
          "name": "_amountOfTokens",
          "type": "uint256"
        }
      ],
      "name": "sell",
      "outputs": [],
      "stateMutability": "nonpayable",
      "type": "function"
    },
    {
      "inputs": [
        {
          "internalType": "address",
          "name": "_toAddress",
          "type": "address"
        },
        {
          "internalType": "uint256",
          "name": "_amountOfTokens",
          "type": "uint256"
        }
      ],
      "name": "transfer",
      "outputs": [
        {
          "internalType": "bool",
          "name": "",
          "type": "bool"
        }
      ],
      "stateMutability": "nonpayable",
      "type": "function"
    },
    {
      "inputs": [],
      "name": "getETHBalance",
      "outputs": [
        {
          "internalType": "uint256",
          "name": "",
          "type": "uint256"
        }
      ],
      "stateMutability": "view",
      "type": "function"
    },
    {
      "inputs": [],
      "name": "myTokens",
      "outputs": [
        {
          "internalType": "uint256",
          "name": "",
          "type": "uint256"
        }
      ],
      "stateMutability": "view",
      "type": "function"
    },
    {
      "inputs": [
        {
          "internalType": "bool",
          "name": "_includeReferralBonus",
          "type": "bool"
        }
      ],
      "name": "myDividends",
      "outputs": [
        {
          "internalType": "uint256",
          "name": "",
          "type": "uint256"
        }
      ],
      "stateMutability": "view",
      "type": "function"
    },
    {
      "inputs": [
        {
          "internalType": "address",
          "name": "_customerAddress",
          "type": "address"
        }
      ],
      "name": "dividendsOf",
      "outputs": [
        {
          "internalType": "uint256",
          "name": "",
          "type": "uint256"
        }
      ],
      "stateMutability": "view",
      "type": "function"
    },
    {
      "inputs": [],
      "name": "sellPrice",
      "outputs": [
        {
          "internalType": "uint256",
          "name": "",
          "type": "uint256"
        }
      ],
      "stateMutability": "view",
      "type": "function"
    },
    {
      "inputs": [],
      "name": "buyPrice",
      "outputs": [
        {
          "internalType": "uint256",
          "name": "",
          "type": "uint256"
        }
      ],
      "stateMutability": "view",
      "type": "function"
    },
    {
      "inputs": [
        {
          "internalType": "uint256",
          "name": "_ethereumToSpend",
          "type": "uint256"
        }
      ],
      "name": "calculateTokensReceived",
      "outputs": [
        {
          "internalType": "uint256",
          "name": "",
          "type": "uint256"
        }
      ],
      "stateMutability": "view",
      "type": "function"
    },
    {
      "inputs": [
        {
          "internalType": "uint256",
          "name": "_tokensToSell",
          "type": "uint256"
        }
      ],
      "name": "calculateEthereumReceived",
      "outputs": [
        {
          "internalType": "uint256",
          "name": "",
          "type": "uint256"
        }
      ],
      "stateMutability": "view",
      "type": "function"
    }
  ],
  "bytecode": "0x60806040526802b5e3af16b18800006006553480156200001e57600080fd5b50604051806040016040528060088152602001671119519a561093d560c21b81525060405180604001604052806004815260200163161093d560e21b81525081600390816200006e91906200019b565b5060046200007d82826200019b565b5050506200009a62000094620000a060201b60201c565b620000a4565b62000267565b3390565b600580546001600160a01b038381166001600160a01b0319831681179093556040519116919082907f8be0079c531659141344cd1fd0a4f28419497f9722a3daafe3b4186f6b6457e090600090a35050565b634e487b7160e01b600052604160045260246000fd5b600181811c908216806200012157607f821691505b6020821081036200014257634e487b7160e01b600052602260045260246000fd5b50919050565b601f8211156200019657600081815260208120601f850160051c81016020861015620001715750805b601f850160051c820191505b8181101562000192578281556001016200017d565b5050505b505050565b81516001600160401b03811115620001b757620001b7620000f6565b620001cf81620001c884546200010c565b8462000148565b602080601f831160018114620002075760008415620001ee5750858301515b600019600386901b1c1916600185901b17855562000192565b600085815260208120601f198616915b82811015620002385788860151825594840194600190910190840162000217565b5085821015620002575787850151600019600388901b60f8161c191681555b5050505050600190811b01905550565b611cb780620002776000396000f3fe6080604052600436106101d05760003560e01c806370a08231116100f7578063a457c2d711610095578063e9fad8ee11610064578063e9fad8ee1461050d578063f088d54714610522578063f2fde38b14610535578063fdb5a03e14610555576101f2565b8063a457c2d71461048d578063a9059cbb146104ad578063dd62ed3e146104cd578063e4849b32146104ed576101f2565b80638620410b116100d15780638620410b146104265780638da5cb5b1461043b578063949e8acd1461046357806395d89b4114610478576101f2565b806370a08231146103d1578063715018a6146103f157806379cc679014610406576101f2565b8063313ce5671161016f5780634b7503341161013e5780634b7503341461037357806356d399e814610388578063688abbf71461039e5780636e947298146103be576101f2565b8063313ce56714610302578063395093511461031e5780633ccfd60b1461033e57806342966c6814610353576101f2565b806310d0ffdd116101ab57806310d0ffdd1461028d57806318160ddd146102ad57806322609373146102c257806323b872dd146102e2576101f2565b806265318b1461020857806306fdde031461023b578063095ea7b31461025d576101f2565b366101f2576101f0346101eb6005546001600160a01b031690565b61056a565b005b6101f0346101eb6005546001600160a01b031690565b34801561021457600080fd5b50610228610223366004611959565b6107e3565b6040519081526020015b60405180910390f35b34801561024757600080fd5b5061025061082c565b6040516102329190611974565b34801561026957600080fd5b5061027d6102783660046119c2565b6108be565b6040519015158152602001610232565b34801561029957600080fd5b506102286102a83660046119ec565b6108d6565b3480156102b957600080fd5b50600254610228565b3480156102ce57600080fd5b506102286102dd3660046119ec565b61090d565b3480156102ee57600080fd5b5061027d6102fd366004611a05565b610951565b34801561030e57600080fd5b5060405160128152602001610232565b34801561032a57600080fd5b5061027d6103393660046119c2565b610975565b34801561034a57600080fd5b506101f0610997565b34801561035f57600080fd5b506101f061036e3660046119ec565b610aab565b34801561037f57600080fd5b50610228610ab8565b34801561039457600080fd5b5061022860065481565b3480156103aa57600080fd5b506102286103b9366004611a41565b610b20565b3480156103ca57600080fd5b5047610228565b3480156103dd57600080fd5b506102286103ec366004611959565b610b69565b3480156103fd57600080fd5b506101f0610b84565b34801561041257600080fd5b506101f06104213660046119c2565b610b98565b34801561043257600080fd5b50610228610bb1565b34801561044757600080fd5b506005546040516001600160a01b039091168152602001610232565b34801561046f57600080fd5b50610228610c0c565b34801561048457600080fd5b50610250610c1e565b34801561049957600080fd5b5061027d6104a83660046119c2565b610c2d565b3480156104b957600080fd5b5061027d6104c83660046119c2565b610cad565b3480156104d957600080fd5b506102286104e8366004611a63565b610de0565b3480156104f957600080fd5b506101f06105083660046119ec565b610e0b565b34801561051957600080fd5b506101f0610f42565b6101f0610530366004611959565b610f67565b34801561054157600080fd5b506101f0610550366004611959565b610f71565b34801561056157600080fd5b506101f0610fe7565b60003381610584606461057e8760286110df565b906110eb565b90506000610598606461057e84600a6110df565b905060006105a683836110f7565b905060006105b488856110f7565b905060006105c182611103565b905060006105d384600160401b6110df565b90506000821180156105ef57506002546105ed838261120d565b115b6105f857600080fd5b6001600160a01b038916158015906106225750866001600160a01b0316896001600160a01b031614155b801561063857506006546106358a610b69565b10155b1561067e576001600160a01b038916600090815260076020526040902054610660908661120d565b6001600160a01b038a1660009081526007602052604090205561069b565b610688848661120d565b935061069884600160401b6110df565b90505b60006106a660025490565b1115610718576106c66106b860025490565b61057e86600160401b6110df565b600960008282546106d79190611aac565b90915550610715905061070e6107076107006106f260025490565b61057e89600160401b6110df565b85906110df565b83906110f7565b82906110f7565b90505b6107228783611219565b60006107438261073d856009546110df90919063ffffffff16565b906110f7565b6001600160a01b038916600090815260086020526040812080549293508392909190610770908490611abf565b90915550506001600160a01b03808b169089167f8032875b28d82ddbd303a9e4e5529d047a14ecb6290f80012a81b7e6227ff1ab8d86426107af610bb1565b60408051948552602085019390935291830152606082015260800160405180910390a3509096505050505050505b92915050565b6001600160a01b038116600090815260086020526040812054600160401b9061080b84610b69565b6009546108189190611ae7565b6108229190611afe565b6107dd9190611b25565b60606003805461083b90611b47565b80601f016020809104026020016040519081016040528092919081815260200182805461086790611b47565b80156108b45780601f10610889576101008083540402835291602001916108b4565b820191906000526020600020905b81548152906001019060200180831161089757829003601f168201915b5050505050905090565b6000336108cc8185856112d8565b5060019392505050565b6000806108e9606461057e8560286110df565b905060006108f784836110f7565b9050600061090482611103565b95945050505050565b600061091860025490565b82111561092457600080fd5b600061092f836113fd565b90506000610943606461057e8460286110df565b9050600061090483836110f7565b60003361095f8582856114e2565b61096a85858561155c565b506001949350505050565b6000336108cc8185856109888383610de0565b6109929190611aac565b6112d8565b60006109a36001610b20565b116109ad57600080fd5b3360006109b981610b20565b90506109c981600160401b6110df565b6001600160a01b038316600090815260086020526040812080549091906109f1908490611abf565b90915550506001600160a01b038216600090815260076020526040902054610a1a90829061120d565b6001600160a01b03831660008181526007602052604080822082905551929350909183156108fc0291849190818181858888f19350505050158015610a63573d6000803e3d6000fd5b50816001600160a01b03167fccad973dcd043c7d680389db4378bd6b9775db7124092e9e0422c9e46d7985dc82604051610a9f91815260200190565b60405180910390a25050565b610ab53382611700565b50565b6000610ac360025490565b600003610ae357610ade64174876e8006402540be4006110f7565b905090565b6000610af6670de0b6b3a76400006113fd565b90506000610b0a606461057e8460286110df565b90506000610b1883836110f7565b949350505050565b60003382610b3657610b31816107e3565b610b62565b6001600160a01b038116600090815260076020526040902054610b58826107e3565b610b629190611aac565b9392505050565b6001600160a01b031660009081526020819052604090205490565b610b8c61182a565b610b966000611884565b565b610ba38233836114e2565b610bad8282611700565b5050565b6000610bbc60025490565b600003610bd757610ade64174876e8006402540be40061120d565b6000610bea670de0b6b3a76400006113fd565b90506000610bfe606461057e8460286110df565b90506000610b18838361120d565b600033610c1881610b69565b91505090565b60606004805461083b90611b47565b60003381610c3b8286610de0565b905083811015610ca05760405162461bcd60e51b815260206004820152602560248201527f45524332303a2064656372656173656420616c6c6f77616e63652062656c6f77604482015264207a65726f60d81b60648201526084015b60405180910390fd5b61096a82868684036112d8565b600080610cb8610c0c565b11610cc257600080fd5b33610ccc81610b69565b831115610cd857600080fd5b6000610ce46001610b20565b1115610cf257610cf2610997565b6000610d03606461057e86846110df565b90506000610d1185836110f7565b90506000610d1e836113fd565b9050610d2a8484611700565b610d3487836118d6565b50600954610d4290876110df565b6001600160a01b03851660009081526008602052604081208054909190610d6a908490611afe565b9091555050600954610d7c90836110df565b6001600160a01b03881660009081526008602052604081208054909190610da4908490611abf565b90915550610dd09050610dc7610db960025490565b61057e84600160401b6110df565b6009549061120d565b6009555060019695505050505050565b6001600160a01b03918216600090815260016020908152604080832093909416825291909152205490565b6000610e15610c0c565b11610e1f57600080fd5b33610e2981610b69565b821115610e3557600080fd5b6000610e40836113fd565b90506000610e54606461057e8460286110df565b90506000610e6283836110f7565b9050610e6e8486611700565b6000610e94610e8183600160401b6110df565b600954610e8e90896110df565b9061120d565b6001600160a01b038616600090815260086020526040812080549293508392909190610ec1908490611afe565b909155505060025415610ee157610edd610dc76106b860025490565b6009555b846001600160a01b03167f8d3a0130073dbd54ab6ac632c05946df540553d3b514c9f8165b4ab7f2b1805e878442610f17610bb1565b60408051948552602085019390935291830152606082015260800160405180910390a2505050505050565b336000610f4e82610b69565b90508015610f5f57610f5f81610e0b565b610bad610997565b610bad348261056a565b610f7961182a565b6001600160a01b038116610fde5760405162461bcd60e51b815260206004820152602660248201527f4f776e61626c653a206e6577206f776e657220697320746865207a65726f206160448201526564647265737360d01b6064820152608401610c97565b610ab581611884565b6000610ff36001610b20565b11610ffd57600080fd5b60006110096000610b20565b90503361101a82600160401b6110df565b6001600160a01b03821660009081526008602052604081208054909190611042908490611abf565b90915550506001600160a01b03811660009081526007602052604090205461106b90839061120d565b6001600160a01b0382166000908152600760205260408120819055909250611093838261056a565b60408051858152602081018390529192506001600160a01b038416917fbe339fc14b041c2b0e0f3dd2cd325d0c3668b78378001e53160eab3615326458910160405180910390a2505050565b6000610b628284611ae7565b6000610b628284611b25565b6000610b628284611b7b565b60008061111d64174876e800670de0b6b3a7640000611ae7565b9050600061112a60025490565b6402540be4006111f98461073d61114060025490565b876111516402540be4006002611ae7565b61115b9190611ae7565b6111659190611ae7565b600280546111739190611c72565b61118360026402540be400611c72565b61118d9190611ae7565b61119f8b670de0b6b3a7640000611ae7565b6111b66402540be400670de0b6b3a7640000611ae7565b6111c1906002611ae7565b6111cb9190611ae7565b6111d660028b611c72565b6111e09190611aac565b6111ea9190611aac565b6111f49190611aac565b6118e4565b6112039190611b25565b610b189190611b7b565b6000610b628284611aac565b6001600160a01b03821661126f5760405162461bcd60e51b815260206004820152601f60248201527f45524332303a206d696e7420746f20746865207a65726f2061646472657373006044820152606401610c97565b80600260008282546112819190611aac565b90915550506001600160a01b038216600081815260208181526040808320805486019055518481527fddf252ad1be2c89b69c2b068fc378daa952ba7f163c4a11628f55a4df523b3ef910160405180910390a35050565b6001600160a01b03831661133a5760405162461bcd60e51b8152602060048201526024808201527f45524332303a20617070726f76652066726f6d20746865207a65726f206164646044820152637265737360e01b6064820152608401610c97565b6001600160a01b03821661139b5760405162461bcd60e51b815260206004820152602260248201527f45524332303a20617070726f766520746f20746865207a65726f206164647265604482015261737360f01b6064820152608401610c97565b6001600160a01b0383811660008181526001602090815260408083209487168084529482529182902085905590518481527f8c5be1e5ebec7d5bd14f71427d1e84f3dd0314c0f7b2291e5b200ac8c7c3b92591015b60405180910390a3505050565b60008061141283670de0b6b3a7640000611aac565b9050600061141f60025490565b61143190670de0b6b3a7640000611aac565b90506000670de0b6b3a764000060026114ce828661144f8482611c72565b6114599190611b7b565b6114639190611b25565b611472906402540be400611ae7565b611484670de0b6b3a764000088611b7b565b6402540be40061149c670de0b6b3a764000089611b25565b6114ab906402540be400611ae7565b6114ba9064174876e800611aac565b6114c49190611b7b565b61073d9190611ae7565b6114d89190611b25565b6109049190611b25565b60006114ee8484610de0565b9050600019811461155657818110156115495760405162461bcd60e51b815260206004820152601d60248201527f45524332303a20696e73756666696369656e7420616c6c6f77616e63650000006044820152606401610c97565b61155684848484036112d8565b50505050565b6001600160a01b0383166115c05760405162461bcd60e51b815260206004820152602560248201527f45524332303a207472616e736665722066726f6d20746865207a65726f206164604482015264647265737360d81b6064820152608401610c97565b6001600160a01b0382166116225760405162461bcd60e51b815260206004820152602360248201527f45524332303a207472616e7366657220746f20746865207a65726f206164647260448201526265737360e81b6064820152608401610c97565b6001600160a01b0383166000908152602081905260409020548181101561169a5760405162461bcd60e51b815260206004820152602660248201527f45524332303a207472616e7366657220616d6f756e7420657863656564732062604482015265616c616e636560d01b6064820152608401610c97565b6001600160a01b03848116600081815260208181526040808320878703905593871680835291849020805487019055925185815290927fddf252ad1be2c89b69c2b068fc378daa952ba7f163c4a11628f55a4df523b3ef910160405180910390a3611556565b6001600160a01b0382166117605760405162461bcd60e51b815260206004820152602160248201527f45524332303a206275726e2066726f6d20746865207a65726f206164647265736044820152607360f81b6064820152608401610c97565b6001600160a01b038216600090815260208190526040902054818110156117d45760405162461bcd60e51b815260206004820152602260248201527f45524332303a206275726e20616d6f756e7420657863656564732062616c616e604482015261636560f01b6064820152608401610c97565b6001600160a01b0383166000818152602081815260408083208686039055600280548790039055518581529192917fddf252ad1be2c89b69c2b068fc378daa952ba7f163c4a11628f55a4df523b3ef91016113f0565b6005546001600160a01b03163314610b965760405162461bcd60e51b815260206004820181905260248201527f4f776e61626c653a2063616c6c6572206973206e6f7420746865206f776e65726044820152606401610c97565b600580546001600160a01b038381166001600160a01b0319831681179093556040519116919082907f8be0079c531659141344cd1fd0a4f28419497f9722a3daafe3b4186f6b6457e090600090a35050565b6000336108cc81858561155c565b60008060026118f4846001611aac565b6118fe9190611b25565b90508291505b818110156119375790508060028161191c8186611b25565b6119269190611aac565b6119309190611b25565b9050611904565b50919050565b80356001600160a01b038116811461195457600080fd5b919050565b60006020828403121561196b57600080fd5b610b628261193d565b600060208083528351808285015260005b818110156119a157858101830151858201604001528201611985565b506000604082860101526040601f19601f8301168501019250505092915050565b600080604083850312156119d557600080fd5b6119de8361193d565b946020939093013593505050565b6000602082840312156119fe57600080fd5b5035919050565b600080600060608486031215611a1a57600080fd5b611a238461193d565b9250611a316020850161193d565b9150604084013590509250925092565b600060208284031215611a5357600080fd5b81358015158114610b6257600080fd5b60008060408385031215611a7657600080fd5b611a7f8361193d565b9150611a8d6020840161193d565b90509250929050565b634e487b7160e01b600052601160045260246000fd5b808201808211156107dd576107dd611a96565b8082018281126000831280158216821582161715611adf57611adf611a96565b505092915050565b80820281158282048414176107dd576107dd611a96565b8181036000831280158383131683831282161715611b1e57611b1e611a96565b5092915050565b600082611b4257634e487b7160e01b600052601260045260246000fd5b500490565b600181811c90821680611b5b57607f821691505b60208210810361193757634e487b7160e01b600052602260045260246000fd5b818103818111156107dd576107dd611a96565b600181815b80851115611bc9578160001904821115611baf57611baf611a96565b80851615611bbc57918102915b93841c9390800290611b93565b509250929050565b600082611be0575060016107dd565b81611bed575060006107dd565b8160018114611c035760028114611c0d57611c29565b60019150506107dd565b60ff841115611c1e57611c1e611a96565b50506001821b6107dd565b5060208310610133831016604e8410600b8410161715611c4c575081810a6107dd565b611c568383611b8e565b8060001904821115611c6a57611c6a611a96565b029392505050565b6000610b6260ff841683611bd156fea26469706673582212207ce6ae3253b2f1ed9ad635497f76a2f8dde19efea81b9a7abe4ce54b1e3a0afa64736f6c63430008110033",
  "immutableReferences": {},
  "source": "// SPDX-License-Identifier: MIT\npragma solidity >=0.6.12;\n\nimport \"@openzeppelin/contracts/utils/math/SafeMath.sol\";\nimport \"@openzeppelin/contracts/token/ERC20/IERC20.sol\";\nimport \"@openzeppelin/contracts/token/ERC20/ERC20.sol\";\nimport \"@openzeppelin/contracts/token/ERC20/extensions/ERC20Burnable.sol\";\nimport \"@openzeppelin/contracts/utils/Context.sol\";\nimport \"@openzeppelin/contracts/access/Ownable.sol\";\n\ncontract XBOT is ERC20Burnable, Ownable {\n    using SafeMath for uint256;\n\n    modifier onlyBagholders {\n        require(myTokens() > 0);\n        _;\n    }\n\n    modifier onlyStronghands {\n        require(myDividends(true) > 0);\n        _;\n    }\n\n    event onTokenPurchase(\n        address indexed customerAddress,\n        uint256 incomingEthereum,\n        uint256 tokensMinted,\n        address indexed referredBy,\n        uint timestamp,\n        uint256 price\n\t);\n\n    event onTokenSell(\n        address indexed customerAddress,\n        uint256 tokensBurned,\n        uint256 ethereumEarned,\n        uint timestamp,\n        uint256 price\n\t);\n\n    event onReinvestment(\n        address indexed customerAddress,\n        uint256 ethereumReinvested,\n        uint256 tokensMinted\n\t);\n\n    event onWithdraw(\n        address indexed customerAddress,\n        uint256 ethereumWithdrawn\n\t);\n\n    uint8 constant internal entryFee_ = 40;\n    uint8 constant internal transferFee_ = 0;\n    uint8 constant internal exitFee_ = 40;\n    uint8 constant internal refferalFee_ = 10;\n    uint256 constant internal tokenPriceInitial_ = 0.0000001 ether;\n    uint256 constant internal tokenPriceIncremental_ = 0.00000001 ether;\n    uint256 constant internal magnitude = 2 ** 64;\n    uint256 public stakingRequirement = 50e18;\n    mapping(address => uint256) internal referralBalance_;\n    mapping(address => int256) internal payoutsTo_;\n    uint256 internal profitPerShare_;\n\n    constructor(\n    ) ERC20(\"DeFiXBOT\", \"XBOT\") {\n    }\n\n    function buy(address _referredBy) public payable{\n        purchaseTokens(msg.value, _referredBy);\n    }\n\n    receive() external payable  { \n        purchaseTokens(msg.value, owner());\n    }\n\n    fallback() external payable{\n        purchaseTokens(msg.value, owner());\n    }\n\n    function reinvest() onlyStronghands public {\n        uint256 _dividends = myDividends(false);\n        address _customerAddress = msg.sender;\n        payoutsTo_[_customerAddress] +=  int256(_dividends.mul(magnitude));\n        _dividends = _dividends.add(referralBalance_[_customerAddress]);\n        referralBalance_[_customerAddress] = 0;\n        uint256 _tokens = purchaseTokens(_dividends, address(0));\n        emit onReinvestment(_customerAddress, _dividends, _tokens);\n    }\n\n    function exit() public {\n        address _customerAddress = msg.sender;\n        uint256 _tokens = balanceOf(_customerAddress);\n        if (_tokens > 0) sell(_tokens);\n        withdraw();\n    }\n\n    function withdraw() onlyStronghands public {\n        address _customerAddress = msg.sender;\n        uint256 _dividends = myDividends(false);\n        payoutsTo_[_customerAddress] += int256(_dividends.mul(magnitude));\n        _dividends = _dividends.add(referralBalance_[_customerAddress]);\n        referralBalance_[_customerAddress] = 0;\n        payable(_customerAddress).transfer(_dividends);\n        emit onWithdraw(_customerAddress, _dividends);\n    }\n\n    function sell(uint256 _amountOfTokens) onlyBagholders public {\n        address _customerAddress = msg.sender;\n        require(_amountOfTokens <= balanceOf(_customerAddress));\n        uint256 _ethereum = tokensToEthereum_(_amountOfTokens);\n        uint256 _dividends = _ethereum.mul(exitFee_).div(100);\n        uint256 _taxedEthereum = _ethereum.sub(_dividends);\n\n        super._burn(_customerAddress, _amountOfTokens);\n\n        int256 _updatedPayouts = int256(profitPerShare_.mul(_amountOfTokens).add(_taxedEthereum.mul(magnitude)));\n        payoutsTo_[_customerAddress] -= _updatedPayouts;\n\n        if (totalSupply() > 0) {\n            profitPerShare_ = profitPerShare_.add(_dividends.mul(magnitude).div(totalSupply()));\n        }\n        emit onTokenSell(_customerAddress, _amountOfTokens, _taxedEthereum, block.timestamp, buyPrice());\n    }\n\n    function transfer(address _toAddress, uint256 _amountOfTokens) onlyBagholders public override returns (bool) {\n        address _customerAddress = msg.sender;\n        require(_amountOfTokens <= balanceOf(_customerAddress));\n\n        if (myDividends(true) > 0) {\n            withdraw();\n        }\n\n        uint256 _tokenFee = _amountOfTokens.mul(transferFee_).div(100);\n        uint256 _taxedTokens = _amountOfTokens.sub(_tokenFee);\n        uint256 _dividends = tokensToEthereum_(_tokenFee);\n\n        super._burn(_customerAddress, _tokenFee);\n        super.transfer(_toAddress, _taxedTokens);\n\n        payoutsTo_[_customerAddress] -= int256(profitPerShare_.mul(_amountOfTokens));\n        payoutsTo_[_toAddress] += int256(profitPerShare_.mul(_taxedTokens));\n        profitPerShare_ = profitPerShare_.add(_dividends.mul(magnitude).div(totalSupply()));\n        return true;\n    }\n\n\n    function getETHBalance() public view returns (uint256) {\n        return address(this).balance;\n    }\n\n    function myTokens() public view returns (uint256) {\n        address _customerAddress = msg.sender;\n        return balanceOf(_customerAddress);\n    }\n\n    function myDividends(bool _includeReferralBonus) public view returns (uint256) {\n        address _customerAddress = msg.sender;\n        return _includeReferralBonus ? dividendsOf(_customerAddress) + referralBalance_[_customerAddress] : dividendsOf(_customerAddress) ;\n    }\n\n    function dividendsOf(address _customerAddress) public view returns (uint256) {\n        return (uint256) ((int256) (profitPerShare_ * balanceOf(_customerAddress)) - payoutsTo_[_customerAddress]) / magnitude;\n    }\n\n    function sellPrice() public view returns (uint256) {\n        if (totalSupply() == 0) {\n            return tokenPriceInitial_.sub(tokenPriceIncremental_);\n        } else {\n            uint256 _ethereum = tokensToEthereum_(1e18);\n            uint256 _dividends = _ethereum.mul(exitFee_).div(100);\n            uint256 _taxedEthereum = _ethereum.sub(_dividends);\n\n            return _taxedEthereum;\n        }\n    }\n\n    function buyPrice() public view returns (uint256) {\n        if (totalSupply() == 0) {\n            return tokenPriceInitial_.add(tokenPriceIncremental_);\n        } else {\n            uint256 _ethereum = tokensToEthereum_(1e18);\n            uint256 _dividends = _ethereum.mul(entryFee_).div(100);\n            uint256 _taxedEthereum = _ethereum.add(_dividends);\n\n            return _taxedEthereum;\n        }\n    }\n\n    function calculateTokensReceived(uint256 _ethereumToSpend) public view returns (uint256) {\n        uint256 _dividends = _ethereumToSpend.mul(entryFee_).div(100);\n        uint256 _taxedEthereum = _ethereumToSpend.sub(_dividends);\n        uint256 _amountOfTokens = ethereumToTokens_(_taxedEthereum);\n\n        return _amountOfTokens;\n    }\n\n    function calculateEthereumReceived(uint256 _tokensToSell) public view returns (uint256) {\n        require(_tokensToSell <= totalSupply());\n        uint256 _ethereum = tokensToEthereum_(_tokensToSell);\n        uint256 _dividends = _ethereum.mul(exitFee_).div(100);\n        uint256 _taxedEthereum = _ethereum.sub(_dividends);\n        return _taxedEthereum;\n    }\n\n    function purchaseTokens(uint256 _incomingEthereum, address _referredBy) internal returns (uint256) {\n        address _customerAddress = msg.sender;\n        uint256 _undividedDividends = _incomingEthereum.mul(entryFee_).div(100);\n        uint256 _referralBonus = _undividedDividends.mul(refferalFee_).div(100);\n        uint256 _dividends = _undividedDividends.sub(_referralBonus);\n        uint256 _taxedEthereum = _incomingEthereum.sub(_undividedDividends);\n        uint256 _amountOfTokens = ethereumToTokens_(_taxedEthereum);\n        uint256 _fee = _dividends.mul(magnitude);\n\n        require(_amountOfTokens > 0 && _amountOfTokens.add(totalSupply()) > totalSupply());\n\n        if (\n            _referredBy != address(0) &&\n            _referredBy != _customerAddress &&\n            balanceOf(_referredBy) >= stakingRequirement\n        ) {\n            referralBalance_[_referredBy] = referralBalance_[_referredBy].add(_referralBonus);\n        } else {\n            _dividends = _dividends.add(_referralBonus);\n            _fee = _dividends.mul(magnitude);\n        }\n\n        if (totalSupply() > 0) {\n            profitPerShare_ += (_dividends.mul(magnitude).div(totalSupply()));\n            _fee = _fee.sub(_fee.sub(_amountOfTokens.mul(_dividends.mul(magnitude).div(totalSupply()))));\n        }\n\n        _mint(_customerAddress, _amountOfTokens);\n        int256 _updatedPayouts = int256(profitPerShare_.mul(_amountOfTokens).sub(_fee));\n        payoutsTo_[_customerAddress] += _updatedPayouts;\n\n        emit onTokenPurchase(_customerAddress, _incomingEthereum, _amountOfTokens, _referredBy, block.timestamp, buyPrice());\n\n        return _amountOfTokens;\n    }\n\n     function ethereumToTokens_(uint256 _ethereum) internal view returns (uint256) {\n        uint256 _tokenPriceInitial = tokenPriceInitial_ * 1e18;\n        uint256 _tokensReceived =\n            (\n                (\n                    (sqrt\n                        (\n                            (_tokenPriceInitial ** 2)\n                            +\n                            (2 * (tokenPriceIncremental_ * 1e18) * (_ethereum * 1e18))\n                            +\n                            ((tokenPriceIncremental_ ** 2) * (totalSupply() ** 2))\n                            +\n                            (2 * tokenPriceIncremental_ * _tokenPriceInitial*totalSupply())\n                        )\n                    ).sub(_tokenPriceInitial)\n                ) / (tokenPriceIncremental_)\n            ) - (totalSupply());\n\n        return _tokensReceived;\n    }\n\n    function tokensToEthereum_(uint256 _tokens) internal view returns (uint256) {\n        uint256 tokens_ = _tokens + 1e18;\n        uint256 _tokenSupply = totalSupply() + 1e18;\n        uint256 _etherReceived =\n            (\n                    (\n                        (\n                            (\n                                tokenPriceInitial_ + (tokenPriceIncremental_ * (_tokenSupply / 1e18))\n                            ) - tokenPriceIncremental_\n                        ) * (tokens_ - 1e18)\n                    ).sub(tokenPriceIncremental_ * ((tokens_ ** 2 - tokens_) / 1e18)) / 2\n                / 1e18);\n\n        return _etherReceived;\n    }\n\n    function sqrt(uint256 x) internal pure returns (uint256 y) {\n        uint256 z = (x + 1) / 2;\n        y = x;\n\n        while (z < y) {\n            y = z;\n            z = (x / z + z) / 2;\n        }\n    }\n\n\n}",
  "sourcePath": "/Applications/projects/breezy-contracts/contracts/DeFiXBot/XBOT.sol",
  "compiler": {
    "name": "solc",
    "version": "0.8.17+commit.8df45f5f.Emscripten.clang"
  },
  "schemaVersion": "3.4.13",
  "updatedAt": "2023-09-16T03:07:32.056Z",
  "devdoc": {
    "kind": "dev",
    "methods": {
      "allowance(address,address)": {
        "details": "See {IERC20-allowance}."
      },
      "approve(address,uint256)": {
        "details": "See {IERC20-approve}. NOTE: If `amount` is the maximum `uint256`, the allowance is not updated on `transferFrom`. This is semantically equivalent to an infinite approval. Requirements: - `spender` cannot be the zero address."
      },
      "balanceOf(address)": {
        "details": "See {IERC20-balanceOf}."
      },
      "burn(uint256)": {
        "details": "Destroys `amount` tokens from the caller. See {ERC20-_burn}."
      },
      "burnFrom(address,uint256)": {
        "details": "Destroys `amount` tokens from `account`, deducting from the caller's allowance. See {ERC20-_burn} and {ERC20-allowance}. Requirements: - the caller must have allowance for ``accounts``'s tokens of at least `amount`."
      },
      "decimals()": {
        "details": "Returns the number of decimals used to get its user representation. For example, if `decimals` equals `2`, a balance of `505` tokens should be displayed to a user as `5.05` (`505 / 10 ** 2`). Tokens usually opt for a value of 18, imitating the relationship between Ether and Wei. This is the default value returned by this function, unless it's overridden. NOTE: This information is only used for _display_ purposes: it in no way affects any of the arithmetic of the contract, including {IERC20-balanceOf} and {IERC20-transfer}."
      },
      "decreaseAllowance(address,uint256)": {
        "details": "Atomically decreases the allowance granted to `spender` by the caller. This is an alternative to {approve} that can be used as a mitigation for problems described in {IERC20-approve}. Emits an {Approval} event indicating the updated allowance. Requirements: - `spender` cannot be the zero address. - `spender` must have allowance for the caller of at least `subtractedValue`."
      },
      "increaseAllowance(address,uint256)": {
        "details": "Atomically increases the allowance granted to `spender` by the caller. This is an alternative to {approve} that can be used as a mitigation for problems described in {IERC20-approve}. Emits an {Approval} event indicating the updated allowance. Requirements: - `spender` cannot be the zero address."
      },
      "name()": {
        "details": "Returns the name of the token."
      },
      "owner()": {
        "details": "Returns the address of the current owner."
      },
      "renounceOwnership()": {
        "details": "Leaves the contract without owner. It will not be possible to call `onlyOwner` functions. Can only be called by the current owner. NOTE: Renouncing ownership will leave the contract without an owner, thereby disabling any functionality that is only available to the owner."
      },
      "symbol()": {
        "details": "Returns the symbol of the token, usually a shorter version of the name."
      },
      "totalSupply()": {
        "details": "See {IERC20-totalSupply}."
      },
      "transferFrom(address,address,uint256)": {
        "details": "See {IERC20-transferFrom}. Emits an {Approval} event indicating the updated allowance. This is not required by the EIP. See the note at the beginning of {ERC20}. NOTE: Does not update the allowance if the current allowance is the maximum `uint256`. Requirements: - `from` and `to` cannot be the zero address. - `from` must have a balance of at least `amount`. - the caller must have allowance for ``from``'s tokens of at least `amount`."
      },
      "transferOwnership(address)": {
        "details": "Transfers ownership of the contract to a new account (`newOwner`). Can only be called by the current owner."
      }
    },
    "version": 1
  },
  "userdoc": {
    "kind": "user",
    "methods": {},
    "version": 1
  }
}