{
  "contractName": "XBOT",
  "abi": [
    {
      "inputs": [],
      "stateMutability": "nonpayable",
      "type": "constructor"
    },
    {
      "anonymous": false,
      "inputs": [
        {
          "indexed": true,
          "internalType": "address",
          "name": "owner",
          "type": "address"
        },
        {
          "indexed": true,
          "internalType": "address",
          "name": "spender",
          "type": "address"
        },
        {
          "indexed": false,
          "internalType": "uint256",
          "name": "value",
          "type": "uint256"
        }
      ],
      "name": "Approval",
      "type": "event"
    },
    {
      "anonymous": false,
      "inputs": [
        {
          "indexed": true,
          "internalType": "address",
          "name": "previousOwner",
          "type": "address"
        },
        {
          "indexed": true,
          "internalType": "address",
          "name": "newOwner",
          "type": "address"
        }
      ],
      "name": "OwnershipTransferred",
      "type": "event"
    },
    {
      "anonymous": false,
      "inputs": [
        {
          "indexed": true,
          "internalType": "address",
          "name": "sender",
          "type": "address"
        },
        {
          "indexed": false,
          "internalType": "uint256",
          "name": "amount0In",
          "type": "uint256"
        },
        {
          "indexed": false,
          "internalType": "uint256",
          "name": "amount1In",
          "type": "uint256"
        },
        {
          "indexed": false,
          "internalType": "uint256",
          "name": "amount0Out",
          "type": "uint256"
        },
        {
          "indexed": false,
          "internalType": "uint256",
          "name": "amount1Out",
          "type": "uint256"
        },
        {
          "indexed": true,
          "internalType": "address",
          "name": "to",
          "type": "address"
        }
      ],
      "name": "Swap",
      "type": "event"
    },
    {
      "anonymous": false,
      "inputs": [
        {
          "indexed": true,
          "internalType": "address",
          "name": "from",
          "type": "address"
        },
        {
          "indexed": true,
          "internalType": "address",
          "name": "to",
          "type": "address"
        },
        {
          "indexed": false,
          "internalType": "uint256",
          "name": "value",
          "type": "uint256"
        }
      ],
      "name": "Transfer",
      "type": "event"
    },
    {
      "anonymous": false,
      "inputs": [
        {
          "indexed": true,
          "internalType": "address",
          "name": "customerAddress",
          "type": "address"
        },
        {
          "indexed": false,
          "internalType": "uint256",
          "name": "ethereumReinvested",
          "type": "uint256"
        },
        {
          "indexed": false,
          "internalType": "uint256",
          "name": "tokensMinted",
          "type": "uint256"
        }
      ],
      "name": "onReinvestment",
      "type": "event"
    },
    {
      "anonymous": false,
      "inputs": [
        {
          "indexed": false,
          "internalType": "address",
          "name": "_addressContract",
          "type": "address"
        },
        {
          "indexed": false,
          "internalType": "bool",
          "name": "_status",
          "type": "bool"
        }
      ],
      "name": "onSetContractAllowanded",
      "type": "event"
    },
    {
      "anonymous": false,
      "inputs": [
        {
          "indexed": true,
          "internalType": "address",
          "name": "customerAddress",
          "type": "address"
        },
        {
          "indexed": false,
          "internalType": "uint256",
          "name": "ethereumWithdrawn",
          "type": "uint256"
        }
      ],
      "name": "onWithdraw",
      "type": "event"
    },
    {
      "stateMutability": "payable",
      "type": "fallback",
      "payable": true
    },
    {
      "inputs": [],
      "name": "XBOTTreasury",
      "outputs": [
        {
          "internalType": "address",
          "name": "",
          "type": "address"
        }
      ],
      "stateMutability": "view",
      "type": "function",
      "constant": true
    },
    {
      "inputs": [
        {
          "internalType": "address",
          "name": "owner",
          "type": "address"
        },
        {
          "internalType": "address",
          "name": "spender",
          "type": "address"
        }
      ],
      "name": "allowance",
      "outputs": [
        {
          "internalType": "uint256",
          "name": "",
          "type": "uint256"
        }
      ],
      "stateMutability": "view",
      "type": "function",
      "constant": true
    },
    {
      "inputs": [
        {
          "internalType": "address",
          "name": "spender",
          "type": "address"
        },
        {
          "internalType": "uint256",
          "name": "amount",
          "type": "uint256"
        }
      ],
      "name": "approve",
      "outputs": [
        {
          "internalType": "bool",
          "name": "",
          "type": "bool"
        }
      ],
      "stateMutability": "nonpayable",
      "type": "function"
    },
    {
      "inputs": [
        {
          "internalType": "address",
          "name": "account",
          "type": "address"
        }
      ],
      "name": "balanceOf",
      "outputs": [
        {
          "internalType": "uint256",
          "name": "",
          "type": "uint256"
        }
      ],
      "stateMutability": "view",
      "type": "function",
      "constant": true
    },
    {
      "inputs": [
        {
          "internalType": "uint256",
          "name": "amount",
          "type": "uint256"
        }
      ],
      "name": "burn",
      "outputs": [],
      "stateMutability": "nonpayable",
      "type": "function"
    },
    {
      "inputs": [
        {
          "internalType": "address",
          "name": "account",
          "type": "address"
        },
        {
          "internalType": "uint256",
          "name": "amount",
          "type": "uint256"
        }
      ],
      "name": "burnFrom",
      "outputs": [],
      "stateMutability": "nonpayable",
      "type": "function"
    },
    {
      "inputs": [
        {
          "internalType": "address",
          "name": "",
          "type": "address"
        }
      ],
      "name": "contractAllowanded",
      "outputs": [
        {
          "internalType": "bool",
          "name": "",
          "type": "bool"
        }
      ],
      "stateMutability": "view",
      "type": "function",
      "constant": true
    },
    {
      "inputs": [],
      "name": "decimals",
      "outputs": [
        {
          "internalType": "uint8",
          "name": "",
          "type": "uint8"
        }
      ],
      "stateMutability": "view",
      "type": "function",
      "constant": true
    },
    {
      "inputs": [
        {
          "internalType": "address",
          "name": "spender",
          "type": "address"
        },
        {
          "internalType": "uint256",
          "name": "subtractedValue",
          "type": "uint256"
        }
      ],
      "name": "decreaseAllowance",
      "outputs": [
        {
          "internalType": "bool",
          "name": "",
          "type": "bool"
        }
      ],
      "stateMutability": "nonpayable",
      "type": "function"
    },
    {
      "inputs": [],
      "name": "entryFee_",
      "outputs": [
        {
          "internalType": "uint8",
          "name": "",
          "type": "uint8"
        }
      ],
      "stateMutability": "view",
      "type": "function",
      "constant": true
    },
    {
      "inputs": [],
      "name": "exitFee_",
      "outputs": [
        {
          "internalType": "uint8",
          "name": "",
          "type": "uint8"
        }
      ],
      "stateMutability": "view",
      "type": "function",
      "constant": true
    },
    {
      "inputs": [
        {
          "internalType": "address",
          "name": "spender",
          "type": "address"
        },
        {
          "internalType": "uint256",
          "name": "addedValue",
          "type": "uint256"
        }
      ],
      "name": "increaseAllowance",
      "outputs": [
        {
          "internalType": "bool",
          "name": "",
          "type": "bool"
        }
      ],
      "stateMutability": "nonpayable",
      "type": "function"
    },
    {
      "inputs": [],
      "name": "magnitude",
      "outputs": [
        {
          "internalType": "uint256",
          "name": "",
          "type": "uint256"
        }
      ],
      "stateMutability": "view",
      "type": "function",
      "constant": true
    },
    {
      "inputs": [],
      "name": "name",
      "outputs": [
        {
          "internalType": "string",
          "name": "",
          "type": "string"
        }
      ],
      "stateMutability": "view",
      "type": "function",
      "constant": true
    },
    {
      "inputs": [],
      "name": "owner",
      "outputs": [
        {
          "internalType": "address",
          "name": "",
          "type": "address"
        }
      ],
      "stateMutability": "view",
      "type": "function",
      "constant": true
    },
    {
      "inputs": [
        {
          "internalType": "address",
          "name": "",
          "type": "address"
        }
      ],
      "name": "payoutsTo_",
      "outputs": [
        {
          "internalType": "int256",
          "name": "",
          "type": "int256"
        }
      ],
      "stateMutability": "view",
      "type": "function",
      "constant": true
    },
    {
      "inputs": [],
      "name": "profitPerShare_",
      "outputs": [
        {
          "internalType": "uint256",
          "name": "",
          "type": "uint256"
        }
      ],
      "stateMutability": "view",
      "type": "function",
      "constant": true
    },
    {
      "inputs": [
        {
          "internalType": "address",
          "name": "",
          "type": "address"
        }
      ],
      "name": "referralBalance_",
      "outputs": [
        {
          "internalType": "uint256",
          "name": "",
          "type": "uint256"
        }
      ],
      "stateMutability": "view",
      "type": "function",
      "constant": true
    },
    {
      "inputs": [],
      "name": "refferalFee_",
      "outputs": [
        {
          "internalType": "uint8",
          "name": "",
          "type": "uint8"
        }
      ],
      "stateMutability": "view",
      "type": "function",
      "constant": true
    },
    {
      "inputs": [],
      "name": "renounceOwnership",
      "outputs": [],
      "stateMutability": "nonpayable",
      "type": "function"
    },
    {
      "inputs": [],
      "name": "stakingRequirement",
      "outputs": [
        {
          "internalType": "uint256",
          "name": "",
          "type": "uint256"
        }
      ],
      "stateMutability": "view",
      "type": "function",
      "constant": true
    },
    {
      "inputs": [],
      "name": "symbol",
      "outputs": [
        {
          "internalType": "string",
          "name": "",
          "type": "string"
        }
      ],
      "stateMutability": "view",
      "type": "function",
      "constant": true
    },
    {
      "inputs": [],
      "name": "tokenPriceIncremental_",
      "outputs": [
        {
          "internalType": "uint256",
          "name": "",
          "type": "uint256"
        }
      ],
      "stateMutability": "view",
      "type": "function",
      "constant": true
    },
    {
      "inputs": [],
      "name": "tokenPriceInitial_",
      "outputs": [
        {
          "internalType": "uint256",
          "name": "",
          "type": "uint256"
        }
      ],
      "stateMutability": "view",
      "type": "function",
      "constant": true
    },
    {
      "inputs": [],
      "name": "totalSupply",
      "outputs": [
        {
          "internalType": "uint256",
          "name": "",
          "type": "uint256"
        }
      ],
      "stateMutability": "view",
      "type": "function",
      "constant": true
    },
    {
      "inputs": [],
      "name": "transferFee_",
      "outputs": [
        {
          "internalType": "uint8",
          "name": "",
          "type": "uint8"
        }
      ],
      "stateMutability": "view",
      "type": "function",
      "constant": true
    },
    {
      "inputs": [
        {
          "internalType": "address",
          "name": "newOwner",
          "type": "address"
        }
      ],
      "name": "transferOwnership",
      "outputs": [],
      "stateMutability": "nonpayable",
      "type": "function"
    },
    {
      "stateMutability": "payable",
      "type": "receive",
      "payable": true
    },
    {
      "inputs": [
        {
          "internalType": "address",
          "name": "_referredBy",
          "type": "address"
        },
        {
          "internalType": "uint256",
          "name": "minTokenOut",
          "type": "uint256"
        }
      ],
      "name": "buy",
      "outputs": [],
      "stateMutability": "payable",
      "type": "function",
      "payable": true
    },
    {
      "inputs": [
        {
          "internalType": "address",
          "name": "_addressContract",
          "type": "address"
        },
        {
          "internalType": "bool",
          "name": "_status",
          "type": "bool"
        }
      ],
      "name": "setContractAllowanded",
      "outputs": [],
      "stateMutability": "nonpayable",
      "type": "function"
    },
    {
      "inputs": [
        {
          "internalType": "address",
          "name": "_addressXBOTTreasury",
          "type": "address"
        }
      ],
      "name": "setXBOTTreasury",
      "outputs": [],
      "stateMutability": "nonpayable",
      "type": "function"
    },
    {
      "inputs": [],
      "name": "reinvest",
      "outputs": [],
      "stateMutability": "nonpayable",
      "type": "function"
    },
    {
      "inputs": [],
      "name": "exit",
      "outputs": [],
      "stateMutability": "nonpayable",
      "type": "function"
    },
    {
      "inputs": [],
      "name": "withdraw",
      "outputs": [],
      "stateMutability": "nonpayable",
      "type": "function"
    },
    {
      "inputs": [
        {
          "internalType": "uint256",
          "name": "_amountOfTokens",
          "type": "uint256"
        },
        {
          "internalType": "uint256",
          "name": "minETHOut",
          "type": "uint256"
        }
      ],
      "name": "sell",
      "outputs": [],
      "stateMutability": "nonpayable",
      "type": "function"
    },
    {
      "inputs": [
        {
          "internalType": "address",
          "name": "_toAddress",
          "type": "address"
        },
        {
          "internalType": "uint256",
          "name": "_amountOfTokens",
          "type": "uint256"
        }
      ],
      "name": "transfer",
      "outputs": [
        {
          "internalType": "bool",
          "name": "",
          "type": "bool"
        }
      ],
      "stateMutability": "nonpayable",
      "type": "function"
    },
    {
      "inputs": [
        {
          "internalType": "address",
          "name": "_fromAddress",
          "type": "address"
        },
        {
          "internalType": "address",
          "name": "_toAddress",
          "type": "address"
        },
        {
          "internalType": "uint256",
          "name": "_amountOfTokens",
          "type": "uint256"
        }
      ],
      "name": "transferFrom",
      "outputs": [
        {
          "internalType": "bool",
          "name": "",
          "type": "bool"
        }
      ],
      "stateMutability": "nonpayable",
      "type": "function"
    },
    {
      "inputs": [],
      "name": "getETHBalance",
      "outputs": [
        {
          "internalType": "uint256",
          "name": "",
          "type": "uint256"
        }
      ],
      "stateMutability": "view",
      "type": "function",
      "constant": true
    },
    {
      "inputs": [],
      "name": "myTokens",
      "outputs": [
        {
          "internalType": "uint256",
          "name": "",
          "type": "uint256"
        }
      ],
      "stateMutability": "view",
      "type": "function",
      "constant": true
    },
    {
      "inputs": [
        {
          "internalType": "bool",
          "name": "_includeReferralBonus",
          "type": "bool"
        },
        {
          "internalType": "address",
          "name": "_customerAddress",
          "type": "address"
        }
      ],
      "name": "myDividends",
      "outputs": [
        {
          "internalType": "uint256",
          "name": "",
          "type": "uint256"
        }
      ],
      "stateMutability": "view",
      "type": "function",
      "constant": true
    },
    {
      "inputs": [
        {
          "internalType": "address",
          "name": "_customerAddress",
          "type": "address"
        }
      ],
      "name": "dividendsOf",
      "outputs": [
        {
          "internalType": "uint256",
          "name": "",
          "type": "uint256"
        }
      ],
      "stateMutability": "view",
      "type": "function",
      "constant": true
    },
    {
      "inputs": [],
      "name": "sellPrice",
      "outputs": [
        {
          "internalType": "uint256",
          "name": "",
          "type": "uint256"
        }
      ],
      "stateMutability": "view",
      "type": "function",
      "constant": true
    },
    {
      "inputs": [],
      "name": "buyPrice",
      "outputs": [
        {
          "internalType": "uint256",
          "name": "",
          "type": "uint256"
        }
      ],
      "stateMutability": "view",
      "type": "function",
      "constant": true
    },
    {
      "inputs": [
        {
          "internalType": "uint256",
          "name": "_ethereumToSpend",
          "type": "uint256"
        }
      ],
      "name": "calculateTokenOut",
      "outputs": [
        {
          "internalType": "uint256",
          "name": "",
          "type": "uint256"
        }
      ],
      "stateMutability": "view",
      "type": "function",
      "constant": true
    },
    {
      "inputs": [
        {
          "internalType": "uint256",
          "name": "_tokensToSell",
          "type": "uint256"
        }
      ],
      "name": "calculateEthereumOut",
      "outputs": [
        {
          "internalType": "uint256",
          "name": "",
          "type": "uint256"
        }
      ],
      "stateMutability": "view",
      "type": "function",
      "constant": true
    },
    {
      "inputs": [
        {
          "internalType": "uint256",
          "name": "_ethereumIn",
          "type": "uint256"
        }
      ],
      "name": "calculateTokenIn",
      "outputs": [
        {
          "internalType": "uint256",
          "name": "",
          "type": "uint256"
        }
      ],
      "stateMutability": "view",
      "type": "function",
      "constant": true
    },
    {
      "inputs": [
        {
          "internalType": "uint256",
          "name": "_tokenOut",
          "type": "uint256"
        }
      ],
      "name": "calculateEthereumIn",
      "outputs": [
        {
          "internalType": "uint256",
          "name": "",
          "type": "uint256"
        }
      ],
      "stateMutability": "view",
      "type": "function",
      "constant": true
    },
    {
      "inputs": [
        {
          "internalType": "uint256",
          "name": "_token",
          "type": "uint256"
        }
      ],
      "name": "tokensToEthereum_",
      "outputs": [
        {
          "internalType": "uint256",
          "name": "",
          "type": "uint256"
        }
      ],
      "stateMutability": "view",
      "type": "function",
      "constant": true
    },
    {
      "inputs": [
        {
          "internalType": "uint256",
          "name": "_token",
          "type": "uint256"
        }
      ],
      "name": "getEtherumInputOfTokenOutput",
      "outputs": [
        {
          "internalType": "uint256",
          "name": "",
          "type": "uint256"
        }
      ],
      "stateMutability": "view",
      "type": "function",
      "constant": true
    },
    {
      "inputs": [
        {
          "internalType": "uint256",
          "name": "_ethereum",
          "type": "uint256"
        }
      ],
      "name": "getTokenInputOfEthereumOutput",
      "outputs": [
        {
          "internalType": "uint256",
          "name": "",
          "type": "uint256"
        }
      ],
      "stateMutability": "view",
      "type": "function",
      "constant": true
    },
    {
      "inputs": [
        {
          "internalType": "uint256",
          "name": "_amountIn",
          "type": "uint256"
        },
        {
          "internalType": "address",
          "name": "_tokenIn",
          "type": "address"
        }
      ],
      "name": "getAmountOut",
      "outputs": [
        {
          "internalType": "uint256",
          "name": "",
          "type": "uint256"
        }
      ],
      "stateMutability": "view",
      "type": "function",
      "constant": true
    },
    {
      "inputs": [
        {
          "internalType": "uint256",
          "name": "_amountOut",
          "type": "uint256"
        },
        {
          "internalType": "address",
          "name": "_tokenOut",
          "type": "address"
        }
      ],
      "name": "getAmountIn",
      "outputs": [
        {
          "internalType": "uint256",
          "name": "",
          "type": "uint256"
        }
      ],
      "stateMutability": "view",
      "type": "function",
      "constant": true
    },
    {
      "inputs": [
        {
          "internalType": "uint256",
          "name": "x",
          "type": "uint256"
        }
      ],
      "name": "sqrt",
      "outputs": [
        {
          "internalType": "uint256",
          "name": "y",
          "type": "uint256"
        }
      ],
      "stateMutability": "pure",
      "type": "function",
      "constant": true
    }
  ],
  "bytecode": "0x60806040526802b5e3af16b18800006006553480156200001e57600080fd5b50604051806040016040528060088152602001671119519a561093d560c21b81525060405180604001604052806004815260200163161093d560e21b81525081600390816200006e91906200019b565b5060046200007d82826200019b565b5050506200009a62000094620000a060201b60201c565b620000a4565b62000267565b3390565b600580546001600160a01b038381166001600160a01b0319831681179093556040519116919082907f8be0079c531659141344cd1fd0a4f28419497f9722a3daafe3b4186f6b6457e090600090a35050565b634e487b7160e01b600052604160045260246000fd5b600181811c908216806200012157607f821691505b6020821081036200014257634e487b7160e01b600052602260045260246000fd5b50919050565b601f8211156200019657600081815260208120601f850160051c81016020861015620001715750805b601f850160051c820191505b8181101562000192578281556001016200017d565b5050505b505050565b81516001600160401b03811115620001b757620001b7620000f6565b620001cf81620001c884546200010c565b8462000148565b602080601f831160018114620002075760008415620001ee5750858301515b600019600386901b1c1916600185901b17855562000192565b600085815260208120601f198616915b82811015620002385788860151825594840194600190910190840162000217565b5085821015620002575787850151600019600388901b60f8161c191681555b5050505050600190811b01905550565b61292f80620002776000396000f3fe6080604052600436106103025760003560e01c806379cc679011610190578063bf3b397b116100dc578063dd62ed3e11610095578063f140a35a1161006f578063f140a35a146108df578063f2fde38b146108ff578063f9fbfb4f1461091f578063fdb5a03e1461093f57610326565b8063dd62ed3e1461087d578063e1456cb41461089d578063e9fad8ee146108ca57610326565b8063bf3b397b146107cf578063c4c1b39a146107ef578063c664f7f114610808578063cb8cd7cb14610835578063cce7ec131461084a578063d79875eb1461085d57610326565b80639d40608311610149578063a457c2d711610123578063a457c2d71461074f578063a7c55bad1461076f578063a9059cbb1461078f578063b4101365146107af57610326565b80639d406083146106fa5780639e46db5e1461071a578063a0cd95651461073a57610326565b806379cc67901461065d5780638620410b1461067d5780638da5cb5b146106925780638e72267a146106b0578063949e8acd146106d057806395d89b41146106e557610326565b80633ccfd60b1161024f578063642ad54a1161020857806370a08231116101e257806370a08231146105f2578063710b318b14610612578063712e8ab614610628578063715018a61461064857610326565b8063642ad54a1461059f578063677342ce146105bf5780636e947298146105df57610326565b80633ccfd60b146104d75780633d3fcdec146104ec578063407418981461051c57806342966c68146105545780634b7503341461057457806356d399e81461058957610326565b806319123c1f116102bc5780632692f5da116102965780632692f5da1461046e5780632b38ee561461048e578063313ce567146104a357806339509351146104b757610326565b806319123c1f1461040f5780632290d6e21461042757806323b872dd1461044e57610326565b806265318b1461033c57806306fdde031461036f578063095ea7b3146103915780630ea8e5ac146103c15780631125f13f146103da57806318160ddd146103fa57610326565b36610326576103243461031d6005546001600160a01b031690565b6001610954565b005b6103243461031d6005546001600160a01b031690565b34801561034857600080fd5b5061035c610357366004612528565b610c5f565b6040519081526020015b60405180910390f35b34801561037b57600080fd5b50610384610cae565b6040516103669190612543565b34801561039d57600080fd5b506103b16103ac366004612591565b610d40565b6040519015158152602001610366565b3480156103cd57600080fd5b5061035c6402540be40081565b3480156103e657600080fd5b5061035c6103f53660046125bb565b610d58565b34801561040657600080fd5b5060025461035c565b34801561041b57600080fd5b5061035c600160401b81565b34801561043357600080fd5b5061043c600a81565b60405160ff9091168152602001610366565b34801561045a57600080fd5b506103b16104693660046125e7565b610d8a565b34801561047a57600080fd5b50610324610489366004612633565b61103e565b34801561049a57600080fd5b5061043c600481565b3480156104af57600080fd5b50601261043c565b3480156104c357600080fd5b506103b16104d2366004612591565b6110a9565b3480156104e357600080fd5b506103246110cb565b3480156104f857600080fd5b506103b1610507366004612528565b600a6020526000908152604090205460ff1681565b34801561052857600080fd5b5060075461053c906001600160a01b031681565b6040516001600160a01b039091168152602001610366565b34801561056057600080fd5b5061032461056f36600461265d565b611244565b34801561058057600080fd5b5061035c611251565b34801561059557600080fd5b5061035c60065481565b3480156105ab57600080fd5b5061035c6105ba366004612676565b6112b9565b3480156105cb57600080fd5b5061035c6105da36600461265d565b6112fa565b3480156105eb57600080fd5b504761035c565b3480156105fe57600080fd5b5061035c61060d366004612528565b611353565b34801561061e57600080fd5b5061035c600b5481565b34801561063457600080fd5b5061035c61064336600461265d565b61136e565b34801561065457600080fd5b5061032461139e565b34801561066957600080fd5b50610324610678366004612591565b6113b2565b34801561068957600080fd5b5061035c6113cb565b34801561069e57600080fd5b506005546001600160a01b031661053c565b3480156106bc57600080fd5b5061035c6106cb36600461265d565b611426565b3480156106dc57600080fd5b5061035c611588565b3480156106f157600080fd5b5061038461159a565b34801561070657600080fd5b5061035c61071536600461265d565b6115a9565b34801561072657600080fd5b5061035c61073536600461265d565b6116d6565b34801561074657600080fd5b5061043c602181565b34801561075b57600080fd5b506103b161076a366004612591565b6116ff565b34801561077b57600080fd5b5061032461078a366004612528565b611785565b34801561079b57600080fd5b506103b16107aa366004612591565b6117af565b3480156107bb57600080fd5b5061035c6107ca36600461265d565b6118e1565b3480156107db57600080fd5b5061035c6107ea36600461265d565b611925565b3480156107fb57600080fd5b5061035c64174876e80081565b34801561081457600080fd5b5061035c610823366004612528565b60086020526000908152604090205481565b34801561084157600080fd5b5061043c600081565b610324610858366004612591565b611a1a565b34801561086957600080fd5b506103246108783660046126a0565b611a2a565b34801561088957600080fd5b5061035c6108983660046126c2565b611bae565b3480156108a957600080fd5b5061035c6108b8366004612528565b60096020526000908152604090205481565b3480156108d657600080fd5b50610324611bd9565b3480156108eb57600080fd5b5061035c6108fa3660046125bb565b611c00565b34801561090b57600080fd5b5061032461091a366004612528565b611c24565b34801561092b57600080fd5b5061035c61093a36600461265d565b611c9a565b34801561094b57600080fd5b50610324611cc8565b6000338161096e606461096888600a611dc4565b90611dd0565b905060006109826064610968846021611dc4565b905060006109908383611ddc565b9050600061099e8985611ddc565b905060006109ab82611de8565b905060006109bd84600160401b611dc4565b90506000821180156109d957506002546109d78382611efe565b115b610a1a5760405162461bcd60e51b815260206004820152600d60248201526c6572726f72207265717569726560981b60448201526064015b60405180910390fd5b81891115610a765760405162461bcd60e51b815260206004820152602360248201527f6d696e20746f6b656e206f7574206c65737320616d6f756e7420746f6b656e206044820152621bdd5d60ea1b6064820152608401610a11565b6001600160a01b038a1615801590610aa05750866001600160a01b03168a6001600160a01b031614155b8015610ab65750600654610ab38b611353565b10155b15610afc576001600160a01b038a16600090815260086020526040902054610ade9086611efe565b6001600160a01b038b16600090815260086020526040902055610b19565b610b068486611efe565b9350610b1684600160401b611dc4565b90505b6000610b2460025490565b1115610ba457610b4e610b4083610b3a60025490565b90611efe565b61096886600160401b611dc4565b600b6000828254610b5f91906126f4565b90915550610ba19050610b9a610b93610b8c610b7e86610b3a60025490565b61096889600160401b611dc4565b8590611dc4565b8390611ddc565b8290611ddc565b90505b610bae8783611f0a565b60008183600b54610bbf9190612707565b610bc99190612737565b6001600160a01b038916600090815260096020526040812080549293508392909190610bf690849061275e565b9091555050604080518d8152600060208201819052818301526060810185905290516001600160a01b038a169182917fd78ad95fa46c994b6551d0da85fc275fe613ce37657fb8d5e3d130840159d8229181900360800190a350909a9950505050505050505050565b6001600160a01b038116600090815260096020526040812054600160401b90610c8784611353565b600b54610c949190612786565b610c9e9190612737565b610ca8919061279d565b92915050565b606060038054610cbd906127bf565b80601f0160208091040260200160405190810160405280929190818152602001828054610ce9906127bf565b8015610d365780601f10610d0b57610100808354040283529160200191610d36565b820191906000526020600020905b815481529060010190602001808311610d1957829003601f168201915b5050505050905090565b600033610d4e818585611fc9565b5060019392505050565b6000306001600160a01b03831603610d7a57610d738361136e565b9050610ca8565b610d83836116d6565b9392505050565b6000610d9584611353565b821115610ddb5760405162461bcd60e51b815260206004820152601460248201527334b73b30b634b21030b6b7bab73a103a37b5b2b760611b6044820152606401610a11565b6000610de86001866112b9565b1115610f4f57836000610dfb81836112b9565b9050610e0b81600160401b611dc4565b6001600160a01b03831660009081526009602052604081208054909190610e3390849061275e565b90915550506001600160a01b038216600090815260086020526040902054610e5c908290611efe565b6001600160a01b0383166000908152600860209081526040808320839055600a90915290205490915060ff161515600103610ed1576007546040516001600160a01b039091169082156108fc029083906000818181858888f19350505050158015610ecb573d6000803e3d6000fd5b50610f09565b6040516001600160a01b0383169082156108fc029083906000818181858888f19350505050158015610f07573d6000803e3d6000fd5b505b816001600160a01b03167fccad973dcd043c7d680389db4378bd6b9775db7124092e9e0422c9e46d7985dc82604051610f4491815260200190565b60405180910390a250505b6000610f6060646109688584611dc4565b90506000610f6e8483611ddc565b90506000610f7b83611925565b9050610f8787846120ed565b610f9287878461221f565b50600b54610fa09086611dc4565b6001600160a01b03881660009081526009602052604081208054909190610fc8908490612737565b9091555050600b54610fda9083611dc4565b6001600160a01b0387166000908152600960205260408120805490919061100290849061275e565b9091555061102e905061102561101760025490565b61096884600160401b611dc4565b600b5490611efe565b600b555060019695505050505050565b611046612238565b6001600160a01b0382166000818152600a6020908152604091829020805460ff19168515159081179091558251938452908301527f24829d9ffd4331d92d53676e6b3ccecb3a0d42bcc01e08e5ba9235f707aaa770910160405180910390a15050565b600033610d4e8185856110bc8383611bae565b6110c691906126f4565b611fc9565b60006110d86001336112b9565b116110e257600080fd5b3360006110ef81836112b9565b90506110ff81600160401b611dc4565b6001600160a01b0383166000908152600960205260408120805490919061112790849061275e565b90915550506001600160a01b038216600090815260086020526040902054611150908290611efe565b6001600160a01b0383166000908152600860209081526040808320839055600a90915290205490915060ff1615156001036111c5576007546040516001600160a01b039091169082156108fc029083906000818181858888f193505050501580156111bf573d6000803e3d6000fd5b506111fd565b6040516001600160a01b0383169082156108fc029083906000818181858888f193505050501580156111fb573d6000803e3d6000fd5b505b816001600160a01b03167fccad973dcd043c7d680389db4378bd6b9775db7124092e9e0422c9e46d7985dc8260405161123891815260200190565b60405180910390a25050565b61124e33826120ed565b50565b600061125c60025490565b60000361127c5761127764174876e8006402540be400611ddc565b905090565b600061128f670de0b6b3a7640000611925565b905060006112a36064610968846004611dc4565b905060006112b18383611ddc565b949350505050565b6000826112ce576112c982610c5f565b610d83565b6001600160a01b0382166000908152600860205260409020546112f083610c5f565b610d8391906126f4565b600080600261130a8460016126f4565b611314919061279d565b90508291505b8181101561134d57905080600281611332818661279d565b61133c91906126f4565b611346919061279d565b905061131a565b50919050565b6001600160a01b031660009081526020819052604090205490565b60008061137a836115a9565b905060006112b1606461139861139182600a611ddc565b8590611dd0565b90611dc4565b6113a6612238565b6113b06000612292565b565b6113bd8233836122e4565b6113c782826120ed565b5050565b60006113d660025490565b6000036113f15761127764174876e8006402540be400611efe565b6000611404670de0b6b3a7640000611925565b90506000611418606461096884600a611dc4565b905060006112b18383611efe565b60008160000361143857506000919050565b600061144360025490565b61145590670de0b6b3a76400006126f4565b905060008361146a6402540be4006002612786565b6114749190612786565b60026402540be400670de0b6b3a764000061148f8683612786565b611499919061279d565b64174876e8006114b6671bc16d674ec800006402540be40061279d565b6114c091906126f4565b6114ca91906126f4565b6114d491906127f3565b6114de91906128ea565b6114e891906127f3565b905060006402540be4006114fb836112fa565b6402540be400670de0b6b3a76400006115148783612786565b61151e919061279d565b64174876e80061153b671bc16d674ec800006402540be40061279d565b61154591906126f4565b61154f91906126f4565b61155991906127f3565b61156391906127f3565b61157590670de0b6b3a7640000612786565b61157f919061279d565b95945050505050565b60003361159481611353565b91505090565b606060048054610cbd906127bf565b6000816000036115bb57506000919050565b60006115d464174876e800670de0b6b3a7640000612786565b905060006115e160025490565b905060006115f56402540be4006002612786565b61160e906ec097ce7bc90715b34b9f1000000000612786565b82846116206402540be4006002612786565b61162a9190612786565b6116349190612786565b61163f6002856128ea565b61164f60026402540be4006128ea565b6116599190612786565b61166385896126f4565b6402540be400611674886002612786565b61167e9190612786565b6116889190612786565b6002611694878b6126f4565b61169e91906128ea565b6116ae60026402540be4006128ea565b6116b89190612786565b6116c291906126f4565b6116cc91906127f3565b61157591906127f3565b60006116f26116e760646004611ddc565b610968846064611dc4565b91506000610d8383611426565b6000338161170d8286611bae565b90508381101561176d5760405162461bcd60e51b815260206004820152602560248201527f45524332303a2064656372656173656420616c6c6f77616e63652062656c6f77604482015264207a65726f60d81b6064820152608401610a11565b61177a8286868403611fc9565b506001949350505050565b61178d612238565b600780546001600160a01b0319166001600160a01b0392909216919091179055565b6000806117ba611588565b116117c457600080fd5b336117ce81611353565b8311156118145760405162461bcd60e51b815260206004820152601460248201527334b73b30b634b21030b6b7bab73a103a37b5b2b760611b6044820152606401610a11565b60006118216001836112b9565b111561182f5761182f6110cb565b600061184060646109688684611dc4565b9050600061184e8583611ddc565b9050600061185b83611925565b905061186784846120ed565b611871878361235e565b50600b5461187f9087611dc4565b6001600160a01b038516600090815260096020526040812080549091906118a7908490612737565b9091555050600b546118b99083611dc4565b6001600160a01b0388166000908152600960205260408120805490919061100290849061275e565b60006118ec60025490565b8211156118f857600080fd5b600061190383611925565b905060006119176064610968846004611dc4565b9050600061157f8383611ddc565b60008160000361193757506000919050565b600061194b83670de0b6b3a76400006126f4565b9050600061195860025490565b61196a90670de0b6b3a76400006126f4565b9050600061157f670de0b6b3a76400006109686002828761198b83826128ea565b61199591906127f3565b61199f919061279d565b6119ae906402540be400612786565b6119b8919061279d565b6119ca87670de0b6b3a7640000611ddc565b6402540be4006119e288670de0b6b3a7640000611dd0565b6119f1906402540be400612786565b611a009064174876e8006126f4565b611a0a91906127f3565b611a149190612786565b90611ddc565b611a25348383610954565b505050565b6000611a34611588565b11611a3e57600080fd5b33611a4881611353565b831115611a5b57611a5881611353565b92505b6000611a6684611925565b90506000611a7a6064610968846004611dc4565b90506000611a888383611ddc565b905080851115611ada5760405162461bcd60e51b815260206004820152601c60248201527f6d696e4554484f7574206c657373207461786564457468657265756d000000006044820152606401610a11565b611ae484876120ed565b6000611b04611af783600160401b611dc4565b600b54610b3a908a611dc4565b6001600160a01b038616600090815260096020526040812080549293508392909190611b31908490612737565b909155505060025415611b5157611b4d611025610b4060025490565b600b555b604080516000808252602082018a9052818301859052606082015290516001600160a01b0387169182917fd78ad95fa46c994b6551d0da85fc275fe613ce37657fb8d5e3d130840159d8229181900360800190a350505050505050565b6001600160a01b03918216600090815260016020908152604080832093909416825291909152205490565b336000611be582611353565b90508015611bf857611bf8816001611a2a565b6113c76110cb565b6000306001600160a01b03831603611c1b57610d73836118e1565b610d8383611c9a565b611c2c612238565b6001600160a01b038116611c915760405162461bcd60e51b815260206004820152602660248201527f4f776e61626c653a206e6577206f776e657220697320746865207a65726f206160448201526564647265737360d01b6064820152608401610a11565b61124e81612292565b600080611cad606461096885600a611dc4565b90506000611cbb8483611ddc565b9050600061157f82611de8565b6000611cd56001336112b9565b11611cdf57600080fd5b6000611cec6000336112b9565b905033611cfd82600160401b611dc4565b6001600160a01b03821660009081526009602052604081208054909190611d2590849061275e565b90915550506001600160a01b038116600090815260086020526040902054611d4e908390611efe565b6001600160a01b0382166000908152600860205260408120819055909250611d7883826001610954565b60408051858152602081018390529192506001600160a01b038416917fbe339fc14b041c2b0e0f3dd2cd325d0c3668b78378001e53160eab3615326458910160405180910390a2505050565b6000610d838284612786565b6000610d83828461279d565b6000610d8382846127f3565b600081600003611dfa57506000919050565b6000611e1364174876e800670de0b6b3a7640000612786565b90506000611e2060025490565b6402540be400611eea84611a14611e3660025490565b87611e476402540be4006002612786565b611e519190612786565b611e5b9190612786565b60028054611e6991906128ea565b611e7960026402540be4006128ea565b611e839190612786565b611e958b670de0b6b3a7640000612786565b611eac6402540be400670de0b6b3a7640000612786565b611eb7906002612786565b611ec19190612786565b611ecc60028b6128ea565b611ed691906126f4565b611ee091906126f4565b6105da91906126f4565b611ef4919061279d565b6112b191906127f3565b6000610d8382846126f4565b6001600160a01b038216611f605760405162461bcd60e51b815260206004820152601f60248201527f45524332303a206d696e7420746f20746865207a65726f2061646472657373006044820152606401610a11565b8060026000828254611f7291906126f4565b90915550506001600160a01b038216600081815260208181526040808320805486019055518481527fddf252ad1be2c89b69c2b068fc378daa952ba7f163c4a11628f55a4df523b3ef910160405180910390a35050565b6001600160a01b03831661202b5760405162461bcd60e51b8152602060048201526024808201527f45524332303a20617070726f76652066726f6d20746865207a65726f206164646044820152637265737360e01b6064820152608401610a11565b6001600160a01b03821661208c5760405162461bcd60e51b815260206004820152602260248201527f45524332303a20617070726f766520746f20746865207a65726f206164647265604482015261737360f01b6064820152608401610a11565b6001600160a01b0383811660008181526001602090815260408083209487168084529482529182902085905590518481527f8c5be1e5ebec7d5bd14f71427d1e84f3dd0314c0f7b2291e5b200ac8c7c3b925910160405180910390a3505050565b6001600160a01b03821661214d5760405162461bcd60e51b815260206004820152602160248201527f45524332303a206275726e2066726f6d20746865207a65726f206164647265736044820152607360f81b6064820152608401610a11565b6001600160a01b038216600090815260208190526040902054818110156121c15760405162461bcd60e51b815260206004820152602260248201527f45524332303a206275726e20616d6f756e7420657863656564732062616c616e604482015261636560f01b6064820152608401610a11565b6001600160a01b0383166000818152602081815260408083208686039055600280548790039055518581529192917fddf252ad1be2c89b69c2b068fc378daa952ba7f163c4a11628f55a4df523b3ef910160405180910390a3505050565b60003361222d8582856122e4565b61177a858585612368565b6005546001600160a01b031633146113b05760405162461bcd60e51b815260206004820181905260248201527f4f776e61626c653a2063616c6c6572206973206e6f7420746865206f776e65726044820152606401610a11565b600580546001600160a01b038381166001600160a01b0319831681179093556040519116919082907f8be0079c531659141344cd1fd0a4f28419497f9722a3daafe3b4186f6b6457e090600090a35050565b60006122f08484611bae565b90506000198114612358578181101561234b5760405162461bcd60e51b815260206004820152601d60248201527f45524332303a20696e73756666696369656e7420616c6c6f77616e63650000006044820152606401610a11565b6123588484848403611fc9565b50505050565b600033610d4e8185855b6001600160a01b0383166123cc5760405162461bcd60e51b815260206004820152602560248201527f45524332303a207472616e736665722066726f6d20746865207a65726f206164604482015264647265737360d81b6064820152608401610a11565b6001600160a01b03821661242e5760405162461bcd60e51b815260206004820152602360248201527f45524332303a207472616e7366657220746f20746865207a65726f206164647260448201526265737360e81b6064820152608401610a11565b6001600160a01b038316600090815260208190526040902054818110156124a65760405162461bcd60e51b815260206004820152602660248201527f45524332303a207472616e7366657220616d6f756e7420657863656564732062604482015265616c616e636560d01b6064820152608401610a11565b6001600160a01b03848116600081815260208181526040808320878703905593871680835291849020805487019055925185815290927fddf252ad1be2c89b69c2b068fc378daa952ba7f163c4a11628f55a4df523b3ef910160405180910390a3612358565b80356001600160a01b038116811461252357600080fd5b919050565b60006020828403121561253a57600080fd5b610d838261250c565b600060208083528351808285015260005b8181101561257057858101830151858201604001528201612554565b506000604082860101526040601f19601f8301168501019250505092915050565b600080604083850312156125a457600080fd5b6125ad8361250c565b946020939093013593505050565b600080604083850312156125ce57600080fd5b823591506125de6020840161250c565b90509250929050565b6000806000606084860312156125fc57600080fd5b6126058461250c565b92506126136020850161250c565b9150604084013590509250925092565b8035801515811461252357600080fd5b6000806040838503121561264657600080fd5b61264f8361250c565b91506125de60208401612623565b60006020828403121561266f57600080fd5b5035919050565b6000806040838503121561268957600080fd5b61269283612623565b91506125de6020840161250c565b600080604083850312156126b357600080fd5b50508035926020909101359150565b600080604083850312156126d557600080fd5b6126928361250c565b634e487b7160e01b600052601160045260246000fd5b80820180821115610ca857610ca86126de565b80820260008212600160ff1b84141615612723576127236126de565b8181058314821517610ca857610ca86126de565b8181036000831280158383131683831282161715612757576127576126de565b5092915050565b808201828112600083128015821682158216171561277e5761277e6126de565b505092915050565b8082028115828204841417610ca857610ca86126de565b6000826127ba57634e487b7160e01b600052601260045260246000fd5b500490565b600181811c908216806127d357607f821691505b60208210810361134d57634e487b7160e01b600052602260045260246000fd5b81810381811115610ca857610ca86126de565b600181815b80851115612841578160001904821115612827576128276126de565b8085161561283457918102915b93841c939080029061280b565b509250929050565b60008261285857506001610ca8565b8161286557506000610ca8565b816001811461287b5760028114612885576128a1565b6001915050610ca8565b60ff841115612896576128966126de565b50506001821b610ca8565b5060208310610133831016604e8410600b84101617156128c4575081810a610ca8565b6128ce8383612806565b80600019048211156128e2576128e26126de565b029392505050565b6000610d8360ff84168361284956fea26469706673582212204c8fe3c06e89926a3158c8019803d4a7b6e6ca4acd27ea56363b5b15747673f564736f6c63430008110033",
  "immutableReferences": {},
  "source": "// SPDX-License-Identifier: MIT\npragma solidity >=0.6.12;\n\nimport \"@openzeppelin/contracts/utils/math/SafeMath.sol\";\nimport \"@openzeppelin/contracts/token/ERC20/IERC20.sol\";\nimport \"@openzeppelin/contracts/token/ERC20/ERC20.sol\";\nimport \"@openzeppelin/contracts/token/ERC20/extensions/ERC20Burnable.sol\";\nimport \"@openzeppelin/contracts/utils/Context.sol\";\nimport \"@openzeppelin/contracts/access/Ownable.sol\";\n\ncontract XBOT is ERC20Burnable, Ownable {\n    using SafeMath for uint256;\n\n    modifier onlyBagholders {\n        require(myTokens() > 0);\n        _;\n    }\n\n    modifier onlyStronghands {\n        require(myDividends(true, msg.sender) > 0);\n        _;\n    }\n\n    event Swap (\n        address indexed sender,\n        uint256 amount0In, \n        uint256 amount1In, \n        uint256 amount0Out, \n        uint256 amount1Out, \n        address indexed to);\n\n    // event onTokenPurchase(\n    //     address indexed customerAddress,\n    //     uint256 incomingEthereum,\n    //     uint256 tokensMinted,\n    //     address indexed referredBy,\n    //     uint timestamp,\n    //     uint256 price\n\t// );\n\n    // event onTokenSell(\n    //     address indexed customerAddress,\n    //     uint256 tokensBurned,\n    //     uint256 ethereumEarned,\n    //     uint timestamp,\n    //     uint256 price\n\t// );\n\n    event onReinvestment(\n        address indexed customerAddress,\n        uint256 ethereumReinvested,\n        uint256 tokensMinted\n\t);\n\n    event onWithdraw(\n        address indexed customerAddress,\n        uint256 ethereumWithdrawn\n\t);\n\n    event onSetContractAllowanded(address _addressContract, bool _status);\n\n    uint8 constant public entryFee_ = 10;\n    uint8 constant public transferFee_ = 0;\n    uint8 constant public exitFee_ = 4;\n    uint8 constant public refferalFee_ = 33;\n    uint256 constant public tokenPriceInitial_ = 0.0000001 ether;\n    uint256 constant public tokenPriceIncremental_ = 0.00000001 ether;\n    uint256 constant public magnitude = 2 ** 64;\n    uint256 public stakingRequirement = 50e18;\n    address public XBOTTreasury;\n    mapping(address => uint256) public referralBalance_;\n    mapping(address => int256) public payoutsTo_;\n    mapping(address => bool) public contractAllowanded;\n    uint256 public profitPerShare_;\n\n    constructor(\n    ) ERC20(\"DeFiXBOT\", \"XBOT\") {\n    }\n\n    function buy(address _referredBy, uint256 minTokenOut) public payable{\n        purchaseTokens(msg.value, _referredBy, minTokenOut);\n    }\n\n    receive() external payable  { \n        purchaseTokens(msg.value, owner(), 1);\n    }\n\n    fallback() external payable{\n        purchaseTokens(msg.value, owner(), 1);\n    }\n\n    function setContractAllowanded(address _addressContract, bool _status) public onlyOwner {\n        contractAllowanded[_addressContract] = _status;\n        emit onSetContractAllowanded(_addressContract, _status);\n    }\n\n    function setXBOTTreasury(address _addressXBOTTreasury) public onlyOwner {\n        XBOTTreasury = _addressXBOTTreasury;\n    }\n\n    function reinvest() onlyStronghands public {\n        uint256 _dividends = myDividends(false, msg.sender);\n        address _customerAddress = msg.sender;\n        payoutsTo_[_customerAddress] +=  int256(_dividends.mul(magnitude));\n        _dividends = _dividends.add(referralBalance_[_customerAddress]);\n        referralBalance_[_customerAddress] = 0;\n        uint256 _tokens = purchaseTokens(_dividends, address(0), 1);\n        emit onReinvestment(_customerAddress, _dividends, _tokens);\n    }\n\n    function exit() public {\n        address _customerAddress = msg.sender;\n        uint256 _tokens = balanceOf(_customerAddress);\n        if (_tokens > 0) sell(_tokens, 1);\n        withdraw();\n    }\n\n    function withdraw() onlyStronghands public {\n        address _customerAddress = msg.sender;\n        uint256 _dividends = myDividends(false, _customerAddress);\n        payoutsTo_[_customerAddress] += int256(_dividends.mul(magnitude));\n        _dividends = _dividends.add(referralBalance_[_customerAddress]);\n        referralBalance_[_customerAddress] = 0;\n        if(contractAllowanded[_customerAddress] == true) {\n            payable(XBOTTreasury).transfer(_dividends);\n        } else {\n            payable(_customerAddress).transfer(_dividends);\n        }\n        emit onWithdraw(_customerAddress, _dividends);\n    }\n\n    function sell(uint256 _amountOfTokens, uint256 minETHOut) onlyBagholders public {\n        address _customerAddress = msg.sender;\n        if(_amountOfTokens > balanceOf(_customerAddress)) {\n            _amountOfTokens = balanceOf(_customerAddress);\n        }\n        uint256 _ethereum = tokensToEthereum_(_amountOfTokens);\n        uint256 _dividends = _ethereum.mul(exitFee_).div(100);\n        uint256 _taxedEthereum = _ethereum.sub(_dividends);\n        require(minETHOut <= _taxedEthereum, \"minETHOut less taxedEthereum\");\n\n        super._burn(_customerAddress, _amountOfTokens);\n\n        int256 _updatedPayouts = int256(profitPerShare_.mul(_amountOfTokens).add(_taxedEthereum.mul(magnitude)));\n        payoutsTo_[_customerAddress] -= _updatedPayouts;\n\n        if (totalSupply() > 0) {\n            profitPerShare_ = profitPerShare_.add(_dividends.mul(magnitude).div(totalSupply()));\n        }\n        // emit onTokenSell(_customerAddress, _amountOfTokens, _taxedEthereum, block.timestamp, buyPrice());\n        emit Swap(_customerAddress, 0, _amountOfTokens, _taxedEthereum, 0, _customerAddress);\n    }\n\n    function transfer(address _toAddress, uint256 _amountOfTokens) onlyBagholders public override returns (bool) {\n        address _customerAddress = msg.sender;\n        require(_amountOfTokens <= balanceOf(_customerAddress), \"invalid amount token\");\n\n        if (myDividends(true, _customerAddress) > 0) {\n            withdraw();\n        }\n\n        uint256 _tokenFee = _amountOfTokens.mul(transferFee_).div(100);\n        uint256 _taxedTokens = _amountOfTokens.sub(_tokenFee);\n        uint256 _dividends = tokensToEthereum_(_tokenFee);\n        super._burn(_customerAddress, _tokenFee);\n        super.transfer(_toAddress, _taxedTokens);\n\n        payoutsTo_[_customerAddress] -= int256(profitPerShare_.mul(_amountOfTokens));\n        payoutsTo_[_toAddress] += int256(profitPerShare_.mul(_taxedTokens));\n        profitPerShare_ = profitPerShare_.add(_dividends.mul(magnitude).div(totalSupply()));\n        return true;\n    }\n\n    function transferFrom(address _fromAddress, address _toAddress, uint256 _amountOfTokens) public override returns (bool) {\n        require(_amountOfTokens <= balanceOf(_fromAddress), \"invalid amount token\");\n        if (myDividends(true, _fromAddress) > 0) {\n            address _customerAddress = _fromAddress;\n            uint256 _dividendsWithdraw = myDividends(false, _customerAddress);\n            payoutsTo_[_customerAddress] += int256(_dividendsWithdraw.mul(magnitude));\n            _dividendsWithdraw = _dividendsWithdraw.add(referralBalance_[_customerAddress]);\n            referralBalance_[_customerAddress] = 0;\n            if(contractAllowanded[_customerAddress] == true) {\n                payable(XBOTTreasury).transfer(_dividendsWithdraw);\n            } else {\n                payable(_customerAddress).transfer(_dividendsWithdraw);\n            }\n            emit onWithdraw(_customerAddress, _dividendsWithdraw);\n        }\n\n        uint256 _tokenFee = _amountOfTokens.mul(transferFee_).div(100);\n        uint256 _taxedTokens = _amountOfTokens.sub(_tokenFee);\n        uint256 _dividends = tokensToEthereum_(_tokenFee);\n        super._burn(_fromAddress, _tokenFee);\n        super.transferFrom(_fromAddress, _toAddress, _taxedTokens);\n\n        payoutsTo_[_fromAddress] -= int256(profitPerShare_.mul(_amountOfTokens));\n        payoutsTo_[_toAddress] += int256(profitPerShare_.mul(_taxedTokens));\n        profitPerShare_ = profitPerShare_.add(_dividends.mul(magnitude).div(totalSupply()));\n        return true;\n    }\n\n    function getETHBalance() public view returns (uint256) {\n        return address(this).balance;\n    }\n\n    function myTokens() public view returns (uint256) {\n        address _customerAddress = msg.sender;\n        return balanceOf(_customerAddress);\n    }\n\n    function myDividends(bool _includeReferralBonus, address _customerAddress) public view returns (uint256) {\n        return _includeReferralBonus ? dividendsOf(_customerAddress) + referralBalance_[_customerAddress] : dividendsOf(_customerAddress) ;\n    }\n\n    function dividendsOf(address _customerAddress) public view returns (uint256) {\n        return (uint256) ((int256) (profitPerShare_ * balanceOf(_customerAddress)) - payoutsTo_[_customerAddress]) / magnitude;\n    }\n\n    function sellPrice() public view returns (uint256) {\n        if (totalSupply() == 0) {\n            return tokenPriceInitial_.sub(tokenPriceIncremental_);\n        } else {\n            uint256 _ethereum = tokensToEthereum_(1e18);\n            uint256 _dividends = _ethereum.mul(exitFee_).div(100);\n            uint256 _taxedEthereum = _ethereum.sub(_dividends);\n\n            return _taxedEthereum;\n        }\n    }\n\n    function buyPrice() public view returns (uint256) {\n        if (totalSupply() == 0) {\n            return tokenPriceInitial_.add(tokenPriceIncremental_);\n        } else {\n            uint256 _ethereum = tokensToEthereum_(1e18);\n            uint256 _dividends = _ethereum.mul(entryFee_).div(100);\n            uint256 _taxedEthereum = _ethereum.add(_dividends);\n\n            return _taxedEthereum;\n        }\n    }\n\n    function calculateTokenOut(uint256 _ethereumToSpend) public view returns (uint256) {\n        uint256 _dividends = _ethereumToSpend.mul(entryFee_).div(100);\n        uint256 _taxedEthereum = _ethereumToSpend.sub(_dividends);\n        uint256 _amountOfTokens = ethereumToTokens_(_taxedEthereum);\n        return _amountOfTokens;\n    }\n\n    function calculateEthereumOut(uint256 _tokensToSell) public view returns (uint256) {\n        require(_tokensToSell <= totalSupply());\n        uint256 _ethereum = tokensToEthereum_(_tokensToSell);\n        uint256 _dividends = _ethereum.mul(exitFee_).div(100);\n        uint256 _taxedEthereum = _ethereum.sub(_dividends);\n        return _taxedEthereum;\n    }\n\n    function calculateTokenIn(uint256 _ethereumIn) public view returns (uint256) {\n        _ethereumIn = (_ethereumIn.mul(100)).div(uint256(100).sub(exitFee_));\n        uint256 _amountTokenInput = getTokenInputOfEthereumOutput(_ethereumIn);\n        return _amountTokenInput;\n    }\n   \n    function calculateEthereumIn(uint256 _tokenOut) public view returns(uint256) {\n        uint256 _taxedEthereum = getEtherumInputOfTokenOutput(_tokenOut);\n        uint256 _amountEthereumInput = _taxedEthereum.div(uint256(100).sub(entryFee_)).mul(100);\n        return _amountEthereumInput;\n    }\n\n    function purchaseTokens(uint256 _incomingEthereum, address _referredBy, uint256 minAmountOut) internal returns (uint256) {\n        address _customerAddress = msg.sender;\n        uint256 _undividedDividends = _incomingEthereum.mul(entryFee_).div(100);\n        uint256 _referralBonus = _undividedDividends.mul(refferalFee_).div(100);\n        uint256 _dividends = _undividedDividends.sub(_referralBonus);\n        uint256 _taxedEthereum = _incomingEthereum.sub(_undividedDividends);\n        uint256 _amountOfTokens = ethereumToTokens_(_taxedEthereum);\n        uint256 _fee = uint256(_dividends.mul(magnitude));\n\n        require(_amountOfTokens > 0 && _amountOfTokens.add(totalSupply()) > totalSupply(), \"error require\");\n        require(minAmountOut <= _amountOfTokens, \"min token out less amount token out\");\n        if (\n            _referredBy != address(0) &&\n            _referredBy != _customerAddress &&\n            balanceOf(_referredBy) >= stakingRequirement\n        ) {\n            referralBalance_[_referredBy] = referralBalance_[_referredBy].add(_referralBonus);\n        } else {\n            _dividends = _dividends.add(_referralBonus);\n            _fee = uint256(_dividends.mul(magnitude));\n        }\n\n        if (totalSupply() > 0) {\n            profitPerShare_ += (_dividends.mul(magnitude).div(totalSupply().add(_amountOfTokens)));\n            _fee = _fee.sub(_fee.sub(_amountOfTokens.mul(_dividends.mul(magnitude).div(totalSupply().add(_amountOfTokens)))));\n        }\n\n        _mint(_customerAddress, _amountOfTokens);\n        \n        int256 _updatedPayouts = int256(profitPerShare_) * int256(_amountOfTokens) - int256(_fee);\n        payoutsTo_[_customerAddress] += _updatedPayouts;\n\n        // emit onTokenPurchase(_customerAddress, _incomingEthereum, _amountOfTokens, _referredBy, block.timestamp, buyPrice());\n        emit Swap(_customerAddress, _incomingEthereum, 0, 0, _amountOfTokens, _customerAddress);\n        return _amountOfTokens;\n    }\n\n     function ethereumToTokens_(uint256 _ethereum) internal view returns (uint256) {\n        if(_ethereum == 0) return 0;\n        uint256 _tokenPriceInitial = tokenPriceInitial_ * 1e18;\n        uint256 _tokensReceived =\n            (\n                (\n                    (sqrt\n                        (\n                            (_tokenPriceInitial ** 2)\n                            +\n                            (2 * (tokenPriceIncremental_ * 1e18) * (_ethereum * 1e18))\n                            +\n                            ((tokenPriceIncremental_ ** 2) * (totalSupply() ** 2))\n                            +\n                            (2 * tokenPriceIncremental_ * _tokenPriceInitial*totalSupply())\n                        )\n                    ).sub(_tokenPriceInitial)\n                ) / (tokenPriceIncremental_)\n            ) - (totalSupply());\n\n        return _tokensReceived;\n    }\n\n    function tokensToEthereum_(uint256 _token) public view returns (uint256) {\n        if(_token == 0) return 0;\n        uint256 token_ = _token + 1e18;\n        uint256 _tokenSupply = totalSupply() + 1e18;\n        uint256 _etherReceived =\n            (\n                (\n                    (\n                        (\n                            tokenPriceInitial_ + (tokenPriceIncremental_ * (_tokenSupply.div(1e18)))\n                        ) - tokenPriceIncremental_\n                    ) * (token_.sub(1e18))\n                ).sub(tokenPriceIncremental_ * ((token_ ** 2 - token_) / 1e18) / 2).div(1e18)\n            );\n        return _etherReceived;\n    }\n\n    function getEtherumInputOfTokenOutput(uint256 _token) public view returns (uint256) {\n        if(_token == 0) return 0;\n        uint256 _tokenPriceInitial = tokenPriceInitial_ * 1e18;\n        uint256 _tokenSupply = totalSupply();\n        uint256 _ethereumInput = (\n            ((tokenPriceIncremental_ ** 2) * ((_token + _tokenSupply) ** 2))\n            +\n            (2 * _tokenPriceInitial * tokenPriceIncremental_ * (_token + _tokenSupply))\n            -\n            ((tokenPriceIncremental_ ** 2) * (_tokenSupply ** 2))\n            -\n            (2 * tokenPriceIncremental_ * _tokenPriceInitial * _tokenSupply)\n        ) / (2 * tokenPriceIncremental_ * 1e36);\n\n        return _ethereumInput;\n    }\n    \n    function getTokenInputOfEthereumOutput(uint256 _ethereum) public view returns (uint256) {\n        if(_ethereum == 0) return 0;\n        uint256 _tokenSupply = totalSupply() + 1e18;\n        uint256 detal = \n        (\n            (tokenPriceIncremental_ / (2 * 1e18)) \n            + \n            tokenPriceInitial_ \n            + \n            ((tokenPriceIncremental_ * _tokenSupply) / 1e18) \n            - \n            tokenPriceIncremental_\n        ) ** 2 \n        - \n        (2 * tokenPriceIncremental_ * _ethereum);\n\n        uint256 _tokenInput = \n        (\n            (\n                (tokenPriceIncremental_ / (2 * 1e18)) \n                + \n                tokenPriceInitial_ \n                + \n                ((tokenPriceIncremental_ * _tokenSupply) / 1e18) \n                - \n                tokenPriceIncremental_ \n                - \n                sqrt(detal)\n            ) * 1e18\n        ) / (tokenPriceIncremental_);\n        return _tokenInput;\n    }\n\n    function getAmountOut(uint256 _amountIn, address _tokenIn) public view returns (uint256) {\n        if(_tokenIn == address(this)) {\n            return calculateEthereumOut(_amountIn);\n        }\n        return calculateTokenOut(_amountIn);\n    }\n\n    function getAmountIn(uint256 _amountOut, address _tokenOut) public view returns(uint256) {\n        if(_tokenOut == address(this)) {\n            return calculateEthereumIn(_amountOut);\n        }\n        return calculateTokenIn(_amountOut);\n    }\n\n    function sqrt(uint256 x) public pure returns (uint256 y) {\n        uint256 z = (x + 1) / 2;\n        y = x;\n\n        while (z < y) {\n            y = z;\n            z = (x / z + z) / 2;\n        }\n    }\n}",
  "sourcePath": "/Applications/projects/contracts/contracts/DeFiXBot/XBOT.sol",
  "compiler": {
    "name": "solc",
    "version": "0.8.17+commit.8df45f5f.Emscripten.clang"
  },
  "schemaVersion": "3.4.11",
  "updatedAt": "2023-09-25T10:35:05.249Z",
  "networkType": "ethereum",
  "devdoc": {
    "kind": "dev",
    "methods": {
      "allowance(address,address)": {
        "details": "See {IERC20-allowance}."
      },
      "approve(address,uint256)": {
        "details": "See {IERC20-approve}. NOTE: If `amount` is the maximum `uint256`, the allowance is not updated on `transferFrom`. This is semantically equivalent to an infinite approval. Requirements: - `spender` cannot be the zero address."
      },
      "balanceOf(address)": {
        "details": "See {IERC20-balanceOf}."
      },
      "burn(uint256)": {
        "details": "Destroys `amount` tokens from the caller. See {ERC20-_burn}."
      },
      "burnFrom(address,uint256)": {
        "details": "Destroys `amount` tokens from `account`, deducting from the caller's allowance. See {ERC20-_burn} and {ERC20-allowance}. Requirements: - the caller must have allowance for ``accounts``'s tokens of at least `amount`."
      },
      "decimals()": {
        "details": "Returns the number of decimals used to get its user representation. For example, if `decimals` equals `2`, a balance of `505` tokens should be displayed to a user as `5.05` (`505 / 10 ** 2`). Tokens usually opt for a value of 18, imitating the relationship between Ether and Wei. This is the default value returned by this function, unless it's overridden. NOTE: This information is only used for _display_ purposes: it in no way affects any of the arithmetic of the contract, including {IERC20-balanceOf} and {IERC20-transfer}."
      },
      "decreaseAllowance(address,uint256)": {
        "details": "Atomically decreases the allowance granted to `spender` by the caller. This is an alternative to {approve} that can be used as a mitigation for problems described in {IERC20-approve}. Emits an {Approval} event indicating the updated allowance. Requirements: - `spender` cannot be the zero address. - `spender` must have allowance for the caller of at least `subtractedValue`."
      },
      "increaseAllowance(address,uint256)": {
        "details": "Atomically increases the allowance granted to `spender` by the caller. This is an alternative to {approve} that can be used as a mitigation for problems described in {IERC20-approve}. Emits an {Approval} event indicating the updated allowance. Requirements: - `spender` cannot be the zero address."
      },
      "name()": {
        "details": "Returns the name of the token."
      },
      "owner()": {
        "details": "Returns the address of the current owner."
      },
      "renounceOwnership()": {
        "details": "Leaves the contract without owner. It will not be possible to call `onlyOwner` functions. Can only be called by the current owner. NOTE: Renouncing ownership will leave the contract without an owner, thereby disabling any functionality that is only available to the owner."
      },
      "symbol()": {
        "details": "Returns the symbol of the token, usually a shorter version of the name."
      },
      "totalSupply()": {
        "details": "See {IERC20-totalSupply}."
      },
      "transferOwnership(address)": {
        "details": "Transfers ownership of the contract to a new account (`newOwner`). Can only be called by the current owner."
      }
    },
    "version": 1
  },
  "userdoc": {
    "kind": "user",
    "methods": {},
    "version": 1
  }
}