{
  "contractName": "XBOT",
  "abi": [
    {
      "inputs": [],
      "stateMutability": "nonpayable",
      "type": "constructor"
    },
    {
      "anonymous": false,
      "inputs": [
        {
          "indexed": true,
          "internalType": "address",
          "name": "owner",
          "type": "address"
        },
        {
          "indexed": true,
          "internalType": "address",
          "name": "spender",
          "type": "address"
        },
        {
          "indexed": false,
          "internalType": "uint256",
          "name": "value",
          "type": "uint256"
        }
      ],
      "name": "Approval",
      "type": "event"
    },
    {
      "anonymous": false,
      "inputs": [
        {
          "indexed": true,
          "internalType": "address",
          "name": "previousOwner",
          "type": "address"
        },
        {
          "indexed": true,
          "internalType": "address",
          "name": "newOwner",
          "type": "address"
        }
      ],
      "name": "OwnershipTransferred",
      "type": "event"
    },
    {
      "anonymous": false,
      "inputs": [
        {
          "indexed": true,
          "internalType": "address",
          "name": "sender",
          "type": "address"
        },
        {
          "indexed": false,
          "internalType": "uint256",
          "name": "amount0In",
          "type": "uint256"
        },
        {
          "indexed": false,
          "internalType": "uint256",
          "name": "amount1In",
          "type": "uint256"
        },
        {
          "indexed": false,
          "internalType": "uint256",
          "name": "amount0Out",
          "type": "uint256"
        },
        {
          "indexed": false,
          "internalType": "uint256",
          "name": "amount1Out",
          "type": "uint256"
        },
        {
          "indexed": true,
          "internalType": "address",
          "name": "to",
          "type": "address"
        }
      ],
      "name": "Swap",
      "type": "event"
    },
    {
      "anonymous": false,
      "inputs": [
        {
          "indexed": true,
          "internalType": "address",
          "name": "from",
          "type": "address"
        },
        {
          "indexed": true,
          "internalType": "address",
          "name": "to",
          "type": "address"
        },
        {
          "indexed": false,
          "internalType": "uint256",
          "name": "value",
          "type": "uint256"
        }
      ],
      "name": "Transfer",
      "type": "event"
    },
    {
      "anonymous": false,
      "inputs": [
        {
          "indexed": true,
          "internalType": "address",
          "name": "customerAddress",
          "type": "address"
        },
        {
          "indexed": false,
          "internalType": "uint256",
          "name": "ethereumReinvested",
          "type": "uint256"
        },
        {
          "indexed": false,
          "internalType": "uint256",
          "name": "tokensMinted",
          "type": "uint256"
        }
      ],
      "name": "onReinvestment",
      "type": "event"
    },
    {
      "anonymous": false,
      "inputs": [
        {
          "indexed": true,
          "internalType": "address",
          "name": "customerAddress",
          "type": "address"
        },
        {
          "indexed": false,
          "internalType": "uint256",
          "name": "ethereumWithdrawn",
          "type": "uint256"
        }
      ],
      "name": "onWithdraw",
      "type": "event"
    },
    {
      "stateMutability": "payable",
      "type": "fallback",
      "payable": true
    },
    {
      "inputs": [
        {
          "internalType": "address",
          "name": "owner",
          "type": "address"
        },
        {
          "internalType": "address",
          "name": "spender",
          "type": "address"
        }
      ],
      "name": "allowance",
      "outputs": [
        {
          "internalType": "uint256",
          "name": "",
          "type": "uint256"
        }
      ],
      "stateMutability": "view",
      "type": "function",
      "constant": true
    },
    {
      "inputs": [
        {
          "internalType": "address",
          "name": "spender",
          "type": "address"
        },
        {
          "internalType": "uint256",
          "name": "amount",
          "type": "uint256"
        }
      ],
      "name": "approve",
      "outputs": [
        {
          "internalType": "bool",
          "name": "",
          "type": "bool"
        }
      ],
      "stateMutability": "nonpayable",
      "type": "function"
    },
    {
      "inputs": [
        {
          "internalType": "address",
          "name": "account",
          "type": "address"
        }
      ],
      "name": "balanceOf",
      "outputs": [
        {
          "internalType": "uint256",
          "name": "",
          "type": "uint256"
        }
      ],
      "stateMutability": "view",
      "type": "function",
      "constant": true
    },
    {
      "inputs": [
        {
          "internalType": "uint256",
          "name": "amount",
          "type": "uint256"
        }
      ],
      "name": "burn",
      "outputs": [],
      "stateMutability": "nonpayable",
      "type": "function"
    },
    {
      "inputs": [
        {
          "internalType": "address",
          "name": "account",
          "type": "address"
        },
        {
          "internalType": "uint256",
          "name": "amount",
          "type": "uint256"
        }
      ],
      "name": "burnFrom",
      "outputs": [],
      "stateMutability": "nonpayable",
      "type": "function"
    },
    {
      "inputs": [],
      "name": "decimals",
      "outputs": [
        {
          "internalType": "uint8",
          "name": "",
          "type": "uint8"
        }
      ],
      "stateMutability": "view",
      "type": "function",
      "constant": true
    },
    {
      "inputs": [
        {
          "internalType": "address",
          "name": "spender",
          "type": "address"
        },
        {
          "internalType": "uint256",
          "name": "subtractedValue",
          "type": "uint256"
        }
      ],
      "name": "decreaseAllowance",
      "outputs": [
        {
          "internalType": "bool",
          "name": "",
          "type": "bool"
        }
      ],
      "stateMutability": "nonpayable",
      "type": "function"
    },
    {
      "inputs": [],
      "name": "entryFee_",
      "outputs": [
        {
          "internalType": "uint8",
          "name": "",
          "type": "uint8"
        }
      ],
      "stateMutability": "view",
      "type": "function",
      "constant": true
    },
    {
      "inputs": [],
      "name": "exitFee_",
      "outputs": [
        {
          "internalType": "uint8",
          "name": "",
          "type": "uint8"
        }
      ],
      "stateMutability": "view",
      "type": "function",
      "constant": true
    },
    {
      "inputs": [
        {
          "internalType": "address",
          "name": "spender",
          "type": "address"
        },
        {
          "internalType": "uint256",
          "name": "addedValue",
          "type": "uint256"
        }
      ],
      "name": "increaseAllowance",
      "outputs": [
        {
          "internalType": "bool",
          "name": "",
          "type": "bool"
        }
      ],
      "stateMutability": "nonpayable",
      "type": "function"
    },
    {
      "inputs": [],
      "name": "magnitude",
      "outputs": [
        {
          "internalType": "uint256",
          "name": "",
          "type": "uint256"
        }
      ],
      "stateMutability": "view",
      "type": "function",
      "constant": true
    },
    {
      "inputs": [],
      "name": "name",
      "outputs": [
        {
          "internalType": "string",
          "name": "",
          "type": "string"
        }
      ],
      "stateMutability": "view",
      "type": "function",
      "constant": true
    },
    {
      "inputs": [],
      "name": "owner",
      "outputs": [
        {
          "internalType": "address",
          "name": "",
          "type": "address"
        }
      ],
      "stateMutability": "view",
      "type": "function",
      "constant": true
    },
    {
      "inputs": [
        {
          "internalType": "address",
          "name": "",
          "type": "address"
        }
      ],
      "name": "payoutsTo_",
      "outputs": [
        {
          "internalType": "int256",
          "name": "",
          "type": "int256"
        }
      ],
      "stateMutability": "view",
      "type": "function",
      "constant": true
    },
    {
      "inputs": [],
      "name": "profitPerShare_",
      "outputs": [
        {
          "internalType": "uint256",
          "name": "",
          "type": "uint256"
        }
      ],
      "stateMutability": "view",
      "type": "function",
      "constant": true
    },
    {
      "inputs": [
        {
          "internalType": "address",
          "name": "",
          "type": "address"
        }
      ],
      "name": "referralBalance_",
      "outputs": [
        {
          "internalType": "uint256",
          "name": "",
          "type": "uint256"
        }
      ],
      "stateMutability": "view",
      "type": "function",
      "constant": true
    },
    {
      "inputs": [],
      "name": "refferalFee_",
      "outputs": [
        {
          "internalType": "uint8",
          "name": "",
          "type": "uint8"
        }
      ],
      "stateMutability": "view",
      "type": "function",
      "constant": true
    },
    {
      "inputs": [],
      "name": "renounceOwnership",
      "outputs": [],
      "stateMutability": "nonpayable",
      "type": "function"
    },
    {
      "inputs": [],
      "name": "stakingRequirement",
      "outputs": [
        {
          "internalType": "uint256",
          "name": "",
          "type": "uint256"
        }
      ],
      "stateMutability": "view",
      "type": "function",
      "constant": true
    },
    {
      "inputs": [],
      "name": "symbol",
      "outputs": [
        {
          "internalType": "string",
          "name": "",
          "type": "string"
        }
      ],
      "stateMutability": "view",
      "type": "function",
      "constant": true
    },
    {
      "inputs": [],
      "name": "tokenPriceIncremental_",
      "outputs": [
        {
          "internalType": "uint256",
          "name": "",
          "type": "uint256"
        }
      ],
      "stateMutability": "view",
      "type": "function",
      "constant": true
    },
    {
      "inputs": [],
      "name": "tokenPriceInitial_",
      "outputs": [
        {
          "internalType": "uint256",
          "name": "",
          "type": "uint256"
        }
      ],
      "stateMutability": "view",
      "type": "function",
      "constant": true
    },
    {
      "inputs": [],
      "name": "totalSupply",
      "outputs": [
        {
          "internalType": "uint256",
          "name": "",
          "type": "uint256"
        }
      ],
      "stateMutability": "view",
      "type": "function",
      "constant": true
    },
    {
      "inputs": [],
      "name": "transferFee_",
      "outputs": [
        {
          "internalType": "uint8",
          "name": "",
          "type": "uint8"
        }
      ],
      "stateMutability": "view",
      "type": "function",
      "constant": true
    },
    {
      "inputs": [
        {
          "internalType": "address",
          "name": "newOwner",
          "type": "address"
        }
      ],
      "name": "transferOwnership",
      "outputs": [],
      "stateMutability": "nonpayable",
      "type": "function"
    },
    {
      "stateMutability": "payable",
      "type": "receive",
      "payable": true
    },
    {
      "inputs": [
        {
          "internalType": "address",
          "name": "_referredBy",
          "type": "address"
        },
        {
          "internalType": "uint256",
          "name": "minTokenOut",
          "type": "uint256"
        }
      ],
      "name": "buy",
      "outputs": [],
      "stateMutability": "payable",
      "type": "function",
      "payable": true
    },
    {
      "inputs": [],
      "name": "reinvest",
      "outputs": [],
      "stateMutability": "nonpayable",
      "type": "function"
    },
    {
      "inputs": [],
      "name": "exit",
      "outputs": [],
      "stateMutability": "nonpayable",
      "type": "function"
    },
    {
      "inputs": [],
      "name": "withdraw",
      "outputs": [],
      "stateMutability": "nonpayable",
      "type": "function"
    },
    {
      "inputs": [
        {
          "internalType": "uint256",
          "name": "_amountOfTokens",
          "type": "uint256"
        },
        {
          "internalType": "uint256",
          "name": "minETHOut",
          "type": "uint256"
        }
      ],
      "name": "sell",
      "outputs": [],
      "stateMutability": "nonpayable",
      "type": "function"
    },
    {
      "inputs": [
        {
          "internalType": "address",
          "name": "_toAddress",
          "type": "address"
        },
        {
          "internalType": "uint256",
          "name": "_amountOfTokens",
          "type": "uint256"
        }
      ],
      "name": "transfer",
      "outputs": [
        {
          "internalType": "bool",
          "name": "",
          "type": "bool"
        }
      ],
      "stateMutability": "nonpayable",
      "type": "function"
    },
    {
      "inputs": [
        {
          "internalType": "address",
          "name": "_fromAddress",
          "type": "address"
        },
        {
          "internalType": "address",
          "name": "_toAddress",
          "type": "address"
        },
        {
          "internalType": "uint256",
          "name": "_amountOfTokens",
          "type": "uint256"
        }
      ],
      "name": "transferFrom",
      "outputs": [
        {
          "internalType": "bool",
          "name": "",
          "type": "bool"
        }
      ],
      "stateMutability": "nonpayable",
      "type": "function"
    },
    {
      "inputs": [],
      "name": "getETHBalance",
      "outputs": [
        {
          "internalType": "uint256",
          "name": "",
          "type": "uint256"
        }
      ],
      "stateMutability": "view",
      "type": "function",
      "constant": true
    },
    {
      "inputs": [],
      "name": "myTokens",
      "outputs": [
        {
          "internalType": "uint256",
          "name": "",
          "type": "uint256"
        }
      ],
      "stateMutability": "view",
      "type": "function",
      "constant": true
    },
    {
      "inputs": [
        {
          "internalType": "bool",
          "name": "_includeReferralBonus",
          "type": "bool"
        },
        {
          "internalType": "address",
          "name": "_customerAddress",
          "type": "address"
        }
      ],
      "name": "myDividends",
      "outputs": [
        {
          "internalType": "uint256",
          "name": "",
          "type": "uint256"
        }
      ],
      "stateMutability": "view",
      "type": "function",
      "constant": true
    },
    {
      "inputs": [
        {
          "internalType": "address",
          "name": "_customerAddress",
          "type": "address"
        }
      ],
      "name": "dividendsOf",
      "outputs": [
        {
          "internalType": "uint256",
          "name": "",
          "type": "uint256"
        }
      ],
      "stateMutability": "view",
      "type": "function",
      "constant": true
    },
    {
      "inputs": [],
      "name": "sellPrice",
      "outputs": [
        {
          "internalType": "uint256",
          "name": "",
          "type": "uint256"
        }
      ],
      "stateMutability": "view",
      "type": "function",
      "constant": true
    },
    {
      "inputs": [],
      "name": "buyPrice",
      "outputs": [
        {
          "internalType": "uint256",
          "name": "",
          "type": "uint256"
        }
      ],
      "stateMutability": "view",
      "type": "function",
      "constant": true
    },
    {
      "inputs": [
        {
          "internalType": "uint256",
          "name": "_ethereumToSpend",
          "type": "uint256"
        }
      ],
      "name": "calculateTokenOut",
      "outputs": [
        {
          "internalType": "uint256",
          "name": "",
          "type": "uint256"
        }
      ],
      "stateMutability": "view",
      "type": "function",
      "constant": true
    },
    {
      "inputs": [
        {
          "internalType": "uint256",
          "name": "_tokensToSell",
          "type": "uint256"
        }
      ],
      "name": "calculateEthereumOut",
      "outputs": [
        {
          "internalType": "uint256",
          "name": "",
          "type": "uint256"
        }
      ],
      "stateMutability": "view",
      "type": "function",
      "constant": true
    },
    {
      "inputs": [
        {
          "internalType": "uint256",
          "name": "_ethereumIn",
          "type": "uint256"
        }
      ],
      "name": "calculateTokenIn",
      "outputs": [
        {
          "internalType": "uint256",
          "name": "",
          "type": "uint256"
        }
      ],
      "stateMutability": "view",
      "type": "function",
      "constant": true
    },
    {
      "inputs": [
        {
          "internalType": "uint256",
          "name": "_tokenOut",
          "type": "uint256"
        }
      ],
      "name": "calculateEthereumIn",
      "outputs": [
        {
          "internalType": "uint256",
          "name": "",
          "type": "uint256"
        }
      ],
      "stateMutability": "view",
      "type": "function",
      "constant": true
    },
    {
      "inputs": [
        {
          "internalType": "uint256",
          "name": "_token",
          "type": "uint256"
        }
      ],
      "name": "tokensToEthereum_",
      "outputs": [
        {
          "internalType": "uint256",
          "name": "",
          "type": "uint256"
        }
      ],
      "stateMutability": "view",
      "type": "function",
      "constant": true
    },
    {
      "inputs": [
        {
          "internalType": "uint256",
          "name": "_token",
          "type": "uint256"
        }
      ],
      "name": "getEtherumInputOfTokenOutput",
      "outputs": [
        {
          "internalType": "uint256",
          "name": "",
          "type": "uint256"
        }
      ],
      "stateMutability": "view",
      "type": "function",
      "constant": true
    },
    {
      "inputs": [
        {
          "internalType": "uint256",
          "name": "_ethereum",
          "type": "uint256"
        }
      ],
      "name": "getTokenInputOfEthereumOutput",
      "outputs": [
        {
          "internalType": "uint256",
          "name": "",
          "type": "uint256"
        }
      ],
      "stateMutability": "view",
      "type": "function",
      "constant": true
    },
    {
      "inputs": [
        {
          "internalType": "uint256",
          "name": "_amountIn",
          "type": "uint256"
        },
        {
          "internalType": "address",
          "name": "_tokenIn",
          "type": "address"
        }
      ],
      "name": "getAmountOut",
      "outputs": [
        {
          "internalType": "uint256",
          "name": "",
          "type": "uint256"
        }
      ],
      "stateMutability": "view",
      "type": "function",
      "constant": true
    },
    {
      "inputs": [
        {
          "internalType": "uint256",
          "name": "_amountOut",
          "type": "uint256"
        },
        {
          "internalType": "address",
          "name": "_tokenOut",
          "type": "address"
        }
      ],
      "name": "getAmountIn",
      "outputs": [
        {
          "internalType": "uint256",
          "name": "",
          "type": "uint256"
        }
      ],
      "stateMutability": "view",
      "type": "function",
      "constant": true
    },
    {
      "inputs": [
        {
          "internalType": "uint256",
          "name": "x",
          "type": "uint256"
        }
      ],
      "name": "sqrt",
      "outputs": [
        {
          "internalType": "uint256",
          "name": "y",
          "type": "uint256"
        }
      ],
      "stateMutability": "pure",
      "type": "function",
      "constant": true
    }
  ],
  "bytecode": "0x60806040526802b5e3af16b18800006006553480156200001e57600080fd5b50604051806040016040528060088152602001671119519a561093d560c21b81525060405180604001604052806004815260200163161093d560e21b81525081600390816200006e91906200019b565b5060046200007d82826200019b565b5050506200009a62000094620000a060201b60201c565b620000a4565b62000267565b3390565b600580546001600160a01b038381166001600160a01b0319831681179093556040519116919082907f8be0079c531659141344cd1fd0a4f28419497f9722a3daafe3b4186f6b6457e090600090a35050565b634e487b7160e01b600052604160045260246000fd5b600181811c908216806200012157607f821691505b6020821081036200014257634e487b7160e01b600052602260045260246000fd5b50919050565b601f8211156200019657600081815260208120601f850160051c81016020861015620001715750805b601f850160051c820191505b8181101562000192578281556001016200017d565b5050505b505050565b81516001600160401b03811115620001b757620001b7620000f6565b620001cf81620001c884546200010c565b8462000148565b602080601f831160018114620002075760008415620001ee5750858301515b600019600386901b1c1916600185901b17855562000192565b600085815260208120601f198616915b82811015620002385788860151825594840194600190910190840162000217565b5085821015620002575787850151600019600388901b60f8161c191681555b5050505050600190811b01905550565b6126cf80620002776000396000f3fe6080604052600436106102965760003560e01c80638620410b1161015a578063c4c1b39a116100c1578063e1456cb41161007a578063e1456cb414610793578063e9fad8ee146107c0578063f140a35a146107d5578063f2fde38b146107f5578063f9fbfb4f14610815578063fdb5a03e14610835576102ba565b8063c4c1b39a146106e5578063c664f7f1146106fe578063cb8cd7cb1461072b578063cce7ec1314610740578063d79875eb14610753578063dd62ed3e14610773576102ba565b80639e46db5e116101135780639e46db5e14610630578063a0cd956514610650578063a457c2d714610665578063a9059cbb14610685578063b4101365146106a5578063bf3b397b146106c5576102ba565b80638620410b146105895780638da5cb5b1461059e5780638e72267a146105c6578063949e8acd146105e657806395d89b41146105fb5780639d40608314610610576102ba565b80633ccfd60b116101fe5780636e947298116101b75780636e947298146104eb57806370a08231146104fe578063710b318b1461051e578063712e8ab614610534578063715018a61461055457806379cc679014610569576102ba565b80633ccfd60b1461044b57806342966c68146104605780634b7503341461048057806356d399e814610495578063642ad54a146104ab578063677342ce146104cb576102ba565b806319123c1f1161025057806319123c1f146103a35780632290d6e2146103bb57806323b872dd146103e25780632b38ee5614610402578063313ce56714610417578063395093511461042b576102ba565b806265318b146102d057806306fdde0314610303578063095ea7b3146103255780630ea8e5ac146103555780631125f13f1461036e57806318160ddd1461038e576102ba565b366102ba576102b8346102b16005546001600160a01b031690565b600161084a565b005b6102b8346102b16005546001600160a01b031690565b3480156102dc57600080fd5b506102f06102eb3660046122fb565b610b55565b6040519081526020015b60405180910390f35b34801561030f57600080fd5b50610318610ba4565b6040516102fa9190612316565b34801561033157600080fd5b50610345610340366004612364565b610c36565b60405190151581526020016102fa565b34801561036157600080fd5b506102f06402540be40081565b34801561037a57600080fd5b506102f061038936600461238e565b610c4e565b34801561039a57600080fd5b506002546102f0565b3480156103af57600080fd5b506102f0600160401b81565b3480156103c757600080fd5b506103d0600a81565b60405160ff90911681526020016102fa565b3480156103ee57600080fd5b506103456103fd3660046123ba565b610c80565b34801561040e57600080fd5b506103d0600481565b34801561042357600080fd5b5060126103d0565b34801561043757600080fd5b50610345610446366004612364565b610eed565b34801561045757600080fd5b506102b8610f0f565b34801561046c57600080fd5b506102b861047b3660046123f6565b611041565b34801561048c57600080fd5b506102f061104e565b3480156104a157600080fd5b506102f060065481565b3480156104b757600080fd5b506102f06104c636600461240f565b6110b6565b3480156104d757600080fd5b506102f06104e63660046123f6565b6110f7565b3480156104f757600080fd5b50476102f0565b34801561050a57600080fd5b506102f06105193660046122fb565b611150565b34801561052a57600080fd5b506102f060095481565b34801561054057600080fd5b506102f061054f3660046123f6565b61116b565b34801561056057600080fd5b506102b861119b565b34801561057557600080fd5b506102b8610584366004612364565b6111af565b34801561059557600080fd5b506102f06111c8565b3480156105aa57600080fd5b506005546040516001600160a01b0390911681526020016102fa565b3480156105d257600080fd5b506102f06105e13660046123f6565b611223565b3480156105f257600080fd5b506102f0611385565b34801561060757600080fd5b50610318611397565b34801561061c57600080fd5b506102f061062b3660046123f6565b6113a6565b34801561063c57600080fd5b506102f061064b3660046123f6565b6114d3565b34801561065c57600080fd5b506103d0602181565b34801561067157600080fd5b50610345610680366004612364565b6114fc565b34801561069157600080fd5b506103456106a0366004612364565b611582565b3480156106b157600080fd5b506102f06106c03660046123f6565b6116b4565b3480156106d157600080fd5b506102f06106e03660046123f6565b6116f8565b3480156106f157600080fd5b506102f064174876e80081565b34801561070a57600080fd5b506102f06107193660046122fb565b60076020526000908152604090205481565b34801561073757600080fd5b506103d0600081565b6102b861074e366004612364565b6117ed565b34801561075f57600080fd5b506102b861076e366004612440565b6117fd565b34801561077f57600080fd5b506102f061078e366004612462565b611981565b34801561079f57600080fd5b506102f06107ae3660046122fb565b60086020526000908152604090205481565b3480156107cc57600080fd5b506102b86119ac565b3480156107e157600080fd5b506102f06107f036600461238e565b6119d3565b34801561080157600080fd5b506102b86108103660046122fb565b6119f7565b34801561082157600080fd5b506102f06108303660046123f6565b611a6d565b34801561084157600080fd5b506102b8611a9b565b60003381610864606461085e88600a611b97565b90611ba3565b90506000610878606461085e846021611b97565b905060006108868383611baf565b905060006108948985611baf565b905060006108a182611bbb565b905060006108b384600160401b611b97565b90506000821180156108cf57506002546108cd8382611cd1565b115b6109105760405162461bcd60e51b815260206004820152600d60248201526c6572726f72207265717569726560981b60448201526064015b60405180910390fd5b8189111561096c5760405162461bcd60e51b815260206004820152602360248201527f6d696e20746f6b656e206f7574206c65737320616d6f756e7420746f6b656e206044820152621bdd5d60ea1b6064820152608401610907565b6001600160a01b038a16158015906109965750866001600160a01b03168a6001600160a01b031614155b80156109ac57506006546109a98b611150565b10155b156109f2576001600160a01b038a166000908152600760205260409020546109d49086611cd1565b6001600160a01b038b16600090815260076020526040902055610a0f565b6109fc8486611cd1565b9350610a0c84600160401b611b97565b90505b6000610a1a60025490565b1115610a9a57610a44610a3683610a3060025490565b90611cd1565b61085e86600160401b611b97565b60096000828254610a559190612494565b90915550610a979050610a90610a89610a82610a7486610a3060025490565b61085e89600160401b611b97565b8590611b97565b8390611baf565b8290611baf565b90505b610aa48783611cdd565b60008183600954610ab591906124a7565b610abf91906124d7565b6001600160a01b038916600090815260086020526040812080549293508392909190610aec9084906124fe565b9091555050604080518d8152600060208201819052818301526060810185905290516001600160a01b038a169182917fd78ad95fa46c994b6551d0da85fc275fe613ce37657fb8d5e3d130840159d8229181900360800190a350909a9950505050505050505050565b6001600160a01b038116600090815260086020526040812054600160401b90610b7d84611150565b600954610b8a9190612526565b610b9491906124d7565b610b9e919061253d565b92915050565b606060038054610bb39061255f565b80601f0160208091040260200160405190810160405280929190818152602001828054610bdf9061255f565b8015610c2c5780601f10610c0157610100808354040283529160200191610c2c565b820191906000526020600020905b815481529060010190602001808311610c0f57829003601f168201915b5050505050905090565b600033610c44818585611d9c565b5060019392505050565b6000306001600160a01b03831603610c7057610c698361116b565b9050610b9e565b610c79836114d3565b9392505050565b6000610c8b84611150565b821115610cd15760405162461bcd60e51b815260206004820152601460248201527334b73b30b634b21030b6b7bab73a103a37b5b2b760611b6044820152606401610907565b6000610cde6001866110b6565b1115610dfe57836000610cf181836110b6565b9050610d0181600160401b611b97565b6001600160a01b03831660009081526008602052604081208054909190610d299084906124fe565b90915550506001600160a01b038216600090815260076020526040902054610d52908290611cd1565b6001600160a01b0383166000908152600760205260408120559050610d7f6005546001600160a01b031690565b6001600160a01b03166108fc829081150290604051600060405180830381858888f19350505050158015610db7573d6000803e3d6000fd5b50816001600160a01b03167fccad973dcd043c7d680389db4378bd6b9775db7124092e9e0422c9e46d7985dc82604051610df391815260200190565b60405180910390a250505b6000610e0f606461085e8584611b97565b90506000610e1d8483611baf565b90506000610e2a836116f8565b9050610e368784611ec0565b610e41878784611ff2565b50600954610e4f9086611b97565b6001600160a01b03881660009081526008602052604081208054909190610e779084906124d7565b9091555050600954610e899083611b97565b6001600160a01b03871660009081526008602052604081208054909190610eb19084906124fe565b90915550610edd9050610ed4610ec660025490565b61085e84600160401b611b97565b60095490611cd1565b6009555060019695505050505050565b600033610c44818585610f008383611981565b610f0a9190612494565b611d9c565b6000610f1c6001336110b6565b11610f2657600080fd5b336000610f3381836110b6565b9050610f4381600160401b611b97565b6001600160a01b03831660009081526008602052604081208054909190610f6b9084906124fe565b90915550506001600160a01b038216600090815260076020526040902054610f94908290611cd1565b6001600160a01b0383166000908152600760205260408120559050610fc16005546001600160a01b031690565b6001600160a01b03166108fc829081150290604051600060405180830381858888f19350505050158015610ff9573d6000803e3d6000fd5b50816001600160a01b03167fccad973dcd043c7d680389db4378bd6b9775db7124092e9e0422c9e46d7985dc8260405161103591815260200190565b60405180910390a25050565b61104b3382611ec0565b50565b600061105960025490565b6000036110795761107464174876e8006402540be400611baf565b905090565b600061108c670de0b6b3a76400006116f8565b905060006110a0606461085e846004611b97565b905060006110ae8383611baf565b949350505050565b6000826110cb576110c682610b55565b610c79565b6001600160a01b0382166000908152600760205260409020546110ed83610b55565b610c799190612494565b6000806002611107846001612494565b611111919061253d565b90508291505b8181101561114a5790508060028161112f818661253d565b6111399190612494565b611143919061253d565b9050611117565b50919050565b6001600160a01b031660009081526020819052604090205490565b600080611177836113a6565b905060006110ae606461119561118e82600a611baf565b8590611ba3565b90611b97565b6111a361200b565b6111ad6000612065565b565b6111ba8233836120b7565b6111c48282611ec0565b5050565b60006111d360025490565b6000036111ee5761107464174876e8006402540be400611cd1565b6000611201670de0b6b3a76400006116f8565b90506000611215606461085e84600a611b97565b905060006110ae8383611cd1565b60008160000361123557506000919050565b600061124060025490565b61125290670de0b6b3a7640000612494565b90506000836112676402540be4006002612526565b6112719190612526565b60026402540be400670de0b6b3a764000061128c8683612526565b611296919061253d565b64174876e8006112b3671bc16d674ec800006402540be40061253d565b6112bd9190612494565b6112c79190612494565b6112d19190612593565b6112db919061268a565b6112e59190612593565b905060006402540be4006112f8836110f7565b6402540be400670de0b6b3a76400006113118783612526565b61131b919061253d565b64174876e800611338671bc16d674ec800006402540be40061253d565b6113429190612494565b61134c9190612494565b6113569190612593565b6113609190612593565b61137290670de0b6b3a7640000612526565b61137c919061253d565b95945050505050565b60003361139181611150565b91505090565b606060048054610bb39061255f565b6000816000036113b857506000919050565b60006113d164174876e800670de0b6b3a7640000612526565b905060006113de60025490565b905060006113f26402540be4006002612526565b61140b906ec097ce7bc90715b34b9f1000000000612526565b828461141d6402540be4006002612526565b6114279190612526565b6114319190612526565b61143c60028561268a565b61144c60026402540be40061268a565b6114569190612526565b6114608589612494565b6402540be400611471886002612526565b61147b9190612526565b6114859190612526565b6002611491878b612494565b61149b919061268a565b6114ab60026402540be40061268a565b6114b59190612526565b6114bf9190612494565b6114c99190612593565b6113729190612593565b60006114ef6114e460646004611baf565b61085e846064611b97565b91506000610c7983611223565b6000338161150a8286611981565b90508381101561156a5760405162461bcd60e51b815260206004820152602560248201527f45524332303a2064656372656173656420616c6c6f77616e63652062656c6f77604482015264207a65726f60d81b6064820152608401610907565b6115778286868403611d9c565b506001949350505050565b60008061158d611385565b1161159757600080fd5b336115a181611150565b8311156115e75760405162461bcd60e51b815260206004820152601460248201527334b73b30b634b21030b6b7bab73a103a37b5b2b760611b6044820152606401610907565b60006115f46001836110b6565b111561160257611602610f0f565b6000611613606461085e8684611b97565b905060006116218583611baf565b9050600061162e836116f8565b905061163a8484611ec0565b6116448783612131565b506009546116529087611b97565b6001600160a01b0385166000908152600860205260408120805490919061167a9084906124d7565b909155505060095461168c9083611b97565b6001600160a01b03881660009081526008602052604081208054909190610eb19084906124fe565b60006116bf60025490565b8211156116cb57600080fd5b60006116d6836116f8565b905060006116ea606461085e846004611b97565b9050600061137c8383611baf565b60008160000361170a57506000919050565b600061171e83670de0b6b3a7640000612494565b9050600061172b60025490565b61173d90670de0b6b3a7640000612494565b9050600061137c670de0b6b3a764000061085e6002828761175e838261268a565b6117689190612593565b611772919061253d565b611781906402540be400612526565b61178b919061253d565b61179d87670de0b6b3a7640000611baf565b6402540be4006117b588670de0b6b3a7640000611ba3565b6117c4906402540be400612526565b6117d39064174876e800612494565b6117dd9190612593565b6117e79190612526565b90611baf565b6117f834838361084a565b505050565b6000611807611385565b1161181157600080fd5b3361181b81611150565b83111561182e5761182b81611150565b92505b6000611839846116f8565b9050600061184d606461085e846004611b97565b9050600061185b8383611baf565b9050808511156118ad5760405162461bcd60e51b815260206004820152601c60248201527f6d696e4554484f7574206c657373207461786564457468657265756d000000006044820152606401610907565b6118b78487611ec0565b60006118d76118ca83600160401b611b97565b600954610a30908a611b97565b6001600160a01b0386166000908152600860205260408120805492935083929091906119049084906124d7565b90915550506002541561192457611920610ed4610a3660025490565b6009555b604080516000808252602082018a9052818301859052606082015290516001600160a01b0387169182917fd78ad95fa46c994b6551d0da85fc275fe613ce37657fb8d5e3d130840159d8229181900360800190a350505050505050565b6001600160a01b03918216600090815260016020908152604080832093909416825291909152205490565b3360006119b882611150565b905080156119cb576119cb8160016117fd565b6111c4610f0f565b6000306001600160a01b038316036119ee57610c69836116b4565b610c7983611a6d565b6119ff61200b565b6001600160a01b038116611a645760405162461bcd60e51b815260206004820152602660248201527f4f776e61626c653a206e6577206f776e657220697320746865207a65726f206160448201526564647265737360d01b6064820152608401610907565b61104b81612065565b600080611a80606461085e85600a611b97565b90506000611a8e8483611baf565b9050600061137c82611bbb565b6000611aa86001336110b6565b11611ab257600080fd5b6000611abf6000336110b6565b905033611ad082600160401b611b97565b6001600160a01b03821660009081526008602052604081208054909190611af89084906124fe565b90915550506001600160a01b038116600090815260076020526040902054611b21908390611cd1565b6001600160a01b0382166000908152600760205260408120819055909250611b4b8382600161084a565b60408051858152602081018390529192506001600160a01b038416917fbe339fc14b041c2b0e0f3dd2cd325d0c3668b78378001e53160eab3615326458910160405180910390a2505050565b6000610c798284612526565b6000610c79828461253d565b6000610c798284612593565b600081600003611bcd57506000919050565b6000611be664174876e800670de0b6b3a7640000612526565b90506000611bf360025490565b6402540be400611cbd846117e7611c0960025490565b87611c1a6402540be4006002612526565b611c249190612526565b611c2e9190612526565b60028054611c3c919061268a565b611c4c60026402540be40061268a565b611c569190612526565b611c688b670de0b6b3a7640000612526565b611c7f6402540be400670de0b6b3a7640000612526565b611c8a906002612526565b611c949190612526565b611c9f60028b61268a565b611ca99190612494565b611cb39190612494565b6104e69190612494565b611cc7919061253d565b6110ae9190612593565b6000610c798284612494565b6001600160a01b038216611d335760405162461bcd60e51b815260206004820152601f60248201527f45524332303a206d696e7420746f20746865207a65726f2061646472657373006044820152606401610907565b8060026000828254611d459190612494565b90915550506001600160a01b038216600081815260208181526040808320805486019055518481527fddf252ad1be2c89b69c2b068fc378daa952ba7f163c4a11628f55a4df523b3ef910160405180910390a35050565b6001600160a01b038316611dfe5760405162461bcd60e51b8152602060048201526024808201527f45524332303a20617070726f76652066726f6d20746865207a65726f206164646044820152637265737360e01b6064820152608401610907565b6001600160a01b038216611e5f5760405162461bcd60e51b815260206004820152602260248201527f45524332303a20617070726f766520746f20746865207a65726f206164647265604482015261737360f01b6064820152608401610907565b6001600160a01b0383811660008181526001602090815260408083209487168084529482529182902085905590518481527f8c5be1e5ebec7d5bd14f71427d1e84f3dd0314c0f7b2291e5b200ac8c7c3b925910160405180910390a3505050565b6001600160a01b038216611f205760405162461bcd60e51b815260206004820152602160248201527f45524332303a206275726e2066726f6d20746865207a65726f206164647265736044820152607360f81b6064820152608401610907565b6001600160a01b03821660009081526020819052604090205481811015611f945760405162461bcd60e51b815260206004820152602260248201527f45524332303a206275726e20616d6f756e7420657863656564732062616c616e604482015261636560f01b6064820152608401610907565b6001600160a01b0383166000818152602081815260408083208686039055600280548790039055518581529192917fddf252ad1be2c89b69c2b068fc378daa952ba7f163c4a11628f55a4df523b3ef910160405180910390a3505050565b6000336120008582856120b7565b61157785858561213b565b6005546001600160a01b031633146111ad5760405162461bcd60e51b815260206004820181905260248201527f4f776e61626c653a2063616c6c6572206973206e6f7420746865206f776e65726044820152606401610907565b600580546001600160a01b038381166001600160a01b0319831681179093556040519116919082907f8be0079c531659141344cd1fd0a4f28419497f9722a3daafe3b4186f6b6457e090600090a35050565b60006120c38484611981565b9050600019811461212b578181101561211e5760405162461bcd60e51b815260206004820152601d60248201527f45524332303a20696e73756666696369656e7420616c6c6f77616e63650000006044820152606401610907565b61212b8484848403611d9c565b50505050565b600033610c448185855b6001600160a01b03831661219f5760405162461bcd60e51b815260206004820152602560248201527f45524332303a207472616e736665722066726f6d20746865207a65726f206164604482015264647265737360d81b6064820152608401610907565b6001600160a01b0382166122015760405162461bcd60e51b815260206004820152602360248201527f45524332303a207472616e7366657220746f20746865207a65726f206164647260448201526265737360e81b6064820152608401610907565b6001600160a01b038316600090815260208190526040902054818110156122795760405162461bcd60e51b815260206004820152602660248201527f45524332303a207472616e7366657220616d6f756e7420657863656564732062604482015265616c616e636560d01b6064820152608401610907565b6001600160a01b03848116600081815260208181526040808320878703905593871680835291849020805487019055925185815290927fddf252ad1be2c89b69c2b068fc378daa952ba7f163c4a11628f55a4df523b3ef910160405180910390a361212b565b80356001600160a01b03811681146122f657600080fd5b919050565b60006020828403121561230d57600080fd5b610c79826122df565b600060208083528351808285015260005b8181101561234357858101830151858201604001528201612327565b506000604082860101526040601f19601f8301168501019250505092915050565b6000806040838503121561237757600080fd5b612380836122df565b946020939093013593505050565b600080604083850312156123a157600080fd5b823591506123b1602084016122df565b90509250929050565b6000806000606084860312156123cf57600080fd5b6123d8846122df565b92506123e6602085016122df565b9150604084013590509250925092565b60006020828403121561240857600080fd5b5035919050565b6000806040838503121561242257600080fd5b8235801515811461243257600080fd5b91506123b1602084016122df565b6000806040838503121561245357600080fd5b50508035926020909101359150565b6000806040838503121561247557600080fd5b612432836122df565b634e487b7160e01b600052601160045260246000fd5b80820180821115610b9e57610b9e61247e565b80820260008212600160ff1b841416156124c3576124c361247e565b8181058314821517610b9e57610b9e61247e565b81810360008312801583831316838312821617156124f7576124f761247e565b5092915050565b808201828112600083128015821682158216171561251e5761251e61247e565b505092915050565b8082028115828204841417610b9e57610b9e61247e565b60008261255a57634e487b7160e01b600052601260045260246000fd5b500490565b600181811c9082168061257357607f821691505b60208210810361114a57634e487b7160e01b600052602260045260246000fd5b81810381811115610b9e57610b9e61247e565b600181815b808511156125e15781600019048211156125c7576125c761247e565b808516156125d457918102915b93841c93908002906125ab565b509250929050565b6000826125f857506001610b9e565b8161260557506000610b9e565b816001811461261b576002811461262557612641565b6001915050610b9e565b60ff8411156126365761263661247e565b50506001821b610b9e565b5060208310610133831016604e8410600b8410161715612664575081810a610b9e565b61266e83836125a6565b80600019048211156126825761268261247e565b029392505050565b6000610c7960ff8416836125e956fea264697066735822122090ad2f86cb9881281f427becef47990d4e5b210d1ab0970550682cf0d9ab0b6764736f6c63430008110033",
  "immutableReferences": {},
  "source": "// SPDX-License-Identifier: MIT\npragma solidity >=0.6.12;\n\nimport \"@openzeppelin/contracts/utils/math/SafeMath.sol\";\nimport \"@openzeppelin/contracts/token/ERC20/IERC20.sol\";\nimport \"@openzeppelin/contracts/token/ERC20/ERC20.sol\";\nimport \"@openzeppelin/contracts/token/ERC20/extensions/ERC20Burnable.sol\";\nimport \"@openzeppelin/contracts/utils/Context.sol\";\nimport \"@openzeppelin/contracts/access/Ownable.sol\";\n\ncontract XBOT is ERC20Burnable, Ownable {\n    using SafeMath for uint256;\n\n    modifier onlyBagholders {\n        require(myTokens() > 0);\n        _;\n    }\n\n    modifier onlyStronghands {\n        require(myDividends(true, msg.sender) > 0);\n        _;\n    }\n\n    event Swap (\n        address indexed sender,\n        uint256 amount0In, \n        uint256 amount1In, \n        uint256 amount0Out, \n        uint256 amount1Out, \n        address indexed to);\n\n    // event onTokenPurchase(\n    //     address indexed customerAddress,\n    //     uint256 incomingEthereum,\n    //     uint256 tokensMinted,\n    //     address indexed referredBy,\n    //     uint timestamp,\n    //     uint256 price\n\t// );\n\n    // event onTokenSell(\n    //     address indexed customerAddress,\n    //     uint256 tokensBurned,\n    //     uint256 ethereumEarned,\n    //     uint timestamp,\n    //     uint256 price\n\t// );\n\n    event onReinvestment(\n        address indexed customerAddress,\n        uint256 ethereumReinvested,\n        uint256 tokensMinted\n\t);\n\n    event onWithdraw(\n        address indexed customerAddress,\n        uint256 ethereumWithdrawn\n\t);\n\n    uint8 constant public entryFee_ = 10;\n    uint8 constant public transferFee_ = 0;\n    uint8 constant public exitFee_ = 4;\n    uint8 constant public refferalFee_ = 33;\n    uint256 constant public tokenPriceInitial_ = 0.0000001 ether;\n    uint256 constant public tokenPriceIncremental_ = 0.00000001 ether;\n    uint256 constant public magnitude = 2 ** 64;\n    uint256 public stakingRequirement = 50e18;\n    mapping(address => uint256) public referralBalance_;\n    mapping(address => int256) public payoutsTo_;\n    uint256 public profitPerShare_;\n\n    constructor(\n    ) ERC20(\"DeFiXBOT\", \"XBOT\") {\n    }\n\n    function buy(address _referredBy, uint256 minTokenOut) public payable{\n        purchaseTokens(msg.value, _referredBy, minTokenOut);\n    }\n\n    receive() external payable  { \n        purchaseTokens(msg.value, owner(), 1);\n    }\n\n    fallback() external payable{\n        purchaseTokens(msg.value, owner(), 1);\n    }\n\n    function reinvest() onlyStronghands public {\n        uint256 _dividends = myDividends(false, msg.sender);\n        address _customerAddress = msg.sender;\n        payoutsTo_[_customerAddress] +=  int256(_dividends.mul(magnitude));\n        _dividends = _dividends.add(referralBalance_[_customerAddress]);\n        referralBalance_[_customerAddress] = 0;\n        uint256 _tokens = purchaseTokens(_dividends, address(0), 1);\n        emit onReinvestment(_customerAddress, _dividends, _tokens);\n    }\n\n    function exit() public {\n        address _customerAddress = msg.sender;\n        uint256 _tokens = balanceOf(_customerAddress);\n        if (_tokens > 0) sell(_tokens, 1);\n        withdraw();\n    }\n\n    function withdraw() onlyStronghands public {\n        address _customerAddress = msg.sender;\n        uint256 _dividends = myDividends(false, _customerAddress);\n        payoutsTo_[_customerAddress] += int256(_dividends.mul(magnitude));\n        _dividends = _dividends.add(referralBalance_[_customerAddress]);\n        referralBalance_[_customerAddress] = 0;\n        payable(owner()).transfer(_dividends);\n        emit onWithdraw(_customerAddress, _dividends);\n    }\n\n    function sell(uint256 _amountOfTokens, uint256 minETHOut) onlyBagholders public {\n        address _customerAddress = msg.sender;\n        if(_amountOfTokens > balanceOf(_customerAddress)) {\n            _amountOfTokens = balanceOf(_customerAddress);\n        }\n        uint256 _ethereum = tokensToEthereum_(_amountOfTokens);\n        uint256 _dividends = _ethereum.mul(exitFee_).div(100);\n        uint256 _taxedEthereum = _ethereum.sub(_dividends);\n        require(minETHOut <= _taxedEthereum, \"minETHOut less taxedEthereum\");\n\n        super._burn(_customerAddress, _amountOfTokens);\n\n        int256 _updatedPayouts = int256(profitPerShare_.mul(_amountOfTokens).add(_taxedEthereum.mul(magnitude)));\n        payoutsTo_[_customerAddress] -= _updatedPayouts;\n\n        if (totalSupply() > 0) {\n            profitPerShare_ = profitPerShare_.add(_dividends.mul(magnitude).div(totalSupply()));\n        }\n        // emit onTokenSell(_customerAddress, _amountOfTokens, _taxedEthereum, block.timestamp, buyPrice());\n        emit Swap(_customerAddress, 0, _amountOfTokens, _taxedEthereum, 0, _customerAddress);\n    }\n\n    function transfer(address _toAddress, uint256 _amountOfTokens) onlyBagholders public override returns (bool) {\n        address _customerAddress = msg.sender;\n        require(_amountOfTokens <= balanceOf(_customerAddress), \"invalid amount token\");\n\n        if (myDividends(true, _customerAddress) > 0) {\n            withdraw();\n        }\n\n        uint256 _tokenFee = _amountOfTokens.mul(transferFee_).div(100);\n        uint256 _taxedTokens = _amountOfTokens.sub(_tokenFee);\n        uint256 _dividends = tokensToEthereum_(_tokenFee);\n        super._burn(_customerAddress, _tokenFee);\n        super.transfer(_toAddress, _taxedTokens);\n\n        payoutsTo_[_customerAddress] -= int256(profitPerShare_.mul(_amountOfTokens));\n        payoutsTo_[_toAddress] += int256(profitPerShare_.mul(_taxedTokens));\n        profitPerShare_ = profitPerShare_.add(_dividends.mul(magnitude).div(totalSupply()));\n        return true;\n    }\n\n    function transferFrom(address _fromAddress, address _toAddress, uint256 _amountOfTokens) public override returns (bool) {\n        require(_amountOfTokens <= balanceOf(_fromAddress), \"invalid amount token\");\n        if (myDividends(true, _fromAddress) > 0) {\n            address _customerAddress = _fromAddress;\n            uint256 _dividendsWithdraw = myDividends(false, _customerAddress);\n            payoutsTo_[_customerAddress] += int256(_dividendsWithdraw.mul(magnitude));\n            _dividendsWithdraw = _dividendsWithdraw.add(referralBalance_[_customerAddress]);\n            referralBalance_[_customerAddress] = 0;\n            payable(owner()).transfer(_dividendsWithdraw);\n            emit onWithdraw(_customerAddress, _dividendsWithdraw);\n        }\n\n        uint256 _tokenFee = _amountOfTokens.mul(transferFee_).div(100);\n        uint256 _taxedTokens = _amountOfTokens.sub(_tokenFee);\n        uint256 _dividends = tokensToEthereum_(_tokenFee);\n        super._burn(_fromAddress, _tokenFee);\n        super.transferFrom(_fromAddress, _toAddress, _taxedTokens);\n\n        payoutsTo_[_fromAddress] -= int256(profitPerShare_.mul(_amountOfTokens));\n        payoutsTo_[_toAddress] += int256(profitPerShare_.mul(_taxedTokens));\n        profitPerShare_ = profitPerShare_.add(_dividends.mul(magnitude).div(totalSupply()));\n        return true;\n    }\n\n    function getETHBalance() public view returns (uint256) {\n        return address(this).balance;\n    }\n\n    function myTokens() public view returns (uint256) {\n        address _customerAddress = msg.sender;\n        return balanceOf(_customerAddress);\n    }\n\n    function myDividends(bool _includeReferralBonus, address _customerAddress) public view returns (uint256) {\n        return _includeReferralBonus ? dividendsOf(_customerAddress) + referralBalance_[_customerAddress] : dividendsOf(_customerAddress) ;\n    }\n\n    function dividendsOf(address _customerAddress) public view returns (uint256) {\n        return (uint256) ((int256) (profitPerShare_ * balanceOf(_customerAddress)) - payoutsTo_[_customerAddress]) / magnitude;\n    }\n\n    function sellPrice() public view returns (uint256) {\n        if (totalSupply() == 0) {\n            return tokenPriceInitial_.sub(tokenPriceIncremental_);\n        } else {\n            uint256 _ethereum = tokensToEthereum_(1e18);\n            uint256 _dividends = _ethereum.mul(exitFee_).div(100);\n            uint256 _taxedEthereum = _ethereum.sub(_dividends);\n\n            return _taxedEthereum;\n        }\n    }\n\n    function buyPrice() public view returns (uint256) {\n        if (totalSupply() == 0) {\n            return tokenPriceInitial_.add(tokenPriceIncremental_);\n        } else {\n            uint256 _ethereum = tokensToEthereum_(1e18);\n            uint256 _dividends = _ethereum.mul(entryFee_).div(100);\n            uint256 _taxedEthereum = _ethereum.add(_dividends);\n\n            return _taxedEthereum;\n        }\n    }\n\n    function calculateTokenOut(uint256 _ethereumToSpend) public view returns (uint256) {\n        uint256 _dividends = _ethereumToSpend.mul(entryFee_).div(100);\n        uint256 _taxedEthereum = _ethereumToSpend.sub(_dividends);\n        uint256 _amountOfTokens = ethereumToTokens_(_taxedEthereum);\n        return _amountOfTokens;\n    }\n\n    function calculateEthereumOut(uint256 _tokensToSell) public view returns (uint256) {\n        require(_tokensToSell <= totalSupply());\n        uint256 _ethereum = tokensToEthereum_(_tokensToSell);\n        uint256 _dividends = _ethereum.mul(exitFee_).div(100);\n        uint256 _taxedEthereum = _ethereum.sub(_dividends);\n        return _taxedEthereum;\n    }\n\n    function calculateTokenIn(uint256 _ethereumIn) public view returns (uint256) {\n        _ethereumIn = (_ethereumIn.mul(100)).div(uint256(100).sub(exitFee_));\n        uint256 _amountTokenInput = getTokenInputOfEthereumOutput(_ethereumIn);\n        return _amountTokenInput;\n    }\n   \n    function calculateEthereumIn(uint256 _tokenOut) public view returns(uint256) {\n        uint256 _taxedEthereum = getEtherumInputOfTokenOutput(_tokenOut);\n        uint256 _amountEthereumInput = _taxedEthereum.div(uint256(100).sub(entryFee_)).mul(100);\n        return _amountEthereumInput;\n    }\n\n    function purchaseTokens(uint256 _incomingEthereum, address _referredBy, uint256 minAmountOut) internal returns (uint256) {\n        address _customerAddress = msg.sender;\n        uint256 _undividedDividends = _incomingEthereum.mul(entryFee_).div(100);\n        uint256 _referralBonus = _undividedDividends.mul(refferalFee_).div(100);\n        uint256 _dividends = _undividedDividends.sub(_referralBonus);\n        uint256 _taxedEthereum = _incomingEthereum.sub(_undividedDividends);\n        uint256 _amountOfTokens = ethereumToTokens_(_taxedEthereum);\n        uint256 _fee = uint256(_dividends.mul(magnitude));\n\n        require(_amountOfTokens > 0 && _amountOfTokens.add(totalSupply()) > totalSupply(), \"error require\");\n        require(minAmountOut <= _amountOfTokens, \"min token out less amount token out\");\n        if (\n            _referredBy != address(0) &&\n            _referredBy != _customerAddress &&\n            balanceOf(_referredBy) >= stakingRequirement\n        ) {\n            referralBalance_[_referredBy] = referralBalance_[_referredBy].add(_referralBonus);\n        } else {\n            _dividends = _dividends.add(_referralBonus);\n            _fee = uint256(_dividends.mul(magnitude));\n        }\n\n        if (totalSupply() > 0) {\n            profitPerShare_ += (_dividends.mul(magnitude).div(totalSupply().add(_amountOfTokens)));\n            _fee = _fee.sub(_fee.sub(_amountOfTokens.mul(_dividends.mul(magnitude).div(totalSupply().add(_amountOfTokens)))));\n        }\n\n        _mint(_customerAddress, _amountOfTokens);\n        \n        int256 _updatedPayouts = int256(profitPerShare_) * int256(_amountOfTokens) - int256(_fee);\n        payoutsTo_[_customerAddress] += _updatedPayouts;\n\n        // emit onTokenPurchase(_customerAddress, _incomingEthereum, _amountOfTokens, _referredBy, block.timestamp, buyPrice());\n        emit Swap(_customerAddress, _incomingEthereum, 0, 0, _amountOfTokens, _customerAddress);\n        return _amountOfTokens;\n    }\n\n     function ethereumToTokens_(uint256 _ethereum) internal view returns (uint256) {\n        if(_ethereum == 0) return 0;\n        uint256 _tokenPriceInitial = tokenPriceInitial_ * 1e18;\n        uint256 _tokensReceived =\n            (\n                (\n                    (sqrt\n                        (\n                            (_tokenPriceInitial ** 2)\n                            +\n                            (2 * (tokenPriceIncremental_ * 1e18) * (_ethereum * 1e18))\n                            +\n                            ((tokenPriceIncremental_ ** 2) * (totalSupply() ** 2))\n                            +\n                            (2 * tokenPriceIncremental_ * _tokenPriceInitial*totalSupply())\n                        )\n                    ).sub(_tokenPriceInitial)\n                ) / (tokenPriceIncremental_)\n            ) - (totalSupply());\n\n        return _tokensReceived;\n    }\n\n    function tokensToEthereum_(uint256 _token) public view returns (uint256) {\n        if(_token == 0) return 0;\n        uint256 token_ = _token + 1e18;\n        uint256 _tokenSupply = totalSupply() + 1e18;\n        uint256 _etherReceived =\n            (\n                (\n                    (\n                        (\n                            tokenPriceInitial_ + (tokenPriceIncremental_ * (_tokenSupply.div(1e18)))\n                        ) - tokenPriceIncremental_\n                    ) * (token_.sub(1e18))\n                ).sub(tokenPriceIncremental_ * ((token_ ** 2 - token_) / 1e18) / 2).div(1e18)\n            );\n        return _etherReceived;\n    }\n\n    function getEtherumInputOfTokenOutput(uint256 _token) public view returns (uint256) {\n        if(_token == 0) return 0;\n        uint256 _tokenPriceInitial = tokenPriceInitial_ * 1e18;\n        uint256 _tokenSupply = totalSupply();\n        uint256 _ethereumInput = (\n            ((tokenPriceIncremental_ ** 2) * ((_token + _tokenSupply) ** 2))\n            +\n            (2 * _tokenPriceInitial * tokenPriceIncremental_ * (_token + _tokenSupply))\n            -\n            ((tokenPriceIncremental_ ** 2) * (_tokenSupply ** 2))\n            -\n            (2 * tokenPriceIncremental_ * _tokenPriceInitial * _tokenSupply)\n        ) / (2 * tokenPriceIncremental_ * 1e36);\n\n        return _ethereumInput;\n    }\n    \n    function getTokenInputOfEthereumOutput(uint256 _ethereum) public view returns (uint256) {\n        if(_ethereum == 0) return 0;\n        uint256 _tokenSupply = totalSupply() + 1e18;\n        uint256 detal = \n        (\n            (tokenPriceIncremental_ / (2 * 1e18)) \n            + \n            tokenPriceInitial_ \n            + \n            ((tokenPriceIncremental_ * _tokenSupply) / 1e18) \n            - \n            tokenPriceIncremental_\n        ) ** 2 \n        - \n        (2 * tokenPriceIncremental_ * _ethereum);\n\n        uint256 _tokenInput = \n        (\n            (\n                (tokenPriceIncremental_ / (2 * 1e18)) \n                + \n                tokenPriceInitial_ \n                + \n                ((tokenPriceIncremental_ * _tokenSupply) / 1e18) \n                - \n                tokenPriceIncremental_ \n                - \n                sqrt(detal)\n            ) * 1e18\n        ) / (tokenPriceIncremental_);\n        return _tokenInput;\n    }\n\n    function getAmountOut(uint256 _amountIn, address _tokenIn) public view returns (uint256) {\n        if(_tokenIn == address(this)) {\n            return calculateEthereumOut(_amountIn);\n        }\n        return calculateTokenOut(_amountIn);\n    }\n\n    function getAmountIn(uint256 _amountOut, address _tokenOut) public view returns(uint256) {\n        if(_tokenOut == address(this)) {\n            return calculateEthereumIn(_amountOut);\n        }\n        return calculateTokenIn(_amountOut);\n    }\n\n    function sqrt(uint256 x) public pure returns (uint256 y) {\n        uint256 z = (x + 1) / 2;\n        y = x;\n\n        while (z < y) {\n            y = z;\n            z = (x / z + z) / 2;\n        }\n    }\n}",
  "sourcePath": "/Applications/projects/contracts/contracts/DeFiXBot/XBOT.sol",
  "compiler": {
    "name": "solc",
    "version": "0.8.17+commit.8df45f5f.Emscripten.clang"
  },
  "schemaVersion": "3.4.11",
  "updatedAt": "2023-09-25T09:39:02.838Z",
  "networkType": "ethereum",
  "devdoc": {
    "kind": "dev",
    "methods": {
      "allowance(address,address)": {
        "details": "See {IERC20-allowance}."
      },
      "approve(address,uint256)": {
        "details": "See {IERC20-approve}. NOTE: If `amount` is the maximum `uint256`, the allowance is not updated on `transferFrom`. This is semantically equivalent to an infinite approval. Requirements: - `spender` cannot be the zero address."
      },
      "balanceOf(address)": {
        "details": "See {IERC20-balanceOf}."
      },
      "burn(uint256)": {
        "details": "Destroys `amount` tokens from the caller. See {ERC20-_burn}."
      },
      "burnFrom(address,uint256)": {
        "details": "Destroys `amount` tokens from `account`, deducting from the caller's allowance. See {ERC20-_burn} and {ERC20-allowance}. Requirements: - the caller must have allowance for ``accounts``'s tokens of at least `amount`."
      },
      "decimals()": {
        "details": "Returns the number of decimals used to get its user representation. For example, if `decimals` equals `2`, a balance of `505` tokens should be displayed to a user as `5.05` (`505 / 10 ** 2`). Tokens usually opt for a value of 18, imitating the relationship between Ether and Wei. This is the default value returned by this function, unless it's overridden. NOTE: This information is only used for _display_ purposes: it in no way affects any of the arithmetic of the contract, including {IERC20-balanceOf} and {IERC20-transfer}."
      },
      "decreaseAllowance(address,uint256)": {
        "details": "Atomically decreases the allowance granted to `spender` by the caller. This is an alternative to {approve} that can be used as a mitigation for problems described in {IERC20-approve}. Emits an {Approval} event indicating the updated allowance. Requirements: - `spender` cannot be the zero address. - `spender` must have allowance for the caller of at least `subtractedValue`."
      },
      "increaseAllowance(address,uint256)": {
        "details": "Atomically increases the allowance granted to `spender` by the caller. This is an alternative to {approve} that can be used as a mitigation for problems described in {IERC20-approve}. Emits an {Approval} event indicating the updated allowance. Requirements: - `spender` cannot be the zero address."
      },
      "name()": {
        "details": "Returns the name of the token."
      },
      "owner()": {
        "details": "Returns the address of the current owner."
      },
      "renounceOwnership()": {
        "details": "Leaves the contract without owner. It will not be possible to call `onlyOwner` functions. Can only be called by the current owner. NOTE: Renouncing ownership will leave the contract without an owner, thereby disabling any functionality that is only available to the owner."
      },
      "symbol()": {
        "details": "Returns the symbol of the token, usually a shorter version of the name."
      },
      "totalSupply()": {
        "details": "See {IERC20-totalSupply}."
      },
      "transferOwnership(address)": {
        "details": "Transfers ownership of the contract to a new account (`newOwner`). Can only be called by the current owner."
      }
    },
    "version": 1
  },
  "userdoc": {
    "kind": "user",
    "methods": {},
    "version": 1
  }
}