{
  "contractName": "XBOTData",
  "abi": [
    {
      "inputs": [
        {
          "internalType": "contract IXBOT",
          "name": "xbotContractAddress",
          "type": "address"
        }
      ],
      "stateMutability": "nonpayable",
      "type": "constructor"
    },
    {
      "anonymous": false,
      "inputs": [
        {
          "indexed": true,
          "internalType": "address",
          "name": "previousOwner",
          "type": "address"
        },
        {
          "indexed": true,
          "internalType": "address",
          "name": "newOwner",
          "type": "address"
        }
      ],
      "name": "OwnershipTransferred",
      "type": "event"
    },
    {
      "inputs": [],
      "name": "XBOTContract",
      "outputs": [
        {
          "internalType": "contract IXBOT",
          "name": "",
          "type": "address"
        }
      ],
      "stateMutability": "view",
      "type": "function",
      "constant": true
    },
    {
      "inputs": [],
      "name": "owner",
      "outputs": [
        {
          "internalType": "address",
          "name": "",
          "type": "address"
        }
      ],
      "stateMutability": "view",
      "type": "function",
      "constant": true
    },
    {
      "inputs": [],
      "name": "renounceOwnership",
      "outputs": [],
      "stateMutability": "nonpayable",
      "type": "function"
    },
    {
      "inputs": [
        {
          "internalType": "address",
          "name": "newOwner",
          "type": "address"
        }
      ],
      "name": "transferOwnership",
      "outputs": [],
      "stateMutability": "nonpayable",
      "type": "function"
    },
    {
      "inputs": [
        {
          "internalType": "contract IXBOT",
          "name": "xbotContractAddress",
          "type": "address"
        }
      ],
      "name": "setXbotContract",
      "outputs": [],
      "stateMutability": "nonpayable",
      "type": "function"
    },
    {
      "inputs": [
        {
          "internalType": "bool",
          "name": "includeReferralBonus",
          "type": "bool"
        },
        {
          "internalType": "address",
          "name": "user",
          "type": "address"
        }
      ],
      "name": "getData",
      "outputs": [
        {
          "internalType": "uint256",
          "name": "buyPrice",
          "type": "uint256"
        },
        {
          "internalType": "uint256",
          "name": "sellPrice",
          "type": "uint256"
        },
        {
          "internalType": "uint256",
          "name": "totalSupply",
          "type": "uint256"
        },
        {
          "internalType": "uint256",
          "name": "ethBalanceUser",
          "type": "uint256"
        },
        {
          "internalType": "uint256",
          "name": "myDividends",
          "type": "uint256"
        }
      ],
      "stateMutability": "view",
      "type": "function",
      "constant": true
    }
  ],
  "bytecode": "0x608060405234801561001057600080fd5b5060405161062238038061062283398101604081905261002f916100ad565b6100383361005d565b600180546001600160a01b0319166001600160a01b03929092169190911790556100dd565b600080546001600160a01b038381166001600160a01b0319831681178455604051919092169283917f8be0079c531659141344cd1fd0a4f28419497f9722a3daafe3b4186f6b6457e09190a35050565b6000602082840312156100bf57600080fd5b81516001600160a01b03811681146100d657600080fd5b9392505050565b610536806100ec6000396000f3fe608060405234801561001057600080fd5b50600436106100625760003560e01c8063715018a6146100675780638da5cb5b14610071578063a20c4bed1461009b578063cf6b9759146100ae578063da472a37146100e9578063f2fde38b146100fc575b600080fd5b61006f61010f565b005b6000546001600160a01b03165b6040516001600160a01b0390911681526020015b60405180910390f35b61006f6100a9366004610485565b610123565b6100c16100bc3660046104a9565b61014d565b604080519586526020860194909452928401919091526060830152608082015260a001610092565b60015461007e906001600160a01b031681565b61006f61010a366004610485565b610348565b6101176103c6565b6101216000610420565b565b61012b6103c6565b600180546001600160a01b0319166001600160a01b0392909216919091179055565b6000806000806000600160009054906101000a90046001600160a01b03166001600160a01b0316638620410b6040518163ffffffff1660e01b8152600401602060405180830381865afa1580156101a8573d6000803e3d6000fd5b505050506040513d601f19601f820116820180604052508101906101cc91906104e7565b9450600160009054906101000a90046001600160a01b03166001600160a01b0316634b7503346040518163ffffffff1660e01b8152600401602060405180830381865afa158015610221573d6000803e3d6000fd5b505050506040513d601f19601f8201168201806040525081019061024591906104e7565b9350600160009054906101000a90046001600160a01b03166001600160a01b03166318160ddd6040518163ffffffff1660e01b8152600401602060405180830381865afa15801561029a573d6000803e3d6000fd5b505050506040513d601f19601f820116820180604052508101906102be91906104e7565b6001546040516332156aa560e11b815289151560048201526001600160a01b03898116602483018190529396509231945091169063642ad54a90604401602060405180830381865afa158015610318573d6000803e3d6000fd5b505050506040513d601f19601f8201168201806040525081019061033c91906104e7565b90509295509295909350565b6103506103c6565b6001600160a01b0381166103ba5760405162461bcd60e51b815260206004820152602660248201527f4f776e61626c653a206e6577206f776e657220697320746865207a65726f206160448201526564647265737360d01b60648201526084015b60405180910390fd5b6103c381610420565b50565b6000546001600160a01b031633146101215760405162461bcd60e51b815260206004820181905260248201527f4f776e61626c653a2063616c6c6572206973206e6f7420746865206f776e657260448201526064016103b1565b600080546001600160a01b038381166001600160a01b0319831681178455604051919092169283917f8be0079c531659141344cd1fd0a4f28419497f9722a3daafe3b4186f6b6457e09190a35050565b6001600160a01b03811681146103c357600080fd5b60006020828403121561049757600080fd5b81356104a281610470565b9392505050565b600080604083850312156104bc57600080fd5b823580151581146104cc57600080fd5b915060208301356104dc81610470565b809150509250929050565b6000602082840312156104f957600080fd5b505191905056fea2646970667358221220b735d6c4b9103158688ef6463f9ddedfd76b4fdc24a108719908b71d071cdd9864736f6c63430008110033",
  "immutableReferences": {},
  "source": "// SPDX-License-Identifier: MIT\r\npragma solidity >=0.6.12;\r\n\r\nimport \"@openzeppelin/contracts/access/Ownable.sol\";\r\n\r\ninterface IXBOT {\r\n    function buyPrice() external view returns (uint256);\r\n    function sellPrice() external view returns (uint256);\r\n    function totalSupply() external view returns (uint256);\r\n    function getETHBalance() external view returns (uint256);\r\n    function myDividends(bool _includeReferralBonus, address _customerAddress) external view returns (uint256);\r\n}\r\n\r\ncontract XBOTData is Ownable{\r\n\r\n    IXBOT public XBOTContract;\r\n\r\n    constructor(IXBOT xbotContractAddress) {\r\n        XBOTContract = xbotContractAddress;\r\n    }\r\n\r\n    function setXbotContract(IXBOT xbotContractAddress) public onlyOwner {\r\n        XBOTContract = xbotContractAddress;\r\n    }\r\n\r\n    function getData(bool includeReferralBonus, address user) public view returns (\r\n        uint256 buyPrice,\r\n        uint256 sellPrice,\r\n        uint256 totalSupply,\r\n        uint256 ethBalanceUser,\r\n        uint256 myDividends\r\n    ) {\r\n        buyPrice = XBOTContract.buyPrice();\r\n        sellPrice = XBOTContract.sellPrice();\r\n        totalSupply = XBOTContract.totalSupply();\r\n        ethBalanceUser = user.balance;\r\n        myDividends = XBOTContract.myDividends(includeReferralBonus, user);\r\n    }\r\n}",
  "sourcePath": "E:\\Research\\contracts\\contracts\\DeFiXBot\\XBOTData.sol",
  "compiler": {
    "name": "solc",
    "version": "0.8.17+commit.8df45f5f.Emscripten.clang"
  },
  "schemaVersion": "3.4.11",
  "updatedAt": "2023-10-13T04:47:26.919Z",
  "networkType": "ethereum",
  "devdoc": {
    "kind": "dev",
    "methods": {
      "owner()": {
        "details": "Returns the address of the current owner."
      },
      "renounceOwnership()": {
        "details": "Leaves the contract without owner. It will not be possible to call `onlyOwner` functions. Can only be called by the current owner. NOTE: Renouncing ownership will leave the contract without an owner, thereby disabling any functionality that is only available to the owner."
      },
      "transferOwnership(address)": {
        "details": "Transfers ownership of the contract to a new account (`newOwner`). Can only be called by the current owner."
      }
    },
    "version": 1
  },
  "userdoc": {
    "kind": "user",
    "methods": {},
    "version": 1
  }
}