{
  "contractName": "XBOTData",
  "abi": [
    {
      "inputs": [
        {
          "internalType": "contract IXBOT",
          "name": "xbotContractAddress",
          "type": "address"
        }
      ],
      "stateMutability": "nonpayable",
      "type": "constructor"
    },
    {
      "anonymous": false,
      "inputs": [
        {
          "indexed": true,
          "internalType": "address",
          "name": "previousOwner",
          "type": "address"
        },
        {
          "indexed": true,
          "internalType": "address",
          "name": "newOwner",
          "type": "address"
        }
      ],
      "name": "OwnershipTransferred",
      "type": "event"
    },
    {
      "inputs": [],
      "name": "XBOTContract",
      "outputs": [
        {
          "internalType": "contract IXBOT",
          "name": "",
          "type": "address"
        }
      ],
      "stateMutability": "view",
      "type": "function",
      "constant": true
    },
    {
      "inputs": [],
      "name": "owner",
      "outputs": [
        {
          "internalType": "address",
          "name": "",
          "type": "address"
        }
      ],
      "stateMutability": "view",
      "type": "function",
      "constant": true
    },
    {
      "inputs": [],
      "name": "renounceOwnership",
      "outputs": [],
      "stateMutability": "nonpayable",
      "type": "function"
    },
    {
      "inputs": [
        {
          "internalType": "address",
          "name": "newOwner",
          "type": "address"
        }
      ],
      "name": "transferOwnership",
      "outputs": [],
      "stateMutability": "nonpayable",
      "type": "function"
    },
    {
      "inputs": [
        {
          "internalType": "contract IXBOT",
          "name": "xbotContractAddress",
          "type": "address"
        }
      ],
      "name": "setXbotContract",
      "outputs": [],
      "stateMutability": "nonpayable",
      "type": "function"
    },
    {
      "inputs": [
        {
          "internalType": "bool",
          "name": "includeReferralBonus",
          "type": "bool"
        },
        {
          "internalType": "address",
          "name": "user",
          "type": "address"
        }
      ],
      "name": "getData",
      "outputs": [
        {
          "internalType": "uint256",
          "name": "buyPrice",
          "type": "uint256"
        },
        {
          "internalType": "uint256",
          "name": "sellPrice",
          "type": "uint256"
        },
        {
          "internalType": "uint256",
          "name": "balanceUser",
          "type": "uint256"
        },
        {
          "internalType": "uint256",
          "name": "totalSupply",
          "type": "uint256"
        },
        {
          "internalType": "uint256",
          "name": "ethBalanceUser",
          "type": "uint256"
        },
        {
          "internalType": "uint256",
          "name": "myDividends",
          "type": "uint256"
        }
      ],
      "stateMutability": "view",
      "type": "function",
      "constant": true
    }
  ],
  "bytecode": "0x608060405234801561001057600080fd5b5060405161069838038061069883398101604081905261002f916100ad565b6100383361005d565b600180546001600160a01b0319166001600160a01b03929092169190911790556100dd565b600080546001600160a01b038381166001600160a01b0319831681178455604051919092169283917f8be0079c531659141344cd1fd0a4f28419497f9722a3daafe3b4186f6b6457e09190a35050565b6000602082840312156100bf57600080fd5b81516001600160a01b03811681146100d657600080fd5b9392505050565b6105ac806100ec6000396000f3fe608060405234801561001057600080fd5b50600436106100625760003560e01c8063715018a6146100675780638da5cb5b14610071578063a20c4bed1461009b578063cf6b9759146100ae578063da472a37146100ee578063f2fde38b14610101575b600080fd5b61006f610114565b005b6000546001600160a01b03165b6040516001600160a01b0390911681526020015b60405180910390f35b61006f6100a93660046104fb565b610128565b6100c16100bc36600461051f565b610152565b604080519687526020870195909552938501929092526060840152608083015260a082015260c001610092565b60015461007e906001600160a01b031681565b61006f61010f3660046104fb565b6103be565b61011c61043c565b6101266000610496565b565b61013061043c565b600180546001600160a01b0319166001600160a01b0392909216919091179055565b600080600080600080600160009054906101000a90046001600160a01b03166001600160a01b0316638620410b6040518163ffffffff1660e01b8152600401602060405180830381865afa1580156101ae573d6000803e3d6000fd5b505050506040513d601f19601f820116820180604052508101906101d2919061055d565b9550600160009054906101000a90046001600160a01b03166001600160a01b0316634b7503346040518163ffffffff1660e01b8152600401602060405180830381865afa158015610227573d6000803e3d6000fd5b505050506040513d601f19601f8201168201806040525081019061024b919061055d565b6001546040516370a0823160e01b81526001600160a01b038a811660048301529297509116906370a0823190602401602060405180830381865afa158015610297573d6000803e3d6000fd5b505050506040513d601f19601f820116820180604052508101906102bb919061055d565b9350600160009054906101000a90046001600160a01b03166001600160a01b03166318160ddd6040518163ffffffff1660e01b8152600401602060405180830381865afa158015610310573d6000803e3d6000fd5b505050506040513d601f19601f82011682018060405250810190610334919061055d565b6001546040516332156aa560e11b81528a151560048201526001600160a01b038a8116602483018190529396509231945091169063642ad54a90604401602060405180830381865afa15801561038e573d6000803e3d6000fd5b505050506040513d601f19601f820116820180604052508101906103b2919061055d565b90509295509295509295565b6103c661043c565b6001600160a01b0381166104305760405162461bcd60e51b815260206004820152602660248201527f4f776e61626c653a206e6577206f776e657220697320746865207a65726f206160448201526564647265737360d01b60648201526084015b60405180910390fd5b61043981610496565b50565b6000546001600160a01b031633146101265760405162461bcd60e51b815260206004820181905260248201527f4f776e61626c653a2063616c6c6572206973206e6f7420746865206f776e65726044820152606401610427565b600080546001600160a01b038381166001600160a01b0319831681178455604051919092169283917f8be0079c531659141344cd1fd0a4f28419497f9722a3daafe3b4186f6b6457e09190a35050565b6001600160a01b038116811461043957600080fd5b60006020828403121561050d57600080fd5b8135610518816104e6565b9392505050565b6000806040838503121561053257600080fd5b8235801515811461054257600080fd5b91506020830135610552816104e6565b809150509250929050565b60006020828403121561056f57600080fd5b505191905056fea264697066735822122063d3dea139f122bce5092db92437ea457e55afd33646c66f0a31cab765d5651264736f6c63430008110033",
  "immutableReferences": {},
  "source": "// SPDX-License-Identifier: MIT\npragma solidity >=0.6.12;\n\nimport \"@openzeppelin/contracts/access/Ownable.sol\";\n\ninterface IXBOT {\n    function buyPrice() external view returns (uint256);\n    function sellPrice() external view returns (uint256);\n    function balanceOf(address user) external view returns (uint256);\n    function totalSupply() external view returns (uint256);\n    function getETHBalance() external view returns (uint256);\n    function myDividends(bool _includeReferralBonus, address _customerAddress) external view returns (uint256);\n}\n\ncontract XBOTData is Ownable{\n\n    IXBOT public XBOTContract;\n\n    constructor(IXBOT xbotContractAddress) {\n        XBOTContract = xbotContractAddress;\n    }\n\n    function setXbotContract(IXBOT xbotContractAddress) public onlyOwner {\n        XBOTContract = xbotContractAddress;\n    }\n\n    function getData(bool includeReferralBonus, address user) public view returns (\n        uint256 buyPrice,\n        uint256 sellPrice,\n        uint256 balanceUser,\n        uint256 totalSupply,\n        uint256 ethBalanceUser,\n        uint256 myDividends\n    ) {\n        buyPrice = XBOTContract.buyPrice();\n        sellPrice = XBOTContract.sellPrice();\n        balanceUser = XBOTContract.balanceOf(user);\n        totalSupply = XBOTContract.totalSupply();\n        ethBalanceUser = user.balance;\n        myDividends = XBOTContract.myDividends(includeReferralBonus, user);\n    }\n}",
  "sourcePath": "/Applications/projects/contracts/contracts/DeFiXBot/XBOTData.sol",
  "compiler": {
    "name": "solc",
    "version": "0.8.17+commit.8df45f5f.Emscripten.clang"
  },
  "schemaVersion": "3.4.11",
  "updatedAt": "2023-10-14T03:24:15.327Z",
  "networkType": "ethereum",
  "devdoc": {
    "kind": "dev",
    "methods": {
      "owner()": {
        "details": "Returns the address of the current owner."
      },
      "renounceOwnership()": {
        "details": "Leaves the contract without owner. It will not be possible to call `onlyOwner` functions. Can only be called by the current owner. NOTE: Renouncing ownership will leave the contract without an owner, thereby disabling any functionality that is only available to the owner."
      },
      "transferOwnership(address)": {
        "details": "Transfers ownership of the contract to a new account (`newOwner`). Can only be called by the current owner."
      }
    },
    "version": 1
  },
  "userdoc": {
    "kind": "user",
    "methods": {},
    "version": 1
  }
}