{
  "contractName": "XBOT",
  "abi": [
    {
      "inputs": [],
      "stateMutability": "nonpayable",
      "type": "constructor"
    },
    {
      "anonymous": false,
      "inputs": [
        {
          "indexed": true,
          "internalType": "address",
          "name": "owner",
          "type": "address"
        },
        {
          "indexed": true,
          "internalType": "address",
          "name": "spender",
          "type": "address"
        },
        {
          "indexed": false,
          "internalType": "uint256",
          "name": "value",
          "type": "uint256"
        }
      ],
      "name": "Approval",
      "type": "event"
    },
    {
      "anonymous": false,
      "inputs": [
        {
          "indexed": true,
          "internalType": "address",
          "name": "previousOwner",
          "type": "address"
        },
        {
          "indexed": true,
          "internalType": "address",
          "name": "newOwner",
          "type": "address"
        }
      ],
      "name": "OwnershipTransferred",
      "type": "event"
    },
    {
      "anonymous": false,
      "inputs": [
        {
          "indexed": true,
          "internalType": "address",
          "name": "sender",
          "type": "address"
        },
        {
          "indexed": false,
          "internalType": "uint256",
          "name": "amount0In",
          "type": "uint256"
        },
        {
          "indexed": false,
          "internalType": "uint256",
          "name": "amount1In",
          "type": "uint256"
        },
        {
          "indexed": false,
          "internalType": "uint256",
          "name": "amount0Out",
          "type": "uint256"
        },
        {
          "indexed": false,
          "internalType": "uint256",
          "name": "amount1Out",
          "type": "uint256"
        },
        {
          "indexed": true,
          "internalType": "address",
          "name": "to",
          "type": "address"
        }
      ],
      "name": "Swap",
      "type": "event"
    },
    {
      "anonymous": false,
      "inputs": [
        {
          "indexed": true,
          "internalType": "address",
          "name": "from",
          "type": "address"
        },
        {
          "indexed": true,
          "internalType": "address",
          "name": "to",
          "type": "address"
        },
        {
          "indexed": false,
          "internalType": "uint256",
          "name": "value",
          "type": "uint256"
        }
      ],
      "name": "Transfer",
      "type": "event"
    },
    {
      "anonymous": false,
      "inputs": [
        {
          "indexed": true,
          "internalType": "address",
          "name": "customerAddress",
          "type": "address"
        },
        {
          "indexed": false,
          "internalType": "uint256",
          "name": "ethereumReinvested",
          "type": "uint256"
        },
        {
          "indexed": false,
          "internalType": "uint256",
          "name": "tokensMinted",
          "type": "uint256"
        }
      ],
      "name": "onReinvestment",
      "type": "event"
    },
    {
      "anonymous": false,
      "inputs": [
        {
          "indexed": false,
          "internalType": "address",
          "name": "_addressContract",
          "type": "address"
        },
        {
          "indexed": false,
          "internalType": "bool",
          "name": "_status",
          "type": "bool"
        }
      ],
      "name": "onSetContractAllowanded",
      "type": "event"
    },
    {
      "anonymous": false,
      "inputs": [
        {
          "indexed": true,
          "internalType": "address",
          "name": "customerAddress",
          "type": "address"
        },
        {
          "indexed": false,
          "internalType": "uint256",
          "name": "ethereumWithdrawn",
          "type": "uint256"
        }
      ],
      "name": "onWithdraw",
      "type": "event"
    },
    {
      "stateMutability": "payable",
      "type": "fallback",
      "payable": true
    },
    {
      "inputs": [],
      "name": "XBOTTreasury",
      "outputs": [
        {
          "internalType": "address",
          "name": "",
          "type": "address"
        }
      ],
      "stateMutability": "view",
      "type": "function",
      "constant": true
    },
    {
      "inputs": [
        {
          "internalType": "address",
          "name": "owner",
          "type": "address"
        },
        {
          "internalType": "address",
          "name": "spender",
          "type": "address"
        }
      ],
      "name": "allowance",
      "outputs": [
        {
          "internalType": "uint256",
          "name": "",
          "type": "uint256"
        }
      ],
      "stateMutability": "view",
      "type": "function",
      "constant": true
    },
    {
      "inputs": [
        {
          "internalType": "address",
          "name": "spender",
          "type": "address"
        },
        {
          "internalType": "uint256",
          "name": "amount",
          "type": "uint256"
        }
      ],
      "name": "approve",
      "outputs": [
        {
          "internalType": "bool",
          "name": "",
          "type": "bool"
        }
      ],
      "stateMutability": "nonpayable",
      "type": "function"
    },
    {
      "inputs": [
        {
          "internalType": "address",
          "name": "account",
          "type": "address"
        }
      ],
      "name": "balanceOf",
      "outputs": [
        {
          "internalType": "uint256",
          "name": "",
          "type": "uint256"
        }
      ],
      "stateMutability": "view",
      "type": "function",
      "constant": true
    },
    {
      "inputs": [
        {
          "internalType": "uint256",
          "name": "amount",
          "type": "uint256"
        }
      ],
      "name": "burn",
      "outputs": [],
      "stateMutability": "nonpayable",
      "type": "function"
    },
    {
      "inputs": [
        {
          "internalType": "address",
          "name": "account",
          "type": "address"
        },
        {
          "internalType": "uint256",
          "name": "amount",
          "type": "uint256"
        }
      ],
      "name": "burnFrom",
      "outputs": [],
      "stateMutability": "nonpayable",
      "type": "function"
    },
    {
      "inputs": [
        {
          "internalType": "address",
          "name": "",
          "type": "address"
        }
      ],
      "name": "contractAllowanded",
      "outputs": [
        {
          "internalType": "bool",
          "name": "",
          "type": "bool"
        }
      ],
      "stateMutability": "view",
      "type": "function",
      "constant": true
    },
    {
      "inputs": [],
      "name": "decimals",
      "outputs": [
        {
          "internalType": "uint8",
          "name": "",
          "type": "uint8"
        }
      ],
      "stateMutability": "view",
      "type": "function",
      "constant": true
    },
    {
      "inputs": [
        {
          "internalType": "address",
          "name": "spender",
          "type": "address"
        },
        {
          "internalType": "uint256",
          "name": "subtractedValue",
          "type": "uint256"
        }
      ],
      "name": "decreaseAllowance",
      "outputs": [
        {
          "internalType": "bool",
          "name": "",
          "type": "bool"
        }
      ],
      "stateMutability": "nonpayable",
      "type": "function"
    },
    {
      "inputs": [],
      "name": "entryFee_",
      "outputs": [
        {
          "internalType": "uint8",
          "name": "",
          "type": "uint8"
        }
      ],
      "stateMutability": "view",
      "type": "function",
      "constant": true
    },
    {
      "inputs": [],
      "name": "exitFee_",
      "outputs": [
        {
          "internalType": "uint8",
          "name": "",
          "type": "uint8"
        }
      ],
      "stateMutability": "view",
      "type": "function",
      "constant": true
    },
    {
      "inputs": [
        {
          "internalType": "address",
          "name": "spender",
          "type": "address"
        },
        {
          "internalType": "uint256",
          "name": "addedValue",
          "type": "uint256"
        }
      ],
      "name": "increaseAllowance",
      "outputs": [
        {
          "internalType": "bool",
          "name": "",
          "type": "bool"
        }
      ],
      "stateMutability": "nonpayable",
      "type": "function"
    },
    {
      "inputs": [],
      "name": "magnitude",
      "outputs": [
        {
          "internalType": "uint256",
          "name": "",
          "type": "uint256"
        }
      ],
      "stateMutability": "view",
      "type": "function",
      "constant": true
    },
    {
      "inputs": [],
      "name": "name",
      "outputs": [
        {
          "internalType": "string",
          "name": "",
          "type": "string"
        }
      ],
      "stateMutability": "view",
      "type": "function",
      "constant": true
    },
    {
      "inputs": [],
      "name": "owner",
      "outputs": [
        {
          "internalType": "address",
          "name": "",
          "type": "address"
        }
      ],
      "stateMutability": "view",
      "type": "function",
      "constant": true
    },
    {
      "inputs": [
        {
          "internalType": "address",
          "name": "",
          "type": "address"
        }
      ],
      "name": "payoutsTo_",
      "outputs": [
        {
          "internalType": "int256",
          "name": "",
          "type": "int256"
        }
      ],
      "stateMutability": "view",
      "type": "function",
      "constant": true
    },
    {
      "inputs": [],
      "name": "profitPerShare_",
      "outputs": [
        {
          "internalType": "uint256",
          "name": "",
          "type": "uint256"
        }
      ],
      "stateMutability": "view",
      "type": "function",
      "constant": true
    },
    {
      "inputs": [
        {
          "internalType": "address",
          "name": "",
          "type": "address"
        }
      ],
      "name": "referralBalance_",
      "outputs": [
        {
          "internalType": "uint256",
          "name": "",
          "type": "uint256"
        }
      ],
      "stateMutability": "view",
      "type": "function",
      "constant": true
    },
    {
      "inputs": [],
      "name": "referralCodeByOwner",
      "outputs": [
        {
          "internalType": "bytes32",
          "name": "",
          "type": "bytes32"
        }
      ],
      "stateMutability": "view",
      "type": "function",
      "constant": true
    },
    {
      "inputs": [],
      "name": "referralContract",
      "outputs": [
        {
          "internalType": "contract IReferralContract",
          "name": "",
          "type": "address"
        }
      ],
      "stateMutability": "view",
      "type": "function",
      "constant": true
    },
    {
      "inputs": [],
      "name": "refferalFee_",
      "outputs": [
        {
          "internalType": "uint8",
          "name": "",
          "type": "uint8"
        }
      ],
      "stateMutability": "view",
      "type": "function",
      "constant": true
    },
    {
      "inputs": [],
      "name": "renounceOwnership",
      "outputs": [],
      "stateMutability": "nonpayable",
      "type": "function"
    },
    {
      "inputs": [],
      "name": "stakingRequirement",
      "outputs": [
        {
          "internalType": "uint256",
          "name": "",
          "type": "uint256"
        }
      ],
      "stateMutability": "view",
      "type": "function",
      "constant": true
    },
    {
      "inputs": [],
      "name": "symbol",
      "outputs": [
        {
          "internalType": "string",
          "name": "",
          "type": "string"
        }
      ],
      "stateMutability": "view",
      "type": "function",
      "constant": true
    },
    {
      "inputs": [],
      "name": "tokenPriceIncremental_",
      "outputs": [
        {
          "internalType": "uint256",
          "name": "",
          "type": "uint256"
        }
      ],
      "stateMutability": "view",
      "type": "function",
      "constant": true
    },
    {
      "inputs": [],
      "name": "tokenPriceInitial_",
      "outputs": [
        {
          "internalType": "uint256",
          "name": "",
          "type": "uint256"
        }
      ],
      "stateMutability": "view",
      "type": "function",
      "constant": true
    },
    {
      "inputs": [],
      "name": "totalSupply",
      "outputs": [
        {
          "internalType": "uint256",
          "name": "",
          "type": "uint256"
        }
      ],
      "stateMutability": "view",
      "type": "function",
      "constant": true
    },
    {
      "inputs": [],
      "name": "transferFee_",
      "outputs": [
        {
          "internalType": "uint8",
          "name": "",
          "type": "uint8"
        }
      ],
      "stateMutability": "view",
      "type": "function",
      "constant": true
    },
    {
      "inputs": [
        {
          "internalType": "address",
          "name": "newOwner",
          "type": "address"
        }
      ],
      "name": "transferOwnership",
      "outputs": [],
      "stateMutability": "nonpayable",
      "type": "function"
    },
    {
      "stateMutability": "payable",
      "type": "receive",
      "payable": true
    },
    {
      "inputs": [
        {
          "internalType": "bytes32",
          "name": "_referredCode",
          "type": "bytes32"
        },
        {
          "internalType": "uint256",
          "name": "minTokenOut",
          "type": "uint256"
        }
      ],
      "name": "buy",
      "outputs": [],
      "stateMutability": "payable",
      "type": "function",
      "payable": true
    },
    {
      "inputs": [
        {
          "internalType": "address",
          "name": "_addressContract",
          "type": "address"
        },
        {
          "internalType": "bool",
          "name": "_status",
          "type": "bool"
        }
      ],
      "name": "setContractAllowanded",
      "outputs": [],
      "stateMutability": "nonpayable",
      "type": "function"
    },
    {
      "inputs": [
        {
          "internalType": "address",
          "name": "_addressXBOTTreasury",
          "type": "address"
        }
      ],
      "name": "setXBOTTreasury",
      "outputs": [],
      "stateMutability": "nonpayable",
      "type": "function"
    },
    {
      "inputs": [
        {
          "internalType": "address",
          "name": "_addressReferralContract",
          "type": "address"
        }
      ],
      "name": "setReferralContract",
      "outputs": [],
      "stateMutability": "nonpayable",
      "type": "function"
    },
    {
      "inputs": [
        {
          "internalType": "bytes32",
          "name": "_referralCodeByOwner",
          "type": "bytes32"
        }
      ],
      "name": "setReferralCodeByOwner",
      "outputs": [],
      "stateMutability": "nonpayable",
      "type": "function"
    },
    {
      "inputs": [],
      "name": "reinvest",
      "outputs": [],
      "stateMutability": "nonpayable",
      "type": "function"
    },
    {
      "inputs": [],
      "name": "exit",
      "outputs": [],
      "stateMutability": "nonpayable",
      "type": "function"
    },
    {
      "inputs": [],
      "name": "withdraw",
      "outputs": [],
      "stateMutability": "nonpayable",
      "type": "function"
    },
    {
      "inputs": [
        {
          "internalType": "uint256",
          "name": "_amountOfTokens",
          "type": "uint256"
        },
        {
          "internalType": "uint256",
          "name": "minETHOut",
          "type": "uint256"
        }
      ],
      "name": "sell",
      "outputs": [],
      "stateMutability": "nonpayable",
      "type": "function"
    },
    {
      "inputs": [
        {
          "internalType": "address",
          "name": "_toAddress",
          "type": "address"
        },
        {
          "internalType": "uint256",
          "name": "_amountOfTokens",
          "type": "uint256"
        }
      ],
      "name": "transfer",
      "outputs": [
        {
          "internalType": "bool",
          "name": "",
          "type": "bool"
        }
      ],
      "stateMutability": "nonpayable",
      "type": "function"
    },
    {
      "inputs": [
        {
          "internalType": "address",
          "name": "_fromAddress",
          "type": "address"
        },
        {
          "internalType": "address",
          "name": "_toAddress",
          "type": "address"
        },
        {
          "internalType": "uint256",
          "name": "_amountOfTokens",
          "type": "uint256"
        }
      ],
      "name": "transferFrom",
      "outputs": [
        {
          "internalType": "bool",
          "name": "",
          "type": "bool"
        }
      ],
      "stateMutability": "nonpayable",
      "type": "function"
    },
    {
      "inputs": [],
      "name": "getETHBalance",
      "outputs": [
        {
          "internalType": "uint256",
          "name": "",
          "type": "uint256"
        }
      ],
      "stateMutability": "view",
      "type": "function",
      "constant": true
    },
    {
      "inputs": [],
      "name": "myTokens",
      "outputs": [
        {
          "internalType": "uint256",
          "name": "",
          "type": "uint256"
        }
      ],
      "stateMutability": "view",
      "type": "function",
      "constant": true
    },
    {
      "inputs": [
        {
          "internalType": "bool",
          "name": "_includeReferralBonus",
          "type": "bool"
        },
        {
          "internalType": "address",
          "name": "_customerAddress",
          "type": "address"
        }
      ],
      "name": "myDividends",
      "outputs": [
        {
          "internalType": "uint256",
          "name": "",
          "type": "uint256"
        }
      ],
      "stateMutability": "view",
      "type": "function",
      "constant": true
    },
    {
      "inputs": [
        {
          "internalType": "address",
          "name": "_customerAddress",
          "type": "address"
        }
      ],
      "name": "dividendsOf",
      "outputs": [
        {
          "internalType": "uint256",
          "name": "",
          "type": "uint256"
        }
      ],
      "stateMutability": "view",
      "type": "function",
      "constant": true
    },
    {
      "inputs": [],
      "name": "sellPrice",
      "outputs": [
        {
          "internalType": "uint256",
          "name": "",
          "type": "uint256"
        }
      ],
      "stateMutability": "view",
      "type": "function",
      "constant": true
    },
    {
      "inputs": [],
      "name": "buyPrice",
      "outputs": [
        {
          "internalType": "uint256",
          "name": "",
          "type": "uint256"
        }
      ],
      "stateMutability": "view",
      "type": "function",
      "constant": true
    },
    {
      "inputs": [
        {
          "internalType": "uint256",
          "name": "_ethereumToSpend",
          "type": "uint256"
        }
      ],
      "name": "calculateTokenOut",
      "outputs": [
        {
          "internalType": "uint256",
          "name": "",
          "type": "uint256"
        }
      ],
      "stateMutability": "view",
      "type": "function",
      "constant": true
    },
    {
      "inputs": [
        {
          "internalType": "uint256",
          "name": "_tokensToSell",
          "type": "uint256"
        }
      ],
      "name": "calculateEthereumOut",
      "outputs": [
        {
          "internalType": "uint256",
          "name": "",
          "type": "uint256"
        }
      ],
      "stateMutability": "view",
      "type": "function",
      "constant": true
    },
    {
      "inputs": [
        {
          "internalType": "uint256",
          "name": "_ethereumIn",
          "type": "uint256"
        }
      ],
      "name": "calculateTokenIn",
      "outputs": [
        {
          "internalType": "uint256",
          "name": "",
          "type": "uint256"
        }
      ],
      "stateMutability": "view",
      "type": "function",
      "constant": true
    },
    {
      "inputs": [
        {
          "internalType": "uint256",
          "name": "_tokenOut",
          "type": "uint256"
        }
      ],
      "name": "calculateEthereumIn",
      "outputs": [
        {
          "internalType": "uint256",
          "name": "",
          "type": "uint256"
        }
      ],
      "stateMutability": "view",
      "type": "function",
      "constant": true
    },
    {
      "inputs": [
        {
          "internalType": "uint256",
          "name": "_token",
          "type": "uint256"
        }
      ],
      "name": "tokensToEthereum_",
      "outputs": [
        {
          "internalType": "uint256",
          "name": "",
          "type": "uint256"
        }
      ],
      "stateMutability": "view",
      "type": "function",
      "constant": true
    },
    {
      "inputs": [
        {
          "internalType": "uint256",
          "name": "_token",
          "type": "uint256"
        }
      ],
      "name": "getEtherumInputOfTokenOutput",
      "outputs": [
        {
          "internalType": "uint256",
          "name": "",
          "type": "uint256"
        }
      ],
      "stateMutability": "view",
      "type": "function",
      "constant": true
    },
    {
      "inputs": [
        {
          "internalType": "uint256",
          "name": "_ethereum",
          "type": "uint256"
        }
      ],
      "name": "getTokenInputOfEthereumOutput",
      "outputs": [
        {
          "internalType": "uint256",
          "name": "",
          "type": "uint256"
        }
      ],
      "stateMutability": "view",
      "type": "function",
      "constant": true
    },
    {
      "inputs": [
        {
          "internalType": "uint256",
          "name": "_amountIn",
          "type": "uint256"
        },
        {
          "internalType": "address",
          "name": "_tokenIn",
          "type": "address"
        }
      ],
      "name": "getAmountOut",
      "outputs": [
        {
          "internalType": "uint256",
          "name": "",
          "type": "uint256"
        }
      ],
      "stateMutability": "view",
      "type": "function",
      "constant": true
    },
    {
      "inputs": [
        {
          "internalType": "uint256",
          "name": "_amountOut",
          "type": "uint256"
        },
        {
          "internalType": "address",
          "name": "_tokenOut",
          "type": "address"
        }
      ],
      "name": "getAmountIn",
      "outputs": [
        {
          "internalType": "uint256",
          "name": "",
          "type": "uint256"
        }
      ],
      "stateMutability": "view",
      "type": "function",
      "constant": true
    },
    {
      "inputs": [
        {
          "internalType": "uint256",
          "name": "x",
          "type": "uint256"
        }
      ],
      "name": "sqrt",
      "outputs": [
        {
          "internalType": "uint256",
          "name": "y",
          "type": "uint256"
        }
      ],
      "stateMutability": "pure",
      "type": "function",
      "constant": true
    }
  ],
  "bytecode": "0x60806040526802b5e3af16b18800006006553480156200001e57600080fd5b50604051806040016040528060088152602001671119519a561093d560c21b81525060405180604001604052806004815260200163161093d560e21b81525081600390816200006e91906200019b565b5060046200007d82826200019b565b5050506200009a62000094620000a060201b60201c565b620000a4565b62000267565b3390565b600580546001600160a01b038381166001600160a01b0319831681179093556040519116919082907f8be0079c531659141344cd1fd0a4f28419497f9722a3daafe3b4186f6b6457e090600090a35050565b634e487b7160e01b600052604160045260246000fd5b600181811c908216806200012157607f821691505b6020821081036200014257634e487b7160e01b600052602260045260246000fd5b50919050565b601f8211156200019657600081815260208120601f850160051c81016020861015620001715750805b601f850160051c820191505b8181101562000192578281556001016200017d565b5050505b505050565b81516001600160401b03811115620001b757620001b7620000f6565b620001cf81620001c884546200010c565b8462000148565b602080601f831160018114620002075760008415620001ee5750858301515b600019600386901b1c1916600185901b17855562000192565b600085815260208120601f198616915b82811015620002385788860151825594840194600190910190840162000217565b5085821015620002575787850151600019600388901b60f8161c191681555b5050505050600190811b01905550565b612ae180620002776000396000f3fe60806040526004361061036e5760003560e01c806379cc6790116101c6578063bf3b397b116100f7578063e911d0d511610095578063f2fde38b1161006f578063f2fde38b146109aa578063f862ceba146109ca578063f9fbfb4f146109ea578063fdb5a03e14610a0a57610383565b8063e911d0d51461095f578063e9fad8ee14610975578063f140a35a1461098a57610383565b8063cb8cd7cb116100d1578063cb8cd7cb146108dd578063d79875eb146108f2578063dd62ed3e14610912578063e1456cb41461093257610383565b8063bf3b397b14610877578063c4c1b39a14610897578063c664f7f1146108b057610383565b80639d40608311610164578063a457c2d71161013e578063a457c2d7146107f7578063a7c55bad14610817578063a9059cbb14610837578063b41013651461085757610383565b80639d406083146107a25780639e46db5e146107c2578063a0cd9565146107e257610383565b80638da5cb5b116101a05780638da5cb5b1461073a5780638e72267a14610758578063949e8acd1461077857806395d89b411461078d57610383565b806379cc6790146106e55780637dad19db146107055780638620410b1461072557610383565b806339509351116102a0578063642ad54a1161023e57806370a082311161021857806370a082311461067a578063710b318b1461069a578063712e8ab6146106b0578063715018a6146106d057610383565b8063642ad54a14610627578063677342ce146106475780636e9472981461066757610383565b8063407418981161027a57806340741898146105a457806342966c68146105dc5780634b750334146105fc57806356d399e81461061157610383565b8063395093511461053f5780633ccfd60b1461055f5780633d3fcdec1461057457610383565b806318160ddd1161030d57806323b872dd116102e757806323b872dd146104d65780632692f5da146104f65780632b38ee5614610516578063313ce5671461052b57610383565b806318160ddd1461048257806319123c1f146104975780632290d6e2146104af57610383565b8063095ea7b311610349578063095ea7b3146104065780630ddeb632146104365780630ea8e5ac146104495780631125f13f1461046257610383565b806265318b1461039157806306ad5a47146103c457806306fdde03146103e457610383565b366103835761038134600d546001610a1f565b005b61038134600d546001610a1f565b34801561039d57600080fd5b506103b16103ac36600461269c565b610d9e565b6040519081526020015b60405180910390f35b3480156103d057600080fd5b506103816103df36600461269c565b610ded565b3480156103f057600080fd5b506103f9610e17565b6040516103bb91906126b9565b34801561041257600080fd5b50610426610421366004612707565b610ea9565b60405190151581526020016103bb565b610381610444366004612733565b610ec1565b34801561045557600080fd5b506103b16402540be40081565b34801561046e57600080fd5b506103b161047d366004612755565b610ed1565b34801561048e57600080fd5b506002546103b1565b3480156104a357600080fd5b506103b1600160401b81565b3480156104bb57600080fd5b506104c4600a81565b60405160ff90911681526020016103bb565b3480156104e257600080fd5b506104266104f1366004612785565b610f03565b34801561050257600080fd5b506103816105113660046127db565b6111b7565b34801561052257600080fd5b506104c4600481565b34801561053757600080fd5b5060126104c4565b34801561054b57600080fd5b5061042661055a366004612707565b611222565b34801561056b57600080fd5b50610381611244565b34801561058057600080fd5b5061042661058f36600461269c565b600b6020526000908152604090205460ff1681565b3480156105b057600080fd5b506007546105c4906001600160a01b031681565b6040516001600160a01b0390911681526020016103bb565b3480156105e857600080fd5b506103816105f7366004612810565b6113bd565b34801561060857600080fd5b506103b16113ca565b34801561061d57600080fd5b506103b160065481565b34801561063357600080fd5b506103b1610642366004612829565b611432565b34801561065357600080fd5b506103b1610662366004612810565b611473565b34801561067357600080fd5b50476103b1565b34801561068657600080fd5b506103b161069536600461269c565b6114cc565b3480156106a657600080fd5b506103b1600c5481565b3480156106bc57600080fd5b506103b16106cb366004612810565b6114e7565b3480156106dc57600080fd5b50610381611517565b3480156106f157600080fd5b50610381610700366004612707565b61152b565b34801561071157600080fd5b506008546105c4906001600160a01b031681565b34801561073157600080fd5b506103b1611544565b34801561074657600080fd5b506005546001600160a01b03166105c4565b34801561076457600080fd5b506103b1610773366004612810565b61159f565b34801561078457600080fd5b506103b1611701565b34801561079957600080fd5b506103f9611713565b3480156107ae57600080fd5b506103b16107bd366004612810565b611722565b3480156107ce57600080fd5b506103b16107dd366004612810565b61184f565b3480156107ee57600080fd5b506104c4602181565b34801561080357600080fd5b50610426610812366004612707565b611878565b34801561082357600080fd5b5061038161083236600461269c565b6118fe565b34801561084357600080fd5b50610426610852366004612707565b611928565b34801561086357600080fd5b506103b1610872366004612810565b611a5a565b34801561088357600080fd5b506103b1610892366004612810565b611a9e565b3480156108a357600080fd5b506103b164174876e80081565b3480156108bc57600080fd5b506103b16108cb36600461269c565b60096020526000908152604090205481565b3480156108e957600080fd5b506104c4600081565b3480156108fe57600080fd5b5061038161090d366004612733565b611b93565b34801561091e57600080fd5b506103b161092d366004612855565b611d17565b34801561093e57600080fd5b506103b161094d36600461269c565b600a6020526000908152604090205481565b34801561096b57600080fd5b506103b1600d5481565b34801561098157600080fd5b50610381611d42565b34801561099657600080fd5b506103b16109a5366004612755565b611d69565b3480156109b657600080fd5b506103816109c536600461269c565b611d8d565b3480156109d657600080fd5b506103816109e5366004612810565b611e03565b3480156109f657600080fd5b506103b1610a05366004612810565b611e10565b348015610a1657600080fd5b50610381611e3e565b600854604051637ba972d560e01b81526004810184905260009182916001600160a01b0390911690637ba972d590602401602060405180830381865afa158015610a6d573d6000803e3d6000fd5b505050506040513d601f19601f82011682018060405250810190610a919190612873565b9050336000610aac6064610aa689600a611f3f565b90611f4b565b90506000610ac06064610aa6846021611f3f565b90506000610ace8383611f57565b90506000610adc8a85611f57565b90506000610ae982611f63565b90506000610afb84600160401b611f3f565b9050600082118015610b175750600254610b158382612079565b115b610b585760405162461bcd60e51b815260206004820152600d60248201526c6572726f72207265717569726560981b60448201526064015b60405180910390fd5b818a1115610bb45760405162461bcd60e51b815260206004820152602360248201527f6d696e20746f6b656e206f7574206c65737320616d6f756e7420746f6b656e206044820152621bdd5d60ea1b6064820152608401610b4f565b6001600160a01b03881615801590610bde5750866001600160a01b0316886001600160a01b031614155b8015610bf45750600654610bf1896114cc565b10155b15610c3a576001600160a01b038816600090815260096020526040902054610c1c9086612079565b6001600160a01b038916600090815260096020526040902055610c57565b610c448486612079565b9350610c5484600160401b611f3f565b90505b6000610c6260025490565b1115610ce257610c8c610c7e83610c7860025490565b90612079565b610aa686600160401b611f3f565b600c6000828254610c9d91906128a6565b90915550610cdf9050610cd8610cd1610cca610cbc86610c7860025490565b610aa689600160401b611f3f565b8590611f3f565b8390611f57565b8290611f57565b90505b610cec8783612085565b60008183600c54610cfd91906128b9565b610d0791906128e9565b6001600160a01b0389166000908152600a6020526040812080549293508392909190610d34908490612910565b9091555050604080518e8152600060208201819052818301526060810185905290516001600160a01b038a169182917fd78ad95fa46c994b6551d0da85fc275fe613ce37657fb8d5e3d130840159d8229181900360800190a350909b9a5050505050505050505050565b6001600160a01b0381166000908152600a6020526040812054600160401b90610dc6846114cc565b600c54610dd39190612938565b610ddd91906128e9565b610de7919061294f565b92915050565b610df5612144565b600880546001600160a01b0319166001600160a01b0392909216919091179055565b606060038054610e2690612971565b80601f0160208091040260200160405190810160405280929190818152602001828054610e5290612971565b8015610e9f5780601f10610e7457610100808354040283529160200191610e9f565b820191906000526020600020905b815481529060010190602001808311610e8257829003601f168201915b5050505050905090565b600033610eb781858561219e565b5060019392505050565b610ecc348383610a1f565b505050565b6000306001600160a01b03831603610ef357610eec836114e7565b9050610de7565b610efc8361184f565b9392505050565b6000610f0e846114cc565b821115610f545760405162461bcd60e51b815260206004820152601460248201527334b73b30b634b21030b6b7bab73a103a37b5b2b760611b6044820152606401610b4f565b6000610f61600186611432565b11156110c857836000610f748183611432565b9050610f8481600160401b611f3f565b6001600160a01b0383166000908152600a602052604081208054909190610fac908490612910565b90915550506001600160a01b038216600090815260096020526040902054610fd5908290612079565b6001600160a01b0383166000908152600960209081526040808320839055600b90915290205490915060ff16151560010361104a576007546040516001600160a01b039091169082156108fc029083906000818181858888f19350505050158015611044573d6000803e3d6000fd5b50611082565b6040516001600160a01b0383169082156108fc029083906000818181858888f19350505050158015611080573d6000803e3d6000fd5b505b816001600160a01b03167fccad973dcd043c7d680389db4378bd6b9775db7124092e9e0422c9e46d7985dc826040516110bd91815260200190565b60405180910390a250505b60006110d96064610aa68584611f3f565b905060006110e78483611f57565b905060006110f483611a9e565b905061110087846122c2565b61110b8787846123f4565b50600c546111199086611f3f565b6001600160a01b0388166000908152600a6020526040812080549091906111419084906128e9565b9091555050600c546111539083611f3f565b6001600160a01b0387166000908152600a60205260408120805490919061117b908490612910565b909155506111a7905061119e61119060025490565b610aa684600160401b611f3f565b600c5490612079565b600c555060019695505050505050565b6111bf612144565b6001600160a01b0382166000818152600b6020908152604091829020805460ff19168515159081179091558251938452908301527f24829d9ffd4331d92d53676e6b3ccecb3a0d42bcc01e08e5ba9235f707aaa770910160405180910390a15050565b600033610eb78185856112358383611d17565b61123f91906128a6565b61219e565b6000611251600133611432565b1161125b57600080fd5b3360006112688183611432565b905061127881600160401b611f3f565b6001600160a01b0383166000908152600a6020526040812080549091906112a0908490612910565b90915550506001600160a01b0382166000908152600960205260409020546112c9908290612079565b6001600160a01b0383166000908152600960209081526040808320839055600b90915290205490915060ff16151560010361133e576007546040516001600160a01b039091169082156108fc029083906000818181858888f19350505050158015611338573d6000803e3d6000fd5b50611376565b6040516001600160a01b0383169082156108fc029083906000818181858888f19350505050158015611374573d6000803e3d6000fd5b505b816001600160a01b03167fccad973dcd043c7d680389db4378bd6b9775db7124092e9e0422c9e46d7985dc826040516113b191815260200190565b60405180910390a25050565b6113c733826122c2565b50565b60006113d560025490565b6000036113f5576113f064174876e8006402540be400611f57565b905090565b6000611408670de0b6b3a7640000611a9e565b9050600061141c6064610aa6846004611f3f565b9050600061142a8383611f57565b949350505050565b6000826114475761144282610d9e565b610efc565b6001600160a01b03821660009081526009602052604090205461146983610d9e565b610efc91906128a6565b60008060026114838460016128a6565b61148d919061294f565b90508291505b818110156114c6579050806002816114ab818661294f565b6114b591906128a6565b6114bf919061294f565b9050611493565b50919050565b6001600160a01b031660009081526020819052604090205490565b6000806114f383611722565b9050600061142a606461151161150a82600a611f57565b8590611f4b565b90611f3f565b61151f612144565b611529600061240d565b565b61153682338361245f565b61154082826122c2565b5050565b600061154f60025490565b60000361156a576113f064174876e8006402540be400612079565b600061157d670de0b6b3a7640000611a9e565b905060006115916064610aa684600a611f3f565b9050600061142a8383612079565b6000816000036115b157506000919050565b60006115bc60025490565b6115ce90670de0b6b3a76400006128a6565b90506000836115e36402540be4006002612938565b6115ed9190612938565b60026402540be400670de0b6b3a76400006116088683612938565b611612919061294f565b64174876e80061162f671bc16d674ec800006402540be40061294f565b61163991906128a6565b61164391906128a6565b61164d91906129a5565b6116579190612a9c565b61166191906129a5565b905060006402540be40061167483611473565b6402540be400670de0b6b3a764000061168d8783612938565b611697919061294f565b64174876e8006116b4671bc16d674ec800006402540be40061294f565b6116be91906128a6565b6116c891906128a6565b6116d291906129a5565b6116dc91906129a5565b6116ee90670de0b6b3a7640000612938565b6116f8919061294f565b95945050505050565b60003361170d816114cc565b91505090565b606060048054610e2690612971565b60008160000361173457506000919050565b600061174d64174876e800670de0b6b3a7640000612938565b9050600061175a60025490565b9050600061176e6402540be4006002612938565b611787906ec097ce7bc90715b34b9f1000000000612938565b82846117996402540be4006002612938565b6117a39190612938565b6117ad9190612938565b6117b8600285612a9c565b6117c860026402540be400612a9c565b6117d29190612938565b6117dc85896128a6565b6402540be4006117ed886002612938565b6117f79190612938565b6118019190612938565b600261180d878b6128a6565b6118179190612a9c565b61182760026402540be400612a9c565b6118319190612938565b61183b91906128a6565b61184591906129a5565b6116ee91906129a5565b600061186b61186060646004611f57565b610aa6846064611f3f565b91506000610efc8361159f565b600033816118868286611d17565b9050838110156118e65760405162461bcd60e51b815260206004820152602560248201527f45524332303a2064656372656173656420616c6c6f77616e63652062656c6f77604482015264207a65726f60d81b6064820152608401610b4f565b6118f3828686840361219e565b506001949350505050565b611906612144565b600780546001600160a01b0319166001600160a01b0392909216919091179055565b600080611933611701565b1161193d57600080fd5b33611947816114cc565b83111561198d5760405162461bcd60e51b815260206004820152601460248201527334b73b30b634b21030b6b7bab73a103a37b5b2b760611b6044820152606401610b4f565b600061199a600183611432565b11156119a8576119a8611244565b60006119b96064610aa68684611f3f565b905060006119c78583611f57565b905060006119d483611a9e565b90506119e084846122c2565b6119ea87836124d9565b50600c546119f89087611f3f565b6001600160a01b0385166000908152600a602052604081208054909190611a209084906128e9565b9091555050600c54611a329083611f3f565b6001600160a01b0388166000908152600a60205260408120805490919061117b908490612910565b6000611a6560025490565b821115611a7157600080fd5b6000611a7c83611a9e565b90506000611a906064610aa6846004611f3f565b905060006116f88383611f57565b600081600003611ab057506000919050565b6000611ac483670de0b6b3a76400006128a6565b90506000611ad160025490565b611ae390670de0b6b3a76400006128a6565b905060006116f8670de0b6b3a7640000610aa660028287611b048382612a9c565b611b0e91906129a5565b611b18919061294f565b611b27906402540be400612938565b611b31919061294f565b611b4387670de0b6b3a7640000611f57565b6402540be400611b5b88670de0b6b3a7640000611f4b565b611b6a906402540be400612938565b611b799064174876e8006128a6565b611b8391906129a5565b611b8d9190612938565b90611f57565b6000611b9d611701565b11611ba757600080fd5b33611bb1816114cc565b831115611bc457611bc1816114cc565b92505b6000611bcf84611a9e565b90506000611be36064610aa6846004611f3f565b90506000611bf18383611f57565b905080851115611c435760405162461bcd60e51b815260206004820152601c60248201527f6d696e4554484f7574206c657373207461786564457468657265756d000000006044820152606401610b4f565b611c4d84876122c2565b6000611c6d611c6083600160401b611f3f565b600c54610c78908a611f3f565b6001600160a01b0386166000908152600a6020526040812080549293508392909190611c9a9084906128e9565b909155505060025415611cba57611cb661119e610c7e60025490565b600c555b604080516000808252602082018a9052818301859052606082015290516001600160a01b0387169182917fd78ad95fa46c994b6551d0da85fc275fe613ce37657fb8d5e3d130840159d8229181900360800190a350505050505050565b6001600160a01b03918216600090815260016020908152604080832093909416825291909152205490565b336000611d4e826114cc565b90508015611d6157611d61816001611b93565b611540611244565b6000306001600160a01b03831603611d8457610eec83611a5a565b610efc83611e10565b611d95612144565b6001600160a01b038116611dfa5760405162461bcd60e51b815260206004820152602660248201527f4f776e61626c653a206e6577206f776e657220697320746865207a65726f206160448201526564647265737360d01b6064820152608401610b4f565b6113c78161240d565b611e0b612144565b600d55565b600080611e236064610aa685600a611f3f565b90506000611e318483611f57565b905060006116f882611f63565b6000611e4b600133611432565b11611e5557600080fd5b6000611e62600033611432565b905033611e7382600160401b611f3f565b6001600160a01b0382166000908152600a602052604081208054909190611e9b908490612910565b90915550506001600160a01b038116600090815260096020526040902054611ec4908390612079565b6001600160a01b0382166000908152600960205260408120819055600d5491935090611ef39084906001610a1f565b60408051858152602081018390529192506001600160a01b038416917fbe339fc14b041c2b0e0f3dd2cd325d0c3668b78378001e53160eab3615326458910160405180910390a2505050565b6000610efc8284612938565b6000610efc828461294f565b6000610efc82846129a5565b600081600003611f7557506000919050565b6000611f8e64174876e800670de0b6b3a7640000612938565b90506000611f9b60025490565b6402540be40061206584611b8d611fb160025490565b87611fc26402540be4006002612938565b611fcc9190612938565b611fd69190612938565b60028054611fe49190612a9c565b611ff460026402540be400612a9c565b611ffe9190612938565b6120108b670de0b6b3a7640000612938565b6120276402540be400670de0b6b3a7640000612938565b612032906002612938565b61203c9190612938565b61204760028b612a9c565b61205191906128a6565b61205b91906128a6565b61066291906128a6565b61206f919061294f565b61142a91906129a5565b6000610efc82846128a6565b6001600160a01b0382166120db5760405162461bcd60e51b815260206004820152601f60248201527f45524332303a206d696e7420746f20746865207a65726f2061646472657373006044820152606401610b4f565b80600260008282546120ed91906128a6565b90915550506001600160a01b038216600081815260208181526040808320805486019055518481527fddf252ad1be2c89b69c2b068fc378daa952ba7f163c4a11628f55a4df523b3ef910160405180910390a35050565b6005546001600160a01b031633146115295760405162461bcd60e51b815260206004820181905260248201527f4f776e61626c653a2063616c6c6572206973206e6f7420746865206f776e65726044820152606401610b4f565b6001600160a01b0383166122005760405162461bcd60e51b8152602060048201526024808201527f45524332303a20617070726f76652066726f6d20746865207a65726f206164646044820152637265737360e01b6064820152608401610b4f565b6001600160a01b0382166122615760405162461bcd60e51b815260206004820152602260248201527f45524332303a20617070726f766520746f20746865207a65726f206164647265604482015261737360f01b6064820152608401610b4f565b6001600160a01b0383811660008181526001602090815260408083209487168084529482529182902085905590518481527f8c5be1e5ebec7d5bd14f71427d1e84f3dd0314c0f7b2291e5b200ac8c7c3b925910160405180910390a3505050565b6001600160a01b0382166123225760405162461bcd60e51b815260206004820152602160248201527f45524332303a206275726e2066726f6d20746865207a65726f206164647265736044820152607360f81b6064820152608401610b4f565b6001600160a01b038216600090815260208190526040902054818110156123965760405162461bcd60e51b815260206004820152602260248201527f45524332303a206275726e20616d6f756e7420657863656564732062616c616e604482015261636560f01b6064820152608401610b4f565b6001600160a01b0383166000818152602081815260408083208686039055600280548790039055518581529192917fddf252ad1be2c89b69c2b068fc378daa952ba7f163c4a11628f55a4df523b3ef910160405180910390a3505050565b60003361240285828561245f565b6118f38585856124e3565b600580546001600160a01b038381166001600160a01b0319831681179093556040519116919082907f8be0079c531659141344cd1fd0a4f28419497f9722a3daafe3b4186f6b6457e090600090a35050565b600061246b8484611d17565b905060001981146124d357818110156124c65760405162461bcd60e51b815260206004820152601d60248201527f45524332303a20696e73756666696369656e7420616c6c6f77616e63650000006044820152606401610b4f565b6124d3848484840361219e565b50505050565b600033610eb78185855b6001600160a01b0383166125475760405162461bcd60e51b815260206004820152602560248201527f45524332303a207472616e736665722066726f6d20746865207a65726f206164604482015264647265737360d81b6064820152608401610b4f565b6001600160a01b0382166125a95760405162461bcd60e51b815260206004820152602360248201527f45524332303a207472616e7366657220746f20746865207a65726f206164647260448201526265737360e81b6064820152608401610b4f565b6001600160a01b038316600090815260208190526040902054818110156126215760405162461bcd60e51b815260206004820152602660248201527f45524332303a207472616e7366657220616d6f756e7420657863656564732062604482015265616c616e636560d01b6064820152608401610b4f565b6001600160a01b03848116600081815260208181526040808320878703905593871680835291849020805487019055925185815290927fddf252ad1be2c89b69c2b068fc378daa952ba7f163c4a11628f55a4df523b3ef910160405180910390a36124d3565b6001600160a01b03811681146113c757600080fd5b6000602082840312156126ae57600080fd5b8135610efc81612687565b600060208083528351808285015260005b818110156126e6578581018301518582016040015282016126ca565b506000604082860101526040601f19601f8301168501019250505092915050565b6000806040838503121561271a57600080fd5b823561272581612687565b946020939093013593505050565b6000806040838503121561274657600080fd5b50508035926020909101359150565b6000806040838503121561276857600080fd5b82359150602083013561277a81612687565b809150509250929050565b60008060006060848603121561279a57600080fd5b83356127a581612687565b925060208401356127b581612687565b929592945050506040919091013590565b803580151581146127d657600080fd5b919050565b600080604083850312156127ee57600080fd5b82356127f981612687565b9150612807602084016127c6565b90509250929050565b60006020828403121561282257600080fd5b5035919050565b6000806040838503121561283c57600080fd5b612845836127c6565b9150602083013561277a81612687565b6000806040838503121561286857600080fd5b823561284581612687565b60006020828403121561288557600080fd5b8151610efc81612687565b634e487b7160e01b600052601160045260246000fd5b80820180821115610de757610de7612890565b80820260008212600160ff1b841416156128d5576128d5612890565b8181058314821517610de757610de7612890565b818103600083128015838313168383128216171561290957612909612890565b5092915050565b808201828112600083128015821682158216171561293057612930612890565b505092915050565b8082028115828204841417610de757610de7612890565b60008261296c57634e487b7160e01b600052601260045260246000fd5b500490565b600181811c9082168061298557607f821691505b6020821081036114c657634e487b7160e01b600052602260045260246000fd5b81810381811115610de757610de7612890565b600181815b808511156129f35781600019048211156129d9576129d9612890565b808516156129e657918102915b93841c93908002906129bd565b509250929050565b600082612a0a57506001610de7565b81612a1757506000610de7565b8160018114612a2d5760028114612a3757612a53565b6001915050610de7565b60ff841115612a4857612a48612890565b50506001821b610de7565b5060208310610133831016604e8410600b8410161715612a76575081810a610de7565b612a8083836129b8565b8060001904821115612a9457612a94612890565b029392505050565b6000610efc60ff8416836129fb56fea2646970667358221220c2cc79d63ae748c5f47d013bdf6c3821664ed700836bdd932f89be309078132864736f6c63430008110033",
  "immutableReferences": {},
  "source": "// SPDX-License-Identifier: MIT\npragma solidity >=0.6.12;\n\nimport \"@openzeppelin/contracts/utils/math/SafeMath.sol\";\nimport \"@openzeppelin/contracts/token/ERC20/IERC20.sol\";\nimport \"@openzeppelin/contracts/token/ERC20/ERC20.sol\";\nimport \"@openzeppelin/contracts/token/ERC20/extensions/ERC20Burnable.sol\";\nimport \"@openzeppelin/contracts/utils/Context.sol\";\nimport \"@openzeppelin/contracts/access/Ownable.sol\";\n\ninterface IReferralContract {\n    function getUserByReferralCode(bytes32 _refCode) external view returns (address);\n}\n\ncontract XBOT is ERC20Burnable, Ownable {\n    using SafeMath for uint256;\n\n    modifier onlyBagholders {\n        require(myTokens() > 0);\n        _;\n    }\n\n    modifier onlyStronghands {\n        require(myDividends(true, msg.sender) > 0);\n        _;\n    }\n\n    event Swap (\n        address indexed sender,\n        uint256 amount0In, \n        uint256 amount1In, \n        uint256 amount0Out, \n        uint256 amount1Out, \n        address indexed to);\n\n    // event onTokenPurchase(\n    //     address indexed customerAddress,\n    //     uint256 incomingEthereum,\n    //     uint256 tokensMinted,\n    //     address indexed referredBy,\n    //     uint timestamp,\n    //     uint256 price\n\t// );\n\n    // event onTokenSell(\n    //     address indexed customerAddress,\n    //     uint256 tokensBurned,\n    //     uint256 ethereumEarned,\n    //     uint timestamp,\n    //     uint256 price\n\t// );\n\n    event onReinvestment(\n        address indexed customerAddress,\n        uint256 ethereumReinvested,\n        uint256 tokensMinted\n\t);\n\n    event onWithdraw(\n        address indexed customerAddress,\n        uint256 ethereumWithdrawn\n\t);\n\n    event onSetContractAllowanded(address _addressContract, bool _status);\n\n    uint8 constant public entryFee_ = 10;\n    uint8 constant public transferFee_ = 0;\n    uint8 constant public exitFee_ = 4;\n    uint8 constant public refferalFee_ = 33;\n    uint256 constant public tokenPriceInitial_ = 0.0000001 ether;\n    uint256 constant public tokenPriceIncremental_ = 0.00000001 ether;\n    uint256 constant public magnitude = 2 ** 64;\n    uint256 public stakingRequirement = 50e18;\n    address public XBOTTreasury;\n    IReferralContract public referralContract;\n    mapping(address => uint256) public referralBalance_;\n    mapping(address => int256) public payoutsTo_;\n    mapping(address => bool) public contractAllowanded;\n    uint256 public profitPerShare_;\n\n    bytes32 public referralCodeByOwner;\n\n    constructor(\n    ) ERC20(\"DeFiXBOT\", \"XBOT\") {\n    }\n\n    function buy(bytes32 _referredCode, uint256 minTokenOut) public payable{\n        purchaseTokens(msg.value, _referredCode, minTokenOut);\n    }\n\n    receive() external payable  { \n        purchaseTokens(msg.value, referralCodeByOwner, 1);\n    }\n\n    fallback() external payable{\n        purchaseTokens(msg.value, referralCodeByOwner, 1);\n    }\n\n    function setContractAllowanded(address _addressContract, bool _status) public onlyOwner {\n        contractAllowanded[_addressContract] = _status;\n        emit onSetContractAllowanded(_addressContract, _status);\n    }\n\n    function setXBOTTreasury(address _addressXBOTTreasury) public onlyOwner {\n        XBOTTreasury = _addressXBOTTreasury;\n    }\n\n    function setReferralContract(address _addressReferralContract) public onlyOwner {\n        referralContract = IReferralContract(_addressReferralContract);\n    }\n\n    function setReferralCodeByOwner(bytes32 _referralCodeByOwner) public onlyOwner {\n        referralCodeByOwner = _referralCodeByOwner;\n    }\n\n    function reinvest() onlyStronghands public {\n        uint256 _dividends = myDividends(false, msg.sender);\n        address _customerAddress = msg.sender;\n        payoutsTo_[_customerAddress] +=  int256(_dividends.mul(magnitude));\n        _dividends = _dividends.add(referralBalance_[_customerAddress]);\n        referralBalance_[_customerAddress] = 0;\n        uint256 _tokens = purchaseTokens(_dividends, referralCodeByOwner, 1);\n        emit onReinvestment(_customerAddress, _dividends, _tokens);\n    }\n\n    function exit() public {\n        address _customerAddress = msg.sender;\n        uint256 _tokens = balanceOf(_customerAddress);\n        if (_tokens > 0) sell(_tokens, 1);\n        withdraw();\n    }\n\n    function withdraw() onlyStronghands public {\n        address _customerAddress = msg.sender;\n        uint256 _dividends = myDividends(false, _customerAddress);\n        payoutsTo_[_customerAddress] += int256(_dividends.mul(magnitude));\n        _dividends = _dividends.add(referralBalance_[_customerAddress]);\n        referralBalance_[_customerAddress] = 0;\n        if(contractAllowanded[_customerAddress] == true) {\n            payable(XBOTTreasury).transfer(_dividends);\n        } else {\n            payable(_customerAddress).transfer(_dividends);\n        }\n        emit onWithdraw(_customerAddress, _dividends);\n    }\n\n    function sell(uint256 _amountOfTokens, uint256 minETHOut) onlyBagholders public {\n        address _customerAddress = msg.sender;\n        if(_amountOfTokens > balanceOf(_customerAddress)) {\n            _amountOfTokens = balanceOf(_customerAddress);\n        }\n        uint256 _ethereum = tokensToEthereum_(_amountOfTokens);\n        uint256 _dividends = _ethereum.mul(exitFee_).div(100);\n        uint256 _taxedEthereum = _ethereum.sub(_dividends);\n        require(minETHOut <= _taxedEthereum, \"minETHOut less taxedEthereum\");\n\n        super._burn(_customerAddress, _amountOfTokens);\n\n        int256 _updatedPayouts = int256(profitPerShare_.mul(_amountOfTokens).add(_taxedEthereum.mul(magnitude)));\n        payoutsTo_[_customerAddress] -= _updatedPayouts;\n\n        if (totalSupply() > 0) {\n            profitPerShare_ = profitPerShare_.add(_dividends.mul(magnitude).div(totalSupply()));\n        }\n        // emit onTokenSell(_customerAddress, _amountOfTokens, _taxedEthereum, block.timestamp, buyPrice());\n        emit Swap(_customerAddress, 0, _amountOfTokens, _taxedEthereum, 0, _customerAddress);\n    }\n\n    function transfer(address _toAddress, uint256 _amountOfTokens) onlyBagholders public override returns (bool) {\n        address _customerAddress = msg.sender;\n        require(_amountOfTokens <= balanceOf(_customerAddress), \"invalid amount token\");\n\n        if (myDividends(true, _customerAddress) > 0) {\n            withdraw();\n        }\n\n        uint256 _tokenFee = _amountOfTokens.mul(transferFee_).div(100);\n        uint256 _taxedTokens = _amountOfTokens.sub(_tokenFee);\n        uint256 _dividends = tokensToEthereum_(_tokenFee);\n        super._burn(_customerAddress, _tokenFee);\n        super.transfer(_toAddress, _taxedTokens);\n\n        payoutsTo_[_customerAddress] -= int256(profitPerShare_.mul(_amountOfTokens));\n        payoutsTo_[_toAddress] += int256(profitPerShare_.mul(_taxedTokens));\n        profitPerShare_ = profitPerShare_.add(_dividends.mul(magnitude).div(totalSupply()));\n        return true;\n    }\n\n    function transferFrom(address _fromAddress, address _toAddress, uint256 _amountOfTokens) public override returns (bool) {\n        require(_amountOfTokens <= balanceOf(_fromAddress), \"invalid amount token\");\n        if (myDividends(true, _fromAddress) > 0) {\n            address _customerAddress = _fromAddress;\n            uint256 _dividendsWithdraw = myDividends(false, _customerAddress);\n            payoutsTo_[_customerAddress] += int256(_dividendsWithdraw.mul(magnitude));\n            _dividendsWithdraw = _dividendsWithdraw.add(referralBalance_[_customerAddress]);\n            referralBalance_[_customerAddress] = 0;\n            if(contractAllowanded[_customerAddress] == true) {\n                payable(XBOTTreasury).transfer(_dividendsWithdraw);\n            } else {\n                payable(_customerAddress).transfer(_dividendsWithdraw);\n            }\n            emit onWithdraw(_customerAddress, _dividendsWithdraw);\n        }\n\n        uint256 _tokenFee = _amountOfTokens.mul(transferFee_).div(100);\n        uint256 _taxedTokens = _amountOfTokens.sub(_tokenFee);\n        uint256 _dividends = tokensToEthereum_(_tokenFee);\n        super._burn(_fromAddress, _tokenFee);\n        super.transferFrom(_fromAddress, _toAddress, _taxedTokens);\n\n        payoutsTo_[_fromAddress] -= int256(profitPerShare_.mul(_amountOfTokens));\n        payoutsTo_[_toAddress] += int256(profitPerShare_.mul(_taxedTokens));\n        profitPerShare_ = profitPerShare_.add(_dividends.mul(magnitude).div(totalSupply()));\n        return true;\n    }\n\n    function getETHBalance() public view returns (uint256) {\n        return address(this).balance;\n    }\n\n    function myTokens() public view returns (uint256) {\n        address _customerAddress = msg.sender;\n        return balanceOf(_customerAddress);\n    }\n\n    function myDividends(bool _includeReferralBonus, address _customerAddress) public view returns (uint256) {\n        return _includeReferralBonus ? dividendsOf(_customerAddress) + referralBalance_[_customerAddress] : dividendsOf(_customerAddress) ;\n    }\n\n    function dividendsOf(address _customerAddress) public view returns (uint256) {\n        return (uint256) ((int256) (profitPerShare_ * balanceOf(_customerAddress)) - payoutsTo_[_customerAddress]) / magnitude;\n    }\n\n    function sellPrice() public view returns (uint256) {\n        if (totalSupply() == 0) {\n            return tokenPriceInitial_.sub(tokenPriceIncremental_);\n        } else {\n            uint256 _ethereum = tokensToEthereum_(1e18);\n            uint256 _dividends = _ethereum.mul(exitFee_).div(100);\n            uint256 _taxedEthereum = _ethereum.sub(_dividends);\n\n            return _taxedEthereum;\n        }\n    }\n\n    function buyPrice() public view returns (uint256) {\n        if (totalSupply() == 0) {\n            return tokenPriceInitial_.add(tokenPriceIncremental_);\n        } else {\n            uint256 _ethereum = tokensToEthereum_(1e18);\n            uint256 _dividends = _ethereum.mul(entryFee_).div(100);\n            uint256 _taxedEthereum = _ethereum.add(_dividends);\n\n            return _taxedEthereum;\n        }\n    }\n\n    function calculateTokenOut(uint256 _ethereumToSpend) public view returns (uint256) {\n        uint256 _dividends = _ethereumToSpend.mul(entryFee_).div(100);\n        uint256 _taxedEthereum = _ethereumToSpend.sub(_dividends);\n        uint256 _amountOfTokens = ethereumToTokens_(_taxedEthereum);\n        return _amountOfTokens;\n    }\n\n    function calculateEthereumOut(uint256 _tokensToSell) public view returns (uint256) {\n        require(_tokensToSell <= totalSupply());\n        uint256 _ethereum = tokensToEthereum_(_tokensToSell);\n        uint256 _dividends = _ethereum.mul(exitFee_).div(100);\n        uint256 _taxedEthereum = _ethereum.sub(_dividends);\n        return _taxedEthereum;\n    }\n\n    function calculateTokenIn(uint256 _ethereumIn) public view returns (uint256) {\n        _ethereumIn = (_ethereumIn.mul(100)).div(uint256(100).sub(exitFee_));\n        uint256 _amountTokenInput = getTokenInputOfEthereumOutput(_ethereumIn);\n        return _amountTokenInput;\n    }\n   \n    function calculateEthereumIn(uint256 _tokenOut) public view returns(uint256) {\n        uint256 _taxedEthereum = getEtherumInputOfTokenOutput(_tokenOut);\n        uint256 _amountEthereumInput = _taxedEthereum.div(uint256(100).sub(entryFee_)).mul(100);\n        return _amountEthereumInput;\n    }\n\n    function purchaseTokens(uint256 _incomingEthereum, bytes32 _referredCode, uint256 minAmountOut) internal returns (uint256) {\n        address _referredBy = referralContract.getUserByReferralCode(_referredCode);\n        address _customerAddress = msg.sender;\n        uint256 _undividedDividends = _incomingEthereum.mul(entryFee_).div(100);\n        uint256 _referralBonus = _undividedDividends.mul(refferalFee_).div(100);\n        uint256 _dividends = _undividedDividends.sub(_referralBonus);\n        uint256 _taxedEthereum = _incomingEthereum.sub(_undividedDividends);\n        uint256 _amountOfTokens = ethereumToTokens_(_taxedEthereum);\n        uint256 _fee = uint256(_dividends.mul(magnitude));\n\n        require(_amountOfTokens > 0 && _amountOfTokens.add(totalSupply()) > totalSupply(), \"error require\");\n        require(minAmountOut <= _amountOfTokens, \"min token out less amount token out\");\n        if (\n            _referredBy != address(0) &&\n            _referredBy != _customerAddress &&\n            balanceOf(_referredBy) >= stakingRequirement\n        ) {\n            referralBalance_[_referredBy] = referralBalance_[_referredBy].add(_referralBonus);\n        } else {\n            _dividends = _dividends.add(_referralBonus);\n            _fee = uint256(_dividends.mul(magnitude));\n        }\n\n        if (totalSupply() > 0) {\n            profitPerShare_ += (_dividends.mul(magnitude).div(totalSupply().add(_amountOfTokens)));\n            _fee = _fee.sub(_fee.sub(_amountOfTokens.mul(_dividends.mul(magnitude).div(totalSupply().add(_amountOfTokens)))));\n        }\n\n        _mint(_customerAddress, _amountOfTokens);\n        \n        int256 _updatedPayouts = int256(profitPerShare_) * int256(_amountOfTokens) - int256(_fee);\n        payoutsTo_[_customerAddress] += _updatedPayouts;\n\n        // emit onTokenPurchase(_customerAddress, _incomingEthereum, _amountOfTokens, _referredBy, block.timestamp, buyPrice());\n        emit Swap(_customerAddress, _incomingEthereum, 0, 0, _amountOfTokens, _customerAddress);\n        return _amountOfTokens;\n    }\n\n     function ethereumToTokens_(uint256 _ethereum) internal view returns (uint256) {\n        if(_ethereum == 0) return 0;\n        uint256 _tokenPriceInitial = tokenPriceInitial_ * 1e18;\n        uint256 _tokensReceived =\n            (\n                (\n                    (sqrt\n                        (\n                            (_tokenPriceInitial ** 2)\n                            +\n                            (2 * (tokenPriceIncremental_ * 1e18) * (_ethereum * 1e18))\n                            +\n                            ((tokenPriceIncremental_ ** 2) * (totalSupply() ** 2))\n                            +\n                            (2 * tokenPriceIncremental_ * _tokenPriceInitial*totalSupply())\n                        )\n                    ).sub(_tokenPriceInitial)\n                ) / (tokenPriceIncremental_)\n            ) - (totalSupply());\n\n        return _tokensReceived;\n    }\n\n    function tokensToEthereum_(uint256 _token) public view returns (uint256) {\n        if(_token == 0) return 0;\n        uint256 token_ = _token + 1e18;\n        uint256 _tokenSupply = totalSupply() + 1e18;\n        uint256 _etherReceived =\n            (\n                (\n                    (\n                        (\n                            tokenPriceInitial_ + (tokenPriceIncremental_ * (_tokenSupply.div(1e18)))\n                        ) - tokenPriceIncremental_\n                    ) * (token_.sub(1e18))\n                ).sub(tokenPriceIncremental_ * ((token_ ** 2 - token_) / 1e18) / 2).div(1e18)\n            );\n        return _etherReceived;\n    }\n\n    function getEtherumInputOfTokenOutput(uint256 _token) public view returns (uint256) {\n        if(_token == 0) return 0;\n        uint256 _tokenPriceInitial = tokenPriceInitial_ * 1e18;\n        uint256 _tokenSupply = totalSupply();\n        uint256 _ethereumInput = (\n            ((tokenPriceIncremental_ ** 2) * ((_token + _tokenSupply) ** 2))\n            +\n            (2 * _tokenPriceInitial * tokenPriceIncremental_ * (_token + _tokenSupply))\n            -\n            ((tokenPriceIncremental_ ** 2) * (_tokenSupply ** 2))\n            -\n            (2 * tokenPriceIncremental_ * _tokenPriceInitial * _tokenSupply)\n        ) / (2 * tokenPriceIncremental_ * 1e36);\n\n        return _ethereumInput;\n    }\n    \n    function getTokenInputOfEthereumOutput(uint256 _ethereum) public view returns (uint256) {\n        if(_ethereum == 0) return 0;\n        uint256 _tokenSupply = totalSupply() + 1e18;\n        uint256 detal = \n        (\n            (tokenPriceIncremental_ / (2 * 1e18)) \n            + \n            tokenPriceInitial_ \n            + \n            ((tokenPriceIncremental_ * _tokenSupply) / 1e18) \n            - \n            tokenPriceIncremental_\n        ) ** 2 \n        - \n        (2 * tokenPriceIncremental_ * _ethereum);\n\n        uint256 _tokenInput = \n        (\n            (\n                (tokenPriceIncremental_ / (2 * 1e18)) \n                + \n                tokenPriceInitial_ \n                + \n                ((tokenPriceIncremental_ * _tokenSupply) / 1e18) \n                - \n                tokenPriceIncremental_ \n                - \n                sqrt(detal)\n            ) * 1e18\n        ) / (tokenPriceIncremental_);\n        return _tokenInput;\n    }\n\n    function getAmountOut(uint256 _amountIn, address _tokenIn) public view returns (uint256) {\n        if(_tokenIn == address(this)) {\n            return calculateEthereumOut(_amountIn);\n        }\n        return calculateTokenOut(_amountIn);\n    }\n\n    function getAmountIn(uint256 _amountOut, address _tokenOut) public view returns(uint256) {\n        if(_tokenOut == address(this)) {\n            return calculateEthereumIn(_amountOut);\n        }\n        return calculateTokenIn(_amountOut);\n    }\n\n    function sqrt(uint256 x) public pure returns (uint256 y) {\n        uint256 z = (x + 1) / 2;\n        y = x;\n\n        while (z < y) {\n            y = z;\n            z = (x / z + z) / 2;\n        }\n    }\n}",
  "sourcePath": "/Applications/projects/contracts/contracts/DeFiXBot/XBOT.sol",
  "compiler": {
    "name": "solc",
    "version": "0.8.17+commit.8df45f5f.Emscripten.clang"
  },
  "schemaVersion": "3.4.11",
  "updatedAt": "2023-10-03T04:24:41.086Z",
  "networkType": "ethereum",
  "devdoc": {
    "kind": "dev",
    "methods": {
      "allowance(address,address)": {
        "details": "See {IERC20-allowance}."
      },
      "approve(address,uint256)": {
        "details": "See {IERC20-approve}. NOTE: If `amount` is the maximum `uint256`, the allowance is not updated on `transferFrom`. This is semantically equivalent to an infinite approval. Requirements: - `spender` cannot be the zero address."
      },
      "balanceOf(address)": {
        "details": "See {IERC20-balanceOf}."
      },
      "burn(uint256)": {
        "details": "Destroys `amount` tokens from the caller. See {ERC20-_burn}."
      },
      "burnFrom(address,uint256)": {
        "details": "Destroys `amount` tokens from `account`, deducting from the caller's allowance. See {ERC20-_burn} and {ERC20-allowance}. Requirements: - the caller must have allowance for ``accounts``'s tokens of at least `amount`."
      },
      "decimals()": {
        "details": "Returns the number of decimals used to get its user representation. For example, if `decimals` equals `2`, a balance of `505` tokens should be displayed to a user as `5.05` (`505 / 10 ** 2`). Tokens usually opt for a value of 18, imitating the relationship between Ether and Wei. This is the default value returned by this function, unless it's overridden. NOTE: This information is only used for _display_ purposes: it in no way affects any of the arithmetic of the contract, including {IERC20-balanceOf} and {IERC20-transfer}."
      },
      "decreaseAllowance(address,uint256)": {
        "details": "Atomically decreases the allowance granted to `spender` by the caller. This is an alternative to {approve} that can be used as a mitigation for problems described in {IERC20-approve}. Emits an {Approval} event indicating the updated allowance. Requirements: - `spender` cannot be the zero address. - `spender` must have allowance for the caller of at least `subtractedValue`."
      },
      "increaseAllowance(address,uint256)": {
        "details": "Atomically increases the allowance granted to `spender` by the caller. This is an alternative to {approve} that can be used as a mitigation for problems described in {IERC20-approve}. Emits an {Approval} event indicating the updated allowance. Requirements: - `spender` cannot be the zero address."
      },
      "name()": {
        "details": "Returns the name of the token."
      },
      "owner()": {
        "details": "Returns the address of the current owner."
      },
      "renounceOwnership()": {
        "details": "Leaves the contract without owner. It will not be possible to call `onlyOwner` functions. Can only be called by the current owner. NOTE: Renouncing ownership will leave the contract without an owner, thereby disabling any functionality that is only available to the owner."
      },
      "symbol()": {
        "details": "Returns the symbol of the token, usually a shorter version of the name."
      },
      "totalSupply()": {
        "details": "See {IERC20-totalSupply}."
      },
      "transferOwnership(address)": {
        "details": "Transfers ownership of the contract to a new account (`newOwner`). Can only be called by the current owner."
      }
    },
    "version": 1
  },
  "userdoc": {
    "kind": "user",
    "methods": {},
    "version": 1
  }
}