{
  "contractName": "XBOT",
  "abi": [
    {
      "inputs": [],
      "stateMutability": "nonpayable",
      "type": "constructor"
    },
    {
      "anonymous": false,
      "inputs": [
        {
          "indexed": true,
          "internalType": "address",
          "name": "owner",
          "type": "address"
        },
        {
          "indexed": true,
          "internalType": "address",
          "name": "spender",
          "type": "address"
        },
        {
          "indexed": false,
          "internalType": "uint256",
          "name": "value",
          "type": "uint256"
        }
      ],
      "name": "Approval",
      "type": "event"
    },
    {
      "anonymous": false,
      "inputs": [
        {
          "indexed": true,
          "internalType": "address",
          "name": "previousOwner",
          "type": "address"
        },
        {
          "indexed": true,
          "internalType": "address",
          "name": "newOwner",
          "type": "address"
        }
      ],
      "name": "OwnershipTransferred",
      "type": "event"
    },
    {
      "anonymous": false,
      "inputs": [
        {
          "indexed": true,
          "internalType": "address",
          "name": "sender",
          "type": "address"
        },
        {
          "indexed": false,
          "internalType": "uint256",
          "name": "amount0In",
          "type": "uint256"
        },
        {
          "indexed": false,
          "internalType": "uint256",
          "name": "amount1In",
          "type": "uint256"
        },
        {
          "indexed": false,
          "internalType": "uint256",
          "name": "amount0Out",
          "type": "uint256"
        },
        {
          "indexed": false,
          "internalType": "uint256",
          "name": "amount1Out",
          "type": "uint256"
        },
        {
          "indexed": true,
          "internalType": "address",
          "name": "to",
          "type": "address"
        }
      ],
      "name": "Swap",
      "type": "event"
    },
    {
      "anonymous": false,
      "inputs": [
        {
          "indexed": true,
          "internalType": "address",
          "name": "from",
          "type": "address"
        },
        {
          "indexed": true,
          "internalType": "address",
          "name": "to",
          "type": "address"
        },
        {
          "indexed": false,
          "internalType": "uint256",
          "name": "value",
          "type": "uint256"
        }
      ],
      "name": "Transfer",
      "type": "event"
    },
    {
      "anonymous": false,
      "inputs": [
        {
          "indexed": true,
          "internalType": "address",
          "name": "customerAddress",
          "type": "address"
        },
        {
          "indexed": false,
          "internalType": "uint256",
          "name": "ethereumReinvested",
          "type": "uint256"
        },
        {
          "indexed": false,
          "internalType": "uint256",
          "name": "tokensMinted",
          "type": "uint256"
        }
      ],
      "name": "onReinvestment",
      "type": "event"
    },
    {
      "anonymous": false,
      "inputs": [
        {
          "indexed": false,
          "internalType": "address",
          "name": "_addressContract",
          "type": "address"
        },
        {
          "indexed": false,
          "internalType": "bool",
          "name": "_status",
          "type": "bool"
        }
      ],
      "name": "onSetContractAllowanded",
      "type": "event"
    },
    {
      "anonymous": false,
      "inputs": [
        {
          "indexed": true,
          "internalType": "address",
          "name": "customerAddress",
          "type": "address"
        },
        {
          "indexed": false,
          "internalType": "uint256",
          "name": "ethereumWithdrawn",
          "type": "uint256"
        }
      ],
      "name": "onWithdraw",
      "type": "event"
    },
    {
      "stateMutability": "payable",
      "type": "fallback"
    },
    {
      "inputs": [
        {
          "internalType": "address",
          "name": "owner",
          "type": "address"
        },
        {
          "internalType": "address",
          "name": "spender",
          "type": "address"
        }
      ],
      "name": "allowance",
      "outputs": [
        {
          "internalType": "uint256",
          "name": "",
          "type": "uint256"
        }
      ],
      "stateMutability": "view",
      "type": "function"
    },
    {
      "inputs": [
        {
          "internalType": "address",
          "name": "spender",
          "type": "address"
        },
        {
          "internalType": "uint256",
          "name": "amount",
          "type": "uint256"
        }
      ],
      "name": "approve",
      "outputs": [
        {
          "internalType": "bool",
          "name": "",
          "type": "bool"
        }
      ],
      "stateMutability": "nonpayable",
      "type": "function"
    },
    {
      "inputs": [
        {
          "internalType": "address",
          "name": "account",
          "type": "address"
        }
      ],
      "name": "balanceOf",
      "outputs": [
        {
          "internalType": "uint256",
          "name": "",
          "type": "uint256"
        }
      ],
      "stateMutability": "view",
      "type": "function"
    },
    {
      "inputs": [
        {
          "internalType": "uint256",
          "name": "amount",
          "type": "uint256"
        }
      ],
      "name": "burn",
      "outputs": [],
      "stateMutability": "nonpayable",
      "type": "function"
    },
    {
      "inputs": [
        {
          "internalType": "address",
          "name": "account",
          "type": "address"
        },
        {
          "internalType": "uint256",
          "name": "amount",
          "type": "uint256"
        }
      ],
      "name": "burnFrom",
      "outputs": [],
      "stateMutability": "nonpayable",
      "type": "function"
    },
    {
      "inputs": [
        {
          "internalType": "address",
          "name": "",
          "type": "address"
        }
      ],
      "name": "contractAllowanded",
      "outputs": [
        {
          "internalType": "bool",
          "name": "",
          "type": "bool"
        }
      ],
      "stateMutability": "view",
      "type": "function"
    },
    {
      "inputs": [],
      "name": "decimals",
      "outputs": [
        {
          "internalType": "uint8",
          "name": "",
          "type": "uint8"
        }
      ],
      "stateMutability": "view",
      "type": "function"
    },
    {
      "inputs": [
        {
          "internalType": "address",
          "name": "spender",
          "type": "address"
        },
        {
          "internalType": "uint256",
          "name": "subtractedValue",
          "type": "uint256"
        }
      ],
      "name": "decreaseAllowance",
      "outputs": [
        {
          "internalType": "bool",
          "name": "",
          "type": "bool"
        }
      ],
      "stateMutability": "nonpayable",
      "type": "function"
    },
    {
      "inputs": [],
      "name": "entryFee_",
      "outputs": [
        {
          "internalType": "uint8",
          "name": "",
          "type": "uint8"
        }
      ],
      "stateMutability": "view",
      "type": "function"
    },
    {
      "inputs": [],
      "name": "exitFee_",
      "outputs": [
        {
          "internalType": "uint8",
          "name": "",
          "type": "uint8"
        }
      ],
      "stateMutability": "view",
      "type": "function"
    },
    {
      "inputs": [
        {
          "internalType": "address",
          "name": "spender",
          "type": "address"
        },
        {
          "internalType": "uint256",
          "name": "addedValue",
          "type": "uint256"
        }
      ],
      "name": "increaseAllowance",
      "outputs": [
        {
          "internalType": "bool",
          "name": "",
          "type": "bool"
        }
      ],
      "stateMutability": "nonpayable",
      "type": "function"
    },
    {
      "inputs": [],
      "name": "magnitude",
      "outputs": [
        {
          "internalType": "uint256",
          "name": "",
          "type": "uint256"
        }
      ],
      "stateMutability": "view",
      "type": "function"
    },
    {
      "inputs": [],
      "name": "name",
      "outputs": [
        {
          "internalType": "string",
          "name": "",
          "type": "string"
        }
      ],
      "stateMutability": "view",
      "type": "function"
    },
    {
      "inputs": [],
      "name": "owner",
      "outputs": [
        {
          "internalType": "address",
          "name": "",
          "type": "address"
        }
      ],
      "stateMutability": "view",
      "type": "function"
    },
    {
      "inputs": [
        {
          "internalType": "address",
          "name": "",
          "type": "address"
        }
      ],
      "name": "payoutsTo_",
      "outputs": [
        {
          "internalType": "int256",
          "name": "",
          "type": "int256"
        }
      ],
      "stateMutability": "view",
      "type": "function"
    },
    {
      "inputs": [],
      "name": "profitPerShare_",
      "outputs": [
        {
          "internalType": "uint256",
          "name": "",
          "type": "uint256"
        }
      ],
      "stateMutability": "view",
      "type": "function"
    },
    {
      "inputs": [
        {
          "internalType": "address",
          "name": "",
          "type": "address"
        }
      ],
      "name": "referralBalance_",
      "outputs": [
        {
          "internalType": "uint256",
          "name": "",
          "type": "uint256"
        }
      ],
      "stateMutability": "view",
      "type": "function"
    },
    {
      "inputs": [],
      "name": "refferalFee_",
      "outputs": [
        {
          "internalType": "uint8",
          "name": "",
          "type": "uint8"
        }
      ],
      "stateMutability": "view",
      "type": "function"
    },
    {
      "inputs": [],
      "name": "renounceOwnership",
      "outputs": [],
      "stateMutability": "nonpayable",
      "type": "function"
    },
    {
      "inputs": [],
      "name": "stakingRequirement",
      "outputs": [
        {
          "internalType": "uint256",
          "name": "",
          "type": "uint256"
        }
      ],
      "stateMutability": "view",
      "type": "function"
    },
    {
      "inputs": [],
      "name": "symbol",
      "outputs": [
        {
          "internalType": "string",
          "name": "",
          "type": "string"
        }
      ],
      "stateMutability": "view",
      "type": "function"
    },
    {
      "inputs": [],
      "name": "tokenPriceIncremental_",
      "outputs": [
        {
          "internalType": "uint256",
          "name": "",
          "type": "uint256"
        }
      ],
      "stateMutability": "view",
      "type": "function"
    },
    {
      "inputs": [],
      "name": "tokenPriceInitial_",
      "outputs": [
        {
          "internalType": "uint256",
          "name": "",
          "type": "uint256"
        }
      ],
      "stateMutability": "view",
      "type": "function"
    },
    {
      "inputs": [],
      "name": "totalSupply",
      "outputs": [
        {
          "internalType": "uint256",
          "name": "",
          "type": "uint256"
        }
      ],
      "stateMutability": "view",
      "type": "function"
    },
    {
      "inputs": [],
      "name": "transferFee_",
      "outputs": [
        {
          "internalType": "uint8",
          "name": "",
          "type": "uint8"
        }
      ],
      "stateMutability": "view",
      "type": "function"
    },
    {
      "inputs": [
        {
          "internalType": "address",
          "name": "newOwner",
          "type": "address"
        }
      ],
      "name": "transferOwnership",
      "outputs": [],
      "stateMutability": "nonpayable",
      "type": "function"
    },
    {
      "stateMutability": "payable",
      "type": "receive"
    },
    {
      "inputs": [
        {
          "internalType": "address",
          "name": "_referredBy",
          "type": "address"
        },
        {
          "internalType": "uint256",
          "name": "minTokenOut",
          "type": "uint256"
        }
      ],
      "name": "buy",
      "outputs": [],
      "stateMutability": "payable",
      "type": "function"
    },
    {
      "inputs": [
        {
          "internalType": "address",
          "name": "_addressContract",
          "type": "address"
        },
        {
          "internalType": "bool",
          "name": "_status",
          "type": "bool"
        }
      ],
      "name": "setContractAllowanded",
      "outputs": [],
      "stateMutability": "nonpayable",
      "type": "function"
    },
    {
      "inputs": [],
      "name": "reinvest",
      "outputs": [],
      "stateMutability": "nonpayable",
      "type": "function"
    },
    {
      "inputs": [],
      "name": "exit",
      "outputs": [],
      "stateMutability": "nonpayable",
      "type": "function"
    },
    {
      "inputs": [],
      "name": "withdraw",
      "outputs": [],
      "stateMutability": "nonpayable",
      "type": "function"
    },
    {
      "inputs": [
        {
          "internalType": "uint256",
          "name": "_amountOfTokens",
          "type": "uint256"
        },
        {
          "internalType": "uint256",
          "name": "minETHOut",
          "type": "uint256"
        }
      ],
      "name": "sell",
      "outputs": [],
      "stateMutability": "nonpayable",
      "type": "function"
    },
    {
      "inputs": [
        {
          "internalType": "address",
          "name": "_toAddress",
          "type": "address"
        },
        {
          "internalType": "uint256",
          "name": "_amountOfTokens",
          "type": "uint256"
        }
      ],
      "name": "transfer",
      "outputs": [
        {
          "internalType": "bool",
          "name": "",
          "type": "bool"
        }
      ],
      "stateMutability": "nonpayable",
      "type": "function"
    },
    {
      "inputs": [
        {
          "internalType": "address",
          "name": "_fromAddress",
          "type": "address"
        },
        {
          "internalType": "address",
          "name": "_toAddress",
          "type": "address"
        },
        {
          "internalType": "uint256",
          "name": "_amountOfTokens",
          "type": "uint256"
        }
      ],
      "name": "transferFrom",
      "outputs": [
        {
          "internalType": "bool",
          "name": "",
          "type": "bool"
        }
      ],
      "stateMutability": "nonpayable",
      "type": "function"
    },
    {
      "inputs": [],
      "name": "getETHBalance",
      "outputs": [
        {
          "internalType": "uint256",
          "name": "",
          "type": "uint256"
        }
      ],
      "stateMutability": "view",
      "type": "function"
    },
    {
      "inputs": [],
      "name": "myTokens",
      "outputs": [
        {
          "internalType": "uint256",
          "name": "",
          "type": "uint256"
        }
      ],
      "stateMutability": "view",
      "type": "function"
    },
    {
      "inputs": [
        {
          "internalType": "bool",
          "name": "_includeReferralBonus",
          "type": "bool"
        },
        {
          "internalType": "address",
          "name": "_customerAddress",
          "type": "address"
        }
      ],
      "name": "myDividends",
      "outputs": [
        {
          "internalType": "uint256",
          "name": "",
          "type": "uint256"
        }
      ],
      "stateMutability": "view",
      "type": "function"
    },
    {
      "inputs": [
        {
          "internalType": "address",
          "name": "_customerAddress",
          "type": "address"
        }
      ],
      "name": "dividendsOf",
      "outputs": [
        {
          "internalType": "uint256",
          "name": "",
          "type": "uint256"
        }
      ],
      "stateMutability": "view",
      "type": "function"
    },
    {
      "inputs": [],
      "name": "sellPrice",
      "outputs": [
        {
          "internalType": "uint256",
          "name": "",
          "type": "uint256"
        }
      ],
      "stateMutability": "view",
      "type": "function"
    },
    {
      "inputs": [],
      "name": "buyPrice",
      "outputs": [
        {
          "internalType": "uint256",
          "name": "",
          "type": "uint256"
        }
      ],
      "stateMutability": "view",
      "type": "function"
    },
    {
      "inputs": [
        {
          "internalType": "uint256",
          "name": "_ethereumToSpend",
          "type": "uint256"
        }
      ],
      "name": "calculateTokenOut",
      "outputs": [
        {
          "internalType": "uint256",
          "name": "",
          "type": "uint256"
        }
      ],
      "stateMutability": "view",
      "type": "function"
    },
    {
      "inputs": [
        {
          "internalType": "uint256",
          "name": "_tokensToSell",
          "type": "uint256"
        }
      ],
      "name": "calculateEthereumOut",
      "outputs": [
        {
          "internalType": "uint256",
          "name": "",
          "type": "uint256"
        }
      ],
      "stateMutability": "view",
      "type": "function"
    },
    {
      "inputs": [
        {
          "internalType": "uint256",
          "name": "_ethereumIn",
          "type": "uint256"
        }
      ],
      "name": "calculateTokenIn",
      "outputs": [
        {
          "internalType": "uint256",
          "name": "",
          "type": "uint256"
        }
      ],
      "stateMutability": "view",
      "type": "function"
    },
    {
      "inputs": [
        {
          "internalType": "uint256",
          "name": "_tokenOut",
          "type": "uint256"
        }
      ],
      "name": "calculateEthereumIn",
      "outputs": [
        {
          "internalType": "uint256",
          "name": "",
          "type": "uint256"
        }
      ],
      "stateMutability": "view",
      "type": "function"
    },
    {
      "inputs": [
        {
          "internalType": "uint256",
          "name": "_token",
          "type": "uint256"
        }
      ],
      "name": "tokensToEthereum_",
      "outputs": [
        {
          "internalType": "uint256",
          "name": "",
          "type": "uint256"
        }
      ],
      "stateMutability": "view",
      "type": "function"
    },
    {
      "inputs": [
        {
          "internalType": "uint256",
          "name": "_token",
          "type": "uint256"
        }
      ],
      "name": "getEtherumInputOfTokenOutput",
      "outputs": [
        {
          "internalType": "uint256",
          "name": "",
          "type": "uint256"
        }
      ],
      "stateMutability": "view",
      "type": "function"
    },
    {
      "inputs": [
        {
          "internalType": "uint256",
          "name": "_ethereum",
          "type": "uint256"
        }
      ],
      "name": "getTokenInputOfEthereumOutput",
      "outputs": [
        {
          "internalType": "uint256",
          "name": "",
          "type": "uint256"
        }
      ],
      "stateMutability": "view",
      "type": "function"
    },
    {
      "inputs": [
        {
          "internalType": "uint256",
          "name": "_amountIn",
          "type": "uint256"
        },
        {
          "internalType": "address",
          "name": "_tokenIn",
          "type": "address"
        }
      ],
      "name": "getAmountOut",
      "outputs": [
        {
          "internalType": "uint256",
          "name": "",
          "type": "uint256"
        }
      ],
      "stateMutability": "view",
      "type": "function"
    },
    {
      "inputs": [
        {
          "internalType": "uint256",
          "name": "_amountOut",
          "type": "uint256"
        },
        {
          "internalType": "address",
          "name": "_tokenOut",
          "type": "address"
        }
      ],
      "name": "getAmountIn",
      "outputs": [
        {
          "internalType": "uint256",
          "name": "",
          "type": "uint256"
        }
      ],
      "stateMutability": "view",
      "type": "function"
    },
    {
      "inputs": [
        {
          "internalType": "uint256",
          "name": "x",
          "type": "uint256"
        }
      ],
      "name": "sqrt",
      "outputs": [
        {
          "internalType": "uint256",
          "name": "y",
          "type": "uint256"
        }
      ],
      "stateMutability": "pure",
      "type": "function"
    }
  ],
  "bytecode": "0x60806040526802b5e3af16b18800006006553480156200001e57600080fd5b50604051806040016040528060088152602001671119519a561093d560c21b81525060405180604001604052806004815260200163161093d560e21b81525081600390816200006e91906200019b565b5060046200007d82826200019b565b5050506200009a62000094620000a060201b60201c565b620000a4565b62000267565b3390565b600580546001600160a01b038381166001600160a01b0319831681179093556040519116919082907f8be0079c531659141344cd1fd0a4f28419497f9722a3daafe3b4186f6b6457e090600090a35050565b634e487b7160e01b600052604160045260246000fd5b600181811c908216806200012157607f821691505b6020821081036200014257634e487b7160e01b600052602260045260246000fd5b50919050565b601f8211156200019657600081815260208120601f850160051c81016020861015620001715750805b601f850160051c820191505b8181101562000192578281556001016200017d565b5050505b505050565b81516001600160401b03811115620001b757620001b7620000f6565b620001cf81620001c884546200010c565b8462000148565b602080601f831160018114620002075760008415620001ee5750858301515b600019600386901b1c1916600185901b17855562000192565b600085815260208120601f198616915b82811015620002385788860151825594840194600190910190840162000217565b5085821015620002575787850151600019600388901b60f8161c191681555b5050505050600190811b01905550565b6127bb80620002776000396000f3fe6080604052600436106102cc5760003560e01c806379cc679011610175578063bf3b397b116100dc578063dd62ed3e11610095578063f140a35a1161006f578063f140a35a1461085b578063f2fde38b1461087b578063f9fbfb4f1461089b578063fdb5a03e146108bb576102f0565b8063dd62ed3e146107f9578063e1456cb414610819578063e9fad8ee14610846576102f0565b8063bf3b397b1461074b578063c4c1b39a1461076b578063c664f7f114610784578063cb8cd7cb146107b1578063cce7ec13146107c6578063d79875eb146107d9576102f0565b80639d4060831161012e5780639d406083146106965780639e46db5e146106b6578063a0cd9565146106d6578063a457c2d7146106eb578063a9059cbb1461070b578063b41013651461072b576102f0565b806379cc6790146105ef5780638620410b1461060f5780638da5cb5b146106245780638e72267a1461064c578063949e8acd1461066c57806395d89b4114610681576102f0565b80633950935111610234578063642ad54a116101ed57806370a08231116101c757806370a0823114610584578063710b318b146105a4578063712e8ab6146105ba578063715018a6146105da576102f0565b8063642ad54a14610531578063677342ce146105515780636e94729814610571576102f0565b806339509351146104815780633ccfd60b146104a15780633d3fcdec146104b657806342966c68146104e65780634b7503341461050657806356d399e81461051b576102f0565b806319123c1f1161028657806319123c1f146103d95780632290d6e2146103f157806323b872dd146104185780632692f5da146104385780632b38ee5614610458578063313ce5671461046d576102f0565b806265318b1461030657806306fdde0314610339578063095ea7b31461035b5780630ea8e5ac1461038b5780631125f13f146103a457806318160ddd146103c4576102f0565b366102f0576102ee346102e76005546001600160a01b031690565b60016108d0565b005b6102ee346102e76005546001600160a01b031690565b34801561031257600080fd5b506103266103213660046123b4565b610bdb565b6040519081526020015b60405180910390f35b34801561034557600080fd5b5061034e610c2a565b60405161033091906123cf565b34801561036757600080fd5b5061037b61037636600461241d565b610cbc565b6040519015158152602001610330565b34801561039757600080fd5b506103266402540be40081565b3480156103b057600080fd5b506103266103bf366004612447565b610cd4565b3480156103d057600080fd5b50600254610326565b3480156103e557600080fd5b50610326600160401b81565b3480156103fd57600080fd5b50610406600a81565b60405160ff9091168152602001610330565b34801561042457600080fd5b5061037b610433366004612473565b610d06565b34801561044457600080fd5b506102ee6104533660046124bf565b610f57565b34801561046457600080fd5b50610406600481565b34801561047957600080fd5b506012610406565b34801561048d57600080fd5b5061037b61049c36600461241d565b610fc2565b3480156104ad57600080fd5b506102ee610fe4565b3480156104c257600080fd5b5061037b6104d13660046123b4565b60096020526000908152604090205460ff1681565b3480156104f257600080fd5b506102ee6105013660046124e9565b6110fa565b34801561051257600080fd5b50610326611107565b34801561052757600080fd5b5061032660065481565b34801561053d57600080fd5b5061032661054c366004612502565b61116f565b34801561055d57600080fd5b5061032661056c3660046124e9565b6111b0565b34801561057d57600080fd5b5047610326565b34801561059057600080fd5b5061032661059f3660046123b4565b611209565b3480156105b057600080fd5b50610326600a5481565b3480156105c657600080fd5b506103266105d53660046124e9565b611224565b3480156105e657600080fd5b506102ee611254565b3480156105fb57600080fd5b506102ee61060a36600461241d565b611268565b34801561061b57600080fd5b50610326611281565b34801561063057600080fd5b506005546040516001600160a01b039091168152602001610330565b34801561065857600080fd5b506103266106673660046124e9565b6112dc565b34801561067857600080fd5b5061032661143e565b34801561068d57600080fd5b5061034e611450565b3480156106a257600080fd5b506103266106b13660046124e9565b61145f565b3480156106c257600080fd5b506103266106d13660046124e9565b61158c565b3480156106e257600080fd5b50610406602181565b3480156106f757600080fd5b5061037b61070636600461241d565b6115b5565b34801561071757600080fd5b5061037b61072636600461241d565b61163b565b34801561073757600080fd5b506103266107463660046124e9565b61176d565b34801561075757600080fd5b506103266107663660046124e9565b6117b1565b34801561077757600080fd5b5061032664174876e80081565b34801561079057600080fd5b5061032661079f3660046123b4565b60076020526000908152604090205481565b3480156107bd57600080fd5b50610406600081565b6102ee6107d436600461241d565b6118a6565b3480156107e557600080fd5b506102ee6107f436600461252c565b6118b6565b34801561080557600080fd5b5061032661081436600461254e565b611a3a565b34801561082557600080fd5b506103266108343660046123b4565b60086020526000908152604090205481565b34801561085257600080fd5b506102ee611a65565b34801561086757600080fd5b50610326610876366004612447565b611a8c565b34801561088757600080fd5b506102ee6108963660046123b4565b611ab0565b3480156108a757600080fd5b506103266108b63660046124e9565b611b26565b3480156108c757600080fd5b506102ee611b54565b600033816108ea60646108e488600a611c50565b90611c5c565b905060006108fe60646108e4846021611c50565b9050600061090c8383611c68565b9050600061091a8985611c68565b9050600061092782611c74565b9050600061093984600160401b611c50565b905060008211801561095557506002546109538382611d8a565b115b6109965760405162461bcd60e51b815260206004820152600d60248201526c6572726f72207265717569726560981b60448201526064015b60405180910390fd5b818911156109f25760405162461bcd60e51b815260206004820152602360248201527f6d696e20746f6b656e206f7574206c65737320616d6f756e7420746f6b656e206044820152621bdd5d60ea1b606482015260840161098d565b6001600160a01b038a1615801590610a1c5750866001600160a01b03168a6001600160a01b031614155b8015610a325750600654610a2f8b611209565b10155b15610a78576001600160a01b038a16600090815260076020526040902054610a5a9086611d8a565b6001600160a01b038b16600090815260076020526040902055610a95565b610a828486611d8a565b9350610a9284600160401b611c50565b90505b6000610aa060025490565b1115610b2057610aca610abc83610ab660025490565b90611d8a565b6108e486600160401b611c50565b600a6000828254610adb9190612580565b90915550610b1d9050610b16610b0f610b08610afa86610ab660025490565b6108e489600160401b611c50565b8590611c50565b8390611c68565b8290611c68565b90505b610b2a8783611d96565b60008183600a54610b3b9190612593565b610b4591906125c3565b6001600160a01b038916600090815260086020526040812080549293508392909190610b729084906125ea565b9091555050604080518d8152600060208201819052818301526060810185905290516001600160a01b038a169182917fd78ad95fa46c994b6551d0da85fc275fe613ce37657fb8d5e3d130840159d8229181900360800190a350909a9950505050505050505050565b6001600160a01b038116600090815260086020526040812054600160401b90610c0384611209565b600a54610c109190612612565b610c1a91906125c3565b610c249190612629565b92915050565b606060038054610c399061264b565b80601f0160208091040260200160405190810160405280929190818152602001828054610c659061264b565b8015610cb25780601f10610c8757610100808354040283529160200191610cb2565b820191906000526020600020905b815481529060010190602001808311610c9557829003601f168201915b5050505050905090565b600033610cca818585611e55565b5060019392505050565b6000306001600160a01b03831603610cf657610cef83611224565b9050610c24565b610cff8361158c565b9392505050565b6000610d1184611209565b821115610d575760405162461bcd60e51b815260206004820152601460248201527334b73b30b634b21030b6b7bab73a103a37b5b2b760611b604482015260640161098d565b6000610d6460018661116f565b1115610e6857836000610d77818361116f565b9050610d8781600160401b611c50565b6001600160a01b03831660009081526008602052604081208054909190610daf9084906125ea565b90915550506001600160a01b038216600090815260076020526040902054610dd8908290611d8a565b6001600160a01b03831660008181526007602052604080822082905551929350909183156108fc0291849190818181858888f19350505050158015610e21573d6000803e3d6000fd5b50816001600160a01b03167fccad973dcd043c7d680389db4378bd6b9775db7124092e9e0422c9e46d7985dc82604051610e5d91815260200190565b60405180910390a250505b6000610e7960646108e48584611c50565b90506000610e878483611c68565b90506000610e94836117b1565b9050610ea08784611f79565b610eab8787846120ab565b50600a54610eb99086611c50565b6001600160a01b03881660009081526008602052604081208054909190610ee19084906125c3565b9091555050600a54610ef39083611c50565b6001600160a01b03871660009081526008602052604081208054909190610f1b9084906125ea565b90915550610f479050610f3e610f3060025490565b6108e484600160401b611c50565b600a5490611d8a565b600a555060019695505050505050565b610f5f6120c4565b6001600160a01b038216600081815260096020908152604091829020805460ff19168515159081179091558251938452908301527f24829d9ffd4331d92d53676e6b3ccecb3a0d42bcc01e08e5ba9235f707aaa770910160405180910390a15050565b600033610cca818585610fd58383611a3a565b610fdf9190612580565b611e55565b6000610ff160013361116f565b11610ffb57600080fd5b336000611008818361116f565b905061101881600160401b611c50565b6001600160a01b038316600090815260086020526040812080549091906110409084906125ea565b90915550506001600160a01b038216600090815260076020526040902054611069908290611d8a565b6001600160a01b03831660008181526007602052604080822082905551929350909183156108fc0291849190818181858888f193505050501580156110b2573d6000803e3d6000fd5b50816001600160a01b03167fccad973dcd043c7d680389db4378bd6b9775db7124092e9e0422c9e46d7985dc826040516110ee91815260200190565b60405180910390a25050565b6111043382611f79565b50565b600061111260025490565b6000036111325761112d64174876e8006402540be400611c68565b905090565b6000611145670de0b6b3a76400006117b1565b9050600061115960646108e4846004611c50565b905060006111678383611c68565b949350505050565b6000826111845761117f82610bdb565b610cff565b6001600160a01b0382166000908152600760205260409020546111a683610bdb565b610cff9190612580565b60008060026111c0846001612580565b6111ca9190612629565b90508291505b81811015611203579050806002816111e88186612629565b6111f29190612580565b6111fc9190612629565b90506111d0565b50919050565b6001600160a01b031660009081526020819052604090205490565b6000806112308361145f565b90506000611167606461124e61124782600a611c68565b8590611c5c565b90611c50565b61125c6120c4565b611266600061211e565b565b611273823383612170565b61127d8282611f79565b5050565b600061128c60025490565b6000036112a75761112d64174876e8006402540be400611d8a565b60006112ba670de0b6b3a76400006117b1565b905060006112ce60646108e484600a611c50565b905060006111678383611d8a565b6000816000036112ee57506000919050565b60006112f960025490565b61130b90670de0b6b3a7640000612580565b90506000836113206402540be4006002612612565b61132a9190612612565b60026402540be400670de0b6b3a76400006113458683612612565b61134f9190612629565b64174876e80061136c671bc16d674ec800006402540be400612629565b6113769190612580565b6113809190612580565b61138a919061267f565b6113949190612776565b61139e919061267f565b905060006402540be4006113b1836111b0565b6402540be400670de0b6b3a76400006113ca8783612612565b6113d49190612629565b64174876e8006113f1671bc16d674ec800006402540be400612629565b6113fb9190612580565b6114059190612580565b61140f919061267f565b611419919061267f565b61142b90670de0b6b3a7640000612612565b6114359190612629565b95945050505050565b60003361144a81611209565b91505090565b606060048054610c399061264b565b60008160000361147157506000919050565b600061148a64174876e800670de0b6b3a7640000612612565b9050600061149760025490565b905060006114ab6402540be4006002612612565b6114c4906ec097ce7bc90715b34b9f1000000000612612565b82846114d66402540be4006002612612565b6114e09190612612565b6114ea9190612612565b6114f5600285612776565b61150560026402540be400612776565b61150f9190612612565b6115198589612580565b6402540be40061152a886002612612565b6115349190612612565b61153e9190612612565b600261154a878b612580565b6115549190612776565b61156460026402540be400612776565b61156e9190612612565b6115789190612580565b611582919061267f565b61142b919061267f565b60006115a861159d60646004611c68565b6108e4846064611c50565b91506000610cff836112dc565b600033816115c38286611a3a565b9050838110156116235760405162461bcd60e51b815260206004820152602560248201527f45524332303a2064656372656173656420616c6c6f77616e63652062656c6f77604482015264207a65726f60d81b606482015260840161098d565b6116308286868403611e55565b506001949350505050565b60008061164661143e565b1161165057600080fd5b3361165a81611209565b8311156116a05760405162461bcd60e51b815260206004820152601460248201527334b73b30b634b21030b6b7bab73a103a37b5b2b760611b604482015260640161098d565b60006116ad60018361116f565b11156116bb576116bb610fe4565b60006116cc60646108e48684611c50565b905060006116da8583611c68565b905060006116e7836117b1565b90506116f38484611f79565b6116fd87836121ea565b50600a5461170b9087611c50565b6001600160a01b038516600090815260086020526040812080549091906117339084906125c3565b9091555050600a546117459083611c50565b6001600160a01b03881660009081526008602052604081208054909190610f1b9084906125ea565b600061177860025490565b82111561178457600080fd5b600061178f836117b1565b905060006117a360646108e4846004611c50565b905060006114358383611c68565b6000816000036117c357506000919050565b60006117d783670de0b6b3a7640000612580565b905060006117e460025490565b6117f690670de0b6b3a7640000612580565b90506000611435670de0b6b3a76400006108e4600282876118178382612776565b611821919061267f565b61182b9190612629565b61183a906402540be400612612565b6118449190612629565b61185687670de0b6b3a7640000611c68565b6402540be40061186e88670de0b6b3a7640000611c5c565b61187d906402540be400612612565b61188c9064174876e800612580565b611896919061267f565b6118a09190612612565b90611c68565b6118b13483836108d0565b505050565b60006118c061143e565b116118ca57600080fd5b336118d481611209565b8311156118e7576118e481611209565b92505b60006118f2846117b1565b9050600061190660646108e4846004611c50565b905060006119148383611c68565b9050808511156119665760405162461bcd60e51b815260206004820152601c60248201527f6d696e4554484f7574206c657373207461786564457468657265756d00000000604482015260640161098d565b6119708487611f79565b600061199061198383600160401b611c50565b600a54610ab6908a611c50565b6001600160a01b0386166000908152600860205260408120805492935083929091906119bd9084906125c3565b9091555050600254156119dd576119d9610f3e610abc60025490565b600a555b604080516000808252602082018a9052818301859052606082015290516001600160a01b0387169182917fd78ad95fa46c994b6551d0da85fc275fe613ce37657fb8d5e3d130840159d8229181900360800190a350505050505050565b6001600160a01b03918216600090815260016020908152604080832093909416825291909152205490565b336000611a7182611209565b90508015611a8457611a848160016118b6565b61127d610fe4565b6000306001600160a01b03831603611aa757610cef8361176d565b610cff83611b26565b611ab86120c4565b6001600160a01b038116611b1d5760405162461bcd60e51b815260206004820152602660248201527f4f776e61626c653a206e6577206f776e657220697320746865207a65726f206160448201526564647265737360d01b606482015260840161098d565b6111048161211e565b600080611b3960646108e485600a611c50565b90506000611b478483611c68565b9050600061143582611c74565b6000611b6160013361116f565b11611b6b57600080fd5b6000611b7860003361116f565b905033611b8982600160401b611c50565b6001600160a01b03821660009081526008602052604081208054909190611bb19084906125ea565b90915550506001600160a01b038116600090815260076020526040902054611bda908390611d8a565b6001600160a01b0382166000908152600760205260408120819055909250611c04838260016108d0565b60408051858152602081018390529192506001600160a01b038416917fbe339fc14b041c2b0e0f3dd2cd325d0c3668b78378001e53160eab3615326458910160405180910390a2505050565b6000610cff8284612612565b6000610cff8284612629565b6000610cff828461267f565b600081600003611c8657506000919050565b6000611c9f64174876e800670de0b6b3a7640000612612565b90506000611cac60025490565b6402540be400611d76846118a0611cc260025490565b87611cd36402540be4006002612612565b611cdd9190612612565b611ce79190612612565b60028054611cf59190612776565b611d0560026402540be400612776565b611d0f9190612612565b611d218b670de0b6b3a7640000612612565b611d386402540be400670de0b6b3a7640000612612565b611d43906002612612565b611d4d9190612612565b611d5860028b612776565b611d629190612580565b611d6c9190612580565b61056c9190612580565b611d809190612629565b611167919061267f565b6000610cff8284612580565b6001600160a01b038216611dec5760405162461bcd60e51b815260206004820152601f60248201527f45524332303a206d696e7420746f20746865207a65726f206164647265737300604482015260640161098d565b8060026000828254611dfe9190612580565b90915550506001600160a01b038216600081815260208181526040808320805486019055518481527fddf252ad1be2c89b69c2b068fc378daa952ba7f163c4a11628f55a4df523b3ef910160405180910390a35050565b6001600160a01b038316611eb75760405162461bcd60e51b8152602060048201526024808201527f45524332303a20617070726f76652066726f6d20746865207a65726f206164646044820152637265737360e01b606482015260840161098d565b6001600160a01b038216611f185760405162461bcd60e51b815260206004820152602260248201527f45524332303a20617070726f766520746f20746865207a65726f206164647265604482015261737360f01b606482015260840161098d565b6001600160a01b0383811660008181526001602090815260408083209487168084529482529182902085905590518481527f8c5be1e5ebec7d5bd14f71427d1e84f3dd0314c0f7b2291e5b200ac8c7c3b925910160405180910390a3505050565b6001600160a01b038216611fd95760405162461bcd60e51b815260206004820152602160248201527f45524332303a206275726e2066726f6d20746865207a65726f206164647265736044820152607360f81b606482015260840161098d565b6001600160a01b0382166000908152602081905260409020548181101561204d5760405162461bcd60e51b815260206004820152602260248201527f45524332303a206275726e20616d6f756e7420657863656564732062616c616e604482015261636560f01b606482015260840161098d565b6001600160a01b0383166000818152602081815260408083208686039055600280548790039055518581529192917fddf252ad1be2c89b69c2b068fc378daa952ba7f163c4a11628f55a4df523b3ef910160405180910390a3505050565b6000336120b9858285612170565b6116308585856121f4565b6005546001600160a01b031633146112665760405162461bcd60e51b815260206004820181905260248201527f4f776e61626c653a2063616c6c6572206973206e6f7420746865206f776e6572604482015260640161098d565b600580546001600160a01b038381166001600160a01b0319831681179093556040519116919082907f8be0079c531659141344cd1fd0a4f28419497f9722a3daafe3b4186f6b6457e090600090a35050565b600061217c8484611a3a565b905060001981146121e457818110156121d75760405162461bcd60e51b815260206004820152601d60248201527f45524332303a20696e73756666696369656e7420616c6c6f77616e6365000000604482015260640161098d565b6121e48484848403611e55565b50505050565b600033610cca8185855b6001600160a01b0383166122585760405162461bcd60e51b815260206004820152602560248201527f45524332303a207472616e736665722066726f6d20746865207a65726f206164604482015264647265737360d81b606482015260840161098d565b6001600160a01b0382166122ba5760405162461bcd60e51b815260206004820152602360248201527f45524332303a207472616e7366657220746f20746865207a65726f206164647260448201526265737360e81b606482015260840161098d565b6001600160a01b038316600090815260208190526040902054818110156123325760405162461bcd60e51b815260206004820152602660248201527f45524332303a207472616e7366657220616d6f756e7420657863656564732062604482015265616c616e636560d01b606482015260840161098d565b6001600160a01b03848116600081815260208181526040808320878703905593871680835291849020805487019055925185815290927fddf252ad1be2c89b69c2b068fc378daa952ba7f163c4a11628f55a4df523b3ef910160405180910390a36121e4565b80356001600160a01b03811681146123af57600080fd5b919050565b6000602082840312156123c657600080fd5b610cff82612398565b600060208083528351808285015260005b818110156123fc578581018301518582016040015282016123e0565b506000604082860101526040601f19601f8301168501019250505092915050565b6000806040838503121561243057600080fd5b61243983612398565b946020939093013593505050565b6000806040838503121561245a57600080fd5b8235915061246a60208401612398565b90509250929050565b60008060006060848603121561248857600080fd5b61249184612398565b925061249f60208501612398565b9150604084013590509250925092565b803580151581146123af57600080fd5b600080604083850312156124d257600080fd5b6124db83612398565b915061246a602084016124af565b6000602082840312156124fb57600080fd5b5035919050565b6000806040838503121561251557600080fd5b61251e836124af565b915061246a60208401612398565b6000806040838503121561253f57600080fd5b50508035926020909101359150565b6000806040838503121561256157600080fd5b61251e83612398565b634e487b7160e01b600052601160045260246000fd5b80820180821115610c2457610c2461256a565b80820260008212600160ff1b841416156125af576125af61256a565b8181058314821517610c2457610c2461256a565b81810360008312801583831316838312821617156125e3576125e361256a565b5092915050565b808201828112600083128015821682158216171561260a5761260a61256a565b505092915050565b8082028115828204841417610c2457610c2461256a565b60008261264657634e487b7160e01b600052601260045260246000fd5b500490565b600181811c9082168061265f57607f821691505b60208210810361120357634e487b7160e01b600052602260045260246000fd5b81810381811115610c2457610c2461256a565b600181815b808511156126cd5781600019048211156126b3576126b361256a565b808516156126c057918102915b93841c9390800290612697565b509250929050565b6000826126e457506001610c24565b816126f157506000610c24565b816001811461270757600281146127115761272d565b6001915050610c24565b60ff8411156127225761272261256a565b50506001821b610c24565b5060208310610133831016604e8410600b8410161715612750575081810a610c24565b61275a8383612692565b806000190482111561276e5761276e61256a565b029392505050565b6000610cff60ff8416836126d556fea26469706673582212200806a1fd7ebb62cecd836ec19b836af248ebb7c32e9b9a785feea415ea56bf6d64736f6c63430008110033",
  "immutableReferences": {},
  "source": "// SPDX-License-Identifier: MIT\npragma solidity >=0.6.12;\n\nimport \"@openzeppelin/contracts/utils/math/SafeMath.sol\";\nimport \"@openzeppelin/contracts/token/ERC20/IERC20.sol\";\nimport \"@openzeppelin/contracts/token/ERC20/ERC20.sol\";\nimport \"@openzeppelin/contracts/token/ERC20/extensions/ERC20Burnable.sol\";\nimport \"@openzeppelin/contracts/utils/Context.sol\";\nimport \"@openzeppelin/contracts/access/Ownable.sol\";\n\ncontract XBOT is ERC20Burnable, Ownable {\n    using SafeMath for uint256;\n\n    modifier onlyBagholders {\n        require(myTokens() > 0);\n        _;\n    }\n\n    modifier onlyStronghands {\n        require(myDividends(true, msg.sender) > 0);\n        _;\n    }\n\n    event Swap (\n        address indexed sender,\n        uint256 amount0In, \n        uint256 amount1In, \n        uint256 amount0Out, \n        uint256 amount1Out, \n        address indexed to);\n\n    // event onTokenPurchase(\n    //     address indexed customerAddress,\n    //     uint256 incomingEthereum,\n    //     uint256 tokensMinted,\n    //     address indexed referredBy,\n    //     uint timestamp,\n    //     uint256 price\n\t// );\n\n    // event onTokenSell(\n    //     address indexed customerAddress,\n    //     uint256 tokensBurned,\n    //     uint256 ethereumEarned,\n    //     uint timestamp,\n    //     uint256 price\n\t// );\n\n    event onReinvestment(\n        address indexed customerAddress,\n        uint256 ethereumReinvested,\n        uint256 tokensMinted\n\t);\n\n    event onWithdraw(\n        address indexed customerAddress,\n        uint256 ethereumWithdrawn\n\t);\n\n    event onSetContractAllowanded(address _addressContract, bool _status);\n\n    uint8 constant public entryFee_ = 10;\n    uint8 constant public transferFee_ = 0;\n    uint8 constant public exitFee_ = 4;\n    uint8 constant public refferalFee_ = 33;\n    uint256 constant public tokenPriceInitial_ = 0.0000001 ether;\n    uint256 constant public tokenPriceIncremental_ = 0.00000001 ether;\n    uint256 constant public magnitude = 2 ** 64;\n    uint256 public stakingRequirement = 50e18;\n    mapping(address => uint256) public referralBalance_;\n    mapping(address => int256) public payoutsTo_;\n    mapping(address => bool) public contractAllowanded;\n    uint256 public profitPerShare_;\n\n    constructor(\n    ) ERC20(\"DeFiXBOT\", \"XBOT\") {\n    }\n\n    function buy(address _referredBy, uint256 minTokenOut) public payable{\n        purchaseTokens(msg.value, _referredBy, minTokenOut);\n    }\n\n    receive() external payable  { \n        purchaseTokens(msg.value, owner(), 1);\n    }\n\n    fallback() external payable{\n        purchaseTokens(msg.value, owner(), 1);\n    }\n\n    function setContractAllowanded(address _addressContract, bool _status) public onlyOwner {\n        contractAllowanded[_addressContract] = _status;\n        emit onSetContractAllowanded(_addressContract, _status);\n    }\n\n    function reinvest() onlyStronghands public {\n        uint256 _dividends = myDividends(false, msg.sender);\n        address _customerAddress = msg.sender;\n        payoutsTo_[_customerAddress] +=  int256(_dividends.mul(magnitude));\n        _dividends = _dividends.add(referralBalance_[_customerAddress]);\n        referralBalance_[_customerAddress] = 0;\n        uint256 _tokens = purchaseTokens(_dividends, address(0), 1);\n        emit onReinvestment(_customerAddress, _dividends, _tokens);\n    }\n\n    function exit() public {\n        address _customerAddress = msg.sender;\n        uint256 _tokens = balanceOf(_customerAddress);\n        if (_tokens > 0) sell(_tokens, 1);\n        withdraw();\n    }\n\n    function withdraw() onlyStronghands public {\n        address _customerAddress = msg.sender;\n        uint256 _dividends = myDividends(false, _customerAddress);\n        payoutsTo_[_customerAddress] += int256(_dividends.mul(magnitude));\n        _dividends = _dividends.add(referralBalance_[_customerAddress]);\n        referralBalance_[_customerAddress] = 0;\n        payable(_customerAddress).transfer(_dividends);\n        emit onWithdraw(_customerAddress, _dividends);\n    }\n\n    function sell(uint256 _amountOfTokens, uint256 minETHOut) onlyBagholders public {\n        address _customerAddress = msg.sender;\n        if(_amountOfTokens > balanceOf(_customerAddress)) {\n            _amountOfTokens = balanceOf(_customerAddress);\n        }\n        uint256 _ethereum = tokensToEthereum_(_amountOfTokens);\n        uint256 _dividends = _ethereum.mul(exitFee_).div(100);\n        uint256 _taxedEthereum = _ethereum.sub(_dividends);\n        require(minETHOut <= _taxedEthereum, \"minETHOut less taxedEthereum\");\n\n        super._burn(_customerAddress, _amountOfTokens);\n\n        int256 _updatedPayouts = int256(profitPerShare_.mul(_amountOfTokens).add(_taxedEthereum.mul(magnitude)));\n        payoutsTo_[_customerAddress] -= _updatedPayouts;\n\n        if (totalSupply() > 0) {\n            profitPerShare_ = profitPerShare_.add(_dividends.mul(magnitude).div(totalSupply()));\n        }\n        // emit onTokenSell(_customerAddress, _amountOfTokens, _taxedEthereum, block.timestamp, buyPrice());\n        emit Swap(_customerAddress, 0, _amountOfTokens, _taxedEthereum, 0, _customerAddress);\n    }\n\n    function transfer(address _toAddress, uint256 _amountOfTokens) onlyBagholders public override returns (bool) {\n        address _customerAddress = msg.sender;\n        require(_amountOfTokens <= balanceOf(_customerAddress), \"invalid amount token\");\n\n        if (myDividends(true, _customerAddress) > 0) {\n            withdraw();\n        }\n\n        uint256 _tokenFee = _amountOfTokens.mul(transferFee_).div(100);\n        uint256 _taxedTokens = _amountOfTokens.sub(_tokenFee);\n        uint256 _dividends = tokensToEthereum_(_tokenFee);\n        super._burn(_customerAddress, _tokenFee);\n        super.transfer(_toAddress, _taxedTokens);\n\n        payoutsTo_[_customerAddress] -= int256(profitPerShare_.mul(_amountOfTokens));\n        payoutsTo_[_toAddress] += int256(profitPerShare_.mul(_taxedTokens));\n        profitPerShare_ = profitPerShare_.add(_dividends.mul(magnitude).div(totalSupply()));\n        return true;\n    }\n\n    function transferFrom(address _fromAddress, address _toAddress, uint256 _amountOfTokens) public override returns (bool) {\n        require(_amountOfTokens <= balanceOf(_fromAddress), \"invalid amount token\");\n        if (myDividends(true, _fromAddress) > 0) {\n            address _customerAddress = _fromAddress;\n            uint256 _dividendsWithdraw = myDividends(false, _customerAddress);\n            payoutsTo_[_customerAddress] += int256(_dividendsWithdraw.mul(magnitude));\n            _dividendsWithdraw = _dividendsWithdraw.add(referralBalance_[_customerAddress]);\n            referralBalance_[_customerAddress] = 0;\n            payable(_customerAddress).transfer(_dividendsWithdraw);\n            emit onWithdraw(_customerAddress, _dividendsWithdraw);\n        }\n\n        uint256 _tokenFee = _amountOfTokens.mul(transferFee_).div(100);\n        uint256 _taxedTokens = _amountOfTokens.sub(_tokenFee);\n        uint256 _dividends = tokensToEthereum_(_tokenFee);\n        super._burn(_fromAddress, _tokenFee);\n        super.transferFrom(_fromAddress, _toAddress, _taxedTokens);\n\n        payoutsTo_[_fromAddress] -= int256(profitPerShare_.mul(_amountOfTokens));\n        payoutsTo_[_toAddress] += int256(profitPerShare_.mul(_taxedTokens));\n        profitPerShare_ = profitPerShare_.add(_dividends.mul(magnitude).div(totalSupply()));\n        return true;\n    }\n\n    function getETHBalance() public view returns (uint256) {\n        return address(this).balance;\n    }\n\n    function myTokens() public view returns (uint256) {\n        address _customerAddress = msg.sender;\n        return balanceOf(_customerAddress);\n    }\n\n    function myDividends(bool _includeReferralBonus, address _customerAddress) public view returns (uint256) {\n        return _includeReferralBonus ? dividendsOf(_customerAddress) + referralBalance_[_customerAddress] : dividendsOf(_customerAddress) ;\n    }\n\n    function dividendsOf(address _customerAddress) public view returns (uint256) {\n        return (uint256) ((int256) (profitPerShare_ * balanceOf(_customerAddress)) - payoutsTo_[_customerAddress]) / magnitude;\n    }\n\n    function sellPrice() public view returns (uint256) {\n        if (totalSupply() == 0) {\n            return tokenPriceInitial_.sub(tokenPriceIncremental_);\n        } else {\n            uint256 _ethereum = tokensToEthereum_(1e18);\n            uint256 _dividends = _ethereum.mul(exitFee_).div(100);\n            uint256 _taxedEthereum = _ethereum.sub(_dividends);\n\n            return _taxedEthereum;\n        }\n    }\n\n    function buyPrice() public view returns (uint256) {\n        if (totalSupply() == 0) {\n            return tokenPriceInitial_.add(tokenPriceIncremental_);\n        } else {\n            uint256 _ethereum = tokensToEthereum_(1e18);\n            uint256 _dividends = _ethereum.mul(entryFee_).div(100);\n            uint256 _taxedEthereum = _ethereum.add(_dividends);\n\n            return _taxedEthereum;\n        }\n    }\n\n    function calculateTokenOut(uint256 _ethereumToSpend) public view returns (uint256) {\n        uint256 _dividends = _ethereumToSpend.mul(entryFee_).div(100);\n        uint256 _taxedEthereum = _ethereumToSpend.sub(_dividends);\n        uint256 _amountOfTokens = ethereumToTokens_(_taxedEthereum);\n        return _amountOfTokens;\n    }\n\n    function calculateEthereumOut(uint256 _tokensToSell) public view returns (uint256) {\n        require(_tokensToSell <= totalSupply());\n        uint256 _ethereum = tokensToEthereum_(_tokensToSell);\n        uint256 _dividends = _ethereum.mul(exitFee_).div(100);\n        uint256 _taxedEthereum = _ethereum.sub(_dividends);\n        return _taxedEthereum;\n    }\n\n    function calculateTokenIn(uint256 _ethereumIn) public view returns (uint256) {\n        _ethereumIn = (_ethereumIn.mul(100)).div(uint256(100).sub(exitFee_));\n        uint256 _amountTokenInput = getTokenInputOfEthereumOutput(_ethereumIn);\n        return _amountTokenInput;\n    }\n   \n    function calculateEthereumIn(uint256 _tokenOut) public view returns(uint256) {\n        uint256 _taxedEthereum = getEtherumInputOfTokenOutput(_tokenOut);\n        uint256 _amountEthereumInput = _taxedEthereum.div(uint256(100).sub(entryFee_)).mul(100);\n        return _amountEthereumInput;\n    }\n\n    function purchaseTokens(uint256 _incomingEthereum, address _referredBy, uint256 minAmountOut) internal returns (uint256) {\n        address _customerAddress = msg.sender;\n        uint256 _undividedDividends = _incomingEthereum.mul(entryFee_).div(100);\n        uint256 _referralBonus = _undividedDividends.mul(refferalFee_).div(100);\n        uint256 _dividends = _undividedDividends.sub(_referralBonus);\n        uint256 _taxedEthereum = _incomingEthereum.sub(_undividedDividends);\n        uint256 _amountOfTokens = ethereumToTokens_(_taxedEthereum);\n        uint256 _fee = uint256(_dividends.mul(magnitude));\n\n        require(_amountOfTokens > 0 && _amountOfTokens.add(totalSupply()) > totalSupply(), \"error require\");\n        require(minAmountOut <= _amountOfTokens, \"min token out less amount token out\");\n        if (\n            _referredBy != address(0) &&\n            _referredBy != _customerAddress &&\n            balanceOf(_referredBy) >= stakingRequirement\n        ) {\n            referralBalance_[_referredBy] = referralBalance_[_referredBy].add(_referralBonus);\n        } else {\n            _dividends = _dividends.add(_referralBonus);\n            _fee = uint256(_dividends.mul(magnitude));\n        }\n\n        if (totalSupply() > 0) {\n            profitPerShare_ += (_dividends.mul(magnitude).div(totalSupply().add(_amountOfTokens)));\n            _fee = _fee.sub(_fee.sub(_amountOfTokens.mul(_dividends.mul(magnitude).div(totalSupply().add(_amountOfTokens)))));\n        }\n\n        _mint(_customerAddress, _amountOfTokens);\n        \n        int256 _updatedPayouts = int256(profitPerShare_) * int256(_amountOfTokens) - int256(_fee);\n        payoutsTo_[_customerAddress] += _updatedPayouts;\n\n        // emit onTokenPurchase(_customerAddress, _incomingEthereum, _amountOfTokens, _referredBy, block.timestamp, buyPrice());\n        emit Swap(_customerAddress, _incomingEthereum, 0, 0, _amountOfTokens, _customerAddress);\n        return _amountOfTokens;\n    }\n\n     function ethereumToTokens_(uint256 _ethereum) internal view returns (uint256) {\n        if(_ethereum == 0) return 0;\n        uint256 _tokenPriceInitial = tokenPriceInitial_ * 1e18;\n        uint256 _tokensReceived =\n            (\n                (\n                    (sqrt\n                        (\n                            (_tokenPriceInitial ** 2)\n                            +\n                            (2 * (tokenPriceIncremental_ * 1e18) * (_ethereum * 1e18))\n                            +\n                            ((tokenPriceIncremental_ ** 2) * (totalSupply() ** 2))\n                            +\n                            (2 * tokenPriceIncremental_ * _tokenPriceInitial*totalSupply())\n                        )\n                    ).sub(_tokenPriceInitial)\n                ) / (tokenPriceIncremental_)\n            ) - (totalSupply());\n\n        return _tokensReceived;\n    }\n\n    function tokensToEthereum_(uint256 _token) public view returns (uint256) {\n        if(_token == 0) return 0;\n        uint256 token_ = _token + 1e18;\n        uint256 _tokenSupply = totalSupply() + 1e18;\n        uint256 _etherReceived =\n            (\n                (\n                    (\n                        (\n                            tokenPriceInitial_ + (tokenPriceIncremental_ * (_tokenSupply.div(1e18)))\n                        ) - tokenPriceIncremental_\n                    ) * (token_.sub(1e18))\n                ).sub(tokenPriceIncremental_ * ((token_ ** 2 - token_) / 1e18) / 2).div(1e18)\n            );\n        return _etherReceived;\n    }\n\n    function getEtherumInputOfTokenOutput(uint256 _token) public view returns (uint256) {\n        if(_token == 0) return 0;\n        uint256 _tokenPriceInitial = tokenPriceInitial_ * 1e18;\n        uint256 _tokenSupply = totalSupply();\n        uint256 _ethereumInput = (\n            ((tokenPriceIncremental_ ** 2) * ((_token + _tokenSupply) ** 2))\n            +\n            (2 * _tokenPriceInitial * tokenPriceIncremental_ * (_token + _tokenSupply))\n            -\n            ((tokenPriceIncremental_ ** 2) * (_tokenSupply ** 2))\n            -\n            (2 * tokenPriceIncremental_ * _tokenPriceInitial * _tokenSupply)\n        ) / (2 * tokenPriceIncremental_ * 1e36);\n\n        return _ethereumInput;\n    }\n    \n    function getTokenInputOfEthereumOutput(uint256 _ethereum) public view returns (uint256) {\n        if(_ethereum == 0) return 0;\n        uint256 _tokenSupply = totalSupply() + 1e18;\n        uint256 detal = \n        (\n            (tokenPriceIncremental_ / (2 * 1e18)) \n            + \n            tokenPriceInitial_ \n            + \n            ((tokenPriceIncremental_ * _tokenSupply) / 1e18) \n            - \n            tokenPriceIncremental_\n        ) ** 2 \n        - \n        (2 * tokenPriceIncremental_ * _ethereum);\n\n        uint256 _tokenInput = \n        (\n            (\n                (tokenPriceIncremental_ / (2 * 1e18)) \n                + \n                tokenPriceInitial_ \n                + \n                ((tokenPriceIncremental_ * _tokenSupply) / 1e18) \n                - \n                tokenPriceIncremental_ \n                - \n                sqrt(detal)\n            ) * 1e18\n        ) / (tokenPriceIncremental_);\n        return _tokenInput;\n    }\n\n    function getAmountOut(uint256 _amountIn, address _tokenIn) public view returns (uint256) {\n        if(_tokenIn == address(this)) {\n            return calculateEthereumOut(_amountIn);\n        }\n        return calculateTokenOut(_amountIn);\n    }\n\n    function getAmountIn(uint256 _amountOut, address _tokenOut) public view returns(uint256) {\n        if(_tokenOut == address(this)) {\n            return calculateEthereumIn(_amountOut);\n        }\n        return calculateTokenIn(_amountOut);\n    }\n\n    function sqrt(uint256 x) public pure returns (uint256 y) {\n        uint256 z = (x + 1) / 2;\n        y = x;\n\n        while (z < y) {\n            y = z;\n            z = (x / z + z) / 2;\n        }\n    }\n}",
  "sourcePath": "/Applications/projects/contracts/contracts/DeFiXBot/XBOT.sol",
  "compiler": {
    "name": "solc",
    "version": "0.8.17+commit.8df45f5f.Emscripten.clang"
  },
  "schemaVersion": "3.4.11",
  "updatedAt": "2023-09-25T10:18:28.006Z",
  "devdoc": {
    "kind": "dev",
    "methods": {
      "allowance(address,address)": {
        "details": "See {IERC20-allowance}."
      },
      "approve(address,uint256)": {
        "details": "See {IERC20-approve}. NOTE: If `amount` is the maximum `uint256`, the allowance is not updated on `transferFrom`. This is semantically equivalent to an infinite approval. Requirements: - `spender` cannot be the zero address."
      },
      "balanceOf(address)": {
        "details": "See {IERC20-balanceOf}."
      },
      "burn(uint256)": {
        "details": "Destroys `amount` tokens from the caller. See {ERC20-_burn}."
      },
      "burnFrom(address,uint256)": {
        "details": "Destroys `amount` tokens from `account`, deducting from the caller's allowance. See {ERC20-_burn} and {ERC20-allowance}. Requirements: - the caller must have allowance for ``accounts``'s tokens of at least `amount`."
      },
      "decimals()": {
        "details": "Returns the number of decimals used to get its user representation. For example, if `decimals` equals `2`, a balance of `505` tokens should be displayed to a user as `5.05` (`505 / 10 ** 2`). Tokens usually opt for a value of 18, imitating the relationship between Ether and Wei. This is the default value returned by this function, unless it's overridden. NOTE: This information is only used for _display_ purposes: it in no way affects any of the arithmetic of the contract, including {IERC20-balanceOf} and {IERC20-transfer}."
      },
      "decreaseAllowance(address,uint256)": {
        "details": "Atomically decreases the allowance granted to `spender` by the caller. This is an alternative to {approve} that can be used as a mitigation for problems described in {IERC20-approve}. Emits an {Approval} event indicating the updated allowance. Requirements: - `spender` cannot be the zero address. - `spender` must have allowance for the caller of at least `subtractedValue`."
      },
      "increaseAllowance(address,uint256)": {
        "details": "Atomically increases the allowance granted to `spender` by the caller. This is an alternative to {approve} that can be used as a mitigation for problems described in {IERC20-approve}. Emits an {Approval} event indicating the updated allowance. Requirements: - `spender` cannot be the zero address."
      },
      "name()": {
        "details": "Returns the name of the token."
      },
      "owner()": {
        "details": "Returns the address of the current owner."
      },
      "renounceOwnership()": {
        "details": "Leaves the contract without owner. It will not be possible to call `onlyOwner` functions. Can only be called by the current owner. NOTE: Renouncing ownership will leave the contract without an owner, thereby disabling any functionality that is only available to the owner."
      },
      "symbol()": {
        "details": "Returns the symbol of the token, usually a shorter version of the name."
      },
      "totalSupply()": {
        "details": "See {IERC20-totalSupply}."
      },
      "transferOwnership(address)": {
        "details": "Transfers ownership of the contract to a new account (`newOwner`). Can only be called by the current owner."
      }
    },
    "version": 1
  },
  "userdoc": {
    "kind": "user",
    "methods": {},
    "version": 1
  }
}